{
	"contracts/DelegateCall.sol": {
		"Addition": {
			"abi": [
				{
					"inputs": [
						{
							"internalType": "uint256",
							"name": "val",
							"type": "uint256"
						}
					],
					"name": "addTwoNumbers",
					"outputs": [],
					"stateMutability": "nonpayable",
					"type": "function"
				},
				{
					"inputs": [
						{
							"internalType": "uint256",
							"name": "val",
							"type": "uint256"
						}
					],
					"name": "addfunctionByteCode",
					"outputs": [
						{
							"internalType": "bytes",
							"name": "",
							"type": "bytes"
						}
					],
					"stateMutability": "pure",
					"type": "function"
				},
				{
					"inputs": [],
					"name": "total",
					"outputs": [
						{
							"internalType": "uint256",
							"name": "",
							"type": "uint256"
						}
					],
					"stateMutability": "view",
					"type": "function"
				}
			],
			"devdoc": {
				"kind": "dev",
				"methods": {},
				"version": 1
			},
			"evm": {
				"assembly": "    /* \"contracts/DelegateCall.sol\":458:784  contract Addition{... */\n  mstore(0x40, 0x80)\n  callvalue\n  dup1\n  iszero\n  tag_1\n  jumpi\n  revert(0x00, 0x00)\ntag_1:\n  pop\n  dataSize(sub_0)\n  dup1\n  dataOffset(sub_0)\n  0x00\n  codecopy\n  0x00\n  return\nstop\n\nsub_0: assembly {\n        /* \"contracts/DelegateCall.sol\":458:784  contract Addition{... */\n      mstore(0x40, 0x80)\n      callvalue\n      dup1\n      iszero\n      tag_1\n      jumpi\n      revert(0x00, 0x00)\n    tag_1:\n      pop\n      jumpi(tag_2, lt(calldatasize, 0x04))\n      shr(0xe0, calldataload(0x00))\n      dup1\n      0x2ddbd13a\n      eq\n      tag_3\n      jumpi\n      dup1\n      0x3dd3d7de\n      eq\n      tag_4\n      jumpi\n      dup1\n      0xfc71cec4\n      eq\n      tag_5\n      jumpi\n    tag_2:\n      revert(0x00, 0x00)\n        /* \"contracts/DelegateCall.sol\":484:502  uint public  total */\n    tag_3:\n      tag_6\n      tag_7\n      jump\t// in\n    tag_6:\n      mload(0x40)\n      tag_8\n      swap2\n      swap1\n      tag_9\n      jump\t// in\n    tag_8:\n      mload(0x40)\n      dup1\n      swap2\n      sub\n      swap1\n      return\n        /* \"contracts/DelegateCall.sol\":626:781  function addfunctionByteCode(uint val) public pure returns (bytes memory){... */\n    tag_4:\n      tag_10\n      0x04\n      dup1\n      calldatasize\n      sub\n      dup2\n      add\n      swap1\n      tag_11\n      swap2\n      swap1\n      tag_12\n      jump\t// in\n    tag_11:\n      tag_13\n      jump\t// in\n    tag_10:\n      mload(0x40)\n      tag_14\n      swap2\n      swap1\n      tag_15\n      jump\t// in\n    tag_14:\n      mload(0x40)\n      dup1\n      swap2\n      sub\n      swap1\n      return\n        /* \"contracts/DelegateCall.sol\":538:610  function addTwoNumbers(uint val) public {... */\n    tag_5:\n      tag_16\n      0x04\n      dup1\n      calldatasize\n      sub\n      dup2\n      add\n      swap1\n      tag_17\n      swap2\n      swap1\n      tag_12\n      jump\t// in\n    tag_17:\n      tag_18\n      jump\t// in\n    tag_16:\n      stop\n        /* \"contracts/DelegateCall.sol\":484:502  uint public  total */\n    tag_7:\n      sload(0x00)\n      dup2\n      jump\t// out\n        /* \"contracts/DelegateCall.sol\":626:781  function addfunctionByteCode(uint val) public pure returns (bytes memory){... */\n    tag_13:\n        /* \"contracts/DelegateCall.sol\":686:698  bytes memory */\n      0x60\n        /* \"contracts/DelegateCall.sol\":767:770  val */\n      dup2\n        /* \"contracts/DelegateCall.sol\":717:771  abi.encodeWithSignature(\"addTwoNumbers(uint256)\", val) */\n      add(0x24, mload(0x40))\n      tag_20\n      swap2\n      swap1\n      tag_9\n      jump\t// in\n    tag_20:\n      mload(0x40)\n      0x20\n      dup2\n      dup4\n      sub\n      sub\n      dup2\n      mstore\n      swap1\n      0x40\n      mstore\n      and(not(0xffffffffffffffffffffffffffffffffffffffffffffffffffffffff), 0xfc71cec400000000000000000000000000000000000000000000000000000000)\n      0x20\n      dup3\n      add\n      dup1\n      mload\n      0xffffffffffffffffffffffffffffffffffffffffffffffffffffffff\n      dup4\n      dup2\n      dup4\n      and\n      or\n      dup4\n      mstore\n      pop\n      pop\n      pop\n      pop\n        /* \"contracts/DelegateCall.sol\":710:771  return abi.encodeWithSignature(\"addTwoNumbers(uint256)\", val) */\n      swap1\n      pop\n        /* \"contracts/DelegateCall.sol\":626:781  function addfunctionByteCode(uint val) public pure returns (bytes memory){... */\n      swap2\n      swap1\n      pop\n      jump\t// out\n        /* \"contracts/DelegateCall.sol\":538:610  function addTwoNumbers(uint val) public {... */\n    tag_18:\n        /* \"contracts/DelegateCall.sol\":597:600  val */\n      dup1\n        /* \"contracts/DelegateCall.sol\":589:594  total */\n      0x00\n      0x00\n        /* \"contracts/DelegateCall.sol\":589:600  total +=val */\n      dup3\n      dup3\n      sload\n      tag_22\n      swap2\n      swap1\n      tag_23\n      jump\t// in\n    tag_22:\n      swap3\n      pop\n      pop\n      dup2\n      swap1\n      sstore\n      pop\n        /* \"contracts/DelegateCall.sol\":538:610  function addTwoNumbers(uint val) public {... */\n      pop\n      jump\t// out\n        /* \"#utility.yul\":7:84   */\n    tag_24:\n        /* \"#utility.yul\":44:51   */\n      0x00\n        /* \"#utility.yul\":73:78   */\n      dup2\n        /* \"#utility.yul\":62:78   */\n      swap1\n      pop\n        /* \"#utility.yul\":7:84   */\n      swap2\n      swap1\n      pop\n      jump\t// out\n        /* \"#utility.yul\":90:208   */\n    tag_25:\n        /* \"#utility.yul\":177:201   */\n      tag_40\n        /* \"#utility.yul\":195:200   */\n      dup2\n        /* \"#utility.yul\":177:201   */\n      tag_24\n      jump\t// in\n    tag_40:\n        /* \"#utility.yul\":172:175   */\n      dup3\n        /* \"#utility.yul\":165:202   */\n      mstore\n        /* \"#utility.yul\":90:208   */\n      pop\n      pop\n      jump\t// out\n        /* \"#utility.yul\":214:436   */\n    tag_9:\n        /* \"#utility.yul\":307:311   */\n      0x00\n        /* \"#utility.yul\":345:347   */\n      0x20\n        /* \"#utility.yul\":334:343   */\n      dup3\n        /* \"#utility.yul\":330:348   */\n      add\n        /* \"#utility.yul\":322:348   */\n      swap1\n      pop\n        /* \"#utility.yul\":358:429   */\n      tag_42\n        /* \"#utility.yul\":426:427   */\n      0x00\n        /* \"#utility.yul\":415:424   */\n      dup4\n        /* \"#utility.yul\":411:428   */\n      add\n        /* \"#utility.yul\":402:408   */\n      dup5\n        /* \"#utility.yul\":358:429   */\n      tag_25\n      jump\t// in\n    tag_42:\n        /* \"#utility.yul\":214:436   */\n      swap3\n      swap2\n      pop\n      pop\n      jump\t// out\n        /* \"#utility.yul\":523:640   */\n    tag_27:\n        /* \"#utility.yul\":632:633   */\n      0x00\n        /* \"#utility.yul\":629:630   */\n      0x00\n        /* \"#utility.yul\":622:634   */\n      revert\n        /* \"#utility.yul\":769:891   */\n    tag_29:\n        /* \"#utility.yul\":842:866   */\n      tag_47\n        /* \"#utility.yul\":860:865   */\n      dup2\n        /* \"#utility.yul\":842:866   */\n      tag_24\n      jump\t// in\n    tag_47:\n        /* \"#utility.yul\":835:840   */\n      dup2\n        /* \"#utility.yul\":832:867   */\n      eq\n        /* \"#utility.yul\":822:885   */\n      tag_48\n      jumpi\n        /* \"#utility.yul\":881:882   */\n      0x00\n        /* \"#utility.yul\":878:879   */\n      0x00\n        /* \"#utility.yul\":871:883   */\n      revert\n        /* \"#utility.yul\":822:885   */\n    tag_48:\n        /* \"#utility.yul\":769:891   */\n      pop\n      jump\t// out\n        /* \"#utility.yul\":897:1036   */\n    tag_30:\n        /* \"#utility.yul\":943:948   */\n      0x00\n        /* \"#utility.yul\":981:987   */\n      dup2\n        /* \"#utility.yul\":968:988   */\n      calldataload\n        /* \"#utility.yul\":959:988   */\n      swap1\n      pop\n        /* \"#utility.yul\":997:1030   */\n      tag_50\n        /* \"#utility.yul\":1024:1029   */\n      dup2\n        /* \"#utility.yul\":997:1030   */\n      tag_29\n      jump\t// in\n    tag_50:\n        /* \"#utility.yul\":897:1036   */\n      swap3\n      swap2\n      pop\n      pop\n      jump\t// out\n        /* \"#utility.yul\":1042:1371   */\n    tag_12:\n        /* \"#utility.yul\":1101:1107   */\n      0x00\n        /* \"#utility.yul\":1150:1152   */\n      0x20\n        /* \"#utility.yul\":1138:1147   */\n      dup3\n        /* \"#utility.yul\":1129:1136   */\n      dup5\n        /* \"#utility.yul\":1125:1148   */\n      sub\n        /* \"#utility.yul\":1121:1153   */\n      slt\n        /* \"#utility.yul\":1118:1237   */\n      iszero\n      tag_52\n      jumpi\n        /* \"#utility.yul\":1156:1235   */\n      tag_53\n      tag_27\n      jump\t// in\n    tag_53:\n        /* \"#utility.yul\":1118:1237   */\n    tag_52:\n        /* \"#utility.yul\":1276:1277   */\n      0x00\n        /* \"#utility.yul\":1301:1354   */\n      tag_54\n        /* \"#utility.yul\":1346:1353   */\n      dup5\n        /* \"#utility.yul\":1337:1343   */\n      dup3\n        /* \"#utility.yul\":1326:1335   */\n      dup6\n        /* \"#utility.yul\":1322:1344   */\n      add\n        /* \"#utility.yul\":1301:1354   */\n      tag_30\n      jump\t// in\n    tag_54:\n        /* \"#utility.yul\":1291:1354   */\n      swap2\n      pop\n        /* \"#utility.yul\":1247:1364   */\n      pop\n        /* \"#utility.yul\":1042:1371   */\n      swap3\n      swap2\n      pop\n      pop\n      jump\t// out\n        /* \"#utility.yul\":1377:1475   */\n    tag_31:\n        /* \"#utility.yul\":1428:1434   */\n      0x00\n        /* \"#utility.yul\":1462:1467   */\n      dup2\n        /* \"#utility.yul\":1456:1468   */\n      mload\n        /* \"#utility.yul\":1446:1468   */\n      swap1\n      pop\n        /* \"#utility.yul\":1377:1475   */\n      swap2\n      swap1\n      pop\n      jump\t// out\n        /* \"#utility.yul\":1481:1649   */\n    tag_32:\n        /* \"#utility.yul\":1564:1575   */\n      0x00\n        /* \"#utility.yul\":1598:1604   */\n      dup3\n        /* \"#utility.yul\":1593:1596   */\n      dup3\n        /* \"#utility.yul\":1586:1605   */\n      mstore\n        /* \"#utility.yul\":1638:1642   */\n      0x20\n        /* \"#utility.yul\":1633:1636   */\n      dup3\n        /* \"#utility.yul\":1629:1643   */\n      add\n        /* \"#utility.yul\":1614:1643   */\n      swap1\n      pop\n        /* \"#utility.yul\":1481:1649   */\n      swap3\n      swap2\n      pop\n      pop\n      jump\t// out\n        /* \"#utility.yul\":1655:1794   */\n    tag_33:\n        /* \"#utility.yul\":1744:1750   */\n      dup3\n        /* \"#utility.yul\":1739:1742   */\n      dup2\n        /* \"#utility.yul\":1734:1737   */\n      dup4\n        /* \"#utility.yul\":1728:1751   */\n      mcopy\n        /* \"#utility.yul\":1785:1786   */\n      0x00\n        /* \"#utility.yul\":1776:1782   */\n      dup4\n        /* \"#utility.yul\":1771:1774   */\n      dup4\n        /* \"#utility.yul\":1767:1783   */\n      add\n        /* \"#utility.yul\":1760:1787   */\n      mstore\n        /* \"#utility.yul\":1655:1794   */\n      pop\n      pop\n      pop\n      jump\t// out\n        /* \"#utility.yul\":1800:1902   */\n    tag_34:\n        /* \"#utility.yul\":1841:1847   */\n      0x00\n        /* \"#utility.yul\":1892:1894   */\n      0x1f\n        /* \"#utility.yul\":1888:1895   */\n      not\n        /* \"#utility.yul\":1883:1885   */\n      0x1f\n        /* \"#utility.yul\":1876:1881   */\n      dup4\n        /* \"#utility.yul\":1872:1886   */\n      add\n        /* \"#utility.yul\":1868:1896   */\n      and\n        /* \"#utility.yul\":1858:1896   */\n      swap1\n      pop\n        /* \"#utility.yul\":1800:1902   */\n      swap2\n      swap1\n      pop\n      jump\t// out\n        /* \"#utility.yul\":1908:2281   */\n    tag_35:\n        /* \"#utility.yul\":1994:1997   */\n      0x00\n        /* \"#utility.yul\":2022:2060   */\n      tag_60\n        /* \"#utility.yul\":2054:2059   */\n      dup3\n        /* \"#utility.yul\":2022:2060   */\n      tag_31\n      jump\t// in\n    tag_60:\n        /* \"#utility.yul\":2076:2146   */\n      tag_61\n        /* \"#utility.yul\":2139:2145   */\n      dup2\n        /* \"#utility.yul\":2134:2137   */\n      dup6\n        /* \"#utility.yul\":2076:2146   */\n      tag_32\n      jump\t// in\n    tag_61:\n        /* \"#utility.yul\":2069:2146   */\n      swap4\n      pop\n        /* \"#utility.yul\":2155:2220   */\n      tag_62\n        /* \"#utility.yul\":2213:2219   */\n      dup2\n        /* \"#utility.yul\":2208:2211   */\n      dup6\n        /* \"#utility.yul\":2201:2205   */\n      0x20\n        /* \"#utility.yul\":2194:2199   */\n      dup7\n        /* \"#utility.yul\":2190:2206   */\n      add\n        /* \"#utility.yul\":2155:2220   */\n      tag_33\n      jump\t// in\n    tag_62:\n        /* \"#utility.yul\":2245:2274   */\n      tag_63\n        /* \"#utility.yul\":2267:2273   */\n      dup2\n        /* \"#utility.yul\":2245:2274   */\n      tag_34\n      jump\t// in\n    tag_63:\n        /* \"#utility.yul\":2240:2243   */\n      dup5\n        /* \"#utility.yul\":2236:2275   */\n      add\n        /* \"#utility.yul\":2229:2275   */\n      swap2\n      pop\n        /* \"#utility.yul\":1998:2281   */\n      pop\n        /* \"#utility.yul\":1908:2281   */\n      swap3\n      swap2\n      pop\n      pop\n      jump\t// out\n        /* \"#utility.yul\":2287:2596   */\n    tag_15:\n        /* \"#utility.yul\":2398:2402   */\n      0x00\n        /* \"#utility.yul\":2436:2438   */\n      0x20\n        /* \"#utility.yul\":2425:2434   */\n      dup3\n        /* \"#utility.yul\":2421:2439   */\n      add\n        /* \"#utility.yul\":2413:2439   */\n      swap1\n      pop\n        /* \"#utility.yul\":2485:2494   */\n      dup2\n        /* \"#utility.yul\":2479:2483   */\n      dup2\n        /* \"#utility.yul\":2475:2495   */\n      sub\n        /* \"#utility.yul\":2471:2472   */\n      0x00\n        /* \"#utility.yul\":2460:2469   */\n      dup4\n        /* \"#utility.yul\":2456:2473   */\n      add\n        /* \"#utility.yul\":2449:2496   */\n      mstore\n        /* \"#utility.yul\":2513:2589   */\n      tag_65\n        /* \"#utility.yul\":2584:2588   */\n      dup2\n        /* \"#utility.yul\":2575:2581   */\n      dup5\n        /* \"#utility.yul\":2513:2589   */\n      tag_35\n      jump\t// in\n    tag_65:\n        /* \"#utility.yul\":2505:2589   */\n      swap1\n      pop\n        /* \"#utility.yul\":2287:2596   */\n      swap3\n      swap2\n      pop\n      pop\n      jump\t// out\n        /* \"#utility.yul\":2602:2782   */\n    tag_36:\n        /* \"#utility.yul\":2650:2727   */\n      0x4e487b7100000000000000000000000000000000000000000000000000000000\n        /* \"#utility.yul\":2647:2648   */\n      0x00\n        /* \"#utility.yul\":2640:2728   */\n      mstore\n        /* \"#utility.yul\":2747:2751   */\n      0x11\n        /* \"#utility.yul\":2744:2745   */\n      0x04\n        /* \"#utility.yul\":2737:2752   */\n      mstore\n        /* \"#utility.yul\":2771:2775   */\n      0x24\n        /* \"#utility.yul\":2768:2769   */\n      0x00\n        /* \"#utility.yul\":2761:2776   */\n      revert\n        /* \"#utility.yul\":2788:2979   */\n    tag_23:\n        /* \"#utility.yul\":2828:2831   */\n      0x00\n        /* \"#utility.yul\":2847:2867   */\n      tag_68\n        /* \"#utility.yul\":2865:2866   */\n      dup3\n        /* \"#utility.yul\":2847:2867   */\n      tag_24\n      jump\t// in\n    tag_68:\n        /* \"#utility.yul\":2842:2867   */\n      swap2\n      pop\n        /* \"#utility.yul\":2881:2901   */\n      tag_69\n        /* \"#utility.yul\":2899:2900   */\n      dup4\n        /* \"#utility.yul\":2881:2901   */\n      tag_24\n      jump\t// in\n    tag_69:\n        /* \"#utility.yul\":2876:2901   */\n      swap3\n      pop\n        /* \"#utility.yul\":2924:2925   */\n      dup3\n        /* \"#utility.yul\":2921:2922   */\n      dup3\n        /* \"#utility.yul\":2917:2926   */\n      add\n        /* \"#utility.yul\":2910:2926   */\n      swap1\n      pop\n        /* \"#utility.yul\":2945:2948   */\n      dup1\n        /* \"#utility.yul\":2942:2943   */\n      dup3\n        /* \"#utility.yul\":2939:2949   */\n      gt\n        /* \"#utility.yul\":2936:2972   */\n      iszero\n      tag_70\n      jumpi\n        /* \"#utility.yul\":2952:2970   */\n      tag_71\n      tag_36\n      jump\t// in\n    tag_71:\n        /* \"#utility.yul\":2936:2972   */\n    tag_70:\n        /* \"#utility.yul\":2788:2979   */\n      swap3\n      swap2\n      pop\n      pop\n      jump\t// out\n\n    auxdata: 0xa26469706673582212208369c54341d874068b6ebeb3db7bd3d9fae3cce659f7558d214bff871b7501a164736f6c634300081f0033\n}\n",
				"bytecode": {
					"linkReferences": {},
					"object": "6080604052348015600e575f5ffd5b506103138061001c5f395ff3fe608060405234801561000f575f5ffd5b506004361061003f575f3560e01c80632ddbd13a146100435780633dd3d7de14610061578063fc71cec414610091575b5f5ffd5b61004b6100ad565b604051610058919061017b565b60405180910390f35b61007b600480360381019061007691906101c2565b6100b2565b604051610088919061025d565b60405180910390f35b6100ab60048036038101906100a691906101c2565b610149565b005b5f5481565b6060816040516024016100c5919061017b565b6040516020818303038152906040527ffc71cec4000000000000000000000000000000000000000000000000000000007bffffffffffffffffffffffffffffffffffffffffffffffffffffffff19166020820180517bffffffffffffffffffffffffffffffffffffffffffffffffffffffff83818316178352505050509050919050565b805f5f82825461015991906102aa565b9250508190555050565b5f819050919050565b61017581610163565b82525050565b5f60208201905061018e5f83018461016c565b92915050565b5f5ffd5b6101a181610163565b81146101ab575f5ffd5b50565b5f813590506101bc81610198565b92915050565b5f602082840312156101d7576101d6610194565b5b5f6101e4848285016101ae565b91505092915050565b5f81519050919050565b5f82825260208201905092915050565b8281835e5f83830152505050565b5f601f19601f8301169050919050565b5f61022f826101ed565b61023981856101f7565b9350610249818560208601610207565b61025281610215565b840191505092915050565b5f6020820190508181035f8301526102758184610225565b905092915050565b7f4e487b71000000000000000000000000000000000000000000000000000000005f52601160045260245ffd5b5f6102b482610163565b91506102bf83610163565b92508282019050808211156102d7576102d661027d565b5b9291505056fea26469706673582212208369c54341d874068b6ebeb3db7bd3d9fae3cce659f7558d214bff871b7501a164736f6c634300081f0033",
					"opcodes": "PUSH1 0x80 PUSH1 0x40 MSTORE CALLVALUE DUP1 ISZERO PUSH1 0xE JUMPI PUSH0 PUSH0 REVERT JUMPDEST POP PUSH2 0x313 DUP1 PUSH2 0x1C PUSH0 CODECOPY PUSH0 RETURN INVALID PUSH1 0x80 PUSH1 0x40 MSTORE CALLVALUE DUP1 ISZERO PUSH2 0xF JUMPI PUSH0 PUSH0 REVERT JUMPDEST POP PUSH1 0x4 CALLDATASIZE LT PUSH2 0x3F JUMPI PUSH0 CALLDATALOAD PUSH1 0xE0 SHR DUP1 PUSH4 0x2DDBD13A EQ PUSH2 0x43 JUMPI DUP1 PUSH4 0x3DD3D7DE EQ PUSH2 0x61 JUMPI DUP1 PUSH4 0xFC71CEC4 EQ PUSH2 0x91 JUMPI JUMPDEST PUSH0 PUSH0 REVERT JUMPDEST PUSH2 0x4B PUSH2 0xAD JUMP JUMPDEST PUSH1 0x40 MLOAD PUSH2 0x58 SWAP2 SWAP1 PUSH2 0x17B JUMP JUMPDEST PUSH1 0x40 MLOAD DUP1 SWAP2 SUB SWAP1 RETURN JUMPDEST PUSH2 0x7B PUSH1 0x4 DUP1 CALLDATASIZE SUB DUP2 ADD SWAP1 PUSH2 0x76 SWAP2 SWAP1 PUSH2 0x1C2 JUMP JUMPDEST PUSH2 0xB2 JUMP JUMPDEST PUSH1 0x40 MLOAD PUSH2 0x88 SWAP2 SWAP1 PUSH2 0x25D JUMP JUMPDEST PUSH1 0x40 MLOAD DUP1 SWAP2 SUB SWAP1 RETURN JUMPDEST PUSH2 0xAB PUSH1 0x4 DUP1 CALLDATASIZE SUB DUP2 ADD SWAP1 PUSH2 0xA6 SWAP2 SWAP1 PUSH2 0x1C2 JUMP JUMPDEST PUSH2 0x149 JUMP JUMPDEST STOP JUMPDEST PUSH0 SLOAD DUP2 JUMP JUMPDEST PUSH1 0x60 DUP2 PUSH1 0x40 MLOAD PUSH1 0x24 ADD PUSH2 0xC5 SWAP2 SWAP1 PUSH2 0x17B JUMP JUMPDEST PUSH1 0x40 MLOAD PUSH1 0x20 DUP2 DUP4 SUB SUB DUP2 MSTORE SWAP1 PUSH1 0x40 MSTORE PUSH32 0xFC71CEC400000000000000000000000000000000000000000000000000000000 PUSH28 0xFFFFFFFFFFFFFFFFFFFFFFFFFFFFFFFFFFFFFFFFFFFFFFFFFFFFFFFF NOT AND PUSH1 0x20 DUP3 ADD DUP1 MLOAD PUSH28 0xFFFFFFFFFFFFFFFFFFFFFFFFFFFFFFFFFFFFFFFFFFFFFFFFFFFFFFFF DUP4 DUP2 DUP4 AND OR DUP4 MSTORE POP POP POP POP SWAP1 POP SWAP2 SWAP1 POP JUMP JUMPDEST DUP1 PUSH0 PUSH0 DUP3 DUP3 SLOAD PUSH2 0x159 SWAP2 SWAP1 PUSH2 0x2AA JUMP JUMPDEST SWAP3 POP POP DUP2 SWAP1 SSTORE POP POP JUMP JUMPDEST PUSH0 DUP2 SWAP1 POP SWAP2 SWAP1 POP JUMP JUMPDEST PUSH2 0x175 DUP2 PUSH2 0x163 JUMP JUMPDEST DUP3 MSTORE POP POP JUMP JUMPDEST PUSH0 PUSH1 0x20 DUP3 ADD SWAP1 POP PUSH2 0x18E PUSH0 DUP4 ADD DUP5 PUSH2 0x16C JUMP JUMPDEST SWAP3 SWAP2 POP POP JUMP JUMPDEST PUSH0 PUSH0 REVERT JUMPDEST PUSH2 0x1A1 DUP2 PUSH2 0x163 JUMP JUMPDEST DUP2 EQ PUSH2 0x1AB JUMPI PUSH0 PUSH0 REVERT JUMPDEST POP JUMP JUMPDEST PUSH0 DUP2 CALLDATALOAD SWAP1 POP PUSH2 0x1BC DUP2 PUSH2 0x198 JUMP JUMPDEST SWAP3 SWAP2 POP POP JUMP JUMPDEST PUSH0 PUSH1 0x20 DUP3 DUP5 SUB SLT ISZERO PUSH2 0x1D7 JUMPI PUSH2 0x1D6 PUSH2 0x194 JUMP JUMPDEST JUMPDEST PUSH0 PUSH2 0x1E4 DUP5 DUP3 DUP6 ADD PUSH2 0x1AE JUMP JUMPDEST SWAP2 POP POP SWAP3 SWAP2 POP POP JUMP JUMPDEST PUSH0 DUP2 MLOAD SWAP1 POP SWAP2 SWAP1 POP JUMP JUMPDEST PUSH0 DUP3 DUP3 MSTORE PUSH1 0x20 DUP3 ADD SWAP1 POP SWAP3 SWAP2 POP POP JUMP JUMPDEST DUP3 DUP2 DUP4 MCOPY PUSH0 DUP4 DUP4 ADD MSTORE POP POP POP JUMP JUMPDEST PUSH0 PUSH1 0x1F NOT PUSH1 0x1F DUP4 ADD AND SWAP1 POP SWAP2 SWAP1 POP JUMP JUMPDEST PUSH0 PUSH2 0x22F DUP3 PUSH2 0x1ED JUMP JUMPDEST PUSH2 0x239 DUP2 DUP6 PUSH2 0x1F7 JUMP JUMPDEST SWAP4 POP PUSH2 0x249 DUP2 DUP6 PUSH1 0x20 DUP7 ADD PUSH2 0x207 JUMP JUMPDEST PUSH2 0x252 DUP2 PUSH2 0x215 JUMP JUMPDEST DUP5 ADD SWAP2 POP POP SWAP3 SWAP2 POP POP JUMP JUMPDEST PUSH0 PUSH1 0x20 DUP3 ADD SWAP1 POP DUP2 DUP2 SUB PUSH0 DUP4 ADD MSTORE PUSH2 0x275 DUP2 DUP5 PUSH2 0x225 JUMP JUMPDEST SWAP1 POP SWAP3 SWAP2 POP POP JUMP JUMPDEST PUSH32 0x4E487B7100000000000000000000000000000000000000000000000000000000 PUSH0 MSTORE PUSH1 0x11 PUSH1 0x4 MSTORE PUSH1 0x24 PUSH0 REVERT JUMPDEST PUSH0 PUSH2 0x2B4 DUP3 PUSH2 0x163 JUMP JUMPDEST SWAP2 POP PUSH2 0x2BF DUP4 PUSH2 0x163 JUMP JUMPDEST SWAP3 POP DUP3 DUP3 ADD SWAP1 POP DUP1 DUP3 GT ISZERO PUSH2 0x2D7 JUMPI PUSH2 0x2D6 PUSH2 0x27D JUMP JUMPDEST JUMPDEST SWAP3 SWAP2 POP POP JUMP INVALID LOG2 PUSH5 0x6970667358 0x22 SLT KECCAK256 DUP4 PUSH10 0xC54341D874068B6EBEB3 0xDB PUSH28 0xD3D9FAE3CCE659F7558D214BFF871B7501A164736F6C634300081F00 CALLER "
				},
				"gasEstimates": {
					"creation": {
						"codeDepositCost": "157400",
						"executionCost": "200",
						"totalCost": "157600"
					},
					"external": {
						"addTwoNumbers(uint256)": "infinite",
						"addfunctionByteCode(uint256)": "infinite",
						"total()": "2402"
					}
				},
				"methodIdentifiers": {
					"addTwoNumbers(uint256)": "fc71cec4",
					"addfunctionByteCode(uint256)": "3dd3d7de",
					"total()": "2ddbd13a"
				}
			},
			"storageLayout": {
				"storage": [
					{
						"astId": 30,
						"contract": "contracts/DelegateCall.sol:Addition",
						"label": "total",
						"offset": 0,
						"slot": "0",
						"type": "t_uint256"
					}
				],
				"types": {
					"t_uint256": {
						"encoding": "inplace",
						"label": "uint256",
						"numberOfBytes": "32"
					}
				}
			},
			"userdoc": {
				"kind": "user",
				"methods": {},
				"version": 1
			}
		}
	}
}