{
	"contracts/ERC20.sol": {
		"Jaydip": {
			"abi": [
				{
					"inputs": [],
					"stateMutability": "nonpayable",
					"type": "constructor"
				},
				{
					"anonymous": false,
					"inputs": [
						{
							"indexed": true,
							"internalType": "address",
							"name": "owner",
							"type": "address"
						},
						{
							"indexed": true,
							"internalType": "address",
							"name": "spender",
							"type": "address"
						},
						{
							"indexed": false,
							"internalType": "uint256",
							"name": "value",
							"type": "uint256"
						}
					],
					"name": "Approval",
					"type": "event"
				},
				{
					"anonymous": false,
					"inputs": [
						{
							"indexed": true,
							"internalType": "address",
							"name": "from",
							"type": "address"
						},
						{
							"indexed": true,
							"internalType": "address",
							"name": "to",
							"type": "address"
						},
						{
							"indexed": false,
							"internalType": "uint256",
							"name": "value",
							"type": "uint256"
						}
					],
					"name": "Transfer",
					"type": "event"
				},
				{
					"inputs": [
						{
							"internalType": "address",
							"name": "owner",
							"type": "address"
						},
						{
							"internalType": "address",
							"name": "spender",
							"type": "address"
						}
					],
					"name": "allowance",
					"outputs": [
						{
							"internalType": "uint256",
							"name": "",
							"type": "uint256"
						}
					],
					"stateMutability": "view",
					"type": "function"
				},
				{
					"inputs": [
						{
							"internalType": "address",
							"name": "",
							"type": "address"
						},
						{
							"internalType": "address",
							"name": "",
							"type": "address"
						}
					],
					"name": "allowedToken",
					"outputs": [
						{
							"internalType": "uint256",
							"name": "",
							"type": "uint256"
						}
					],
					"stateMutability": "view",
					"type": "function"
				},
				{
					"inputs": [
						{
							"internalType": "address",
							"name": "spender",
							"type": "address"
						},
						{
							"internalType": "uint256",
							"name": "value",
							"type": "uint256"
						}
					],
					"name": "approve",
					"outputs": [
						{
							"internalType": "bool",
							"name": "",
							"type": "bool"
						}
					],
					"stateMutability": "nonpayable",
					"type": "function"
				},
				{
					"inputs": [
						{
							"internalType": "address",
							"name": "account",
							"type": "address"
						}
					],
					"name": "balanceOf",
					"outputs": [
						{
							"internalType": "uint256",
							"name": "",
							"type": "uint256"
						}
					],
					"stateMutability": "view",
					"type": "function"
				},
				{
					"inputs": [
						{
							"internalType": "address",
							"name": "",
							"type": "address"
						}
					],
					"name": "balanceOfUser",
					"outputs": [
						{
							"internalType": "uint256",
							"name": "",
							"type": "uint256"
						}
					],
					"stateMutability": "view",
					"type": "function"
				},
				{
					"inputs": [],
					"name": "decimales",
					"outputs": [
						{
							"internalType": "uint256",
							"name": "",
							"type": "uint256"
						}
					],
					"stateMutability": "view",
					"type": "function"
				},
				{
					"inputs": [],
					"name": "founder",
					"outputs": [
						{
							"internalType": "address",
							"name": "",
							"type": "address"
						}
					],
					"stateMutability": "view",
					"type": "function"
				},
				{
					"inputs": [],
					"name": "totalSupply",
					"outputs": [
						{
							"internalType": "uint256",
							"name": "",
							"type": "uint256"
						}
					],
					"stateMutability": "view",
					"type": "function"
				},
				{
					"inputs": [
						{
							"internalType": "address",
							"name": "to",
							"type": "address"
						},
						{
							"internalType": "uint256",
							"name": "value",
							"type": "uint256"
						}
					],
					"name": "transfer",
					"outputs": [
						{
							"internalType": "bool",
							"name": "",
							"type": "bool"
						}
					],
					"stateMutability": "nonpayable",
					"type": "function"
				},
				{
					"inputs": [
						{
							"internalType": "address",
							"name": "from",
							"type": "address"
						},
						{
							"internalType": "address",
							"name": "to",
							"type": "address"
						},
						{
							"internalType": "uint256",
							"name": "value",
							"type": "uint256"
						}
					],
					"name": "transferFrom",
					"outputs": [
						{
							"internalType": "bool",
							"name": "",
							"type": "bool"
						}
					],
					"stateMutability": "nonpayable",
					"type": "function"
				}
			],
			"devdoc": {
				"kind": "dev",
				"methods": {},
				"version": 1
			},
			"evm": {
				"assembly": "    /* \"contracts/ERC20.sol\":920:3476  contract Jaydip is IERC20{... */\n  mstore(0x40, 0x80)\n    /* \"contracts/ERC20.sol\":1150:1154  1000 */\n  0x03e8\n    /* \"contracts/ERC20.sol\":1119:1154  uint256 public  totalSupply =  1000 */\n  0x01\n  sstore\n    /* \"contracts/ERC20.sol\":1322:1323  0 */\n  0x00\n    /* \"contracts/ERC20.sol\":1297:1323  uint public  decimales = 0 */\n  0x04\n  sstore\n    /* \"contracts/ERC20.sol\":1326:1451  constructor(){... */\n  callvalue\n  dup1\n  iszero\n  tag_1\n  jumpi\n  revert(0x00, 0x00)\ntag_1:\n  pop\n    /* \"contracts/ERC20.sol\":1356:1366  msg.sender */\n  caller\n    /* \"contracts/ERC20.sol\":1346:1353  founder */\n  0x00\n  0x00\n    /* \"contracts/ERC20.sol\":1346:1366  founder = msg.sender */\n  0x0100\n  exp\n  dup2\n  sload\n  dup2\n  0xffffffffffffffffffffffffffffffffffffffff\n  mul\n  not\n  and\n  swap1\n  dup4\n  0xffffffffffffffffffffffffffffffffffffffff\n  and\n  mul\n  or\n  swap1\n  sstore\n  pop\n    /* \"contracts/ERC20.sol\":1436:1447  totalSupply */\n  sload(0x01)\n    /* \"contracts/ERC20.sol\":1411:1424  balanceOfUser */\n  0x02\n    /* \"contracts/ERC20.sol\":1411:1433  balanceOfUser[founder] */\n  0x00\n    /* \"contracts/ERC20.sol\":1425:1432  founder */\n  0x00\n  0x00\n  swap1\n  sload\n  swap1\n  0x0100\n  exp\n  swap1\n  div\n  0xffffffffffffffffffffffffffffffffffffffff\n  and\n    /* \"contracts/ERC20.sol\":1411:1433  balanceOfUser[founder] */\n  0xffffffffffffffffffffffffffffffffffffffff\n  and\n  0xffffffffffffffffffffffffffffffffffffffff\n  and\n  dup2\n  mstore\n  0x20\n  add\n  swap1\n  dup2\n  mstore\n  0x20\n  add\n  0x00\n  keccak256\n    /* \"contracts/ERC20.sol\":1411:1447  balanceOfUser[founder] = totalSupply */\n  dup2\n  swap1\n  sstore\n  pop\n    /* \"contracts/ERC20.sol\":920:3476  contract Jaydip is IERC20{... */\n  dataSize(sub_0)\n  dup1\n  dataOffset(sub_0)\n  0x00\n  codecopy\n  0x00\n  return\nstop\n\nsub_0: assembly {\n        /* \"contracts/ERC20.sol\":920:3476  contract Jaydip is IERC20{... */\n      mstore(0x40, 0x80)\n      callvalue\n      dup1\n      iszero\n      tag_1\n      jumpi\n      revert(0x00, 0x00)\n    tag_1:\n      pop\n      jumpi(tag_2, lt(calldatasize, 0x04))\n      shr(0xe0, calldataload(0x00))\n      dup1\n      0x4d853ee5\n      gt\n      tag_13\n      jumpi\n      dup1\n      0x4d853ee5\n      eq\n      tag_8\n      jumpi\n      dup1\n      0x70a08231\n      eq\n      tag_9\n      jumpi\n      dup1\n      0xa9059cbb\n      eq\n      tag_10\n      jumpi\n      dup1\n      0xdd62ed3e\n      eq\n      tag_11\n      jumpi\n      dup1\n      0xe02f7f62\n      eq\n      tag_12\n      jumpi\n      jump(tag_2)\n    tag_13:\n      dup1\n      0x095ea7b3\n      eq\n      tag_3\n      jumpi\n      dup1\n      0x0d86473a\n      eq\n      tag_4\n      jumpi\n      dup1\n      0x12cae7af\n      eq\n      tag_5\n      jumpi\n      dup1\n      0x18160ddd\n      eq\n      tag_6\n      jumpi\n      dup1\n      0x23b872dd\n      eq\n      tag_7\n      jumpi\n    tag_2:\n      revert(0x00, 0x00)\n        /* \"contracts/ERC20.sol\":2410:2867  function approve(address spender, uint256 value) external returns (bool){... */\n    tag_3:\n      tag_14\n      0x04\n      dup1\n      calldatasize\n      sub\n      dup2\n      add\n      swap1\n      tag_15\n      swap2\n      swap1\n      tag_16\n      jump\t// in\n    tag_15:\n      tag_17\n      jump\t// in\n    tag_14:\n      mload(0x40)\n      tag_18\n      swap2\n      swap1\n      tag_19\n      jump\t// in\n    tag_18:\n      mload(0x40)\n      dup1\n      swap2\n      sub\n      swap1\n      return\n        /* \"contracts/ERC20.sol\":1297:1323  uint public  decimales = 0 */\n    tag_4:\n      tag_20\n      tag_21\n      jump\t// in\n    tag_20:\n      mload(0x40)\n      tag_22\n      swap2\n      swap1\n      tag_23\n      jump\t// in\n    tag_22:\n      mload(0x40)\n      dup1\n      swap2\n      sub\n      swap1\n      return\n        /* \"contracts/ERC20.sol\":1177:1224  mapping (address => uint) public  balanceOfUser */\n    tag_5:\n      tag_24\n      0x04\n      dup1\n      calldatasize\n      sub\n      dup2\n      add\n      swap1\n      tag_25\n      swap2\n      swap1\n      tag_26\n      jump\t// in\n    tag_25:\n      tag_27\n      jump\t// in\n    tag_24:\n      mload(0x40)\n      tag_28\n      swap2\n      swap1\n      tag_23\n      jump\t// in\n    tag_28:\n      mload(0x40)\n      dup1\n      swap2\n      sub\n      swap1\n      return\n        /* \"contracts/ERC20.sol\":1119:1154  uint256 public  totalSupply =  1000 */\n    tag_6:\n      tag_29\n      tag_30\n      jump\t// in\n    tag_29:\n      mload(0x40)\n      tag_31\n      swap2\n      swap1\n      tag_23\n      jump\t// in\n    tag_31:\n      mload(0x40)\n      dup1\n      swap2\n      sub\n      swap1\n      return\n        /* \"contracts/ERC20.sol\":2876:3469  function transferFrom(address from, address to, uint256 value) external returns (bool){... */\n    tag_7:\n      tag_32\n      0x04\n      dup1\n      calldatasize\n      sub\n      dup2\n      add\n      swap1\n      tag_33\n      swap2\n      swap1\n      tag_34\n      jump\t// in\n    tag_33:\n      tag_35\n      jump\t// in\n    tag_32:\n      mload(0x40)\n      tag_36\n      swap2\n      swap1\n      tag_19\n      jump\t// in\n    tag_36:\n      mload(0x40)\n      dup1\n      swap2\n      sub\n      swap1\n      return\n        /* \"contracts/ERC20.sol\":950:973  address public  founder */\n    tag_8:\n      tag_37\n      tag_38\n      jump\t// in\n    tag_37:\n      mload(0x40)\n      tag_39\n      swap2\n      swap1\n      tag_40\n      jump\t// in\n    tag_39:\n      mload(0x40)\n      dup1\n      swap2\n      sub\n      swap1\n      return\n        /* \"contracts/ERC20.sol\":1491:1645  function balanceOf(address account) external view returns (uint256){... */\n    tag_9:\n      tag_41\n      0x04\n      dup1\n      calldatasize\n      sub\n      dup2\n      add\n      swap1\n      tag_42\n      swap2\n      swap1\n      tag_26\n      jump\t// in\n    tag_42:\n      tag_43\n      jump\t// in\n    tag_41:\n      mload(0x40)\n      tag_44\n      swap2\n      swap1\n      tag_23\n      jump\t// in\n    tag_44:\n      mload(0x40)\n      dup1\n      swap2\n      sub\n      swap1\n      return\n        /* \"contracts/ERC20.sol\":1668:2182  function transfer(address to, uint256 value) external returns (bool){... */\n    tag_10:\n      tag_45\n      0x04\n      dup1\n      calldatasize\n      sub\n      dup2\n      add\n      swap1\n      tag_46\n      swap2\n      swap1\n      tag_16\n      jump\t// in\n    tag_46:\n      tag_47\n      jump\t// in\n    tag_45:\n      mload(0x40)\n      tag_48\n      swap2\n      swap1\n      tag_19\n      jump\t// in\n    tag_48:\n      mload(0x40)\n      dup1\n      swap2\n      sub\n      swap1\n      return\n        /* \"contracts/ERC20.sol\":2226:2379  function allowance(address owner, address spender) external view returns (uint256){... */\n    tag_11:\n      tag_49\n      0x04\n      dup1\n      calldatasize\n      sub\n      dup2\n      add\n      swap1\n      tag_50\n      swap2\n      swap1\n      tag_51\n      jump\t// in\n    tag_50:\n      tag_52\n      jump\t// in\n    tag_49:\n      mload(0x40)\n      tag_53\n      swap2\n      swap1\n      tag_23\n      jump\t// in\n    tag_53:\n      mload(0x40)\n      dup1\n      swap2\n      sub\n      swap1\n      return\n        /* \"contracts/ERC20.sol\":1227:1294  mapping (address => mapping (address => uint)) public  allowedToken */\n    tag_12:\n      tag_54\n      0x04\n      dup1\n      calldatasize\n      sub\n      dup2\n      add\n      swap1\n      tag_55\n      swap2\n      swap1\n      tag_51\n      jump\t// in\n    tag_55:\n      tag_56\n      jump\t// in\n    tag_54:\n      mload(0x40)\n      tag_57\n      swap2\n      swap1\n      tag_23\n      jump\t// in\n    tag_57:\n      mload(0x40)\n      dup1\n      swap2\n      sub\n      swap1\n      return\n        /* \"contracts/ERC20.sol\":2410:2867  function approve(address spender, uint256 value) external returns (bool){... */\n    tag_17:\n        /* \"contracts/ERC20.sol\":2477:2481  bool */\n      0x00\n        /* \"contracts/ERC20.sol\":2556:2557  0 */\n      0x00\n        /* \"contracts/ERC20.sol\":2537:2558  spender != address(0) */\n      0xffffffffffffffffffffffffffffffffffffffff\n      and\n        /* \"contracts/ERC20.sol\":2537:2544  spender */\n      dup4\n        /* \"contracts/ERC20.sol\":2537:2558  spender != address(0) */\n      0xffffffffffffffffffffffffffffffffffffffff\n      and\n      sub\n        /* \"contracts/ERC20.sol\":2529:2583  require(spender != address(0), \"address is InValid !\") */\n      tag_59\n      jumpi\n      mload(0x40)\n      0x08c379a000000000000000000000000000000000000000000000000000000000\n      dup2\n      mstore\n      0x04\n      add\n      tag_60\n      swap1\n      tag_61\n      jump\t// in\n    tag_60:\n      mload(0x40)\n      dup1\n      swap2\n      sub\n      swap1\n      revert\n    tag_59:\n        /* \"contracts/ERC20.sol\":2657:2662  value */\n      dup2\n        /* \"contracts/ERC20.sol\":2628:2641  balanceOfUser */\n      0x02\n        /* \"contracts/ERC20.sol\":2628:2653  balanceOfUser[msg.sender] */\n      0x00\n        /* \"contracts/ERC20.sol\":2642:2652  msg.sender */\n      caller\n        /* \"contracts/ERC20.sol\":2628:2653  balanceOfUser[msg.sender] */\n      0xffffffffffffffffffffffffffffffffffffffff\n      and\n      0xffffffffffffffffffffffffffffffffffffffff\n      and\n      dup2\n      mstore\n      0x20\n      add\n      swap1\n      dup2\n      mstore\n      0x20\n      add\n      0x00\n      keccak256\n      sload\n        /* \"contracts/ERC20.sol\":2628:2662  balanceOfUser[msg.sender] >= value */\n      lt\n      iszero\n        /* \"contracts/ERC20.sol\":2620:2710  require(balanceOfUser[msg.sender] >= value , \"insufficent balance ! check out balancee..\") */\n      tag_62\n      jumpi\n      mload(0x40)\n      0x08c379a000000000000000000000000000000000000000000000000000000000\n      dup2\n      mstore\n      0x04\n      add\n      tag_63\n      swap1\n      tag_64\n      jump\t// in\n    tag_63:\n      mload(0x40)\n      dup1\n      swap2\n      sub\n      swap1\n      revert\n    tag_62:\n        /* \"contracts/ERC20.sol\":2780:2785  value */\n      dup2\n        /* \"contracts/ERC20.sol\":2744:2756  allowedToken */\n      0x03\n        /* \"contracts/ERC20.sol\":2744:2768  allowedToken[msg.sender] */\n      0x00\n        /* \"contracts/ERC20.sol\":2757:2767  msg.sender */\n      caller\n        /* \"contracts/ERC20.sol\":2744:2768  allowedToken[msg.sender] */\n      0xffffffffffffffffffffffffffffffffffffffff\n      and\n      0xffffffffffffffffffffffffffffffffffffffff\n      and\n      dup2\n      mstore\n      0x20\n      add\n      swap1\n      dup2\n      mstore\n      0x20\n      add\n      0x00\n      keccak256\n        /* \"contracts/ERC20.sol\":2744:2777  allowedToken[msg.sender][spender] */\n      0x00\n        /* \"contracts/ERC20.sol\":2769:2776  spender */\n      dup6\n        /* \"contracts/ERC20.sol\":2744:2777  allowedToken[msg.sender][spender] */\n      0xffffffffffffffffffffffffffffffffffffffff\n      and\n      0xffffffffffffffffffffffffffffffffffffffff\n      and\n      dup2\n      mstore\n      0x20\n      add\n      swap1\n      dup2\n      mstore\n      0x20\n      add\n      0x00\n      keccak256\n        /* \"contracts/ERC20.sol\":2744:2785  allowedToken[msg.sender][spender] = value */\n      dup2\n      swap1\n      sstore\n      pop\n        /* \"contracts/ERC20.sol\":2821:2828  spender */\n      dup3\n        /* \"contracts/ERC20.sol\":2801:2836  Approval(msg.sender,spender, value) */\n      0xffffffffffffffffffffffffffffffffffffffff\n      and\n        /* \"contracts/ERC20.sol\":2810:2820  msg.sender */\n      caller\n        /* \"contracts/ERC20.sol\":2801:2836  Approval(msg.sender,spender, value) */\n      0xffffffffffffffffffffffffffffffffffffffff\n      and\n      0x8c5be1e5ebec7d5bd14f71427d1e84f3dd0314c0f7b2291e5b200ac8c7c3b925\n        /* \"contracts/ERC20.sol\":2830:2835  value */\n      dup5\n        /* \"contracts/ERC20.sol\":2801:2836  Approval(msg.sender,spender, value) */\n      mload(0x40)\n      tag_65\n      swap2\n      swap1\n      tag_23\n      jump\t// in\n    tag_65:\n      mload(0x40)\n      dup1\n      swap2\n      sub\n      swap1\n      log3\n        /* \"contracts/ERC20.sol\":2855:2859  true */\n      0x01\n        /* \"contracts/ERC20.sol\":2847:2859  return  true */\n      swap1\n      pop\n        /* \"contracts/ERC20.sol\":2410:2867  function approve(address spender, uint256 value) external returns (bool){... */\n      swap3\n      swap2\n      pop\n      pop\n      jump\t// out\n        /* \"contracts/ERC20.sol\":1297:1323  uint public  decimales = 0 */\n    tag_21:\n      sload(0x04)\n      dup2\n      jump\t// out\n        /* \"contracts/ERC20.sol\":1177:1224  mapping (address => uint) public  balanceOfUser */\n    tag_27:\n      mstore(0x20, 0x02)\n      dup1\n      0x00\n      mstore\n      keccak256(0x00, 0x40)\n      0x00\n      swap2\n      pop\n      swap1\n      pop\n      sload\n      dup2\n      jump\t// out\n        /* \"contracts/ERC20.sol\":1119:1154  uint256 public  totalSupply =  1000 */\n    tag_30:\n      sload(0x01)\n      dup2\n      jump\t// out\n        /* \"contracts/ERC20.sol\":2876:3469  function transferFrom(address from, address to, uint256 value) external returns (bool){... */\n    tag_35:\n        /* \"contracts/ERC20.sol\":2957:2961  bool */\n      0x00\n        /* \"contracts/ERC20.sol\":3031:3032  0 */\n      0x00\n        /* \"contracts/ERC20.sol\":3017:3033  to != address(0) */\n      0xffffffffffffffffffffffffffffffffffffffff\n      and\n        /* \"contracts/ERC20.sol\":3017:3019  to */\n      dup4\n        /* \"contracts/ERC20.sol\":3017:3033  to != address(0) */\n      0xffffffffffffffffffffffffffffffffffffffff\n      and\n      sub\n        /* \"contracts/ERC20.sol\":3009:3058  require(to != address(0), \"address is InValid !\") */\n      tag_67\n      jumpi\n      mload(0x40)\n      0x08c379a000000000000000000000000000000000000000000000000000000000\n      dup2\n      mstore\n      0x04\n      add\n      tag_68\n      swap1\n      tag_61\n      jump\t// in\n    tag_68:\n      mload(0x40)\n      dup1\n      swap2\n      sub\n      swap1\n      revert\n    tag_67:\n        /* \"contracts/ERC20.sol\":3140:3145  value */\n      dup2\n        /* \"contracts/ERC20.sol\":3114:3126  allowedToken */\n      0x03\n        /* \"contracts/ERC20.sol\":3114:3132  allowedToken[from] */\n      0x00\n        /* \"contracts/ERC20.sol\":3127:3131  from */\n      dup7\n        /* \"contracts/ERC20.sol\":3114:3132  allowedToken[from] */\n      0xffffffffffffffffffffffffffffffffffffffff\n      and\n      0xffffffffffffffffffffffffffffffffffffffff\n      and\n      dup2\n      mstore\n      0x20\n      add\n      swap1\n      dup2\n      mstore\n      0x20\n      add\n      0x00\n      keccak256\n        /* \"contracts/ERC20.sol\":3114:3136  allowedToken[from][to] */\n      0x00\n        /* \"contracts/ERC20.sol\":3133:3135  to */\n      dup6\n        /* \"contracts/ERC20.sol\":3114:3136  allowedToken[from][to] */\n      0xffffffffffffffffffffffffffffffffffffffff\n      and\n      0xffffffffffffffffffffffffffffffffffffffff\n      and\n      dup2\n      mstore\n      0x20\n      add\n      swap1\n      dup2\n      mstore\n      0x20\n      add\n      0x00\n      keccak256\n      sload\n        /* \"contracts/ERC20.sol\":3114:3145  allowedToken[from][to] >= value */\n      lt\n      iszero\n        /* \"contracts/ERC20.sol\":3105:3193  require( allowedToken[from][to] >= value , \"insufficent balance ! check out balancee..\") */\n      tag_69\n      jumpi\n      mload(0x40)\n      0x08c379a000000000000000000000000000000000000000000000000000000000\n      dup2\n      mstore\n      0x04\n      add\n      tag_70\n      swap1\n      tag_64\n      jump\t// in\n    tag_70:\n      mload(0x40)\n      dup1\n      swap2\n      sub\n      swap1\n      revert\n    tag_69:\n        /* \"contracts/ERC20.sol\":3244:3245  0 */\n      0x00\n        /* \"contracts/ERC20.sol\":3235:3240  value */\n      dup3\n        /* \"contracts/ERC20.sol\":3235:3245  value >= 0 */\n      lt\n      iszero\n        /* \"contracts/ERC20.sol\":3227:3278  require(value >= 0 ,  \"value is not be nigative !\") */\n      tag_71\n      jumpi\n      mload(0x40)\n      0x08c379a000000000000000000000000000000000000000000000000000000000\n      dup2\n      mstore\n      0x04\n      add\n      tag_72\n      swap1\n      tag_73\n      jump\t// in\n    tag_72:\n      mload(0x40)\n      dup1\n      swap2\n      sub\n      swap1\n      revert\n    tag_71:\n        /* \"contracts/ERC20.sol\":3314:3319  value */\n      dup2\n        /* \"contracts/ERC20.sol\":3289:3301  allowedToken */\n      0x03\n        /* \"contracts/ERC20.sol\":3289:3307  allowedToken[from] */\n      0x00\n        /* \"contracts/ERC20.sol\":3302:3306  from */\n      dup7\n        /* \"contracts/ERC20.sol\":3289:3307  allowedToken[from] */\n      0xffffffffffffffffffffffffffffffffffffffff\n      and\n      0xffffffffffffffffffffffffffffffffffffffff\n      and\n      dup2\n      mstore\n      0x20\n      add\n      swap1\n      dup2\n      mstore\n      0x20\n      add\n      0x00\n      keccak256\n        /* \"contracts/ERC20.sol\":3289:3311  allowedToken[from][to] */\n      0x00\n        /* \"contracts/ERC20.sol\":3308:3310  to */\n      dup6\n        /* \"contracts/ERC20.sol\":3289:3311  allowedToken[from][to] */\n      0xffffffffffffffffffffffffffffffffffffffff\n      and\n      0xffffffffffffffffffffffffffffffffffffffff\n      and\n      dup2\n      mstore\n      0x20\n      add\n      swap1\n      dup2\n      mstore\n      0x20\n      add\n      0x00\n      keccak256\n      0x00\n        /* \"contracts/ERC20.sol\":3289:3319  allowedToken[from][to] -=value */\n      dup3\n      dup3\n      sload\n      tag_74\n      swap2\n      swap1\n      tag_75\n      jump\t// in\n    tag_74:\n      swap3\n      pop\n      pop\n      dup2\n      swap1\n      sstore\n      pop\n        /* \"contracts/ERC20.sol\":3353:3358  value */\n      dup2\n        /* \"contracts/ERC20.sol\":3330:3343  balanceOfUser */\n      0x02\n        /* \"contracts/ERC20.sol\":3330:3349  balanceOfUser[from] */\n      0x00\n        /* \"contracts/ERC20.sol\":3344:3348  from */\n      dup7\n        /* \"contracts/ERC20.sol\":3330:3349  balanceOfUser[from] */\n      0xffffffffffffffffffffffffffffffffffffffff\n      and\n      0xffffffffffffffffffffffffffffffffffffffff\n      and\n      dup2\n      mstore\n      0x20\n      add\n      swap1\n      dup2\n      mstore\n      0x20\n      add\n      0x00\n      keccak256\n      0x00\n        /* \"contracts/ERC20.sol\":3330:3358  balanceOfUser[from] -= value */\n      dup3\n      dup3\n      sload\n      tag_76\n      swap2\n      swap1\n      tag_75\n      jump\t// in\n    tag_76:\n      swap3\n      pop\n      pop\n      dup2\n      swap1\n      sstore\n      pop\n        /* \"contracts/ERC20.sol\":3390:3395  value */\n      dup2\n        /* \"contracts/ERC20.sol\":3369:3382  balanceOfUser */\n      0x02\n        /* \"contracts/ERC20.sol\":3369:3386  balanceOfUser[to] */\n      0x00\n        /* \"contracts/ERC20.sol\":3383:3385  to */\n      dup6\n        /* \"contracts/ERC20.sol\":3369:3386  balanceOfUser[to] */\n      0xffffffffffffffffffffffffffffffffffffffff\n      and\n      0xffffffffffffffffffffffffffffffffffffffff\n      and\n      dup2\n      mstore\n      0x20\n      add\n      swap1\n      dup2\n      mstore\n      0x20\n      add\n      0x00\n      keccak256\n      0x00\n        /* \"contracts/ERC20.sol\":3369:3395  balanceOfUser[to] += value */\n      dup3\n      dup3\n      sload\n      tag_77\n      swap2\n      swap1\n      tag_78\n      jump\t// in\n    tag_77:\n      swap3\n      pop\n      pop\n      dup2\n      swap1\n      sstore\n      pop\n        /* \"contracts/ERC20.sol\":3426:3428  to */\n      dup3\n        /* \"contracts/ERC20.sol\":3410:3437  Transfer(from,  to,  value) */\n      0xffffffffffffffffffffffffffffffffffffffff\n      and\n        /* \"contracts/ERC20.sol\":3419:3423  from */\n      dup5\n        /* \"contracts/ERC20.sol\":3410:3437  Transfer(from,  to,  value) */\n      0xffffffffffffffffffffffffffffffffffffffff\n      and\n      0xddf252ad1be2c89b69c2b068fc378daa952ba7f163c4a11628f55a4df523b3ef\n        /* \"contracts/ERC20.sol\":3431:3436  value */\n      dup5\n        /* \"contracts/ERC20.sol\":3410:3437  Transfer(from,  to,  value) */\n      mload(0x40)\n      tag_79\n      swap2\n      swap1\n      tag_23\n      jump\t// in\n    tag_79:\n      mload(0x40)\n      dup1\n      swap2\n      sub\n      swap1\n      log3\n        /* \"contracts/ERC20.sol\":3456:3460  true */\n      0x01\n        /* \"contracts/ERC20.sol\":3448:3460  return  true */\n      swap1\n      pop\n        /* \"contracts/ERC20.sol\":2876:3469  function transferFrom(address from, address to, uint256 value) external returns (bool){... */\n      swap4\n      swap3\n      pop\n      pop\n      pop\n      jump\t// out\n        /* \"contracts/ERC20.sol\":950:973  address public  founder */\n    tag_38:\n      0x00\n      0x00\n      swap1\n      sload\n      swap1\n      0x0100\n      exp\n      swap1\n      div\n      0xffffffffffffffffffffffffffffffffffffffff\n      and\n      dup2\n      jump\t// out\n        /* \"contracts/ERC20.sol\":1491:1645  function balanceOf(address account) external view returns (uint256){... */\n    tag_43:\n        /* \"contracts/ERC20.sol\":1550:1557  uint256 */\n      0x00\n        /* \"contracts/ERC20.sol\":1615:1628  balanceOfUser */\n      0x02\n        /* \"contracts/ERC20.sol\":1615:1637  balanceOfUser[account] */\n      0x00\n        /* \"contracts/ERC20.sol\":1629:1636  account */\n      dup4\n        /* \"contracts/ERC20.sol\":1615:1637  balanceOfUser[account] */\n      0xffffffffffffffffffffffffffffffffffffffff\n      and\n      0xffffffffffffffffffffffffffffffffffffffff\n      and\n      dup2\n      mstore\n      0x20\n      add\n      swap1\n      dup2\n      mstore\n      0x20\n      add\n      0x00\n      keccak256\n      sload\n        /* \"contracts/ERC20.sol\":1608:1637  return balanceOfUser[account] */\n      swap1\n      pop\n        /* \"contracts/ERC20.sol\":1491:1645  function balanceOf(address account) external view returns (uint256){... */\n      swap2\n      swap1\n      pop\n      jump\t// out\n        /* \"contracts/ERC20.sol\":1668:2182  function transfer(address to, uint256 value) external returns (bool){... */\n    tag_47:\n        /* \"contracts/ERC20.sol\":1731:1735  bool */\n      0x00\n        /* \"contracts/ERC20.sol\":1804:1805  0 */\n      0x00\n        /* \"contracts/ERC20.sol\":1790:1806  to != address(0) */\n      0xffffffffffffffffffffffffffffffffffffffff\n      and\n        /* \"contracts/ERC20.sol\":1790:1792  to */\n      dup4\n        /* \"contracts/ERC20.sol\":1790:1806  to != address(0) */\n      0xffffffffffffffffffffffffffffffffffffffff\n      and\n      sub\n        /* \"contracts/ERC20.sol\":1782:1831  require(to != address(0), \"address is InValid !\") */\n      tag_82\n      jumpi\n      mload(0x40)\n      0x08c379a000000000000000000000000000000000000000000000000000000000\n      dup2\n      mstore\n      0x04\n      add\n      tag_83\n      swap1\n      tag_61\n      jump\t// in\n    tag_83:\n      mload(0x40)\n      dup1\n      swap2\n      sub\n      swap1\n      revert\n    tag_82:\n        /* \"contracts/ERC20.sol\":1905:1910  value */\n      dup2\n        /* \"contracts/ERC20.sol\":1876:1889  balanceOfUser */\n      0x02\n        /* \"contracts/ERC20.sol\":1876:1901  balanceOfUser[msg.sender] */\n      0x00\n        /* \"contracts/ERC20.sol\":1890:1900  msg.sender */\n      caller\n        /* \"contracts/ERC20.sol\":1876:1901  balanceOfUser[msg.sender] */\n      0xffffffffffffffffffffffffffffffffffffffff\n      and\n      0xffffffffffffffffffffffffffffffffffffffff\n      and\n      dup2\n      mstore\n      0x20\n      add\n      swap1\n      dup2\n      mstore\n      0x20\n      add\n      0x00\n      keccak256\n      sload\n        /* \"contracts/ERC20.sol\":1876:1910  balanceOfUser[msg.sender] >= value */\n      lt\n      iszero\n        /* \"contracts/ERC20.sol\":1868:1958  require(balanceOfUser[msg.sender] >= value , \"insufficent balance ! check out balancee..\") */\n      tag_84\n      jumpi\n      mload(0x40)\n      0x08c379a000000000000000000000000000000000000000000000000000000000\n      dup2\n      mstore\n      0x04\n      add\n      tag_85\n      swap1\n      tag_64\n      jump\t// in\n    tag_85:\n      mload(0x40)\n      dup1\n      swap2\n      sub\n      swap1\n      revert\n    tag_84:\n        /* \"contracts/ERC20.sol\":2025:2030  value */\n      dup2\n        /* \"contracts/ERC20.sol\":1996:2009  balanceOfUser */\n      0x02\n        /* \"contracts/ERC20.sol\":1996:2021  balanceOfUser[msg.sender] */\n      0x00\n        /* \"contracts/ERC20.sol\":2010:2020  msg.sender */\n      caller\n        /* \"contracts/ERC20.sol\":1996:2021  balanceOfUser[msg.sender] */\n      0xffffffffffffffffffffffffffffffffffffffff\n      and\n      0xffffffffffffffffffffffffffffffffffffffff\n      and\n      dup2\n      mstore\n      0x20\n      add\n      swap1\n      dup2\n      mstore\n      0x20\n      add\n      0x00\n      keccak256\n      0x00\n        /* \"contracts/ERC20.sol\":1996:2030  balanceOfUser[msg.sender] -= value */\n      dup3\n      dup3\n      sload\n      tag_86\n      swap2\n      swap1\n      tag_75\n      jump\t// in\n    tag_86:\n      swap3\n      pop\n      pop\n      dup2\n      swap1\n      sstore\n      pop\n        /* \"contracts/ERC20.sol\":2098:2103  value */\n      dup2\n        /* \"contracts/ERC20.sol\":2077:2090  balanceOfUser */\n      0x02\n        /* \"contracts/ERC20.sol\":2077:2094  balanceOfUser[to] */\n      0x00\n        /* \"contracts/ERC20.sol\":2091:2093  to */\n      dup6\n        /* \"contracts/ERC20.sol\":2077:2094  balanceOfUser[to] */\n      0xffffffffffffffffffffffffffffffffffffffff\n      and\n      0xffffffffffffffffffffffffffffffffffffffff\n      and\n      dup2\n      mstore\n      0x20\n      add\n      swap1\n      dup2\n      mstore\n      0x20\n      add\n      0x00\n      keccak256\n      0x00\n        /* \"contracts/ERC20.sol\":2077:2103  balanceOfUser[to] += value */\n      dup3\n      dup3\n      sload\n      tag_87\n      swap2\n      swap1\n      tag_78\n      jump\t// in\n    tag_87:\n      swap3\n      pop\n      pop\n      dup2\n      swap1\n      sstore\n      pop\n        /* \"contracts/ERC20.sol\":2140:2142  to */\n      dup3\n        /* \"contracts/ERC20.sol\":2118:2151  Transfer(msg.sender,  to,  value) */\n      0xffffffffffffffffffffffffffffffffffffffff\n      and\n        /* \"contracts/ERC20.sol\":2127:2137  msg.sender */\n      caller\n        /* \"contracts/ERC20.sol\":2118:2151  Transfer(msg.sender,  to,  value) */\n      0xffffffffffffffffffffffffffffffffffffffff\n      and\n      0xddf252ad1be2c89b69c2b068fc378daa952ba7f163c4a11628f55a4df523b3ef\n        /* \"contracts/ERC20.sol\":2145:2150  value */\n      dup5\n        /* \"contracts/ERC20.sol\":2118:2151  Transfer(msg.sender,  to,  value) */\n      mload(0x40)\n      tag_88\n      swap2\n      swap1\n      tag_23\n      jump\t// in\n    tag_88:\n      mload(0x40)\n      dup1\n      swap2\n      sub\n      swap1\n      log3\n        /* \"contracts/ERC20.sol\":2170:2174  true */\n      0x01\n        /* \"contracts/ERC20.sol\":2162:2174  return  true */\n      swap1\n      pop\n        /* \"contracts/ERC20.sol\":1668:2182  function transfer(address to, uint256 value) external returns (bool){... */\n      swap3\n      swap2\n      pop\n      pop\n      jump\t// out\n        /* \"contracts/ERC20.sol\":2226:2379  function allowance(address owner, address spender) external view returns (uint256){... */\n    tag_52:\n        /* \"contracts/ERC20.sol\":2300:2307  uint256 */\n      0x00\n        /* \"contracts/ERC20.sol\":2343:2355  allowedToken */\n      0x03\n        /* \"contracts/ERC20.sol\":2343:2362  allowedToken[owner] */\n      0x00\n        /* \"contracts/ERC20.sol\":2356:2361  owner */\n      dup5\n        /* \"contracts/ERC20.sol\":2343:2362  allowedToken[owner] */\n      0xffffffffffffffffffffffffffffffffffffffff\n      and\n      0xffffffffffffffffffffffffffffffffffffffff\n      and\n      dup2\n      mstore\n      0x20\n      add\n      swap1\n      dup2\n      mstore\n      0x20\n      add\n      0x00\n      keccak256\n        /* \"contracts/ERC20.sol\":2343:2371  allowedToken[owner][spender] */\n      0x00\n        /* \"contracts/ERC20.sol\":2363:2370  spender */\n      dup4\n        /* \"contracts/ERC20.sol\":2343:2371  allowedToken[owner][spender] */\n      0xffffffffffffffffffffffffffffffffffffffff\n      and\n      0xffffffffffffffffffffffffffffffffffffffff\n      and\n      dup2\n      mstore\n      0x20\n      add\n      swap1\n      dup2\n      mstore\n      0x20\n      add\n      0x00\n      keccak256\n      sload\n        /* \"contracts/ERC20.sol\":2335:2371  return  allowedToken[owner][spender] */\n      swap1\n      pop\n        /* \"contracts/ERC20.sol\":2226:2379  function allowance(address owner, address spender) external view returns (uint256){... */\n      swap3\n      swap2\n      pop\n      pop\n      jump\t// out\n        /* \"contracts/ERC20.sol\":1227:1294  mapping (address => mapping (address => uint)) public  allowedToken */\n    tag_56:\n      mstore(0x20, 0x03)\n      dup2\n      0x00\n      mstore\n      mstore(0x20, keccak256(0x00, 0x40))\n      dup1\n      0x00\n      mstore\n      keccak256(0x00, 0x40)\n      0x00\n      swap2\n      pop\n      swap2\n      pop\n      pop\n      sload\n      dup2\n      jump\t// out\n        /* \"#utility.yul\":88:205   */\n    tag_91:\n        /* \"#utility.yul\":197:198   */\n      0x00\n        /* \"#utility.yul\":194:195   */\n      0x00\n        /* \"#utility.yul\":187:199   */\n      revert\n        /* \"#utility.yul\":334:460   */\n    tag_93:\n        /* \"#utility.yul\":371:378   */\n      0x00\n        /* \"#utility.yul\":411:453   */\n      0xffffffffffffffffffffffffffffffffffffffff\n        /* \"#utility.yul\":404:409   */\n      dup3\n        /* \"#utility.yul\":400:454   */\n      and\n        /* \"#utility.yul\":389:454   */\n      swap1\n      pop\n        /* \"#utility.yul\":334:460   */\n      swap2\n      swap1\n      pop\n      jump\t// out\n        /* \"#utility.yul\":466:562   */\n    tag_94:\n        /* \"#utility.yul\":503:510   */\n      0x00\n        /* \"#utility.yul\":532:556   */\n      tag_118\n        /* \"#utility.yul\":550:555   */\n      dup3\n        /* \"#utility.yul\":532:556   */\n      tag_93\n      jump\t// in\n    tag_118:\n        /* \"#utility.yul\":521:556   */\n      swap1\n      pop\n        /* \"#utility.yul\":466:562   */\n      swap2\n      swap1\n      pop\n      jump\t// out\n        /* \"#utility.yul\":568:690   */\n    tag_95:\n        /* \"#utility.yul\":641:665   */\n      tag_120\n        /* \"#utility.yul\":659:664   */\n      dup2\n        /* \"#utility.yul\":641:665   */\n      tag_94\n      jump\t// in\n    tag_120:\n        /* \"#utility.yul\":634:639   */\n      dup2\n        /* \"#utility.yul\":631:666   */\n      eq\n        /* \"#utility.yul\":621:684   */\n      tag_121\n      jumpi\n        /* \"#utility.yul\":680:681   */\n      0x00\n        /* \"#utility.yul\":677:678   */\n      0x00\n        /* \"#utility.yul\":670:682   */\n      revert\n        /* \"#utility.yul\":621:684   */\n    tag_121:\n        /* \"#utility.yul\":568:690   */\n      pop\n      jump\t// out\n        /* \"#utility.yul\":696:835   */\n    tag_96:\n        /* \"#utility.yul\":742:747   */\n      0x00\n        /* \"#utility.yul\":780:786   */\n      dup2\n        /* \"#utility.yul\":767:787   */\n      calldataload\n        /* \"#utility.yul\":758:787   */\n      swap1\n      pop\n        /* \"#utility.yul\":796:829   */\n      tag_123\n        /* \"#utility.yul\":823:828   */\n      dup2\n        /* \"#utility.yul\":796:829   */\n      tag_95\n      jump\t// in\n    tag_123:\n        /* \"#utility.yul\":696:835   */\n      swap3\n      swap2\n      pop\n      pop\n      jump\t// out\n        /* \"#utility.yul\":841:918   */\n    tag_97:\n        /* \"#utility.yul\":878:885   */\n      0x00\n        /* \"#utility.yul\":907:912   */\n      dup2\n        /* \"#utility.yul\":896:912   */\n      swap1\n      pop\n        /* \"#utility.yul\":841:918   */\n      swap2\n      swap1\n      pop\n      jump\t// out\n        /* \"#utility.yul\":924:1046   */\n    tag_98:\n        /* \"#utility.yul\":997:1021   */\n      tag_126\n        /* \"#utility.yul\":1015:1020   */\n      dup2\n        /* \"#utility.yul\":997:1021   */\n      tag_97\n      jump\t// in\n    tag_126:\n        /* \"#utility.yul\":990:995   */\n      dup2\n        /* \"#utility.yul\":987:1022   */\n      eq\n        /* \"#utility.yul\":977:1040   */\n      tag_127\n      jumpi\n        /* \"#utility.yul\":1036:1037   */\n      0x00\n        /* \"#utility.yul\":1033:1034   */\n      0x00\n        /* \"#utility.yul\":1026:1038   */\n      revert\n        /* \"#utility.yul\":977:1040   */\n    tag_127:\n        /* \"#utility.yul\":924:1046   */\n      pop\n      jump\t// out\n        /* \"#utility.yul\":1052:1191   */\n    tag_99:\n        /* \"#utility.yul\":1098:1103   */\n      0x00\n        /* \"#utility.yul\":1136:1142   */\n      dup2\n        /* \"#utility.yul\":1123:1143   */\n      calldataload\n        /* \"#utility.yul\":1114:1143   */\n      swap1\n      pop\n        /* \"#utility.yul\":1152:1185   */\n      tag_129\n        /* \"#utility.yul\":1179:1184   */\n      dup2\n        /* \"#utility.yul\":1152:1185   */\n      tag_98\n      jump\t// in\n    tag_129:\n        /* \"#utility.yul\":1052:1191   */\n      swap3\n      swap2\n      pop\n      pop\n      jump\t// out\n        /* \"#utility.yul\":1197:1671   */\n    tag_16:\n        /* \"#utility.yul\":1265:1271   */\n      0x00\n        /* \"#utility.yul\":1273:1279   */\n      0x00\n        /* \"#utility.yul\":1322:1324   */\n      0x40\n        /* \"#utility.yul\":1310:1319   */\n      dup4\n        /* \"#utility.yul\":1301:1308   */\n      dup6\n        /* \"#utility.yul\":1297:1320   */\n      sub\n        /* \"#utility.yul\":1293:1325   */\n      slt\n        /* \"#utility.yul\":1290:1409   */\n      iszero\n      tag_131\n      jumpi\n        /* \"#utility.yul\":1328:1407   */\n      tag_132\n      tag_91\n      jump\t// in\n    tag_132:\n        /* \"#utility.yul\":1290:1409   */\n    tag_131:\n        /* \"#utility.yul\":1448:1449   */\n      0x00\n        /* \"#utility.yul\":1473:1526   */\n      tag_133\n        /* \"#utility.yul\":1518:1525   */\n      dup6\n        /* \"#utility.yul\":1509:1515   */\n      dup3\n        /* \"#utility.yul\":1498:1507   */\n      dup7\n        /* \"#utility.yul\":1494:1516   */\n      add\n        /* \"#utility.yul\":1473:1526   */\n      tag_96\n      jump\t// in\n    tag_133:\n        /* \"#utility.yul\":1463:1526   */\n      swap3\n      pop\n        /* \"#utility.yul\":1419:1536   */\n      pop\n        /* \"#utility.yul\":1575:1577   */\n      0x20\n        /* \"#utility.yul\":1601:1654   */\n      tag_134\n        /* \"#utility.yul\":1646:1653   */\n      dup6\n        /* \"#utility.yul\":1637:1643   */\n      dup3\n        /* \"#utility.yul\":1626:1635   */\n      dup7\n        /* \"#utility.yul\":1622:1644   */\n      add\n        /* \"#utility.yul\":1601:1654   */\n      tag_99\n      jump\t// in\n    tag_134:\n        /* \"#utility.yul\":1591:1654   */\n      swap2\n      pop\n        /* \"#utility.yul\":1546:1664   */\n      pop\n        /* \"#utility.yul\":1197:1671   */\n      swap3\n      pop\n      swap3\n      swap1\n      pop\n      jump\t// out\n        /* \"#utility.yul\":1677:1767   */\n    tag_100:\n        /* \"#utility.yul\":1711:1718   */\n      0x00\n        /* \"#utility.yul\":1754:1759   */\n      dup2\n        /* \"#utility.yul\":1747:1760   */\n      iszero\n        /* \"#utility.yul\":1740:1761   */\n      iszero\n        /* \"#utility.yul\":1729:1761   */\n      swap1\n      pop\n        /* \"#utility.yul\":1677:1767   */\n      swap2\n      swap1\n      pop\n      jump\t// out\n        /* \"#utility.yul\":1773:1882   */\n    tag_101:\n        /* \"#utility.yul\":1854:1875   */\n      tag_137\n        /* \"#utility.yul\":1869:1874   */\n      dup2\n        /* \"#utility.yul\":1854:1875   */\n      tag_100\n      jump\t// in\n    tag_137:\n        /* \"#utility.yul\":1849:1852   */\n      dup3\n        /* \"#utility.yul\":1842:1876   */\n      mstore\n        /* \"#utility.yul\":1773:1882   */\n      pop\n      pop\n      jump\t// out\n        /* \"#utility.yul\":1888:2098   */\n    tag_19:\n        /* \"#utility.yul\":1975:1979   */\n      0x00\n        /* \"#utility.yul\":2013:2015   */\n      0x20\n        /* \"#utility.yul\":2002:2011   */\n      dup3\n        /* \"#utility.yul\":1998:2016   */\n      add\n        /* \"#utility.yul\":1990:2016   */\n      swap1\n      pop\n        /* \"#utility.yul\":2026:2091   */\n      tag_139\n        /* \"#utility.yul\":2088:2089   */\n      0x00\n        /* \"#utility.yul\":2077:2086   */\n      dup4\n        /* \"#utility.yul\":2073:2090   */\n      add\n        /* \"#utility.yul\":2064:2070   */\n      dup5\n        /* \"#utility.yul\":2026:2091   */\n      tag_101\n      jump\t// in\n    tag_139:\n        /* \"#utility.yul\":1888:2098   */\n      swap3\n      swap2\n      pop\n      pop\n      jump\t// out\n        /* \"#utility.yul\":2104:2222   */\n    tag_102:\n        /* \"#utility.yul\":2191:2215   */\n      tag_141\n        /* \"#utility.yul\":2209:2214   */\n      dup2\n        /* \"#utility.yul\":2191:2215   */\n      tag_97\n      jump\t// in\n    tag_141:\n        /* \"#utility.yul\":2186:2189   */\n      dup3\n        /* \"#utility.yul\":2179:2216   */\n      mstore\n        /* \"#utility.yul\":2104:2222   */\n      pop\n      pop\n      jump\t// out\n        /* \"#utility.yul\":2228:2450   */\n    tag_23:\n        /* \"#utility.yul\":2321:2325   */\n      0x00\n        /* \"#utility.yul\":2359:2361   */\n      0x20\n        /* \"#utility.yul\":2348:2357   */\n      dup3\n        /* \"#utility.yul\":2344:2362   */\n      add\n        /* \"#utility.yul\":2336:2362   */\n      swap1\n      pop\n        /* \"#utility.yul\":2372:2443   */\n      tag_143\n        /* \"#utility.yul\":2440:2441   */\n      0x00\n        /* \"#utility.yul\":2429:2438   */\n      dup4\n        /* \"#utility.yul\":2425:2442   */\n      add\n        /* \"#utility.yul\":2416:2422   */\n      dup5\n        /* \"#utility.yul\":2372:2443   */\n      tag_102\n      jump\t// in\n    tag_143:\n        /* \"#utility.yul\":2228:2450   */\n      swap3\n      swap2\n      pop\n      pop\n      jump\t// out\n        /* \"#utility.yul\":2456:2785   */\n    tag_26:\n        /* \"#utility.yul\":2515:2521   */\n      0x00\n        /* \"#utility.yul\":2564:2566   */\n      0x20\n        /* \"#utility.yul\":2552:2561   */\n      dup3\n        /* \"#utility.yul\":2543:2550   */\n      dup5\n        /* \"#utility.yul\":2539:2562   */\n      sub\n        /* \"#utility.yul\":2535:2567   */\n      slt\n        /* \"#utility.yul\":2532:2651   */\n      iszero\n      tag_145\n      jumpi\n        /* \"#utility.yul\":2570:2649   */\n      tag_146\n      tag_91\n      jump\t// in\n    tag_146:\n        /* \"#utility.yul\":2532:2651   */\n    tag_145:\n        /* \"#utility.yul\":2690:2691   */\n      0x00\n        /* \"#utility.yul\":2715:2768   */\n      tag_147\n        /* \"#utility.yul\":2760:2767   */\n      dup5\n        /* \"#utility.yul\":2751:2757   */\n      dup3\n        /* \"#utility.yul\":2740:2749   */\n      dup6\n        /* \"#utility.yul\":2736:2758   */\n      add\n        /* \"#utility.yul\":2715:2768   */\n      tag_96\n      jump\t// in\n    tag_147:\n        /* \"#utility.yul\":2705:2768   */\n      swap2\n      pop\n        /* \"#utility.yul\":2661:2778   */\n      pop\n        /* \"#utility.yul\":2456:2785   */\n      swap3\n      swap2\n      pop\n      pop\n      jump\t// out\n        /* \"#utility.yul\":2791:3410   */\n    tag_34:\n        /* \"#utility.yul\":2868:2874   */\n      0x00\n        /* \"#utility.yul\":2876:2882   */\n      0x00\n        /* \"#utility.yul\":2884:2890   */\n      0x00\n        /* \"#utility.yul\":2933:2935   */\n      0x60\n        /* \"#utility.yul\":2921:2930   */\n      dup5\n        /* \"#utility.yul\":2912:2919   */\n      dup7\n        /* \"#utility.yul\":2908:2931   */\n      sub\n        /* \"#utility.yul\":2904:2936   */\n      slt\n        /* \"#utility.yul\":2901:3020   */\n      iszero\n      tag_149\n      jumpi\n        /* \"#utility.yul\":2939:3018   */\n      tag_150\n      tag_91\n      jump\t// in\n    tag_150:\n        /* \"#utility.yul\":2901:3020   */\n    tag_149:\n        /* \"#utility.yul\":3059:3060   */\n      0x00\n        /* \"#utility.yul\":3084:3137   */\n      tag_151\n        /* \"#utility.yul\":3129:3136   */\n      dup7\n        /* \"#utility.yul\":3120:3126   */\n      dup3\n        /* \"#utility.yul\":3109:3118   */\n      dup8\n        /* \"#utility.yul\":3105:3127   */\n      add\n        /* \"#utility.yul\":3084:3137   */\n      tag_96\n      jump\t// in\n    tag_151:\n        /* \"#utility.yul\":3074:3137   */\n      swap4\n      pop\n        /* \"#utility.yul\":3030:3147   */\n      pop\n        /* \"#utility.yul\":3186:3188   */\n      0x20\n        /* \"#utility.yul\":3212:3265   */\n      tag_152\n        /* \"#utility.yul\":3257:3264   */\n      dup7\n        /* \"#utility.yul\":3248:3254   */\n      dup3\n        /* \"#utility.yul\":3237:3246   */\n      dup8\n        /* \"#utility.yul\":3233:3255   */\n      add\n        /* \"#utility.yul\":3212:3265   */\n      tag_96\n      jump\t// in\n    tag_152:\n        /* \"#utility.yul\":3202:3265   */\n      swap3\n      pop\n        /* \"#utility.yul\":3157:3275   */\n      pop\n        /* \"#utility.yul\":3314:3316   */\n      0x40\n        /* \"#utility.yul\":3340:3393   */\n      tag_153\n        /* \"#utility.yul\":3385:3392   */\n      dup7\n        /* \"#utility.yul\":3376:3382   */\n      dup3\n        /* \"#utility.yul\":3365:3374   */\n      dup8\n        /* \"#utility.yul\":3361:3383   */\n      add\n        /* \"#utility.yul\":3340:3393   */\n      tag_99\n      jump\t// in\n    tag_153:\n        /* \"#utility.yul\":3330:3393   */\n      swap2\n      pop\n        /* \"#utility.yul\":3285:3403   */\n      pop\n        /* \"#utility.yul\":2791:3410   */\n      swap3\n      pop\n      swap3\n      pop\n      swap3\n      jump\t// out\n        /* \"#utility.yul\":3416:3534   */\n    tag_103:\n        /* \"#utility.yul\":3503:3527   */\n      tag_155\n        /* \"#utility.yul\":3521:3526   */\n      dup2\n        /* \"#utility.yul\":3503:3527   */\n      tag_94\n      jump\t// in\n    tag_155:\n        /* \"#utility.yul\":3498:3501   */\n      dup3\n        /* \"#utility.yul\":3491:3528   */\n      mstore\n        /* \"#utility.yul\":3416:3534   */\n      pop\n      pop\n      jump\t// out\n        /* \"#utility.yul\":3540:3762   */\n    tag_40:\n        /* \"#utility.yul\":3633:3637   */\n      0x00\n        /* \"#utility.yul\":3671:3673   */\n      0x20\n        /* \"#utility.yul\":3660:3669   */\n      dup3\n        /* \"#utility.yul\":3656:3674   */\n      add\n        /* \"#utility.yul\":3648:3674   */\n      swap1\n      pop\n        /* \"#utility.yul\":3684:3755   */\n      tag_157\n        /* \"#utility.yul\":3752:3753   */\n      0x00\n        /* \"#utility.yul\":3741:3750   */\n      dup4\n        /* \"#utility.yul\":3737:3754   */\n      add\n        /* \"#utility.yul\":3728:3734   */\n      dup5\n        /* \"#utility.yul\":3684:3755   */\n      tag_103\n      jump\t// in\n    tag_157:\n        /* \"#utility.yul\":3540:3762   */\n      swap3\n      swap2\n      pop\n      pop\n      jump\t// out\n        /* \"#utility.yul\":3768:4242   */\n    tag_51:\n        /* \"#utility.yul\":3836:3842   */\n      0x00\n        /* \"#utility.yul\":3844:3850   */\n      0x00\n        /* \"#utility.yul\":3893:3895   */\n      0x40\n        /* \"#utility.yul\":3881:3890   */\n      dup4\n        /* \"#utility.yul\":3872:3879   */\n      dup6\n        /* \"#utility.yul\":3868:3891   */\n      sub\n        /* \"#utility.yul\":3864:3896   */\n      slt\n        /* \"#utility.yul\":3861:3980   */\n      iszero\n      tag_159\n      jumpi\n        /* \"#utility.yul\":3899:3978   */\n      tag_160\n      tag_91\n      jump\t// in\n    tag_160:\n        /* \"#utility.yul\":3861:3980   */\n    tag_159:\n        /* \"#utility.yul\":4019:4020   */\n      0x00\n        /* \"#utility.yul\":4044:4097   */\n      tag_161\n        /* \"#utility.yul\":4089:4096   */\n      dup6\n        /* \"#utility.yul\":4080:4086   */\n      dup3\n        /* \"#utility.yul\":4069:4078   */\n      dup7\n        /* \"#utility.yul\":4065:4087   */\n      add\n        /* \"#utility.yul\":4044:4097   */\n      tag_96\n      jump\t// in\n    tag_161:\n        /* \"#utility.yul\":4034:4097   */\n      swap3\n      pop\n        /* \"#utility.yul\":3990:4107   */\n      pop\n        /* \"#utility.yul\":4146:4148   */\n      0x20\n        /* \"#utility.yul\":4172:4225   */\n      tag_162\n        /* \"#utility.yul\":4217:4224   */\n      dup6\n        /* \"#utility.yul\":4208:4214   */\n      dup3\n        /* \"#utility.yul\":4197:4206   */\n      dup7\n        /* \"#utility.yul\":4193:4215   */\n      add\n        /* \"#utility.yul\":4172:4225   */\n      tag_96\n      jump\t// in\n    tag_162:\n        /* \"#utility.yul\":4162:4225   */\n      swap2\n      pop\n        /* \"#utility.yul\":4117:4235   */\n      pop\n        /* \"#utility.yul\":3768:4242   */\n      swap3\n      pop\n      swap3\n      swap1\n      pop\n      jump\t// out\n        /* \"#utility.yul\":4248:4417   */\n    tag_104:\n        /* \"#utility.yul\":4332:4343   */\n      0x00\n        /* \"#utility.yul\":4366:4372   */\n      dup3\n        /* \"#utility.yul\":4361:4364   */\n      dup3\n        /* \"#utility.yul\":4354:4373   */\n      mstore\n        /* \"#utility.yul\":4406:4410   */\n      0x20\n        /* \"#utility.yul\":4401:4404   */\n      dup3\n        /* \"#utility.yul\":4397:4411   */\n      add\n        /* \"#utility.yul\":4382:4411   */\n      swap1\n      pop\n        /* \"#utility.yul\":4248:4417   */\n      swap3\n      swap2\n      pop\n      pop\n      jump\t// out\n        /* \"#utility.yul\":4423:4593   */\n    tag_105:\n        /* \"#utility.yul\":4563:4585   */\n      0x6164647265737320697320496e56616c69642021000000000000000000000000\n        /* \"#utility.yul\":4559:4560   */\n      0x00\n        /* \"#utility.yul\":4551:4557   */\n      dup3\n        /* \"#utility.yul\":4547:4561   */\n      add\n        /* \"#utility.yul\":4540:4586   */\n      mstore\n        /* \"#utility.yul\":4423:4593   */\n      pop\n      jump\t// out\n        /* \"#utility.yul\":4599:4965   */\n    tag_106:\n        /* \"#utility.yul\":4741:4744   */\n      0x00\n        /* \"#utility.yul\":4762:4829   */\n      tag_166\n        /* \"#utility.yul\":4826:4828   */\n      0x14\n        /* \"#utility.yul\":4821:4824   */\n      dup4\n        /* \"#utility.yul\":4762:4829   */\n      tag_104\n      jump\t// in\n    tag_166:\n        /* \"#utility.yul\":4755:4829   */\n      swap2\n      pop\n        /* \"#utility.yul\":4838:4931   */\n      tag_167\n        /* \"#utility.yul\":4927:4930   */\n      dup3\n        /* \"#utility.yul\":4838:4931   */\n      tag_105\n      jump\t// in\n    tag_167:\n        /* \"#utility.yul\":4956:4958   */\n      0x20\n        /* \"#utility.yul\":4951:4954   */\n      dup3\n        /* \"#utility.yul\":4947:4959   */\n      add\n        /* \"#utility.yul\":4940:4959   */\n      swap1\n      pop\n        /* \"#utility.yul\":4599:4965   */\n      swap2\n      swap1\n      pop\n      jump\t// out\n        /* \"#utility.yul\":4971:5390   */\n    tag_61:\n        /* \"#utility.yul\":5137:5141   */\n      0x00\n        /* \"#utility.yul\":5175:5177   */\n      0x20\n        /* \"#utility.yul\":5164:5173   */\n      dup3\n        /* \"#utility.yul\":5160:5178   */\n      add\n        /* \"#utility.yul\":5152:5178   */\n      swap1\n      pop\n        /* \"#utility.yul\":5224:5233   */\n      dup2\n        /* \"#utility.yul\":5218:5222   */\n      dup2\n        /* \"#utility.yul\":5214:5234   */\n      sub\n        /* \"#utility.yul\":5210:5211   */\n      0x00\n        /* \"#utility.yul\":5199:5208   */\n      dup4\n        /* \"#utility.yul\":5195:5212   */\n      add\n        /* \"#utility.yul\":5188:5235   */\n      mstore\n        /* \"#utility.yul\":5252:5383   */\n      tag_169\n        /* \"#utility.yul\":5378:5382   */\n      dup2\n        /* \"#utility.yul\":5252:5383   */\n      tag_106\n      jump\t// in\n    tag_169:\n        /* \"#utility.yul\":5244:5383   */\n      swap1\n      pop\n        /* \"#utility.yul\":4971:5390   */\n      swap2\n      swap1\n      pop\n      jump\t// out\n        /* \"#utility.yul\":5396:5625   */\n    tag_107:\n        /* \"#utility.yul\":5536:5570   */\n      0x696e737566666963656e742062616c616e6365202120636865636b206f757420\n        /* \"#utility.yul\":5532:5533   */\n      0x00\n        /* \"#utility.yul\":5524:5530   */\n      dup3\n        /* \"#utility.yul\":5520:5534   */\n      add\n        /* \"#utility.yul\":5513:5571   */\n      mstore\n        /* \"#utility.yul\":5605:5617   */\n      0x62616c616e6365652e2e00000000000000000000000000000000000000000000\n        /* \"#utility.yul\":5600:5602   */\n      0x20\n        /* \"#utility.yul\":5592:5598   */\n      dup3\n        /* \"#utility.yul\":5588:5603   */\n      add\n        /* \"#utility.yul\":5581:5618   */\n      mstore\n        /* \"#utility.yul\":5396:5625   */\n      pop\n      jump\t// out\n        /* \"#utility.yul\":5631:5997   */\n    tag_108:\n        /* \"#utility.yul\":5773:5776   */\n      0x00\n        /* \"#utility.yul\":5794:5861   */\n      tag_172\n        /* \"#utility.yul\":5858:5860   */\n      0x2a\n        /* \"#utility.yul\":5853:5856   */\n      dup4\n        /* \"#utility.yul\":5794:5861   */\n      tag_104\n      jump\t// in\n    tag_172:\n        /* \"#utility.yul\":5787:5861   */\n      swap2\n      pop\n        /* \"#utility.yul\":5870:5963   */\n      tag_173\n        /* \"#utility.yul\":5959:5962   */\n      dup3\n        /* \"#utility.yul\":5870:5963   */\n      tag_107\n      jump\t// in\n    tag_173:\n        /* \"#utility.yul\":5988:5990   */\n      0x40\n        /* \"#utility.yul\":5983:5986   */\n      dup3\n        /* \"#utility.yul\":5979:5991   */\n      add\n        /* \"#utility.yul\":5972:5991   */\n      swap1\n      pop\n        /* \"#utility.yul\":5631:5997   */\n      swap2\n      swap1\n      pop\n      jump\t// out\n        /* \"#utility.yul\":6003:6422   */\n    tag_64:\n        /* \"#utility.yul\":6169:6173   */\n      0x00\n        /* \"#utility.yul\":6207:6209   */\n      0x20\n        /* \"#utility.yul\":6196:6205   */\n      dup3\n        /* \"#utility.yul\":6192:6210   */\n      add\n        /* \"#utility.yul\":6184:6210   */\n      swap1\n      pop\n        /* \"#utility.yul\":6256:6265   */\n      dup2\n        /* \"#utility.yul\":6250:6254   */\n      dup2\n        /* \"#utility.yul\":6246:6266   */\n      sub\n        /* \"#utility.yul\":6242:6243   */\n      0x00\n        /* \"#utility.yul\":6231:6240   */\n      dup4\n        /* \"#utility.yul\":6227:6244   */\n      add\n        /* \"#utility.yul\":6220:6267   */\n      mstore\n        /* \"#utility.yul\":6284:6415   */\n      tag_175\n        /* \"#utility.yul\":6410:6414   */\n      dup2\n        /* \"#utility.yul\":6284:6415   */\n      tag_108\n      jump\t// in\n    tag_175:\n        /* \"#utility.yul\":6276:6415   */\n      swap1\n      pop\n        /* \"#utility.yul\":6003:6422   */\n      swap2\n      swap1\n      pop\n      jump\t// out\n        /* \"#utility.yul\":6428:6604   */\n    tag_109:\n        /* \"#utility.yul\":6568:6596   */\n      0x76616c7565206973206e6f74206265206e696761746976652021000000000000\n        /* \"#utility.yul\":6564:6565   */\n      0x00\n        /* \"#utility.yul\":6556:6562   */\n      dup3\n        /* \"#utility.yul\":6552:6566   */\n      add\n        /* \"#utility.yul\":6545:6597   */\n      mstore\n        /* \"#utility.yul\":6428:6604   */\n      pop\n      jump\t// out\n        /* \"#utility.yul\":6610:6976   */\n    tag_110:\n        /* \"#utility.yul\":6752:6755   */\n      0x00\n        /* \"#utility.yul\":6773:6840   */\n      tag_178\n        /* \"#utility.yul\":6837:6839   */\n      0x1a\n        /* \"#utility.yul\":6832:6835   */\n      dup4\n        /* \"#utility.yul\":6773:6840   */\n      tag_104\n      jump\t// in\n    tag_178:\n        /* \"#utility.yul\":6766:6840   */\n      swap2\n      pop\n        /* \"#utility.yul\":6849:6942   */\n      tag_179\n        /* \"#utility.yul\":6938:6941   */\n      dup3\n        /* \"#utility.yul\":6849:6942   */\n      tag_109\n      jump\t// in\n    tag_179:\n        /* \"#utility.yul\":6967:6969   */\n      0x20\n        /* \"#utility.yul\":6962:6965   */\n      dup3\n        /* \"#utility.yul\":6958:6970   */\n      add\n        /* \"#utility.yul\":6951:6970   */\n      swap1\n      pop\n        /* \"#utility.yul\":6610:6976   */\n      swap2\n      swap1\n      pop\n      jump\t// out\n        /* \"#utility.yul\":6982:7401   */\n    tag_73:\n        /* \"#utility.yul\":7148:7152   */\n      0x00\n        /* \"#utility.yul\":7186:7188   */\n      0x20\n        /* \"#utility.yul\":7175:7184   */\n      dup3\n        /* \"#utility.yul\":7171:7189   */\n      add\n        /* \"#utility.yul\":7163:7189   */\n      swap1\n      pop\n        /* \"#utility.yul\":7235:7244   */\n      dup2\n        /* \"#utility.yul\":7229:7233   */\n      dup2\n        /* \"#utility.yul\":7225:7245   */\n      sub\n        /* \"#utility.yul\":7221:7222   */\n      0x00\n        /* \"#utility.yul\":7210:7219   */\n      dup4\n        /* \"#utility.yul\":7206:7223   */\n      add\n        /* \"#utility.yul\":7199:7246   */\n      mstore\n        /* \"#utility.yul\":7263:7394   */\n      tag_181\n        /* \"#utility.yul\":7389:7393   */\n      dup2\n        /* \"#utility.yul\":7263:7394   */\n      tag_110\n      jump\t// in\n    tag_181:\n        /* \"#utility.yul\":7255:7394   */\n      swap1\n      pop\n        /* \"#utility.yul\":6982:7401   */\n      swap2\n      swap1\n      pop\n      jump\t// out\n        /* \"#utility.yul\":7407:7587   */\n    tag_111:\n        /* \"#utility.yul\":7455:7532   */\n      0x4e487b7100000000000000000000000000000000000000000000000000000000\n        /* \"#utility.yul\":7452:7453   */\n      0x00\n        /* \"#utility.yul\":7445:7533   */\n      mstore\n        /* \"#utility.yul\":7552:7556   */\n      0x11\n        /* \"#utility.yul\":7549:7550   */\n      0x04\n        /* \"#utility.yul\":7542:7557   */\n      mstore\n        /* \"#utility.yul\":7576:7580   */\n      0x24\n        /* \"#utility.yul\":7573:7574   */\n      0x00\n        /* \"#utility.yul\":7566:7581   */\n      revert\n        /* \"#utility.yul\":7593:7787   */\n    tag_75:\n        /* \"#utility.yul\":7633:7637   */\n      0x00\n        /* \"#utility.yul\":7653:7673   */\n      tag_184\n        /* \"#utility.yul\":7671:7672   */\n      dup3\n        /* \"#utility.yul\":7653:7673   */\n      tag_97\n      jump\t// in\n    tag_184:\n        /* \"#utility.yul\":7648:7673   */\n      swap2\n      pop\n        /* \"#utility.yul\":7687:7707   */\n      tag_185\n        /* \"#utility.yul\":7705:7706   */\n      dup4\n        /* \"#utility.yul\":7687:7707   */\n      tag_97\n      jump\t// in\n    tag_185:\n        /* \"#utility.yul\":7682:7707   */\n      swap3\n      pop\n        /* \"#utility.yul\":7731:7732   */\n      dup3\n        /* \"#utility.yul\":7728:7729   */\n      dup3\n        /* \"#utility.yul\":7724:7733   */\n      sub\n        /* \"#utility.yul\":7716:7733   */\n      swap1\n      pop\n        /* \"#utility.yul\":7755:7756   */\n      dup2\n        /* \"#utility.yul\":7749:7753   */\n      dup2\n        /* \"#utility.yul\":7746:7757   */\n      gt\n        /* \"#utility.yul\":7743:7780   */\n      iszero\n      tag_186\n      jumpi\n        /* \"#utility.yul\":7760:7778   */\n      tag_187\n      tag_111\n      jump\t// in\n    tag_187:\n        /* \"#utility.yul\":7743:7780   */\n    tag_186:\n        /* \"#utility.yul\":7593:7787   */\n      swap3\n      swap2\n      pop\n      pop\n      jump\t// out\n        /* \"#utility.yul\":7793:7984   */\n    tag_78:\n        /* \"#utility.yul\":7833:7836   */\n      0x00\n        /* \"#utility.yul\":7852:7872   */\n      tag_189\n        /* \"#utility.yul\":7870:7871   */\n      dup3\n        /* \"#utility.yul\":7852:7872   */\n      tag_97\n      jump\t// in\n    tag_189:\n        /* \"#utility.yul\":7847:7872   */\n      swap2\n      pop\n        /* \"#utility.yul\":7886:7906   */\n      tag_190\n        /* \"#utility.yul\":7904:7905   */\n      dup4\n        /* \"#utility.yul\":7886:7906   */\n      tag_97\n      jump\t// in\n    tag_190:\n        /* \"#utility.yul\":7881:7906   */\n      swap3\n      pop\n        /* \"#utility.yul\":7929:7930   */\n      dup3\n        /* \"#utility.yul\":7926:7927   */\n      dup3\n        /* \"#utility.yul\":7922:7931   */\n      add\n        /* \"#utility.yul\":7915:7931   */\n      swap1\n      pop\n        /* \"#utility.yul\":7950:7953   */\n      dup1\n        /* \"#utility.yul\":7947:7948   */\n      dup3\n        /* \"#utility.yul\":7944:7954   */\n      gt\n        /* \"#utility.yul\":7941:7977   */\n      iszero\n      tag_191\n      jumpi\n        /* \"#utility.yul\":7957:7975   */\n      tag_192\n      tag_111\n      jump\t// in\n    tag_192:\n        /* \"#utility.yul\":7941:7977   */\n    tag_191:\n        /* \"#utility.yul\":7793:7984   */\n      swap3\n      swap2\n      pop\n      pop\n      jump\t// out\n\n    auxdata: 0xa2646970667358221220a9d76cd980eaa4c74d636ff9c9d8d6de37e22a702377aaf6bce2af4dcd353f6264736f6c634300081f0033\n}\n",
				"bytecode": {
					"linkReferences": {},
					"object": "60806040526103e86001555f6004553480156018575f5ffd5b50335f5f6101000a81548173ffffffffffffffffffffffffffffffffffffffff021916908373ffffffffffffffffffffffffffffffffffffffff16021790555060015460025f5f5f9054906101000a900473ffffffffffffffffffffffffffffffffffffffff1673ffffffffffffffffffffffffffffffffffffffff1673ffffffffffffffffffffffffffffffffffffffff1681526020019081526020015f2081905550610ea9806100c95f395ff3fe608060405234801561000f575f5ffd5b506004361061009c575f3560e01c80634d853ee5116100645780634d853ee51461016c57806370a082311461018a578063a9059cbb146101ba578063dd62ed3e146101ea578063e02f7f621461021a5761009c565b8063095ea7b3146100a05780630d86473a146100d057806312cae7af146100ee57806318160ddd1461011e57806323b872dd1461013c575b5f5ffd5b6100ba60048036038101906100b59190610af8565b61024a565b6040516100c79190610b50565b60405180910390f35b6100d8610425565b6040516100e59190610b78565b60405180910390f35b61010860048036038101906101039190610b91565b61042b565b6040516101159190610b78565b60405180910390f35b610126610440565b6040516101339190610b78565b60405180910390f35b61015660048036038101906101519190610bbc565b610446565b6040516101639190610b50565b60405180910390f35b610174610757565b6040516101819190610c1b565b60405180910390f35b6101a4600480360381019061019f9190610b91565b61077b565b6040516101b19190610b78565b60405180910390f35b6101d460048036038101906101cf9190610af8565b6107c1565b6040516101e19190610b50565b60405180910390f35b61020460048036038101906101ff9190610c34565b6109c5565b6040516102119190610b78565b60405180910390f35b610234600480360381019061022f9190610c34565b610a47565b6040516102419190610b78565b60405180910390f35b5f5f73ffffffffffffffffffffffffffffffffffffffff168373ffffffffffffffffffffffffffffffffffffffff16036102b9576040517f08c379a00000000000000000000000000000000000000000000000000000000081526004016102b090610ccc565b60405180910390fd5b8160025f3373ffffffffffffffffffffffffffffffffffffffff1673ffffffffffffffffffffffffffffffffffffffff1681526020019081526020015f20541015610339576040517f08c379a000000000000000000000000000000000000000000000000000000000815260040161033090610d5a565b60405180910390fd5b8160035f3373ffffffffffffffffffffffffffffffffffffffff1673ffffffffffffffffffffffffffffffffffffffff1681526020019081526020015f205f8573ffffffffffffffffffffffffffffffffffffffff1673ffffffffffffffffffffffffffffffffffffffff1681526020019081526020015f20819055508273ffffffffffffffffffffffffffffffffffffffff163373ffffffffffffffffffffffffffffffffffffffff167f8c5be1e5ebec7d5bd14f71427d1e84f3dd0314c0f7b2291e5b200ac8c7c3b925846040516104139190610b78565b60405180910390a36001905092915050565b60045481565b6002602052805f5260405f205f915090505481565b60015481565b5f5f73ffffffffffffffffffffffffffffffffffffffff168373ffffffffffffffffffffffffffffffffffffffff16036104b5576040517f08c379a00000000000000000000000000000000000000000000000000000000081526004016104ac90610ccc565b60405180910390fd5b8160035f8673ffffffffffffffffffffffffffffffffffffffff1673ffffffffffffffffffffffffffffffffffffffff1681526020019081526020015f205f8573ffffffffffffffffffffffffffffffffffffffff1673ffffffffffffffffffffffffffffffffffffffff1681526020019081526020015f20541015610570576040517f08c379a000000000000000000000000000000000000000000000000000000000815260040161056790610d5a565b60405180910390fd5b5f8210156105b3576040517f08c379a00000000000000000000000000000000000000000000000000000000081526004016105aa90610dc2565b60405180910390fd5b8160035f8673ffffffffffffffffffffffffffffffffffffffff1673ffffffffffffffffffffffffffffffffffffffff1681526020019081526020015f205f8573ffffffffffffffffffffffffffffffffffffffff1673ffffffffffffffffffffffffffffffffffffffff1681526020019081526020015f205f82825461063a9190610e0d565b925050819055508160025f8673ffffffffffffffffffffffffffffffffffffffff1673ffffffffffffffffffffffffffffffffffffffff1681526020019081526020015f205f82825461068d9190610e0d565b925050819055508160025f8573ffffffffffffffffffffffffffffffffffffffff1673ffffffffffffffffffffffffffffffffffffffff1681526020019081526020015f205f8282546106e09190610e40565b925050819055508273ffffffffffffffffffffffffffffffffffffffff168473ffffffffffffffffffffffffffffffffffffffff167fddf252ad1be2c89b69c2b068fc378daa952ba7f163c4a11628f55a4df523b3ef846040516107449190610b78565b60405180910390a3600190509392505050565b5f5f9054906101000a900473ffffffffffffffffffffffffffffffffffffffff1681565b5f60025f8373ffffffffffffffffffffffffffffffffffffffff1673ffffffffffffffffffffffffffffffffffffffff1681526020019081526020015f20549050919050565b5f5f73ffffffffffffffffffffffffffffffffffffffff168373ffffffffffffffffffffffffffffffffffffffff1603610830576040517f08c379a000000000000000000000000000000000000000000000000000000000815260040161082790610ccc565b60405180910390fd5b8160025f3373ffffffffffffffffffffffffffffffffffffffff1673ffffffffffffffffffffffffffffffffffffffff1681526020019081526020015f205410156108b0576040517f08c379a00000000000000000000000000000000000000000000000000000000081526004016108a790610d5a565b60405180910390fd5b8160025f3373ffffffffffffffffffffffffffffffffffffffff1673ffffffffffffffffffffffffffffffffffffffff1681526020019081526020015f205f8282546108fc9190610e0d565b925050819055508160025f8573ffffffffffffffffffffffffffffffffffffffff1673ffffffffffffffffffffffffffffffffffffffff1681526020019081526020015f205f82825461094f9190610e40565b925050819055508273ffffffffffffffffffffffffffffffffffffffff163373ffffffffffffffffffffffffffffffffffffffff167fddf252ad1be2c89b69c2b068fc378daa952ba7f163c4a11628f55a4df523b3ef846040516109b39190610b78565b60405180910390a36001905092915050565b5f60035f8473ffffffffffffffffffffffffffffffffffffffff1673ffffffffffffffffffffffffffffffffffffffff1681526020019081526020015f205f8373ffffffffffffffffffffffffffffffffffffffff1673ffffffffffffffffffffffffffffffffffffffff1681526020019081526020015f2054905092915050565b6003602052815f5260405f20602052805f5260405f205f91509150505481565b5f5ffd5b5f73ffffffffffffffffffffffffffffffffffffffff82169050919050565b5f610a9482610a6b565b9050919050565b610aa481610a8a565b8114610aae575f5ffd5b50565b5f81359050610abf81610a9b565b92915050565b5f819050919050565b610ad781610ac5565b8114610ae1575f5ffd5b50565b5f81359050610af281610ace565b92915050565b5f5f60408385031215610b0e57610b0d610a67565b5b5f610b1b85828601610ab1565b9250506020610b2c85828601610ae4565b9150509250929050565b5f8115159050919050565b610b4a81610b36565b82525050565b5f602082019050610b635f830184610b41565b92915050565b610b7281610ac5565b82525050565b5f602082019050610b8b5f830184610b69565b92915050565b5f60208284031215610ba657610ba5610a67565b5b5f610bb384828501610ab1565b91505092915050565b5f5f5f60608486031215610bd357610bd2610a67565b5b5f610be086828701610ab1565b9350506020610bf186828701610ab1565b9250506040610c0286828701610ae4565b9150509250925092565b610c1581610a8a565b82525050565b5f602082019050610c2e5f830184610c0c565b92915050565b5f5f60408385031215610c4a57610c49610a67565b5b5f610c5785828601610ab1565b9250506020610c6885828601610ab1565b9150509250929050565b5f82825260208201905092915050565b7f6164647265737320697320496e56616c696420210000000000000000000000005f82015250565b5f610cb6601483610c72565b9150610cc182610c82565b602082019050919050565b5f6020820190508181035f830152610ce381610caa565b9050919050565b7f696e737566666963656e742062616c616e6365202120636865636b206f7574205f8201527f62616c616e6365652e2e00000000000000000000000000000000000000000000602082015250565b5f610d44602a83610c72565b9150610d4f82610cea565b604082019050919050565b5f6020820190508181035f830152610d7181610d38565b9050919050565b7f76616c7565206973206e6f74206265206e6967617469766520210000000000005f82015250565b5f610dac601a83610c72565b9150610db782610d78565b602082019050919050565b5f6020820190508181035f830152610dd981610da0565b9050919050565b7f4e487b71000000000000000000000000000000000000000000000000000000005f52601160045260245ffd5b5f610e1782610ac5565b9150610e2283610ac5565b9250828203905081811115610e3a57610e39610de0565b5b92915050565b5f610e4a82610ac5565b9150610e5583610ac5565b9250828201905080821115610e6d57610e6c610de0565b5b9291505056fea2646970667358221220a9d76cd980eaa4c74d636ff9c9d8d6de37e22a702377aaf6bce2af4dcd353f6264736f6c634300081f0033",
					"opcodes": "PUSH1 0x80 PUSH1 0x40 MSTORE PUSH2 0x3E8 PUSH1 0x1 SSTORE PUSH0 PUSH1 0x4 SSTORE CALLVALUE DUP1 ISZERO PUSH1 0x18 JUMPI PUSH0 PUSH0 REVERT JUMPDEST POP CALLER PUSH0 PUSH0 PUSH2 0x100 EXP DUP2 SLOAD DUP2 PUSH20 0xFFFFFFFFFFFFFFFFFFFFFFFFFFFFFFFFFFFFFFFF MUL NOT AND SWAP1 DUP4 PUSH20 0xFFFFFFFFFFFFFFFFFFFFFFFFFFFFFFFFFFFFFFFF AND MUL OR SWAP1 SSTORE POP PUSH1 0x1 SLOAD PUSH1 0x2 PUSH0 PUSH0 PUSH0 SWAP1 SLOAD SWAP1 PUSH2 0x100 EXP SWAP1 DIV PUSH20 0xFFFFFFFFFFFFFFFFFFFFFFFFFFFFFFFFFFFFFFFF AND PUSH20 0xFFFFFFFFFFFFFFFFFFFFFFFFFFFFFFFFFFFFFFFF AND PUSH20 0xFFFFFFFFFFFFFFFFFFFFFFFFFFFFFFFFFFFFFFFF AND DUP2 MSTORE PUSH1 0x20 ADD SWAP1 DUP2 MSTORE PUSH1 0x20 ADD PUSH0 KECCAK256 DUP2 SWAP1 SSTORE POP PUSH2 0xEA9 DUP1 PUSH2 0xC9 PUSH0 CODECOPY PUSH0 RETURN INVALID PUSH1 0x80 PUSH1 0x40 MSTORE CALLVALUE DUP1 ISZERO PUSH2 0xF JUMPI PUSH0 PUSH0 REVERT JUMPDEST POP PUSH1 0x4 CALLDATASIZE LT PUSH2 0x9C JUMPI PUSH0 CALLDATALOAD PUSH1 0xE0 SHR DUP1 PUSH4 0x4D853EE5 GT PUSH2 0x64 JUMPI DUP1 PUSH4 0x4D853EE5 EQ PUSH2 0x16C JUMPI DUP1 PUSH4 0x70A08231 EQ PUSH2 0x18A JUMPI DUP1 PUSH4 0xA9059CBB EQ PUSH2 0x1BA JUMPI DUP1 PUSH4 0xDD62ED3E EQ PUSH2 0x1EA JUMPI DUP1 PUSH4 0xE02F7F62 EQ PUSH2 0x21A JUMPI PUSH2 0x9C JUMP JUMPDEST DUP1 PUSH4 0x95EA7B3 EQ PUSH2 0xA0 JUMPI DUP1 PUSH4 0xD86473A EQ PUSH2 0xD0 JUMPI DUP1 PUSH4 0x12CAE7AF EQ PUSH2 0xEE JUMPI DUP1 PUSH4 0x18160DDD EQ PUSH2 0x11E JUMPI DUP1 PUSH4 0x23B872DD EQ PUSH2 0x13C JUMPI JUMPDEST PUSH0 PUSH0 REVERT JUMPDEST PUSH2 0xBA PUSH1 0x4 DUP1 CALLDATASIZE SUB DUP2 ADD SWAP1 PUSH2 0xB5 SWAP2 SWAP1 PUSH2 0xAF8 JUMP JUMPDEST PUSH2 0x24A JUMP JUMPDEST PUSH1 0x40 MLOAD PUSH2 0xC7 SWAP2 SWAP1 PUSH2 0xB50 JUMP JUMPDEST PUSH1 0x40 MLOAD DUP1 SWAP2 SUB SWAP1 RETURN JUMPDEST PUSH2 0xD8 PUSH2 0x425 JUMP JUMPDEST PUSH1 0x40 MLOAD PUSH2 0xE5 SWAP2 SWAP1 PUSH2 0xB78 JUMP JUMPDEST PUSH1 0x40 MLOAD DUP1 SWAP2 SUB SWAP1 RETURN JUMPDEST PUSH2 0x108 PUSH1 0x4 DUP1 CALLDATASIZE SUB DUP2 ADD SWAP1 PUSH2 0x103 SWAP2 SWAP1 PUSH2 0xB91 JUMP JUMPDEST PUSH2 0x42B JUMP JUMPDEST PUSH1 0x40 MLOAD PUSH2 0x115 SWAP2 SWAP1 PUSH2 0xB78 JUMP JUMPDEST PUSH1 0x40 MLOAD DUP1 SWAP2 SUB SWAP1 RETURN JUMPDEST PUSH2 0x126 PUSH2 0x440 JUMP JUMPDEST PUSH1 0x40 MLOAD PUSH2 0x133 SWAP2 SWAP1 PUSH2 0xB78 JUMP JUMPDEST PUSH1 0x40 MLOAD DUP1 SWAP2 SUB SWAP1 RETURN JUMPDEST PUSH2 0x156 PUSH1 0x4 DUP1 CALLDATASIZE SUB DUP2 ADD SWAP1 PUSH2 0x151 SWAP2 SWAP1 PUSH2 0xBBC JUMP JUMPDEST PUSH2 0x446 JUMP JUMPDEST PUSH1 0x40 MLOAD PUSH2 0x163 SWAP2 SWAP1 PUSH2 0xB50 JUMP JUMPDEST PUSH1 0x40 MLOAD DUP1 SWAP2 SUB SWAP1 RETURN JUMPDEST PUSH2 0x174 PUSH2 0x757 JUMP JUMPDEST PUSH1 0x40 MLOAD PUSH2 0x181 SWAP2 SWAP1 PUSH2 0xC1B JUMP JUMPDEST PUSH1 0x40 MLOAD DUP1 SWAP2 SUB SWAP1 RETURN JUMPDEST PUSH2 0x1A4 PUSH1 0x4 DUP1 CALLDATASIZE SUB DUP2 ADD SWAP1 PUSH2 0x19F SWAP2 SWAP1 PUSH2 0xB91 JUMP JUMPDEST PUSH2 0x77B JUMP JUMPDEST PUSH1 0x40 MLOAD PUSH2 0x1B1 SWAP2 SWAP1 PUSH2 0xB78 JUMP JUMPDEST PUSH1 0x40 MLOAD DUP1 SWAP2 SUB SWAP1 RETURN JUMPDEST PUSH2 0x1D4 PUSH1 0x4 DUP1 CALLDATASIZE SUB DUP2 ADD SWAP1 PUSH2 0x1CF SWAP2 SWAP1 PUSH2 0xAF8 JUMP JUMPDEST PUSH2 0x7C1 JUMP JUMPDEST PUSH1 0x40 MLOAD PUSH2 0x1E1 SWAP2 SWAP1 PUSH2 0xB50 JUMP JUMPDEST PUSH1 0x40 MLOAD DUP1 SWAP2 SUB SWAP1 RETURN JUMPDEST PUSH2 0x204 PUSH1 0x4 DUP1 CALLDATASIZE SUB DUP2 ADD SWAP1 PUSH2 0x1FF SWAP2 SWAP1 PUSH2 0xC34 JUMP JUMPDEST PUSH2 0x9C5 JUMP JUMPDEST PUSH1 0x40 MLOAD PUSH2 0x211 SWAP2 SWAP1 PUSH2 0xB78 JUMP JUMPDEST PUSH1 0x40 MLOAD DUP1 SWAP2 SUB SWAP1 RETURN JUMPDEST PUSH2 0x234 PUSH1 0x4 DUP1 CALLDATASIZE SUB DUP2 ADD SWAP1 PUSH2 0x22F SWAP2 SWAP1 PUSH2 0xC34 JUMP JUMPDEST PUSH2 0xA47 JUMP JUMPDEST PUSH1 0x40 MLOAD PUSH2 0x241 SWAP2 SWAP1 PUSH2 0xB78 JUMP JUMPDEST PUSH1 0x40 MLOAD DUP1 SWAP2 SUB SWAP1 RETURN JUMPDEST PUSH0 PUSH0 PUSH20 0xFFFFFFFFFFFFFFFFFFFFFFFFFFFFFFFFFFFFFFFF AND DUP4 PUSH20 0xFFFFFFFFFFFFFFFFFFFFFFFFFFFFFFFFFFFFFFFF AND SUB PUSH2 0x2B9 JUMPI PUSH1 0x40 MLOAD PUSH32 0x8C379A000000000000000000000000000000000000000000000000000000000 DUP2 MSTORE PUSH1 0x4 ADD PUSH2 0x2B0 SWAP1 PUSH2 0xCCC JUMP JUMPDEST PUSH1 0x40 MLOAD DUP1 SWAP2 SUB SWAP1 REVERT JUMPDEST DUP2 PUSH1 0x2 PUSH0 CALLER PUSH20 0xFFFFFFFFFFFFFFFFFFFFFFFFFFFFFFFFFFFFFFFF AND PUSH20 0xFFFFFFFFFFFFFFFFFFFFFFFFFFFFFFFFFFFFFFFF AND DUP2 MSTORE PUSH1 0x20 ADD SWAP1 DUP2 MSTORE PUSH1 0x20 ADD PUSH0 KECCAK256 SLOAD LT ISZERO PUSH2 0x339 JUMPI PUSH1 0x40 MLOAD PUSH32 0x8C379A000000000000000000000000000000000000000000000000000000000 DUP2 MSTORE PUSH1 0x4 ADD PUSH2 0x330 SWAP1 PUSH2 0xD5A JUMP JUMPDEST PUSH1 0x40 MLOAD DUP1 SWAP2 SUB SWAP1 REVERT JUMPDEST DUP2 PUSH1 0x3 PUSH0 CALLER PUSH20 0xFFFFFFFFFFFFFFFFFFFFFFFFFFFFFFFFFFFFFFFF AND PUSH20 0xFFFFFFFFFFFFFFFFFFFFFFFFFFFFFFFFFFFFFFFF AND DUP2 MSTORE PUSH1 0x20 ADD SWAP1 DUP2 MSTORE PUSH1 0x20 ADD PUSH0 KECCAK256 PUSH0 DUP6 PUSH20 0xFFFFFFFFFFFFFFFFFFFFFFFFFFFFFFFFFFFFFFFF AND PUSH20 0xFFFFFFFFFFFFFFFFFFFFFFFFFFFFFFFFFFFFFFFF AND DUP2 MSTORE PUSH1 0x20 ADD SWAP1 DUP2 MSTORE PUSH1 0x20 ADD PUSH0 KECCAK256 DUP2 SWAP1 SSTORE POP DUP3 PUSH20 0xFFFFFFFFFFFFFFFFFFFFFFFFFFFFFFFFFFFFFFFF AND CALLER PUSH20 0xFFFFFFFFFFFFFFFFFFFFFFFFFFFFFFFFFFFFFFFF AND PUSH32 0x8C5BE1E5EBEC7D5BD14F71427D1E84F3DD0314C0F7B2291E5B200AC8C7C3B925 DUP5 PUSH1 0x40 MLOAD PUSH2 0x413 SWAP2 SWAP1 PUSH2 0xB78 JUMP JUMPDEST PUSH1 0x40 MLOAD DUP1 SWAP2 SUB SWAP1 LOG3 PUSH1 0x1 SWAP1 POP SWAP3 SWAP2 POP POP JUMP JUMPDEST PUSH1 0x4 SLOAD DUP2 JUMP JUMPDEST PUSH1 0x2 PUSH1 0x20 MSTORE DUP1 PUSH0 MSTORE PUSH1 0x40 PUSH0 KECCAK256 PUSH0 SWAP2 POP SWAP1 POP SLOAD DUP2 JUMP JUMPDEST PUSH1 0x1 SLOAD DUP2 JUMP JUMPDEST PUSH0 PUSH0 PUSH20 0xFFFFFFFFFFFFFFFFFFFFFFFFFFFFFFFFFFFFFFFF AND DUP4 PUSH20 0xFFFFFFFFFFFFFFFFFFFFFFFFFFFFFFFFFFFFFFFF AND SUB PUSH2 0x4B5 JUMPI PUSH1 0x40 MLOAD PUSH32 0x8C379A000000000000000000000000000000000000000000000000000000000 DUP2 MSTORE PUSH1 0x4 ADD PUSH2 0x4AC SWAP1 PUSH2 0xCCC JUMP JUMPDEST PUSH1 0x40 MLOAD DUP1 SWAP2 SUB SWAP1 REVERT JUMPDEST DUP2 PUSH1 0x3 PUSH0 DUP7 PUSH20 0xFFFFFFFFFFFFFFFFFFFFFFFFFFFFFFFFFFFFFFFF AND PUSH20 0xFFFFFFFFFFFFFFFFFFFFFFFFFFFFFFFFFFFFFFFF AND DUP2 MSTORE PUSH1 0x20 ADD SWAP1 DUP2 MSTORE PUSH1 0x20 ADD PUSH0 KECCAK256 PUSH0 DUP6 PUSH20 0xFFFFFFFFFFFFFFFFFFFFFFFFFFFFFFFFFFFFFFFF AND PUSH20 0xFFFFFFFFFFFFFFFFFFFFFFFFFFFFFFFFFFFFFFFF AND DUP2 MSTORE PUSH1 0x20 ADD SWAP1 DUP2 MSTORE PUSH1 0x20 ADD PUSH0 KECCAK256 SLOAD LT ISZERO PUSH2 0x570 JUMPI PUSH1 0x40 MLOAD PUSH32 0x8C379A000000000000000000000000000000000000000000000000000000000 DUP2 MSTORE PUSH1 0x4 ADD PUSH2 0x567 SWAP1 PUSH2 0xD5A JUMP JUMPDEST PUSH1 0x40 MLOAD DUP1 SWAP2 SUB SWAP1 REVERT JUMPDEST PUSH0 DUP3 LT ISZERO PUSH2 0x5B3 JUMPI PUSH1 0x40 MLOAD PUSH32 0x8C379A000000000000000000000000000000000000000000000000000000000 DUP2 MSTORE PUSH1 0x4 ADD PUSH2 0x5AA SWAP1 PUSH2 0xDC2 JUMP JUMPDEST PUSH1 0x40 MLOAD DUP1 SWAP2 SUB SWAP1 REVERT JUMPDEST DUP2 PUSH1 0x3 PUSH0 DUP7 PUSH20 0xFFFFFFFFFFFFFFFFFFFFFFFFFFFFFFFFFFFFFFFF AND PUSH20 0xFFFFFFFFFFFFFFFFFFFFFFFFFFFFFFFFFFFFFFFF AND DUP2 MSTORE PUSH1 0x20 ADD SWAP1 DUP2 MSTORE PUSH1 0x20 ADD PUSH0 KECCAK256 PUSH0 DUP6 PUSH20 0xFFFFFFFFFFFFFFFFFFFFFFFFFFFFFFFFFFFFFFFF AND PUSH20 0xFFFFFFFFFFFFFFFFFFFFFFFFFFFFFFFFFFFFFFFF AND DUP2 MSTORE PUSH1 0x20 ADD SWAP1 DUP2 MSTORE PUSH1 0x20 ADD PUSH0 KECCAK256 PUSH0 DUP3 DUP3 SLOAD PUSH2 0x63A SWAP2 SWAP1 PUSH2 0xE0D JUMP JUMPDEST SWAP3 POP POP DUP2 SWAP1 SSTORE POP DUP2 PUSH1 0x2 PUSH0 DUP7 PUSH20 0xFFFFFFFFFFFFFFFFFFFFFFFFFFFFFFFFFFFFFFFF AND PUSH20 0xFFFFFFFFFFFFFFFFFFFFFFFFFFFFFFFFFFFFFFFF AND DUP2 MSTORE PUSH1 0x20 ADD SWAP1 DUP2 MSTORE PUSH1 0x20 ADD PUSH0 KECCAK256 PUSH0 DUP3 DUP3 SLOAD PUSH2 0x68D SWAP2 SWAP1 PUSH2 0xE0D JUMP JUMPDEST SWAP3 POP POP DUP2 SWAP1 SSTORE POP DUP2 PUSH1 0x2 PUSH0 DUP6 PUSH20 0xFFFFFFFFFFFFFFFFFFFFFFFFFFFFFFFFFFFFFFFF AND PUSH20 0xFFFFFFFFFFFFFFFFFFFFFFFFFFFFFFFFFFFFFFFF AND DUP2 MSTORE PUSH1 0x20 ADD SWAP1 DUP2 MSTORE PUSH1 0x20 ADD PUSH0 KECCAK256 PUSH0 DUP3 DUP3 SLOAD PUSH2 0x6E0 SWAP2 SWAP1 PUSH2 0xE40 JUMP JUMPDEST SWAP3 POP POP DUP2 SWAP1 SSTORE POP DUP3 PUSH20 0xFFFFFFFFFFFFFFFFFFFFFFFFFFFFFFFFFFFFFFFF AND DUP5 PUSH20 0xFFFFFFFFFFFFFFFFFFFFFFFFFFFFFFFFFFFFFFFF AND PUSH32 0xDDF252AD1BE2C89B69C2B068FC378DAA952BA7F163C4A11628F55A4DF523B3EF DUP5 PUSH1 0x40 MLOAD PUSH2 0x744 SWAP2 SWAP1 PUSH2 0xB78 JUMP JUMPDEST PUSH1 0x40 MLOAD DUP1 SWAP2 SUB SWAP1 LOG3 PUSH1 0x1 SWAP1 POP SWAP4 SWAP3 POP POP POP JUMP JUMPDEST PUSH0 PUSH0 SWAP1 SLOAD SWAP1 PUSH2 0x100 EXP SWAP1 DIV PUSH20 0xFFFFFFFFFFFFFFFFFFFFFFFFFFFFFFFFFFFFFFFF AND DUP2 JUMP JUMPDEST PUSH0 PUSH1 0x2 PUSH0 DUP4 PUSH20 0xFFFFFFFFFFFFFFFFFFFFFFFFFFFFFFFFFFFFFFFF AND PUSH20 0xFFFFFFFFFFFFFFFFFFFFFFFFFFFFFFFFFFFFFFFF AND DUP2 MSTORE PUSH1 0x20 ADD SWAP1 DUP2 MSTORE PUSH1 0x20 ADD PUSH0 KECCAK256 SLOAD SWAP1 POP SWAP2 SWAP1 POP JUMP JUMPDEST PUSH0 PUSH0 PUSH20 0xFFFFFFFFFFFFFFFFFFFFFFFFFFFFFFFFFFFFFFFF AND DUP4 PUSH20 0xFFFFFFFFFFFFFFFFFFFFFFFFFFFFFFFFFFFFFFFF AND SUB PUSH2 0x830 JUMPI PUSH1 0x40 MLOAD PUSH32 0x8C379A000000000000000000000000000000000000000000000000000000000 DUP2 MSTORE PUSH1 0x4 ADD PUSH2 0x827 SWAP1 PUSH2 0xCCC JUMP JUMPDEST PUSH1 0x40 MLOAD DUP1 SWAP2 SUB SWAP1 REVERT JUMPDEST DUP2 PUSH1 0x2 PUSH0 CALLER PUSH20 0xFFFFFFFFFFFFFFFFFFFFFFFFFFFFFFFFFFFFFFFF AND PUSH20 0xFFFFFFFFFFFFFFFFFFFFFFFFFFFFFFFFFFFFFFFF AND DUP2 MSTORE PUSH1 0x20 ADD SWAP1 DUP2 MSTORE PUSH1 0x20 ADD PUSH0 KECCAK256 SLOAD LT ISZERO PUSH2 0x8B0 JUMPI PUSH1 0x40 MLOAD PUSH32 0x8C379A000000000000000000000000000000000000000000000000000000000 DUP2 MSTORE PUSH1 0x4 ADD PUSH2 0x8A7 SWAP1 PUSH2 0xD5A JUMP JUMPDEST PUSH1 0x40 MLOAD DUP1 SWAP2 SUB SWAP1 REVERT JUMPDEST DUP2 PUSH1 0x2 PUSH0 CALLER PUSH20 0xFFFFFFFFFFFFFFFFFFFFFFFFFFFFFFFFFFFFFFFF AND PUSH20 0xFFFFFFFFFFFFFFFFFFFFFFFFFFFFFFFFFFFFFFFF AND DUP2 MSTORE PUSH1 0x20 ADD SWAP1 DUP2 MSTORE PUSH1 0x20 ADD PUSH0 KECCAK256 PUSH0 DUP3 DUP3 SLOAD PUSH2 0x8FC SWAP2 SWAP1 PUSH2 0xE0D JUMP JUMPDEST SWAP3 POP POP DUP2 SWAP1 SSTORE POP DUP2 PUSH1 0x2 PUSH0 DUP6 PUSH20 0xFFFFFFFFFFFFFFFFFFFFFFFFFFFFFFFFFFFFFFFF AND PUSH20 0xFFFFFFFFFFFFFFFFFFFFFFFFFFFFFFFFFFFFFFFF AND DUP2 MSTORE PUSH1 0x20 ADD SWAP1 DUP2 MSTORE PUSH1 0x20 ADD PUSH0 KECCAK256 PUSH0 DUP3 DUP3 SLOAD PUSH2 0x94F SWAP2 SWAP1 PUSH2 0xE40 JUMP JUMPDEST SWAP3 POP POP DUP2 SWAP1 SSTORE POP DUP3 PUSH20 0xFFFFFFFFFFFFFFFFFFFFFFFFFFFFFFFFFFFFFFFF AND CALLER PUSH20 0xFFFFFFFFFFFFFFFFFFFFFFFFFFFFFFFFFFFFFFFF AND PUSH32 0xDDF252AD1BE2C89B69C2B068FC378DAA952BA7F163C4A11628F55A4DF523B3EF DUP5 PUSH1 0x40 MLOAD PUSH2 0x9B3 SWAP2 SWAP1 PUSH2 0xB78 JUMP JUMPDEST PUSH1 0x40 MLOAD DUP1 SWAP2 SUB SWAP1 LOG3 PUSH1 0x1 SWAP1 POP SWAP3 SWAP2 POP POP JUMP JUMPDEST PUSH0 PUSH1 0x3 PUSH0 DUP5 PUSH20 0xFFFFFFFFFFFFFFFFFFFFFFFFFFFFFFFFFFFFFFFF AND PUSH20 0xFFFFFFFFFFFFFFFFFFFFFFFFFFFFFFFFFFFFFFFF AND DUP2 MSTORE PUSH1 0x20 ADD SWAP1 DUP2 MSTORE PUSH1 0x20 ADD PUSH0 KECCAK256 PUSH0 DUP4 PUSH20 0xFFFFFFFFFFFFFFFFFFFFFFFFFFFFFFFFFFFFFFFF AND PUSH20 0xFFFFFFFFFFFFFFFFFFFFFFFFFFFFFFFFFFFFFFFF AND DUP2 MSTORE PUSH1 0x20 ADD SWAP1 DUP2 MSTORE PUSH1 0x20 ADD PUSH0 KECCAK256 SLOAD SWAP1 POP SWAP3 SWAP2 POP POP JUMP JUMPDEST PUSH1 0x3 PUSH1 0x20 MSTORE DUP2 PUSH0 MSTORE PUSH1 0x40 PUSH0 KECCAK256 PUSH1 0x20 MSTORE DUP1 PUSH0 MSTORE PUSH1 0x40 PUSH0 KECCAK256 PUSH0 SWAP2 POP SWAP2 POP POP SLOAD DUP2 JUMP JUMPDEST PUSH0 PUSH0 REVERT JUMPDEST PUSH0 PUSH20 0xFFFFFFFFFFFFFFFFFFFFFFFFFFFFFFFFFFFFFFFF DUP3 AND SWAP1 POP SWAP2 SWAP1 POP JUMP JUMPDEST PUSH0 PUSH2 0xA94 DUP3 PUSH2 0xA6B JUMP JUMPDEST SWAP1 POP SWAP2 SWAP1 POP JUMP JUMPDEST PUSH2 0xAA4 DUP2 PUSH2 0xA8A JUMP JUMPDEST DUP2 EQ PUSH2 0xAAE JUMPI PUSH0 PUSH0 REVERT JUMPDEST POP JUMP JUMPDEST PUSH0 DUP2 CALLDATALOAD SWAP1 POP PUSH2 0xABF DUP2 PUSH2 0xA9B JUMP JUMPDEST SWAP3 SWAP2 POP POP JUMP JUMPDEST PUSH0 DUP2 SWAP1 POP SWAP2 SWAP1 POP JUMP JUMPDEST PUSH2 0xAD7 DUP2 PUSH2 0xAC5 JUMP JUMPDEST DUP2 EQ PUSH2 0xAE1 JUMPI PUSH0 PUSH0 REVERT JUMPDEST POP JUMP JUMPDEST PUSH0 DUP2 CALLDATALOAD SWAP1 POP PUSH2 0xAF2 DUP2 PUSH2 0xACE JUMP JUMPDEST SWAP3 SWAP2 POP POP JUMP JUMPDEST PUSH0 PUSH0 PUSH1 0x40 DUP4 DUP6 SUB SLT ISZERO PUSH2 0xB0E JUMPI PUSH2 0xB0D PUSH2 0xA67 JUMP JUMPDEST JUMPDEST PUSH0 PUSH2 0xB1B DUP6 DUP3 DUP7 ADD PUSH2 0xAB1 JUMP JUMPDEST SWAP3 POP POP PUSH1 0x20 PUSH2 0xB2C DUP6 DUP3 DUP7 ADD PUSH2 0xAE4 JUMP JUMPDEST SWAP2 POP POP SWAP3 POP SWAP3 SWAP1 POP JUMP JUMPDEST PUSH0 DUP2 ISZERO ISZERO SWAP1 POP SWAP2 SWAP1 POP JUMP JUMPDEST PUSH2 0xB4A DUP2 PUSH2 0xB36 JUMP JUMPDEST DUP3 MSTORE POP POP JUMP JUMPDEST PUSH0 PUSH1 0x20 DUP3 ADD SWAP1 POP PUSH2 0xB63 PUSH0 DUP4 ADD DUP5 PUSH2 0xB41 JUMP JUMPDEST SWAP3 SWAP2 POP POP JUMP JUMPDEST PUSH2 0xB72 DUP2 PUSH2 0xAC5 JUMP JUMPDEST DUP3 MSTORE POP POP JUMP JUMPDEST PUSH0 PUSH1 0x20 DUP3 ADD SWAP1 POP PUSH2 0xB8B PUSH0 DUP4 ADD DUP5 PUSH2 0xB69 JUMP JUMPDEST SWAP3 SWAP2 POP POP JUMP JUMPDEST PUSH0 PUSH1 0x20 DUP3 DUP5 SUB SLT ISZERO PUSH2 0xBA6 JUMPI PUSH2 0xBA5 PUSH2 0xA67 JUMP JUMPDEST JUMPDEST PUSH0 PUSH2 0xBB3 DUP5 DUP3 DUP6 ADD PUSH2 0xAB1 JUMP JUMPDEST SWAP2 POP POP SWAP3 SWAP2 POP POP JUMP JUMPDEST PUSH0 PUSH0 PUSH0 PUSH1 0x60 DUP5 DUP7 SUB SLT ISZERO PUSH2 0xBD3 JUMPI PUSH2 0xBD2 PUSH2 0xA67 JUMP JUMPDEST JUMPDEST PUSH0 PUSH2 0xBE0 DUP7 DUP3 DUP8 ADD PUSH2 0xAB1 JUMP JUMPDEST SWAP4 POP POP PUSH1 0x20 PUSH2 0xBF1 DUP7 DUP3 DUP8 ADD PUSH2 0xAB1 JUMP JUMPDEST SWAP3 POP POP PUSH1 0x40 PUSH2 0xC02 DUP7 DUP3 DUP8 ADD PUSH2 0xAE4 JUMP JUMPDEST SWAP2 POP POP SWAP3 POP SWAP3 POP SWAP3 JUMP JUMPDEST PUSH2 0xC15 DUP2 PUSH2 0xA8A JUMP JUMPDEST DUP3 MSTORE POP POP JUMP JUMPDEST PUSH0 PUSH1 0x20 DUP3 ADD SWAP1 POP PUSH2 0xC2E PUSH0 DUP4 ADD DUP5 PUSH2 0xC0C JUMP JUMPDEST SWAP3 SWAP2 POP POP JUMP JUMPDEST PUSH0 PUSH0 PUSH1 0x40 DUP4 DUP6 SUB SLT ISZERO PUSH2 0xC4A JUMPI PUSH2 0xC49 PUSH2 0xA67 JUMP JUMPDEST JUMPDEST PUSH0 PUSH2 0xC57 DUP6 DUP3 DUP7 ADD PUSH2 0xAB1 JUMP JUMPDEST SWAP3 POP POP PUSH1 0x20 PUSH2 0xC68 DUP6 DUP3 DUP7 ADD PUSH2 0xAB1 JUMP JUMPDEST SWAP2 POP POP SWAP3 POP SWAP3 SWAP1 POP JUMP JUMPDEST PUSH0 DUP3 DUP3 MSTORE PUSH1 0x20 DUP3 ADD SWAP1 POP SWAP3 SWAP2 POP POP JUMP JUMPDEST PUSH32 0x6164647265737320697320496E56616C69642021000000000000000000000000 PUSH0 DUP3 ADD MSTORE POP JUMP JUMPDEST PUSH0 PUSH2 0xCB6 PUSH1 0x14 DUP4 PUSH2 0xC72 JUMP JUMPDEST SWAP2 POP PUSH2 0xCC1 DUP3 PUSH2 0xC82 JUMP JUMPDEST PUSH1 0x20 DUP3 ADD SWAP1 POP SWAP2 SWAP1 POP JUMP JUMPDEST PUSH0 PUSH1 0x20 DUP3 ADD SWAP1 POP DUP2 DUP2 SUB PUSH0 DUP4 ADD MSTORE PUSH2 0xCE3 DUP2 PUSH2 0xCAA JUMP JUMPDEST SWAP1 POP SWAP2 SWAP1 POP JUMP JUMPDEST PUSH32 0x696E737566666963656E742062616C616E6365202120636865636B206F757420 PUSH0 DUP3 ADD MSTORE PUSH32 0x62616C616E6365652E2E00000000000000000000000000000000000000000000 PUSH1 0x20 DUP3 ADD MSTORE POP JUMP JUMPDEST PUSH0 PUSH2 0xD44 PUSH1 0x2A DUP4 PUSH2 0xC72 JUMP JUMPDEST SWAP2 POP PUSH2 0xD4F DUP3 PUSH2 0xCEA JUMP JUMPDEST PUSH1 0x40 DUP3 ADD SWAP1 POP SWAP2 SWAP1 POP JUMP JUMPDEST PUSH0 PUSH1 0x20 DUP3 ADD SWAP1 POP DUP2 DUP2 SUB PUSH0 DUP4 ADD MSTORE PUSH2 0xD71 DUP2 PUSH2 0xD38 JUMP JUMPDEST SWAP1 POP SWAP2 SWAP1 POP JUMP JUMPDEST PUSH32 0x76616C7565206973206E6F74206265206E696761746976652021000000000000 PUSH0 DUP3 ADD MSTORE POP JUMP JUMPDEST PUSH0 PUSH2 0xDAC PUSH1 0x1A DUP4 PUSH2 0xC72 JUMP JUMPDEST SWAP2 POP PUSH2 0xDB7 DUP3 PUSH2 0xD78 JUMP JUMPDEST PUSH1 0x20 DUP3 ADD SWAP1 POP SWAP2 SWAP1 POP JUMP JUMPDEST PUSH0 PUSH1 0x20 DUP3 ADD SWAP1 POP DUP2 DUP2 SUB PUSH0 DUP4 ADD MSTORE PUSH2 0xDD9 DUP2 PUSH2 0xDA0 JUMP JUMPDEST SWAP1 POP SWAP2 SWAP1 POP JUMP JUMPDEST PUSH32 0x4E487B7100000000000000000000000000000000000000000000000000000000 PUSH0 MSTORE PUSH1 0x11 PUSH1 0x4 MSTORE PUSH1 0x24 PUSH0 REVERT JUMPDEST PUSH0 PUSH2 0xE17 DUP3 PUSH2 0xAC5 JUMP JUMPDEST SWAP2 POP PUSH2 0xE22 DUP4 PUSH2 0xAC5 JUMP JUMPDEST SWAP3 POP DUP3 DUP3 SUB SWAP1 POP DUP2 DUP2 GT ISZERO PUSH2 0xE3A JUMPI PUSH2 0xE39 PUSH2 0xDE0 JUMP JUMPDEST JUMPDEST SWAP3 SWAP2 POP POP JUMP JUMPDEST PUSH0 PUSH2 0xE4A DUP3 PUSH2 0xAC5 JUMP JUMPDEST SWAP2 POP PUSH2 0xE55 DUP4 PUSH2 0xAC5 JUMP JUMPDEST SWAP3 POP DUP3 DUP3 ADD SWAP1 POP DUP1 DUP3 GT ISZERO PUSH2 0xE6D JUMPI PUSH2 0xE6C PUSH2 0xDE0 JUMP JUMPDEST JUMPDEST SWAP3 SWAP2 POP POP JUMP INVALID LOG2 PUSH5 0x6970667358 0x22 SLT KECCAK256 0xA9 0xD7 PUSH13 0xD980EAA4C74D636FF9C9D8D6DE CALLDATACOPY 0xE2 0x2A PUSH17 0x2377AAF6BCE2AF4DCD353F6264736F6C63 NUMBER STOP ADDMOD 0x1F STOP CALLER "
				},
				"gasEstimates": {
					"creation": {
						"codeDepositCost": "750600",
						"executionCost": "78595",
						"totalCost": "829195"
					},
					"external": {
						"allowance(address,address)": "infinite",
						"allowedToken(address,address)": "infinite",
						"approve(address,uint256)": "infinite",
						"balanceOf(address)": "2851",
						"balanceOfUser(address)": "2847",
						"decimales()": "2448",
						"founder()": "2507",
						"totalSupply()": "2492",
						"transfer(address,uint256)": "infinite",
						"transferFrom(address,address,uint256)": "infinite"
					}
				},
				"methodIdentifiers": {
					"allowance(address,address)": "dd62ed3e",
					"allowedToken(address,address)": "e02f7f62",
					"approve(address,uint256)": "095ea7b3",
					"balanceOf(address)": "70a08231",
					"balanceOfUser(address)": "12cae7af",
					"decimales()": "0d86473a",
					"founder()": "4d853ee5",
					"totalSupply()": "18160ddd",
					"transfer(address,uint256)": "a9059cbb",
					"transferFrom(address,address,uint256)": "23b872dd"
				}
			},
			"storageLayout": {
				"storage": [
					{
						"astId": 72,
						"contract": "contracts/ERC20.sol:Jaydip",
						"label": "founder",
						"offset": 0,
						"slot": "0",
						"type": "t_address"
					},
					{
						"astId": 75,
						"contract": "contracts/ERC20.sol:Jaydip",
						"label": "totalSupply",
						"offset": 0,
						"slot": "1",
						"type": "t_uint256"
					},
					{
						"astId": 79,
						"contract": "contracts/ERC20.sol:Jaydip",
						"label": "balanceOfUser",
						"offset": 0,
						"slot": "2",
						"type": "t_mapping(t_address,t_uint256)"
					},
					{
						"astId": 85,
						"contract": "contracts/ERC20.sol:Jaydip",
						"label": "allowedToken",
						"offset": 0,
						"slot": "3",
						"type": "t_mapping(t_address,t_mapping(t_address,t_uint256))"
					},
					{
						"astId": 88,
						"contract": "contracts/ERC20.sol:Jaydip",
						"label": "decimales",
						"offset": 0,
						"slot": "4",
						"type": "t_uint256"
					}
				],
				"types": {
					"t_address": {
						"encoding": "inplace",
						"label": "address",
						"numberOfBytes": "20"
					},
					"t_mapping(t_address,t_mapping(t_address,t_uint256))": {
						"encoding": "mapping",
						"key": "t_address",
						"label": "mapping(address => mapping(address => uint256))",
						"numberOfBytes": "32",
						"value": "t_mapping(t_address,t_uint256)"
					},
					"t_mapping(t_address,t_uint256)": {
						"encoding": "mapping",
						"key": "t_address",
						"label": "mapping(address => uint256)",
						"numberOfBytes": "32",
						"value": "t_uint256"
					},
					"t_uint256": {
						"encoding": "inplace",
						"label": "uint256",
						"numberOfBytes": "32"
					}
				}
			},
			"userdoc": {
				"kind": "user",
				"methods": {},
				"version": 1
			}
		}
	}
}