{
	"contracts/_SimpleWallet.sol": {
		"SimpleWallet": {
			"abi": [
				{
					"inputs": [],
					"stateMutability": "nonpayable",
					"type": "constructor"
				},
				{
					"inputs": [
						{
							"internalType": "string",
							"name": "",
							"type": "string"
						}
					],
					"name": "NotAuthorized",
					"type": "error"
				},
				{
					"anonymous": false,
					"inputs": [
						{
							"indexed": false,
							"internalType": "address",
							"name": "sender",
							"type": "address"
						},
						{
							"indexed": false,
							"internalType": "uint256",
							"name": "amounth",
							"type": "uint256"
						}
					],
					"name": "Receive",
					"type": "event"
				},
				{
					"anonymous": false,
					"inputs": [
						{
							"indexed": false,
							"internalType": "address",
							"name": "user",
							"type": "address"
						},
						{
							"indexed": false,
							"internalType": "uint256",
							"name": "amounth",
							"type": "uint256"
						}
					],
					"name": "Transfer",
					"type": "event"
				},
				{
					"stateMutability": "payable",
					"type": "fallback"
				},
				{
					"inputs": [
						{
							"internalType": "address",
							"name": "newOwner",
							"type": "address"
						}
					],
					"name": "changOwner",
					"outputs": [],
					"stateMutability": "nonpayable",
					"type": "function"
				},
				{
					"inputs": [],
					"name": "emergencyWithdrawl",
					"outputs": [],
					"stateMutability": "nonpayable",
					"type": "function"
				},
				{
					"inputs": [],
					"name": "getContractBalanceInWei",
					"outputs": [
						{
							"internalType": "uint256",
							"name": "",
							"type": "uint256"
						}
					],
					"stateMutability": "view",
					"type": "function"
				},
				{
					"inputs": [],
					"name": "getOwnerBalanceInWei",
					"outputs": [
						{
							"internalType": "uint256",
							"name": "",
							"type": "uint256"
						}
					],
					"stateMutability": "view",
					"type": "function"
				},
				{
					"inputs": [],
					"name": "getTransactionHistory",
					"outputs": [
						{
							"components": [
								{
									"internalType": "address",
									"name": "to",
									"type": "address"
								},
								{
									"internalType": "address",
									"name": "send",
									"type": "address"
								},
								{
									"internalType": "uint256",
									"name": "timestamp",
									"type": "uint256"
								},
								{
									"internalType": "uint256",
									"name": "amount",
									"type": "uint256"
								}
							],
							"internalType": "struct SimpleWallet.Transaction[]",
							"name": "",
							"type": "tuple[]"
						}
					],
					"stateMutability": "view",
					"type": "function"
				},
				{
					"inputs": [],
					"name": "message",
					"outputs": [
						{
							"internalType": "string",
							"name": "",
							"type": "string"
						}
					],
					"stateMutability": "view",
					"type": "function"
				},
				{
					"inputs": [],
					"name": "newval",
					"outputs": [
						{
							"internalType": "uint256",
							"name": "",
							"type": "uint256"
						}
					],
					"stateMutability": "view",
					"type": "function"
				},
				{
					"inputs": [],
					"name": "old",
					"outputs": [
						{
							"internalType": "uint256",
							"name": "",
							"type": "uint256"
						}
					],
					"stateMutability": "view",
					"type": "function"
				},
				{
					"inputs": [],
					"name": "owner",
					"outputs": [
						{
							"internalType": "address",
							"name": "",
							"type": "address"
						}
					],
					"stateMutability": "view",
					"type": "function"
				},
				{
					"inputs": [],
					"name": "receiveFromUser",
					"outputs": [],
					"stateMutability": "payable",
					"type": "function"
				},
				{
					"inputs": [
						{
							"internalType": "address",
							"name": "_sender",
							"type": "address"
						}
					],
					"name": "suspiciousActivity",
					"outputs": [],
					"stateMutability": "nonpayable",
					"type": "function"
				},
				{
					"inputs": [],
					"name": "toggleStop",
					"outputs": [],
					"stateMutability": "nonpayable",
					"type": "function"
				},
				{
					"inputs": [
						{
							"internalType": "uint256",
							"name": "",
							"type": "uint256"
						}
					],
					"name": "transcationHistory",
					"outputs": [
						{
							"internalType": "address",
							"name": "to",
							"type": "address"
						},
						{
							"internalType": "address",
							"name": "send",
							"type": "address"
						},
						{
							"internalType": "uint256",
							"name": "timestamp",
							"type": "uint256"
						},
						{
							"internalType": "uint256",
							"name": "amount",
							"type": "uint256"
						}
					],
					"stateMutability": "view",
					"type": "function"
				},
				{
					"inputs": [],
					"name": "transferToContract",
					"outputs": [],
					"stateMutability": "payable",
					"type": "function"
				},
				{
					"inputs": [
						{
							"internalType": "address payable",
							"name": "_to",
							"type": "address"
						},
						{
							"internalType": "uint256",
							"name": "_weiAmount",
							"type": "uint256"
						}
					],
					"name": "transferToUserViaContract",
					"outputs": [],
					"stateMutability": "nonpayable",
					"type": "function"
				},
				{
					"inputs": [
						{
							"internalType": "address payable",
							"name": "_to",
							"type": "address"
						}
					],
					"name": "transferToUserViaMsgValue",
					"outputs": [],
					"stateMutability": "payable",
					"type": "function"
				},
				{
					"inputs": [
						{
							"internalType": "uint256",
							"name": "_weiAmount",
							"type": "uint256"
						}
					],
					"name": "withdrawFromContract",
					"outputs": [],
					"stateMutability": "nonpayable",
					"type": "function"
				},
				{
					"stateMutability": "payable",
					"type": "receive"
				}
			],
			"devdoc": {
				"kind": "dev",
				"methods": {},
				"version": 1
			},
			"evm": {
				"assembly": "    /* \"contracts/_SimpleWallet.sol\":155:4780  contract SimpleWallet {... */\n  mstore(0x40, 0x80)\n    /* \"contracts/_SimpleWallet.sol\":579:584  false */\n  0x00\n    /* \"contracts/_SimpleWallet.sol\":567:584  bool stop = false */\n  0x05\n  exp(0x0100, 0x00)\n  dup2\n  sload\n  dup2\n  0xff\n  mul\n  not\n  and\n  swap1\n  dup4\n  iszero\n  iszero\n  mul\n  or\n  swap1\n  sstore\n  pop\n    /* \"contracts/_SimpleWallet.sol\":745:794  constructor(){... */\n  callvalue\n  dup1\n  iszero\n  tag_1\n  jumpi\n  revert(0x00, 0x00)\ntag_1:\n  pop\n    /* \"contracts/_SimpleWallet.sol\":776:786  msg.sender */\n  caller\n    /* \"contracts/_SimpleWallet.sol\":768:773  owner */\n  0x01\n  0x00\n    /* \"contracts/_SimpleWallet.sol\":768:786  owner = msg.sender */\n  0x0100\n  exp\n  dup2\n  sload\n  dup2\n  0xffffffffffffffffffffffffffffffffffffffff\n  mul\n  not\n  and\n  swap1\n  dup4\n  0xffffffffffffffffffffffffffffffffffffffff\n  and\n  mul\n  or\n  swap1\n  sstore\n  pop\n    /* \"contracts/_SimpleWallet.sol\":155:4780  contract SimpleWallet {... */\n  dataSize(sub_0)\n  dup1\n  dataOffset(sub_0)\n  0x00\n  codecopy\n  0x00\n  return\nstop\n\nsub_0: assembly {\n        /* \"contracts/_SimpleWallet.sol\":155:4780  contract SimpleWallet {... */\n      mstore(0x40, 0x80)\n      jumpi(tag_1, lt(calldatasize, 0x04))\n      shr(0xe0, calldataload(0x00))\n      dup1\n      0xa299ed99\n      gt\n      tag_20\n      jumpi\n      dup1\n      0xbfa698de\n      gt\n      tag_21\n      jumpi\n      dup1\n      0xbfa698de\n      eq\n      tag_15\n      jumpi\n      dup1\n      0xcf87f052\n      eq\n      tag_16\n      jumpi\n      dup1\n      0xd2b53948\n      eq\n      tag_17\n      jumpi\n      dup1\n      0xe21f37ce\n      eq\n      tag_18\n      jumpi\n      dup1\n      0xeb2d9fd3\n      eq\n      tag_19\n      jumpi\n      jump(tag_2)\n    tag_21:\n      dup1\n      0xa299ed99\n      eq\n      tag_11\n      jumpi\n      dup1\n      0xaeae547d\n      eq\n      tag_12\n      jumpi\n      dup1\n      0xb76d4fc3\n      eq\n      tag_13\n      jumpi\n      dup1\n      0xb83f8663\n      eq\n      tag_14\n      jumpi\n      jump(tag_2)\n    tag_20:\n      dup1\n      0x7935e5a3\n      gt\n      tag_22\n      jumpi\n      dup1\n      0x7935e5a3\n      eq\n      tag_7\n      jumpi\n      dup1\n      0x79546275\n      eq\n      tag_8\n      jumpi\n      dup1\n      0x8da5cb5b\n      eq\n      tag_9\n      jumpi\n      dup1\n      0x9a70eef1\n      eq\n      tag_10\n      jumpi\n      jump(tag_2)\n    tag_22:\n      dup1\n      0x12cccb34\n      eq\n      tag_3\n      jumpi\n      dup1\n      0x47cdcc1f\n      eq\n      tag_4\n      jumpi\n      dup1\n      0x547fbe8e\n      eq\n      tag_5\n      jumpi\n      dup1\n      0x6f3f42ac\n      eq\n      tag_6\n      jumpi\n      jump(tag_2)\n    tag_1:\n      jumpi(tag_2, calldatasize)\n        /* \"contracts/_SimpleWallet.sol\":4080:4110  Receive(msg.sender, msg.value) */\n      0xd6717f327e0cb88b4a97a7f67a453e9258252c34937ccbdd86de7cb840e7def3\n        /* \"contracts/_SimpleWallet.sol\":4088:4098  msg.sender */\n      caller\n        /* \"contracts/_SimpleWallet.sol\":4100:4109  msg.value */\n      callvalue\n        /* \"contracts/_SimpleWallet.sol\":4080:4110  Receive(msg.sender, msg.value) */\n      mload(0x40)\n      tag_25\n      swap3\n      swap2\n      swap1\n      tag_26\n      jump\t// in\n    tag_25:\n      mload(0x40)\n      dup1\n      swap2\n      sub\n      swap1\n      log1\n        /* \"contracts/_SimpleWallet.sol\":155:4780  contract SimpleWallet {... */\n      stop\n    tag_2:\n        /* \"contracts/_SimpleWallet.sol\":4395:4425  suspiciousActivity(msg.sender) */\n      tag_29\n        /* \"contracts/_SimpleWallet.sol\":4414:4424  msg.sender */\n      caller\n        /* \"contracts/_SimpleWallet.sol\":4395:4413  suspiciousActivity */\n      tag_30\n        /* \"contracts/_SimpleWallet.sol\":4395:4425  suspiciousActivity(msg.sender) */\n      jump\t// in\n    tag_29:\n        /* \"contracts/_SimpleWallet.sol\":155:4780  contract SimpleWallet {... */\n      stop\n        /* \"contracts/_SimpleWallet.sol\":1531:1798  function transferToContract() external payable {... */\n    tag_3:\n      tag_31\n      tag_32\n      jump\t// in\n    tag_31:\n      stop\n        /* \"contracts/_SimpleWallet.sol\":1806:2401  function transferToUserViaContract(address payable _to, uint _weiAmount) external onlyOwner {... */\n    tag_4:\n      callvalue\n      dup1\n      iszero\n      tag_33\n      jumpi\n      revert(0x00, 0x00)\n    tag_33:\n      pop\n      tag_34\n      0x04\n      dup1\n      calldatasize\n      sub\n      dup2\n      add\n      swap1\n      tag_35\n      swap2\n      swap1\n      tag_36\n      jump\t// in\n    tag_35:\n      tag_37\n      jump\t// in\n    tag_34:\n      stop\n        /* \"contracts/_SimpleWallet.sol\":3936:4032  function getOwnerBalanceInWei() external  view returns(uint){... */\n    tag_5:\n      callvalue\n      dup1\n      iszero\n      tag_38\n      jumpi\n      revert(0x00, 0x00)\n    tag_38:\n      pop\n      tag_39\n      tag_40\n      jump\t// in\n    tag_39:\n      mload(0x40)\n      tag_41\n      swap2\n      swap1\n      tag_42\n      jump\t// in\n    tag_41:\n      mload(0x40)\n      dup1\n      swap2\n      sub\n      swap1\n      return\n        /* \"contracts/_SimpleWallet.sol\":3002:3682  function transferToUserViaMsgValue(address payable  _to) external payable getSuspiciousUser(msg.sender){... */\n    tag_6:\n      tag_43\n      0x04\n      dup1\n      calldatasize\n      sub\n      dup2\n      add\n      swap1\n      tag_44\n      swap2\n      swap1\n      tag_45\n      jump\t// in\n    tag_44:\n      tag_46\n      jump\t// in\n    tag_43:\n      stop\n        /* \"contracts/_SimpleWallet.sol\":4574:4760  function emergencyWithdrawl() external {... */\n    tag_7:\n      callvalue\n      dup1\n      iszero\n      tag_47\n      jumpi\n      revert(0x00, 0x00)\n    tag_47:\n      pop\n      tag_48\n      tag_49\n      jump\t// in\n    tag_48:\n      stop\n        /* \"contracts/_SimpleWallet.sol\":409:449  Transaction[] public  transcationHistory */\n    tag_8:\n      callvalue\n      dup1\n      iszero\n      tag_50\n      jumpi\n      revert(0x00, 0x00)\n    tag_50:\n      pop\n      tag_51\n      0x04\n      dup1\n      calldatasize\n      sub\n      dup2\n      add\n      swap1\n      tag_52\n      swap2\n      swap1\n      tag_53\n      jump\t// in\n    tag_52:\n      tag_54\n      jump\t// in\n    tag_51:\n      mload(0x40)\n      tag_55\n      swap5\n      swap4\n      swap3\n      swap2\n      swap1\n      tag_56\n      jump\t// in\n    tag_55:\n      mload(0x40)\n      dup1\n      swap2\n      sub\n      swap1\n      return\n        /* \"contracts/_SimpleWallet.sol\":464:484  address public owner */\n    tag_9:\n      callvalue\n      dup1\n      iszero\n      tag_57\n      jumpi\n      revert(0x00, 0x00)\n    tag_57:\n      pop\n      tag_58\n      tag_59\n      jump\t// in\n    tag_58:\n      mload(0x40)\n      tag_60\n      swap2\n      swap1\n      tag_61\n      jump\t// in\n    tag_60:\n      mload(0x40)\n      dup1\n      swap2\n      sub\n      swap1\n      return\n        /* \"contracts/_SimpleWallet.sol\":1234:1305  function toggleStop() external onlyOwner {... */\n    tag_10:\n      callvalue\n      dup1\n      iszero\n      tag_62\n      jumpi\n      revert(0x00, 0x00)\n    tag_62:\n      pop\n      tag_63\n      tag_64\n      jump\t// in\n    tag_63:\n      stop\n        /* \"contracts/_SimpleWallet.sol\":513:531  uint public newval */\n    tag_11:\n      callvalue\n      dup1\n      iszero\n      tag_65\n      jumpi\n      revert(0x00, 0x00)\n    tag_65:\n      pop\n      tag_66\n      tag_67\n      jump\t// in\n    tag_66:\n      mload(0x40)\n      tag_68\n      swap2\n      swap1\n      tag_42\n      jump\t// in\n    tag_68:\n      mload(0x40)\n      dup1\n      swap2\n      sub\n      swap1\n      return\n        /* \"contracts/_SimpleWallet.sol\":2409:2786  function withdrawFromContract(uint _weiAmount) external onlyOwner {... */\n    tag_12:\n      callvalue\n      dup1\n      iszero\n      tag_69\n      jumpi\n      revert(0x00, 0x00)\n    tag_69:\n      pop\n      tag_70\n      0x04\n      dup1\n      calldatasize\n      sub\n      dup2\n      add\n      swap1\n      tag_71\n      swap2\n      swap1\n      tag_53\n      jump\t// in\n    tag_71:\n      tag_72\n      jump\t// in\n    tag_70:\n      stop\n        /* \"contracts/_SimpleWallet.sol\":4445:4564  function getTransactionHistory() external view returns(Transaction[] memory){... */\n    tag_13:\n      callvalue\n      dup1\n      iszero\n      tag_73\n      jumpi\n      revert(0x00, 0x00)\n    tag_73:\n      pop\n      tag_74\n      tag_75\n      jump\t// in\n    tag_74:\n      mload(0x40)\n      tag_76\n      swap2\n      swap1\n      tag_77\n      jump\t// in\n    tag_76:\n      mload(0x40)\n      dup1\n      swap2\n      sub\n      swap1\n      return\n        /* \"contracts/_SimpleWallet.sol\":491:506  uint public old */\n    tag_14:\n      callvalue\n      dup1\n      iszero\n      tag_78\n      jumpi\n      revert(0x00, 0x00)\n    tag_78:\n      pop\n      tag_79\n      tag_80\n      jump\t// in\n    tag_79:\n      mload(0x40)\n      tag_81\n      swap2\n      swap1\n      tag_42\n      jump\t// in\n    tag_81:\n      mload(0x40)\n      dup1\n      swap2\n      sub\n      swap1\n      return\n        /* \"contracts/_SimpleWallet.sol\":2794:2956  function getContractBalanceInWei() external view returns (uint) {... */\n    tag_15:\n      callvalue\n      dup1\n      iszero\n      tag_82\n      jumpi\n      revert(0x00, 0x00)\n    tag_82:\n      pop\n      tag_83\n      tag_84\n      jump\t// in\n    tag_83:\n      mload(0x40)\n      tag_85\n      swap2\n      swap1\n      tag_42\n      jump\t// in\n    tag_85:\n      mload(0x40)\n      dup1\n      swap2\n      sub\n      swap1\n      return\n        /* \"contracts/_SimpleWallet.sol\":4129:4249  function suspiciousActivity(address _sender) public {... */\n    tag_16:\n      callvalue\n      dup1\n      iszero\n      tag_86\n      jumpi\n      revert(0x00, 0x00)\n    tag_86:\n      pop\n      tag_87\n      0x04\n      dup1\n      calldatasize\n      sub\n      dup2\n      add\n      swap1\n      tag_88\n      swap2\n      swap1\n      tag_89\n      jump\t// in\n    tag_88:\n      tag_30\n      jump\t// in\n    tag_87:\n      stop\n        /* \"contracts/_SimpleWallet.sol\":3731:3926  function receiveFromUser() external payable {... */\n    tag_17:\n      tag_90\n      tag_91\n      jump\t// in\n    tag_90:\n      stop\n        /* \"contracts/_SimpleWallet.sol\":538:560  string public  message */\n    tag_18:\n      callvalue\n      dup1\n      iszero\n      tag_92\n      jumpi\n      revert(0x00, 0x00)\n    tag_92:\n      pop\n      tag_93\n      tag_94\n      jump\t// in\n    tag_93:\n      mload(0x40)\n      tag_95\n      swap2\n      swap1\n      tag_96\n      jump\t// in\n    tag_95:\n      mload(0x40)\n      dup1\n      swap2\n      sub\n      swap1\n      return\n        /* \"contracts/_SimpleWallet.sol\":1315:1483  function changOwner(address newOwner) public onlyOwner isEmergencyDeclared {... */\n    tag_19:\n      callvalue\n      dup1\n      iszero\n      tag_97\n      jumpi\n      revert(0x00, 0x00)\n    tag_97:\n      pop\n      tag_98\n      0x04\n      dup1\n      calldatasize\n      sub\n      dup2\n      add\n      swap1\n      tag_99\n      swap2\n      swap1\n      tag_89\n      jump\t// in\n    tag_99:\n      tag_100\n      jump\t// in\n    tag_98:\n      stop\n        /* \"contracts/_SimpleWallet.sol\":4129:4249  function suspiciousActivity(address _sender) public {... */\n    tag_30:\n        /* \"contracts/_SimpleWallet.sol\":4240:4241  1 */\n      0x01\n        /* \"contracts/_SimpleWallet.sol\":4214:4228  SuspiciousUser */\n      0x06\n        /* \"contracts/_SimpleWallet.sol\":4214:4237  SuspiciousUser[_sender] */\n      0x00\n        /* \"contracts/_SimpleWallet.sol\":4229:4236  _sender */\n      dup4\n        /* \"contracts/_SimpleWallet.sol\":4214:4237  SuspiciousUser[_sender] */\n      0xffffffffffffffffffffffffffffffffffffffff\n      and\n      0xffffffffffffffffffffffffffffffffffffffff\n      and\n      dup2\n      mstore\n      0x20\n      add\n      swap1\n      dup2\n      mstore\n      0x20\n      add\n      0x00\n      keccak256\n      0x00\n        /* \"contracts/_SimpleWallet.sol\":4214:4241  SuspiciousUser[_sender] +=1 */\n      dup3\n      dup3\n      sload\n      tag_102\n      swap2\n      swap1\n      tag_103\n      jump\t// in\n    tag_102:\n      swap3\n      pop\n      pop\n      dup2\n      swap1\n      sstore\n      pop\n        /* \"contracts/_SimpleWallet.sol\":4129:4249  function suspiciousActivity(address _sender) public {... */\n      pop\n      jump\t// out\n        /* \"contracts/_SimpleWallet.sol\":1531:1798  function transferToContract() external payable {... */\n    tag_32:\n        /* \"contracts/_SimpleWallet.sol\":1621:1639  transcationHistory */\n      0x00\n        /* \"contracts/_SimpleWallet.sol\":1645:1787  Transaction({... */\n      mload(0x40)\n      dup1\n      0x80\n      add\n      0x40\n      mstore\n      dup1\n        /* \"contracts/_SimpleWallet.sol\":1707:1711  this */\n      address\n        /* \"contracts/_SimpleWallet.sol\":1645:1787  Transaction({... */\n      0xffffffffffffffffffffffffffffffffffffffff\n      and\n      dup2\n      mstore\n      0x20\n      add\n        /* \"contracts/_SimpleWallet.sol\":1674:1684  msg.sender */\n      caller\n        /* \"contracts/_SimpleWallet.sol\":1645:1787  Transaction({... */\n      0xffffffffffffffffffffffffffffffffffffffff\n      and\n      dup2\n      mstore\n      0x20\n      add\n        /* \"contracts/_SimpleWallet.sol\":1734:1749  block.timestamp */\n      timestamp\n        /* \"contracts/_SimpleWallet.sol\":1645:1787  Transaction({... */\n      dup2\n      mstore\n      0x20\n      add\n        /* \"contracts/_SimpleWallet.sol\":1768:1777  msg.value */\n      callvalue\n        /* \"contracts/_SimpleWallet.sol\":1645:1787  Transaction({... */\n      dup2\n      mstore\n      pop\n        /* \"contracts/_SimpleWallet.sol\":1621:1788  transcationHistory.push(Transaction({... */\n      swap1\n      dup1\n      0x01\n      dup2\n      sload\n      add\n      dup1\n      dup3\n      sstore\n      dup1\n      swap2\n      pop\n      pop\n      0x01\n      swap1\n      sub\n      swap1\n      0x00\n      mstore\n      keccak256(0x00, 0x20)\n      swap1\n      0x04\n      mul\n      add\n      0x00\n      swap1\n      swap2\n      swap1\n      swap2\n      swap1\n      swap2\n      pop\n      0x00\n      dup3\n      add\n      mload\n      dup2\n      0x00\n      add\n      exp(0x0100, 0x00)\n      dup2\n      sload\n      dup2\n      0xffffffffffffffffffffffffffffffffffffffff\n      mul\n      not\n      and\n      swap1\n      dup4\n      0xffffffffffffffffffffffffffffffffffffffff\n      and\n      mul\n      or\n      swap1\n      sstore\n      pop\n      0x20\n      dup3\n      add\n      mload\n      dup2\n      0x01\n      add\n      exp(0x0100, 0x00)\n      dup2\n      sload\n      dup2\n      0xffffffffffffffffffffffffffffffffffffffff\n      mul\n      not\n      and\n      swap1\n      dup4\n      0xffffffffffffffffffffffffffffffffffffffff\n      and\n      mul\n      or\n      swap1\n      sstore\n      pop\n      0x40\n      dup3\n      add\n      mload\n      dup2\n      0x02\n      add\n      sstore\n      0x60\n      dup3\n      add\n      mload\n      dup2\n      0x03\n      add\n      sstore\n      pop\n      pop\n        /* \"contracts/_SimpleWallet.sol\":1531:1798  function transferToContract() external payable {... */\n      jump\t// out\n        /* \"contracts/_SimpleWallet.sol\":1806:2401  function transferToUserViaContract(address payable _to, uint _weiAmount) external onlyOwner {... */\n    tag_37:\n        /* \"contracts/_SimpleWallet.sol\":844:854  msg.sender */\n      caller\n        /* \"contracts/_SimpleWallet.sol\":834:854  owner !=  msg.sender */\n      0xffffffffffffffffffffffffffffffffffffffff\n      and\n        /* \"contracts/_SimpleWallet.sol\":834:839  owner */\n      0x01\n      0x00\n      swap1\n      sload\n      swap1\n      0x0100\n      exp\n      swap1\n      div\n      0xffffffffffffffffffffffffffffffffffffffff\n      and\n        /* \"contracts/_SimpleWallet.sol\":834:854  owner !=  msg.sender */\n      0xffffffffffffffffffffffffffffffffffffffff\n      and\n      eq\n        /* \"contracts/_SimpleWallet.sol\":831:916  if(owner !=  msg.sender) revert NotAuthorized(\"access desmissed ! you are not Owner\") */\n      tag_107\n      jumpi\n        /* \"contracts/_SimpleWallet.sol\":863:916  NotAuthorized(\"access desmissed ! you are not Owner\") */\n      mload(0x40)\n      0xeb1cd1d100000000000000000000000000000000000000000000000000000000\n      dup2\n      mstore\n      0x04\n      add\n      tag_108\n      swap1\n      tag_109\n      jump\t// in\n    tag_108:\n      mload(0x40)\n      dup1\n      swap2\n      sub\n      swap1\n      revert\n        /* \"contracts/_SimpleWallet.sol\":831:916  if(owner !=  msg.sender) revert NotAuthorized(\"access desmissed ! you are not Owner\") */\n    tag_107:\n        /* \"contracts/_SimpleWallet.sol\":1961:1971  _weiAmount */\n      dup1\n        /* \"contracts/_SimpleWallet.sol\":1936:1957  address(this).balance */\n      selfbalance\n        /* \"contracts/_SimpleWallet.sol\":1936:1971  address(this).balance >= _weiAmount */\n      lt\n      iszero\n        /* \"contracts/_SimpleWallet.sol\":1928:1998  require(address(this).balance >= _weiAmount , \"unsufficenet balance!\") */\n      tag_111\n      jumpi\n      mload(0x40)\n      0x08c379a000000000000000000000000000000000000000000000000000000000\n      dup2\n      mstore\n      0x04\n      add\n      tag_112\n      swap1\n      tag_113\n      jump\t// in\n    tag_112:\n      mload(0x40)\n      dup1\n      swap2\n      sub\n      swap1\n      revert\n    tag_111:\n        /* \"contracts/_SimpleWallet.sol\":2068:2069  0 */\n      0x00\n        /* \"contracts/_SimpleWallet.sol\":2053:2070  _to != address(0) */\n      0xffffffffffffffffffffffffffffffffffffffff\n      and\n        /* \"contracts/_SimpleWallet.sol\":2053:2056  _to */\n      dup3\n        /* \"contracts/_SimpleWallet.sol\":2053:2070  _to != address(0) */\n      0xffffffffffffffffffffffffffffffffffffffff\n      and\n      sub\n        /* \"contracts/_SimpleWallet.sol\":2045:2106  require(_to != address(0), \"Address is invalid check onces!\") */\n      tag_114\n      jumpi\n      mload(0x40)\n      0x08c379a000000000000000000000000000000000000000000000000000000000\n      dup2\n      mstore\n      0x04\n      add\n      tag_115\n      swap1\n      tag_116\n      jump\t// in\n    tag_115:\n      mload(0x40)\n      dup1\n      swap2\n      sub\n      swap1\n      revert\n    tag_114:\n        /* \"contracts/_SimpleWallet.sol\":2163:2188  Transfer(_to, _weiAmount) */\n      0x69ca02dd4edd7bf0a4abb9ed3b7af3f14778db5d61921c7dc7cd545266326de2\n        /* \"contracts/_SimpleWallet.sol\":2172:2175  _to */\n      dup3\n        /* \"contracts/_SimpleWallet.sol\":2177:2187  _weiAmount */\n      dup3\n        /* \"contracts/_SimpleWallet.sol\":2163:2188  Transfer(_to, _weiAmount) */\n      mload(0x40)\n      tag_117\n      swap3\n      swap2\n      swap1\n      tag_118\n      jump\t// in\n    tag_117:\n      mload(0x40)\n      dup1\n      swap2\n      sub\n      swap1\n      log1\n        /* \"contracts/_SimpleWallet.sol\":2201:2219  transcationHistory */\n      0x00\n        /* \"contracts/_SimpleWallet.sol\":2225:2358  Transaction({... */\n      mload(0x40)\n      dup1\n      0x80\n      add\n      0x40\n      mstore\n      dup1\n        /* \"contracts/_SimpleWallet.sol\":2279:2282  _to */\n      dup5\n        /* \"contracts/_SimpleWallet.sol\":2225:2358  Transaction({... */\n      0xffffffffffffffffffffffffffffffffffffffff\n      and\n      dup2\n      mstore\n      0x20\n      add\n        /* \"contracts/_SimpleWallet.sol\":2254:2264  msg.sender */\n      caller\n        /* \"contracts/_SimpleWallet.sol\":2225:2358  Transaction({... */\n      0xffffffffffffffffffffffffffffffffffffffff\n      and\n      dup2\n      mstore\n      0x20\n      add\n        /* \"contracts/_SimpleWallet.sol\":2304:2319  block.timestamp */\n      timestamp\n        /* \"contracts/_SimpleWallet.sol\":2225:2358  Transaction({... */\n      dup2\n      mstore\n      0x20\n      add\n        /* \"contracts/_SimpleWallet.sol\":2338:2348  _weiAmount */\n      dup4\n        /* \"contracts/_SimpleWallet.sol\":2225:2358  Transaction({... */\n      dup2\n      mstore\n      pop\n        /* \"contracts/_SimpleWallet.sol\":2201:2359  transcationHistory.push(Transaction({... */\n      swap1\n      dup1\n      0x01\n      dup2\n      sload\n      add\n      dup1\n      dup3\n      sstore\n      dup1\n      swap2\n      pop\n      pop\n      0x01\n      swap1\n      sub\n      swap1\n      0x00\n      mstore\n      keccak256(0x00, 0x20)\n      swap1\n      0x04\n      mul\n      add\n      0x00\n      swap1\n      swap2\n      swap1\n      swap2\n      swap1\n      swap2\n      pop\n      0x00\n      dup3\n      add\n      mload\n      dup2\n      0x00\n      add\n      exp(0x0100, 0x00)\n      dup2\n      sload\n      dup2\n      0xffffffffffffffffffffffffffffffffffffffff\n      mul\n      not\n      and\n      swap1\n      dup4\n      0xffffffffffffffffffffffffffffffffffffffff\n      and\n      mul\n      or\n      swap1\n      sstore\n      pop\n      0x20\n      dup3\n      add\n      mload\n      dup2\n      0x01\n      add\n      exp(0x0100, 0x00)\n      dup2\n      sload\n      dup2\n      0xffffffffffffffffffffffffffffffffffffffff\n      mul\n      not\n      and\n      swap1\n      dup4\n      0xffffffffffffffffffffffffffffffffffffffff\n      and\n      mul\n      or\n      swap1\n      sstore\n      pop\n      0x40\n      dup3\n      add\n      mload\n      dup2\n      0x02\n      add\n      sstore\n      0x60\n      dup3\n      add\n      mload\n      dup2\n      0x03\n      add\n      sstore\n      pop\n      pop\n        /* \"contracts/_SimpleWallet.sol\":2367:2370  _to */\n      dup2\n        /* \"contracts/_SimpleWallet.sol\":2367:2379  _to.transfer */\n      0xffffffffffffffffffffffffffffffffffffffff\n      and\n        /* \"contracts/_SimpleWallet.sol\":2367:2391  _to.transfer(_weiAmount) */\n      0x08fc\n        /* \"contracts/_SimpleWallet.sol\":2380:2390  _weiAmount */\n      dup3\n        /* \"contracts/_SimpleWallet.sol\":2367:2391  _to.transfer(_weiAmount) */\n      swap1\n      dup2\n      iszero\n      mul\n      swap1\n      mload(0x40)\n      0x00\n      mload(0x40)\n      dup1\n      dup4\n      sub\n      dup2\n      dup6\n      dup9\n      dup9\n      call\n      swap4\n      pop\n      pop\n      pop\n      pop\n      iszero\n      dup1\n      iszero\n      tag_121\n      jumpi\n      returndatacopy(0x00, 0x00, returndatasize)\n      revert(0x00, returndatasize)\n    tag_121:\n      pop\n        /* \"contracts/_SimpleWallet.sol\":1806:2401  function transferToUserViaContract(address payable _to, uint _weiAmount) external onlyOwner {... */\n      pop\n      pop\n      jump\t// out\n        /* \"contracts/_SimpleWallet.sol\":3936:4032  function getOwnerBalanceInWei() external  view returns(uint){... */\n    tag_40:\n        /* \"contracts/_SimpleWallet.sol\":3991:3995  uint */\n      0x00\n        /* \"contracts/_SimpleWallet.sol\":4011:4016  owner */\n      0x01\n      0x00\n      swap1\n      sload\n      swap1\n      0x0100\n      exp\n      swap1\n      div\n      0xffffffffffffffffffffffffffffffffffffffff\n      and\n        /* \"contracts/_SimpleWallet.sol\":4011:4024  owner.balance */\n      0xffffffffffffffffffffffffffffffffffffffff\n      and\n      balance\n        /* \"contracts/_SimpleWallet.sol\":4004:4024  return owner.balance */\n      swap1\n      pop\n        /* \"contracts/_SimpleWallet.sol\":3936:4032  function getOwnerBalanceInWei() external  view returns(uint){... */\n      swap1\n      jump\t// out\n        /* \"contracts/_SimpleWallet.sol\":3002:3682  function transferToUserViaMsgValue(address payable  _to) external payable getSuspiciousUser(msg.sender){... */\n    tag_46:\n        /* \"contracts/_SimpleWallet.sol\":3094:3104  msg.sender */\n      caller\n        /* \"contracts/_SimpleWallet.sol\":1037:1038  4 */\n      0x04\n        /* \"contracts/_SimpleWallet.sol\":1012:1026  SuspiciousUser */\n      0x06\n        /* \"contracts/_SimpleWallet.sol\":1012:1035  SuspiciousUser[_sender] */\n      0x00\n        /* \"contracts/_SimpleWallet.sol\":1027:1034  _sender */\n      dup4\n        /* \"contracts/_SimpleWallet.sol\":1012:1035  SuspiciousUser[_sender] */\n      0xffffffffffffffffffffffffffffffffffffffff\n      and\n      0xffffffffffffffffffffffffffffffffffffffff\n      and\n      dup2\n      mstore\n      0x20\n      add\n      swap1\n      dup2\n      mstore\n      0x20\n      add\n      0x00\n      keccak256\n      sload\n        /* \"contracts/_SimpleWallet.sol\":1012:1038  SuspiciousUser[_sender] <4 */\n      lt\n        /* \"contracts/_SimpleWallet.sol\":1004:1089  require(SuspiciousUser[_sender] <4  , \"Activity found suspicious  , block for 1 day\") */\n      tag_124\n      jumpi\n      mload(0x40)\n      0x08c379a000000000000000000000000000000000000000000000000000000000\n      dup2\n      mstore\n      0x04\n      add\n      tag_125\n      swap1\n      tag_126\n      jump\t// in\n    tag_125:\n      mload(0x40)\n      dup1\n      swap2\n      sub\n      swap1\n      revert\n    tag_124:\n        /* \"contracts/_SimpleWallet.sol\":3162:3183  address(this).balance */\n      selfbalance\n        /* \"contracts/_SimpleWallet.sol\":3156:3159  old */\n      0x02\n        /* \"contracts/_SimpleWallet.sol\":3156:3183  old = address(this).balance */\n      dup2\n      swap1\n      sstore\n      pop\n        /* \"contracts/_SimpleWallet.sol\":3314:3323  msg.value */\n      callvalue\n        /* \"contracts/_SimpleWallet.sol\":3289:3310  address(this).balance */\n      selfbalance\n        /* \"contracts/_SimpleWallet.sol\":3289:3323  address(this).balance >= msg.value */\n      lt\n      iszero\n        /* \"contracts/_SimpleWallet.sol\":3281:3362  require(address(this).balance >= msg.value , \" unsufficent balance => contrack!\") */\n      tag_128\n      jumpi\n      mload(0x40)\n      0x08c379a000000000000000000000000000000000000000000000000000000000\n      dup2\n      mstore\n      0x04\n      add\n      tag_129\n      swap1\n      tag_130\n      jump\t// in\n    tag_129:\n      mload(0x40)\n      dup1\n      swap2\n      sub\n      swap1\n      revert\n    tag_128:\n        /* \"contracts/_SimpleWallet.sol\":3399:3408  msg.value */\n      callvalue\n        /* \"contracts/_SimpleWallet.sol\":3377:3387  msg.sender */\n      caller\n        /* \"contracts/_SimpleWallet.sol\":3377:3395  msg.sender.balance */\n      0xffffffffffffffffffffffffffffffffffffffff\n      and\n      balance\n        /* \"contracts/_SimpleWallet.sol\":3377:3408  msg.sender.balance >= msg.value */\n      lt\n      iszero\n        /* \"contracts/_SimpleWallet.sol\":3369:3443  require(msg.sender.balance >= msg.value , \" unsufficent balance => user!\") */\n      tag_131\n      jumpi\n      mload(0x40)\n      0x08c379a000000000000000000000000000000000000000000000000000000000\n      dup2\n      mstore\n      0x04\n      add\n      tag_132\n      swap1\n      tag_133\n      jump\t// in\n    tag_132:\n      mload(0x40)\n      dup1\n      swap2\n      sub\n      swap1\n      revert\n    tag_131:\n        /* \"contracts/_SimpleWallet.sol\":3503:3506  _to */\n      dup2\n        /* \"contracts/_SimpleWallet.sol\":3503:3515  _to.transfer */\n      0xffffffffffffffffffffffffffffffffffffffff\n      and\n        /* \"contracts/_SimpleWallet.sol\":3503:3526  _to.transfer(msg.value) */\n      0x08fc\n        /* \"contracts/_SimpleWallet.sol\":3516:3525  msg.value */\n      callvalue\n        /* \"contracts/_SimpleWallet.sol\":3503:3526  _to.transfer(msg.value) */\n      swap1\n      dup2\n      iszero\n      mul\n      swap1\n      mload(0x40)\n      0x00\n      mload(0x40)\n      dup1\n      dup4\n      sub\n      dup2\n      dup6\n      dup9\n      dup9\n      call\n      swap4\n      pop\n      pop\n      pop\n      pop\n      iszero\n      dup1\n      iszero\n      tag_135\n      jumpi\n      returndatacopy(0x00, 0x00, returndatasize)\n      revert(0x00, returndatasize)\n    tag_135:\n      pop\n        /* \"contracts/_SimpleWallet.sol\":3543:3564  address(this).balance */\n      selfbalance\n        /* \"contracts/_SimpleWallet.sol\":3534:3540  newval */\n      0x03\n        /* \"contracts/_SimpleWallet.sol\":3534:3564  newval = address(this).balance */\n      dup2\n      swap1\n      sstore\n      pop\n        /* \"contracts/_SimpleWallet.sol\":3002:3682  function transferToUserViaMsgValue(address payable  _to) external payable getSuspiciousUser(msg.sender){... */\n      pop\n      pop\n      jump\t// out\n        /* \"contracts/_SimpleWallet.sol\":4574:4760  function emergencyWithdrawl() external {... */\n    tag_49:\n        /* \"contracts/_SimpleWallet.sol\":4638:4642  true */\n      0x01\n        /* \"contracts/_SimpleWallet.sol\":4630:4642  stop == true */\n      iszero\n      iszero\n        /* \"contracts/_SimpleWallet.sol\":4630:4634  stop */\n      0x05\n      0x00\n      swap1\n      sload\n      swap1\n      0x0100\n      exp\n      swap1\n      div\n      0xff\n      and\n        /* \"contracts/_SimpleWallet.sol\":4630:4642  stop == true */\n      iszero\n      iszero\n      eq\n        /* \"contracts/_SimpleWallet.sol\":4622:4669  require(stop == true , \"emergency not defind!\") */\n      tag_137\n      jumpi\n      mload(0x40)\n      0x08c379a000000000000000000000000000000000000000000000000000000000\n      dup2\n      mstore\n      0x04\n      add\n      tag_138\n      swap1\n      tag_139\n      jump\t// in\n    tag_138:\n      mload(0x40)\n      dup1\n      swap2\n      sub\n      swap1\n      revert\n    tag_137:\n        /* \"contracts/_SimpleWallet.sol\":4714:4719  owner */\n      0x01\n      0x00\n      swap1\n      sload\n      swap1\n      0x0100\n      exp\n      swap1\n      div\n      0xffffffffffffffffffffffffffffffffffffffff\n      and\n        /* \"contracts/_SimpleWallet.sol\":4705:4729  payable (owner).transfer */\n      0xffffffffffffffffffffffffffffffffffffffff\n      and\n        /* \"contracts/_SimpleWallet.sol\":4705:4752  payable (owner).transfer(address(this).balance) */\n      0x08fc\n        /* \"contracts/_SimpleWallet.sol\":4730:4751  address(this).balance */\n      selfbalance\n        /* \"contracts/_SimpleWallet.sol\":4705:4752  payable (owner).transfer(address(this).balance) */\n      swap1\n      dup2\n      iszero\n      mul\n      swap1\n      mload(0x40)\n      0x00\n      mload(0x40)\n      dup1\n      dup4\n      sub\n      dup2\n      dup6\n      dup9\n      dup9\n      call\n      swap4\n      pop\n      pop\n      pop\n      pop\n      iszero\n      dup1\n      iszero\n      tag_141\n      jumpi\n      returndatacopy(0x00, 0x00, returndatasize)\n      revert(0x00, returndatasize)\n    tag_141:\n      pop\n        /* \"contracts/_SimpleWallet.sol\":4574:4760  function emergencyWithdrawl() external {... */\n      jump\t// out\n        /* \"contracts/_SimpleWallet.sol\":409:449  Transaction[] public  transcationHistory */\n    tag_54:\n      0x00\n      dup2\n      dup2\n      sload\n      dup2\n      lt\n      tag_142\n      jumpi\n      0x00\n      dup1\n      revert\n    tag_142:\n      swap1\n      0x00\n      mstore\n      keccak256(0x00, 0x20)\n      swap1\n      0x04\n      mul\n      add\n      0x00\n      swap2\n      pop\n      swap1\n      pop\n      dup1\n      0x00\n      add\n      0x00\n      swap1\n      sload\n      swap1\n      0x0100\n      exp\n      swap1\n      div\n      0xffffffffffffffffffffffffffffffffffffffff\n      and\n      swap1\n      dup1\n      0x01\n      add\n      0x00\n      swap1\n      sload\n      swap1\n      0x0100\n      exp\n      swap1\n      div\n      0xffffffffffffffffffffffffffffffffffffffff\n      and\n      swap1\n      dup1\n      0x02\n      add\n      sload\n      swap1\n      dup1\n      0x03\n      add\n      sload\n      swap1\n      pop\n      dup5\n      jump\t// out\n        /* \"contracts/_SimpleWallet.sol\":464:484  address public owner */\n    tag_59:\n      0x01\n      0x00\n      swap1\n      sload\n      swap1\n      0x0100\n      exp\n      swap1\n      div\n      0xffffffffffffffffffffffffffffffffffffffff\n      and\n      dup2\n      jump\t// out\n        /* \"contracts/_SimpleWallet.sol\":1234:1305  function toggleStop() external onlyOwner {... */\n    tag_64:\n        /* \"contracts/_SimpleWallet.sol\":844:854  msg.sender */\n      caller\n        /* \"contracts/_SimpleWallet.sol\":834:854  owner !=  msg.sender */\n      0xffffffffffffffffffffffffffffffffffffffff\n      and\n        /* \"contracts/_SimpleWallet.sol\":834:839  owner */\n      0x01\n      0x00\n      swap1\n      sload\n      swap1\n      0x0100\n      exp\n      swap1\n      div\n      0xffffffffffffffffffffffffffffffffffffffff\n      and\n        /* \"contracts/_SimpleWallet.sol\":834:854  owner !=  msg.sender */\n      0xffffffffffffffffffffffffffffffffffffffff\n      and\n      eq\n        /* \"contracts/_SimpleWallet.sol\":831:916  if(owner !=  msg.sender) revert NotAuthorized(\"access desmissed ! you are not Owner\") */\n      tag_145\n      jumpi\n        /* \"contracts/_SimpleWallet.sol\":863:916  NotAuthorized(\"access desmissed ! you are not Owner\") */\n      mload(0x40)\n      0xeb1cd1d100000000000000000000000000000000000000000000000000000000\n      dup2\n      mstore\n      0x04\n      add\n      tag_146\n      swap1\n      tag_109\n      jump\t// in\n    tag_146:\n      mload(0x40)\n      dup1\n      swap2\n      sub\n      swap1\n      revert\n        /* \"contracts/_SimpleWallet.sol\":831:916  if(owner !=  msg.sender) revert NotAuthorized(\"access desmissed ! you are not Owner\") */\n    tag_145:\n        /* \"contracts/_SimpleWallet.sol\":1293:1297  stop */\n      0x05\n      0x00\n      swap1\n      sload\n      swap1\n      0x0100\n      exp\n      swap1\n      div\n      0xff\n      and\n        /* \"contracts/_SimpleWallet.sol\":1292:1297  !stop */\n      iszero\n        /* \"contracts/_SimpleWallet.sol\":1285:1289  stop */\n      0x05\n      0x00\n        /* \"contracts/_SimpleWallet.sol\":1285:1297  stop = !stop */\n      0x0100\n      exp\n      dup2\n      sload\n      dup2\n      0xff\n      mul\n      not\n      and\n      swap1\n      dup4\n      iszero\n      iszero\n      mul\n      or\n      swap1\n      sstore\n      pop\n        /* \"contracts/_SimpleWallet.sol\":1234:1305  function toggleStop() external onlyOwner {... */\n      jump\t// out\n        /* \"contracts/_SimpleWallet.sol\":513:531  uint public newval */\n    tag_67:\n      sload(0x03)\n      dup2\n      jump\t// out\n        /* \"contracts/_SimpleWallet.sol\":2409:2786  function withdrawFromContract(uint _weiAmount) external onlyOwner {... */\n    tag_72:\n        /* \"contracts/_SimpleWallet.sol\":844:854  msg.sender */\n      caller\n        /* \"contracts/_SimpleWallet.sol\":834:854  owner !=  msg.sender */\n      0xffffffffffffffffffffffffffffffffffffffff\n      and\n        /* \"contracts/_SimpleWallet.sol\":834:839  owner */\n      0x01\n      0x00\n      swap1\n      sload\n      swap1\n      0x0100\n      exp\n      swap1\n      div\n      0xffffffffffffffffffffffffffffffffffffffff\n      and\n        /* \"contracts/_SimpleWallet.sol\":834:854  owner !=  msg.sender */\n      0xffffffffffffffffffffffffffffffffffffffff\n      and\n      eq\n        /* \"contracts/_SimpleWallet.sol\":831:916  if(owner !=  msg.sender) revert NotAuthorized(\"access desmissed ! you are not Owner\") */\n      tag_149\n      jumpi\n        /* \"contracts/_SimpleWallet.sol\":863:916  NotAuthorized(\"access desmissed ! you are not Owner\") */\n      mload(0x40)\n      0xeb1cd1d100000000000000000000000000000000000000000000000000000000\n      dup2\n      mstore\n      0x04\n      add\n      tag_150\n      swap1\n      tag_109\n      jump\t// in\n    tag_150:\n      mload(0x40)\n      dup1\n      swap2\n      sub\n      swap1\n      revert\n        /* \"contracts/_SimpleWallet.sol\":831:916  if(owner !=  msg.sender) revert NotAuthorized(\"access desmissed ! you are not Owner\") */\n    tag_149:\n        /* \"contracts/_SimpleWallet.sol\":2516:2526  _weiAmount */\n      dup1\n        /* \"contracts/_SimpleWallet.sol\":2491:2512  address(this).balance */\n      selfbalance\n        /* \"contracts/_SimpleWallet.sol\":2491:2526  address(this).balance >= _weiAmount */\n      lt\n      iszero\n        /* \"contracts/_SimpleWallet.sol\":2483:2553  require(address(this).balance >= _weiAmount , \"unsufficenet balance!\") */\n      tag_152\n      jumpi\n      mload(0x40)\n      0x08c379a000000000000000000000000000000000000000000000000000000000\n      dup2\n      mstore\n      0x04\n      add\n      tag_153\n      swap1\n      tag_113\n      jump\t// in\n    tag_153:\n      mload(0x40)\n      dup1\n      swap2\n      sub\n      swap1\n      revert\n    tag_152:\n        /* \"contracts/_SimpleWallet.sol\":2570:2580  msg.sender */\n      caller\n        /* \"contracts/_SimpleWallet.sol\":2562:2590  payable(msg.sender).transfer */\n      0xffffffffffffffffffffffffffffffffffffffff\n      and\n        /* \"contracts/_SimpleWallet.sol\":2562:2602  payable(msg.sender).transfer(_weiAmount) */\n      0x08fc\n        /* \"contracts/_SimpleWallet.sol\":2591:2601  _weiAmount */\n      dup3\n        /* \"contracts/_SimpleWallet.sol\":2562:2602  payable(msg.sender).transfer(_weiAmount) */\n      swap1\n      dup2\n      iszero\n      mul\n      swap1\n      mload(0x40)\n      0x00\n      mload(0x40)\n      dup1\n      dup4\n      sub\n      dup2\n      dup6\n      dup9\n      dup9\n      call\n      swap4\n      pop\n      pop\n      pop\n      pop\n      iszero\n      dup1\n      iszero\n      tag_155\n      jumpi\n      returndatacopy(0x00, 0x00, returndatasize)\n      revert(0x00, returndatasize)\n    tag_155:\n      pop\n        /* \"contracts/_SimpleWallet.sol\":2611:2629  transcationHistory */\n      0x00\n        /* \"contracts/_SimpleWallet.sol\":2635:2777  Transaction({... */\n      mload(0x40)\n      dup1\n      0x80\n      add\n      0x40\n      mstore\n      dup1\n        /* \"contracts/_SimpleWallet.sol\":2691:2701  msg.sender */\n      caller\n        /* \"contracts/_SimpleWallet.sol\":2635:2777  Transaction({... */\n      0xffffffffffffffffffffffffffffffffffffffff\n      and\n      dup2\n      mstore\n      0x20\n      add\n        /* \"contracts/_SimpleWallet.sol\":2672:2676  this */\n      address\n        /* \"contracts/_SimpleWallet.sol\":2635:2777  Transaction({... */\n      0xffffffffffffffffffffffffffffffffffffffff\n      and\n      dup2\n      mstore\n      0x20\n      add\n        /* \"contracts/_SimpleWallet.sol\":2723:2738  block.timestamp */\n      timestamp\n        /* \"contracts/_SimpleWallet.sol\":2635:2777  Transaction({... */\n      dup2\n      mstore\n      0x20\n      add\n        /* \"contracts/_SimpleWallet.sol\":2757:2767  _weiAmount */\n      dup4\n        /* \"contracts/_SimpleWallet.sol\":2635:2777  Transaction({... */\n      dup2\n      mstore\n      pop\n        /* \"contracts/_SimpleWallet.sol\":2611:2778  transcationHistory.push(Transaction({... */\n      swap1\n      dup1\n      0x01\n      dup2\n      sload\n      add\n      dup1\n      dup3\n      sstore\n      dup1\n      swap2\n      pop\n      pop\n      0x01\n      swap1\n      sub\n      swap1\n      0x00\n      mstore\n      keccak256(0x00, 0x20)\n      swap1\n      0x04\n      mul\n      add\n      0x00\n      swap1\n      swap2\n      swap1\n      swap2\n      swap1\n      swap2\n      pop\n      0x00\n      dup3\n      add\n      mload\n      dup2\n      0x00\n      add\n      exp(0x0100, 0x00)\n      dup2\n      sload\n      dup2\n      0xffffffffffffffffffffffffffffffffffffffff\n      mul\n      not\n      and\n      swap1\n      dup4\n      0xffffffffffffffffffffffffffffffffffffffff\n      and\n      mul\n      or\n      swap1\n      sstore\n      pop\n      0x20\n      dup3\n      add\n      mload\n      dup2\n      0x01\n      add\n      exp(0x0100, 0x00)\n      dup2\n      sload\n      dup2\n      0xffffffffffffffffffffffffffffffffffffffff\n      mul\n      not\n      and\n      swap1\n      dup4\n      0xffffffffffffffffffffffffffffffffffffffff\n      and\n      mul\n      or\n      swap1\n      sstore\n      pop\n      0x40\n      dup3\n      add\n      mload\n      dup2\n      0x02\n      add\n      sstore\n      0x60\n      dup3\n      add\n      mload\n      dup2\n      0x03\n      add\n      sstore\n      pop\n      pop\n        /* \"contracts/_SimpleWallet.sol\":2409:2786  function withdrawFromContract(uint _weiAmount) external onlyOwner {... */\n      pop\n      jump\t// out\n        /* \"contracts/_SimpleWallet.sol\":4445:4564  function getTransactionHistory() external view returns(Transaction[] memory){... */\n    tag_75:\n        /* \"contracts/_SimpleWallet.sol\":4500:4520  Transaction[] memory */\n      0x60\n        /* \"contracts/_SimpleWallet.sol\":4538:4556  transcationHistory */\n      0x00\n        /* \"contracts/_SimpleWallet.sol\":4530:4556  return  transcationHistory */\n      dup1\n      sload\n      dup1\n      0x20\n      mul\n      0x20\n      add\n      mload(0x40)\n      swap1\n      dup2\n      add\n      0x40\n      mstore\n      dup1\n      swap3\n      swap2\n      swap1\n      dup2\n      dup2\n      mstore\n      0x20\n      add\n      0x00\n      swap1\n    tag_158:\n      dup3\n      dup3\n      lt\n      iszero\n      tag_159\n      jumpi\n      dup4\n      dup3\n      swap1\n      0x00\n      mstore\n      keccak256(0x00, 0x20)\n      swap1\n      0x04\n      mul\n      add\n      mload(0x40)\n      dup1\n      0x80\n      add\n      0x40\n      mstore\n      swap1\n      dup2\n      0x00\n      dup3\n      add\n      0x00\n      swap1\n      sload\n      swap1\n      0x0100\n      exp\n      swap1\n      div\n      0xffffffffffffffffffffffffffffffffffffffff\n      and\n      0xffffffffffffffffffffffffffffffffffffffff\n      and\n      0xffffffffffffffffffffffffffffffffffffffff\n      and\n      dup2\n      mstore\n      0x20\n      add\n      0x01\n      dup3\n      add\n      0x00\n      swap1\n      sload\n      swap1\n      0x0100\n      exp\n      swap1\n      div\n      0xffffffffffffffffffffffffffffffffffffffff\n      and\n      0xffffffffffffffffffffffffffffffffffffffff\n      and\n      0xffffffffffffffffffffffffffffffffffffffff\n      and\n      dup2\n      mstore\n      0x20\n      add\n      0x02\n      dup3\n      add\n      sload\n      dup2\n      mstore\n      0x20\n      add\n      0x03\n      dup3\n      add\n      sload\n      dup2\n      mstore\n      pop\n      pop\n      dup2\n      mstore\n      0x20\n      add\n      swap1\n      0x01\n      add\n      swap1\n      jump(tag_158)\n    tag_159:\n      pop\n      pop\n      pop\n      pop\n      swap1\n      pop\n        /* \"contracts/_SimpleWallet.sol\":4445:4564  function getTransactionHistory() external view returns(Transaction[] memory){... */\n      swap1\n      jump\t// out\n        /* \"contracts/_SimpleWallet.sol\":491:506  uint public old */\n    tag_80:\n      sload(0x02)\n      dup2\n      jump\t// out\n        /* \"contracts/_SimpleWallet.sol\":2794:2956  function getContractBalanceInWei() external view returns (uint) {... */\n    tag_84:\n        /* \"contracts/_SimpleWallet.sol\":2852:2856  uint */\n      0x00\n        /* \"contracts/_SimpleWallet.sol\":2876:2897  address(this).balance */\n      selfbalance\n        /* \"contracts/_SimpleWallet.sol\":2868:2897  return  address(this).balance */\n      swap1\n      pop\n        /* \"contracts/_SimpleWallet.sol\":2794:2956  function getContractBalanceInWei() external view returns (uint) {... */\n      swap1\n      jump\t// out\n        /* \"contracts/_SimpleWallet.sol\":3731:3926  function receiveFromUser() external payable {... */\n    tag_91:\n        /* \"contracts/_SimpleWallet.sol\":3836:3837  0 */\n      0x00\n        /* \"contracts/_SimpleWallet.sol\":3824:3833  msg.value */\n      callvalue\n        /* \"contracts/_SimpleWallet.sol\":3824:3837  msg.value > 0 */\n      gt\n        /* \"contracts/_SimpleWallet.sol\":3816:3876  require(msg.value > 0 ,\"amounth must br grater than zero !\") */\n      tag_163\n      jumpi\n      mload(0x40)\n      0x08c379a000000000000000000000000000000000000000000000000000000000\n      dup2\n      mstore\n      0x04\n      add\n      tag_164\n      swap1\n      tag_165\n      jump\t// in\n    tag_164:\n      mload(0x40)\n      dup1\n      swap2\n      sub\n      swap1\n      revert\n    tag_163:\n        /* \"contracts/_SimpleWallet.sol\":3892:3897  owner */\n      0x01\n      0x00\n      swap1\n      sload\n      swap1\n      0x0100\n      exp\n      swap1\n      div\n      0xffffffffffffffffffffffffffffffffffffffff\n      and\n        /* \"contracts/_SimpleWallet.sol\":3884:3907  payable(owner).transfer */\n      0xffffffffffffffffffffffffffffffffffffffff\n      and\n        /* \"contracts/_SimpleWallet.sol\":3884:3918  payable(owner).transfer(msg.value) */\n      0x08fc\n        /* \"contracts/_SimpleWallet.sol\":3908:3917  msg.value */\n      callvalue\n        /* \"contracts/_SimpleWallet.sol\":3884:3918  payable(owner).transfer(msg.value) */\n      swap1\n      dup2\n      iszero\n      mul\n      swap1\n      mload(0x40)\n      0x00\n      mload(0x40)\n      dup1\n      dup4\n      sub\n      dup2\n      dup6\n      dup9\n      dup9\n      call\n      swap4\n      pop\n      pop\n      pop\n      pop\n      iszero\n      dup1\n      iszero\n      tag_167\n      jumpi\n      returndatacopy(0x00, 0x00, returndatasize)\n      revert(0x00, returndatasize)\n    tag_167:\n      pop\n        /* \"contracts/_SimpleWallet.sol\":3731:3926  function receiveFromUser() external payable {... */\n      jump\t// out\n        /* \"contracts/_SimpleWallet.sol\":538:560  string public  message */\n    tag_94:\n      0x04\n      dup1\n      sload\n      tag_168\n      swap1\n      tag_169\n      jump\t// in\n    tag_168:\n      dup1\n      0x1f\n      add\n      0x20\n      dup1\n      swap2\n      div\n      mul\n      0x20\n      add\n      mload(0x40)\n      swap1\n      dup2\n      add\n      0x40\n      mstore\n      dup1\n      swap3\n      swap2\n      swap1\n      dup2\n      dup2\n      mstore\n      0x20\n      add\n      dup3\n      dup1\n      sload\n      tag_170\n      swap1\n      tag_169\n      jump\t// in\n    tag_170:\n      dup1\n      iszero\n      tag_171\n      jumpi\n      dup1\n      0x1f\n      lt\n      tag_172\n      jumpi\n      0x0100\n      dup1\n      dup4\n      sload\n      div\n      mul\n      dup4\n      mstore\n      swap2\n      0x20\n      add\n      swap2\n      jump(tag_171)\n    tag_172:\n      dup3\n      add\n      swap2\n      swap1\n      0x00\n      mstore\n      keccak256(0x00, 0x20)\n      swap1\n    tag_173:\n      dup2\n      sload\n      dup2\n      mstore\n      swap1\n      0x01\n      add\n      swap1\n      0x20\n      add\n      dup1\n      dup4\n      gt\n      tag_173\n      jumpi\n      dup3\n      swap1\n      sub\n      0x1f\n      and\n      dup3\n      add\n      swap2\n    tag_171:\n      pop\n      pop\n      pop\n      pop\n      pop\n      dup2\n      jump\t// out\n        /* \"contracts/_SimpleWallet.sol\":1315:1483  function changOwner(address newOwner) public onlyOwner isEmergencyDeclared {... */\n    tag_100:\n        /* \"contracts/_SimpleWallet.sol\":844:854  msg.sender */\n      caller\n        /* \"contracts/_SimpleWallet.sol\":834:854  owner !=  msg.sender */\n      0xffffffffffffffffffffffffffffffffffffffff\n      and\n        /* \"contracts/_SimpleWallet.sol\":834:839  owner */\n      0x01\n      0x00\n      swap1\n      sload\n      swap1\n      0x0100\n      exp\n      swap1\n      div\n      0xffffffffffffffffffffffffffffffffffffffff\n      and\n        /* \"contracts/_SimpleWallet.sol\":834:854  owner !=  msg.sender */\n      0xffffffffffffffffffffffffffffffffffffffff\n      and\n      eq\n        /* \"contracts/_SimpleWallet.sol\":831:916  if(owner !=  msg.sender) revert NotAuthorized(\"access desmissed ! you are not Owner\") */\n      tag_175\n      jumpi\n        /* \"contracts/_SimpleWallet.sol\":863:916  NotAuthorized(\"access desmissed ! you are not Owner\") */\n      mload(0x40)\n      0xeb1cd1d100000000000000000000000000000000000000000000000000000000\n      dup2\n      mstore\n      0x04\n      add\n      tag_176\n      swap1\n      tag_109\n      jump\t// in\n    tag_176:\n      mload(0x40)\n      dup1\n      swap2\n      sub\n      swap1\n      revert\n        /* \"contracts/_SimpleWallet.sol\":831:916  if(owner !=  msg.sender) revert NotAuthorized(\"access desmissed ! you are not Owner\") */\n    tag_175:\n        /* \"contracts/_SimpleWallet.sol\":1175:1180  false */\n      0x00\n        /* \"contracts/_SimpleWallet.sol\":1167:1180  stop == false */\n      iszero\n      iszero\n        /* \"contracts/_SimpleWallet.sol\":1167:1171  stop */\n      0x05\n      0x00\n      swap1\n      sload\n      swap1\n      0x0100\n      exp\n      swap1\n      div\n      0xff\n      and\n        /* \"contracts/_SimpleWallet.sol\":1167:1180  stop == false */\n      iszero\n      iszero\n      eq\n        /* \"contracts/_SimpleWallet.sol\":1159:1205  require(stop == false , \"emergency delecred!\") */\n      tag_178\n      jumpi\n      mload(0x40)\n      0x08c379a000000000000000000000000000000000000000000000000000000000\n      dup2\n      mstore\n      0x04\n      add\n      tag_179\n      swap1\n      tag_180\n      jump\t// in\n    tag_179:\n      mload(0x40)\n      dup1\n      swap2\n      sub\n      swap1\n      revert\n    tag_178:\n        /* \"contracts/_SimpleWallet.sol\":1427:1428  0 */\n      0x00\n        /* \"contracts/_SimpleWallet.sol\":1407:1429  newOwner != address(0) */\n      0xffffffffffffffffffffffffffffffffffffffff\n      and\n        /* \"contracts/_SimpleWallet.sol\":1407:1415  newOwner */\n      dup2\n        /* \"contracts/_SimpleWallet.sol\":1407:1429  newOwner != address(0) */\n      0xffffffffffffffffffffffffffffffffffffffff\n      and\n      sub\n        /* \"contracts/_SimpleWallet.sol\":1399:1450  require(newOwner != address(0), \"Invalid address!\") */\n      tag_182\n      jumpi\n      mload(0x40)\n      0x08c379a000000000000000000000000000000000000000000000000000000000\n      dup2\n      mstore\n      0x04\n      add\n      tag_183\n      swap1\n      tag_184\n      jump\t// in\n    tag_183:\n      mload(0x40)\n      dup1\n      swap2\n      sub\n      swap1\n      revert\n    tag_182:\n        /* \"contracts/_SimpleWallet.sol\":1467:1475  newOwner */\n      dup1\n        /* \"contracts/_SimpleWallet.sol\":1459:1464  owner */\n      0x01\n      0x00\n        /* \"contracts/_SimpleWallet.sol\":1459:1475  owner = newOwner */\n      0x0100\n      exp\n      dup2\n      sload\n      dup2\n      0xffffffffffffffffffffffffffffffffffffffff\n      mul\n      not\n      and\n      swap1\n      dup4\n      0xffffffffffffffffffffffffffffffffffffffff\n      and\n      mul\n      or\n      swap1\n      sstore\n      pop\n        /* \"contracts/_SimpleWallet.sol\":1315:1483  function changOwner(address newOwner) public onlyOwner isEmergencyDeclared {... */\n      pop\n      jump\t// out\n        /* \"#utility.yul\":7:133   */\n    tag_185:\n        /* \"#utility.yul\":44:51   */\n      0x00\n        /* \"#utility.yul\":84:126   */\n      0xffffffffffffffffffffffffffffffffffffffff\n        /* \"#utility.yul\":77:82   */\n      dup3\n        /* \"#utility.yul\":73:127   */\n      and\n        /* \"#utility.yul\":62:127   */\n      swap1\n      pop\n        /* \"#utility.yul\":7:133   */\n      swap2\n      swap1\n      pop\n      jump\t// out\n        /* \"#utility.yul\":139:235   */\n    tag_186:\n        /* \"#utility.yul\":176:183   */\n      0x00\n        /* \"#utility.yul\":205:229   */\n      tag_244\n        /* \"#utility.yul\":223:228   */\n      dup3\n        /* \"#utility.yul\":205:229   */\n      tag_185\n      jump\t// in\n    tag_244:\n        /* \"#utility.yul\":194:229   */\n      swap1\n      pop\n        /* \"#utility.yul\":139:235   */\n      swap2\n      swap1\n      pop\n      jump\t// out\n        /* \"#utility.yul\":241:359   */\n    tag_187:\n        /* \"#utility.yul\":328:352   */\n      tag_246\n        /* \"#utility.yul\":346:351   */\n      dup2\n        /* \"#utility.yul\":328:352   */\n      tag_186\n      jump\t// in\n    tag_246:\n        /* \"#utility.yul\":323:326   */\n      dup3\n        /* \"#utility.yul\":316:353   */\n      mstore\n        /* \"#utility.yul\":241:359   */\n      pop\n      pop\n      jump\t// out\n        /* \"#utility.yul\":365:442   */\n    tag_188:\n        /* \"#utility.yul\":402:409   */\n      0x00\n        /* \"#utility.yul\":431:436   */\n      dup2\n        /* \"#utility.yul\":420:436   */\n      swap1\n      pop\n        /* \"#utility.yul\":365:442   */\n      swap2\n      swap1\n      pop\n      jump\t// out\n        /* \"#utility.yul\":448:566   */\n    tag_189:\n        /* \"#utility.yul\":535:559   */\n      tag_249\n        /* \"#utility.yul\":553:558   */\n      dup2\n        /* \"#utility.yul\":535:559   */\n      tag_188\n      jump\t// in\n    tag_249:\n        /* \"#utility.yul\":530:533   */\n      dup3\n        /* \"#utility.yul\":523:560   */\n      mstore\n        /* \"#utility.yul\":448:566   */\n      pop\n      pop\n      jump\t// out\n        /* \"#utility.yul\":572:904   */\n    tag_26:\n        /* \"#utility.yul\":693:697   */\n      0x00\n        /* \"#utility.yul\":731:733   */\n      0x40\n        /* \"#utility.yul\":720:729   */\n      dup3\n        /* \"#utility.yul\":716:734   */\n      add\n        /* \"#utility.yul\":708:734   */\n      swap1\n      pop\n        /* \"#utility.yul\":744:815   */\n      tag_251\n        /* \"#utility.yul\":812:813   */\n      0x00\n        /* \"#utility.yul\":801:810   */\n      dup4\n        /* \"#utility.yul\":797:814   */\n      add\n        /* \"#utility.yul\":788:794   */\n      dup6\n        /* \"#utility.yul\":744:815   */\n      tag_187\n      jump\t// in\n    tag_251:\n        /* \"#utility.yul\":825:897   */\n      tag_252\n        /* \"#utility.yul\":893:895   */\n      0x20\n        /* \"#utility.yul\":882:891   */\n      dup4\n        /* \"#utility.yul\":878:896   */\n      add\n        /* \"#utility.yul\":869:875   */\n      dup5\n        /* \"#utility.yul\":825:897   */\n      tag_189\n      jump\t// in\n    tag_252:\n        /* \"#utility.yul\":572:904   */\n      swap4\n      swap3\n      pop\n      pop\n      pop\n      jump\t// out\n        /* \"#utility.yul\":991:1108   */\n    tag_191:\n        /* \"#utility.yul\":1100:1101   */\n      0x00\n        /* \"#utility.yul\":1097:1098   */\n      0x00\n        /* \"#utility.yul\":1090:1102   */\n      revert\n        /* \"#utility.yul\":1237:1341   */\n    tag_193:\n        /* \"#utility.yul\":1282:1289   */\n      0x00\n        /* \"#utility.yul\":1311:1335   */\n      tag_257\n        /* \"#utility.yul\":1329:1334   */\n      dup3\n        /* \"#utility.yul\":1311:1335   */\n      tag_185\n      jump\t// in\n    tag_257:\n        /* \"#utility.yul\":1300:1335   */\n      swap1\n      pop\n        /* \"#utility.yul\":1237:1341   */\n      swap2\n      swap1\n      pop\n      jump\t// out\n        /* \"#utility.yul\":1347:1485   */\n    tag_194:\n        /* \"#utility.yul\":1428:1460   */\n      tag_259\n        /* \"#utility.yul\":1454:1459   */\n      dup2\n        /* \"#utility.yul\":1428:1460   */\n      tag_193\n      jump\t// in\n    tag_259:\n        /* \"#utility.yul\":1421:1426   */\n      dup2\n        /* \"#utility.yul\":1418:1461   */\n      eq\n        /* \"#utility.yul\":1408:1479   */\n      tag_260\n      jumpi\n        /* \"#utility.yul\":1475:1476   */\n      0x00\n        /* \"#utility.yul\":1472:1473   */\n      0x00\n        /* \"#utility.yul\":1465:1477   */\n      revert\n        /* \"#utility.yul\":1408:1479   */\n    tag_260:\n        /* \"#utility.yul\":1347:1485   */\n      pop\n      jump\t// out\n        /* \"#utility.yul\":1491:1646   */\n    tag_195:\n        /* \"#utility.yul\":1545:1550   */\n      0x00\n        /* \"#utility.yul\":1583:1589   */\n      dup2\n        /* \"#utility.yul\":1570:1590   */\n      calldataload\n        /* \"#utility.yul\":1561:1590   */\n      swap1\n      pop\n        /* \"#utility.yul\":1599:1640   */\n      tag_262\n        /* \"#utility.yul\":1634:1639   */\n      dup2\n        /* \"#utility.yul\":1599:1640   */\n      tag_194\n      jump\t// in\n    tag_262:\n        /* \"#utility.yul\":1491:1646   */\n      swap3\n      swap2\n      pop\n      pop\n      jump\t// out\n        /* \"#utility.yul\":1652:1774   */\n    tag_196:\n        /* \"#utility.yul\":1725:1749   */\n      tag_264\n        /* \"#utility.yul\":1743:1748   */\n      dup2\n        /* \"#utility.yul\":1725:1749   */\n      tag_188\n      jump\t// in\n    tag_264:\n        /* \"#utility.yul\":1718:1723   */\n      dup2\n        /* \"#utility.yul\":1715:1750   */\n      eq\n        /* \"#utility.yul\":1705:1768   */\n      tag_265\n      jumpi\n        /* \"#utility.yul\":1764:1765   */\n      0x00\n        /* \"#utility.yul\":1761:1762   */\n      0x00\n        /* \"#utility.yul\":1754:1766   */\n      revert\n        /* \"#utility.yul\":1705:1768   */\n    tag_265:\n        /* \"#utility.yul\":1652:1774   */\n      pop\n      jump\t// out\n        /* \"#utility.yul\":1780:1919   */\n    tag_197:\n        /* \"#utility.yul\":1826:1831   */\n      0x00\n        /* \"#utility.yul\":1864:1870   */\n      dup2\n        /* \"#utility.yul\":1851:1871   */\n      calldataload\n        /* \"#utility.yul\":1842:1871   */\n      swap1\n      pop\n        /* \"#utility.yul\":1880:1913   */\n      tag_267\n        /* \"#utility.yul\":1907:1912   */\n      dup2\n        /* \"#utility.yul\":1880:1913   */\n      tag_196\n      jump\t// in\n    tag_267:\n        /* \"#utility.yul\":1780:1919   */\n      swap3\n      swap2\n      pop\n      pop\n      jump\t// out\n        /* \"#utility.yul\":1925:2415   */\n    tag_36:\n        /* \"#utility.yul\":2001:2007   */\n      0x00\n        /* \"#utility.yul\":2009:2015   */\n      0x00\n        /* \"#utility.yul\":2058:2060   */\n      0x40\n        /* \"#utility.yul\":2046:2055   */\n      dup4\n        /* \"#utility.yul\":2037:2044   */\n      dup6\n        /* \"#utility.yul\":2033:2056   */\n      sub\n        /* \"#utility.yul\":2029:2061   */\n      slt\n        /* \"#utility.yul\":2026:2145   */\n      iszero\n      tag_269\n      jumpi\n        /* \"#utility.yul\":2064:2143   */\n      tag_270\n      tag_191\n      jump\t// in\n    tag_270:\n        /* \"#utility.yul\":2026:2145   */\n    tag_269:\n        /* \"#utility.yul\":2184:2185   */\n      0x00\n        /* \"#utility.yul\":2209:2270   */\n      tag_271\n        /* \"#utility.yul\":2262:2269   */\n      dup6\n        /* \"#utility.yul\":2253:2259   */\n      dup3\n        /* \"#utility.yul\":2242:2251   */\n      dup7\n        /* \"#utility.yul\":2238:2260   */\n      add\n        /* \"#utility.yul\":2209:2270   */\n      tag_195\n      jump\t// in\n    tag_271:\n        /* \"#utility.yul\":2199:2270   */\n      swap3\n      pop\n        /* \"#utility.yul\":2155:2280   */\n      pop\n        /* \"#utility.yul\":2319:2321   */\n      0x20\n        /* \"#utility.yul\":2345:2398   */\n      tag_272\n        /* \"#utility.yul\":2390:2397   */\n      dup6\n        /* \"#utility.yul\":2381:2387   */\n      dup3\n        /* \"#utility.yul\":2370:2379   */\n      dup7\n        /* \"#utility.yul\":2366:2388   */\n      add\n        /* \"#utility.yul\":2345:2398   */\n      tag_197\n      jump\t// in\n    tag_272:\n        /* \"#utility.yul\":2335:2398   */\n      swap2\n      pop\n        /* \"#utility.yul\":2290:2408   */\n      pop\n        /* \"#utility.yul\":1925:2415   */\n      swap3\n      pop\n      swap3\n      swap1\n      pop\n      jump\t// out\n        /* \"#utility.yul\":2421:2643   */\n    tag_42:\n        /* \"#utility.yul\":2514:2518   */\n      0x00\n        /* \"#utility.yul\":2552:2554   */\n      0x20\n        /* \"#utility.yul\":2541:2550   */\n      dup3\n        /* \"#utility.yul\":2537:2555   */\n      add\n        /* \"#utility.yul\":2529:2555   */\n      swap1\n      pop\n        /* \"#utility.yul\":2565:2636   */\n      tag_274\n        /* \"#utility.yul\":2633:2634   */\n      0x00\n        /* \"#utility.yul\":2622:2631   */\n      dup4\n        /* \"#utility.yul\":2618:2635   */\n      add\n        /* \"#utility.yul\":2609:2615   */\n      dup5\n        /* \"#utility.yul\":2565:2636   */\n      tag_189\n      jump\t// in\n    tag_274:\n        /* \"#utility.yul\":2421:2643   */\n      swap3\n      swap2\n      pop\n      pop\n      jump\t// out\n        /* \"#utility.yul\":2649:2994   */\n    tag_45:\n        /* \"#utility.yul\":2716:2722   */\n      0x00\n        /* \"#utility.yul\":2765:2767   */\n      0x20\n        /* \"#utility.yul\":2753:2762   */\n      dup3\n        /* \"#utility.yul\":2744:2751   */\n      dup5\n        /* \"#utility.yul\":2740:2763   */\n      sub\n        /* \"#utility.yul\":2736:2768   */\n      slt\n        /* \"#utility.yul\":2733:2852   */\n      iszero\n      tag_276\n      jumpi\n        /* \"#utility.yul\":2771:2850   */\n      tag_277\n      tag_191\n      jump\t// in\n    tag_277:\n        /* \"#utility.yul\":2733:2852   */\n    tag_276:\n        /* \"#utility.yul\":2891:2892   */\n      0x00\n        /* \"#utility.yul\":2916:2977   */\n      tag_278\n        /* \"#utility.yul\":2969:2976   */\n      dup5\n        /* \"#utility.yul\":2960:2966   */\n      dup3\n        /* \"#utility.yul\":2949:2958   */\n      dup6\n        /* \"#utility.yul\":2945:2967   */\n      add\n        /* \"#utility.yul\":2916:2977   */\n      tag_195\n      jump\t// in\n    tag_278:\n        /* \"#utility.yul\":2906:2977   */\n      swap2\n      pop\n        /* \"#utility.yul\":2862:2987   */\n      pop\n        /* \"#utility.yul\":2649:2994   */\n      swap3\n      swap2\n      pop\n      pop\n      jump\t// out\n        /* \"#utility.yul\":3000:3329   */\n    tag_53:\n        /* \"#utility.yul\":3059:3065   */\n      0x00\n        /* \"#utility.yul\":3108:3110   */\n      0x20\n        /* \"#utility.yul\":3096:3105   */\n      dup3\n        /* \"#utility.yul\":3087:3094   */\n      dup5\n        /* \"#utility.yul\":3083:3106   */\n      sub\n        /* \"#utility.yul\":3079:3111   */\n      slt\n        /* \"#utility.yul\":3076:3195   */\n      iszero\n      tag_280\n      jumpi\n        /* \"#utility.yul\":3114:3193   */\n      tag_281\n      tag_191\n      jump\t// in\n    tag_281:\n        /* \"#utility.yul\":3076:3195   */\n    tag_280:\n        /* \"#utility.yul\":3234:3235   */\n      0x00\n        /* \"#utility.yul\":3259:3312   */\n      tag_282\n        /* \"#utility.yul\":3304:3311   */\n      dup5\n        /* \"#utility.yul\":3295:3301   */\n      dup3\n        /* \"#utility.yul\":3284:3293   */\n      dup6\n        /* \"#utility.yul\":3280:3302   */\n      add\n        /* \"#utility.yul\":3259:3312   */\n      tag_197\n      jump\t// in\n    tag_282:\n        /* \"#utility.yul\":3249:3312   */\n      swap2\n      pop\n        /* \"#utility.yul\":3205:3322   */\n      pop\n        /* \"#utility.yul\":3000:3329   */\n      swap3\n      swap2\n      pop\n      pop\n      jump\t// out\n        /* \"#utility.yul\":3335:3888   */\n    tag_56:\n        /* \"#utility.yul\":3512:3516   */\n      0x00\n        /* \"#utility.yul\":3550:3553   */\n      0x80\n        /* \"#utility.yul\":3539:3548   */\n      dup3\n        /* \"#utility.yul\":3535:3554   */\n      add\n        /* \"#utility.yul\":3527:3554   */\n      swap1\n      pop\n        /* \"#utility.yul\":3564:3635   */\n      tag_284\n        /* \"#utility.yul\":3632:3633   */\n      0x00\n        /* \"#utility.yul\":3621:3630   */\n      dup4\n        /* \"#utility.yul\":3617:3634   */\n      add\n        /* \"#utility.yul\":3608:3614   */\n      dup8\n        /* \"#utility.yul\":3564:3635   */\n      tag_187\n      jump\t// in\n    tag_284:\n        /* \"#utility.yul\":3645:3717   */\n      tag_285\n        /* \"#utility.yul\":3713:3715   */\n      0x20\n        /* \"#utility.yul\":3702:3711   */\n      dup4\n        /* \"#utility.yul\":3698:3716   */\n      add\n        /* \"#utility.yul\":3689:3695   */\n      dup7\n        /* \"#utility.yul\":3645:3717   */\n      tag_187\n      jump\t// in\n    tag_285:\n        /* \"#utility.yul\":3727:3799   */\n      tag_286\n        /* \"#utility.yul\":3795:3797   */\n      0x40\n        /* \"#utility.yul\":3784:3793   */\n      dup4\n        /* \"#utility.yul\":3780:3798   */\n      add\n        /* \"#utility.yul\":3771:3777   */\n      dup6\n        /* \"#utility.yul\":3727:3799   */\n      tag_189\n      jump\t// in\n    tag_286:\n        /* \"#utility.yul\":3809:3881   */\n      tag_287\n        /* \"#utility.yul\":3877:3879   */\n      0x60\n        /* \"#utility.yul\":3866:3875   */\n      dup4\n        /* \"#utility.yul\":3862:3880   */\n      add\n        /* \"#utility.yul\":3853:3859   */\n      dup5\n        /* \"#utility.yul\":3809:3881   */\n      tag_189\n      jump\t// in\n    tag_287:\n        /* \"#utility.yul\":3335:3888   */\n      swap6\n      swap5\n      pop\n      pop\n      pop\n      pop\n      pop\n      jump\t// out\n        /* \"#utility.yul\":3894:4116   */\n    tag_61:\n        /* \"#utility.yul\":3987:3991   */\n      0x00\n        /* \"#utility.yul\":4025:4027   */\n      0x20\n        /* \"#utility.yul\":4014:4023   */\n      dup3\n        /* \"#utility.yul\":4010:4028   */\n      add\n        /* \"#utility.yul\":4002:4028   */\n      swap1\n      pop\n        /* \"#utility.yul\":4038:4109   */\n      tag_289\n        /* \"#utility.yul\":4106:4107   */\n      0x00\n        /* \"#utility.yul\":4095:4104   */\n      dup4\n        /* \"#utility.yul\":4091:4108   */\n      add\n        /* \"#utility.yul\":4082:4088   */\n      dup5\n        /* \"#utility.yul\":4038:4109   */\n      tag_187\n      jump\t// in\n    tag_289:\n        /* \"#utility.yul\":3894:4116   */\n      swap3\n      swap2\n      pop\n      pop\n      jump\t// out\n        /* \"#utility.yul\":4122:4263   */\n    tag_198:\n        /* \"#utility.yul\":4216:4222   */\n      0x00\n        /* \"#utility.yul\":4250:4255   */\n      dup2\n        /* \"#utility.yul\":4244:4256   */\n      mload\n        /* \"#utility.yul\":4234:4256   */\n      swap1\n      pop\n        /* \"#utility.yul\":4122:4263   */\n      swap2\n      swap1\n      pop\n      jump\t// out\n        /* \"#utility.yul\":4269:4480   */\n    tag_199:\n        /* \"#utility.yul\":4395:4406   */\n      0x00\n        /* \"#utility.yul\":4429:4435   */\n      dup3\n        /* \"#utility.yul\":4424:4427   */\n      dup3\n        /* \"#utility.yul\":4417:4436   */\n      mstore\n        /* \"#utility.yul\":4469:4473   */\n      0x20\n        /* \"#utility.yul\":4464:4467   */\n      dup3\n        /* \"#utility.yul\":4460:4474   */\n      add\n        /* \"#utility.yul\":4445:4474   */\n      swap1\n      pop\n        /* \"#utility.yul\":4269:4480   */\n      swap3\n      swap2\n      pop\n      pop\n      jump\t// out\n        /* \"#utility.yul\":4486:4645   */\n    tag_200:\n        /* \"#utility.yul\":4580:4584   */\n      0x00\n        /* \"#utility.yul\":4603:4606   */\n      dup2\n        /* \"#utility.yul\":4595:4606   */\n      swap1\n      pop\n        /* \"#utility.yul\":4633:4637   */\n      0x20\n        /* \"#utility.yul\":4628:4631   */\n      dup3\n        /* \"#utility.yul\":4624:4638   */\n      add\n        /* \"#utility.yul\":4616:4638   */\n      swap1\n      pop\n        /* \"#utility.yul\":4486:4645   */\n      swap2\n      swap1\n      pop\n      jump\t// out\n        /* \"#utility.yul\":4651:4759   */\n    tag_201:\n        /* \"#utility.yul\":4728:4752   */\n      tag_294\n        /* \"#utility.yul\":4746:4751   */\n      dup2\n        /* \"#utility.yul\":4728:4752   */\n      tag_186\n      jump\t// in\n    tag_294:\n        /* \"#utility.yul\":4723:4726   */\n      dup3\n        /* \"#utility.yul\":4716:4753   */\n      mstore\n        /* \"#utility.yul\":4651:4759   */\n      pop\n      pop\n      jump\t// out\n        /* \"#utility.yul\":4765:4873   */\n    tag_202:\n        /* \"#utility.yul\":4842:4866   */\n      tag_296\n        /* \"#utility.yul\":4860:4865   */\n      dup2\n        /* \"#utility.yul\":4842:4866   */\n      tag_188\n      jump\t// in\n    tag_296:\n        /* \"#utility.yul\":4837:4840   */\n      dup3\n        /* \"#utility.yul\":4830:4867   */\n      mstore\n        /* \"#utility.yul\":4765:4873   */\n      pop\n      pop\n      jump\t// out\n        /* \"#utility.yul\":4953:5807   */\n    tag_203:\n        /* \"#utility.yul\":5094:5098   */\n      0x80\n        /* \"#utility.yul\":5089:5092   */\n      dup3\n        /* \"#utility.yul\":5085:5099   */\n      add\n        /* \"#utility.yul\":5179:5183   */\n      0x00\n        /* \"#utility.yul\":5172:5177   */\n      dup3\n        /* \"#utility.yul\":5168:5184   */\n      add\n        /* \"#utility.yul\":5162:5185   */\n      mload\n        /* \"#utility.yul\":5198:5261   */\n      tag_298\n        /* \"#utility.yul\":5255:5259   */\n      0x00\n        /* \"#utility.yul\":5250:5253   */\n      dup6\n        /* \"#utility.yul\":5246:5260   */\n      add\n        /* \"#utility.yul\":5232:5244   */\n      dup3\n        /* \"#utility.yul\":5198:5261   */\n      tag_201\n      jump\t// in\n    tag_298:\n        /* \"#utility.yul\":5109:5271   */\n      pop\n        /* \"#utility.yul\":5353:5357   */\n      0x20\n        /* \"#utility.yul\":5346:5351   */\n      dup3\n        /* \"#utility.yul\":5342:5358   */\n      add\n        /* \"#utility.yul\":5336:5359   */\n      mload\n        /* \"#utility.yul\":5372:5435   */\n      tag_299\n        /* \"#utility.yul\":5429:5433   */\n      0x20\n        /* \"#utility.yul\":5424:5427   */\n      dup6\n        /* \"#utility.yul\":5420:5434   */\n      add\n        /* \"#utility.yul\":5406:5418   */\n      dup3\n        /* \"#utility.yul\":5372:5435   */\n      tag_201\n      jump\t// in\n    tag_299:\n        /* \"#utility.yul\":5281:5445   */\n      pop\n        /* \"#utility.yul\":5532:5536   */\n      0x40\n        /* \"#utility.yul\":5525:5530   */\n      dup3\n        /* \"#utility.yul\":5521:5537   */\n      add\n        /* \"#utility.yul\":5515:5538   */\n      mload\n        /* \"#utility.yul\":5551:5614   */\n      tag_300\n        /* \"#utility.yul\":5608:5612   */\n      0x40\n        /* \"#utility.yul\":5603:5606   */\n      dup6\n        /* \"#utility.yul\":5599:5613   */\n      add\n        /* \"#utility.yul\":5585:5597   */\n      dup3\n        /* \"#utility.yul\":5551:5614   */\n      tag_202\n      jump\t// in\n    tag_300:\n        /* \"#utility.yul\":5455:5624   */\n      pop\n        /* \"#utility.yul\":5708:5712   */\n      0x60\n        /* \"#utility.yul\":5701:5706   */\n      dup3\n        /* \"#utility.yul\":5697:5713   */\n      add\n        /* \"#utility.yul\":5691:5714   */\n      mload\n        /* \"#utility.yul\":5727:5790   */\n      tag_301\n        /* \"#utility.yul\":5784:5788   */\n      0x60\n        /* \"#utility.yul\":5779:5782   */\n      dup6\n        /* \"#utility.yul\":5775:5789   */\n      add\n        /* \"#utility.yul\":5761:5773   */\n      dup3\n        /* \"#utility.yul\":5727:5790   */\n      tag_202\n      jump\t// in\n    tag_301:\n        /* \"#utility.yul\":5634:5800   */\n      pop\n        /* \"#utility.yul\":5063:5807   */\n      pop\n        /* \"#utility.yul\":4953:5807   */\n      pop\n      pop\n      jump\t// out\n        /* \"#utility.yul\":5813:6100   */\n    tag_204:\n        /* \"#utility.yul\":5936:5946   */\n      0x00\n        /* \"#utility.yul\":5957:6057   */\n      tag_303\n        /* \"#utility.yul\":6053:6056   */\n      dup4\n        /* \"#utility.yul\":6045:6051   */\n      dup4\n        /* \"#utility.yul\":5957:6057   */\n      tag_203\n      jump\t// in\n    tag_303:\n        /* \"#utility.yul\":6089:6093   */\n      0x80\n        /* \"#utility.yul\":6084:6087   */\n      dup4\n        /* \"#utility.yul\":6080:6094   */\n      add\n        /* \"#utility.yul\":6066:6094   */\n      swap1\n      pop\n        /* \"#utility.yul\":5813:6100   */\n      swap3\n      swap2\n      pop\n      pop\n      jump\t// out\n        /* \"#utility.yul\":6106:6246   */\n    tag_205:\n        /* \"#utility.yul\":6203:6207   */\n      0x00\n        /* \"#utility.yul\":6235:6239   */\n      0x20\n        /* \"#utility.yul\":6230:6233   */\n      dup3\n        /* \"#utility.yul\":6226:6240   */\n      add\n        /* \"#utility.yul\":6218:6240   */\n      swap1\n      pop\n        /* \"#utility.yul\":6106:6246   */\n      swap2\n      swap1\n      pop\n      jump\t// out\n        /* \"#utility.yul\":6330:7278   */\n    tag_206:\n        /* \"#utility.yul\":6503:6506   */\n      0x00\n        /* \"#utility.yul\":6532:6613   */\n      tag_306\n        /* \"#utility.yul\":6607:6612   */\n      dup3\n        /* \"#utility.yul\":6532:6613   */\n      tag_198\n      jump\t// in\n    tag_306:\n        /* \"#utility.yul\":6629:6742   */\n      tag_307\n        /* \"#utility.yul\":6735:6741   */\n      dup2\n        /* \"#utility.yul\":6730:6733   */\n      dup6\n        /* \"#utility.yul\":6629:6742   */\n      tag_199\n      jump\t// in\n    tag_307:\n        /* \"#utility.yul\":6622:6742   */\n      swap4\n      pop\n        /* \"#utility.yul\":6766:6849   */\n      tag_308\n        /* \"#utility.yul\":6843:6848   */\n      dup4\n        /* \"#utility.yul\":6766:6849   */\n      tag_200\n      jump\t// in\n    tag_308:\n        /* \"#utility.yul\":6872:6879   */\n      dup1\n        /* \"#utility.yul\":6903:6904   */\n      0x00\n        /* \"#utility.yul\":6888:7253   */\n    tag_309:\n        /* \"#utility.yul\":6913:6919   */\n      dup4\n        /* \"#utility.yul\":6910:6911   */\n      dup2\n        /* \"#utility.yul\":6907:6920   */\n      lt\n        /* \"#utility.yul\":6888:7253   */\n      iszero\n      tag_311\n      jumpi\n        /* \"#utility.yul\":6989:6995   */\n      dup2\n        /* \"#utility.yul\":6983:6996   */\n      mload\n        /* \"#utility.yul\":7016:7133   */\n      tag_312\n        /* \"#utility.yul\":7129:7132   */\n      dup9\n        /* \"#utility.yul\":7114:7127   */\n      dup3\n        /* \"#utility.yul\":7016:7133   */\n      tag_204\n      jump\t// in\n    tag_312:\n        /* \"#utility.yul\":7009:7133   */\n      swap8\n      pop\n        /* \"#utility.yul\":7156:7243   */\n      tag_313\n        /* \"#utility.yul\":7236:7242   */\n      dup4\n        /* \"#utility.yul\":7156:7243   */\n      tag_205\n      jump\t// in\n    tag_313:\n        /* \"#utility.yul\":7146:7243   */\n      swap3\n      pop\n        /* \"#utility.yul\":6948:7253   */\n      pop\n        /* \"#utility.yul\":6935:6936   */\n      0x01\n        /* \"#utility.yul\":6932:6933   */\n      dup2\n        /* \"#utility.yul\":6928:6937   */\n      add\n        /* \"#utility.yul\":6923:6937   */\n      swap1\n      pop\n        /* \"#utility.yul\":6888:7253   */\n      jump(tag_309)\n    tag_311:\n        /* \"#utility.yul\":6892:6906   */\n      pop\n        /* \"#utility.yul\":7269:7272   */\n      dup6\n        /* \"#utility.yul\":7262:7272   */\n      swap4\n      pop\n        /* \"#utility.yul\":6508:7278   */\n      pop\n      pop\n      pop\n        /* \"#utility.yul\":6330:7278   */\n      swap3\n      swap2\n      pop\n      pop\n      jump\t// out\n        /* \"#utility.yul\":7284:7765   */\n    tag_77:\n        /* \"#utility.yul\":7481:7485   */\n      0x00\n        /* \"#utility.yul\":7519:7521   */\n      0x20\n        /* \"#utility.yul\":7508:7517   */\n      dup3\n        /* \"#utility.yul\":7504:7522   */\n      add\n        /* \"#utility.yul\":7496:7522   */\n      swap1\n      pop\n        /* \"#utility.yul\":7568:7577   */\n      dup2\n        /* \"#utility.yul\":7562:7566   */\n      dup2\n        /* \"#utility.yul\":7558:7578   */\n      sub\n        /* \"#utility.yul\":7554:7555   */\n      0x00\n        /* \"#utility.yul\":7543:7552   */\n      dup4\n        /* \"#utility.yul\":7539:7556   */\n      add\n        /* \"#utility.yul\":7532:7579   */\n      mstore\n        /* \"#utility.yul\":7596:7758   */\n      tag_315\n        /* \"#utility.yul\":7753:7757   */\n      dup2\n        /* \"#utility.yul\":7744:7750   */\n      dup5\n        /* \"#utility.yul\":7596:7758   */\n      tag_206\n      jump\t// in\n    tag_315:\n        /* \"#utility.yul\":7588:7758   */\n      swap1\n      pop\n        /* \"#utility.yul\":7284:7765   */\n      swap3\n      swap2\n      pop\n      pop\n      jump\t// out\n        /* \"#utility.yul\":7771:7893   */\n    tag_207:\n        /* \"#utility.yul\":7844:7868   */\n      tag_317\n        /* \"#utility.yul\":7862:7867   */\n      dup2\n        /* \"#utility.yul\":7844:7868   */\n      tag_186\n      jump\t// in\n    tag_317:\n        /* \"#utility.yul\":7837:7842   */\n      dup2\n        /* \"#utility.yul\":7834:7869   */\n      eq\n        /* \"#utility.yul\":7824:7887   */\n      tag_318\n      jumpi\n        /* \"#utility.yul\":7883:7884   */\n      0x00\n        /* \"#utility.yul\":7880:7881   */\n      0x00\n        /* \"#utility.yul\":7873:7885   */\n      revert\n        /* \"#utility.yul\":7824:7887   */\n    tag_318:\n        /* \"#utility.yul\":7771:7893   */\n      pop\n      jump\t// out\n        /* \"#utility.yul\":7899:8038   */\n    tag_208:\n        /* \"#utility.yul\":7945:7950   */\n      0x00\n        /* \"#utility.yul\":7983:7989   */\n      dup2\n        /* \"#utility.yul\":7970:7990   */\n      calldataload\n        /* \"#utility.yul\":7961:7990   */\n      swap1\n      pop\n        /* \"#utility.yul\":7999:8032   */\n      tag_320\n        /* \"#utility.yul\":8026:8031   */\n      dup2\n        /* \"#utility.yul\":7999:8032   */\n      tag_207\n      jump\t// in\n    tag_320:\n        /* \"#utility.yul\":7899:8038   */\n      swap3\n      swap2\n      pop\n      pop\n      jump\t// out\n        /* \"#utility.yul\":8044:8373   */\n    tag_89:\n        /* \"#utility.yul\":8103:8109   */\n      0x00\n        /* \"#utility.yul\":8152:8154   */\n      0x20\n        /* \"#utility.yul\":8140:8149   */\n      dup3\n        /* \"#utility.yul\":8131:8138   */\n      dup5\n        /* \"#utility.yul\":8127:8150   */\n      sub\n        /* \"#utility.yul\":8123:8155   */\n      slt\n        /* \"#utility.yul\":8120:8239   */\n      iszero\n      tag_322\n      jumpi\n        /* \"#utility.yul\":8158:8237   */\n      tag_323\n      tag_191\n      jump\t// in\n    tag_323:\n        /* \"#utility.yul\":8120:8239   */\n    tag_322:\n        /* \"#utility.yul\":8278:8279   */\n      0x00\n        /* \"#utility.yul\":8303:8356   */\n      tag_324\n        /* \"#utility.yul\":8348:8355   */\n      dup5\n        /* \"#utility.yul\":8339:8345   */\n      dup3\n        /* \"#utility.yul\":8328:8337   */\n      dup6\n        /* \"#utility.yul\":8324:8346   */\n      add\n        /* \"#utility.yul\":8303:8356   */\n      tag_208\n      jump\t// in\n    tag_324:\n        /* \"#utility.yul\":8293:8356   */\n      swap2\n      pop\n        /* \"#utility.yul\":8249:8366   */\n      pop\n        /* \"#utility.yul\":8044:8373   */\n      swap3\n      swap2\n      pop\n      pop\n      jump\t// out\n        /* \"#utility.yul\":8379:8478   */\n    tag_209:\n        /* \"#utility.yul\":8431:8437   */\n      0x00\n        /* \"#utility.yul\":8465:8470   */\n      dup2\n        /* \"#utility.yul\":8459:8471   */\n      mload\n        /* \"#utility.yul\":8449:8471   */\n      swap1\n      pop\n        /* \"#utility.yul\":8379:8478   */\n      swap2\n      swap1\n      pop\n      jump\t// out\n        /* \"#utility.yul\":8484:8653   */\n    tag_210:\n        /* \"#utility.yul\":8568:8579   */\n      0x00\n        /* \"#utility.yul\":8602:8608   */\n      dup3\n        /* \"#utility.yul\":8597:8600   */\n      dup3\n        /* \"#utility.yul\":8590:8609   */\n      mstore\n        /* \"#utility.yul\":8642:8646   */\n      0x20\n        /* \"#utility.yul\":8637:8640   */\n      dup3\n        /* \"#utility.yul\":8633:8647   */\n      add\n        /* \"#utility.yul\":8618:8647   */\n      swap1\n      pop\n        /* \"#utility.yul\":8484:8653   */\n      swap3\n      swap2\n      pop\n      pop\n      jump\t// out\n        /* \"#utility.yul\":8659:8798   */\n    tag_211:\n        /* \"#utility.yul\":8748:8754   */\n      dup3\n        /* \"#utility.yul\":8743:8746   */\n      dup2\n        /* \"#utility.yul\":8738:8741   */\n      dup4\n        /* \"#utility.yul\":8732:8755   */\n      mcopy\n        /* \"#utility.yul\":8789:8790   */\n      0x00\n        /* \"#utility.yul\":8780:8786   */\n      dup4\n        /* \"#utility.yul\":8775:8778   */\n      dup4\n        /* \"#utility.yul\":8771:8787   */\n      add\n        /* \"#utility.yul\":8764:8791   */\n      mstore\n        /* \"#utility.yul\":8659:8798   */\n      pop\n      pop\n      pop\n      jump\t// out\n        /* \"#utility.yul\":8804:8906   */\n    tag_212:\n        /* \"#utility.yul\":8845:8851   */\n      0x00\n        /* \"#utility.yul\":8896:8898   */\n      0x1f\n        /* \"#utility.yul\":8892:8899   */\n      not\n        /* \"#utility.yul\":8887:8889   */\n      0x1f\n        /* \"#utility.yul\":8880:8885   */\n      dup4\n        /* \"#utility.yul\":8876:8890   */\n      add\n        /* \"#utility.yul\":8872:8900   */\n      and\n        /* \"#utility.yul\":8862:8900   */\n      swap1\n      pop\n        /* \"#utility.yul\":8804:8906   */\n      swap2\n      swap1\n      pop\n      jump\t// out\n        /* \"#utility.yul\":8912:9289   */\n    tag_213:\n        /* \"#utility.yul\":9000:9003   */\n      0x00\n        /* \"#utility.yul\":9028:9067   */\n      tag_330\n        /* \"#utility.yul\":9061:9066   */\n      dup3\n        /* \"#utility.yul\":9028:9067   */\n      tag_209\n      jump\t// in\n    tag_330:\n        /* \"#utility.yul\":9083:9154   */\n      tag_331\n        /* \"#utility.yul\":9147:9153   */\n      dup2\n        /* \"#utility.yul\":9142:9145   */\n      dup6\n        /* \"#utility.yul\":9083:9154   */\n      tag_210\n      jump\t// in\n    tag_331:\n        /* \"#utility.yul\":9076:9154   */\n      swap4\n      pop\n        /* \"#utility.yul\":9163:9228   */\n      tag_332\n        /* \"#utility.yul\":9221:9227   */\n      dup2\n        /* \"#utility.yul\":9216:9219   */\n      dup6\n        /* \"#utility.yul\":9209:9213   */\n      0x20\n        /* \"#utility.yul\":9202:9207   */\n      dup7\n        /* \"#utility.yul\":9198:9214   */\n      add\n        /* \"#utility.yul\":9163:9228   */\n      tag_211\n      jump\t// in\n    tag_332:\n        /* \"#utility.yul\":9253:9282   */\n      tag_333\n        /* \"#utility.yul\":9275:9281   */\n      dup2\n        /* \"#utility.yul\":9253:9282   */\n      tag_212\n      jump\t// in\n    tag_333:\n        /* \"#utility.yul\":9248:9251   */\n      dup5\n        /* \"#utility.yul\":9244:9283   */\n      add\n        /* \"#utility.yul\":9237:9283   */\n      swap2\n      pop\n        /* \"#utility.yul\":9004:9289   */\n      pop\n        /* \"#utility.yul\":8912:9289   */\n      swap3\n      swap2\n      pop\n      pop\n      jump\t// out\n        /* \"#utility.yul\":9295:9608   */\n    tag_96:\n        /* \"#utility.yul\":9408:9412   */\n      0x00\n        /* \"#utility.yul\":9446:9448   */\n      0x20\n        /* \"#utility.yul\":9435:9444   */\n      dup3\n        /* \"#utility.yul\":9431:9449   */\n      add\n        /* \"#utility.yul\":9423:9449   */\n      swap1\n      pop\n        /* \"#utility.yul\":9495:9504   */\n      dup2\n        /* \"#utility.yul\":9489:9493   */\n      dup2\n        /* \"#utility.yul\":9485:9505   */\n      sub\n        /* \"#utility.yul\":9481:9482   */\n      0x00\n        /* \"#utility.yul\":9470:9479   */\n      dup4\n        /* \"#utility.yul\":9466:9483   */\n      add\n        /* \"#utility.yul\":9459:9506   */\n      mstore\n        /* \"#utility.yul\":9523:9601   */\n      tag_335\n        /* \"#utility.yul\":9596:9600   */\n      dup2\n        /* \"#utility.yul\":9587:9593   */\n      dup5\n        /* \"#utility.yul\":9523:9601   */\n      tag_213\n      jump\t// in\n    tag_335:\n        /* \"#utility.yul\":9515:9601   */\n      swap1\n      pop\n        /* \"#utility.yul\":9295:9608   */\n      swap3\n      swap2\n      pop\n      pop\n      jump\t// out\n        /* \"#utility.yul\":9614:9794   */\n    tag_214:\n        /* \"#utility.yul\":9662:9739   */\n      0x4e487b7100000000000000000000000000000000000000000000000000000000\n        /* \"#utility.yul\":9659:9660   */\n      0x00\n        /* \"#utility.yul\":9652:9740   */\n      mstore\n        /* \"#utility.yul\":9759:9763   */\n      0x11\n        /* \"#utility.yul\":9756:9757   */\n      0x04\n        /* \"#utility.yul\":9749:9764   */\n      mstore\n        /* \"#utility.yul\":9783:9787   */\n      0x24\n        /* \"#utility.yul\":9780:9781   */\n      0x00\n        /* \"#utility.yul\":9773:9788   */\n      revert\n        /* \"#utility.yul\":9800:9991   */\n    tag_103:\n        /* \"#utility.yul\":9840:9843   */\n      0x00\n        /* \"#utility.yul\":9859:9879   */\n      tag_338\n        /* \"#utility.yul\":9877:9878   */\n      dup3\n        /* \"#utility.yul\":9859:9879   */\n      tag_188\n      jump\t// in\n    tag_338:\n        /* \"#utility.yul\":9854:9879   */\n      swap2\n      pop\n        /* \"#utility.yul\":9893:9913   */\n      tag_339\n        /* \"#utility.yul\":9911:9912   */\n      dup4\n        /* \"#utility.yul\":9893:9913   */\n      tag_188\n      jump\t// in\n    tag_339:\n        /* \"#utility.yul\":9888:9913   */\n      swap3\n      pop\n        /* \"#utility.yul\":9936:9937   */\n      dup3\n        /* \"#utility.yul\":9933:9934   */\n      dup3\n        /* \"#utility.yul\":9929:9938   */\n      add\n        /* \"#utility.yul\":9922:9938   */\n      swap1\n      pop\n        /* \"#utility.yul\":9957:9960   */\n      dup1\n        /* \"#utility.yul\":9954:9955   */\n      dup3\n        /* \"#utility.yul\":9951:9961   */\n      gt\n        /* \"#utility.yul\":9948:9984   */\n      iszero\n      tag_340\n      jumpi\n        /* \"#utility.yul\":9964:9982   */\n      tag_341\n      tag_214\n      jump\t// in\n    tag_341:\n        /* \"#utility.yul\":9948:9984   */\n    tag_340:\n        /* \"#utility.yul\":9800:9991   */\n      swap3\n      swap2\n      pop\n      pop\n      jump\t// out\n        /* \"#utility.yul\":9997:10220   */\n    tag_215:\n        /* \"#utility.yul\":10137:10171   */\n      0x616363657373206465736d6973736564202120796f7520617265206e6f74204f\n        /* \"#utility.yul\":10133:10134   */\n      0x00\n        /* \"#utility.yul\":10125:10131   */\n      dup3\n        /* \"#utility.yul\":10121:10135   */\n      add\n        /* \"#utility.yul\":10114:10172   */\n      mstore\n        /* \"#utility.yul\":10206:10212   */\n      0x776e657200000000000000000000000000000000000000000000000000000000\n        /* \"#utility.yul\":10201:10203   */\n      0x20\n        /* \"#utility.yul\":10193:10199   */\n      dup3\n        /* \"#utility.yul\":10189:10204   */\n      add\n        /* \"#utility.yul\":10182:10213   */\n      mstore\n        /* \"#utility.yul\":9997:10220   */\n      pop\n      jump\t// out\n        /* \"#utility.yul\":10226:10592   */\n    tag_216:\n        /* \"#utility.yul\":10368:10371   */\n      0x00\n        /* \"#utility.yul\":10389:10456   */\n      tag_344\n        /* \"#utility.yul\":10453:10455   */\n      0x24\n        /* \"#utility.yul\":10448:10451   */\n      dup4\n        /* \"#utility.yul\":10389:10456   */\n      tag_210\n      jump\t// in\n    tag_344:\n        /* \"#utility.yul\":10382:10456   */\n      swap2\n      pop\n        /* \"#utility.yul\":10465:10558   */\n      tag_345\n        /* \"#utility.yul\":10554:10557   */\n      dup3\n        /* \"#utility.yul\":10465:10558   */\n      tag_215\n      jump\t// in\n    tag_345:\n        /* \"#utility.yul\":10583:10585   */\n      0x40\n        /* \"#utility.yul\":10578:10581   */\n      dup3\n        /* \"#utility.yul\":10574:10586   */\n      add\n        /* \"#utility.yul\":10567:10586   */\n      swap1\n      pop\n        /* \"#utility.yul\":10226:10592   */\n      swap2\n      swap1\n      pop\n      jump\t// out\n        /* \"#utility.yul\":10598:11017   */\n    tag_109:\n        /* \"#utility.yul\":10764:10768   */\n      0x00\n        /* \"#utility.yul\":10802:10804   */\n      0x20\n        /* \"#utility.yul\":10791:10800   */\n      dup3\n        /* \"#utility.yul\":10787:10805   */\n      add\n        /* \"#utility.yul\":10779:10805   */\n      swap1\n      pop\n        /* \"#utility.yul\":10851:10860   */\n      dup2\n        /* \"#utility.yul\":10845:10849   */\n      dup2\n        /* \"#utility.yul\":10841:10861   */\n      sub\n        /* \"#utility.yul\":10837:10838   */\n      0x00\n        /* \"#utility.yul\":10826:10835   */\n      dup4\n        /* \"#utility.yul\":10822:10839   */\n      add\n        /* \"#utility.yul\":10815:10862   */\n      mstore\n        /* \"#utility.yul\":10879:11010   */\n      tag_347\n        /* \"#utility.yul\":11005:11009   */\n      dup2\n        /* \"#utility.yul\":10879:11010   */\n      tag_216\n      jump\t// in\n    tag_347:\n        /* \"#utility.yul\":10871:11010   */\n      swap1\n      pop\n        /* \"#utility.yul\":10598:11017   */\n      swap2\n      swap1\n      pop\n      jump\t// out\n        /* \"#utility.yul\":11023:11194   */\n    tag_217:\n        /* \"#utility.yul\":11163:11186   */\n      0x756e737566666963656e65742062616c616e6365210000000000000000000000\n        /* \"#utility.yul\":11159:11160   */\n      0x00\n        /* \"#utility.yul\":11151:11157   */\n      dup3\n        /* \"#utility.yul\":11147:11161   */\n      add\n        /* \"#utility.yul\":11140:11187   */\n      mstore\n        /* \"#utility.yul\":11023:11194   */\n      pop\n      jump\t// out\n        /* \"#utility.yul\":11200:11566   */\n    tag_218:\n        /* \"#utility.yul\":11342:11345   */\n      0x00\n        /* \"#utility.yul\":11363:11430   */\n      tag_350\n        /* \"#utility.yul\":11427:11429   */\n      0x15\n        /* \"#utility.yul\":11422:11425   */\n      dup4\n        /* \"#utility.yul\":11363:11430   */\n      tag_210\n      jump\t// in\n    tag_350:\n        /* \"#utility.yul\":11356:11430   */\n      swap2\n      pop\n        /* \"#utility.yul\":11439:11532   */\n      tag_351\n        /* \"#utility.yul\":11528:11531   */\n      dup3\n        /* \"#utility.yul\":11439:11532   */\n      tag_217\n      jump\t// in\n    tag_351:\n        /* \"#utility.yul\":11557:11559   */\n      0x20\n        /* \"#utility.yul\":11552:11555   */\n      dup3\n        /* \"#utility.yul\":11548:11560   */\n      add\n        /* \"#utility.yul\":11541:11560   */\n      swap1\n      pop\n        /* \"#utility.yul\":11200:11566   */\n      swap2\n      swap1\n      pop\n      jump\t// out\n        /* \"#utility.yul\":11572:11991   */\n    tag_113:\n        /* \"#utility.yul\":11738:11742   */\n      0x00\n        /* \"#utility.yul\":11776:11778   */\n      0x20\n        /* \"#utility.yul\":11765:11774   */\n      dup3\n        /* \"#utility.yul\":11761:11779   */\n      add\n        /* \"#utility.yul\":11753:11779   */\n      swap1\n      pop\n        /* \"#utility.yul\":11825:11834   */\n      dup2\n        /* \"#utility.yul\":11819:11823   */\n      dup2\n        /* \"#utility.yul\":11815:11835   */\n      sub\n        /* \"#utility.yul\":11811:11812   */\n      0x00\n        /* \"#utility.yul\":11800:11809   */\n      dup4\n        /* \"#utility.yul\":11796:11813   */\n      add\n        /* \"#utility.yul\":11789:11836   */\n      mstore\n        /* \"#utility.yul\":11853:11984   */\n      tag_353\n        /* \"#utility.yul\":11979:11983   */\n      dup2\n        /* \"#utility.yul\":11853:11984   */\n      tag_218\n      jump\t// in\n    tag_353:\n        /* \"#utility.yul\":11845:11984   */\n      swap1\n      pop\n        /* \"#utility.yul\":11572:11991   */\n      swap2\n      swap1\n      pop\n      jump\t// out\n        /* \"#utility.yul\":11997:12178   */\n    tag_219:\n        /* \"#utility.yul\":12137:12170   */\n      0x4164647265737320697320696e76616c696420636865636b206f6e6365732100\n        /* \"#utility.yul\":12133:12134   */\n      0x00\n        /* \"#utility.yul\":12125:12131   */\n      dup3\n        /* \"#utility.yul\":12121:12135   */\n      add\n        /* \"#utility.yul\":12114:12171   */\n      mstore\n        /* \"#utility.yul\":11997:12178   */\n      pop\n      jump\t// out\n        /* \"#utility.yul\":12184:12550   */\n    tag_220:\n        /* \"#utility.yul\":12326:12329   */\n      0x00\n        /* \"#utility.yul\":12347:12414   */\n      tag_356\n        /* \"#utility.yul\":12411:12413   */\n      0x1f\n        /* \"#utility.yul\":12406:12409   */\n      dup4\n        /* \"#utility.yul\":12347:12414   */\n      tag_210\n      jump\t// in\n    tag_356:\n        /* \"#utility.yul\":12340:12414   */\n      swap2\n      pop\n        /* \"#utility.yul\":12423:12516   */\n      tag_357\n        /* \"#utility.yul\":12512:12515   */\n      dup3\n        /* \"#utility.yul\":12423:12516   */\n      tag_219\n      jump\t// in\n    tag_357:\n        /* \"#utility.yul\":12541:12543   */\n      0x20\n        /* \"#utility.yul\":12536:12539   */\n      dup3\n        /* \"#utility.yul\":12532:12544   */\n      add\n        /* \"#utility.yul\":12525:12544   */\n      swap1\n      pop\n        /* \"#utility.yul\":12184:12550   */\n      swap2\n      swap1\n      pop\n      jump\t// out\n        /* \"#utility.yul\":12556:12975   */\n    tag_116:\n        /* \"#utility.yul\":12722:12726   */\n      0x00\n        /* \"#utility.yul\":12760:12762   */\n      0x20\n        /* \"#utility.yul\":12749:12758   */\n      dup3\n        /* \"#utility.yul\":12745:12763   */\n      add\n        /* \"#utility.yul\":12737:12763   */\n      swap1\n      pop\n        /* \"#utility.yul\":12809:12818   */\n      dup2\n        /* \"#utility.yul\":12803:12807   */\n      dup2\n        /* \"#utility.yul\":12799:12819   */\n      sub\n        /* \"#utility.yul\":12795:12796   */\n      0x00\n        /* \"#utility.yul\":12784:12793   */\n      dup4\n        /* \"#utility.yul\":12780:12797   */\n      add\n        /* \"#utility.yul\":12773:12820   */\n      mstore\n        /* \"#utility.yul\":12837:12968   */\n      tag_359\n        /* \"#utility.yul\":12963:12967   */\n      dup2\n        /* \"#utility.yul\":12837:12968   */\n      tag_220\n      jump\t// in\n    tag_359:\n        /* \"#utility.yul\":12829:12968   */\n      swap1\n      pop\n        /* \"#utility.yul\":12556:12975   */\n      swap2\n      swap1\n      pop\n      jump\t// out\n        /* \"#utility.yul\":12981:13041   */\n    tag_221:\n        /* \"#utility.yul\":13009:13012   */\n      0x00\n        /* \"#utility.yul\":13030:13035   */\n      dup2\n        /* \"#utility.yul\":13023:13035   */\n      swap1\n      pop\n        /* \"#utility.yul\":12981:13041   */\n      swap2\n      swap1\n      pop\n      jump\t// out\n        /* \"#utility.yul\":13047:13189   */\n    tag_222:\n        /* \"#utility.yul\":13097:13106   */\n      0x00\n        /* \"#utility.yul\":13130:13183   */\n      tag_362\n        /* \"#utility.yul\":13148:13182   */\n      tag_363\n        /* \"#utility.yul\":13157:13181   */\n      tag_364\n        /* \"#utility.yul\":13175:13180   */\n      dup5\n        /* \"#utility.yul\":13157:13181   */\n      tag_185\n      jump\t// in\n    tag_364:\n        /* \"#utility.yul\":13148:13182   */\n      tag_221\n      jump\t// in\n    tag_363:\n        /* \"#utility.yul\":13130:13183   */\n      tag_185\n      jump\t// in\n    tag_362:\n        /* \"#utility.yul\":13117:13183   */\n      swap1\n      pop\n        /* \"#utility.yul\":13047:13189   */\n      swap2\n      swap1\n      pop\n      jump\t// out\n        /* \"#utility.yul\":13195:13321   */\n    tag_223:\n        /* \"#utility.yul\":13245:13254   */\n      0x00\n        /* \"#utility.yul\":13278:13315   */\n      tag_366\n        /* \"#utility.yul\":13309:13314   */\n      dup3\n        /* \"#utility.yul\":13278:13315   */\n      tag_222\n      jump\t// in\n    tag_366:\n        /* \"#utility.yul\":13265:13315   */\n      swap1\n      pop\n        /* \"#utility.yul\":13195:13321   */\n      swap2\n      swap1\n      pop\n      jump\t// out\n        /* \"#utility.yul\":13327:13461   */\n    tag_224:\n        /* \"#utility.yul\":13385:13394   */\n      0x00\n        /* \"#utility.yul\":13418:13455   */\n      tag_368\n        /* \"#utility.yul\":13449:13454   */\n      dup3\n        /* \"#utility.yul\":13418:13455   */\n      tag_223\n      jump\t// in\n    tag_368:\n        /* \"#utility.yul\":13405:13455   */\n      swap1\n      pop\n        /* \"#utility.yul\":13327:13461   */\n      swap2\n      swap1\n      pop\n      jump\t// out\n        /* \"#utility.yul\":13467:13614   */\n    tag_225:\n        /* \"#utility.yul\":13562:13607   */\n      tag_370\n        /* \"#utility.yul\":13601:13606   */\n      dup2\n        /* \"#utility.yul\":13562:13607   */\n      tag_224\n      jump\t// in\n    tag_370:\n        /* \"#utility.yul\":13557:13560   */\n      dup3\n        /* \"#utility.yul\":13550:13608   */\n      mstore\n        /* \"#utility.yul\":13467:13614   */\n      pop\n      pop\n      jump\t// out\n        /* \"#utility.yul\":13620:13968   */\n    tag_118:\n        /* \"#utility.yul\":13749:13753   */\n      0x00\n        /* \"#utility.yul\":13787:13789   */\n      0x40\n        /* \"#utility.yul\":13776:13785   */\n      dup3\n        /* \"#utility.yul\":13772:13790   */\n      add\n        /* \"#utility.yul\":13764:13790   */\n      swap1\n      pop\n        /* \"#utility.yul\":13800:13879   */\n      tag_372\n        /* \"#utility.yul\":13876:13877   */\n      0x00\n        /* \"#utility.yul\":13865:13874   */\n      dup4\n        /* \"#utility.yul\":13861:13878   */\n      add\n        /* \"#utility.yul\":13852:13858   */\n      dup6\n        /* \"#utility.yul\":13800:13879   */\n      tag_225\n      jump\t// in\n    tag_372:\n        /* \"#utility.yul\":13889:13961   */\n      tag_373\n        /* \"#utility.yul\":13957:13959   */\n      0x20\n        /* \"#utility.yul\":13946:13955   */\n      dup4\n        /* \"#utility.yul\":13942:13960   */\n      add\n        /* \"#utility.yul\":13933:13939   */\n      dup5\n        /* \"#utility.yul\":13889:13961   */\n      tag_189\n      jump\t// in\n    tag_373:\n        /* \"#utility.yul\":13620:13968   */\n      swap4\n      swap3\n      pop\n      pop\n      pop\n      jump\t// out\n        /* \"#utility.yul\":13974:14205   */\n    tag_226:\n        /* \"#utility.yul\":14114:14148   */\n      0x416374697669747920666f756e6420737573706963696f757320202c20626c6f\n        /* \"#utility.yul\":14110:14111   */\n      0x00\n        /* \"#utility.yul\":14102:14108   */\n      dup3\n        /* \"#utility.yul\":14098:14112   */\n      add\n        /* \"#utility.yul\":14091:14149   */\n      mstore\n        /* \"#utility.yul\":14183:14197   */\n      0x636b20666f722031206461790000000000000000000000000000000000000000\n        /* \"#utility.yul\":14178:14180   */\n      0x20\n        /* \"#utility.yul\":14170:14176   */\n      dup3\n        /* \"#utility.yul\":14166:14181   */\n      add\n        /* \"#utility.yul\":14159:14198   */\n      mstore\n        /* \"#utility.yul\":13974:14205   */\n      pop\n      jump\t// out\n        /* \"#utility.yul\":14211:14577   */\n    tag_227:\n        /* \"#utility.yul\":14353:14356   */\n      0x00\n        /* \"#utility.yul\":14374:14441   */\n      tag_376\n        /* \"#utility.yul\":14438:14440   */\n      0x2c\n        /* \"#utility.yul\":14433:14436   */\n      dup4\n        /* \"#utility.yul\":14374:14441   */\n      tag_210\n      jump\t// in\n    tag_376:\n        /* \"#utility.yul\":14367:14441   */\n      swap2\n      pop\n        /* \"#utility.yul\":14450:14543   */\n      tag_377\n        /* \"#utility.yul\":14539:14542   */\n      dup3\n        /* \"#utility.yul\":14450:14543   */\n      tag_226\n      jump\t// in\n    tag_377:\n        /* \"#utility.yul\":14568:14570   */\n      0x40\n        /* \"#utility.yul\":14563:14566   */\n      dup3\n        /* \"#utility.yul\":14559:14571   */\n      add\n        /* \"#utility.yul\":14552:14571   */\n      swap1\n      pop\n        /* \"#utility.yul\":14211:14577   */\n      swap2\n      swap1\n      pop\n      jump\t// out\n        /* \"#utility.yul\":14583:15002   */\n    tag_126:\n        /* \"#utility.yul\":14749:14753   */\n      0x00\n        /* \"#utility.yul\":14787:14789   */\n      0x20\n        /* \"#utility.yul\":14776:14785   */\n      dup3\n        /* \"#utility.yul\":14772:14790   */\n      add\n        /* \"#utility.yul\":14764:14790   */\n      swap1\n      pop\n        /* \"#utility.yul\":14836:14845   */\n      dup2\n        /* \"#utility.yul\":14830:14834   */\n      dup2\n        /* \"#utility.yul\":14826:14846   */\n      sub\n        /* \"#utility.yul\":14822:14823   */\n      0x00\n        /* \"#utility.yul\":14811:14820   */\n      dup4\n        /* \"#utility.yul\":14807:14824   */\n      add\n        /* \"#utility.yul\":14800:14847   */\n      mstore\n        /* \"#utility.yul\":14864:14995   */\n      tag_379\n        /* \"#utility.yul\":14990:14994   */\n      dup2\n        /* \"#utility.yul\":14864:14995   */\n      tag_227\n      jump\t// in\n    tag_379:\n        /* \"#utility.yul\":14856:14995   */\n      swap1\n      pop\n        /* \"#utility.yul\":14583:15002   */\n      swap2\n      swap1\n      pop\n      jump\t// out\n        /* \"#utility.yul\":15008:15228   */\n    tag_228:\n        /* \"#utility.yul\":15148:15182   */\n      0x20756e737566666963656e742062616c616e6365203d3e20636f6e747261636b\n        /* \"#utility.yul\":15144:15145   */\n      0x00\n        /* \"#utility.yul\":15136:15142   */\n      dup3\n        /* \"#utility.yul\":15132:15146   */\n      add\n        /* \"#utility.yul\":15125:15183   */\n      mstore\n        /* \"#utility.yul\":15217:15220   */\n      0x2100000000000000000000000000000000000000000000000000000000000000\n        /* \"#utility.yul\":15212:15214   */\n      0x20\n        /* \"#utility.yul\":15204:15210   */\n      dup3\n        /* \"#utility.yul\":15200:15215   */\n      add\n        /* \"#utility.yul\":15193:15221   */\n      mstore\n        /* \"#utility.yul\":15008:15228   */\n      pop\n      jump\t// out\n        /* \"#utility.yul\":15234:15600   */\n    tag_229:\n        /* \"#utility.yul\":15376:15379   */\n      0x00\n        /* \"#utility.yul\":15397:15464   */\n      tag_382\n        /* \"#utility.yul\":15461:15463   */\n      0x21\n        /* \"#utility.yul\":15456:15459   */\n      dup4\n        /* \"#utility.yul\":15397:15464   */\n      tag_210\n      jump\t// in\n    tag_382:\n        /* \"#utility.yul\":15390:15464   */\n      swap2\n      pop\n        /* \"#utility.yul\":15473:15566   */\n      tag_383\n        /* \"#utility.yul\":15562:15565   */\n      dup3\n        /* \"#utility.yul\":15473:15566   */\n      tag_228\n      jump\t// in\n    tag_383:\n        /* \"#utility.yul\":15591:15593   */\n      0x40\n        /* \"#utility.yul\":15586:15589   */\n      dup3\n        /* \"#utility.yul\":15582:15594   */\n      add\n        /* \"#utility.yul\":15575:15594   */\n      swap1\n      pop\n        /* \"#utility.yul\":15234:15600   */\n      swap2\n      swap1\n      pop\n      jump\t// out\n        /* \"#utility.yul\":15606:16025   */\n    tag_130:\n        /* \"#utility.yul\":15772:15776   */\n      0x00\n        /* \"#utility.yul\":15810:15812   */\n      0x20\n        /* \"#utility.yul\":15799:15808   */\n      dup3\n        /* \"#utility.yul\":15795:15813   */\n      add\n        /* \"#utility.yul\":15787:15813   */\n      swap1\n      pop\n        /* \"#utility.yul\":15859:15868   */\n      dup2\n        /* \"#utility.yul\":15853:15857   */\n      dup2\n        /* \"#utility.yul\":15849:15869   */\n      sub\n        /* \"#utility.yul\":15845:15846   */\n      0x00\n        /* \"#utility.yul\":15834:15843   */\n      dup4\n        /* \"#utility.yul\":15830:15847   */\n      add\n        /* \"#utility.yul\":15823:15870   */\n      mstore\n        /* \"#utility.yul\":15887:16018   */\n      tag_385\n        /* \"#utility.yul\":16013:16017   */\n      dup2\n        /* \"#utility.yul\":15887:16018   */\n      tag_229\n      jump\t// in\n    tag_385:\n        /* \"#utility.yul\":15879:16018   */\n      swap1\n      pop\n        /* \"#utility.yul\":15606:16025   */\n      swap2\n      swap1\n      pop\n      jump\t// out\n        /* \"#utility.yul\":16031:16210   */\n    tag_230:\n        /* \"#utility.yul\":16171:16202   */\n      0x20756e737566666963656e742062616c616e6365203d3e207573657221000000\n        /* \"#utility.yul\":16167:16168   */\n      0x00\n        /* \"#utility.yul\":16159:16165   */\n      dup3\n        /* \"#utility.yul\":16155:16169   */\n      add\n        /* \"#utility.yul\":16148:16203   */\n      mstore\n        /* \"#utility.yul\":16031:16210   */\n      pop\n      jump\t// out\n        /* \"#utility.yul\":16216:16582   */\n    tag_231:\n        /* \"#utility.yul\":16358:16361   */\n      0x00\n        /* \"#utility.yul\":16379:16446   */\n      tag_388\n        /* \"#utility.yul\":16443:16445   */\n      0x1d\n        /* \"#utility.yul\":16438:16441   */\n      dup4\n        /* \"#utility.yul\":16379:16446   */\n      tag_210\n      jump\t// in\n    tag_388:\n        /* \"#utility.yul\":16372:16446   */\n      swap2\n      pop\n        /* \"#utility.yul\":16455:16548   */\n      tag_389\n        /* \"#utility.yul\":16544:16547   */\n      dup3\n        /* \"#utility.yul\":16455:16548   */\n      tag_230\n      jump\t// in\n    tag_389:\n        /* \"#utility.yul\":16573:16575   */\n      0x20\n        /* \"#utility.yul\":16568:16571   */\n      dup3\n        /* \"#utility.yul\":16564:16576   */\n      add\n        /* \"#utility.yul\":16557:16576   */\n      swap1\n      pop\n        /* \"#utility.yul\":16216:16582   */\n      swap2\n      swap1\n      pop\n      jump\t// out\n        /* \"#utility.yul\":16588:17007   */\n    tag_133:\n        /* \"#utility.yul\":16754:16758   */\n      0x00\n        /* \"#utility.yul\":16792:16794   */\n      0x20\n        /* \"#utility.yul\":16781:16790   */\n      dup3\n        /* \"#utility.yul\":16777:16795   */\n      add\n        /* \"#utility.yul\":16769:16795   */\n      swap1\n      pop\n        /* \"#utility.yul\":16841:16850   */\n      dup2\n        /* \"#utility.yul\":16835:16839   */\n      dup2\n        /* \"#utility.yul\":16831:16851   */\n      sub\n        /* \"#utility.yul\":16827:16828   */\n      0x00\n        /* \"#utility.yul\":16816:16825   */\n      dup4\n        /* \"#utility.yul\":16812:16829   */\n      add\n        /* \"#utility.yul\":16805:16852   */\n      mstore\n        /* \"#utility.yul\":16869:17000   */\n      tag_391\n        /* \"#utility.yul\":16995:16999   */\n      dup2\n        /* \"#utility.yul\":16869:17000   */\n      tag_231\n      jump\t// in\n    tag_391:\n        /* \"#utility.yul\":16861:17000   */\n      swap1\n      pop\n        /* \"#utility.yul\":16588:17007   */\n      swap2\n      swap1\n      pop\n      jump\t// out\n        /* \"#utility.yul\":17013:17184   */\n    tag_232:\n        /* \"#utility.yul\":17153:17176   */\n      0x656d657267656e6379206e6f7420646566696e64210000000000000000000000\n        /* \"#utility.yul\":17149:17150   */\n      0x00\n        /* \"#utility.yul\":17141:17147   */\n      dup3\n        /* \"#utility.yul\":17137:17151   */\n      add\n        /* \"#utility.yul\":17130:17177   */\n      mstore\n        /* \"#utility.yul\":17013:17184   */\n      pop\n      jump\t// out\n        /* \"#utility.yul\":17190:17556   */\n    tag_233:\n        /* \"#utility.yul\":17332:17335   */\n      0x00\n        /* \"#utility.yul\":17353:17420   */\n      tag_394\n        /* \"#utility.yul\":17417:17419   */\n      0x15\n        /* \"#utility.yul\":17412:17415   */\n      dup4\n        /* \"#utility.yul\":17353:17420   */\n      tag_210\n      jump\t// in\n    tag_394:\n        /* \"#utility.yul\":17346:17420   */\n      swap2\n      pop\n        /* \"#utility.yul\":17429:17522   */\n      tag_395\n        /* \"#utility.yul\":17518:17521   */\n      dup3\n        /* \"#utility.yul\":17429:17522   */\n      tag_232\n      jump\t// in\n    tag_395:\n        /* \"#utility.yul\":17547:17549   */\n      0x20\n        /* \"#utility.yul\":17542:17545   */\n      dup3\n        /* \"#utility.yul\":17538:17550   */\n      add\n        /* \"#utility.yul\":17531:17550   */\n      swap1\n      pop\n        /* \"#utility.yul\":17190:17556   */\n      swap2\n      swap1\n      pop\n      jump\t// out\n        /* \"#utility.yul\":17562:17981   */\n    tag_139:\n        /* \"#utility.yul\":17728:17732   */\n      0x00\n        /* \"#utility.yul\":17766:17768   */\n      0x20\n        /* \"#utility.yul\":17755:17764   */\n      dup3\n        /* \"#utility.yul\":17751:17769   */\n      add\n        /* \"#utility.yul\":17743:17769   */\n      swap1\n      pop\n        /* \"#utility.yul\":17815:17824   */\n      dup2\n        /* \"#utility.yul\":17809:17813   */\n      dup2\n        /* \"#utility.yul\":17805:17825   */\n      sub\n        /* \"#utility.yul\":17801:17802   */\n      0x00\n        /* \"#utility.yul\":17790:17799   */\n      dup4\n        /* \"#utility.yul\":17786:17803   */\n      add\n        /* \"#utility.yul\":17779:17826   */\n      mstore\n        /* \"#utility.yul\":17843:17974   */\n      tag_397\n        /* \"#utility.yul\":17969:17973   */\n      dup2\n        /* \"#utility.yul\":17843:17974   */\n      tag_233\n      jump\t// in\n    tag_397:\n        /* \"#utility.yul\":17835:17974   */\n      swap1\n      pop\n        /* \"#utility.yul\":17562:17981   */\n      swap2\n      swap1\n      pop\n      jump\t// out\n        /* \"#utility.yul\":17987:18208   */\n    tag_234:\n        /* \"#utility.yul\":18127:18161   */\n      0x616d6f756e7468206d75737420627220677261746572207468616e207a65726f\n        /* \"#utility.yul\":18123:18124   */\n      0x00\n        /* \"#utility.yul\":18115:18121   */\n      dup3\n        /* \"#utility.yul\":18111:18125   */\n      add\n        /* \"#utility.yul\":18104:18162   */\n      mstore\n        /* \"#utility.yul\":18196:18200   */\n      0x2021000000000000000000000000000000000000000000000000000000000000\n        /* \"#utility.yul\":18191:18193   */\n      0x20\n        /* \"#utility.yul\":18183:18189   */\n      dup3\n        /* \"#utility.yul\":18179:18194   */\n      add\n        /* \"#utility.yul\":18172:18201   */\n      mstore\n        /* \"#utility.yul\":17987:18208   */\n      pop\n      jump\t// out\n        /* \"#utility.yul\":18214:18580   */\n    tag_235:\n        /* \"#utility.yul\":18356:18359   */\n      0x00\n        /* \"#utility.yul\":18377:18444   */\n      tag_400\n        /* \"#utility.yul\":18441:18443   */\n      0x22\n        /* \"#utility.yul\":18436:18439   */\n      dup4\n        /* \"#utility.yul\":18377:18444   */\n      tag_210\n      jump\t// in\n    tag_400:\n        /* \"#utility.yul\":18370:18444   */\n      swap2\n      pop\n        /* \"#utility.yul\":18453:18546   */\n      tag_401\n        /* \"#utility.yul\":18542:18545   */\n      dup3\n        /* \"#utility.yul\":18453:18546   */\n      tag_234\n      jump\t// in\n    tag_401:\n        /* \"#utility.yul\":18571:18573   */\n      0x40\n        /* \"#utility.yul\":18566:18569   */\n      dup3\n        /* \"#utility.yul\":18562:18574   */\n      add\n        /* \"#utility.yul\":18555:18574   */\n      swap1\n      pop\n        /* \"#utility.yul\":18214:18580   */\n      swap2\n      swap1\n      pop\n      jump\t// out\n        /* \"#utility.yul\":18586:19005   */\n    tag_165:\n        /* \"#utility.yul\":18752:18756   */\n      0x00\n        /* \"#utility.yul\":18790:18792   */\n      0x20\n        /* \"#utility.yul\":18779:18788   */\n      dup3\n        /* \"#utility.yul\":18775:18793   */\n      add\n        /* \"#utility.yul\":18767:18793   */\n      swap1\n      pop\n        /* \"#utility.yul\":18839:18848   */\n      dup2\n        /* \"#utility.yul\":18833:18837   */\n      dup2\n        /* \"#utility.yul\":18829:18849   */\n      sub\n        /* \"#utility.yul\":18825:18826   */\n      0x00\n        /* \"#utility.yul\":18814:18823   */\n      dup4\n        /* \"#utility.yul\":18810:18827   */\n      add\n        /* \"#utility.yul\":18803:18850   */\n      mstore\n        /* \"#utility.yul\":18867:18998   */\n      tag_403\n        /* \"#utility.yul\":18993:18997   */\n      dup2\n        /* \"#utility.yul\":18867:18998   */\n      tag_235\n      jump\t// in\n    tag_403:\n        /* \"#utility.yul\":18859:18998   */\n      swap1\n      pop\n        /* \"#utility.yul\":18586:19005   */\n      swap2\n      swap1\n      pop\n      jump\t// out\n        /* \"#utility.yul\":19011:19191   */\n    tag_236:\n        /* \"#utility.yul\":19059:19136   */\n      0x4e487b7100000000000000000000000000000000000000000000000000000000\n        /* \"#utility.yul\":19056:19057   */\n      0x00\n        /* \"#utility.yul\":19049:19137   */\n      mstore\n        /* \"#utility.yul\":19156:19160   */\n      0x22\n        /* \"#utility.yul\":19153:19154   */\n      0x04\n        /* \"#utility.yul\":19146:19161   */\n      mstore\n        /* \"#utility.yul\":19180:19184   */\n      0x24\n        /* \"#utility.yul\":19177:19178   */\n      0x00\n        /* \"#utility.yul\":19170:19185   */\n      revert\n        /* \"#utility.yul\":19197:19517   */\n    tag_169:\n        /* \"#utility.yul\":19241:19247   */\n      0x00\n        /* \"#utility.yul\":19278:19279   */\n      0x02\n        /* \"#utility.yul\":19272:19276   */\n      dup3\n        /* \"#utility.yul\":19268:19280   */\n      div\n        /* \"#utility.yul\":19258:19280   */\n      swap1\n      pop\n        /* \"#utility.yul\":19325:19326   */\n      0x01\n        /* \"#utility.yul\":19319:19323   */\n      dup3\n        /* \"#utility.yul\":19315:19327   */\n      and\n        /* \"#utility.yul\":19346:19364   */\n      dup1\n        /* \"#utility.yul\":19336:19417   */\n      tag_406\n      jumpi\n        /* \"#utility.yul\":19402:19406   */\n      0x7f\n        /* \"#utility.yul\":19394:19400   */\n      dup3\n        /* \"#utility.yul\":19390:19407   */\n      and\n        /* \"#utility.yul\":19380:19407   */\n      swap2\n      pop\n        /* \"#utility.yul\":19336:19417   */\n    tag_406:\n        /* \"#utility.yul\":19464:19466   */\n      0x20\n        /* \"#utility.yul\":19456:19462   */\n      dup3\n        /* \"#utility.yul\":19453:19467   */\n      lt\n        /* \"#utility.yul\":19433:19451   */\n      dup2\n        /* \"#utility.yul\":19430:19468   */\n      sub\n        /* \"#utility.yul\":19427:19511   */\n      tag_407\n      jumpi\n        /* \"#utility.yul\":19483:19501   */\n      tag_408\n      tag_236\n      jump\t// in\n    tag_408:\n        /* \"#utility.yul\":19427:19511   */\n    tag_407:\n        /* \"#utility.yul\":19248:19517   */\n      pop\n        /* \"#utility.yul\":19197:19517   */\n      swap2\n      swap1\n      pop\n      jump\t// out\n        /* \"#utility.yul\":19523:19692   */\n    tag_237:\n        /* \"#utility.yul\":19663:19684   */\n      0x656d657267656e63792064656c65637265642100000000000000000000000000\n        /* \"#utility.yul\":19659:19660   */\n      0x00\n        /* \"#utility.yul\":19651:19657   */\n      dup3\n        /* \"#utility.yul\":19647:19661   */\n      add\n        /* \"#utility.yul\":19640:19685   */\n      mstore\n        /* \"#utility.yul\":19523:19692   */\n      pop\n      jump\t// out\n        /* \"#utility.yul\":19698:20064   */\n    tag_238:\n        /* \"#utility.yul\":19840:19843   */\n      0x00\n        /* \"#utility.yul\":19861:19928   */\n      tag_411\n        /* \"#utility.yul\":19925:19927   */\n      0x13\n        /* \"#utility.yul\":19920:19923   */\n      dup4\n        /* \"#utility.yul\":19861:19928   */\n      tag_210\n      jump\t// in\n    tag_411:\n        /* \"#utility.yul\":19854:19928   */\n      swap2\n      pop\n        /* \"#utility.yul\":19937:20030   */\n      tag_412\n        /* \"#utility.yul\":20026:20029   */\n      dup3\n        /* \"#utility.yul\":19937:20030   */\n      tag_237\n      jump\t// in\n    tag_412:\n        /* \"#utility.yul\":20055:20057   */\n      0x20\n        /* \"#utility.yul\":20050:20053   */\n      dup3\n        /* \"#utility.yul\":20046:20058   */\n      add\n        /* \"#utility.yul\":20039:20058   */\n      swap1\n      pop\n        /* \"#utility.yul\":19698:20064   */\n      swap2\n      swap1\n      pop\n      jump\t// out\n        /* \"#utility.yul\":20070:20489   */\n    tag_180:\n        /* \"#utility.yul\":20236:20240   */\n      0x00\n        /* \"#utility.yul\":20274:20276   */\n      0x20\n        /* \"#utility.yul\":20263:20272   */\n      dup3\n        /* \"#utility.yul\":20259:20277   */\n      add\n        /* \"#utility.yul\":20251:20277   */\n      swap1\n      pop\n        /* \"#utility.yul\":20323:20332   */\n      dup2\n        /* \"#utility.yul\":20317:20321   */\n      dup2\n        /* \"#utility.yul\":20313:20333   */\n      sub\n        /* \"#utility.yul\":20309:20310   */\n      0x00\n        /* \"#utility.yul\":20298:20307   */\n      dup4\n        /* \"#utility.yul\":20294:20311   */\n      add\n        /* \"#utility.yul\":20287:20334   */\n      mstore\n        /* \"#utility.yul\":20351:20482   */\n      tag_414\n        /* \"#utility.yul\":20477:20481   */\n      dup2\n        /* \"#utility.yul\":20351:20482   */\n      tag_238\n      jump\t// in\n    tag_414:\n        /* \"#utility.yul\":20343:20482   */\n      swap1\n      pop\n        /* \"#utility.yul\":20070:20489   */\n      swap2\n      swap1\n      pop\n      jump\t// out\n        /* \"#utility.yul\":20495:20661   */\n    tag_239:\n        /* \"#utility.yul\":20635:20653   */\n      0x496e76616c696420616464726573732100000000000000000000000000000000\n        /* \"#utility.yul\":20631:20632   */\n      0x00\n        /* \"#utility.yul\":20623:20629   */\n      dup3\n        /* \"#utility.yul\":20619:20633   */\n      add\n        /* \"#utility.yul\":20612:20654   */\n      mstore\n        /* \"#utility.yul\":20495:20661   */\n      pop\n      jump\t// out\n        /* \"#utility.yul\":20667:21033   */\n    tag_240:\n        /* \"#utility.yul\":20809:20812   */\n      0x00\n        /* \"#utility.yul\":20830:20897   */\n      tag_417\n        /* \"#utility.yul\":20894:20896   */\n      0x10\n        /* \"#utility.yul\":20889:20892   */\n      dup4\n        /* \"#utility.yul\":20830:20897   */\n      tag_210\n      jump\t// in\n    tag_417:\n        /* \"#utility.yul\":20823:20897   */\n      swap2\n      pop\n        /* \"#utility.yul\":20906:20999   */\n      tag_418\n        /* \"#utility.yul\":20995:20998   */\n      dup3\n        /* \"#utility.yul\":20906:20999   */\n      tag_239\n      jump\t// in\n    tag_418:\n        /* \"#utility.yul\":21024:21026   */\n      0x20\n        /* \"#utility.yul\":21019:21022   */\n      dup3\n        /* \"#utility.yul\":21015:21027   */\n      add\n        /* \"#utility.yul\":21008:21027   */\n      swap1\n      pop\n        /* \"#utility.yul\":20667:21033   */\n      swap2\n      swap1\n      pop\n      jump\t// out\n        /* \"#utility.yul\":21039:21458   */\n    tag_184:\n        /* \"#utility.yul\":21205:21209   */\n      0x00\n        /* \"#utility.yul\":21243:21245   */\n      0x20\n        /* \"#utility.yul\":21232:21241   */\n      dup3\n        /* \"#utility.yul\":21228:21246   */\n      add\n        /* \"#utility.yul\":21220:21246   */\n      swap1\n      pop\n        /* \"#utility.yul\":21292:21301   */\n      dup2\n        /* \"#utility.yul\":21286:21290   */\n      dup2\n        /* \"#utility.yul\":21282:21302   */\n      sub\n        /* \"#utility.yul\":21278:21279   */\n      0x00\n        /* \"#utility.yul\":21267:21276   */\n      dup4\n        /* \"#utility.yul\":21263:21280   */\n      add\n        /* \"#utility.yul\":21256:21303   */\n      mstore\n        /* \"#utility.yul\":21320:21451   */\n      tag_420\n        /* \"#utility.yul\":21446:21450   */\n      dup2\n        /* \"#utility.yul\":21320:21451   */\n      tag_240\n      jump\t// in\n    tag_420:\n        /* \"#utility.yul\":21312:21451   */\n      swap1\n      pop\n        /* \"#utility.yul\":21039:21458   */\n      swap2\n      swap1\n      pop\n      jump\t// out\n\n    auxdata: 0xa26469706673582212205926b04ff2505c514ba8ddc7f02574771eb39fadefe9f7244ef693e291fd5be964736f6c634300081f0033\n}\n",
				"bytecode": {
					"linkReferences": {},
					"object": "60806040525f60055f6101000a81548160ff0219169083151502179055503480156027575f5ffd5b503360015f6101000a81548173ffffffffffffffffffffffffffffffffffffffff021916908373ffffffffffffffffffffffffffffffffffffffff160217905550611c00806100755f395ff3fe608060405260043610610101575f3560e01c8063a299ed9911610094578063bfa698de11610063578063bfa698de146102ff578063cf87f05214610329578063d2b5394814610351578063e21f37ce1461035b578063eb2d9fd31461038557610141565b8063a299ed9914610259578063aeae547d14610283578063b76d4fc3146102ab578063b83f8663146102d557610141565b80637935e5a3116100d05780637935e5a3146101c457806379546275146101da5780638da5cb5b146102195780639a70eef11461024357610141565b806312cccb341461014c57806347cdcc1f14610156578063547fbe8e1461017e5780636f3f42ac146101a857610141565b36610141577fd6717f327e0cb88b4a97a7f67a453e9258252c34937ccbdd86de7cb840e7def3333460405161013792919061122c565b60405180910390a1005b61014a336103ad565b005b610154610404565b005b348015610161575f5ffd5b5061017c600480360381019061017791906112bc565b61051a565b005b348015610189575f5ffd5b506101926107ef565b60405161019f91906112fa565b60405180910390f35b6101c260048036038101906101bd9190611313565b61082e565b005b3480156101cf575f5ffd5b506101d86109a2565b005b3480156101e5575f5ffd5b5061020060048036038101906101fb919061133e565b610a5e565b6040516102109493929190611369565b60405180910390f35b348015610224575f5ffd5b5061022d610ad6565b60405161023a91906113ac565b60405180910390f35b34801561024e575f5ffd5b50610257610afb565b005b348015610264575f5ffd5b5061026d610bb4565b60405161027a91906112fa565b60405180910390f35b34801561028e575f5ffd5b506102a960048036038101906102a4919061133e565b610bba565b005b3480156102b6575f5ffd5b506102bf610de7565b6040516102cc91906114de565b60405180910390f35b3480156102e0575f5ffd5b506102e9610eff565b6040516102f691906112fa565b60405180910390f35b34801561030a575f5ffd5b50610313610f05565b60405161032091906112fa565b60405180910390f35b348015610334575f5ffd5b5061034f600480360381019061034a9190611528565b6103ad565b005b610359610f0c565b005b348015610366575f5ffd5b5061036f610fb5565b60405161037c91906115c3565b60405180910390f35b348015610390575f5ffd5b506103ab60048036038101906103a69190611528565b611041565b005b600160065f8373ffffffffffffffffffffffffffffffffffffffff1673ffffffffffffffffffffffffffffffffffffffff1681526020019081526020015f205f8282546103fa9190611610565b9250508190555050565b5f60405180608001604052803073ffffffffffffffffffffffffffffffffffffffff1681526020013373ffffffffffffffffffffffffffffffffffffffff16815260200142815260200134815250908060018154018082558091505060019003905f5260205f2090600402015f909190919091505f820151815f015f6101000a81548173ffffffffffffffffffffffffffffffffffffffff021916908373ffffffffffffffffffffffffffffffffffffffff1602179055506020820151816001015f6101000a81548173ffffffffffffffffffffffffffffffffffffffff021916908373ffffffffffffffffffffffffffffffffffffffff16021790555060408201518160020155606082015181600301555050565b3373ffffffffffffffffffffffffffffffffffffffff1660015f9054906101000a900473ffffffffffffffffffffffffffffffffffffffff1673ffffffffffffffffffffffffffffffffffffffff16146105a9576040517feb1cd1d10000000000000000000000000000000000000000000000000000000081526004016105a0906116b3565b60405180910390fd5b804710156105ec576040517f08c379a00000000000000000000000000000000000000000000000000000000081526004016105e39061171b565b60405180910390fd5b5f73ffffffffffffffffffffffffffffffffffffffff168273ffffffffffffffffffffffffffffffffffffffff160361065a576040517f08c379a000000000000000000000000000000000000000000000000000000000815260040161065190611783565b60405180910390fd5b7f69ca02dd4edd7bf0a4abb9ed3b7af3f14778db5d61921c7dc7cd545266326de2828260405161068b9291906117fc565b60405180910390a15f60405180608001604052808473ffffffffffffffffffffffffffffffffffffffff1681526020013373ffffffffffffffffffffffffffffffffffffffff16815260200142815260200183815250908060018154018082558091505060019003905f5260205f2090600402015f909190919091505f820151815f015f6101000a81548173ffffffffffffffffffffffffffffffffffffffff021916908373ffffffffffffffffffffffffffffffffffffffff1602179055506020820151816001015f6101000a81548173ffffffffffffffffffffffffffffffffffffffff021916908373ffffffffffffffffffffffffffffffffffffffff160217905550604082015181600201556060820151816003015550508173ffffffffffffffffffffffffffffffffffffffff166108fc8290811502906040515f60405180830381858888f193505050501580156107ea573d5f5f3e3d5ffd5b505050565b5f60015f9054906101000a900473ffffffffffffffffffffffffffffffffffffffff1673ffffffffffffffffffffffffffffffffffffffff1631905090565b33600460065f8373ffffffffffffffffffffffffffffffffffffffff1673ffffffffffffffffffffffffffffffffffffffff1681526020019081526020015f2054106108af576040517f08c379a00000000000000000000000000000000000000000000000000000000081526004016108a690611893565b60405180910390fd5b47600281905550344710156108f9576040517f08c379a00000000000000000000000000000000000000000000000000000000081526004016108f090611921565b60405180910390fd5b343373ffffffffffffffffffffffffffffffffffffffff16311015610953576040517f08c379a000000000000000000000000000000000000000000000000000000000815260040161094a90611989565b60405180910390fd5b8173ffffffffffffffffffffffffffffffffffffffff166108fc3490811502906040515f60405180830381858888f19350505050158015610996573d5f5f3e3d5ffd5b50476003819055505050565b6001151560055f9054906101000a900460ff161515146109f7576040517f08c379a00000000000000000000000000000000000000000000000000000000081526004016109ee906119f1565b60405180910390fd5b60015f9054906101000a900473ffffffffffffffffffffffffffffffffffffffff1673ffffffffffffffffffffffffffffffffffffffff166108fc4790811502906040515f60405180830381858888f19350505050158015610a5b573d5f5f3e3d5ffd5b50565b5f8181548110610a6c575f80fd5b905f5260205f2090600402015f91509050805f015f9054906101000a900473ffffffffffffffffffffffffffffffffffffffff1690806001015f9054906101000a900473ffffffffffffffffffffffffffffffffffffffff16908060020154908060030154905084565b60015f9054906101000a900473ffffffffffffffffffffffffffffffffffffffff1681565b3373ffffffffffffffffffffffffffffffffffffffff1660015f9054906101000a900473ffffffffffffffffffffffffffffffffffffffff1673ffffffffffffffffffffffffffffffffffffffff1614610b8a576040517feb1cd1d1000000000000000000000000000000000000000000000000000000008152600401610b81906116b3565b60405180910390fd5b60055f9054906101000a900460ff161560055f6101000a81548160ff021916908315150217905550565b60035481565b3373ffffffffffffffffffffffffffffffffffffffff1660015f9054906101000a900473ffffffffffffffffffffffffffffffffffffffff1673ffffffffffffffffffffffffffffffffffffffff1614610c49576040517feb1cd1d1000000000000000000000000000000000000000000000000000000008152600401610c40906116b3565b60405180910390fd5b80471015610c8c576040517f08c379a0000000000000000000000000000000000000000000000000000000008152600401610c839061171b565b60405180910390fd5b3373ffffffffffffffffffffffffffffffffffffffff166108fc8290811502906040515f60405180830381858888f19350505050158015610ccf573d5f5f3e3d5ffd5b505f60405180608001604052803373ffffffffffffffffffffffffffffffffffffffff1681526020013073ffffffffffffffffffffffffffffffffffffffff16815260200142815260200183815250908060018154018082558091505060019003905f5260205f2090600402015f909190919091505f820151815f015f6101000a81548173ffffffffffffffffffffffffffffffffffffffff021916908373ffffffffffffffffffffffffffffffffffffffff1602179055506020820151816001015f6101000a81548173ffffffffffffffffffffffffffffffffffffffff021916908373ffffffffffffffffffffffffffffffffffffffff1602179055506040820151816002015560608201518160030155505050565b60605f805480602002602001604051908101604052809291908181526020015f905b82821015610ef6578382905f5260205f2090600402016040518060800160405290815f82015f9054906101000a900473ffffffffffffffffffffffffffffffffffffffff1673ffffffffffffffffffffffffffffffffffffffff1673ffffffffffffffffffffffffffffffffffffffff168152602001600182015f9054906101000a900473ffffffffffffffffffffffffffffffffffffffff1673ffffffffffffffffffffffffffffffffffffffff1673ffffffffffffffffffffffffffffffffffffffff1681526020016002820154815260200160038201548152505081526020019060010190610e09565b50505050905090565b60025481565b5f47905090565b5f3411610f4e576040517f08c379a0000000000000000000000000000000000000000000000000000000008152600401610f4590611a7f565b60405180910390fd5b60015f9054906101000a900473ffffffffffffffffffffffffffffffffffffffff1673ffffffffffffffffffffffffffffffffffffffff166108fc3490811502906040515f60405180830381858888f19350505050158015610fb2573d5f5f3e3d5ffd5b50565b60048054610fc290611aca565b80601f0160208091040260200160405190810160405280929190818152602001828054610fee90611aca565b80156110395780601f1061101057610100808354040283529160200191611039565b820191905f5260205f20905b81548152906001019060200180831161101c57829003601f168201915b505050505081565b3373ffffffffffffffffffffffffffffffffffffffff1660015f9054906101000a900473ffffffffffffffffffffffffffffffffffffffff1673ffffffffffffffffffffffffffffffffffffffff16146110d0576040517feb1cd1d10000000000000000000000000000000000000000000000000000000081526004016110c7906116b3565b60405180910390fd5b5f151560055f9054906101000a900460ff16151514611124576040517f08c379a000000000000000000000000000000000000000000000000000000000815260040161111b90611b44565b60405180910390fd5b5f73ffffffffffffffffffffffffffffffffffffffff168173ffffffffffffffffffffffffffffffffffffffff1603611192576040517f08c379a000000000000000000000000000000000000000000000000000000000815260040161118990611bac565b60405180910390fd5b8060015f6101000a81548173ffffffffffffffffffffffffffffffffffffffff021916908373ffffffffffffffffffffffffffffffffffffffff16021790555050565b5f73ffffffffffffffffffffffffffffffffffffffff82169050919050565b5f6111fe826111d5565b9050919050565b61120e816111f4565b82525050565b5f819050919050565b61122681611214565b82525050565b5f60408201905061123f5f830185611205565b61124c602083018461121d565b9392505050565b5f5ffd5b5f611261826111d5565b9050919050565b61127181611257565b811461127b575f5ffd5b50565b5f8135905061128c81611268565b92915050565b61129b81611214565b81146112a5575f5ffd5b50565b5f813590506112b681611292565b92915050565b5f5f604083850312156112d2576112d1611253565b5b5f6112df8582860161127e565b92505060206112f0858286016112a8565b9150509250929050565b5f60208201905061130d5f83018461121d565b92915050565b5f6020828403121561132857611327611253565b5b5f6113358482850161127e565b91505092915050565b5f6020828403121561135357611352611253565b5b5f611360848285016112a8565b91505092915050565b5f60808201905061137c5f830187611205565b6113896020830186611205565b611396604083018561121d565b6113a3606083018461121d565b95945050505050565b5f6020820190506113bf5f830184611205565b92915050565b5f81519050919050565b5f82825260208201905092915050565b5f819050602082019050919050565b6113f7816111f4565b82525050565b61140681611214565b82525050565b608082015f8201516114205f8501826113ee565b50602082015161143360208501826113ee565b50604082015161144660408501826113fd565b50606082015161145960608501826113fd565b50505050565b5f61146a838361140c565b60808301905092915050565b5f602082019050919050565b5f61148c826113c5565b61149681856113cf565b93506114a1836113df565b805f5b838110156114d15781516114b8888261145f565b97506114c383611476565b9250506001810190506114a4565b5085935050505092915050565b5f6020820190508181035f8301526114f68184611482565b905092915050565b611507816111f4565b8114611511575f5ffd5b50565b5f81359050611522816114fe565b92915050565b5f6020828403121561153d5761153c611253565b5b5f61154a84828501611514565b91505092915050565b5f81519050919050565b5f82825260208201905092915050565b8281835e5f83830152505050565b5f601f19601f8301169050919050565b5f61159582611553565b61159f818561155d565b93506115af81856020860161156d565b6115b88161157b565b840191505092915050565b5f6020820190508181035f8301526115db818461158b565b905092915050565b7f4e487b71000000000000000000000000000000000000000000000000000000005f52601160045260245ffd5b5f61161a82611214565b915061162583611214565b925082820190508082111561163d5761163c6115e3565b5b92915050565b7f616363657373206465736d6973736564202120796f7520617265206e6f74204f5f8201527f776e657200000000000000000000000000000000000000000000000000000000602082015250565b5f61169d60248361155d565b91506116a882611643565b604082019050919050565b5f6020820190508181035f8301526116ca81611691565b9050919050565b7f756e737566666963656e65742062616c616e63652100000000000000000000005f82015250565b5f61170560158361155d565b9150611710826116d1565b602082019050919050565b5f6020820190508181035f830152611732816116f9565b9050919050565b7f4164647265737320697320696e76616c696420636865636b206f6e63657321005f82015250565b5f61176d601f8361155d565b915061177882611739565b602082019050919050565b5f6020820190508181035f83015261179a81611761565b9050919050565b5f819050919050565b5f6117c46117bf6117ba846111d5565b6117a1565b6111d5565b9050919050565b5f6117d5826117aa565b9050919050565b5f6117e6826117cb565b9050919050565b6117f6816117dc565b82525050565b5f60408201905061180f5f8301856117ed565b61181c602083018461121d565b9392505050565b7f416374697669747920666f756e6420737573706963696f757320202c20626c6f5f8201527f636b20666f722031206461790000000000000000000000000000000000000000602082015250565b5f61187d602c8361155d565b915061188882611823565b604082019050919050565b5f6020820190508181035f8301526118aa81611871565b9050919050565b7f20756e737566666963656e742062616c616e6365203d3e20636f6e747261636b5f8201527f2100000000000000000000000000000000000000000000000000000000000000602082015250565b5f61190b60218361155d565b9150611916826118b1565b604082019050919050565b5f6020820190508181035f830152611938816118ff565b9050919050565b7f20756e737566666963656e742062616c616e6365203d3e2075736572210000005f82015250565b5f611973601d8361155d565b915061197e8261193f565b602082019050919050565b5f6020820190508181035f8301526119a081611967565b9050919050565b7f656d657267656e6379206e6f7420646566696e642100000000000000000000005f82015250565b5f6119db60158361155d565b91506119e6826119a7565b602082019050919050565b5f6020820190508181035f830152611a08816119cf565b9050919050565b7f616d6f756e7468206d75737420627220677261746572207468616e207a65726f5f8201527f2021000000000000000000000000000000000000000000000000000000000000602082015250565b5f611a6960228361155d565b9150611a7482611a0f565b604082019050919050565b5f6020820190508181035f830152611a9681611a5d565b9050919050565b7f4e487b71000000000000000000000000000000000000000000000000000000005f52602260045260245ffd5b5f6002820490506001821680611ae157607f821691505b602082108103611af457611af3611a9d565b5b50919050565b7f656d657267656e63792064656c656372656421000000000000000000000000005f82015250565b5f611b2e60138361155d565b9150611b3982611afa565b602082019050919050565b5f6020820190508181035f830152611b5b81611b22565b9050919050565b7f496e76616c6964206164647265737321000000000000000000000000000000005f82015250565b5f611b9660108361155d565b9150611ba182611b62565b602082019050919050565b5f6020820190508181035f830152611bc381611b8a565b905091905056fea26469706673582212205926b04ff2505c514ba8ddc7f02574771eb39fadefe9f7244ef693e291fd5be964736f6c634300081f0033",
					"opcodes": "PUSH1 0x80 PUSH1 0x40 MSTORE PUSH0 PUSH1 0x5 PUSH0 PUSH2 0x100 EXP DUP2 SLOAD DUP2 PUSH1 0xFF MUL NOT AND SWAP1 DUP4 ISZERO ISZERO MUL OR SWAP1 SSTORE POP CALLVALUE DUP1 ISZERO PUSH1 0x27 JUMPI PUSH0 PUSH0 REVERT JUMPDEST POP CALLER PUSH1 0x1 PUSH0 PUSH2 0x100 EXP DUP2 SLOAD DUP2 PUSH20 0xFFFFFFFFFFFFFFFFFFFFFFFFFFFFFFFFFFFFFFFF MUL NOT AND SWAP1 DUP4 PUSH20 0xFFFFFFFFFFFFFFFFFFFFFFFFFFFFFFFFFFFFFFFF AND MUL OR SWAP1 SSTORE POP PUSH2 0x1C00 DUP1 PUSH2 0x75 PUSH0 CODECOPY PUSH0 RETURN INVALID PUSH1 0x80 PUSH1 0x40 MSTORE PUSH1 0x4 CALLDATASIZE LT PUSH2 0x101 JUMPI PUSH0 CALLDATALOAD PUSH1 0xE0 SHR DUP1 PUSH4 0xA299ED99 GT PUSH2 0x94 JUMPI DUP1 PUSH4 0xBFA698DE GT PUSH2 0x63 JUMPI DUP1 PUSH4 0xBFA698DE EQ PUSH2 0x2FF JUMPI DUP1 PUSH4 0xCF87F052 EQ PUSH2 0x329 JUMPI DUP1 PUSH4 0xD2B53948 EQ PUSH2 0x351 JUMPI DUP1 PUSH4 0xE21F37CE EQ PUSH2 0x35B JUMPI DUP1 PUSH4 0xEB2D9FD3 EQ PUSH2 0x385 JUMPI PUSH2 0x141 JUMP JUMPDEST DUP1 PUSH4 0xA299ED99 EQ PUSH2 0x259 JUMPI DUP1 PUSH4 0xAEAE547D EQ PUSH2 0x283 JUMPI DUP1 PUSH4 0xB76D4FC3 EQ PUSH2 0x2AB JUMPI DUP1 PUSH4 0xB83F8663 EQ PUSH2 0x2D5 JUMPI PUSH2 0x141 JUMP JUMPDEST DUP1 PUSH4 0x7935E5A3 GT PUSH2 0xD0 JUMPI DUP1 PUSH4 0x7935E5A3 EQ PUSH2 0x1C4 JUMPI DUP1 PUSH4 0x79546275 EQ PUSH2 0x1DA JUMPI DUP1 PUSH4 0x8DA5CB5B EQ PUSH2 0x219 JUMPI DUP1 PUSH4 0x9A70EEF1 EQ PUSH2 0x243 JUMPI PUSH2 0x141 JUMP JUMPDEST DUP1 PUSH4 0x12CCCB34 EQ PUSH2 0x14C JUMPI DUP1 PUSH4 0x47CDCC1F EQ PUSH2 0x156 JUMPI DUP1 PUSH4 0x547FBE8E EQ PUSH2 0x17E JUMPI DUP1 PUSH4 0x6F3F42AC EQ PUSH2 0x1A8 JUMPI PUSH2 0x141 JUMP JUMPDEST CALLDATASIZE PUSH2 0x141 JUMPI PUSH32 0xD6717F327E0CB88B4A97A7F67A453E9258252C34937CCBDD86DE7CB840E7DEF3 CALLER CALLVALUE PUSH1 0x40 MLOAD PUSH2 0x137 SWAP3 SWAP2 SWAP1 PUSH2 0x122C JUMP JUMPDEST PUSH1 0x40 MLOAD DUP1 SWAP2 SUB SWAP1 LOG1 STOP JUMPDEST PUSH2 0x14A CALLER PUSH2 0x3AD JUMP JUMPDEST STOP JUMPDEST PUSH2 0x154 PUSH2 0x404 JUMP JUMPDEST STOP JUMPDEST CALLVALUE DUP1 ISZERO PUSH2 0x161 JUMPI PUSH0 PUSH0 REVERT JUMPDEST POP PUSH2 0x17C PUSH1 0x4 DUP1 CALLDATASIZE SUB DUP2 ADD SWAP1 PUSH2 0x177 SWAP2 SWAP1 PUSH2 0x12BC JUMP JUMPDEST PUSH2 0x51A JUMP JUMPDEST STOP JUMPDEST CALLVALUE DUP1 ISZERO PUSH2 0x189 JUMPI PUSH0 PUSH0 REVERT JUMPDEST POP PUSH2 0x192 PUSH2 0x7EF JUMP JUMPDEST PUSH1 0x40 MLOAD PUSH2 0x19F SWAP2 SWAP1 PUSH2 0x12FA JUMP JUMPDEST PUSH1 0x40 MLOAD DUP1 SWAP2 SUB SWAP1 RETURN JUMPDEST PUSH2 0x1C2 PUSH1 0x4 DUP1 CALLDATASIZE SUB DUP2 ADD SWAP1 PUSH2 0x1BD SWAP2 SWAP1 PUSH2 0x1313 JUMP JUMPDEST PUSH2 0x82E JUMP JUMPDEST STOP JUMPDEST CALLVALUE DUP1 ISZERO PUSH2 0x1CF JUMPI PUSH0 PUSH0 REVERT JUMPDEST POP PUSH2 0x1D8 PUSH2 0x9A2 JUMP JUMPDEST STOP JUMPDEST CALLVALUE DUP1 ISZERO PUSH2 0x1E5 JUMPI PUSH0 PUSH0 REVERT JUMPDEST POP PUSH2 0x200 PUSH1 0x4 DUP1 CALLDATASIZE SUB DUP2 ADD SWAP1 PUSH2 0x1FB SWAP2 SWAP1 PUSH2 0x133E JUMP JUMPDEST PUSH2 0xA5E JUMP JUMPDEST PUSH1 0x40 MLOAD PUSH2 0x210 SWAP5 SWAP4 SWAP3 SWAP2 SWAP1 PUSH2 0x1369 JUMP JUMPDEST PUSH1 0x40 MLOAD DUP1 SWAP2 SUB SWAP1 RETURN JUMPDEST CALLVALUE DUP1 ISZERO PUSH2 0x224 JUMPI PUSH0 PUSH0 REVERT JUMPDEST POP PUSH2 0x22D PUSH2 0xAD6 JUMP JUMPDEST PUSH1 0x40 MLOAD PUSH2 0x23A SWAP2 SWAP1 PUSH2 0x13AC JUMP JUMPDEST PUSH1 0x40 MLOAD DUP1 SWAP2 SUB SWAP1 RETURN JUMPDEST CALLVALUE DUP1 ISZERO PUSH2 0x24E JUMPI PUSH0 PUSH0 REVERT JUMPDEST POP PUSH2 0x257 PUSH2 0xAFB JUMP JUMPDEST STOP JUMPDEST CALLVALUE DUP1 ISZERO PUSH2 0x264 JUMPI PUSH0 PUSH0 REVERT JUMPDEST POP PUSH2 0x26D PUSH2 0xBB4 JUMP JUMPDEST PUSH1 0x40 MLOAD PUSH2 0x27A SWAP2 SWAP1 PUSH2 0x12FA JUMP JUMPDEST PUSH1 0x40 MLOAD DUP1 SWAP2 SUB SWAP1 RETURN JUMPDEST CALLVALUE DUP1 ISZERO PUSH2 0x28E JUMPI PUSH0 PUSH0 REVERT JUMPDEST POP PUSH2 0x2A9 PUSH1 0x4 DUP1 CALLDATASIZE SUB DUP2 ADD SWAP1 PUSH2 0x2A4 SWAP2 SWAP1 PUSH2 0x133E JUMP JUMPDEST PUSH2 0xBBA JUMP JUMPDEST STOP JUMPDEST CALLVALUE DUP1 ISZERO PUSH2 0x2B6 JUMPI PUSH0 PUSH0 REVERT JUMPDEST POP PUSH2 0x2BF PUSH2 0xDE7 JUMP JUMPDEST PUSH1 0x40 MLOAD PUSH2 0x2CC SWAP2 SWAP1 PUSH2 0x14DE JUMP JUMPDEST PUSH1 0x40 MLOAD DUP1 SWAP2 SUB SWAP1 RETURN JUMPDEST CALLVALUE DUP1 ISZERO PUSH2 0x2E0 JUMPI PUSH0 PUSH0 REVERT JUMPDEST POP PUSH2 0x2E9 PUSH2 0xEFF JUMP JUMPDEST PUSH1 0x40 MLOAD PUSH2 0x2F6 SWAP2 SWAP1 PUSH2 0x12FA JUMP JUMPDEST PUSH1 0x40 MLOAD DUP1 SWAP2 SUB SWAP1 RETURN JUMPDEST CALLVALUE DUP1 ISZERO PUSH2 0x30A JUMPI PUSH0 PUSH0 REVERT JUMPDEST POP PUSH2 0x313 PUSH2 0xF05 JUMP JUMPDEST PUSH1 0x40 MLOAD PUSH2 0x320 SWAP2 SWAP1 PUSH2 0x12FA JUMP JUMPDEST PUSH1 0x40 MLOAD DUP1 SWAP2 SUB SWAP1 RETURN JUMPDEST CALLVALUE DUP1 ISZERO PUSH2 0x334 JUMPI PUSH0 PUSH0 REVERT JUMPDEST POP PUSH2 0x34F PUSH1 0x4 DUP1 CALLDATASIZE SUB DUP2 ADD SWAP1 PUSH2 0x34A SWAP2 SWAP1 PUSH2 0x1528 JUMP JUMPDEST PUSH2 0x3AD JUMP JUMPDEST STOP JUMPDEST PUSH2 0x359 PUSH2 0xF0C JUMP JUMPDEST STOP JUMPDEST CALLVALUE DUP1 ISZERO PUSH2 0x366 JUMPI PUSH0 PUSH0 REVERT JUMPDEST POP PUSH2 0x36F PUSH2 0xFB5 JUMP JUMPDEST PUSH1 0x40 MLOAD PUSH2 0x37C SWAP2 SWAP1 PUSH2 0x15C3 JUMP JUMPDEST PUSH1 0x40 MLOAD DUP1 SWAP2 SUB SWAP1 RETURN JUMPDEST CALLVALUE DUP1 ISZERO PUSH2 0x390 JUMPI PUSH0 PUSH0 REVERT JUMPDEST POP PUSH2 0x3AB PUSH1 0x4 DUP1 CALLDATASIZE SUB DUP2 ADD SWAP1 PUSH2 0x3A6 SWAP2 SWAP1 PUSH2 0x1528 JUMP JUMPDEST PUSH2 0x1041 JUMP JUMPDEST STOP JUMPDEST PUSH1 0x1 PUSH1 0x6 PUSH0 DUP4 PUSH20 0xFFFFFFFFFFFFFFFFFFFFFFFFFFFFFFFFFFFFFFFF AND PUSH20 0xFFFFFFFFFFFFFFFFFFFFFFFFFFFFFFFFFFFFFFFF AND DUP2 MSTORE PUSH1 0x20 ADD SWAP1 DUP2 MSTORE PUSH1 0x20 ADD PUSH0 KECCAK256 PUSH0 DUP3 DUP3 SLOAD PUSH2 0x3FA SWAP2 SWAP1 PUSH2 0x1610 JUMP JUMPDEST SWAP3 POP POP DUP2 SWAP1 SSTORE POP POP JUMP JUMPDEST PUSH0 PUSH1 0x40 MLOAD DUP1 PUSH1 0x80 ADD PUSH1 0x40 MSTORE DUP1 ADDRESS PUSH20 0xFFFFFFFFFFFFFFFFFFFFFFFFFFFFFFFFFFFFFFFF AND DUP2 MSTORE PUSH1 0x20 ADD CALLER PUSH20 0xFFFFFFFFFFFFFFFFFFFFFFFFFFFFFFFFFFFFFFFF AND DUP2 MSTORE PUSH1 0x20 ADD TIMESTAMP DUP2 MSTORE PUSH1 0x20 ADD CALLVALUE DUP2 MSTORE POP SWAP1 DUP1 PUSH1 0x1 DUP2 SLOAD ADD DUP1 DUP3 SSTORE DUP1 SWAP2 POP POP PUSH1 0x1 SWAP1 SUB SWAP1 PUSH0 MSTORE PUSH1 0x20 PUSH0 KECCAK256 SWAP1 PUSH1 0x4 MUL ADD PUSH0 SWAP1 SWAP2 SWAP1 SWAP2 SWAP1 SWAP2 POP PUSH0 DUP3 ADD MLOAD DUP2 PUSH0 ADD PUSH0 PUSH2 0x100 EXP DUP2 SLOAD DUP2 PUSH20 0xFFFFFFFFFFFFFFFFFFFFFFFFFFFFFFFFFFFFFFFF MUL NOT AND SWAP1 DUP4 PUSH20 0xFFFFFFFFFFFFFFFFFFFFFFFFFFFFFFFFFFFFFFFF AND MUL OR SWAP1 SSTORE POP PUSH1 0x20 DUP3 ADD MLOAD DUP2 PUSH1 0x1 ADD PUSH0 PUSH2 0x100 EXP DUP2 SLOAD DUP2 PUSH20 0xFFFFFFFFFFFFFFFFFFFFFFFFFFFFFFFFFFFFFFFF MUL NOT AND SWAP1 DUP4 PUSH20 0xFFFFFFFFFFFFFFFFFFFFFFFFFFFFFFFFFFFFFFFF AND MUL OR SWAP1 SSTORE POP PUSH1 0x40 DUP3 ADD MLOAD DUP2 PUSH1 0x2 ADD SSTORE PUSH1 0x60 DUP3 ADD MLOAD DUP2 PUSH1 0x3 ADD SSTORE POP POP JUMP JUMPDEST CALLER PUSH20 0xFFFFFFFFFFFFFFFFFFFFFFFFFFFFFFFFFFFFFFFF AND PUSH1 0x1 PUSH0 SWAP1 SLOAD SWAP1 PUSH2 0x100 EXP SWAP1 DIV PUSH20 0xFFFFFFFFFFFFFFFFFFFFFFFFFFFFFFFFFFFFFFFF AND PUSH20 0xFFFFFFFFFFFFFFFFFFFFFFFFFFFFFFFFFFFFFFFF AND EQ PUSH2 0x5A9 JUMPI PUSH1 0x40 MLOAD PUSH32 0xEB1CD1D100000000000000000000000000000000000000000000000000000000 DUP2 MSTORE PUSH1 0x4 ADD PUSH2 0x5A0 SWAP1 PUSH2 0x16B3 JUMP JUMPDEST PUSH1 0x40 MLOAD DUP1 SWAP2 SUB SWAP1 REVERT JUMPDEST DUP1 SELFBALANCE LT ISZERO PUSH2 0x5EC JUMPI PUSH1 0x40 MLOAD PUSH32 0x8C379A000000000000000000000000000000000000000000000000000000000 DUP2 MSTORE PUSH1 0x4 ADD PUSH2 0x5E3 SWAP1 PUSH2 0x171B JUMP JUMPDEST PUSH1 0x40 MLOAD DUP1 SWAP2 SUB SWAP1 REVERT JUMPDEST PUSH0 PUSH20 0xFFFFFFFFFFFFFFFFFFFFFFFFFFFFFFFFFFFFFFFF AND DUP3 PUSH20 0xFFFFFFFFFFFFFFFFFFFFFFFFFFFFFFFFFFFFFFFF AND SUB PUSH2 0x65A JUMPI PUSH1 0x40 MLOAD PUSH32 0x8C379A000000000000000000000000000000000000000000000000000000000 DUP2 MSTORE PUSH1 0x4 ADD PUSH2 0x651 SWAP1 PUSH2 0x1783 JUMP JUMPDEST PUSH1 0x40 MLOAD DUP1 SWAP2 SUB SWAP1 REVERT JUMPDEST PUSH32 0x69CA02DD4EDD7BF0A4ABB9ED3B7AF3F14778DB5D61921C7DC7CD545266326DE2 DUP3 DUP3 PUSH1 0x40 MLOAD PUSH2 0x68B SWAP3 SWAP2 SWAP1 PUSH2 0x17FC JUMP JUMPDEST PUSH1 0x40 MLOAD DUP1 SWAP2 SUB SWAP1 LOG1 PUSH0 PUSH1 0x40 MLOAD DUP1 PUSH1 0x80 ADD PUSH1 0x40 MSTORE DUP1 DUP5 PUSH20 0xFFFFFFFFFFFFFFFFFFFFFFFFFFFFFFFFFFFFFFFF AND DUP2 MSTORE PUSH1 0x20 ADD CALLER PUSH20 0xFFFFFFFFFFFFFFFFFFFFFFFFFFFFFFFFFFFFFFFF AND DUP2 MSTORE PUSH1 0x20 ADD TIMESTAMP DUP2 MSTORE PUSH1 0x20 ADD DUP4 DUP2 MSTORE POP SWAP1 DUP1 PUSH1 0x1 DUP2 SLOAD ADD DUP1 DUP3 SSTORE DUP1 SWAP2 POP POP PUSH1 0x1 SWAP1 SUB SWAP1 PUSH0 MSTORE PUSH1 0x20 PUSH0 KECCAK256 SWAP1 PUSH1 0x4 MUL ADD PUSH0 SWAP1 SWAP2 SWAP1 SWAP2 SWAP1 SWAP2 POP PUSH0 DUP3 ADD MLOAD DUP2 PUSH0 ADD PUSH0 PUSH2 0x100 EXP DUP2 SLOAD DUP2 PUSH20 0xFFFFFFFFFFFFFFFFFFFFFFFFFFFFFFFFFFFFFFFF MUL NOT AND SWAP1 DUP4 PUSH20 0xFFFFFFFFFFFFFFFFFFFFFFFFFFFFFFFFFFFFFFFF AND MUL OR SWAP1 SSTORE POP PUSH1 0x20 DUP3 ADD MLOAD DUP2 PUSH1 0x1 ADD PUSH0 PUSH2 0x100 EXP DUP2 SLOAD DUP2 PUSH20 0xFFFFFFFFFFFFFFFFFFFFFFFFFFFFFFFFFFFFFFFF MUL NOT AND SWAP1 DUP4 PUSH20 0xFFFFFFFFFFFFFFFFFFFFFFFFFFFFFFFFFFFFFFFF AND MUL OR SWAP1 SSTORE POP PUSH1 0x40 DUP3 ADD MLOAD DUP2 PUSH1 0x2 ADD SSTORE PUSH1 0x60 DUP3 ADD MLOAD DUP2 PUSH1 0x3 ADD SSTORE POP POP DUP2 PUSH20 0xFFFFFFFFFFFFFFFFFFFFFFFFFFFFFFFFFFFFFFFF AND PUSH2 0x8FC DUP3 SWAP1 DUP2 ISZERO MUL SWAP1 PUSH1 0x40 MLOAD PUSH0 PUSH1 0x40 MLOAD DUP1 DUP4 SUB DUP2 DUP6 DUP9 DUP9 CALL SWAP4 POP POP POP POP ISZERO DUP1 ISZERO PUSH2 0x7EA JUMPI RETURNDATASIZE PUSH0 PUSH0 RETURNDATACOPY RETURNDATASIZE PUSH0 REVERT JUMPDEST POP POP POP JUMP JUMPDEST PUSH0 PUSH1 0x1 PUSH0 SWAP1 SLOAD SWAP1 PUSH2 0x100 EXP SWAP1 DIV PUSH20 0xFFFFFFFFFFFFFFFFFFFFFFFFFFFFFFFFFFFFFFFF AND PUSH20 0xFFFFFFFFFFFFFFFFFFFFFFFFFFFFFFFFFFFFFFFF AND BALANCE SWAP1 POP SWAP1 JUMP JUMPDEST CALLER PUSH1 0x4 PUSH1 0x6 PUSH0 DUP4 PUSH20 0xFFFFFFFFFFFFFFFFFFFFFFFFFFFFFFFFFFFFFFFF AND PUSH20 0xFFFFFFFFFFFFFFFFFFFFFFFFFFFFFFFFFFFFFFFF AND DUP2 MSTORE PUSH1 0x20 ADD SWAP1 DUP2 MSTORE PUSH1 0x20 ADD PUSH0 KECCAK256 SLOAD LT PUSH2 0x8AF JUMPI PUSH1 0x40 MLOAD PUSH32 0x8C379A000000000000000000000000000000000000000000000000000000000 DUP2 MSTORE PUSH1 0x4 ADD PUSH2 0x8A6 SWAP1 PUSH2 0x1893 JUMP JUMPDEST PUSH1 0x40 MLOAD DUP1 SWAP2 SUB SWAP1 REVERT JUMPDEST SELFBALANCE PUSH1 0x2 DUP2 SWAP1 SSTORE POP CALLVALUE SELFBALANCE LT ISZERO PUSH2 0x8F9 JUMPI PUSH1 0x40 MLOAD PUSH32 0x8C379A000000000000000000000000000000000000000000000000000000000 DUP2 MSTORE PUSH1 0x4 ADD PUSH2 0x8F0 SWAP1 PUSH2 0x1921 JUMP JUMPDEST PUSH1 0x40 MLOAD DUP1 SWAP2 SUB SWAP1 REVERT JUMPDEST CALLVALUE CALLER PUSH20 0xFFFFFFFFFFFFFFFFFFFFFFFFFFFFFFFFFFFFFFFF AND BALANCE LT ISZERO PUSH2 0x953 JUMPI PUSH1 0x40 MLOAD PUSH32 0x8C379A000000000000000000000000000000000000000000000000000000000 DUP2 MSTORE PUSH1 0x4 ADD PUSH2 0x94A SWAP1 PUSH2 0x1989 JUMP JUMPDEST PUSH1 0x40 MLOAD DUP1 SWAP2 SUB SWAP1 REVERT JUMPDEST DUP2 PUSH20 0xFFFFFFFFFFFFFFFFFFFFFFFFFFFFFFFFFFFFFFFF AND PUSH2 0x8FC CALLVALUE SWAP1 DUP2 ISZERO MUL SWAP1 PUSH1 0x40 MLOAD PUSH0 PUSH1 0x40 MLOAD DUP1 DUP4 SUB DUP2 DUP6 DUP9 DUP9 CALL SWAP4 POP POP POP POP ISZERO DUP1 ISZERO PUSH2 0x996 JUMPI RETURNDATASIZE PUSH0 PUSH0 RETURNDATACOPY RETURNDATASIZE PUSH0 REVERT JUMPDEST POP SELFBALANCE PUSH1 0x3 DUP2 SWAP1 SSTORE POP POP POP JUMP JUMPDEST PUSH1 0x1 ISZERO ISZERO PUSH1 0x5 PUSH0 SWAP1 SLOAD SWAP1 PUSH2 0x100 EXP SWAP1 DIV PUSH1 0xFF AND ISZERO ISZERO EQ PUSH2 0x9F7 JUMPI PUSH1 0x40 MLOAD PUSH32 0x8C379A000000000000000000000000000000000000000000000000000000000 DUP2 MSTORE PUSH1 0x4 ADD PUSH2 0x9EE SWAP1 PUSH2 0x19F1 JUMP JUMPDEST PUSH1 0x40 MLOAD DUP1 SWAP2 SUB SWAP1 REVERT JUMPDEST PUSH1 0x1 PUSH0 SWAP1 SLOAD SWAP1 PUSH2 0x100 EXP SWAP1 DIV PUSH20 0xFFFFFFFFFFFFFFFFFFFFFFFFFFFFFFFFFFFFFFFF AND PUSH20 0xFFFFFFFFFFFFFFFFFFFFFFFFFFFFFFFFFFFFFFFF AND PUSH2 0x8FC SELFBALANCE SWAP1 DUP2 ISZERO MUL SWAP1 PUSH1 0x40 MLOAD PUSH0 PUSH1 0x40 MLOAD DUP1 DUP4 SUB DUP2 DUP6 DUP9 DUP9 CALL SWAP4 POP POP POP POP ISZERO DUP1 ISZERO PUSH2 0xA5B JUMPI RETURNDATASIZE PUSH0 PUSH0 RETURNDATACOPY RETURNDATASIZE PUSH0 REVERT JUMPDEST POP JUMP JUMPDEST PUSH0 DUP2 DUP2 SLOAD DUP2 LT PUSH2 0xA6C JUMPI PUSH0 DUP1 REVERT JUMPDEST SWAP1 PUSH0 MSTORE PUSH1 0x20 PUSH0 KECCAK256 SWAP1 PUSH1 0x4 MUL ADD PUSH0 SWAP2 POP SWAP1 POP DUP1 PUSH0 ADD PUSH0 SWAP1 SLOAD SWAP1 PUSH2 0x100 EXP SWAP1 DIV PUSH20 0xFFFFFFFFFFFFFFFFFFFFFFFFFFFFFFFFFFFFFFFF AND SWAP1 DUP1 PUSH1 0x1 ADD PUSH0 SWAP1 SLOAD SWAP1 PUSH2 0x100 EXP SWAP1 DIV PUSH20 0xFFFFFFFFFFFFFFFFFFFFFFFFFFFFFFFFFFFFFFFF AND SWAP1 DUP1 PUSH1 0x2 ADD SLOAD SWAP1 DUP1 PUSH1 0x3 ADD SLOAD SWAP1 POP DUP5 JUMP JUMPDEST PUSH1 0x1 PUSH0 SWAP1 SLOAD SWAP1 PUSH2 0x100 EXP SWAP1 DIV PUSH20 0xFFFFFFFFFFFFFFFFFFFFFFFFFFFFFFFFFFFFFFFF AND DUP2 JUMP JUMPDEST CALLER PUSH20 0xFFFFFFFFFFFFFFFFFFFFFFFFFFFFFFFFFFFFFFFF AND PUSH1 0x1 PUSH0 SWAP1 SLOAD SWAP1 PUSH2 0x100 EXP SWAP1 DIV PUSH20 0xFFFFFFFFFFFFFFFFFFFFFFFFFFFFFFFFFFFFFFFF AND PUSH20 0xFFFFFFFFFFFFFFFFFFFFFFFFFFFFFFFFFFFFFFFF AND EQ PUSH2 0xB8A JUMPI PUSH1 0x40 MLOAD PUSH32 0xEB1CD1D100000000000000000000000000000000000000000000000000000000 DUP2 MSTORE PUSH1 0x4 ADD PUSH2 0xB81 SWAP1 PUSH2 0x16B3 JUMP JUMPDEST PUSH1 0x40 MLOAD DUP1 SWAP2 SUB SWAP1 REVERT JUMPDEST PUSH1 0x5 PUSH0 SWAP1 SLOAD SWAP1 PUSH2 0x100 EXP SWAP1 DIV PUSH1 0xFF AND ISZERO PUSH1 0x5 PUSH0 PUSH2 0x100 EXP DUP2 SLOAD DUP2 PUSH1 0xFF MUL NOT AND SWAP1 DUP4 ISZERO ISZERO MUL OR SWAP1 SSTORE POP JUMP JUMPDEST PUSH1 0x3 SLOAD DUP2 JUMP JUMPDEST CALLER PUSH20 0xFFFFFFFFFFFFFFFFFFFFFFFFFFFFFFFFFFFFFFFF AND PUSH1 0x1 PUSH0 SWAP1 SLOAD SWAP1 PUSH2 0x100 EXP SWAP1 DIV PUSH20 0xFFFFFFFFFFFFFFFFFFFFFFFFFFFFFFFFFFFFFFFF AND PUSH20 0xFFFFFFFFFFFFFFFFFFFFFFFFFFFFFFFFFFFFFFFF AND EQ PUSH2 0xC49 JUMPI PUSH1 0x40 MLOAD PUSH32 0xEB1CD1D100000000000000000000000000000000000000000000000000000000 DUP2 MSTORE PUSH1 0x4 ADD PUSH2 0xC40 SWAP1 PUSH2 0x16B3 JUMP JUMPDEST PUSH1 0x40 MLOAD DUP1 SWAP2 SUB SWAP1 REVERT JUMPDEST DUP1 SELFBALANCE LT ISZERO PUSH2 0xC8C JUMPI PUSH1 0x40 MLOAD PUSH32 0x8C379A000000000000000000000000000000000000000000000000000000000 DUP2 MSTORE PUSH1 0x4 ADD PUSH2 0xC83 SWAP1 PUSH2 0x171B JUMP JUMPDEST PUSH1 0x40 MLOAD DUP1 SWAP2 SUB SWAP1 REVERT JUMPDEST CALLER PUSH20 0xFFFFFFFFFFFFFFFFFFFFFFFFFFFFFFFFFFFFFFFF AND PUSH2 0x8FC DUP3 SWAP1 DUP2 ISZERO MUL SWAP1 PUSH1 0x40 MLOAD PUSH0 PUSH1 0x40 MLOAD DUP1 DUP4 SUB DUP2 DUP6 DUP9 DUP9 CALL SWAP4 POP POP POP POP ISZERO DUP1 ISZERO PUSH2 0xCCF JUMPI RETURNDATASIZE PUSH0 PUSH0 RETURNDATACOPY RETURNDATASIZE PUSH0 REVERT JUMPDEST POP PUSH0 PUSH1 0x40 MLOAD DUP1 PUSH1 0x80 ADD PUSH1 0x40 MSTORE DUP1 CALLER PUSH20 0xFFFFFFFFFFFFFFFFFFFFFFFFFFFFFFFFFFFFFFFF AND DUP2 MSTORE PUSH1 0x20 ADD ADDRESS PUSH20 0xFFFFFFFFFFFFFFFFFFFFFFFFFFFFFFFFFFFFFFFF AND DUP2 MSTORE PUSH1 0x20 ADD TIMESTAMP DUP2 MSTORE PUSH1 0x20 ADD DUP4 DUP2 MSTORE POP SWAP1 DUP1 PUSH1 0x1 DUP2 SLOAD ADD DUP1 DUP3 SSTORE DUP1 SWAP2 POP POP PUSH1 0x1 SWAP1 SUB SWAP1 PUSH0 MSTORE PUSH1 0x20 PUSH0 KECCAK256 SWAP1 PUSH1 0x4 MUL ADD PUSH0 SWAP1 SWAP2 SWAP1 SWAP2 SWAP1 SWAP2 POP PUSH0 DUP3 ADD MLOAD DUP2 PUSH0 ADD PUSH0 PUSH2 0x100 EXP DUP2 SLOAD DUP2 PUSH20 0xFFFFFFFFFFFFFFFFFFFFFFFFFFFFFFFFFFFFFFFF MUL NOT AND SWAP1 DUP4 PUSH20 0xFFFFFFFFFFFFFFFFFFFFFFFFFFFFFFFFFFFFFFFF AND MUL OR SWAP1 SSTORE POP PUSH1 0x20 DUP3 ADD MLOAD DUP2 PUSH1 0x1 ADD PUSH0 PUSH2 0x100 EXP DUP2 SLOAD DUP2 PUSH20 0xFFFFFFFFFFFFFFFFFFFFFFFFFFFFFFFFFFFFFFFF MUL NOT AND SWAP1 DUP4 PUSH20 0xFFFFFFFFFFFFFFFFFFFFFFFFFFFFFFFFFFFFFFFF AND MUL OR SWAP1 SSTORE POP PUSH1 0x40 DUP3 ADD MLOAD DUP2 PUSH1 0x2 ADD SSTORE PUSH1 0x60 DUP3 ADD MLOAD DUP2 PUSH1 0x3 ADD SSTORE POP POP POP JUMP JUMPDEST PUSH1 0x60 PUSH0 DUP1 SLOAD DUP1 PUSH1 0x20 MUL PUSH1 0x20 ADD PUSH1 0x40 MLOAD SWAP1 DUP2 ADD PUSH1 0x40 MSTORE DUP1 SWAP3 SWAP2 SWAP1 DUP2 DUP2 MSTORE PUSH1 0x20 ADD PUSH0 SWAP1 JUMPDEST DUP3 DUP3 LT ISZERO PUSH2 0xEF6 JUMPI DUP4 DUP3 SWAP1 PUSH0 MSTORE PUSH1 0x20 PUSH0 KECCAK256 SWAP1 PUSH1 0x4 MUL ADD PUSH1 0x40 MLOAD DUP1 PUSH1 0x80 ADD PUSH1 0x40 MSTORE SWAP1 DUP2 PUSH0 DUP3 ADD PUSH0 SWAP1 SLOAD SWAP1 PUSH2 0x100 EXP SWAP1 DIV PUSH20 0xFFFFFFFFFFFFFFFFFFFFFFFFFFFFFFFFFFFFFFFF AND PUSH20 0xFFFFFFFFFFFFFFFFFFFFFFFFFFFFFFFFFFFFFFFF AND PUSH20 0xFFFFFFFFFFFFFFFFFFFFFFFFFFFFFFFFFFFFFFFF AND DUP2 MSTORE PUSH1 0x20 ADD PUSH1 0x1 DUP3 ADD PUSH0 SWAP1 SLOAD SWAP1 PUSH2 0x100 EXP SWAP1 DIV PUSH20 0xFFFFFFFFFFFFFFFFFFFFFFFFFFFFFFFFFFFFFFFF AND PUSH20 0xFFFFFFFFFFFFFFFFFFFFFFFFFFFFFFFFFFFFFFFF AND PUSH20 0xFFFFFFFFFFFFFFFFFFFFFFFFFFFFFFFFFFFFFFFF AND DUP2 MSTORE PUSH1 0x20 ADD PUSH1 0x2 DUP3 ADD SLOAD DUP2 MSTORE PUSH1 0x20 ADD PUSH1 0x3 DUP3 ADD SLOAD DUP2 MSTORE POP POP DUP2 MSTORE PUSH1 0x20 ADD SWAP1 PUSH1 0x1 ADD SWAP1 PUSH2 0xE09 JUMP JUMPDEST POP POP POP POP SWAP1 POP SWAP1 JUMP JUMPDEST PUSH1 0x2 SLOAD DUP2 JUMP JUMPDEST PUSH0 SELFBALANCE SWAP1 POP SWAP1 JUMP JUMPDEST PUSH0 CALLVALUE GT PUSH2 0xF4E JUMPI PUSH1 0x40 MLOAD PUSH32 0x8C379A000000000000000000000000000000000000000000000000000000000 DUP2 MSTORE PUSH1 0x4 ADD PUSH2 0xF45 SWAP1 PUSH2 0x1A7F JUMP JUMPDEST PUSH1 0x40 MLOAD DUP1 SWAP2 SUB SWAP1 REVERT JUMPDEST PUSH1 0x1 PUSH0 SWAP1 SLOAD SWAP1 PUSH2 0x100 EXP SWAP1 DIV PUSH20 0xFFFFFFFFFFFFFFFFFFFFFFFFFFFFFFFFFFFFFFFF AND PUSH20 0xFFFFFFFFFFFFFFFFFFFFFFFFFFFFFFFFFFFFFFFF AND PUSH2 0x8FC CALLVALUE SWAP1 DUP2 ISZERO MUL SWAP1 PUSH1 0x40 MLOAD PUSH0 PUSH1 0x40 MLOAD DUP1 DUP4 SUB DUP2 DUP6 DUP9 DUP9 CALL SWAP4 POP POP POP POP ISZERO DUP1 ISZERO PUSH2 0xFB2 JUMPI RETURNDATASIZE PUSH0 PUSH0 RETURNDATACOPY RETURNDATASIZE PUSH0 REVERT JUMPDEST POP JUMP JUMPDEST PUSH1 0x4 DUP1 SLOAD PUSH2 0xFC2 SWAP1 PUSH2 0x1ACA JUMP JUMPDEST DUP1 PUSH1 0x1F ADD PUSH1 0x20 DUP1 SWAP2 DIV MUL PUSH1 0x20 ADD PUSH1 0x40 MLOAD SWAP1 DUP2 ADD PUSH1 0x40 MSTORE DUP1 SWAP3 SWAP2 SWAP1 DUP2 DUP2 MSTORE PUSH1 0x20 ADD DUP3 DUP1 SLOAD PUSH2 0xFEE SWAP1 PUSH2 0x1ACA JUMP JUMPDEST DUP1 ISZERO PUSH2 0x1039 JUMPI DUP1 PUSH1 0x1F LT PUSH2 0x1010 JUMPI PUSH2 0x100 DUP1 DUP4 SLOAD DIV MUL DUP4 MSTORE SWAP2 PUSH1 0x20 ADD SWAP2 PUSH2 0x1039 JUMP JUMPDEST DUP3 ADD SWAP2 SWAP1 PUSH0 MSTORE PUSH1 0x20 PUSH0 KECCAK256 SWAP1 JUMPDEST DUP2 SLOAD DUP2 MSTORE SWAP1 PUSH1 0x1 ADD SWAP1 PUSH1 0x20 ADD DUP1 DUP4 GT PUSH2 0x101C JUMPI DUP3 SWAP1 SUB PUSH1 0x1F AND DUP3 ADD SWAP2 JUMPDEST POP POP POP POP POP DUP2 JUMP JUMPDEST CALLER PUSH20 0xFFFFFFFFFFFFFFFFFFFFFFFFFFFFFFFFFFFFFFFF AND PUSH1 0x1 PUSH0 SWAP1 SLOAD SWAP1 PUSH2 0x100 EXP SWAP1 DIV PUSH20 0xFFFFFFFFFFFFFFFFFFFFFFFFFFFFFFFFFFFFFFFF AND PUSH20 0xFFFFFFFFFFFFFFFFFFFFFFFFFFFFFFFFFFFFFFFF AND EQ PUSH2 0x10D0 JUMPI PUSH1 0x40 MLOAD PUSH32 0xEB1CD1D100000000000000000000000000000000000000000000000000000000 DUP2 MSTORE PUSH1 0x4 ADD PUSH2 0x10C7 SWAP1 PUSH2 0x16B3 JUMP JUMPDEST PUSH1 0x40 MLOAD DUP1 SWAP2 SUB SWAP1 REVERT JUMPDEST PUSH0 ISZERO ISZERO PUSH1 0x5 PUSH0 SWAP1 SLOAD SWAP1 PUSH2 0x100 EXP SWAP1 DIV PUSH1 0xFF AND ISZERO ISZERO EQ PUSH2 0x1124 JUMPI PUSH1 0x40 MLOAD PUSH32 0x8C379A000000000000000000000000000000000000000000000000000000000 DUP2 MSTORE PUSH1 0x4 ADD PUSH2 0x111B SWAP1 PUSH2 0x1B44 JUMP JUMPDEST PUSH1 0x40 MLOAD DUP1 SWAP2 SUB SWAP1 REVERT JUMPDEST PUSH0 PUSH20 0xFFFFFFFFFFFFFFFFFFFFFFFFFFFFFFFFFFFFFFFF AND DUP2 PUSH20 0xFFFFFFFFFFFFFFFFFFFFFFFFFFFFFFFFFFFFFFFF AND SUB PUSH2 0x1192 JUMPI PUSH1 0x40 MLOAD PUSH32 0x8C379A000000000000000000000000000000000000000000000000000000000 DUP2 MSTORE PUSH1 0x4 ADD PUSH2 0x1189 SWAP1 PUSH2 0x1BAC JUMP JUMPDEST PUSH1 0x40 MLOAD DUP1 SWAP2 SUB SWAP1 REVERT JUMPDEST DUP1 PUSH1 0x1 PUSH0 PUSH2 0x100 EXP DUP2 SLOAD DUP2 PUSH20 0xFFFFFFFFFFFFFFFFFFFFFFFFFFFFFFFFFFFFFFFF MUL NOT AND SWAP1 DUP4 PUSH20 0xFFFFFFFFFFFFFFFFFFFFFFFFFFFFFFFFFFFFFFFF AND MUL OR SWAP1 SSTORE POP POP JUMP JUMPDEST PUSH0 PUSH20 0xFFFFFFFFFFFFFFFFFFFFFFFFFFFFFFFFFFFFFFFF DUP3 AND SWAP1 POP SWAP2 SWAP1 POP JUMP JUMPDEST PUSH0 PUSH2 0x11FE DUP3 PUSH2 0x11D5 JUMP JUMPDEST SWAP1 POP SWAP2 SWAP1 POP JUMP JUMPDEST PUSH2 0x120E DUP2 PUSH2 0x11F4 JUMP JUMPDEST DUP3 MSTORE POP POP JUMP JUMPDEST PUSH0 DUP2 SWAP1 POP SWAP2 SWAP1 POP JUMP JUMPDEST PUSH2 0x1226 DUP2 PUSH2 0x1214 JUMP JUMPDEST DUP3 MSTORE POP POP JUMP JUMPDEST PUSH0 PUSH1 0x40 DUP3 ADD SWAP1 POP PUSH2 0x123F PUSH0 DUP4 ADD DUP6 PUSH2 0x1205 JUMP JUMPDEST PUSH2 0x124C PUSH1 0x20 DUP4 ADD DUP5 PUSH2 0x121D JUMP JUMPDEST SWAP4 SWAP3 POP POP POP JUMP JUMPDEST PUSH0 PUSH0 REVERT JUMPDEST PUSH0 PUSH2 0x1261 DUP3 PUSH2 0x11D5 JUMP JUMPDEST SWAP1 POP SWAP2 SWAP1 POP JUMP JUMPDEST PUSH2 0x1271 DUP2 PUSH2 0x1257 JUMP JUMPDEST DUP2 EQ PUSH2 0x127B JUMPI PUSH0 PUSH0 REVERT JUMPDEST POP JUMP JUMPDEST PUSH0 DUP2 CALLDATALOAD SWAP1 POP PUSH2 0x128C DUP2 PUSH2 0x1268 JUMP JUMPDEST SWAP3 SWAP2 POP POP JUMP JUMPDEST PUSH2 0x129B DUP2 PUSH2 0x1214 JUMP JUMPDEST DUP2 EQ PUSH2 0x12A5 JUMPI PUSH0 PUSH0 REVERT JUMPDEST POP JUMP JUMPDEST PUSH0 DUP2 CALLDATALOAD SWAP1 POP PUSH2 0x12B6 DUP2 PUSH2 0x1292 JUMP JUMPDEST SWAP3 SWAP2 POP POP JUMP JUMPDEST PUSH0 PUSH0 PUSH1 0x40 DUP4 DUP6 SUB SLT ISZERO PUSH2 0x12D2 JUMPI PUSH2 0x12D1 PUSH2 0x1253 JUMP JUMPDEST JUMPDEST PUSH0 PUSH2 0x12DF DUP6 DUP3 DUP7 ADD PUSH2 0x127E JUMP JUMPDEST SWAP3 POP POP PUSH1 0x20 PUSH2 0x12F0 DUP6 DUP3 DUP7 ADD PUSH2 0x12A8 JUMP JUMPDEST SWAP2 POP POP SWAP3 POP SWAP3 SWAP1 POP JUMP JUMPDEST PUSH0 PUSH1 0x20 DUP3 ADD SWAP1 POP PUSH2 0x130D PUSH0 DUP4 ADD DUP5 PUSH2 0x121D JUMP JUMPDEST SWAP3 SWAP2 POP POP JUMP JUMPDEST PUSH0 PUSH1 0x20 DUP3 DUP5 SUB SLT ISZERO PUSH2 0x1328 JUMPI PUSH2 0x1327 PUSH2 0x1253 JUMP JUMPDEST JUMPDEST PUSH0 PUSH2 0x1335 DUP5 DUP3 DUP6 ADD PUSH2 0x127E JUMP JUMPDEST SWAP2 POP POP SWAP3 SWAP2 POP POP JUMP JUMPDEST PUSH0 PUSH1 0x20 DUP3 DUP5 SUB SLT ISZERO PUSH2 0x1353 JUMPI PUSH2 0x1352 PUSH2 0x1253 JUMP JUMPDEST JUMPDEST PUSH0 PUSH2 0x1360 DUP5 DUP3 DUP6 ADD PUSH2 0x12A8 JUMP JUMPDEST SWAP2 POP POP SWAP3 SWAP2 POP POP JUMP JUMPDEST PUSH0 PUSH1 0x80 DUP3 ADD SWAP1 POP PUSH2 0x137C PUSH0 DUP4 ADD DUP8 PUSH2 0x1205 JUMP JUMPDEST PUSH2 0x1389 PUSH1 0x20 DUP4 ADD DUP7 PUSH2 0x1205 JUMP JUMPDEST PUSH2 0x1396 PUSH1 0x40 DUP4 ADD DUP6 PUSH2 0x121D JUMP JUMPDEST PUSH2 0x13A3 PUSH1 0x60 DUP4 ADD DUP5 PUSH2 0x121D JUMP JUMPDEST SWAP6 SWAP5 POP POP POP POP POP JUMP JUMPDEST PUSH0 PUSH1 0x20 DUP3 ADD SWAP1 POP PUSH2 0x13BF PUSH0 DUP4 ADD DUP5 PUSH2 0x1205 JUMP JUMPDEST SWAP3 SWAP2 POP POP JUMP JUMPDEST PUSH0 DUP2 MLOAD SWAP1 POP SWAP2 SWAP1 POP JUMP JUMPDEST PUSH0 DUP3 DUP3 MSTORE PUSH1 0x20 DUP3 ADD SWAP1 POP SWAP3 SWAP2 POP POP JUMP JUMPDEST PUSH0 DUP2 SWAP1 POP PUSH1 0x20 DUP3 ADD SWAP1 POP SWAP2 SWAP1 POP JUMP JUMPDEST PUSH2 0x13F7 DUP2 PUSH2 0x11F4 JUMP JUMPDEST DUP3 MSTORE POP POP JUMP JUMPDEST PUSH2 0x1406 DUP2 PUSH2 0x1214 JUMP JUMPDEST DUP3 MSTORE POP POP JUMP JUMPDEST PUSH1 0x80 DUP3 ADD PUSH0 DUP3 ADD MLOAD PUSH2 0x1420 PUSH0 DUP6 ADD DUP3 PUSH2 0x13EE JUMP JUMPDEST POP PUSH1 0x20 DUP3 ADD MLOAD PUSH2 0x1433 PUSH1 0x20 DUP6 ADD DUP3 PUSH2 0x13EE JUMP JUMPDEST POP PUSH1 0x40 DUP3 ADD MLOAD PUSH2 0x1446 PUSH1 0x40 DUP6 ADD DUP3 PUSH2 0x13FD JUMP JUMPDEST POP PUSH1 0x60 DUP3 ADD MLOAD PUSH2 0x1459 PUSH1 0x60 DUP6 ADD DUP3 PUSH2 0x13FD JUMP JUMPDEST POP POP POP POP JUMP JUMPDEST PUSH0 PUSH2 0x146A DUP4 DUP4 PUSH2 0x140C JUMP JUMPDEST PUSH1 0x80 DUP4 ADD SWAP1 POP SWAP3 SWAP2 POP POP JUMP JUMPDEST PUSH0 PUSH1 0x20 DUP3 ADD SWAP1 POP SWAP2 SWAP1 POP JUMP JUMPDEST PUSH0 PUSH2 0x148C DUP3 PUSH2 0x13C5 JUMP JUMPDEST PUSH2 0x1496 DUP2 DUP6 PUSH2 0x13CF JUMP JUMPDEST SWAP4 POP PUSH2 0x14A1 DUP4 PUSH2 0x13DF JUMP JUMPDEST DUP1 PUSH0 JUMPDEST DUP4 DUP2 LT ISZERO PUSH2 0x14D1 JUMPI DUP2 MLOAD PUSH2 0x14B8 DUP9 DUP3 PUSH2 0x145F JUMP JUMPDEST SWAP8 POP PUSH2 0x14C3 DUP4 PUSH2 0x1476 JUMP JUMPDEST SWAP3 POP POP PUSH1 0x1 DUP2 ADD SWAP1 POP PUSH2 0x14A4 JUMP JUMPDEST POP DUP6 SWAP4 POP POP POP POP SWAP3 SWAP2 POP POP JUMP JUMPDEST PUSH0 PUSH1 0x20 DUP3 ADD SWAP1 POP DUP2 DUP2 SUB PUSH0 DUP4 ADD MSTORE PUSH2 0x14F6 DUP2 DUP5 PUSH2 0x1482 JUMP JUMPDEST SWAP1 POP SWAP3 SWAP2 POP POP JUMP JUMPDEST PUSH2 0x1507 DUP2 PUSH2 0x11F4 JUMP JUMPDEST DUP2 EQ PUSH2 0x1511 JUMPI PUSH0 PUSH0 REVERT JUMPDEST POP JUMP JUMPDEST PUSH0 DUP2 CALLDATALOAD SWAP1 POP PUSH2 0x1522 DUP2 PUSH2 0x14FE JUMP JUMPDEST SWAP3 SWAP2 POP POP JUMP JUMPDEST PUSH0 PUSH1 0x20 DUP3 DUP5 SUB SLT ISZERO PUSH2 0x153D JUMPI PUSH2 0x153C PUSH2 0x1253 JUMP JUMPDEST JUMPDEST PUSH0 PUSH2 0x154A DUP5 DUP3 DUP6 ADD PUSH2 0x1514 JUMP JUMPDEST SWAP2 POP POP SWAP3 SWAP2 POP POP JUMP JUMPDEST PUSH0 DUP2 MLOAD SWAP1 POP SWAP2 SWAP1 POP JUMP JUMPDEST PUSH0 DUP3 DUP3 MSTORE PUSH1 0x20 DUP3 ADD SWAP1 POP SWAP3 SWAP2 POP POP JUMP JUMPDEST DUP3 DUP2 DUP4 MCOPY PUSH0 DUP4 DUP4 ADD MSTORE POP POP POP JUMP JUMPDEST PUSH0 PUSH1 0x1F NOT PUSH1 0x1F DUP4 ADD AND SWAP1 POP SWAP2 SWAP1 POP JUMP JUMPDEST PUSH0 PUSH2 0x1595 DUP3 PUSH2 0x1553 JUMP JUMPDEST PUSH2 0x159F DUP2 DUP6 PUSH2 0x155D JUMP JUMPDEST SWAP4 POP PUSH2 0x15AF DUP2 DUP6 PUSH1 0x20 DUP7 ADD PUSH2 0x156D JUMP JUMPDEST PUSH2 0x15B8 DUP2 PUSH2 0x157B JUMP JUMPDEST DUP5 ADD SWAP2 POP POP SWAP3 SWAP2 POP POP JUMP JUMPDEST PUSH0 PUSH1 0x20 DUP3 ADD SWAP1 POP DUP2 DUP2 SUB PUSH0 DUP4 ADD MSTORE PUSH2 0x15DB DUP2 DUP5 PUSH2 0x158B JUMP JUMPDEST SWAP1 POP SWAP3 SWAP2 POP POP JUMP JUMPDEST PUSH32 0x4E487B7100000000000000000000000000000000000000000000000000000000 PUSH0 MSTORE PUSH1 0x11 PUSH1 0x4 MSTORE PUSH1 0x24 PUSH0 REVERT JUMPDEST PUSH0 PUSH2 0x161A DUP3 PUSH2 0x1214 JUMP JUMPDEST SWAP2 POP PUSH2 0x1625 DUP4 PUSH2 0x1214 JUMP JUMPDEST SWAP3 POP DUP3 DUP3 ADD SWAP1 POP DUP1 DUP3 GT ISZERO PUSH2 0x163D JUMPI PUSH2 0x163C PUSH2 0x15E3 JUMP JUMPDEST JUMPDEST SWAP3 SWAP2 POP POP JUMP JUMPDEST PUSH32 0x616363657373206465736D6973736564202120796F7520617265206E6F74204F PUSH0 DUP3 ADD MSTORE PUSH32 0x776E657200000000000000000000000000000000000000000000000000000000 PUSH1 0x20 DUP3 ADD MSTORE POP JUMP JUMPDEST PUSH0 PUSH2 0x169D PUSH1 0x24 DUP4 PUSH2 0x155D JUMP JUMPDEST SWAP2 POP PUSH2 0x16A8 DUP3 PUSH2 0x1643 JUMP JUMPDEST PUSH1 0x40 DUP3 ADD SWAP1 POP SWAP2 SWAP1 POP JUMP JUMPDEST PUSH0 PUSH1 0x20 DUP3 ADD SWAP1 POP DUP2 DUP2 SUB PUSH0 DUP4 ADD MSTORE PUSH2 0x16CA DUP2 PUSH2 0x1691 JUMP JUMPDEST SWAP1 POP SWAP2 SWAP1 POP JUMP JUMPDEST PUSH32 0x756E737566666963656E65742062616C616E6365210000000000000000000000 PUSH0 DUP3 ADD MSTORE POP JUMP JUMPDEST PUSH0 PUSH2 0x1705 PUSH1 0x15 DUP4 PUSH2 0x155D JUMP JUMPDEST SWAP2 POP PUSH2 0x1710 DUP3 PUSH2 0x16D1 JUMP JUMPDEST PUSH1 0x20 DUP3 ADD SWAP1 POP SWAP2 SWAP1 POP JUMP JUMPDEST PUSH0 PUSH1 0x20 DUP3 ADD SWAP1 POP DUP2 DUP2 SUB PUSH0 DUP4 ADD MSTORE PUSH2 0x1732 DUP2 PUSH2 0x16F9 JUMP JUMPDEST SWAP1 POP SWAP2 SWAP1 POP JUMP JUMPDEST PUSH32 0x4164647265737320697320696E76616C696420636865636B206F6E6365732100 PUSH0 DUP3 ADD MSTORE POP JUMP JUMPDEST PUSH0 PUSH2 0x176D PUSH1 0x1F DUP4 PUSH2 0x155D JUMP JUMPDEST SWAP2 POP PUSH2 0x1778 DUP3 PUSH2 0x1739 JUMP JUMPDEST PUSH1 0x20 DUP3 ADD SWAP1 POP SWAP2 SWAP1 POP JUMP JUMPDEST PUSH0 PUSH1 0x20 DUP3 ADD SWAP1 POP DUP2 DUP2 SUB PUSH0 DUP4 ADD MSTORE PUSH2 0x179A DUP2 PUSH2 0x1761 JUMP JUMPDEST SWAP1 POP SWAP2 SWAP1 POP JUMP JUMPDEST PUSH0 DUP2 SWAP1 POP SWAP2 SWAP1 POP JUMP JUMPDEST PUSH0 PUSH2 0x17C4 PUSH2 0x17BF PUSH2 0x17BA DUP5 PUSH2 0x11D5 JUMP JUMPDEST PUSH2 0x17A1 JUMP JUMPDEST PUSH2 0x11D5 JUMP JUMPDEST SWAP1 POP SWAP2 SWAP1 POP JUMP JUMPDEST PUSH0 PUSH2 0x17D5 DUP3 PUSH2 0x17AA JUMP JUMPDEST SWAP1 POP SWAP2 SWAP1 POP JUMP JUMPDEST PUSH0 PUSH2 0x17E6 DUP3 PUSH2 0x17CB JUMP JUMPDEST SWAP1 POP SWAP2 SWAP1 POP JUMP JUMPDEST PUSH2 0x17F6 DUP2 PUSH2 0x17DC JUMP JUMPDEST DUP3 MSTORE POP POP JUMP JUMPDEST PUSH0 PUSH1 0x40 DUP3 ADD SWAP1 POP PUSH2 0x180F PUSH0 DUP4 ADD DUP6 PUSH2 0x17ED JUMP JUMPDEST PUSH2 0x181C PUSH1 0x20 DUP4 ADD DUP5 PUSH2 0x121D JUMP JUMPDEST SWAP4 SWAP3 POP POP POP JUMP JUMPDEST PUSH32 0x416374697669747920666F756E6420737573706963696F757320202C20626C6F PUSH0 DUP3 ADD MSTORE PUSH32 0x636B20666F722031206461790000000000000000000000000000000000000000 PUSH1 0x20 DUP3 ADD MSTORE POP JUMP JUMPDEST PUSH0 PUSH2 0x187D PUSH1 0x2C DUP4 PUSH2 0x155D JUMP JUMPDEST SWAP2 POP PUSH2 0x1888 DUP3 PUSH2 0x1823 JUMP JUMPDEST PUSH1 0x40 DUP3 ADD SWAP1 POP SWAP2 SWAP1 POP JUMP JUMPDEST PUSH0 PUSH1 0x20 DUP3 ADD SWAP1 POP DUP2 DUP2 SUB PUSH0 DUP4 ADD MSTORE PUSH2 0x18AA DUP2 PUSH2 0x1871 JUMP JUMPDEST SWAP1 POP SWAP2 SWAP1 POP JUMP JUMPDEST PUSH32 0x20756E737566666963656E742062616C616E6365203D3E20636F6E747261636B PUSH0 DUP3 ADD MSTORE PUSH32 0x2100000000000000000000000000000000000000000000000000000000000000 PUSH1 0x20 DUP3 ADD MSTORE POP JUMP JUMPDEST PUSH0 PUSH2 0x190B PUSH1 0x21 DUP4 PUSH2 0x155D JUMP JUMPDEST SWAP2 POP PUSH2 0x1916 DUP3 PUSH2 0x18B1 JUMP JUMPDEST PUSH1 0x40 DUP3 ADD SWAP1 POP SWAP2 SWAP1 POP JUMP JUMPDEST PUSH0 PUSH1 0x20 DUP3 ADD SWAP1 POP DUP2 DUP2 SUB PUSH0 DUP4 ADD MSTORE PUSH2 0x1938 DUP2 PUSH2 0x18FF JUMP JUMPDEST SWAP1 POP SWAP2 SWAP1 POP JUMP JUMPDEST PUSH32 0x20756E737566666963656E742062616C616E6365203D3E207573657221000000 PUSH0 DUP3 ADD MSTORE POP JUMP JUMPDEST PUSH0 PUSH2 0x1973 PUSH1 0x1D DUP4 PUSH2 0x155D JUMP JUMPDEST SWAP2 POP PUSH2 0x197E DUP3 PUSH2 0x193F JUMP JUMPDEST PUSH1 0x20 DUP3 ADD SWAP1 POP SWAP2 SWAP1 POP JUMP JUMPDEST PUSH0 PUSH1 0x20 DUP3 ADD SWAP1 POP DUP2 DUP2 SUB PUSH0 DUP4 ADD MSTORE PUSH2 0x19A0 DUP2 PUSH2 0x1967 JUMP JUMPDEST SWAP1 POP SWAP2 SWAP1 POP JUMP JUMPDEST PUSH32 0x656D657267656E6379206E6F7420646566696E64210000000000000000000000 PUSH0 DUP3 ADD MSTORE POP JUMP JUMPDEST PUSH0 PUSH2 0x19DB PUSH1 0x15 DUP4 PUSH2 0x155D JUMP JUMPDEST SWAP2 POP PUSH2 0x19E6 DUP3 PUSH2 0x19A7 JUMP JUMPDEST PUSH1 0x20 DUP3 ADD SWAP1 POP SWAP2 SWAP1 POP JUMP JUMPDEST PUSH0 PUSH1 0x20 DUP3 ADD SWAP1 POP DUP2 DUP2 SUB PUSH0 DUP4 ADD MSTORE PUSH2 0x1A08 DUP2 PUSH2 0x19CF JUMP JUMPDEST SWAP1 POP SWAP2 SWAP1 POP JUMP JUMPDEST PUSH32 0x616D6F756E7468206D75737420627220677261746572207468616E207A65726F PUSH0 DUP3 ADD MSTORE PUSH32 0x2021000000000000000000000000000000000000000000000000000000000000 PUSH1 0x20 DUP3 ADD MSTORE POP JUMP JUMPDEST PUSH0 PUSH2 0x1A69 PUSH1 0x22 DUP4 PUSH2 0x155D JUMP JUMPDEST SWAP2 POP PUSH2 0x1A74 DUP3 PUSH2 0x1A0F JUMP JUMPDEST PUSH1 0x40 DUP3 ADD SWAP1 POP SWAP2 SWAP1 POP JUMP JUMPDEST PUSH0 PUSH1 0x20 DUP3 ADD SWAP1 POP DUP2 DUP2 SUB PUSH0 DUP4 ADD MSTORE PUSH2 0x1A96 DUP2 PUSH2 0x1A5D JUMP JUMPDEST SWAP1 POP SWAP2 SWAP1 POP JUMP JUMPDEST PUSH32 0x4E487B7100000000000000000000000000000000000000000000000000000000 PUSH0 MSTORE PUSH1 0x22 PUSH1 0x4 MSTORE PUSH1 0x24 PUSH0 REVERT JUMPDEST PUSH0 PUSH1 0x2 DUP3 DIV SWAP1 POP PUSH1 0x1 DUP3 AND DUP1 PUSH2 0x1AE1 JUMPI PUSH1 0x7F DUP3 AND SWAP2 POP JUMPDEST PUSH1 0x20 DUP3 LT DUP2 SUB PUSH2 0x1AF4 JUMPI PUSH2 0x1AF3 PUSH2 0x1A9D JUMP JUMPDEST JUMPDEST POP SWAP2 SWAP1 POP JUMP JUMPDEST PUSH32 0x656D657267656E63792064656C65637265642100000000000000000000000000 PUSH0 DUP3 ADD MSTORE POP JUMP JUMPDEST PUSH0 PUSH2 0x1B2E PUSH1 0x13 DUP4 PUSH2 0x155D JUMP JUMPDEST SWAP2 POP PUSH2 0x1B39 DUP3 PUSH2 0x1AFA JUMP JUMPDEST PUSH1 0x20 DUP3 ADD SWAP1 POP SWAP2 SWAP1 POP JUMP JUMPDEST PUSH0 PUSH1 0x20 DUP3 ADD SWAP1 POP DUP2 DUP2 SUB PUSH0 DUP4 ADD MSTORE PUSH2 0x1B5B DUP2 PUSH2 0x1B22 JUMP JUMPDEST SWAP1 POP SWAP2 SWAP1 POP JUMP JUMPDEST PUSH32 0x496E76616C696420616464726573732100000000000000000000000000000000 PUSH0 DUP3 ADD MSTORE POP JUMP JUMPDEST PUSH0 PUSH2 0x1B96 PUSH1 0x10 DUP4 PUSH2 0x155D JUMP JUMPDEST SWAP2 POP PUSH2 0x1BA1 DUP3 PUSH2 0x1B62 JUMP JUMPDEST PUSH1 0x20 DUP3 ADD SWAP1 POP SWAP2 SWAP1 POP JUMP JUMPDEST PUSH0 PUSH1 0x20 DUP3 ADD SWAP1 POP DUP2 DUP2 SUB PUSH0 DUP4 ADD MSTORE PUSH2 0x1BC3 DUP2 PUSH2 0x1B8A JUMP JUMPDEST SWAP1 POP SWAP2 SWAP1 POP JUMP INVALID LOG2 PUSH5 0x6970667358 0x22 SLT KECCAK256 MSIZE 0x26 0xB0 0x4F CALLCODE POP TLOAD MLOAD 0x4B 0xA8 0xDD 0xC7 CREATE 0x25 PUSH21 0x771EB39FADEFE9F7244EF693E291FD5BE964736F6C PUSH4 0x4300081F STOP CALLER "
				},
				"gasEstimates": {
					"creation": {
						"codeDepositCost": "1433600",
						"executionCost": "50021",
						"totalCost": "1483621"
					},
					"external": {
						"": "infinite",
						"changOwner(address)": "29197",
						"emergencyWithdrawl()": "infinite",
						"getContractBalanceInWei()": "356",
						"getOwnerBalanceInWei()": "5141",
						"getTransactionHistory()": "infinite",
						"message()": "infinite",
						"newval()": "2448",
						"old()": "2514",
						"owner()": "2575",
						"receiveFromUser()": "infinite",
						"suspiciousActivity(address)": "infinite",
						"toggleStop()": "28805",
						"transcationHistory(uint256)": "infinite",
						"transferToContract()": "117379",
						"transferToUserViaContract(address,uint256)": "infinite",
						"transferToUserViaMsgValue(address)": "infinite",
						"withdrawFromContract(uint256)": "infinite"
					}
				},
				"methodIdentifiers": {
					"changOwner(address)": "eb2d9fd3",
					"emergencyWithdrawl()": "7935e5a3",
					"getContractBalanceInWei()": "bfa698de",
					"getOwnerBalanceInWei()": "547fbe8e",
					"getTransactionHistory()": "b76d4fc3",
					"message()": "e21f37ce",
					"newval()": "a299ed99",
					"old()": "b83f8663",
					"owner()": "8da5cb5b",
					"receiveFromUser()": "d2b53948",
					"suspiciousActivity(address)": "cf87f052",
					"toggleStop()": "9a70eef1",
					"transcationHistory(uint256)": "79546275",
					"transferToContract()": "12cccb34",
					"transferToUserViaContract(address,uint256)": "47cdcc1f",
					"transferToUserViaMsgValue(address)": "6f3f42ac",
					"withdrawFromContract(uint256)": "aeae547d"
				}
			},
			"storageLayout": {
				"storage": [
					{
						"astId": 18,
						"contract": "contracts/_SimpleWallet.sol:SimpleWallet",
						"label": "transcationHistory",
						"offset": 0,
						"slot": "0",
						"type": "t_array(t_struct(Transaction)14_storage)dyn_storage"
					},
					{
						"astId": 20,
						"contract": "contracts/_SimpleWallet.sol:SimpleWallet",
						"label": "owner",
						"offset": 0,
						"slot": "1",
						"type": "t_address"
					},
					{
						"astId": 22,
						"contract": "contracts/_SimpleWallet.sol:SimpleWallet",
						"label": "old",
						"offset": 0,
						"slot": "2",
						"type": "t_uint256"
					},
					{
						"astId": 24,
						"contract": "contracts/_SimpleWallet.sol:SimpleWallet",
						"label": "newval",
						"offset": 0,
						"slot": "3",
						"type": "t_uint256"
					},
					{
						"astId": 26,
						"contract": "contracts/_SimpleWallet.sol:SimpleWallet",
						"label": "message",
						"offset": 0,
						"slot": "4",
						"type": "t_string_storage"
					},
					{
						"astId": 29,
						"contract": "contracts/_SimpleWallet.sol:SimpleWallet",
						"label": "stop",
						"offset": 0,
						"slot": "5",
						"type": "t_bool"
					},
					{
						"astId": 45,
						"contract": "contracts/_SimpleWallet.sol:SimpleWallet",
						"label": "SuspiciousUser",
						"offset": 0,
						"slot": "6",
						"type": "t_mapping(t_address,t_uint256)"
					}
				],
				"types": {
					"t_address": {
						"encoding": "inplace",
						"label": "address",
						"numberOfBytes": "20"
					},
					"t_array(t_struct(Transaction)14_storage)dyn_storage": {
						"base": "t_struct(Transaction)14_storage",
						"encoding": "dynamic_array",
						"label": "struct SimpleWallet.Transaction[]",
						"numberOfBytes": "32"
					},
					"t_bool": {
						"encoding": "inplace",
						"label": "bool",
						"numberOfBytes": "1"
					},
					"t_mapping(t_address,t_uint256)": {
						"encoding": "mapping",
						"key": "t_address",
						"label": "mapping(address => uint256)",
						"numberOfBytes": "32",
						"value": "t_uint256"
					},
					"t_string_storage": {
						"encoding": "bytes",
						"label": "string",
						"numberOfBytes": "32"
					},
					"t_struct(Transaction)14_storage": {
						"encoding": "inplace",
						"label": "struct SimpleWallet.Transaction",
						"members": [
							{
								"astId": 7,
								"contract": "contracts/_SimpleWallet.sol:SimpleWallet",
								"label": "to",
								"offset": 0,
								"slot": "0",
								"type": "t_address"
							},
							{
								"astId": 9,
								"contract": "contracts/_SimpleWallet.sol:SimpleWallet",
								"label": "send",
								"offset": 0,
								"slot": "1",
								"type": "t_address"
							},
							{
								"astId": 11,
								"contract": "contracts/_SimpleWallet.sol:SimpleWallet",
								"label": "timestamp",
								"offset": 0,
								"slot": "2",
								"type": "t_uint256"
							},
							{
								"astId": 13,
								"contract": "contracts/_SimpleWallet.sol:SimpleWallet",
								"label": "amount",
								"offset": 0,
								"slot": "3",
								"type": "t_uint256"
							}
						],
						"numberOfBytes": "128"
					},
					"t_uint256": {
						"encoding": "inplace",
						"label": "uint256",
						"numberOfBytes": "32"
					}
				}
			},
			"userdoc": {
				"kind": "user",
				"methods": {
					"transferToContract()": {
						"notice": "Contract related functions*"
					},
					"transferToUserViaMsgValue(address)": {
						"notice": "User related functions*"
					}
				},
				"version": 1
			}
		}
	}
}