{
	"contracts/_Twitter.sol": {
		"Twitter": {
			"abi": [
				{
					"inputs": [],
					"stateMutability": "nonpayable",
					"type": "constructor"
				},
				{
					"inputs": [
						{
							"internalType": "uint256",
							"name": "",
							"type": "uint256"
						}
					],
					"name": "allMessages",
					"outputs": [
						{
							"internalType": "uint256",
							"name": "Id",
							"type": "uint256"
						},
						{
							"internalType": "string",
							"name": "content",
							"type": "string"
						},
						{
							"internalType": "address",
							"name": "sender",
							"type": "address"
						},
						{
							"internalType": "address",
							"name": "receiver",
							"type": "address"
						},
						{
							"internalType": "uint256",
							"name": "creation_timestamp",
							"type": "uint256"
						}
					],
					"stateMutability": "view",
					"type": "function"
				},
				{
					"inputs": [
						{
							"internalType": "uint256",
							"name": "",
							"type": "uint256"
						}
					],
					"name": "allTweets",
					"outputs": [
						{
							"internalType": "uint256",
							"name": "Id",
							"type": "uint256"
						},
						{
							"internalType": "address",
							"name": "author",
							"type": "address"
						},
						{
							"internalType": "string",
							"name": "content",
							"type": "string"
						},
						{
							"internalType": "uint256",
							"name": "creation_timestamp",
							"type": "uint256"
						}
					],
					"stateMutability": "view",
					"type": "function"
				},
				{
					"inputs": [
						{
							"internalType": "address",
							"name": "",
							"type": "address"
						},
						{
							"internalType": "uint256",
							"name": "",
							"type": "uint256"
						}
					],
					"name": "conversations",
					"outputs": [
						{
							"internalType": "uint256",
							"name": "Id",
							"type": "uint256"
						},
						{
							"internalType": "string",
							"name": "content",
							"type": "string"
						},
						{
							"internalType": "address",
							"name": "sender",
							"type": "address"
						},
						{
							"internalType": "address",
							"name": "receiver",
							"type": "address"
						},
						{
							"internalType": "uint256",
							"name": "creation_timestamp",
							"type": "uint256"
						}
					],
					"stateMutability": "view",
					"type": "function"
				},
				{
					"inputs": [
						{
							"internalType": "address",
							"name": "",
							"type": "address"
						},
						{
							"internalType": "uint256",
							"name": "",
							"type": "uint256"
						}
					],
					"name": "following",
					"outputs": [
						{
							"internalType": "address",
							"name": "",
							"type": "address"
						}
					],
					"stateMutability": "view",
					"type": "function"
				},
				{
					"inputs": [
						{
							"internalType": "address",
							"name": "",
							"type": "address"
						},
						{
							"internalType": "address",
							"name": "",
							"type": "address"
						}
					],
					"name": "operators",
					"outputs": [
						{
							"internalType": "bool",
							"name": "",
							"type": "bool"
						}
					],
					"stateMutability": "view",
					"type": "function"
				},
				{
					"inputs": [
						{
							"internalType": "address",
							"name": "_from",
							"type": "address"
						},
						{
							"internalType": "string",
							"name": "_content",
							"type": "string"
						}
					],
					"name": "tweet",
					"outputs": [],
					"stateMutability": "nonpayable",
					"type": "function"
				},
				{
					"inputs": [
						{
							"internalType": "string",
							"name": "_content",
							"type": "string"
						}
					],
					"name": "tweet",
					"outputs": [],
					"stateMutability": "nonpayable",
					"type": "function"
				},
				{
					"inputs": [
						{
							"internalType": "uint256",
							"name": "",
							"type": "uint256"
						}
					],
					"name": "tweets",
					"outputs": [
						{
							"internalType": "uint256",
							"name": "Id",
							"type": "uint256"
						},
						{
							"internalType": "address",
							"name": "author",
							"type": "address"
						},
						{
							"internalType": "string",
							"name": "content",
							"type": "string"
						},
						{
							"internalType": "uint256",
							"name": "creation_timestamp",
							"type": "uint256"
						}
					],
					"stateMutability": "view",
					"type": "function"
				},
				{
					"inputs": [
						{
							"internalType": "uint256",
							"name": "",
							"type": "uint256"
						},
						{
							"internalType": "uint256",
							"name": "",
							"type": "uint256"
						}
					],
					"name": "tweetsOf",
					"outputs": [
						{
							"internalType": "uint256",
							"name": "",
							"type": "uint256"
						}
					],
					"stateMutability": "view",
					"type": "function"
				},
				{
					"inputs": [],
					"name": "user",
					"outputs": [
						{
							"internalType": "address",
							"name": "",
							"type": "address"
						}
					],
					"stateMutability": "view",
					"type": "function"
				}
			],
			"devdoc": {
				"kind": "dev",
				"methods": {},
				"version": 1
			},
			"evm": {
				"assembly": "    /* \"contracts/_Twitter.sol\":2448:5314  contract Twitter{... */\n  mstore(0x40, 0x80)\n    /* \"contracts/_Twitter.sol\":3598:3599  0 */\n  0x00\n    /* \"contracts/_Twitter.sol\":3578:3599  uint  nextTweetId = 0 */\n  0x06\n  sstore\n    /* \"contracts/_Twitter.sol\":3624:3625  0 */\n  0x00\n    /* \"contracts/_Twitter.sol\":3602:3625  uint  nextMessageId = 0 */\n  0x07\n  sstore\n    /* \"contracts/_Twitter.sol\":3741:3782  constructor(){... */\n  callvalue\n  dup1\n  iszero\n  tag_1\n  jumpi\n  revert(0x00, 0x00)\ntag_1:\n  pop\n    /* \"contracts/_Twitter.sol\":3768:3778  msg.sender */\n  caller\n    /* \"contracts/_Twitter.sol\":3761:3765  user */\n  0x05\n  0x00\n    /* \"contracts/_Twitter.sol\":3761:3778  user = msg.sender */\n  0x0100\n  exp\n  dup2\n  sload\n  dup2\n  0xffffffffffffffffffffffffffffffffffffffff\n  mul\n  not\n  and\n  swap1\n  dup4\n  0xffffffffffffffffffffffffffffffffffffffff\n  and\n  mul\n  or\n  swap1\n  sstore\n  pop\n    /* \"contracts/_Twitter.sol\":2448:5314  contract Twitter{... */\n  dataSize(sub_0)\n  dup1\n  dataOffset(sub_0)\n  0x00\n  codecopy\n  0x00\n  return\nstop\n\nsub_0: assembly {\n        /* \"contracts/_Twitter.sol\":2448:5314  contract Twitter{... */\n      mstore(0x40, 0x80)\n      callvalue\n      dup1\n      iszero\n      tag_1\n      jumpi\n      revert(0x00, 0x00)\n    tag_1:\n      pop\n      jumpi(tag_2, lt(calldatasize, 0x04))\n      shr(0xe0, calldataload(0x00))\n      dup1\n      0x9b88c806\n      gt\n      tag_13\n      jumpi\n      dup1\n      0x9b88c806\n      eq\n      tag_8\n      jumpi\n      dup1\n      0xd21d1596\n      eq\n      tag_9\n      jumpi\n      dup1\n      0xe28350b7\n      eq\n      tag_10\n      jumpi\n      dup1\n      0xe8d857b0\n      eq\n      tag_11\n      jumpi\n      dup1\n      0xfb46d4c5\n      eq\n      tag_12\n      jumpi\n      jump(tag_2)\n    tag_13:\n      dup1\n      0x14d648de\n      eq\n      tag_3\n      jumpi\n      dup1\n      0x2637588e\n      eq\n      tag_4\n      jumpi\n      dup1\n      0x3befea09\n      eq\n      tag_5\n      jumpi\n      dup1\n      0x4f8632ba\n      eq\n      tag_6\n      jumpi\n      dup1\n      0x9139cda5\n      eq\n      tag_7\n      jumpi\n    tag_2:\n      revert(0x00, 0x00)\n        /* \"contracts/_Twitter.sol\":3115:3157  mapping (uint => uint[]) public   tweetsOf */\n    tag_3:\n      tag_14\n      0x04\n      dup1\n      calldatasize\n      sub\n      dup2\n      add\n      swap1\n      tag_15\n      swap2\n      swap1\n      tag_16\n      jump\t// in\n    tag_15:\n      tag_17\n      jump\t// in\n    tag_14:\n      mload(0x40)\n      tag_18\n      swap2\n      swap1\n      tag_19\n      jump\t// in\n    tag_18:\n      mload(0x40)\n      dup1\n      swap2\n      sub\n      swap1\n      return\n        /* \"contracts/_Twitter.sol\":3340:3404  mapping (address => mapping(address => bool)) public   operators */\n    tag_4:\n      tag_20\n      0x04\n      dup1\n      calldatasize\n      sub\n      dup2\n      add\n      swap1\n      tag_21\n      swap2\n      swap1\n      tag_22\n      jump\t// in\n    tag_21:\n      tag_23\n      jump\t// in\n    tag_20:\n      mload(0x40)\n      tag_24\n      swap2\n      swap1\n      tag_25\n      jump\t// in\n    tag_24:\n      mload(0x40)\n      dup1\n      swap2\n      sub\n      swap1\n      return\n        /* \"contracts/_Twitter.sol\":3229:3280  mapping (address => Message[]) public conversations */\n    tag_5:\n      tag_26\n      0x04\n      dup1\n      calldatasize\n      sub\n      dup2\n      add\n      swap1\n      tag_27\n      swap2\n      swap1\n      tag_28\n      jump\t// in\n    tag_27:\n      tag_29\n      jump\t// in\n    tag_26:\n      mload(0x40)\n      tag_30\n      swap6\n      swap5\n      swap4\n      swap3\n      swap2\n      swap1\n      tag_31\n      jump\t// in\n    tag_30:\n      mload(0x40)\n      dup1\n      swap2\n      sub\n      swap1\n      return\n        /* \"contracts/_Twitter.sol\":3540:3559  address public user */\n    tag_6:\n      tag_32\n      tag_33\n      jump\t// in\n    tag_32:\n      mload(0x40)\n      tag_34\n      swap2\n      swap1\n      tag_35\n      jump\t// in\n    tag_34:\n      mload(0x40)\n      dup1\n      swap2\n      sub\n      swap1\n      return\n        /* \"contracts/_Twitter.sol\":3483:3531  mapping (address => address[]) public  following */\n    tag_7:\n      tag_36\n      0x04\n      dup1\n      calldatasize\n      sub\n      dup2\n      add\n      swap1\n      tag_37\n      swap2\n      swap1\n      tag_28\n      jump\t// in\n    tag_37:\n      tag_38\n      jump\t// in\n    tag_36:\n      mload(0x40)\n      tag_39\n      swap2\n      swap1\n      tag_35\n      jump\t// in\n    tag_39:\n      mload(0x40)\n      dup1\n      swap2\n      sub\n      swap1\n      return\n        /* \"contracts/_Twitter.sol\":3686:3715  Message[] public  allMessages */\n    tag_8:\n      tag_40\n      0x04\n      dup1\n      calldatasize\n      sub\n      dup2\n      add\n      swap1\n      tag_41\n      swap2\n      swap1\n      tag_42\n      jump\t// in\n    tag_41:\n      tag_43\n      jump\t// in\n    tag_40:\n      mload(0x40)\n      tag_44\n      swap6\n      swap5\n      swap4\n      swap3\n      swap2\n      swap1\n      tag_31\n      jump\t// in\n    tag_44:\n      mload(0x40)\n      dup1\n      swap2\n      sub\n      swap1\n      return\n        /* \"contracts/_Twitter.sol\":5204:5305  function tweet(address _from, string memory _content) public {... */\n    tag_9:\n      tag_45\n      0x04\n      dup1\n      calldatasize\n      sub\n      dup2\n      add\n      swap1\n      tag_46\n      swap2\n      swap1\n      tag_47\n      jump\t// in\n    tag_46:\n      tag_48\n      jump\t// in\n    tag_45:\n      stop\n        /* \"contracts/_Twitter.sol\":3658:3683  Tweet[]  public allTweets */\n    tag_10:\n      tag_49\n      0x04\n      dup1\n      calldatasize\n      sub\n      dup2\n      add\n      swap1\n      tag_50\n      swap2\n      swap1\n      tag_42\n      jump\t// in\n    tag_50:\n      tag_51\n      jump\t// in\n    tag_49:\n      mload(0x40)\n      tag_52\n      swap5\n      swap4\n      swap3\n      swap2\n      swap1\n      tag_53\n      jump\t// in\n    tag_52:\n      mload(0x40)\n      dup1\n      swap2\n      sub\n      swap1\n      return\n        /* \"contracts/_Twitter.sol\":3009:3047  mapping (uint => Tweet) public  tweets */\n    tag_11:\n      tag_54\n      0x04\n      dup1\n      calldatasize\n      sub\n      dup2\n      add\n      swap1\n      tag_55\n      swap2\n      swap1\n      tag_42\n      jump\t// in\n    tag_55:\n      tag_56\n      jump\t// in\n    tag_54:\n      mload(0x40)\n      tag_57\n      swap5\n      swap4\n      swap3\n      swap2\n      swap1\n      tag_53\n      jump\t// in\n    tag_57:\n      mload(0x40)\n      dup1\n      swap2\n      sub\n      swap1\n      return\n        /* \"contracts/_Twitter.sol\":4985:5090  function tweet(string memory _content) public {... */\n    tag_12:\n      tag_58\n      0x04\n      dup1\n      calldatasize\n      sub\n      dup2\n      add\n      swap1\n      tag_59\n      swap2\n      swap1\n      tag_60\n      jump\t// in\n    tag_59:\n      tag_61\n      jump\t// in\n    tag_58:\n      stop\n        /* \"contracts/_Twitter.sol\":3115:3157  mapping (uint => uint[]) public   tweetsOf */\n    tag_17:\n      mstore(0x20, 0x01)\n      dup2\n      0x00\n      mstore\n      keccak256(0x00, 0x40)\n      dup2\n      dup2\n      sload\n      dup2\n      lt\n      tag_62\n      jumpi\n      0x00\n      dup1\n      revert\n    tag_62:\n      swap1\n      0x00\n      mstore\n      keccak256(0x00, 0x20)\n      add\n      0x00\n      swap2\n      pop\n      swap2\n      pop\n      pop\n      sload\n      dup2\n      jump\t// out\n        /* \"contracts/_Twitter.sol\":3340:3404  mapping (address => mapping(address => bool)) public   operators */\n    tag_23:\n      mstore(0x20, 0x03)\n      dup2\n      0x00\n      mstore\n      mstore(0x20, keccak256(0x00, 0x40))\n      dup1\n      0x00\n      mstore\n      keccak256(0x00, 0x40)\n      0x00\n      swap2\n      pop\n      swap2\n      pop\n      swap1\n      sload\n      swap1\n      0x0100\n      exp\n      swap1\n      div\n      0xff\n      and\n      dup2\n      jump\t// out\n        /* \"contracts/_Twitter.sol\":3229:3280  mapping (address => Message[]) public conversations */\n    tag_29:\n      mstore(0x20, 0x02)\n      dup2\n      0x00\n      mstore\n      keccak256(0x00, 0x40)\n      dup2\n      dup2\n      sload\n      dup2\n      lt\n      tag_64\n      jumpi\n      0x00\n      dup1\n      revert\n    tag_64:\n      swap1\n      0x00\n      mstore\n      keccak256(0x00, 0x20)\n      swap1\n      0x05\n      mul\n      add\n      0x00\n      swap2\n      pop\n      swap2\n      pop\n      pop\n      dup1\n      0x00\n      add\n      sload\n      swap1\n      dup1\n      0x01\n      add\n      dup1\n      sload\n      tag_66\n      swap1\n      tag_67\n      jump\t// in\n    tag_66:\n      dup1\n      0x1f\n      add\n      0x20\n      dup1\n      swap2\n      div\n      mul\n      0x20\n      add\n      mload(0x40)\n      swap1\n      dup2\n      add\n      0x40\n      mstore\n      dup1\n      swap3\n      swap2\n      swap1\n      dup2\n      dup2\n      mstore\n      0x20\n      add\n      dup3\n      dup1\n      sload\n      tag_68\n      swap1\n      tag_67\n      jump\t// in\n    tag_68:\n      dup1\n      iszero\n      tag_69\n      jumpi\n      dup1\n      0x1f\n      lt\n      tag_70\n      jumpi\n      0x0100\n      dup1\n      dup4\n      sload\n      div\n      mul\n      dup4\n      mstore\n      swap2\n      0x20\n      add\n      swap2\n      jump(tag_69)\n    tag_70:\n      dup3\n      add\n      swap2\n      swap1\n      0x00\n      mstore\n      keccak256(0x00, 0x20)\n      swap1\n    tag_71:\n      dup2\n      sload\n      dup2\n      mstore\n      swap1\n      0x01\n      add\n      swap1\n      0x20\n      add\n      dup1\n      dup4\n      gt\n      tag_71\n      jumpi\n      dup3\n      swap1\n      sub\n      0x1f\n      and\n      dup3\n      add\n      swap2\n    tag_69:\n      pop\n      pop\n      pop\n      pop\n      pop\n      swap1\n      dup1\n      0x02\n      add\n      0x00\n      swap1\n      sload\n      swap1\n      0x0100\n      exp\n      swap1\n      div\n      0xffffffffffffffffffffffffffffffffffffffff\n      and\n      swap1\n      dup1\n      0x03\n      add\n      0x00\n      swap1\n      sload\n      swap1\n      0x0100\n      exp\n      swap1\n      div\n      0xffffffffffffffffffffffffffffffffffffffff\n      and\n      swap1\n      dup1\n      0x04\n      add\n      sload\n      swap1\n      pop\n      dup6\n      jump\t// out\n        /* \"contracts/_Twitter.sol\":3540:3559  address public user */\n    tag_33:\n      0x05\n      0x00\n      swap1\n      sload\n      swap1\n      0x0100\n      exp\n      swap1\n      div\n      0xffffffffffffffffffffffffffffffffffffffff\n      and\n      dup2\n      jump\t// out\n        /* \"contracts/_Twitter.sol\":3483:3531  mapping (address => address[]) public  following */\n    tag_38:\n      mstore(0x20, 0x04)\n      dup2\n      0x00\n      mstore\n      keccak256(0x00, 0x40)\n      dup2\n      dup2\n      sload\n      dup2\n      lt\n      tag_72\n      jumpi\n      0x00\n      dup1\n      revert\n    tag_72:\n      swap1\n      0x00\n      mstore\n      keccak256(0x00, 0x20)\n      add\n      0x00\n      swap2\n      pop\n      swap2\n      pop\n      swap1\n      sload\n      swap1\n      0x0100\n      exp\n      swap1\n      div\n      0xffffffffffffffffffffffffffffffffffffffff\n      and\n      dup2\n      jump\t// out\n        /* \"contracts/_Twitter.sol\":3686:3715  Message[] public  allMessages */\n    tag_43:\n      0x09\n      dup2\n      dup2\n      sload\n      dup2\n      lt\n      tag_74\n      jumpi\n      0x00\n      dup1\n      revert\n    tag_74:\n      swap1\n      0x00\n      mstore\n      keccak256(0x00, 0x20)\n      swap1\n      0x05\n      mul\n      add\n      0x00\n      swap2\n      pop\n      swap1\n      pop\n      dup1\n      0x00\n      add\n      sload\n      swap1\n      dup1\n      0x01\n      add\n      dup1\n      sload\n      tag_76\n      swap1\n      tag_67\n      jump\t// in\n    tag_76:\n      dup1\n      0x1f\n      add\n      0x20\n      dup1\n      swap2\n      div\n      mul\n      0x20\n      add\n      mload(0x40)\n      swap1\n      dup2\n      add\n      0x40\n      mstore\n      dup1\n      swap3\n      swap2\n      swap1\n      dup2\n      dup2\n      mstore\n      0x20\n      add\n      dup3\n      dup1\n      sload\n      tag_77\n      swap1\n      tag_67\n      jump\t// in\n    tag_77:\n      dup1\n      iszero\n      tag_78\n      jumpi\n      dup1\n      0x1f\n      lt\n      tag_79\n      jumpi\n      0x0100\n      dup1\n      dup4\n      sload\n      div\n      mul\n      dup4\n      mstore\n      swap2\n      0x20\n      add\n      swap2\n      jump(tag_78)\n    tag_79:\n      dup3\n      add\n      swap2\n      swap1\n      0x00\n      mstore\n      keccak256(0x00, 0x20)\n      swap1\n    tag_80:\n      dup2\n      sload\n      dup2\n      mstore\n      swap1\n      0x01\n      add\n      swap1\n      0x20\n      add\n      dup1\n      dup4\n      gt\n      tag_80\n      jumpi\n      dup3\n      swap1\n      sub\n      0x1f\n      and\n      dup3\n      add\n      swap2\n    tag_78:\n      pop\n      pop\n      pop\n      pop\n      pop\n      swap1\n      dup1\n      0x02\n      add\n      0x00\n      swap1\n      sload\n      swap1\n      0x0100\n      exp\n      swap1\n      div\n      0xffffffffffffffffffffffffffffffffffffffff\n      and\n      swap1\n      dup1\n      0x03\n      add\n      0x00\n      swap1\n      sload\n      swap1\n      0x0100\n      exp\n      swap1\n      div\n      0xffffffffffffffffffffffffffffffffffffffff\n      and\n      swap1\n      dup1\n      0x04\n      add\n      sload\n      swap1\n      pop\n      dup6\n      jump\t// out\n        /* \"contracts/_Twitter.sol\":5204:5305  function tweet(address _from, string memory _content) public {... */\n    tag_48:\n      pop\n      pop\n      jump\t// out\n        /* \"contracts/_Twitter.sol\":3658:3683  Tweet[]  public allTweets */\n    tag_51:\n      0x08\n      dup2\n      dup2\n      sload\n      dup2\n      lt\n      tag_82\n      jumpi\n      0x00\n      dup1\n      revert\n    tag_82:\n      swap1\n      0x00\n      mstore\n      keccak256(0x00, 0x20)\n      swap1\n      0x04\n      mul\n      add\n      0x00\n      swap2\n      pop\n      swap1\n      pop\n      dup1\n      0x00\n      add\n      sload\n      swap1\n      dup1\n      0x01\n      add\n      0x00\n      swap1\n      sload\n      swap1\n      0x0100\n      exp\n      swap1\n      div\n      0xffffffffffffffffffffffffffffffffffffffff\n      and\n      swap1\n      dup1\n      0x02\n      add\n      dup1\n      sload\n      tag_84\n      swap1\n      tag_67\n      jump\t// in\n    tag_84:\n      dup1\n      0x1f\n      add\n      0x20\n      dup1\n      swap2\n      div\n      mul\n      0x20\n      add\n      mload(0x40)\n      swap1\n      dup2\n      add\n      0x40\n      mstore\n      dup1\n      swap3\n      swap2\n      swap1\n      dup2\n      dup2\n      mstore\n      0x20\n      add\n      dup3\n      dup1\n      sload\n      tag_85\n      swap1\n      tag_67\n      jump\t// in\n    tag_85:\n      dup1\n      iszero\n      tag_86\n      jumpi\n      dup1\n      0x1f\n      lt\n      tag_87\n      jumpi\n      0x0100\n      dup1\n      dup4\n      sload\n      div\n      mul\n      dup4\n      mstore\n      swap2\n      0x20\n      add\n      swap2\n      jump(tag_86)\n    tag_87:\n      dup3\n      add\n      swap2\n      swap1\n      0x00\n      mstore\n      keccak256(0x00, 0x20)\n      swap1\n    tag_88:\n      dup2\n      sload\n      dup2\n      mstore\n      swap1\n      0x01\n      add\n      swap1\n      0x20\n      add\n      dup1\n      dup4\n      gt\n      tag_88\n      jumpi\n      dup3\n      swap1\n      sub\n      0x1f\n      and\n      dup3\n      add\n      swap2\n    tag_86:\n      pop\n      pop\n      pop\n      pop\n      pop\n      swap1\n      dup1\n      0x03\n      add\n      sload\n      swap1\n      pop\n      dup5\n      jump\t// out\n        /* \"contracts/_Twitter.sol\":3009:3047  mapping (uint => Tweet) public  tweets */\n    tag_56:\n      mstore(0x20, 0x00)\n      dup1\n      0x00\n      mstore\n      keccak256(0x00, 0x40)\n      0x00\n      swap2\n      pop\n      swap1\n      pop\n      dup1\n      0x00\n      add\n      sload\n      swap1\n      dup1\n      0x01\n      add\n      0x00\n      swap1\n      sload\n      swap1\n      0x0100\n      exp\n      swap1\n      div\n      0xffffffffffffffffffffffffffffffffffffffff\n      and\n      swap1\n      dup1\n      0x02\n      add\n      dup1\n      sload\n      tag_89\n      swap1\n      tag_67\n      jump\t// in\n    tag_89:\n      dup1\n      0x1f\n      add\n      0x20\n      dup1\n      swap2\n      div\n      mul\n      0x20\n      add\n      mload(0x40)\n      swap1\n      dup2\n      add\n      0x40\n      mstore\n      dup1\n      swap3\n      swap2\n      swap1\n      dup2\n      dup2\n      mstore\n      0x20\n      add\n      dup3\n      dup1\n      sload\n      tag_90\n      swap1\n      tag_67\n      jump\t// in\n    tag_90:\n      dup1\n      iszero\n      tag_91\n      jumpi\n      dup1\n      0x1f\n      lt\n      tag_92\n      jumpi\n      0x0100\n      dup1\n      dup4\n      sload\n      div\n      mul\n      dup4\n      mstore\n      swap2\n      0x20\n      add\n      swap2\n      jump(tag_91)\n    tag_92:\n      dup3\n      add\n      swap2\n      swap1\n      0x00\n      mstore\n      keccak256(0x00, 0x20)\n      swap1\n    tag_93:\n      dup2\n      sload\n      dup2\n      mstore\n      swap1\n      0x01\n      add\n      swap1\n      0x20\n      add\n      dup1\n      dup4\n      gt\n      tag_93\n      jumpi\n      dup3\n      swap1\n      sub\n      0x1f\n      and\n      dup3\n      add\n      swap2\n    tag_91:\n      pop\n      pop\n      pop\n      pop\n      pop\n      swap1\n      dup1\n      0x03\n      add\n      sload\n      swap1\n      pop\n      dup5\n      jump\t// out\n        /* \"contracts/_Twitter.sol\":4985:5090  function tweet(string memory _content) public {... */\n    tag_61:\n        /* \"contracts/_Twitter.sol\":5058:5086  _tweet(msg.sender, _content) */\n      tag_95\n        /* \"contracts/_Twitter.sol\":5065:5075  msg.sender */\n      caller\n        /* \"contracts/_Twitter.sol\":5077:5085  _content */\n      dup3\n        /* \"contracts/_Twitter.sol\":5058:5064  _tweet */\n      tag_96\n        /* \"contracts/_Twitter.sol\":5058:5086  _tweet(msg.sender, _content) */\n      jump\t// in\n    tag_95:\n        /* \"contracts/_Twitter.sol\":4985:5090  function tweet(string memory _content) public {... */\n      pop\n      jump\t// out\n        /* \"contracts/_Twitter.sol\":3907:4232  function _tweet(address _from, string memory _content) internal   {... */\n    tag_96:\n        /* \"contracts/_Twitter.sol\":4002:4145  Tweet({... */\n      mload(0x40)\n      dup1\n      0x80\n      add\n      0x40\n      mstore\n      dup1\n        /* \"contracts/_Twitter.sol\":4024:4035  nextTweetId */\n      sload(0x06)\n        /* \"contracts/_Twitter.sol\":4002:4145  Tweet({... */\n      dup2\n      mstore\n      0x20\n      add\n        /* \"contracts/_Twitter.sol\":4055:4060  _from */\n      dup4\n        /* \"contracts/_Twitter.sol\":4002:4145  Tweet({... */\n      0xffffffffffffffffffffffffffffffffffffffff\n      and\n      dup2\n      mstore\n      0x20\n      add\n        /* \"contracts/_Twitter.sol\":4082:4090  _content */\n      dup3\n        /* \"contracts/_Twitter.sol\":4002:4145  Tweet({... */\n      dup2\n      mstore\n      0x20\n      add\n        /* \"contracts/_Twitter.sol\":4122:4137  block.timestamp */\n      timestamp\n        /* \"contracts/_Twitter.sol\":4002:4145  Tweet({... */\n      dup2\n      mstore\n      pop\n        /* \"contracts/_Twitter.sol\":3980:3986  tweets */\n      0x00\n        /* \"contracts/_Twitter.sol\":3980:3999  tweets[nextTweetId] */\n      0x00\n        /* \"contracts/_Twitter.sol\":3987:3998  nextTweetId */\n      sload(0x06)\n        /* \"contracts/_Twitter.sol\":3980:3999  tweets[nextTweetId] */\n      dup2\n      mstore\n      0x20\n      add\n      swap1\n      dup2\n      mstore\n      0x20\n      add\n      0x00\n      keccak256\n        /* \"contracts/_Twitter.sol\":3980:4145  tweets[nextTweetId] = Tweet({... */\n      0x00\n      dup3\n      add\n      mload\n      dup2\n      0x00\n      add\n      sstore\n      0x20\n      dup3\n      add\n      mload\n      dup2\n      0x01\n      add\n      exp(0x0100, 0x00)\n      dup2\n      sload\n      dup2\n      0xffffffffffffffffffffffffffffffffffffffff\n      mul\n      not\n      and\n      swap1\n      dup4\n      0xffffffffffffffffffffffffffffffffffffffff\n      and\n      mul\n      or\n      swap1\n      sstore\n      pop\n      0x40\n      dup3\n      add\n      mload\n      dup2\n      0x02\n      add\n      swap1\n      dup2\n      tag_98\n      swap2\n      swap1\n      tag_99\n      jump\t// in\n    tag_98:\n      pop\n      0x60\n      dup3\n      add\n      mload\n      dup2\n      0x03\n      add\n      sstore\n      swap1\n      pop\n      pop\n        /* \"contracts/_Twitter.sol\":4173:4182  allTweets */\n      0x08\n        /* \"contracts/_Twitter.sol\":4188:4194  tweets */\n      0x00\n        /* \"contracts/_Twitter.sol\":4188:4207  tweets[nextTweetId] */\n      0x00\n        /* \"contracts/_Twitter.sol\":4195:4206  nextTweetId */\n      sload(0x06)\n        /* \"contracts/_Twitter.sol\":4188:4207  tweets[nextTweetId] */\n      dup2\n      mstore\n      0x20\n      add\n      swap1\n      dup2\n      mstore\n      0x20\n      add\n      0x00\n      keccak256\n        /* \"contracts/_Twitter.sol\":4173:4208  allTweets.push(tweets[nextTweetId]) */\n      swap1\n      dup1\n      0x01\n      dup2\n      sload\n      add\n      dup1\n      dup3\n      sstore\n      dup1\n      swap2\n      pop\n      pop\n      0x01\n      swap1\n      sub\n      swap1\n      0x00\n      mstore\n      keccak256(0x00, 0x20)\n      swap1\n      0x04\n      mul\n      add\n      0x00\n      swap1\n      swap2\n      swap1\n      swap2\n      swap1\n      swap2\n      pop\n      0x00\n      dup3\n      add\n      sload\n      dup2\n      0x00\n      add\n      sstore\n      0x01\n      dup3\n      add\n      0x00\n      swap1\n      sload\n      swap1\n      0x0100\n      exp\n      swap1\n      div\n      0xffffffffffffffffffffffffffffffffffffffff\n      and\n      dup2\n      0x01\n      add\n      exp(0x0100, 0x00)\n      dup2\n      sload\n      dup2\n      0xffffffffffffffffffffffffffffffffffffffff\n      mul\n      not\n      and\n      swap1\n      dup4\n      0xffffffffffffffffffffffffffffffffffffffff\n      and\n      mul\n      or\n      swap1\n      sstore\n      pop\n      0x02\n      dup3\n      add\n      dup2\n      0x02\n      add\n      swap1\n      dup2\n      tag_101\n      swap2\n      swap1\n      tag_102\n      jump\t// in\n    tag_101:\n      pop\n      0x03\n      dup3\n      add\n      sload\n      dup2\n      0x03\n      add\n      sstore\n      pop\n      pop\n        /* \"contracts/_Twitter.sol\":4215:4226  nextTweetId */\n      0x06\n      0x00\n        /* \"contracts/_Twitter.sol\":4215:4228  nextTweetId++ */\n      dup2\n      sload\n      dup1\n      swap3\n      swap2\n      swap1\n      tag_103\n      swap1\n      tag_104\n      jump\t// in\n    tag_103:\n      swap2\n      swap1\n      pop\n      sstore\n      pop\n        /* \"contracts/_Twitter.sol\":3907:4232  function _tweet(address _from, string memory _content) internal   {... */\n      pop\n      pop\n      jump\t// out\n        /* \"#utility.yul\":7:82   */\n    tag_105:\n        /* \"#utility.yul\":40:46   */\n      0x00\n        /* \"#utility.yul\":73:75   */\n      0x40\n        /* \"#utility.yul\":67:76   */\n      mload\n        /* \"#utility.yul\":57:76   */\n      swap1\n      pop\n        /* \"#utility.yul\":7:82   */\n      swap1\n      jump\t// out\n        /* \"#utility.yul\":88:205   */\n    tag_106:\n        /* \"#utility.yul\":197:198   */\n      0x00\n        /* \"#utility.yul\":194:195   */\n      0x00\n        /* \"#utility.yul\":187:199   */\n      revert\n        /* \"#utility.yul\":211:328   */\n    tag_107:\n        /* \"#utility.yul\":320:321   */\n      0x00\n        /* \"#utility.yul\":317:318   */\n      0x00\n        /* \"#utility.yul\":310:322   */\n      revert\n        /* \"#utility.yul\":334:411   */\n    tag_108:\n        /* \"#utility.yul\":371:378   */\n      0x00\n        /* \"#utility.yul\":400:405   */\n      dup2\n        /* \"#utility.yul\":389:405   */\n      swap1\n      pop\n        /* \"#utility.yul\":334:411   */\n      swap2\n      swap1\n      pop\n      jump\t// out\n        /* \"#utility.yul\":417:539   */\n    tag_109:\n        /* \"#utility.yul\":490:514   */\n      tag_157\n        /* \"#utility.yul\":508:513   */\n      dup2\n        /* \"#utility.yul\":490:514   */\n      tag_108\n      jump\t// in\n    tag_157:\n        /* \"#utility.yul\":483:488   */\n      dup2\n        /* \"#utility.yul\":480:515   */\n      eq\n        /* \"#utility.yul\":470:533   */\n      tag_158\n      jumpi\n        /* \"#utility.yul\":529:530   */\n      0x00\n        /* \"#utility.yul\":526:527   */\n      0x00\n        /* \"#utility.yul\":519:531   */\n      revert\n        /* \"#utility.yul\":470:533   */\n    tag_158:\n        /* \"#utility.yul\":417:539   */\n      pop\n      jump\t// out\n        /* \"#utility.yul\":545:684   */\n    tag_110:\n        /* \"#utility.yul\":591:596   */\n      0x00\n        /* \"#utility.yul\":629:635   */\n      dup2\n        /* \"#utility.yul\":616:636   */\n      calldataload\n        /* \"#utility.yul\":607:636   */\n      swap1\n      pop\n        /* \"#utility.yul\":645:678   */\n      tag_160\n        /* \"#utility.yul\":672:677   */\n      dup2\n        /* \"#utility.yul\":645:678   */\n      tag_109\n      jump\t// in\n    tag_160:\n        /* \"#utility.yul\":545:684   */\n      swap3\n      swap2\n      pop\n      pop\n      jump\t// out\n        /* \"#utility.yul\":690:1164   */\n    tag_16:\n        /* \"#utility.yul\":758:764   */\n      0x00\n        /* \"#utility.yul\":766:772   */\n      0x00\n        /* \"#utility.yul\":815:817   */\n      0x40\n        /* \"#utility.yul\":803:812   */\n      dup4\n        /* \"#utility.yul\":794:801   */\n      dup6\n        /* \"#utility.yul\":790:813   */\n      sub\n        /* \"#utility.yul\":786:818   */\n      slt\n        /* \"#utility.yul\":783:902   */\n      iszero\n      tag_162\n      jumpi\n        /* \"#utility.yul\":821:900   */\n      tag_163\n      tag_106\n      jump\t// in\n    tag_163:\n        /* \"#utility.yul\":783:902   */\n    tag_162:\n        /* \"#utility.yul\":941:942   */\n      0x00\n        /* \"#utility.yul\":966:1019   */\n      tag_164\n        /* \"#utility.yul\":1011:1018   */\n      dup6\n        /* \"#utility.yul\":1002:1008   */\n      dup3\n        /* \"#utility.yul\":991:1000   */\n      dup7\n        /* \"#utility.yul\":987:1009   */\n      add\n        /* \"#utility.yul\":966:1019   */\n      tag_110\n      jump\t// in\n    tag_164:\n        /* \"#utility.yul\":956:1019   */\n      swap3\n      pop\n        /* \"#utility.yul\":912:1029   */\n      pop\n        /* \"#utility.yul\":1068:1070   */\n      0x20\n        /* \"#utility.yul\":1094:1147   */\n      tag_165\n        /* \"#utility.yul\":1139:1146   */\n      dup6\n        /* \"#utility.yul\":1130:1136   */\n      dup3\n        /* \"#utility.yul\":1119:1128   */\n      dup7\n        /* \"#utility.yul\":1115:1137   */\n      add\n        /* \"#utility.yul\":1094:1147   */\n      tag_110\n      jump\t// in\n    tag_165:\n        /* \"#utility.yul\":1084:1147   */\n      swap2\n      pop\n        /* \"#utility.yul\":1039:1157   */\n      pop\n        /* \"#utility.yul\":690:1164   */\n      swap3\n      pop\n      swap3\n      swap1\n      pop\n      jump\t// out\n        /* \"#utility.yul\":1170:1288   */\n    tag_111:\n        /* \"#utility.yul\":1257:1281   */\n      tag_167\n        /* \"#utility.yul\":1275:1280   */\n      dup2\n        /* \"#utility.yul\":1257:1281   */\n      tag_108\n      jump\t// in\n    tag_167:\n        /* \"#utility.yul\":1252:1255   */\n      dup3\n        /* \"#utility.yul\":1245:1282   */\n      mstore\n        /* \"#utility.yul\":1170:1288   */\n      pop\n      pop\n      jump\t// out\n        /* \"#utility.yul\":1294:1516   */\n    tag_19:\n        /* \"#utility.yul\":1387:1391   */\n      0x00\n        /* \"#utility.yul\":1425:1427   */\n      0x20\n        /* \"#utility.yul\":1414:1423   */\n      dup3\n        /* \"#utility.yul\":1410:1428   */\n      add\n        /* \"#utility.yul\":1402:1428   */\n      swap1\n      pop\n        /* \"#utility.yul\":1438:1509   */\n      tag_169\n        /* \"#utility.yul\":1506:1507   */\n      0x00\n        /* \"#utility.yul\":1495:1504   */\n      dup4\n        /* \"#utility.yul\":1491:1508   */\n      add\n        /* \"#utility.yul\":1482:1488   */\n      dup5\n        /* \"#utility.yul\":1438:1509   */\n      tag_111\n      jump\t// in\n    tag_169:\n        /* \"#utility.yul\":1294:1516   */\n      swap3\n      swap2\n      pop\n      pop\n      jump\t// out\n        /* \"#utility.yul\":1522:1648   */\n    tag_112:\n        /* \"#utility.yul\":1559:1566   */\n      0x00\n        /* \"#utility.yul\":1599:1641   */\n      0xffffffffffffffffffffffffffffffffffffffff\n        /* \"#utility.yul\":1592:1597   */\n      dup3\n        /* \"#utility.yul\":1588:1642   */\n      and\n        /* \"#utility.yul\":1577:1642   */\n      swap1\n      pop\n        /* \"#utility.yul\":1522:1648   */\n      swap2\n      swap1\n      pop\n      jump\t// out\n        /* \"#utility.yul\":1654:1750   */\n    tag_113:\n        /* \"#utility.yul\":1691:1698   */\n      0x00\n        /* \"#utility.yul\":1720:1744   */\n      tag_172\n        /* \"#utility.yul\":1738:1743   */\n      dup3\n        /* \"#utility.yul\":1720:1744   */\n      tag_112\n      jump\t// in\n    tag_172:\n        /* \"#utility.yul\":1709:1744   */\n      swap1\n      pop\n        /* \"#utility.yul\":1654:1750   */\n      swap2\n      swap1\n      pop\n      jump\t// out\n        /* \"#utility.yul\":1756:1878   */\n    tag_114:\n        /* \"#utility.yul\":1829:1853   */\n      tag_174\n        /* \"#utility.yul\":1847:1852   */\n      dup2\n        /* \"#utility.yul\":1829:1853   */\n      tag_113\n      jump\t// in\n    tag_174:\n        /* \"#utility.yul\":1822:1827   */\n      dup2\n        /* \"#utility.yul\":1819:1854   */\n      eq\n        /* \"#utility.yul\":1809:1872   */\n      tag_175\n      jumpi\n        /* \"#utility.yul\":1868:1869   */\n      0x00\n        /* \"#utility.yul\":1865:1866   */\n      0x00\n        /* \"#utility.yul\":1858:1870   */\n      revert\n        /* \"#utility.yul\":1809:1872   */\n    tag_175:\n        /* \"#utility.yul\":1756:1878   */\n      pop\n      jump\t// out\n        /* \"#utility.yul\":1884:2023   */\n    tag_115:\n        /* \"#utility.yul\":1930:1935   */\n      0x00\n        /* \"#utility.yul\":1968:1974   */\n      dup2\n        /* \"#utility.yul\":1955:1975   */\n      calldataload\n        /* \"#utility.yul\":1946:1975   */\n      swap1\n      pop\n        /* \"#utility.yul\":1984:2017   */\n      tag_177\n        /* \"#utility.yul\":2011:2016   */\n      dup2\n        /* \"#utility.yul\":1984:2017   */\n      tag_114\n      jump\t// in\n    tag_177:\n        /* \"#utility.yul\":1884:2023   */\n      swap3\n      swap2\n      pop\n      pop\n      jump\t// out\n        /* \"#utility.yul\":2029:2503   */\n    tag_22:\n        /* \"#utility.yul\":2097:2103   */\n      0x00\n        /* \"#utility.yul\":2105:2111   */\n      0x00\n        /* \"#utility.yul\":2154:2156   */\n      0x40\n        /* \"#utility.yul\":2142:2151   */\n      dup4\n        /* \"#utility.yul\":2133:2140   */\n      dup6\n        /* \"#utility.yul\":2129:2152   */\n      sub\n        /* \"#utility.yul\":2125:2157   */\n      slt\n        /* \"#utility.yul\":2122:2241   */\n      iszero\n      tag_179\n      jumpi\n        /* \"#utility.yul\":2160:2239   */\n      tag_180\n      tag_106\n      jump\t// in\n    tag_180:\n        /* \"#utility.yul\":2122:2241   */\n    tag_179:\n        /* \"#utility.yul\":2280:2281   */\n      0x00\n        /* \"#utility.yul\":2305:2358   */\n      tag_181\n        /* \"#utility.yul\":2350:2357   */\n      dup6\n        /* \"#utility.yul\":2341:2347   */\n      dup3\n        /* \"#utility.yul\":2330:2339   */\n      dup7\n        /* \"#utility.yul\":2326:2348   */\n      add\n        /* \"#utility.yul\":2305:2358   */\n      tag_115\n      jump\t// in\n    tag_181:\n        /* \"#utility.yul\":2295:2358   */\n      swap3\n      pop\n        /* \"#utility.yul\":2251:2368   */\n      pop\n        /* \"#utility.yul\":2407:2409   */\n      0x20\n        /* \"#utility.yul\":2433:2486   */\n      tag_182\n        /* \"#utility.yul\":2478:2485   */\n      dup6\n        /* \"#utility.yul\":2469:2475   */\n      dup3\n        /* \"#utility.yul\":2458:2467   */\n      dup7\n        /* \"#utility.yul\":2454:2476   */\n      add\n        /* \"#utility.yul\":2433:2486   */\n      tag_115\n      jump\t// in\n    tag_182:\n        /* \"#utility.yul\":2423:2486   */\n      swap2\n      pop\n        /* \"#utility.yul\":2378:2496   */\n      pop\n        /* \"#utility.yul\":2029:2503   */\n      swap3\n      pop\n      swap3\n      swap1\n      pop\n      jump\t// out\n        /* \"#utility.yul\":2509:2599   */\n    tag_116:\n        /* \"#utility.yul\":2543:2550   */\n      0x00\n        /* \"#utility.yul\":2586:2591   */\n      dup2\n        /* \"#utility.yul\":2579:2592   */\n      iszero\n        /* \"#utility.yul\":2572:2593   */\n      iszero\n        /* \"#utility.yul\":2561:2593   */\n      swap1\n      pop\n        /* \"#utility.yul\":2509:2599   */\n      swap2\n      swap1\n      pop\n      jump\t// out\n        /* \"#utility.yul\":2605:2714   */\n    tag_117:\n        /* \"#utility.yul\":2686:2707   */\n      tag_185\n        /* \"#utility.yul\":2701:2706   */\n      dup2\n        /* \"#utility.yul\":2686:2707   */\n      tag_116\n      jump\t// in\n    tag_185:\n        /* \"#utility.yul\":2681:2684   */\n      dup3\n        /* \"#utility.yul\":2674:2708   */\n      mstore\n        /* \"#utility.yul\":2605:2714   */\n      pop\n      pop\n      jump\t// out\n        /* \"#utility.yul\":2720:2930   */\n    tag_25:\n        /* \"#utility.yul\":2807:2811   */\n      0x00\n        /* \"#utility.yul\":2845:2847   */\n      0x20\n        /* \"#utility.yul\":2834:2843   */\n      dup3\n        /* \"#utility.yul\":2830:2848   */\n      add\n        /* \"#utility.yul\":2822:2848   */\n      swap1\n      pop\n        /* \"#utility.yul\":2858:2923   */\n      tag_187\n        /* \"#utility.yul\":2920:2921   */\n      0x00\n        /* \"#utility.yul\":2909:2918   */\n      dup4\n        /* \"#utility.yul\":2905:2922   */\n      add\n        /* \"#utility.yul\":2896:2902   */\n      dup5\n        /* \"#utility.yul\":2858:2923   */\n      tag_117\n      jump\t// in\n    tag_187:\n        /* \"#utility.yul\":2720:2930   */\n      swap3\n      swap2\n      pop\n      pop\n      jump\t// out\n        /* \"#utility.yul\":2936:3410   */\n    tag_28:\n        /* \"#utility.yul\":3004:3010   */\n      0x00\n        /* \"#utility.yul\":3012:3018   */\n      0x00\n        /* \"#utility.yul\":3061:3063   */\n      0x40\n        /* \"#utility.yul\":3049:3058   */\n      dup4\n        /* \"#utility.yul\":3040:3047   */\n      dup6\n        /* \"#utility.yul\":3036:3059   */\n      sub\n        /* \"#utility.yul\":3032:3064   */\n      slt\n        /* \"#utility.yul\":3029:3148   */\n      iszero\n      tag_189\n      jumpi\n        /* \"#utility.yul\":3067:3146   */\n      tag_190\n      tag_106\n      jump\t// in\n    tag_190:\n        /* \"#utility.yul\":3029:3148   */\n    tag_189:\n        /* \"#utility.yul\":3187:3188   */\n      0x00\n        /* \"#utility.yul\":3212:3265   */\n      tag_191\n        /* \"#utility.yul\":3257:3264   */\n      dup6\n        /* \"#utility.yul\":3248:3254   */\n      dup3\n        /* \"#utility.yul\":3237:3246   */\n      dup7\n        /* \"#utility.yul\":3233:3255   */\n      add\n        /* \"#utility.yul\":3212:3265   */\n      tag_115\n      jump\t// in\n    tag_191:\n        /* \"#utility.yul\":3202:3265   */\n      swap3\n      pop\n        /* \"#utility.yul\":3158:3275   */\n      pop\n        /* \"#utility.yul\":3314:3316   */\n      0x20\n        /* \"#utility.yul\":3340:3393   */\n      tag_192\n        /* \"#utility.yul\":3385:3392   */\n      dup6\n        /* \"#utility.yul\":3376:3382   */\n      dup3\n        /* \"#utility.yul\":3365:3374   */\n      dup7\n        /* \"#utility.yul\":3361:3383   */\n      add\n        /* \"#utility.yul\":3340:3393   */\n      tag_110\n      jump\t// in\n    tag_192:\n        /* \"#utility.yul\":3330:3393   */\n      swap2\n      pop\n        /* \"#utility.yul\":3285:3403   */\n      pop\n        /* \"#utility.yul\":2936:3410   */\n      swap3\n      pop\n      swap3\n      swap1\n      pop\n      jump\t// out\n        /* \"#utility.yul\":3416:3515   */\n    tag_118:\n        /* \"#utility.yul\":3468:3474   */\n      0x00\n        /* \"#utility.yul\":3502:3507   */\n      dup2\n        /* \"#utility.yul\":3496:3508   */\n      mload\n        /* \"#utility.yul\":3486:3508   */\n      swap1\n      pop\n        /* \"#utility.yul\":3416:3515   */\n      swap2\n      swap1\n      pop\n      jump\t// out\n        /* \"#utility.yul\":3521:3690   */\n    tag_119:\n        /* \"#utility.yul\":3605:3616   */\n      0x00\n        /* \"#utility.yul\":3639:3645   */\n      dup3\n        /* \"#utility.yul\":3634:3637   */\n      dup3\n        /* \"#utility.yul\":3627:3646   */\n      mstore\n        /* \"#utility.yul\":3679:3683   */\n      0x20\n        /* \"#utility.yul\":3674:3677   */\n      dup3\n        /* \"#utility.yul\":3670:3684   */\n      add\n        /* \"#utility.yul\":3655:3684   */\n      swap1\n      pop\n        /* \"#utility.yul\":3521:3690   */\n      swap3\n      swap2\n      pop\n      pop\n      jump\t// out\n        /* \"#utility.yul\":3696:3835   */\n    tag_120:\n        /* \"#utility.yul\":3785:3791   */\n      dup3\n        /* \"#utility.yul\":3780:3783   */\n      dup2\n        /* \"#utility.yul\":3775:3778   */\n      dup4\n        /* \"#utility.yul\":3769:3792   */\n      mcopy\n        /* \"#utility.yul\":3826:3827   */\n      0x00\n        /* \"#utility.yul\":3817:3823   */\n      dup4\n        /* \"#utility.yul\":3812:3815   */\n      dup4\n        /* \"#utility.yul\":3808:3824   */\n      add\n        /* \"#utility.yul\":3801:3828   */\n      mstore\n        /* \"#utility.yul\":3696:3835   */\n      pop\n      pop\n      pop\n      jump\t// out\n        /* \"#utility.yul\":3841:3943   */\n    tag_121:\n        /* \"#utility.yul\":3882:3888   */\n      0x00\n        /* \"#utility.yul\":3933:3935   */\n      0x1f\n        /* \"#utility.yul\":3929:3936   */\n      not\n        /* \"#utility.yul\":3924:3926   */\n      0x1f\n        /* \"#utility.yul\":3917:3922   */\n      dup4\n        /* \"#utility.yul\":3913:3927   */\n      add\n        /* \"#utility.yul\":3909:3937   */\n      and\n        /* \"#utility.yul\":3899:3937   */\n      swap1\n      pop\n        /* \"#utility.yul\":3841:3943   */\n      swap2\n      swap1\n      pop\n      jump\t// out\n        /* \"#utility.yul\":3949:4326   */\n    tag_122:\n        /* \"#utility.yul\":4037:4040   */\n      0x00\n        /* \"#utility.yul\":4065:4104   */\n      tag_198\n        /* \"#utility.yul\":4098:4103   */\n      dup3\n        /* \"#utility.yul\":4065:4104   */\n      tag_118\n      jump\t// in\n    tag_198:\n        /* \"#utility.yul\":4120:4191   */\n      tag_199\n        /* \"#utility.yul\":4184:4190   */\n      dup2\n        /* \"#utility.yul\":4179:4182   */\n      dup6\n        /* \"#utility.yul\":4120:4191   */\n      tag_119\n      jump\t// in\n    tag_199:\n        /* \"#utility.yul\":4113:4191   */\n      swap4\n      pop\n        /* \"#utility.yul\":4200:4265   */\n      tag_200\n        /* \"#utility.yul\":4258:4264   */\n      dup2\n        /* \"#utility.yul\":4253:4256   */\n      dup6\n        /* \"#utility.yul\":4246:4250   */\n      0x20\n        /* \"#utility.yul\":4239:4244   */\n      dup7\n        /* \"#utility.yul\":4235:4251   */\n      add\n        /* \"#utility.yul\":4200:4265   */\n      tag_120\n      jump\t// in\n    tag_200:\n        /* \"#utility.yul\":4290:4319   */\n      tag_201\n        /* \"#utility.yul\":4312:4318   */\n      dup2\n        /* \"#utility.yul\":4290:4319   */\n      tag_121\n      jump\t// in\n    tag_201:\n        /* \"#utility.yul\":4285:4288   */\n      dup5\n        /* \"#utility.yul\":4281:4320   */\n      add\n        /* \"#utility.yul\":4274:4320   */\n      swap2\n      pop\n        /* \"#utility.yul\":4041:4326   */\n      pop\n        /* \"#utility.yul\":3949:4326   */\n      swap3\n      swap2\n      pop\n      pop\n      jump\t// out\n        /* \"#utility.yul\":4332:4450   */\n    tag_123:\n        /* \"#utility.yul\":4419:4443   */\n      tag_203\n        /* \"#utility.yul\":4437:4442   */\n      dup2\n        /* \"#utility.yul\":4419:4443   */\n      tag_113\n      jump\t// in\n    tag_203:\n        /* \"#utility.yul\":4414:4417   */\n      dup3\n        /* \"#utility.yul\":4407:4444   */\n      mstore\n        /* \"#utility.yul\":4332:4450   */\n      pop\n      pop\n      jump\t// out\n        /* \"#utility.yul\":4456:5211   */\n    tag_31:\n        /* \"#utility.yul\":4681:4685   */\n      0x00\n        /* \"#utility.yul\":4719:4722   */\n      0xa0\n        /* \"#utility.yul\":4708:4717   */\n      dup3\n        /* \"#utility.yul\":4704:4723   */\n      add\n        /* \"#utility.yul\":4696:4723   */\n      swap1\n      pop\n        /* \"#utility.yul\":4733:4804   */\n      tag_205\n        /* \"#utility.yul\":4801:4802   */\n      0x00\n        /* \"#utility.yul\":4790:4799   */\n      dup4\n        /* \"#utility.yul\":4786:4803   */\n      add\n        /* \"#utility.yul\":4777:4783   */\n      dup9\n        /* \"#utility.yul\":4733:4804   */\n      tag_111\n      jump\t// in\n    tag_205:\n        /* \"#utility.yul\":4851:4860   */\n      dup2\n        /* \"#utility.yul\":4845:4849   */\n      dup2\n        /* \"#utility.yul\":4841:4861   */\n      sub\n        /* \"#utility.yul\":4836:4838   */\n      0x20\n        /* \"#utility.yul\":4825:4834   */\n      dup4\n        /* \"#utility.yul\":4821:4839   */\n      add\n        /* \"#utility.yul\":4814:4862   */\n      mstore\n        /* \"#utility.yul\":4879:4957   */\n      tag_206\n        /* \"#utility.yul\":4952:4956   */\n      dup2\n        /* \"#utility.yul\":4943:4949   */\n      dup8\n        /* \"#utility.yul\":4879:4957   */\n      tag_122\n      jump\t// in\n    tag_206:\n        /* \"#utility.yul\":4871:4957   */\n      swap1\n      pop\n        /* \"#utility.yul\":4967:5039   */\n      tag_207\n        /* \"#utility.yul\":5035:5037   */\n      0x40\n        /* \"#utility.yul\":5024:5033   */\n      dup4\n        /* \"#utility.yul\":5020:5038   */\n      add\n        /* \"#utility.yul\":5011:5017   */\n      dup7\n        /* \"#utility.yul\":4967:5039   */\n      tag_123\n      jump\t// in\n    tag_207:\n        /* \"#utility.yul\":5049:5121   */\n      tag_208\n        /* \"#utility.yul\":5117:5119   */\n      0x60\n        /* \"#utility.yul\":5106:5115   */\n      dup4\n        /* \"#utility.yul\":5102:5120   */\n      add\n        /* \"#utility.yul\":5093:5099   */\n      dup6\n        /* \"#utility.yul\":5049:5121   */\n      tag_123\n      jump\t// in\n    tag_208:\n        /* \"#utility.yul\":5131:5204   */\n      tag_209\n        /* \"#utility.yul\":5199:5202   */\n      0x80\n        /* \"#utility.yul\":5188:5197   */\n      dup4\n        /* \"#utility.yul\":5184:5203   */\n      add\n        /* \"#utility.yul\":5175:5181   */\n      dup5\n        /* \"#utility.yul\":5131:5204   */\n      tag_111\n      jump\t// in\n    tag_209:\n        /* \"#utility.yul\":4456:5211   */\n      swap7\n      swap6\n      pop\n      pop\n      pop\n      pop\n      pop\n      pop\n      jump\t// out\n        /* \"#utility.yul\":5217:5439   */\n    tag_35:\n        /* \"#utility.yul\":5310:5314   */\n      0x00\n        /* \"#utility.yul\":5348:5350   */\n      0x20\n        /* \"#utility.yul\":5337:5346   */\n      dup3\n        /* \"#utility.yul\":5333:5351   */\n      add\n        /* \"#utility.yul\":5325:5351   */\n      swap1\n      pop\n        /* \"#utility.yul\":5361:5432   */\n      tag_211\n        /* \"#utility.yul\":5429:5430   */\n      0x00\n        /* \"#utility.yul\":5418:5427   */\n      dup4\n        /* \"#utility.yul\":5414:5431   */\n      add\n        /* \"#utility.yul\":5405:5411   */\n      dup5\n        /* \"#utility.yul\":5361:5432   */\n      tag_123\n      jump\t// in\n    tag_211:\n        /* \"#utility.yul\":5217:5439   */\n      swap3\n      swap2\n      pop\n      pop\n      jump\t// out\n        /* \"#utility.yul\":5445:5774   */\n    tag_42:\n        /* \"#utility.yul\":5504:5510   */\n      0x00\n        /* \"#utility.yul\":5553:5555   */\n      0x20\n        /* \"#utility.yul\":5541:5550   */\n      dup3\n        /* \"#utility.yul\":5532:5539   */\n      dup5\n        /* \"#utility.yul\":5528:5551   */\n      sub\n        /* \"#utility.yul\":5524:5556   */\n      slt\n        /* \"#utility.yul\":5521:5640   */\n      iszero\n      tag_213\n      jumpi\n        /* \"#utility.yul\":5559:5638   */\n      tag_214\n      tag_106\n      jump\t// in\n    tag_214:\n        /* \"#utility.yul\":5521:5640   */\n    tag_213:\n        /* \"#utility.yul\":5679:5680   */\n      0x00\n        /* \"#utility.yul\":5704:5757   */\n      tag_215\n        /* \"#utility.yul\":5749:5756   */\n      dup5\n        /* \"#utility.yul\":5740:5746   */\n      dup3\n        /* \"#utility.yul\":5729:5738   */\n      dup6\n        /* \"#utility.yul\":5725:5747   */\n      add\n        /* \"#utility.yul\":5704:5757   */\n      tag_110\n      jump\t// in\n    tag_215:\n        /* \"#utility.yul\":5694:5757   */\n      swap2\n      pop\n        /* \"#utility.yul\":5650:5767   */\n      pop\n        /* \"#utility.yul\":5445:5774   */\n      swap3\n      swap2\n      pop\n      pop\n      jump\t// out\n        /* \"#utility.yul\":5780:5897   */\n    tag_124:\n        /* \"#utility.yul\":5889:5890   */\n      0x00\n        /* \"#utility.yul\":5886:5887   */\n      0x00\n        /* \"#utility.yul\":5879:5891   */\n      revert\n        /* \"#utility.yul\":5903:6020   */\n    tag_125:\n        /* \"#utility.yul\":6012:6013   */\n      0x00\n        /* \"#utility.yul\":6009:6010   */\n      0x00\n        /* \"#utility.yul\":6002:6014   */\n      revert\n        /* \"#utility.yul\":6026:6206   */\n    tag_126:\n        /* \"#utility.yul\":6074:6151   */\n      0x4e487b7100000000000000000000000000000000000000000000000000000000\n        /* \"#utility.yul\":6071:6072   */\n      0x00\n        /* \"#utility.yul\":6064:6152   */\n      mstore\n        /* \"#utility.yul\":6171:6175   */\n      0x41\n        /* \"#utility.yul\":6168:6169   */\n      0x04\n        /* \"#utility.yul\":6161:6176   */\n      mstore\n        /* \"#utility.yul\":6195:6199   */\n      0x24\n        /* \"#utility.yul\":6192:6193   */\n      0x00\n        /* \"#utility.yul\":6185:6200   */\n      revert\n        /* \"#utility.yul\":6212:6493   */\n    tag_127:\n        /* \"#utility.yul\":6295:6322   */\n      tag_220\n        /* \"#utility.yul\":6317:6321   */\n      dup3\n        /* \"#utility.yul\":6295:6322   */\n      tag_121\n      jump\t// in\n    tag_220:\n        /* \"#utility.yul\":6287:6293   */\n      dup2\n        /* \"#utility.yul\":6283:6323   */\n      add\n        /* \"#utility.yul\":6425:6431   */\n      dup2\n        /* \"#utility.yul\":6413:6423   */\n      dup2\n        /* \"#utility.yul\":6410:6432   */\n      lt\n        /* \"#utility.yul\":6389:6407   */\n      0xffffffffffffffff\n        /* \"#utility.yul\":6377:6387   */\n      dup3\n        /* \"#utility.yul\":6374:6408   */\n      gt\n        /* \"#utility.yul\":6371:6433   */\n      or\n        /* \"#utility.yul\":6368:6456   */\n      iszero\n      tag_221\n      jumpi\n        /* \"#utility.yul\":6436:6454   */\n      tag_222\n      tag_126\n      jump\t// in\n    tag_222:\n        /* \"#utility.yul\":6368:6456   */\n    tag_221:\n        /* \"#utility.yul\":6476:6486   */\n      dup1\n        /* \"#utility.yul\":6472:6474   */\n      0x40\n        /* \"#utility.yul\":6465:6487   */\n      mstore\n        /* \"#utility.yul\":6255:6493   */\n      pop\n        /* \"#utility.yul\":6212:6493   */\n      pop\n      pop\n      jump\t// out\n        /* \"#utility.yul\":6499:6628   */\n    tag_128:\n        /* \"#utility.yul\":6533:6539   */\n      0x00\n        /* \"#utility.yul\":6560:6580   */\n      tag_224\n      tag_105\n      jump\t// in\n    tag_224:\n        /* \"#utility.yul\":6550:6580   */\n      swap1\n      pop\n        /* \"#utility.yul\":6589:6622   */\n      tag_225\n        /* \"#utility.yul\":6617:6621   */\n      dup3\n        /* \"#utility.yul\":6609:6615   */\n      dup3\n        /* \"#utility.yul\":6589:6622   */\n      tag_127\n      jump\t// in\n    tag_225:\n        /* \"#utility.yul\":6499:6628   */\n      swap2\n      swap1\n      pop\n      jump\t// out\n        /* \"#utility.yul\":6634:6942   */\n    tag_129:\n        /* \"#utility.yul\":6696:6700   */\n      0x00\n        /* \"#utility.yul\":6786:6804   */\n      0xffffffffffffffff\n        /* \"#utility.yul\":6778:6784   */\n      dup3\n        /* \"#utility.yul\":6775:6805   */\n      gt\n        /* \"#utility.yul\":6772:6828   */\n      iszero\n      tag_227\n      jumpi\n        /* \"#utility.yul\":6808:6826   */\n      tag_228\n      tag_126\n      jump\t// in\n    tag_228:\n        /* \"#utility.yul\":6772:6828   */\n    tag_227:\n        /* \"#utility.yul\":6846:6875   */\n      tag_229\n        /* \"#utility.yul\":6868:6874   */\n      dup3\n        /* \"#utility.yul\":6846:6875   */\n      tag_121\n      jump\t// in\n    tag_229:\n        /* \"#utility.yul\":6838:6875   */\n      swap1\n      pop\n        /* \"#utility.yul\":6930:6934   */\n      0x20\n        /* \"#utility.yul\":6924:6928   */\n      dup2\n        /* \"#utility.yul\":6920:6935   */\n      add\n        /* \"#utility.yul\":6912:6935   */\n      swap1\n      pop\n        /* \"#utility.yul\":6634:6942   */\n      swap2\n      swap1\n      pop\n      jump\t// out\n        /* \"#utility.yul\":6948:7096   */\n    tag_130:\n        /* \"#utility.yul\":7046:7052   */\n      dup3\n        /* \"#utility.yul\":7041:7044   */\n      dup2\n        /* \"#utility.yul\":7036:7039   */\n      dup4\n        /* \"#utility.yul\":7023:7053   */\n      calldatacopy\n        /* \"#utility.yul\":7087:7088   */\n      0x00\n        /* \"#utility.yul\":7078:7084   */\n      dup4\n        /* \"#utility.yul\":7073:7076   */\n      dup4\n        /* \"#utility.yul\":7069:7085   */\n      add\n        /* \"#utility.yul\":7062:7089   */\n      mstore\n        /* \"#utility.yul\":6948:7096   */\n      pop\n      pop\n      pop\n      jump\t// out\n        /* \"#utility.yul\":7102:7527   */\n    tag_131:\n        /* \"#utility.yul\":7180:7185   */\n      0x00\n        /* \"#utility.yul\":7205:7271   */\n      tag_232\n        /* \"#utility.yul\":7221:7270   */\n      tag_233\n        /* \"#utility.yul\":7263:7269   */\n      dup5\n        /* \"#utility.yul\":7221:7270   */\n      tag_129\n      jump\t// in\n    tag_233:\n        /* \"#utility.yul\":7205:7271   */\n      tag_128\n      jump\t// in\n    tag_232:\n        /* \"#utility.yul\":7196:7271   */\n      swap1\n      pop\n        /* \"#utility.yul\":7294:7300   */\n      dup3\n        /* \"#utility.yul\":7287:7292   */\n      dup2\n        /* \"#utility.yul\":7280:7301   */\n      mstore\n        /* \"#utility.yul\":7332:7336   */\n      0x20\n        /* \"#utility.yul\":7325:7330   */\n      dup2\n        /* \"#utility.yul\":7321:7337   */\n      add\n        /* \"#utility.yul\":7370:7373   */\n      dup5\n        /* \"#utility.yul\":7361:7367   */\n      dup5\n        /* \"#utility.yul\":7356:7359   */\n      dup5\n        /* \"#utility.yul\":7352:7368   */\n      add\n        /* \"#utility.yul\":7349:7374   */\n      gt\n        /* \"#utility.yul\":7346:7458   */\n      iszero\n      tag_234\n      jumpi\n        /* \"#utility.yul\":7377:7456   */\n      tag_235\n      tag_125\n      jump\t// in\n    tag_235:\n        /* \"#utility.yul\":7346:7458   */\n    tag_234:\n        /* \"#utility.yul\":7467:7521   */\n      tag_236\n        /* \"#utility.yul\":7514:7520   */\n      dup5\n        /* \"#utility.yul\":7509:7512   */\n      dup3\n        /* \"#utility.yul\":7504:7507   */\n      dup6\n        /* \"#utility.yul\":7467:7521   */\n      tag_130\n      jump\t// in\n    tag_236:\n        /* \"#utility.yul\":7186:7527   */\n      pop\n        /* \"#utility.yul\":7102:7527   */\n      swap4\n      swap3\n      pop\n      pop\n      pop\n      jump\t// out\n        /* \"#utility.yul\":7547:7887   */\n    tag_132:\n        /* \"#utility.yul\":7603:7608   */\n      0x00\n        /* \"#utility.yul\":7652:7655   */\n      dup3\n        /* \"#utility.yul\":7645:7649   */\n      0x1f\n        /* \"#utility.yul\":7637:7643   */\n      dup4\n        /* \"#utility.yul\":7633:7650   */\n      add\n        /* \"#utility.yul\":7629:7656   */\n      slt\n        /* \"#utility.yul\":7619:7741   */\n      tag_238\n      jumpi\n        /* \"#utility.yul\":7660:7739   */\n      tag_239\n      tag_124\n      jump\t// in\n    tag_239:\n        /* \"#utility.yul\":7619:7741   */\n    tag_238:\n        /* \"#utility.yul\":7777:7783   */\n      dup2\n        /* \"#utility.yul\":7764:7784   */\n      calldataload\n        /* \"#utility.yul\":7802:7881   */\n      tag_240\n        /* \"#utility.yul\":7877:7880   */\n      dup5\n        /* \"#utility.yul\":7869:7875   */\n      dup3\n        /* \"#utility.yul\":7862:7866   */\n      0x20\n        /* \"#utility.yul\":7854:7860   */\n      dup7\n        /* \"#utility.yul\":7850:7867   */\n      add\n        /* \"#utility.yul\":7802:7881   */\n      tag_131\n      jump\t// in\n    tag_240:\n        /* \"#utility.yul\":7793:7881   */\n      swap2\n      pop\n        /* \"#utility.yul\":7609:7887   */\n      pop\n        /* \"#utility.yul\":7547:7887   */\n      swap3\n      swap2\n      pop\n      pop\n      jump\t// out\n        /* \"#utility.yul\":7893:8547   */\n    tag_47:\n        /* \"#utility.yul\":7971:7977   */\n      0x00\n        /* \"#utility.yul\":7979:7985   */\n      0x00\n        /* \"#utility.yul\":8028:8030   */\n      0x40\n        /* \"#utility.yul\":8016:8025   */\n      dup4\n        /* \"#utility.yul\":8007:8014   */\n      dup6\n        /* \"#utility.yul\":8003:8026   */\n      sub\n        /* \"#utility.yul\":7999:8031   */\n      slt\n        /* \"#utility.yul\":7996:8115   */\n      iszero\n      tag_242\n      jumpi\n        /* \"#utility.yul\":8034:8113   */\n      tag_243\n      tag_106\n      jump\t// in\n    tag_243:\n        /* \"#utility.yul\":7996:8115   */\n    tag_242:\n        /* \"#utility.yul\":8154:8155   */\n      0x00\n        /* \"#utility.yul\":8179:8232   */\n      tag_244\n        /* \"#utility.yul\":8224:8231   */\n      dup6\n        /* \"#utility.yul\":8215:8221   */\n      dup3\n        /* \"#utility.yul\":8204:8213   */\n      dup7\n        /* \"#utility.yul\":8200:8222   */\n      add\n        /* \"#utility.yul\":8179:8232   */\n      tag_115\n      jump\t// in\n    tag_244:\n        /* \"#utility.yul\":8169:8232   */\n      swap3\n      pop\n        /* \"#utility.yul\":8125:8242   */\n      pop\n        /* \"#utility.yul\":8309:8311   */\n      0x20\n        /* \"#utility.yul\":8298:8307   */\n      dup4\n        /* \"#utility.yul\":8294:8312   */\n      add\n        /* \"#utility.yul\":8281:8313   */\n      calldataload\n        /* \"#utility.yul\":8340:8358   */\n      0xffffffffffffffff\n        /* \"#utility.yul\":8332:8338   */\n      dup2\n        /* \"#utility.yul\":8329:8359   */\n      gt\n        /* \"#utility.yul\":8326:8443   */\n      iszero\n      tag_245\n      jumpi\n        /* \"#utility.yul\":8362:8441   */\n      tag_246\n      tag_107\n      jump\t// in\n    tag_246:\n        /* \"#utility.yul\":8326:8443   */\n    tag_245:\n        /* \"#utility.yul\":8467:8530   */\n      tag_247\n        /* \"#utility.yul\":8522:8529   */\n      dup6\n        /* \"#utility.yul\":8513:8519   */\n      dup3\n        /* \"#utility.yul\":8502:8511   */\n      dup7\n        /* \"#utility.yul\":8498:8520   */\n      add\n        /* \"#utility.yul\":8467:8530   */\n      tag_132\n      jump\t// in\n    tag_247:\n        /* \"#utility.yul\":8457:8530   */\n      swap2\n      pop\n        /* \"#utility.yul\":8252:8540   */\n      pop\n        /* \"#utility.yul\":7893:8547   */\n      swap3\n      pop\n      swap3\n      swap1\n      pop\n      jump\t// out\n        /* \"#utility.yul\":8553:9197   */\n    tag_53:\n        /* \"#utility.yul\":8750:8754   */\n      0x00\n        /* \"#utility.yul\":8788:8791   */\n      0x80\n        /* \"#utility.yul\":8777:8786   */\n      dup3\n        /* \"#utility.yul\":8773:8792   */\n      add\n        /* \"#utility.yul\":8765:8792   */\n      swap1\n      pop\n        /* \"#utility.yul\":8802:8873   */\n      tag_249\n        /* \"#utility.yul\":8870:8871   */\n      0x00\n        /* \"#utility.yul\":8859:8868   */\n      dup4\n        /* \"#utility.yul\":8855:8872   */\n      add\n        /* \"#utility.yul\":8846:8852   */\n      dup8\n        /* \"#utility.yul\":8802:8873   */\n      tag_111\n      jump\t// in\n    tag_249:\n        /* \"#utility.yul\":8883:8955   */\n      tag_250\n        /* \"#utility.yul\":8951:8953   */\n      0x20\n        /* \"#utility.yul\":8940:8949   */\n      dup4\n        /* \"#utility.yul\":8936:8954   */\n      add\n        /* \"#utility.yul\":8927:8933   */\n      dup7\n        /* \"#utility.yul\":8883:8955   */\n      tag_123\n      jump\t// in\n    tag_250:\n        /* \"#utility.yul\":9002:9011   */\n      dup2\n        /* \"#utility.yul\":8996:9000   */\n      dup2\n        /* \"#utility.yul\":8992:9012   */\n      sub\n        /* \"#utility.yul\":8987:8989   */\n      0x40\n        /* \"#utility.yul\":8976:8985   */\n      dup4\n        /* \"#utility.yul\":8972:8990   */\n      add\n        /* \"#utility.yul\":8965:9013   */\n      mstore\n        /* \"#utility.yul\":9030:9108   */\n      tag_251\n        /* \"#utility.yul\":9103:9107   */\n      dup2\n        /* \"#utility.yul\":9094:9100   */\n      dup6\n        /* \"#utility.yul\":9030:9108   */\n      tag_122\n      jump\t// in\n    tag_251:\n        /* \"#utility.yul\":9022:9108   */\n      swap1\n      pop\n        /* \"#utility.yul\":9118:9190   */\n      tag_252\n        /* \"#utility.yul\":9186:9188   */\n      0x60\n        /* \"#utility.yul\":9175:9184   */\n      dup4\n        /* \"#utility.yul\":9171:9189   */\n      add\n        /* \"#utility.yul\":9162:9168   */\n      dup5\n        /* \"#utility.yul\":9118:9190   */\n      tag_111\n      jump\t// in\n    tag_252:\n        /* \"#utility.yul\":8553:9197   */\n      swap6\n      swap5\n      pop\n      pop\n      pop\n      pop\n      pop\n      jump\t// out\n        /* \"#utility.yul\":9203:9712   */\n    tag_60:\n        /* \"#utility.yul\":9272:9278   */\n      0x00\n        /* \"#utility.yul\":9321:9323   */\n      0x20\n        /* \"#utility.yul\":9309:9318   */\n      dup3\n        /* \"#utility.yul\":9300:9307   */\n      dup5\n        /* \"#utility.yul\":9296:9319   */\n      sub\n        /* \"#utility.yul\":9292:9324   */\n      slt\n        /* \"#utility.yul\":9289:9408   */\n      iszero\n      tag_254\n      jumpi\n        /* \"#utility.yul\":9327:9406   */\n      tag_255\n      tag_106\n      jump\t// in\n    tag_255:\n        /* \"#utility.yul\":9289:9408   */\n    tag_254:\n        /* \"#utility.yul\":9475:9476   */\n      0x00\n        /* \"#utility.yul\":9464:9473   */\n      dup3\n        /* \"#utility.yul\":9460:9477   */\n      add\n        /* \"#utility.yul\":9447:9478   */\n      calldataload\n        /* \"#utility.yul\":9505:9523   */\n      0xffffffffffffffff\n        /* \"#utility.yul\":9497:9503   */\n      dup2\n        /* \"#utility.yul\":9494:9524   */\n      gt\n        /* \"#utility.yul\":9491:9608   */\n      iszero\n      tag_256\n      jumpi\n        /* \"#utility.yul\":9527:9606   */\n      tag_257\n      tag_107\n      jump\t// in\n    tag_257:\n        /* \"#utility.yul\":9491:9608   */\n    tag_256:\n        /* \"#utility.yul\":9632:9695   */\n      tag_258\n        /* \"#utility.yul\":9687:9694   */\n      dup5\n        /* \"#utility.yul\":9678:9684   */\n      dup3\n        /* \"#utility.yul\":9667:9676   */\n      dup6\n        /* \"#utility.yul\":9663:9685   */\n      add\n        /* \"#utility.yul\":9632:9695   */\n      tag_132\n      jump\t// in\n    tag_258:\n        /* \"#utility.yul\":9622:9695   */\n      swap2\n      pop\n        /* \"#utility.yul\":9418:9705   */\n      pop\n        /* \"#utility.yul\":9203:9712   */\n      swap3\n      swap2\n      pop\n      pop\n      jump\t// out\n        /* \"#utility.yul\":9718:9898   */\n    tag_133:\n        /* \"#utility.yul\":9766:9843   */\n      0x4e487b7100000000000000000000000000000000000000000000000000000000\n        /* \"#utility.yul\":9763:9764   */\n      0x00\n        /* \"#utility.yul\":9756:9844   */\n      mstore\n        /* \"#utility.yul\":9863:9867   */\n      0x22\n        /* \"#utility.yul\":9860:9861   */\n      0x04\n        /* \"#utility.yul\":9853:9868   */\n      mstore\n        /* \"#utility.yul\":9887:9891   */\n      0x24\n        /* \"#utility.yul\":9884:9885   */\n      0x00\n        /* \"#utility.yul\":9877:9892   */\n      revert\n        /* \"#utility.yul\":9904:10224   */\n    tag_67:\n        /* \"#utility.yul\":9948:9954   */\n      0x00\n        /* \"#utility.yul\":9985:9986   */\n      0x02\n        /* \"#utility.yul\":9979:9983   */\n      dup3\n        /* \"#utility.yul\":9975:9987   */\n      div\n        /* \"#utility.yul\":9965:9987   */\n      swap1\n      pop\n        /* \"#utility.yul\":10032:10033   */\n      0x01\n        /* \"#utility.yul\":10026:10030   */\n      dup3\n        /* \"#utility.yul\":10022:10034   */\n      and\n        /* \"#utility.yul\":10053:10071   */\n      dup1\n        /* \"#utility.yul\":10043:10124   */\n      tag_261\n      jumpi\n        /* \"#utility.yul\":10109:10113   */\n      0x7f\n        /* \"#utility.yul\":10101:10107   */\n      dup3\n        /* \"#utility.yul\":10097:10114   */\n      and\n        /* \"#utility.yul\":10087:10114   */\n      swap2\n      pop\n        /* \"#utility.yul\":10043:10124   */\n    tag_261:\n        /* \"#utility.yul\":10171:10173   */\n      0x20\n        /* \"#utility.yul\":10163:10169   */\n      dup3\n        /* \"#utility.yul\":10160:10174   */\n      lt\n        /* \"#utility.yul\":10140:10158   */\n      dup2\n        /* \"#utility.yul\":10137:10175   */\n      sub\n        /* \"#utility.yul\":10134:10218   */\n      tag_262\n      jumpi\n        /* \"#utility.yul\":10190:10208   */\n      tag_263\n      tag_133\n      jump\t// in\n    tag_263:\n        /* \"#utility.yul\":10134:10218   */\n    tag_262:\n        /* \"#utility.yul\":9955:10224   */\n      pop\n        /* \"#utility.yul\":9904:10224   */\n      swap2\n      swap1\n      pop\n      jump\t// out\n        /* \"#utility.yul\":10230:10371   */\n    tag_134:\n        /* \"#utility.yul\":10279:10283   */\n      0x00\n        /* \"#utility.yul\":10302:10305   */\n      dup2\n        /* \"#utility.yul\":10294:10305   */\n      swap1\n      pop\n        /* \"#utility.yul\":10325:10328   */\n      dup2\n        /* \"#utility.yul\":10322:10323   */\n      0x00\n        /* \"#utility.yul\":10315:10329   */\n      mstore\n        /* \"#utility.yul\":10359:10363   */\n      0x20\n        /* \"#utility.yul\":10356:10357   */\n      0x00\n        /* \"#utility.yul\":10346:10364   */\n      keccak256\n        /* \"#utility.yul\":10338:10364   */\n      swap1\n      pop\n        /* \"#utility.yul\":10230:10371   */\n      swap2\n      swap1\n      pop\n      jump\t// out\n        /* \"#utility.yul\":10377:10470   */\n    tag_135:\n        /* \"#utility.yul\":10414:10420   */\n      0x00\n        /* \"#utility.yul\":10461:10463   */\n      0x20\n        /* \"#utility.yul\":10456:10458   */\n      0x1f\n        /* \"#utility.yul\":10449:10454   */\n      dup4\n        /* \"#utility.yul\":10445:10459   */\n      add\n        /* \"#utility.yul\":10441:10464   */\n      div\n        /* \"#utility.yul\":10431:10464   */\n      swap1\n      pop\n        /* \"#utility.yul\":10377:10470   */\n      swap2\n      swap1\n      pop\n      jump\t// out\n        /* \"#utility.yul\":10476:10583   */\n    tag_136:\n        /* \"#utility.yul\":10520:10528   */\n      0x00\n        /* \"#utility.yul\":10570:10575   */\n      dup3\n        /* \"#utility.yul\":10564:10568   */\n      dup3\n        /* \"#utility.yul\":10560:10576   */\n      shl\n        /* \"#utility.yul\":10539:10576   */\n      swap1\n      pop\n        /* \"#utility.yul\":10476:10583   */\n      swap3\n      swap2\n      pop\n      pop\n      jump\t// out\n        /* \"#utility.yul\":10589:10982   */\n    tag_137:\n        /* \"#utility.yul\":10658:10664   */\n      0x00\n        /* \"#utility.yul\":10708:10709   */\n      0x08\n        /* \"#utility.yul\":10696:10706   */\n      dup4\n        /* \"#utility.yul\":10692:10710   */\n      mul\n        /* \"#utility.yul\":10731:10828   */\n      tag_268\n        /* \"#utility.yul\":10761:10827   */\n      0xffffffffffffffffffffffffffffffffffffffffffffffffffffffffffffffff\n        /* \"#utility.yul\":10750:10759   */\n      dup3\n        /* \"#utility.yul\":10731:10828   */\n      tag_136\n      jump\t// in\n    tag_268:\n        /* \"#utility.yul\":10849:10888   */\n      tag_269\n        /* \"#utility.yul\":10879:10887   */\n      dup7\n        /* \"#utility.yul\":10868:10877   */\n      dup4\n        /* \"#utility.yul\":10849:10888   */\n      tag_136\n      jump\t// in\n    tag_269:\n        /* \"#utility.yul\":10837:10888   */\n      swap6\n      pop\n        /* \"#utility.yul\":10921:10925   */\n      dup1\n        /* \"#utility.yul\":10917:10926   */\n      not\n        /* \"#utility.yul\":10910:10915   */\n      dup5\n        /* \"#utility.yul\":10906:10927   */\n      and\n        /* \"#utility.yul\":10897:10927   */\n      swap4\n      pop\n        /* \"#utility.yul\":10970:10974   */\n      dup1\n        /* \"#utility.yul\":10960:10968   */\n      dup7\n        /* \"#utility.yul\":10956:10975   */\n      and\n        /* \"#utility.yul\":10949:10954   */\n      dup5\n        /* \"#utility.yul\":10946:10976   */\n      or\n        /* \"#utility.yul\":10936:10976   */\n      swap3\n      pop\n        /* \"#utility.yul\":10665:10982   */\n      pop\n      pop\n        /* \"#utility.yul\":10589:10982   */\n      swap4\n      swap3\n      pop\n      pop\n      pop\n      jump\t// out\n        /* \"#utility.yul\":10988:11048   */\n    tag_138:\n        /* \"#utility.yul\":11016:11019   */\n      0x00\n        /* \"#utility.yul\":11037:11042   */\n      dup2\n        /* \"#utility.yul\":11030:11042   */\n      swap1\n      pop\n        /* \"#utility.yul\":10988:11048   */\n      swap2\n      swap1\n      pop\n      jump\t// out\n        /* \"#utility.yul\":11054:11196   */\n    tag_139:\n        /* \"#utility.yul\":11104:11113   */\n      0x00\n        /* \"#utility.yul\":11137:11190   */\n      tag_272\n        /* \"#utility.yul\":11155:11189   */\n      tag_273\n        /* \"#utility.yul\":11164:11188   */\n      tag_274\n        /* \"#utility.yul\":11182:11187   */\n      dup5\n        /* \"#utility.yul\":11164:11188   */\n      tag_108\n      jump\t// in\n    tag_274:\n        /* \"#utility.yul\":11155:11189   */\n      tag_138\n      jump\t// in\n    tag_273:\n        /* \"#utility.yul\":11137:11190   */\n      tag_108\n      jump\t// in\n    tag_272:\n        /* \"#utility.yul\":11124:11190   */\n      swap1\n      pop\n        /* \"#utility.yul\":11054:11196   */\n      swap2\n      swap1\n      pop\n      jump\t// out\n        /* \"#utility.yul\":11202:11277   */\n    tag_140:\n        /* \"#utility.yul\":11245:11248   */\n      0x00\n        /* \"#utility.yul\":11266:11271   */\n      dup2\n        /* \"#utility.yul\":11259:11271   */\n      swap1\n      pop\n        /* \"#utility.yul\":11202:11277   */\n      swap2\n      swap1\n      pop\n      jump\t// out\n        /* \"#utility.yul\":11283:11552   */\n    tag_141:\n        /* \"#utility.yul\":11393:11432   */\n      tag_277\n        /* \"#utility.yul\":11424:11431   */\n      dup4\n        /* \"#utility.yul\":11393:11432   */\n      tag_139\n      jump\t// in\n    tag_277:\n        /* \"#utility.yul\":11454:11545   */\n      tag_278\n        /* \"#utility.yul\":11503:11544   */\n      tag_279\n        /* \"#utility.yul\":11527:11543   */\n      dup3\n        /* \"#utility.yul\":11503:11544   */\n      tag_140\n      jump\t// in\n    tag_279:\n        /* \"#utility.yul\":11495:11501   */\n      dup5\n        /* \"#utility.yul\":11488:11492   */\n      dup5\n        /* \"#utility.yul\":11482:11493   */\n      sload\n        /* \"#utility.yul\":11454:11545   */\n      tag_137\n      jump\t// in\n    tag_278:\n        /* \"#utility.yul\":11448:11452   */\n      dup3\n        /* \"#utility.yul\":11441:11546   */\n      sstore\n        /* \"#utility.yul\":11359:11552   */\n      pop\n        /* \"#utility.yul\":11283:11552   */\n      pop\n      pop\n      pop\n      jump\t// out\n        /* \"#utility.yul\":11558:11631   */\n    tag_142:\n        /* \"#utility.yul\":11603:11606   */\n      0x00\n        /* \"#utility.yul\":11624:11625   */\n      0x00\n        /* \"#utility.yul\":11617:11625   */\n      swap1\n      pop\n        /* \"#utility.yul\":11558:11631   */\n      swap1\n      jump\t// out\n        /* \"#utility.yul\":11637:11826   */\n    tag_143:\n        /* \"#utility.yul\":11714:11746   */\n      tag_282\n      tag_142\n      jump\t// in\n    tag_282:\n        /* \"#utility.yul\":11755:11820   */\n      tag_283\n        /* \"#utility.yul\":11813:11819   */\n      dup2\n        /* \"#utility.yul\":11805:11811   */\n      dup5\n        /* \"#utility.yul\":11799:11803   */\n      dup5\n        /* \"#utility.yul\":11755:11820   */\n      tag_141\n      jump\t// in\n    tag_283:\n        /* \"#utility.yul\":11690:11826   */\n      pop\n        /* \"#utility.yul\":11637:11826   */\n      pop\n      pop\n      jump\t// out\n        /* \"#utility.yul\":11832:12018   */\n    tag_144:\n        /* \"#utility.yul\":11892:12012   */\n    tag_285:\n        /* \"#utility.yul\":11909:11912   */\n      dup2\n        /* \"#utility.yul\":11902:11907   */\n      dup2\n        /* \"#utility.yul\":11899:11913   */\n      lt\n        /* \"#utility.yul\":11892:12012   */\n      iszero\n      tag_287\n      jumpi\n        /* \"#utility.yul\":11963:12002   */\n      tag_288\n        /* \"#utility.yul\":12000:12001   */\n      0x00\n        /* \"#utility.yul\":11993:11998   */\n      dup3\n        /* \"#utility.yul\":11963:12002   */\n      tag_143\n      jump\t// in\n    tag_288:\n        /* \"#utility.yul\":11936:11937   */\n      0x01\n        /* \"#utility.yul\":11929:11934   */\n      dup2\n        /* \"#utility.yul\":11925:11938   */\n      add\n        /* \"#utility.yul\":11916:11938   */\n      swap1\n      pop\n        /* \"#utility.yul\":11892:12012   */\n      jump(tag_285)\n    tag_287:\n        /* \"#utility.yul\":11832:12018   */\n      pop\n      pop\n      jump\t// out\n        /* \"#utility.yul\":12024:12567   */\n    tag_145:\n        /* \"#utility.yul\":12125:12127   */\n      0x1f\n        /* \"#utility.yul\":12120:12123   */\n      dup3\n        /* \"#utility.yul\":12117:12128   */\n      gt\n        /* \"#utility.yul\":12114:12560   */\n      iszero\n      tag_290\n      jumpi\n        /* \"#utility.yul\":12159:12197   */\n      tag_291\n        /* \"#utility.yul\":12191:12196   */\n      dup2\n        /* \"#utility.yul\":12159:12197   */\n      tag_134\n      jump\t// in\n    tag_291:\n        /* \"#utility.yul\":12243:12272   */\n      tag_292\n        /* \"#utility.yul\":12261:12271   */\n      dup5\n        /* \"#utility.yul\":12243:12272   */\n      tag_135\n      jump\t// in\n    tag_292:\n        /* \"#utility.yul\":12233:12241   */\n      dup2\n        /* \"#utility.yul\":12229:12273   */\n      add\n        /* \"#utility.yul\":12426:12428   */\n      0x20\n        /* \"#utility.yul\":12414:12424   */\n      dup6\n        /* \"#utility.yul\":12411:12429   */\n      lt\n        /* \"#utility.yul\":12408:12457   */\n      iszero\n      tag_293\n      jumpi\n        /* \"#utility.yul\":12447:12455   */\n      dup2\n        /* \"#utility.yul\":12432:12455   */\n      swap1\n      pop\n        /* \"#utility.yul\":12408:12457   */\n    tag_293:\n        /* \"#utility.yul\":12470:12550   */\n      tag_294\n        /* \"#utility.yul\":12526:12548   */\n      tag_295\n        /* \"#utility.yul\":12544:12547   */\n      dup6\n        /* \"#utility.yul\":12526:12548   */\n      tag_135\n      jump\t// in\n    tag_295:\n        /* \"#utility.yul\":12516:12524   */\n      dup4\n        /* \"#utility.yul\":12512:12549   */\n      add\n        /* \"#utility.yul\":12499:12510   */\n      dup3\n        /* \"#utility.yul\":12470:12550   */\n      tag_144\n      jump\t// in\n    tag_294:\n        /* \"#utility.yul\":12129:12560   */\n      pop\n      pop\n        /* \"#utility.yul\":12114:12560   */\n    tag_290:\n        /* \"#utility.yul\":12024:12567   */\n      pop\n      pop\n      pop\n      jump\t// out\n        /* \"#utility.yul\":12573:12690   */\n    tag_146:\n        /* \"#utility.yul\":12627:12635   */\n      0x00\n        /* \"#utility.yul\":12677:12682   */\n      dup3\n        /* \"#utility.yul\":12671:12675   */\n      dup3\n        /* \"#utility.yul\":12667:12683   */\n      shr\n        /* \"#utility.yul\":12646:12683   */\n      swap1\n      pop\n        /* \"#utility.yul\":12573:12690   */\n      swap3\n      swap2\n      pop\n      pop\n      jump\t// out\n        /* \"#utility.yul\":12696:12865   */\n    tag_147:\n        /* \"#utility.yul\":12740:12746   */\n      0x00\n        /* \"#utility.yul\":12773:12824   */\n      tag_298\n        /* \"#utility.yul\":12821:12822   */\n      0x00\n        /* \"#utility.yul\":12817:12823   */\n      not\n        /* \"#utility.yul\":12809:12814   */\n      dup5\n        /* \"#utility.yul\":12806:12807   */\n      0x08\n        /* \"#utility.yul\":12802:12815   */\n      mul\n        /* \"#utility.yul\":12773:12824   */\n      tag_146\n      jump\t// in\n    tag_298:\n        /* \"#utility.yul\":12769:12825   */\n      not\n        /* \"#utility.yul\":12854:12858   */\n      dup1\n        /* \"#utility.yul\":12848:12852   */\n      dup4\n        /* \"#utility.yul\":12844:12859   */\n      and\n        /* \"#utility.yul\":12834:12859   */\n      swap2\n      pop\n        /* \"#utility.yul\":12747:12865   */\n      pop\n        /* \"#utility.yul\":12696:12865   */\n      swap3\n      swap2\n      pop\n      pop\n      jump\t// out\n        /* \"#utility.yul\":12870:13165   */\n    tag_148:\n        /* \"#utility.yul\":12946:12950   */\n      0x00\n        /* \"#utility.yul\":13092:13121   */\n      tag_300\n        /* \"#utility.yul\":13117:13120   */\n      dup4\n        /* \"#utility.yul\":13111:13115   */\n      dup4\n        /* \"#utility.yul\":13092:13121   */\n      tag_147\n      jump\t// in\n    tag_300:\n        /* \"#utility.yul\":13084:13121   */\n      swap2\n      pop\n        /* \"#utility.yul\":13154:13157   */\n      dup3\n        /* \"#utility.yul\":13151:13152   */\n      0x02\n        /* \"#utility.yul\":13147:13158   */\n      mul\n        /* \"#utility.yul\":13141:13145   */\n      dup3\n        /* \"#utility.yul\":13138:13159   */\n      or\n        /* \"#utility.yul\":13130:13159   */\n      swap1\n      pop\n        /* \"#utility.yul\":12870:13165   */\n      swap3\n      swap2\n      pop\n      pop\n      jump\t// out\n        /* \"#utility.yul\":13170:14565   */\n    tag_99:\n        /* \"#utility.yul\":13287:13324   */\n      tag_302\n        /* \"#utility.yul\":13320:13323   */\n      dup3\n        /* \"#utility.yul\":13287:13324   */\n      tag_118\n      jump\t// in\n    tag_302:\n        /* \"#utility.yul\":13389:13407   */\n      0xffffffffffffffff\n        /* \"#utility.yul\":13381:13387   */\n      dup2\n        /* \"#utility.yul\":13378:13408   */\n      gt\n        /* \"#utility.yul\":13375:13431   */\n      iszero\n      tag_303\n      jumpi\n        /* \"#utility.yul\":13411:13429   */\n      tag_304\n      tag_126\n      jump\t// in\n    tag_304:\n        /* \"#utility.yul\":13375:13431   */\n    tag_303:\n        /* \"#utility.yul\":13455:13493   */\n      tag_305\n        /* \"#utility.yul\":13487:13491   */\n      dup3\n        /* \"#utility.yul\":13481:13492   */\n      sload\n        /* \"#utility.yul\":13455:13493   */\n      tag_67\n      jump\t// in\n    tag_305:\n        /* \"#utility.yul\":13540:13607   */\n      tag_306\n        /* \"#utility.yul\":13600:13606   */\n      dup3\n        /* \"#utility.yul\":13592:13598   */\n      dup3\n        /* \"#utility.yul\":13586:13590   */\n      dup6\n        /* \"#utility.yul\":13540:13607   */\n      tag_145\n      jump\t// in\n    tag_306:\n        /* \"#utility.yul\":13634:13635   */\n      0x00\n        /* \"#utility.yul\":13658:13662   */\n      0x20\n        /* \"#utility.yul\":13645:13662   */\n      swap1\n      pop\n        /* \"#utility.yul\":13690:13692   */\n      0x1f\n        /* \"#utility.yul\":13682:13688   */\n      dup4\n        /* \"#utility.yul\":13679:13693   */\n      gt\n        /* \"#utility.yul\":13707:13708   */\n      0x01\n        /* \"#utility.yul\":13702:14320   */\n      dup2\n      eq\n      tag_308\n      jumpi\n        /* \"#utility.yul\":14364:14365   */\n      0x00\n        /* \"#utility.yul\":14381:14387   */\n      dup5\n        /* \"#utility.yul\":14378:14455   */\n      iszero\n      tag_309\n      jumpi\n        /* \"#utility.yul\":14430:14439   */\n      dup3\n        /* \"#utility.yul\":14425:14428   */\n      dup8\n        /* \"#utility.yul\":14421:14440   */\n      add\n        /* \"#utility.yul\":14415:14441   */\n      mload\n        /* \"#utility.yul\":14406:14441   */\n      swap1\n      pop\n        /* \"#utility.yul\":14378:14455   */\n    tag_309:\n        /* \"#utility.yul\":14481:14548   */\n      tag_310\n        /* \"#utility.yul\":14541:14547   */\n      dup6\n        /* \"#utility.yul\":14534:14539   */\n      dup3\n        /* \"#utility.yul\":14481:14548   */\n      tag_148\n      jump\t// in\n    tag_310:\n        /* \"#utility.yul\":14475:14479   */\n      dup7\n        /* \"#utility.yul\":14468:14549   */\n      sstore\n        /* \"#utility.yul\":14337:14559   */\n      pop\n        /* \"#utility.yul\":13672:14559   */\n      jump(tag_307)\n        /* \"#utility.yul\":13702:14320   */\n    tag_308:\n        /* \"#utility.yul\":13754:13758   */\n      0x1f\n        /* \"#utility.yul\":13750:13759   */\n      not\n        /* \"#utility.yul\":13742:13748   */\n      dup5\n        /* \"#utility.yul\":13738:13760   */\n      and\n        /* \"#utility.yul\":13788:13825   */\n      tag_311\n        /* \"#utility.yul\":13820:13824   */\n      dup7\n        /* \"#utility.yul\":13788:13825   */\n      tag_134\n      jump\t// in\n    tag_311:\n        /* \"#utility.yul\":13847:13848   */\n      0x00\n        /* \"#utility.yul\":13861:14069   */\n    tag_312:\n        /* \"#utility.yul\":13875:13882   */\n      dup3\n        /* \"#utility.yul\":13872:13873   */\n      dup2\n        /* \"#utility.yul\":13869:13883   */\n      lt\n        /* \"#utility.yul\":13861:14069   */\n      iszero\n      tag_314\n      jumpi\n        /* \"#utility.yul\":13954:13963   */\n      dup5\n        /* \"#utility.yul\":13949:13952   */\n      dup10\n        /* \"#utility.yul\":13945:13964   */\n      add\n        /* \"#utility.yul\":13939:13965   */\n      mload\n        /* \"#utility.yul\":13931:13937   */\n      dup3\n        /* \"#utility.yul\":13924:13966   */\n      sstore\n        /* \"#utility.yul\":14005:14006   */\n      0x01\n        /* \"#utility.yul\":13997:14003   */\n      dup3\n        /* \"#utility.yul\":13993:14007   */\n      add\n        /* \"#utility.yul\":13983:14007   */\n      swap2\n      pop\n        /* \"#utility.yul\":14052:14054   */\n      0x20\n        /* \"#utility.yul\":14041:14050   */\n      dup6\n        /* \"#utility.yul\":14037:14055   */\n      add\n        /* \"#utility.yul\":14024:14055   */\n      swap5\n      pop\n        /* \"#utility.yul\":13898:13902   */\n      0x20\n        /* \"#utility.yul\":13895:13896   */\n      dup2\n        /* \"#utility.yul\":13891:13903   */\n      add\n        /* \"#utility.yul\":13886:13903   */\n      swap1\n      pop\n        /* \"#utility.yul\":13861:14069   */\n      jump(tag_312)\n    tag_314:\n        /* \"#utility.yul\":14097:14103   */\n      dup7\n        /* \"#utility.yul\":14088:14095   */\n      dup4\n        /* \"#utility.yul\":14085:14104   */\n      lt\n        /* \"#utility.yul\":14082:14261   */\n      iszero\n      tag_315\n      jumpi\n        /* \"#utility.yul\":14155:14164   */\n      dup5\n        /* \"#utility.yul\":14150:14153   */\n      dup10\n        /* \"#utility.yul\":14146:14165   */\n      add\n        /* \"#utility.yul\":14140:14166   */\n      mload\n        /* \"#utility.yul\":14198:14246   */\n      tag_316\n        /* \"#utility.yul\":14240:14244   */\n      0x1f\n        /* \"#utility.yul\":14232:14238   */\n      dup10\n        /* \"#utility.yul\":14228:14245   */\n      and\n        /* \"#utility.yul\":14217:14226   */\n      dup3\n        /* \"#utility.yul\":14198:14246   */\n      tag_147\n      jump\t// in\n    tag_316:\n        /* \"#utility.yul\":14190:14196   */\n      dup4\n        /* \"#utility.yul\":14183:14247   */\n      sstore\n        /* \"#utility.yul\":14105:14261   */\n      pop\n        /* \"#utility.yul\":14082:14261   */\n    tag_315:\n        /* \"#utility.yul\":14307:14308   */\n      0x01\n        /* \"#utility.yul\":14303:14304   */\n      0x02\n        /* \"#utility.yul\":14295:14301   */\n      dup9\n        /* \"#utility.yul\":14291:14305   */\n      mul\n        /* \"#utility.yul\":14287:14309   */\n      add\n        /* \"#utility.yul\":14281:14285   */\n      dup9\n        /* \"#utility.yul\":14274:14310   */\n      sstore\n        /* \"#utility.yul\":13709:14320   */\n      pop\n      pop\n      pop\n        /* \"#utility.yul\":13672:14559   */\n    tag_307:\n      pop\n        /* \"#utility.yul\":13262:14565   */\n      pop\n      pop\n      pop\n        /* \"#utility.yul\":13170:14565   */\n      pop\n      pop\n      jump\t// out\n        /* \"#utility.yul\":14571:14720   */\n    tag_149:\n        /* \"#utility.yul\":14620:14626   */\n      0x00\n        /* \"#utility.yul\":14654:14659   */\n      dup2\n        /* \"#utility.yul\":14648:14660   */\n      sload\n        /* \"#utility.yul\":14638:14660   */\n      swap1\n      pop\n        /* \"#utility.yul\":14680:14713   */\n      tag_318\n        /* \"#utility.yul\":14706:14712   */\n      dup2\n        /* \"#utility.yul\":14680:14713   */\n      tag_67\n      jump\t// in\n    tag_318:\n        /* \"#utility.yul\":14670:14713   */\n      swap1\n      pop\n        /* \"#utility.yul\":14571:14720   */\n      swap2\n      swap1\n      pop\n      jump\t// out\n        /* \"#utility.yul\":14726:16177   */\n    tag_102:\n        /* \"#utility.yul\":14837:14840   */\n      dup2\n        /* \"#utility.yul\":14831:14835   */\n      dup2\n        /* \"#utility.yul\":14828:14841   */\n      sub\n        /* \"#utility.yul\":14825:14851   */\n      tag_320\n      jumpi\n        /* \"#utility.yul\":14844:14849   */\n      pop\n      pop\n      jump(tag_319)\n        /* \"#utility.yul\":14825:14851   */\n    tag_320:\n        /* \"#utility.yul\":14875:14909   */\n      tag_321\n        /* \"#utility.yul\":14905:14908   */\n      dup3\n        /* \"#utility.yul\":14875:14909   */\n      tag_149\n      jump\t// in\n    tag_321:\n        /* \"#utility.yul\":14974:14992   */\n      0xffffffffffffffff\n        /* \"#utility.yul\":14966:14972   */\n      dup2\n        /* \"#utility.yul\":14963:14993   */\n      gt\n        /* \"#utility.yul\":14960:15016   */\n      iszero\n      tag_322\n      jumpi\n        /* \"#utility.yul\":14996:15014   */\n      tag_323\n      tag_126\n      jump\t// in\n    tag_323:\n        /* \"#utility.yul\":14960:15016   */\n    tag_322:\n        /* \"#utility.yul\":15040:15078   */\n      tag_324\n        /* \"#utility.yul\":15072:15076   */\n      dup3\n        /* \"#utility.yul\":15066:15077   */\n      sload\n        /* \"#utility.yul\":15040:15078   */\n      tag_67\n      jump\t// in\n    tag_324:\n        /* \"#utility.yul\":15125:15192   */\n      tag_325\n        /* \"#utility.yul\":15185:15191   */\n      dup3\n        /* \"#utility.yul\":15177:15183   */\n      dup3\n        /* \"#utility.yul\":15171:15175   */\n      dup6\n        /* \"#utility.yul\":15125:15192   */\n      tag_145\n      jump\t// in\n    tag_325:\n        /* \"#utility.yul\":15219:15220   */\n      0x00\n        /* \"#utility.yul\":15248:15250   */\n      0x1f\n        /* \"#utility.yul\":15240:15246   */\n      dup4\n        /* \"#utility.yul\":15237:15251   */\n      gt\n        /* \"#utility.yul\":15265:15266   */\n      0x01\n        /* \"#utility.yul\":15260:15932   */\n      dup2\n      eq\n      tag_327\n      jumpi\n        /* \"#utility.yul\":15976:15977   */\n      0x00\n        /* \"#utility.yul\":15993:15999   */\n      dup5\n        /* \"#utility.yul\":15990:16067   */\n      iszero\n      tag_328\n      jumpi\n        /* \"#utility.yul\":16042:16051   */\n      dup3\n        /* \"#utility.yul\":16037:16040   */\n      dup8\n        /* \"#utility.yul\":16033:16052   */\n      add\n        /* \"#utility.yul\":16027:16053   */\n      sload\n        /* \"#utility.yul\":16018:16053   */\n      swap1\n      pop\n        /* \"#utility.yul\":15990:16067   */\n    tag_328:\n        /* \"#utility.yul\":16093:16160   */\n      tag_329\n        /* \"#utility.yul\":16153:16159   */\n      dup6\n        /* \"#utility.yul\":16146:16151   */\n      dup3\n        /* \"#utility.yul\":16093:16160   */\n      tag_148\n      jump\t// in\n    tag_329:\n        /* \"#utility.yul\":16087:16091   */\n      dup7\n        /* \"#utility.yul\":16080:16161   */\n      sstore\n        /* \"#utility.yul\":15949:16171   */\n      pop\n        /* \"#utility.yul\":15230:16171   */\n      jump(tag_326)\n        /* \"#utility.yul\":15260:15932   */\n    tag_327:\n        /* \"#utility.yul\":15312:15316   */\n      0x1f\n        /* \"#utility.yul\":15308:15317   */\n      not\n        /* \"#utility.yul\":15300:15306   */\n      dup5\n        /* \"#utility.yul\":15296:15318   */\n      and\n        /* \"#utility.yul\":15338:15374   */\n      tag_330\n        /* \"#utility.yul\":15370:15373   */\n      dup8\n        /* \"#utility.yul\":15338:15374   */\n      tag_134\n      jump\t// in\n    tag_330:\n        /* \"#utility.yul\":15331:15374   */\n      swap7\n      pop\n        /* \"#utility.yul\":15401:15438   */\n      tag_331\n        /* \"#utility.yul\":15433:15437   */\n      dup7\n        /* \"#utility.yul\":15401:15438   */\n      tag_134\n      jump\t// in\n    tag_331:\n        /* \"#utility.yul\":15460:15461   */\n      0x00\n        /* \"#utility.yul\":15474:15681   */\n    tag_332:\n        /* \"#utility.yul\":15488:15495   */\n      dup3\n        /* \"#utility.yul\":15485:15486   */\n      dup2\n        /* \"#utility.yul\":15482:15496   */\n      lt\n        /* \"#utility.yul\":15474:15681   */\n      iszero\n      tag_334\n      jumpi\n        /* \"#utility.yul\":15567:15576   */\n      dup5\n        /* \"#utility.yul\":15562:15565   */\n      dup10\n        /* \"#utility.yul\":15558:15577   */\n      add\n        /* \"#utility.yul\":15552:15578   */\n      sload\n        /* \"#utility.yul\":15544:15550   */\n      dup3\n        /* \"#utility.yul\":15537:15579   */\n      sstore\n        /* \"#utility.yul\":15618:15619   */\n      0x01\n        /* \"#utility.yul\":15610:15616   */\n      dup3\n        /* \"#utility.yul\":15606:15620   */\n      add\n        /* \"#utility.yul\":15596:15620   */\n      swap2\n      pop\n        /* \"#utility.yul\":15665:15666   */\n      0x01\n        /* \"#utility.yul\":15654:15663   */\n      dup6\n        /* \"#utility.yul\":15650:15667   */\n      add\n        /* \"#utility.yul\":15637:15667   */\n      swap5\n      pop\n        /* \"#utility.yul\":15511:15515   */\n      0x20\n        /* \"#utility.yul\":15508:15509   */\n      dup2\n        /* \"#utility.yul\":15504:15516   */\n      add\n        /* \"#utility.yul\":15499:15516   */\n      swap1\n      pop\n        /* \"#utility.yul\":15474:15681   */\n      jump(tag_332)\n    tag_334:\n        /* \"#utility.yul\":15709:15715   */\n      dup7\n        /* \"#utility.yul\":15700:15707   */\n      dup4\n        /* \"#utility.yul\":15697:15716   */\n      lt\n        /* \"#utility.yul\":15694:15873   */\n      iszero\n      tag_335\n      jumpi\n        /* \"#utility.yul\":15767:15776   */\n      dup5\n        /* \"#utility.yul\":15762:15765   */\n      dup10\n        /* \"#utility.yul\":15758:15777   */\n      add\n        /* \"#utility.yul\":15752:15778   */\n      sload\n        /* \"#utility.yul\":15810:15858   */\n      tag_336\n        /* \"#utility.yul\":15852:15856   */\n      0x1f\n        /* \"#utility.yul\":15844:15850   */\n      dup10\n        /* \"#utility.yul\":15840:15857   */\n      and\n        /* \"#utility.yul\":15829:15838   */\n      dup3\n        /* \"#utility.yul\":15810:15858   */\n      tag_147\n      jump\t// in\n    tag_336:\n        /* \"#utility.yul\":15802:15808   */\n      dup4\n        /* \"#utility.yul\":15795:15859   */\n      sstore\n        /* \"#utility.yul\":15717:15873   */\n      pop\n        /* \"#utility.yul\":15694:15873   */\n    tag_335:\n        /* \"#utility.yul\":15919:15920   */\n      0x01\n        /* \"#utility.yul\":15915:15916   */\n      0x02\n        /* \"#utility.yul\":15907:15913   */\n      dup9\n        /* \"#utility.yul\":15903:15917   */\n      mul\n        /* \"#utility.yul\":15899:15921   */\n      add\n        /* \"#utility.yul\":15893:15897   */\n      dup9\n        /* \"#utility.yul\":15886:15922   */\n      sstore\n        /* \"#utility.yul\":15267:15932   */\n      pop\n      pop\n      pop\n        /* \"#utility.yul\":15230:16171   */\n    tag_326:\n      pop\n        /* \"#utility.yul\":14815:16177   */\n      pop\n      pop\n      pop\n        /* \"#utility.yul\":14726:16177   */\n      pop\n      pop\n    tag_319:\n      jump\t// out\n        /* \"#utility.yul\":16183:16363   */\n    tag_150:\n        /* \"#utility.yul\":16231:16308   */\n      0x4e487b7100000000000000000000000000000000000000000000000000000000\n        /* \"#utility.yul\":16228:16229   */\n      0x00\n        /* \"#utility.yul\":16221:16309   */\n      mstore\n        /* \"#utility.yul\":16328:16332   */\n      0x11\n        /* \"#utility.yul\":16325:16326   */\n      0x04\n        /* \"#utility.yul\":16318:16333   */\n      mstore\n        /* \"#utility.yul\":16352:16356   */\n      0x24\n        /* \"#utility.yul\":16349:16350   */\n      0x00\n        /* \"#utility.yul\":16342:16357   */\n      revert\n        /* \"#utility.yul\":16369:16602   */\n    tag_104:\n        /* \"#utility.yul\":16408:16411   */\n      0x00\n        /* \"#utility.yul\":16431:16455   */\n      tag_339\n        /* \"#utility.yul\":16449:16454   */\n      dup3\n        /* \"#utility.yul\":16431:16455   */\n      tag_108\n      jump\t// in\n    tag_339:\n        /* \"#utility.yul\":16422:16455   */\n      swap2\n      pop\n        /* \"#utility.yul\":16477:16543   */\n      0xffffffffffffffffffffffffffffffffffffffffffffffffffffffffffffffff\n        /* \"#utility.yul\":16470:16475   */\n      dup3\n        /* \"#utility.yul\":16467:16544   */\n      sub\n        /* \"#utility.yul\":16464:16567   */\n      tag_340\n      jumpi\n        /* \"#utility.yul\":16547:16565   */\n      tag_341\n      tag_150\n      jump\t// in\n    tag_341:\n        /* \"#utility.yul\":16464:16567   */\n    tag_340:\n        /* \"#utility.yul\":16594:16595   */\n      0x01\n        /* \"#utility.yul\":16587:16592   */\n      dup3\n        /* \"#utility.yul\":16583:16596   */\n      add\n        /* \"#utility.yul\":16576:16596   */\n      swap1\n      pop\n        /* \"#utility.yul\":16369:16602   */\n      swap2\n      swap1\n      pop\n      jump\t// out\n\n    auxdata: 0xa26469706673582212200f3010dfc6d8e42436b56349d47f774665e7ba46a87ffcaf02d4dd4510e7077564736f6c634300081f0033\n}\n",
				"bytecode": {
					"linkReferences": {},
					"object": "60806040525f6006555f6007553480156016575f5ffd5b503360055f6101000a81548173ffffffffffffffffffffffffffffffffffffffff021916908373ffffffffffffffffffffffffffffffffffffffff1602179055506111e0806100645f395ff3fe608060405234801561000f575f5ffd5b506004361061009c575f3560e01c80639b88c806116100645780639b88c80614610182578063d21d1596146101b6578063e28350b7146101d2578063e8d857b014610205578063fb46d4c5146102385761009c565b806314d648de146100a05780632637588e146100d05780633befea09146101005780634f8632ba146101345780639139cda514610152575b5f5ffd5b6100ba60048036038101906100b591906108cf565b610254565b6040516100c7919061091c565b60405180910390f35b6100ea60048036038101906100e5919061098f565b61027f565b6040516100f791906109e7565b60405180910390f35b61011a60048036038101906101159190610a00565b6102a9565b60405161012b959493929190610abd565b60405180910390f35b61013c6103b9565b6040516101499190610b15565b60405180910390f35b61016c60048036038101906101679190610a00565b6103de565b6040516101799190610b15565b60405180910390f35b61019c60048036038101906101979190610b2e565b610426565b6040516101ad959493929190610abd565b60405180910390f35b6101d060048036038101906101cb9190610c85565b61052b565b005b6101ec60048036038101906101e79190610b2e565b61052f565b6040516101fc9493929190610cdf565b60405180910390f35b61021f600480360381019061021a9190610b2e565b61060f565b60405161022f9493929190610cdf565b60405180910390f35b610252600480360381019061024d9190610d29565b6106df565b005b6001602052815f5260405f20818154811061026d575f80fd5b905f5260205f20015f91509150505481565b6003602052815f5260405f20602052805f5260405f205f915091509054906101000a900460ff1681565b6002602052815f5260405f2081815481106102c2575f80fd5b905f5260205f2090600502015f9150915050805f0154908060010180546102e890610d9d565b80601f016020809104026020016040519081016040528092919081815260200182805461031490610d9d565b801561035f5780601f106103365761010080835404028352916020019161035f565b820191905f5260205f20905b81548152906001019060200180831161034257829003601f168201915b505050505090806002015f9054906101000a900473ffffffffffffffffffffffffffffffffffffffff1690806003015f9054906101000a900473ffffffffffffffffffffffffffffffffffffffff16908060040154905085565b60055f9054906101000a900473ffffffffffffffffffffffffffffffffffffffff1681565b6004602052815f5260405f2081815481106103f7575f80fd5b905f5260205f20015f915091509054906101000a900473ffffffffffffffffffffffffffffffffffffffff1681565b60098181548110610435575f80fd5b905f5260205f2090600502015f91509050805f01549080600101805461045a90610d9d565b80601f016020809104026020016040519081016040528092919081815260200182805461048690610d9d565b80156104d15780601f106104a8576101008083540402835291602001916104d1565b820191905f5260205f20905b8154815290600101906020018083116104b457829003601f168201915b505050505090806002015f9054906101000a900473ffffffffffffffffffffffffffffffffffffffff1690806003015f9054906101000a900473ffffffffffffffffffffffffffffffffffffffff16908060040154905085565b5050565b6008818154811061053e575f80fd5b905f5260205f2090600402015f91509050805f015490806001015f9054906101000a900473ffffffffffffffffffffffffffffffffffffffff169080600201805461058890610d9d565b80601f01602080910402602001604051908101604052809291908181526020018280546105b490610d9d565b80156105ff5780601f106105d6576101008083540402835291602001916105ff565b820191905f5260205f20905b8154815290600101906020018083116105e257829003601f168201915b5050505050908060030154905084565b5f602052805f5260405f205f91509050805f015490806001015f9054906101000a900473ffffffffffffffffffffffffffffffffffffffff169080600201805461065890610d9d565b80601f016020809104026020016040519081016040528092919081815260200182805461068490610d9d565b80156106cf5780601f106106a6576101008083540402835291602001916106cf565b820191905f5260205f20905b8154815290600101906020018083116106b257829003601f168201915b5050505050908060030154905084565b6106e933826106ec565b50565b604051806080016040528060065481526020018373ffffffffffffffffffffffffffffffffffffffff168152602001828152602001428152505f5f60065481526020019081526020015f205f820151815f01556020820151816001015f6101000a81548173ffffffffffffffffffffffffffffffffffffffff021916908373ffffffffffffffffffffffffffffffffffffffff160217905550604082015181600201908161079a9190610f6d565b506060820151816003015590505060085f5f60065481526020019081526020015f20908060018154018082558091505060019003905f5260205f2090600402015f909190919091505f820154815f0155600182015f9054906101000a900473ffffffffffffffffffffffffffffffffffffffff16816001015f6101000a81548173ffffffffffffffffffffffffffffffffffffffff021916908373ffffffffffffffffffffffffffffffffffffffff160217905550600282018160020190816108639190611051565b5060038201548160030155505060065f81548092919061088290611163565b91905055505050565b5f604051905090565b5f5ffd5b5f5ffd5b5f819050919050565b6108ae8161089c565b81146108b8575f5ffd5b50565b5f813590506108c9816108a5565b92915050565b5f5f604083850312156108e5576108e4610894565b5b5f6108f2858286016108bb565b9250506020610903858286016108bb565b9150509250929050565b6109168161089c565b82525050565b5f60208201905061092f5f83018461090d565b92915050565b5f73ffffffffffffffffffffffffffffffffffffffff82169050919050565b5f61095e82610935565b9050919050565b61096e81610954565b8114610978575f5ffd5b50565b5f8135905061098981610965565b92915050565b5f5f604083850312156109a5576109a4610894565b5b5f6109b28582860161097b565b92505060206109c38582860161097b565b9150509250929050565b5f8115159050919050565b6109e1816109cd565b82525050565b5f6020820190506109fa5f8301846109d8565b92915050565b5f5f60408385031215610a1657610a15610894565b5b5f610a238582860161097b565b9250506020610a34858286016108bb565b9150509250929050565b5f81519050919050565b5f82825260208201905092915050565b8281835e5f83830152505050565b5f601f19601f8301169050919050565b5f610a8082610a3e565b610a8a8185610a48565b9350610a9a818560208601610a58565b610aa381610a66565b840191505092915050565b610ab781610954565b82525050565b5f60a082019050610ad05f83018861090d565b8181036020830152610ae28187610a76565b9050610af16040830186610aae565b610afe6060830185610aae565b610b0b608083018461090d565b9695505050505050565b5f602082019050610b285f830184610aae565b92915050565b5f60208284031215610b4357610b42610894565b5b5f610b50848285016108bb565b91505092915050565b5f5ffd5b5f5ffd5b7f4e487b71000000000000000000000000000000000000000000000000000000005f52604160045260245ffd5b610b9782610a66565b810181811067ffffffffffffffff82111715610bb657610bb5610b61565b5b80604052505050565b5f610bc861088b565b9050610bd48282610b8e565b919050565b5f67ffffffffffffffff821115610bf357610bf2610b61565b5b610bfc82610a66565b9050602081019050919050565b828183375f83830152505050565b5f610c29610c2484610bd9565b610bbf565b905082815260208101848484011115610c4557610c44610b5d565b5b610c50848285610c09565b509392505050565b5f82601f830112610c6c57610c6b610b59565b5b8135610c7c848260208601610c17565b91505092915050565b5f5f60408385031215610c9b57610c9a610894565b5b5f610ca88582860161097b565b925050602083013567ffffffffffffffff811115610cc957610cc8610898565b5b610cd585828601610c58565b9150509250929050565b5f608082019050610cf25f83018761090d565b610cff6020830186610aae565b8181036040830152610d118185610a76565b9050610d20606083018461090d565b95945050505050565b5f60208284031215610d3e57610d3d610894565b5b5f82013567ffffffffffffffff811115610d5b57610d5a610898565b5b610d6784828501610c58565b91505092915050565b7f4e487b71000000000000000000000000000000000000000000000000000000005f52602260045260245ffd5b5f6002820490506001821680610db457607f821691505b602082108103610dc757610dc6610d70565b5b50919050565b5f819050815f5260205f209050919050565b5f6020601f8301049050919050565b5f82821b905092915050565b5f60088302610e297fffffffffffffffffffffffffffffffffffffffffffffffffffffffffffffffff82610dee565b610e338683610dee565b95508019841693508086168417925050509392505050565b5f819050919050565b5f610e6e610e69610e648461089c565b610e4b565b61089c565b9050919050565b5f819050919050565b610e8783610e54565b610e9b610e9382610e75565b848454610dfa565b825550505050565b5f5f905090565b610eb2610ea3565b610ebd818484610e7e565b505050565b5b81811015610ee057610ed55f82610eaa565b600181019050610ec3565b5050565b601f821115610f2557610ef681610dcd565b610eff84610ddf565b81016020851015610f0e578190505b610f22610f1a85610ddf565b830182610ec2565b50505b505050565b5f82821c905092915050565b5f610f455f1984600802610f2a565b1980831691505092915050565b5f610f5d8383610f36565b9150826002028217905092915050565b610f7682610a3e565b67ffffffffffffffff811115610f8f57610f8e610b61565b5b610f998254610d9d565b610fa4828285610ee4565b5f60209050601f831160018114610fd5575f8415610fc3578287015190505b610fcd8582610f52565b865550611034565b601f198416610fe386610dcd565b5f5b8281101561100a57848901518255600182019150602085019450602081019050610fe5565b868310156110275784890151611023601f891682610f36565b8355505b6001600288020188555050505b505050505050565b5f8154905061104a81610d9d565b9050919050565b81810361105f575050611134565b6110688261103c565b67ffffffffffffffff81111561108157611080610b61565b5b61108b8254610d9d565b611096828285610ee4565b5f601f8311600181146110c3575f84156110b1578287015490505b6110bb8582610f52565b86555061112d565b601f1984166110d187610dcd565b96506110dc86610dcd565b5f5b82811015611103578489015482556001820191506001850194506020810190506110de565b86831015611120578489015461111c601f891682610f36565b8355505b6001600288020188555050505b5050505050505b565b7f4e487b71000000000000000000000000000000000000000000000000000000005f52601160045260245ffd5b5f61116d8261089c565b91507fffffffffffffffffffffffffffffffffffffffffffffffffffffffffffffffff820361119f5761119e611136565b5b60018201905091905056fea26469706673582212200f3010dfc6d8e42436b56349d47f774665e7ba46a87ffcaf02d4dd4510e7077564736f6c634300081f0033",
					"opcodes": "PUSH1 0x80 PUSH1 0x40 MSTORE PUSH0 PUSH1 0x6 SSTORE PUSH0 PUSH1 0x7 SSTORE CALLVALUE DUP1 ISZERO PUSH1 0x16 JUMPI PUSH0 PUSH0 REVERT JUMPDEST POP CALLER PUSH1 0x5 PUSH0 PUSH2 0x100 EXP DUP2 SLOAD DUP2 PUSH20 0xFFFFFFFFFFFFFFFFFFFFFFFFFFFFFFFFFFFFFFFF MUL NOT AND SWAP1 DUP4 PUSH20 0xFFFFFFFFFFFFFFFFFFFFFFFFFFFFFFFFFFFFFFFF AND MUL OR SWAP1 SSTORE POP PUSH2 0x11E0 DUP1 PUSH2 0x64 PUSH0 CODECOPY PUSH0 RETURN INVALID PUSH1 0x80 PUSH1 0x40 MSTORE CALLVALUE DUP1 ISZERO PUSH2 0xF JUMPI PUSH0 PUSH0 REVERT JUMPDEST POP PUSH1 0x4 CALLDATASIZE LT PUSH2 0x9C JUMPI PUSH0 CALLDATALOAD PUSH1 0xE0 SHR DUP1 PUSH4 0x9B88C806 GT PUSH2 0x64 JUMPI DUP1 PUSH4 0x9B88C806 EQ PUSH2 0x182 JUMPI DUP1 PUSH4 0xD21D1596 EQ PUSH2 0x1B6 JUMPI DUP1 PUSH4 0xE28350B7 EQ PUSH2 0x1D2 JUMPI DUP1 PUSH4 0xE8D857B0 EQ PUSH2 0x205 JUMPI DUP1 PUSH4 0xFB46D4C5 EQ PUSH2 0x238 JUMPI PUSH2 0x9C JUMP JUMPDEST DUP1 PUSH4 0x14D648DE EQ PUSH2 0xA0 JUMPI DUP1 PUSH4 0x2637588E EQ PUSH2 0xD0 JUMPI DUP1 PUSH4 0x3BEFEA09 EQ PUSH2 0x100 JUMPI DUP1 PUSH4 0x4F8632BA EQ PUSH2 0x134 JUMPI DUP1 PUSH4 0x9139CDA5 EQ PUSH2 0x152 JUMPI JUMPDEST PUSH0 PUSH0 REVERT JUMPDEST PUSH2 0xBA PUSH1 0x4 DUP1 CALLDATASIZE SUB DUP2 ADD SWAP1 PUSH2 0xB5 SWAP2 SWAP1 PUSH2 0x8CF JUMP JUMPDEST PUSH2 0x254 JUMP JUMPDEST PUSH1 0x40 MLOAD PUSH2 0xC7 SWAP2 SWAP1 PUSH2 0x91C JUMP JUMPDEST PUSH1 0x40 MLOAD DUP1 SWAP2 SUB SWAP1 RETURN JUMPDEST PUSH2 0xEA PUSH1 0x4 DUP1 CALLDATASIZE SUB DUP2 ADD SWAP1 PUSH2 0xE5 SWAP2 SWAP1 PUSH2 0x98F JUMP JUMPDEST PUSH2 0x27F JUMP JUMPDEST PUSH1 0x40 MLOAD PUSH2 0xF7 SWAP2 SWAP1 PUSH2 0x9E7 JUMP JUMPDEST PUSH1 0x40 MLOAD DUP1 SWAP2 SUB SWAP1 RETURN JUMPDEST PUSH2 0x11A PUSH1 0x4 DUP1 CALLDATASIZE SUB DUP2 ADD SWAP1 PUSH2 0x115 SWAP2 SWAP1 PUSH2 0xA00 JUMP JUMPDEST PUSH2 0x2A9 JUMP JUMPDEST PUSH1 0x40 MLOAD PUSH2 0x12B SWAP6 SWAP5 SWAP4 SWAP3 SWAP2 SWAP1 PUSH2 0xABD JUMP JUMPDEST PUSH1 0x40 MLOAD DUP1 SWAP2 SUB SWAP1 RETURN JUMPDEST PUSH2 0x13C PUSH2 0x3B9 JUMP JUMPDEST PUSH1 0x40 MLOAD PUSH2 0x149 SWAP2 SWAP1 PUSH2 0xB15 JUMP JUMPDEST PUSH1 0x40 MLOAD DUP1 SWAP2 SUB SWAP1 RETURN JUMPDEST PUSH2 0x16C PUSH1 0x4 DUP1 CALLDATASIZE SUB DUP2 ADD SWAP1 PUSH2 0x167 SWAP2 SWAP1 PUSH2 0xA00 JUMP JUMPDEST PUSH2 0x3DE JUMP JUMPDEST PUSH1 0x40 MLOAD PUSH2 0x179 SWAP2 SWAP1 PUSH2 0xB15 JUMP JUMPDEST PUSH1 0x40 MLOAD DUP1 SWAP2 SUB SWAP1 RETURN JUMPDEST PUSH2 0x19C PUSH1 0x4 DUP1 CALLDATASIZE SUB DUP2 ADD SWAP1 PUSH2 0x197 SWAP2 SWAP1 PUSH2 0xB2E JUMP JUMPDEST PUSH2 0x426 JUMP JUMPDEST PUSH1 0x40 MLOAD PUSH2 0x1AD SWAP6 SWAP5 SWAP4 SWAP3 SWAP2 SWAP1 PUSH2 0xABD JUMP JUMPDEST PUSH1 0x40 MLOAD DUP1 SWAP2 SUB SWAP1 RETURN JUMPDEST PUSH2 0x1D0 PUSH1 0x4 DUP1 CALLDATASIZE SUB DUP2 ADD SWAP1 PUSH2 0x1CB SWAP2 SWAP1 PUSH2 0xC85 JUMP JUMPDEST PUSH2 0x52B JUMP JUMPDEST STOP JUMPDEST PUSH2 0x1EC PUSH1 0x4 DUP1 CALLDATASIZE SUB DUP2 ADD SWAP1 PUSH2 0x1E7 SWAP2 SWAP1 PUSH2 0xB2E JUMP JUMPDEST PUSH2 0x52F JUMP JUMPDEST PUSH1 0x40 MLOAD PUSH2 0x1FC SWAP5 SWAP4 SWAP3 SWAP2 SWAP1 PUSH2 0xCDF JUMP JUMPDEST PUSH1 0x40 MLOAD DUP1 SWAP2 SUB SWAP1 RETURN JUMPDEST PUSH2 0x21F PUSH1 0x4 DUP1 CALLDATASIZE SUB DUP2 ADD SWAP1 PUSH2 0x21A SWAP2 SWAP1 PUSH2 0xB2E JUMP JUMPDEST PUSH2 0x60F JUMP JUMPDEST PUSH1 0x40 MLOAD PUSH2 0x22F SWAP5 SWAP4 SWAP3 SWAP2 SWAP1 PUSH2 0xCDF JUMP JUMPDEST PUSH1 0x40 MLOAD DUP1 SWAP2 SUB SWAP1 RETURN JUMPDEST PUSH2 0x252 PUSH1 0x4 DUP1 CALLDATASIZE SUB DUP2 ADD SWAP1 PUSH2 0x24D SWAP2 SWAP1 PUSH2 0xD29 JUMP JUMPDEST PUSH2 0x6DF JUMP JUMPDEST STOP JUMPDEST PUSH1 0x1 PUSH1 0x20 MSTORE DUP2 PUSH0 MSTORE PUSH1 0x40 PUSH0 KECCAK256 DUP2 DUP2 SLOAD DUP2 LT PUSH2 0x26D JUMPI PUSH0 DUP1 REVERT JUMPDEST SWAP1 PUSH0 MSTORE PUSH1 0x20 PUSH0 KECCAK256 ADD PUSH0 SWAP2 POP SWAP2 POP POP SLOAD DUP2 JUMP JUMPDEST PUSH1 0x3 PUSH1 0x20 MSTORE DUP2 PUSH0 MSTORE PUSH1 0x40 PUSH0 KECCAK256 PUSH1 0x20 MSTORE DUP1 PUSH0 MSTORE PUSH1 0x40 PUSH0 KECCAK256 PUSH0 SWAP2 POP SWAP2 POP SWAP1 SLOAD SWAP1 PUSH2 0x100 EXP SWAP1 DIV PUSH1 0xFF AND DUP2 JUMP JUMPDEST PUSH1 0x2 PUSH1 0x20 MSTORE DUP2 PUSH0 MSTORE PUSH1 0x40 PUSH0 KECCAK256 DUP2 DUP2 SLOAD DUP2 LT PUSH2 0x2C2 JUMPI PUSH0 DUP1 REVERT JUMPDEST SWAP1 PUSH0 MSTORE PUSH1 0x20 PUSH0 KECCAK256 SWAP1 PUSH1 0x5 MUL ADD PUSH0 SWAP2 POP SWAP2 POP POP DUP1 PUSH0 ADD SLOAD SWAP1 DUP1 PUSH1 0x1 ADD DUP1 SLOAD PUSH2 0x2E8 SWAP1 PUSH2 0xD9D JUMP JUMPDEST DUP1 PUSH1 0x1F ADD PUSH1 0x20 DUP1 SWAP2 DIV MUL PUSH1 0x20 ADD PUSH1 0x40 MLOAD SWAP1 DUP2 ADD PUSH1 0x40 MSTORE DUP1 SWAP3 SWAP2 SWAP1 DUP2 DUP2 MSTORE PUSH1 0x20 ADD DUP3 DUP1 SLOAD PUSH2 0x314 SWAP1 PUSH2 0xD9D JUMP JUMPDEST DUP1 ISZERO PUSH2 0x35F JUMPI DUP1 PUSH1 0x1F LT PUSH2 0x336 JUMPI PUSH2 0x100 DUP1 DUP4 SLOAD DIV MUL DUP4 MSTORE SWAP2 PUSH1 0x20 ADD SWAP2 PUSH2 0x35F JUMP JUMPDEST DUP3 ADD SWAP2 SWAP1 PUSH0 MSTORE PUSH1 0x20 PUSH0 KECCAK256 SWAP1 JUMPDEST DUP2 SLOAD DUP2 MSTORE SWAP1 PUSH1 0x1 ADD SWAP1 PUSH1 0x20 ADD DUP1 DUP4 GT PUSH2 0x342 JUMPI DUP3 SWAP1 SUB PUSH1 0x1F AND DUP3 ADD SWAP2 JUMPDEST POP POP POP POP POP SWAP1 DUP1 PUSH1 0x2 ADD PUSH0 SWAP1 SLOAD SWAP1 PUSH2 0x100 EXP SWAP1 DIV PUSH20 0xFFFFFFFFFFFFFFFFFFFFFFFFFFFFFFFFFFFFFFFF AND SWAP1 DUP1 PUSH1 0x3 ADD PUSH0 SWAP1 SLOAD SWAP1 PUSH2 0x100 EXP SWAP1 DIV PUSH20 0xFFFFFFFFFFFFFFFFFFFFFFFFFFFFFFFFFFFFFFFF AND SWAP1 DUP1 PUSH1 0x4 ADD SLOAD SWAP1 POP DUP6 JUMP JUMPDEST PUSH1 0x5 PUSH0 SWAP1 SLOAD SWAP1 PUSH2 0x100 EXP SWAP1 DIV PUSH20 0xFFFFFFFFFFFFFFFFFFFFFFFFFFFFFFFFFFFFFFFF AND DUP2 JUMP JUMPDEST PUSH1 0x4 PUSH1 0x20 MSTORE DUP2 PUSH0 MSTORE PUSH1 0x40 PUSH0 KECCAK256 DUP2 DUP2 SLOAD DUP2 LT PUSH2 0x3F7 JUMPI PUSH0 DUP1 REVERT JUMPDEST SWAP1 PUSH0 MSTORE PUSH1 0x20 PUSH0 KECCAK256 ADD PUSH0 SWAP2 POP SWAP2 POP SWAP1 SLOAD SWAP1 PUSH2 0x100 EXP SWAP1 DIV PUSH20 0xFFFFFFFFFFFFFFFFFFFFFFFFFFFFFFFFFFFFFFFF AND DUP2 JUMP JUMPDEST PUSH1 0x9 DUP2 DUP2 SLOAD DUP2 LT PUSH2 0x435 JUMPI PUSH0 DUP1 REVERT JUMPDEST SWAP1 PUSH0 MSTORE PUSH1 0x20 PUSH0 KECCAK256 SWAP1 PUSH1 0x5 MUL ADD PUSH0 SWAP2 POP SWAP1 POP DUP1 PUSH0 ADD SLOAD SWAP1 DUP1 PUSH1 0x1 ADD DUP1 SLOAD PUSH2 0x45A SWAP1 PUSH2 0xD9D JUMP JUMPDEST DUP1 PUSH1 0x1F ADD PUSH1 0x20 DUP1 SWAP2 DIV MUL PUSH1 0x20 ADD PUSH1 0x40 MLOAD SWAP1 DUP2 ADD PUSH1 0x40 MSTORE DUP1 SWAP3 SWAP2 SWAP1 DUP2 DUP2 MSTORE PUSH1 0x20 ADD DUP3 DUP1 SLOAD PUSH2 0x486 SWAP1 PUSH2 0xD9D JUMP JUMPDEST DUP1 ISZERO PUSH2 0x4D1 JUMPI DUP1 PUSH1 0x1F LT PUSH2 0x4A8 JUMPI PUSH2 0x100 DUP1 DUP4 SLOAD DIV MUL DUP4 MSTORE SWAP2 PUSH1 0x20 ADD SWAP2 PUSH2 0x4D1 JUMP JUMPDEST DUP3 ADD SWAP2 SWAP1 PUSH0 MSTORE PUSH1 0x20 PUSH0 KECCAK256 SWAP1 JUMPDEST DUP2 SLOAD DUP2 MSTORE SWAP1 PUSH1 0x1 ADD SWAP1 PUSH1 0x20 ADD DUP1 DUP4 GT PUSH2 0x4B4 JUMPI DUP3 SWAP1 SUB PUSH1 0x1F AND DUP3 ADD SWAP2 JUMPDEST POP POP POP POP POP SWAP1 DUP1 PUSH1 0x2 ADD PUSH0 SWAP1 SLOAD SWAP1 PUSH2 0x100 EXP SWAP1 DIV PUSH20 0xFFFFFFFFFFFFFFFFFFFFFFFFFFFFFFFFFFFFFFFF AND SWAP1 DUP1 PUSH1 0x3 ADD PUSH0 SWAP1 SLOAD SWAP1 PUSH2 0x100 EXP SWAP1 DIV PUSH20 0xFFFFFFFFFFFFFFFFFFFFFFFFFFFFFFFFFFFFFFFF AND SWAP1 DUP1 PUSH1 0x4 ADD SLOAD SWAP1 POP DUP6 JUMP JUMPDEST POP POP JUMP JUMPDEST PUSH1 0x8 DUP2 DUP2 SLOAD DUP2 LT PUSH2 0x53E JUMPI PUSH0 DUP1 REVERT JUMPDEST SWAP1 PUSH0 MSTORE PUSH1 0x20 PUSH0 KECCAK256 SWAP1 PUSH1 0x4 MUL ADD PUSH0 SWAP2 POP SWAP1 POP DUP1 PUSH0 ADD SLOAD SWAP1 DUP1 PUSH1 0x1 ADD PUSH0 SWAP1 SLOAD SWAP1 PUSH2 0x100 EXP SWAP1 DIV PUSH20 0xFFFFFFFFFFFFFFFFFFFFFFFFFFFFFFFFFFFFFFFF AND SWAP1 DUP1 PUSH1 0x2 ADD DUP1 SLOAD PUSH2 0x588 SWAP1 PUSH2 0xD9D JUMP JUMPDEST DUP1 PUSH1 0x1F ADD PUSH1 0x20 DUP1 SWAP2 DIV MUL PUSH1 0x20 ADD PUSH1 0x40 MLOAD SWAP1 DUP2 ADD PUSH1 0x40 MSTORE DUP1 SWAP3 SWAP2 SWAP1 DUP2 DUP2 MSTORE PUSH1 0x20 ADD DUP3 DUP1 SLOAD PUSH2 0x5B4 SWAP1 PUSH2 0xD9D JUMP JUMPDEST DUP1 ISZERO PUSH2 0x5FF JUMPI DUP1 PUSH1 0x1F LT PUSH2 0x5D6 JUMPI PUSH2 0x100 DUP1 DUP4 SLOAD DIV MUL DUP4 MSTORE SWAP2 PUSH1 0x20 ADD SWAP2 PUSH2 0x5FF JUMP JUMPDEST DUP3 ADD SWAP2 SWAP1 PUSH0 MSTORE PUSH1 0x20 PUSH0 KECCAK256 SWAP1 JUMPDEST DUP2 SLOAD DUP2 MSTORE SWAP1 PUSH1 0x1 ADD SWAP1 PUSH1 0x20 ADD DUP1 DUP4 GT PUSH2 0x5E2 JUMPI DUP3 SWAP1 SUB PUSH1 0x1F AND DUP3 ADD SWAP2 JUMPDEST POP POP POP POP POP SWAP1 DUP1 PUSH1 0x3 ADD SLOAD SWAP1 POP DUP5 JUMP JUMPDEST PUSH0 PUSH1 0x20 MSTORE DUP1 PUSH0 MSTORE PUSH1 0x40 PUSH0 KECCAK256 PUSH0 SWAP2 POP SWAP1 POP DUP1 PUSH0 ADD SLOAD SWAP1 DUP1 PUSH1 0x1 ADD PUSH0 SWAP1 SLOAD SWAP1 PUSH2 0x100 EXP SWAP1 DIV PUSH20 0xFFFFFFFFFFFFFFFFFFFFFFFFFFFFFFFFFFFFFFFF AND SWAP1 DUP1 PUSH1 0x2 ADD DUP1 SLOAD PUSH2 0x658 SWAP1 PUSH2 0xD9D JUMP JUMPDEST DUP1 PUSH1 0x1F ADD PUSH1 0x20 DUP1 SWAP2 DIV MUL PUSH1 0x20 ADD PUSH1 0x40 MLOAD SWAP1 DUP2 ADD PUSH1 0x40 MSTORE DUP1 SWAP3 SWAP2 SWAP1 DUP2 DUP2 MSTORE PUSH1 0x20 ADD DUP3 DUP1 SLOAD PUSH2 0x684 SWAP1 PUSH2 0xD9D JUMP JUMPDEST DUP1 ISZERO PUSH2 0x6CF JUMPI DUP1 PUSH1 0x1F LT PUSH2 0x6A6 JUMPI PUSH2 0x100 DUP1 DUP4 SLOAD DIV MUL DUP4 MSTORE SWAP2 PUSH1 0x20 ADD SWAP2 PUSH2 0x6CF JUMP JUMPDEST DUP3 ADD SWAP2 SWAP1 PUSH0 MSTORE PUSH1 0x20 PUSH0 KECCAK256 SWAP1 JUMPDEST DUP2 SLOAD DUP2 MSTORE SWAP1 PUSH1 0x1 ADD SWAP1 PUSH1 0x20 ADD DUP1 DUP4 GT PUSH2 0x6B2 JUMPI DUP3 SWAP1 SUB PUSH1 0x1F AND DUP3 ADD SWAP2 JUMPDEST POP POP POP POP POP SWAP1 DUP1 PUSH1 0x3 ADD SLOAD SWAP1 POP DUP5 JUMP JUMPDEST PUSH2 0x6E9 CALLER DUP3 PUSH2 0x6EC JUMP JUMPDEST POP JUMP JUMPDEST PUSH1 0x40 MLOAD DUP1 PUSH1 0x80 ADD PUSH1 0x40 MSTORE DUP1 PUSH1 0x6 SLOAD DUP2 MSTORE PUSH1 0x20 ADD DUP4 PUSH20 0xFFFFFFFFFFFFFFFFFFFFFFFFFFFFFFFFFFFFFFFF AND DUP2 MSTORE PUSH1 0x20 ADD DUP3 DUP2 MSTORE PUSH1 0x20 ADD TIMESTAMP DUP2 MSTORE POP PUSH0 PUSH0 PUSH1 0x6 SLOAD DUP2 MSTORE PUSH1 0x20 ADD SWAP1 DUP2 MSTORE PUSH1 0x20 ADD PUSH0 KECCAK256 PUSH0 DUP3 ADD MLOAD DUP2 PUSH0 ADD SSTORE PUSH1 0x20 DUP3 ADD MLOAD DUP2 PUSH1 0x1 ADD PUSH0 PUSH2 0x100 EXP DUP2 SLOAD DUP2 PUSH20 0xFFFFFFFFFFFFFFFFFFFFFFFFFFFFFFFFFFFFFFFF MUL NOT AND SWAP1 DUP4 PUSH20 0xFFFFFFFFFFFFFFFFFFFFFFFFFFFFFFFFFFFFFFFF AND MUL OR SWAP1 SSTORE POP PUSH1 0x40 DUP3 ADD MLOAD DUP2 PUSH1 0x2 ADD SWAP1 DUP2 PUSH2 0x79A SWAP2 SWAP1 PUSH2 0xF6D JUMP JUMPDEST POP PUSH1 0x60 DUP3 ADD MLOAD DUP2 PUSH1 0x3 ADD SSTORE SWAP1 POP POP PUSH1 0x8 PUSH0 PUSH0 PUSH1 0x6 SLOAD DUP2 MSTORE PUSH1 0x20 ADD SWAP1 DUP2 MSTORE PUSH1 0x20 ADD PUSH0 KECCAK256 SWAP1 DUP1 PUSH1 0x1 DUP2 SLOAD ADD DUP1 DUP3 SSTORE DUP1 SWAP2 POP POP PUSH1 0x1 SWAP1 SUB SWAP1 PUSH0 MSTORE PUSH1 0x20 PUSH0 KECCAK256 SWAP1 PUSH1 0x4 MUL ADD PUSH0 SWAP1 SWAP2 SWAP1 SWAP2 SWAP1 SWAP2 POP PUSH0 DUP3 ADD SLOAD DUP2 PUSH0 ADD SSTORE PUSH1 0x1 DUP3 ADD PUSH0 SWAP1 SLOAD SWAP1 PUSH2 0x100 EXP SWAP1 DIV PUSH20 0xFFFFFFFFFFFFFFFFFFFFFFFFFFFFFFFFFFFFFFFF AND DUP2 PUSH1 0x1 ADD PUSH0 PUSH2 0x100 EXP DUP2 SLOAD DUP2 PUSH20 0xFFFFFFFFFFFFFFFFFFFFFFFFFFFFFFFFFFFFFFFF MUL NOT AND SWAP1 DUP4 PUSH20 0xFFFFFFFFFFFFFFFFFFFFFFFFFFFFFFFFFFFFFFFF AND MUL OR SWAP1 SSTORE POP PUSH1 0x2 DUP3 ADD DUP2 PUSH1 0x2 ADD SWAP1 DUP2 PUSH2 0x863 SWAP2 SWAP1 PUSH2 0x1051 JUMP JUMPDEST POP PUSH1 0x3 DUP3 ADD SLOAD DUP2 PUSH1 0x3 ADD SSTORE POP POP PUSH1 0x6 PUSH0 DUP2 SLOAD DUP1 SWAP3 SWAP2 SWAP1 PUSH2 0x882 SWAP1 PUSH2 0x1163 JUMP JUMPDEST SWAP2 SWAP1 POP SSTORE POP POP POP JUMP JUMPDEST PUSH0 PUSH1 0x40 MLOAD SWAP1 POP SWAP1 JUMP JUMPDEST PUSH0 PUSH0 REVERT JUMPDEST PUSH0 PUSH0 REVERT JUMPDEST PUSH0 DUP2 SWAP1 POP SWAP2 SWAP1 POP JUMP JUMPDEST PUSH2 0x8AE DUP2 PUSH2 0x89C JUMP JUMPDEST DUP2 EQ PUSH2 0x8B8 JUMPI PUSH0 PUSH0 REVERT JUMPDEST POP JUMP JUMPDEST PUSH0 DUP2 CALLDATALOAD SWAP1 POP PUSH2 0x8C9 DUP2 PUSH2 0x8A5 JUMP JUMPDEST SWAP3 SWAP2 POP POP JUMP JUMPDEST PUSH0 PUSH0 PUSH1 0x40 DUP4 DUP6 SUB SLT ISZERO PUSH2 0x8E5 JUMPI PUSH2 0x8E4 PUSH2 0x894 JUMP JUMPDEST JUMPDEST PUSH0 PUSH2 0x8F2 DUP6 DUP3 DUP7 ADD PUSH2 0x8BB JUMP JUMPDEST SWAP3 POP POP PUSH1 0x20 PUSH2 0x903 DUP6 DUP3 DUP7 ADD PUSH2 0x8BB JUMP JUMPDEST SWAP2 POP POP SWAP3 POP SWAP3 SWAP1 POP JUMP JUMPDEST PUSH2 0x916 DUP2 PUSH2 0x89C JUMP JUMPDEST DUP3 MSTORE POP POP JUMP JUMPDEST PUSH0 PUSH1 0x20 DUP3 ADD SWAP1 POP PUSH2 0x92F PUSH0 DUP4 ADD DUP5 PUSH2 0x90D JUMP JUMPDEST SWAP3 SWAP2 POP POP JUMP JUMPDEST PUSH0 PUSH20 0xFFFFFFFFFFFFFFFFFFFFFFFFFFFFFFFFFFFFFFFF DUP3 AND SWAP1 POP SWAP2 SWAP1 POP JUMP JUMPDEST PUSH0 PUSH2 0x95E DUP3 PUSH2 0x935 JUMP JUMPDEST SWAP1 POP SWAP2 SWAP1 POP JUMP JUMPDEST PUSH2 0x96E DUP2 PUSH2 0x954 JUMP JUMPDEST DUP2 EQ PUSH2 0x978 JUMPI PUSH0 PUSH0 REVERT JUMPDEST POP JUMP JUMPDEST PUSH0 DUP2 CALLDATALOAD SWAP1 POP PUSH2 0x989 DUP2 PUSH2 0x965 JUMP JUMPDEST SWAP3 SWAP2 POP POP JUMP JUMPDEST PUSH0 PUSH0 PUSH1 0x40 DUP4 DUP6 SUB SLT ISZERO PUSH2 0x9A5 JUMPI PUSH2 0x9A4 PUSH2 0x894 JUMP JUMPDEST JUMPDEST PUSH0 PUSH2 0x9B2 DUP6 DUP3 DUP7 ADD PUSH2 0x97B JUMP JUMPDEST SWAP3 POP POP PUSH1 0x20 PUSH2 0x9C3 DUP6 DUP3 DUP7 ADD PUSH2 0x97B JUMP JUMPDEST SWAP2 POP POP SWAP3 POP SWAP3 SWAP1 POP JUMP JUMPDEST PUSH0 DUP2 ISZERO ISZERO SWAP1 POP SWAP2 SWAP1 POP JUMP JUMPDEST PUSH2 0x9E1 DUP2 PUSH2 0x9CD JUMP JUMPDEST DUP3 MSTORE POP POP JUMP JUMPDEST PUSH0 PUSH1 0x20 DUP3 ADD SWAP1 POP PUSH2 0x9FA PUSH0 DUP4 ADD DUP5 PUSH2 0x9D8 JUMP JUMPDEST SWAP3 SWAP2 POP POP JUMP JUMPDEST PUSH0 PUSH0 PUSH1 0x40 DUP4 DUP6 SUB SLT ISZERO PUSH2 0xA16 JUMPI PUSH2 0xA15 PUSH2 0x894 JUMP JUMPDEST JUMPDEST PUSH0 PUSH2 0xA23 DUP6 DUP3 DUP7 ADD PUSH2 0x97B JUMP JUMPDEST SWAP3 POP POP PUSH1 0x20 PUSH2 0xA34 DUP6 DUP3 DUP7 ADD PUSH2 0x8BB JUMP JUMPDEST SWAP2 POP POP SWAP3 POP SWAP3 SWAP1 POP JUMP JUMPDEST PUSH0 DUP2 MLOAD SWAP1 POP SWAP2 SWAP1 POP JUMP JUMPDEST PUSH0 DUP3 DUP3 MSTORE PUSH1 0x20 DUP3 ADD SWAP1 POP SWAP3 SWAP2 POP POP JUMP JUMPDEST DUP3 DUP2 DUP4 MCOPY PUSH0 DUP4 DUP4 ADD MSTORE POP POP POP JUMP JUMPDEST PUSH0 PUSH1 0x1F NOT PUSH1 0x1F DUP4 ADD AND SWAP1 POP SWAP2 SWAP1 POP JUMP JUMPDEST PUSH0 PUSH2 0xA80 DUP3 PUSH2 0xA3E JUMP JUMPDEST PUSH2 0xA8A DUP2 DUP6 PUSH2 0xA48 JUMP JUMPDEST SWAP4 POP PUSH2 0xA9A DUP2 DUP6 PUSH1 0x20 DUP7 ADD PUSH2 0xA58 JUMP JUMPDEST PUSH2 0xAA3 DUP2 PUSH2 0xA66 JUMP JUMPDEST DUP5 ADD SWAP2 POP POP SWAP3 SWAP2 POP POP JUMP JUMPDEST PUSH2 0xAB7 DUP2 PUSH2 0x954 JUMP JUMPDEST DUP3 MSTORE POP POP JUMP JUMPDEST PUSH0 PUSH1 0xA0 DUP3 ADD SWAP1 POP PUSH2 0xAD0 PUSH0 DUP4 ADD DUP9 PUSH2 0x90D JUMP JUMPDEST DUP2 DUP2 SUB PUSH1 0x20 DUP4 ADD MSTORE PUSH2 0xAE2 DUP2 DUP8 PUSH2 0xA76 JUMP JUMPDEST SWAP1 POP PUSH2 0xAF1 PUSH1 0x40 DUP4 ADD DUP7 PUSH2 0xAAE JUMP JUMPDEST PUSH2 0xAFE PUSH1 0x60 DUP4 ADD DUP6 PUSH2 0xAAE JUMP JUMPDEST PUSH2 0xB0B PUSH1 0x80 DUP4 ADD DUP5 PUSH2 0x90D JUMP JUMPDEST SWAP7 SWAP6 POP POP POP POP POP POP JUMP JUMPDEST PUSH0 PUSH1 0x20 DUP3 ADD SWAP1 POP PUSH2 0xB28 PUSH0 DUP4 ADD DUP5 PUSH2 0xAAE JUMP JUMPDEST SWAP3 SWAP2 POP POP JUMP JUMPDEST PUSH0 PUSH1 0x20 DUP3 DUP5 SUB SLT ISZERO PUSH2 0xB43 JUMPI PUSH2 0xB42 PUSH2 0x894 JUMP JUMPDEST JUMPDEST PUSH0 PUSH2 0xB50 DUP5 DUP3 DUP6 ADD PUSH2 0x8BB JUMP JUMPDEST SWAP2 POP POP SWAP3 SWAP2 POP POP JUMP JUMPDEST PUSH0 PUSH0 REVERT JUMPDEST PUSH0 PUSH0 REVERT JUMPDEST PUSH32 0x4E487B7100000000000000000000000000000000000000000000000000000000 PUSH0 MSTORE PUSH1 0x41 PUSH1 0x4 MSTORE PUSH1 0x24 PUSH0 REVERT JUMPDEST PUSH2 0xB97 DUP3 PUSH2 0xA66 JUMP JUMPDEST DUP2 ADD DUP2 DUP2 LT PUSH8 0xFFFFFFFFFFFFFFFF DUP3 GT OR ISZERO PUSH2 0xBB6 JUMPI PUSH2 0xBB5 PUSH2 0xB61 JUMP JUMPDEST JUMPDEST DUP1 PUSH1 0x40 MSTORE POP POP POP JUMP JUMPDEST PUSH0 PUSH2 0xBC8 PUSH2 0x88B JUMP JUMPDEST SWAP1 POP PUSH2 0xBD4 DUP3 DUP3 PUSH2 0xB8E JUMP JUMPDEST SWAP2 SWAP1 POP JUMP JUMPDEST PUSH0 PUSH8 0xFFFFFFFFFFFFFFFF DUP3 GT ISZERO PUSH2 0xBF3 JUMPI PUSH2 0xBF2 PUSH2 0xB61 JUMP JUMPDEST JUMPDEST PUSH2 0xBFC DUP3 PUSH2 0xA66 JUMP JUMPDEST SWAP1 POP PUSH1 0x20 DUP2 ADD SWAP1 POP SWAP2 SWAP1 POP JUMP JUMPDEST DUP3 DUP2 DUP4 CALLDATACOPY PUSH0 DUP4 DUP4 ADD MSTORE POP POP POP JUMP JUMPDEST PUSH0 PUSH2 0xC29 PUSH2 0xC24 DUP5 PUSH2 0xBD9 JUMP JUMPDEST PUSH2 0xBBF JUMP JUMPDEST SWAP1 POP DUP3 DUP2 MSTORE PUSH1 0x20 DUP2 ADD DUP5 DUP5 DUP5 ADD GT ISZERO PUSH2 0xC45 JUMPI PUSH2 0xC44 PUSH2 0xB5D JUMP JUMPDEST JUMPDEST PUSH2 0xC50 DUP5 DUP3 DUP6 PUSH2 0xC09 JUMP JUMPDEST POP SWAP4 SWAP3 POP POP POP JUMP JUMPDEST PUSH0 DUP3 PUSH1 0x1F DUP4 ADD SLT PUSH2 0xC6C JUMPI PUSH2 0xC6B PUSH2 0xB59 JUMP JUMPDEST JUMPDEST DUP2 CALLDATALOAD PUSH2 0xC7C DUP5 DUP3 PUSH1 0x20 DUP7 ADD PUSH2 0xC17 JUMP JUMPDEST SWAP2 POP POP SWAP3 SWAP2 POP POP JUMP JUMPDEST PUSH0 PUSH0 PUSH1 0x40 DUP4 DUP6 SUB SLT ISZERO PUSH2 0xC9B JUMPI PUSH2 0xC9A PUSH2 0x894 JUMP JUMPDEST JUMPDEST PUSH0 PUSH2 0xCA8 DUP6 DUP3 DUP7 ADD PUSH2 0x97B JUMP JUMPDEST SWAP3 POP POP PUSH1 0x20 DUP4 ADD CALLDATALOAD PUSH8 0xFFFFFFFFFFFFFFFF DUP2 GT ISZERO PUSH2 0xCC9 JUMPI PUSH2 0xCC8 PUSH2 0x898 JUMP JUMPDEST JUMPDEST PUSH2 0xCD5 DUP6 DUP3 DUP7 ADD PUSH2 0xC58 JUMP JUMPDEST SWAP2 POP POP SWAP3 POP SWAP3 SWAP1 POP JUMP JUMPDEST PUSH0 PUSH1 0x80 DUP3 ADD SWAP1 POP PUSH2 0xCF2 PUSH0 DUP4 ADD DUP8 PUSH2 0x90D JUMP JUMPDEST PUSH2 0xCFF PUSH1 0x20 DUP4 ADD DUP7 PUSH2 0xAAE JUMP JUMPDEST DUP2 DUP2 SUB PUSH1 0x40 DUP4 ADD MSTORE PUSH2 0xD11 DUP2 DUP6 PUSH2 0xA76 JUMP JUMPDEST SWAP1 POP PUSH2 0xD20 PUSH1 0x60 DUP4 ADD DUP5 PUSH2 0x90D JUMP JUMPDEST SWAP6 SWAP5 POP POP POP POP POP JUMP JUMPDEST PUSH0 PUSH1 0x20 DUP3 DUP5 SUB SLT ISZERO PUSH2 0xD3E JUMPI PUSH2 0xD3D PUSH2 0x894 JUMP JUMPDEST JUMPDEST PUSH0 DUP3 ADD CALLDATALOAD PUSH8 0xFFFFFFFFFFFFFFFF DUP2 GT ISZERO PUSH2 0xD5B JUMPI PUSH2 0xD5A PUSH2 0x898 JUMP JUMPDEST JUMPDEST PUSH2 0xD67 DUP5 DUP3 DUP6 ADD PUSH2 0xC58 JUMP JUMPDEST SWAP2 POP POP SWAP3 SWAP2 POP POP JUMP JUMPDEST PUSH32 0x4E487B7100000000000000000000000000000000000000000000000000000000 PUSH0 MSTORE PUSH1 0x22 PUSH1 0x4 MSTORE PUSH1 0x24 PUSH0 REVERT JUMPDEST PUSH0 PUSH1 0x2 DUP3 DIV SWAP1 POP PUSH1 0x1 DUP3 AND DUP1 PUSH2 0xDB4 JUMPI PUSH1 0x7F DUP3 AND SWAP2 POP JUMPDEST PUSH1 0x20 DUP3 LT DUP2 SUB PUSH2 0xDC7 JUMPI PUSH2 0xDC6 PUSH2 0xD70 JUMP JUMPDEST JUMPDEST POP SWAP2 SWAP1 POP JUMP JUMPDEST PUSH0 DUP2 SWAP1 POP DUP2 PUSH0 MSTORE PUSH1 0x20 PUSH0 KECCAK256 SWAP1 POP SWAP2 SWAP1 POP JUMP JUMPDEST PUSH0 PUSH1 0x20 PUSH1 0x1F DUP4 ADD DIV SWAP1 POP SWAP2 SWAP1 POP JUMP JUMPDEST PUSH0 DUP3 DUP3 SHL SWAP1 POP SWAP3 SWAP2 POP POP JUMP JUMPDEST PUSH0 PUSH1 0x8 DUP4 MUL PUSH2 0xE29 PUSH32 0xFFFFFFFFFFFFFFFFFFFFFFFFFFFFFFFFFFFFFFFFFFFFFFFFFFFFFFFFFFFFFFFF DUP3 PUSH2 0xDEE JUMP JUMPDEST PUSH2 0xE33 DUP7 DUP4 PUSH2 0xDEE JUMP JUMPDEST SWAP6 POP DUP1 NOT DUP5 AND SWAP4 POP DUP1 DUP7 AND DUP5 OR SWAP3 POP POP POP SWAP4 SWAP3 POP POP POP JUMP JUMPDEST PUSH0 DUP2 SWAP1 POP SWAP2 SWAP1 POP JUMP JUMPDEST PUSH0 PUSH2 0xE6E PUSH2 0xE69 PUSH2 0xE64 DUP5 PUSH2 0x89C JUMP JUMPDEST PUSH2 0xE4B JUMP JUMPDEST PUSH2 0x89C JUMP JUMPDEST SWAP1 POP SWAP2 SWAP1 POP JUMP JUMPDEST PUSH0 DUP2 SWAP1 POP SWAP2 SWAP1 POP JUMP JUMPDEST PUSH2 0xE87 DUP4 PUSH2 0xE54 JUMP JUMPDEST PUSH2 0xE9B PUSH2 0xE93 DUP3 PUSH2 0xE75 JUMP JUMPDEST DUP5 DUP5 SLOAD PUSH2 0xDFA JUMP JUMPDEST DUP3 SSTORE POP POP POP POP JUMP JUMPDEST PUSH0 PUSH0 SWAP1 POP SWAP1 JUMP JUMPDEST PUSH2 0xEB2 PUSH2 0xEA3 JUMP JUMPDEST PUSH2 0xEBD DUP2 DUP5 DUP5 PUSH2 0xE7E JUMP JUMPDEST POP POP POP JUMP JUMPDEST JUMPDEST DUP2 DUP2 LT ISZERO PUSH2 0xEE0 JUMPI PUSH2 0xED5 PUSH0 DUP3 PUSH2 0xEAA JUMP JUMPDEST PUSH1 0x1 DUP2 ADD SWAP1 POP PUSH2 0xEC3 JUMP JUMPDEST POP POP JUMP JUMPDEST PUSH1 0x1F DUP3 GT ISZERO PUSH2 0xF25 JUMPI PUSH2 0xEF6 DUP2 PUSH2 0xDCD JUMP JUMPDEST PUSH2 0xEFF DUP5 PUSH2 0xDDF JUMP JUMPDEST DUP2 ADD PUSH1 0x20 DUP6 LT ISZERO PUSH2 0xF0E JUMPI DUP2 SWAP1 POP JUMPDEST PUSH2 0xF22 PUSH2 0xF1A DUP6 PUSH2 0xDDF JUMP JUMPDEST DUP4 ADD DUP3 PUSH2 0xEC2 JUMP JUMPDEST POP POP JUMPDEST POP POP POP JUMP JUMPDEST PUSH0 DUP3 DUP3 SHR SWAP1 POP SWAP3 SWAP2 POP POP JUMP JUMPDEST PUSH0 PUSH2 0xF45 PUSH0 NOT DUP5 PUSH1 0x8 MUL PUSH2 0xF2A JUMP JUMPDEST NOT DUP1 DUP4 AND SWAP2 POP POP SWAP3 SWAP2 POP POP JUMP JUMPDEST PUSH0 PUSH2 0xF5D DUP4 DUP4 PUSH2 0xF36 JUMP JUMPDEST SWAP2 POP DUP3 PUSH1 0x2 MUL DUP3 OR SWAP1 POP SWAP3 SWAP2 POP POP JUMP JUMPDEST PUSH2 0xF76 DUP3 PUSH2 0xA3E JUMP JUMPDEST PUSH8 0xFFFFFFFFFFFFFFFF DUP2 GT ISZERO PUSH2 0xF8F JUMPI PUSH2 0xF8E PUSH2 0xB61 JUMP JUMPDEST JUMPDEST PUSH2 0xF99 DUP3 SLOAD PUSH2 0xD9D JUMP JUMPDEST PUSH2 0xFA4 DUP3 DUP3 DUP6 PUSH2 0xEE4 JUMP JUMPDEST PUSH0 PUSH1 0x20 SWAP1 POP PUSH1 0x1F DUP4 GT PUSH1 0x1 DUP2 EQ PUSH2 0xFD5 JUMPI PUSH0 DUP5 ISZERO PUSH2 0xFC3 JUMPI DUP3 DUP8 ADD MLOAD SWAP1 POP JUMPDEST PUSH2 0xFCD DUP6 DUP3 PUSH2 0xF52 JUMP JUMPDEST DUP7 SSTORE POP PUSH2 0x1034 JUMP JUMPDEST PUSH1 0x1F NOT DUP5 AND PUSH2 0xFE3 DUP7 PUSH2 0xDCD JUMP JUMPDEST PUSH0 JUMPDEST DUP3 DUP2 LT ISZERO PUSH2 0x100A JUMPI DUP5 DUP10 ADD MLOAD DUP3 SSTORE PUSH1 0x1 DUP3 ADD SWAP2 POP PUSH1 0x20 DUP6 ADD SWAP5 POP PUSH1 0x20 DUP2 ADD SWAP1 POP PUSH2 0xFE5 JUMP JUMPDEST DUP7 DUP4 LT ISZERO PUSH2 0x1027 JUMPI DUP5 DUP10 ADD MLOAD PUSH2 0x1023 PUSH1 0x1F DUP10 AND DUP3 PUSH2 0xF36 JUMP JUMPDEST DUP4 SSTORE POP JUMPDEST PUSH1 0x1 PUSH1 0x2 DUP9 MUL ADD DUP9 SSTORE POP POP POP JUMPDEST POP POP POP POP POP POP JUMP JUMPDEST PUSH0 DUP2 SLOAD SWAP1 POP PUSH2 0x104A DUP2 PUSH2 0xD9D JUMP JUMPDEST SWAP1 POP SWAP2 SWAP1 POP JUMP JUMPDEST DUP2 DUP2 SUB PUSH2 0x105F JUMPI POP POP PUSH2 0x1134 JUMP JUMPDEST PUSH2 0x1068 DUP3 PUSH2 0x103C JUMP JUMPDEST PUSH8 0xFFFFFFFFFFFFFFFF DUP2 GT ISZERO PUSH2 0x1081 JUMPI PUSH2 0x1080 PUSH2 0xB61 JUMP JUMPDEST JUMPDEST PUSH2 0x108B DUP3 SLOAD PUSH2 0xD9D JUMP JUMPDEST PUSH2 0x1096 DUP3 DUP3 DUP6 PUSH2 0xEE4 JUMP JUMPDEST PUSH0 PUSH1 0x1F DUP4 GT PUSH1 0x1 DUP2 EQ PUSH2 0x10C3 JUMPI PUSH0 DUP5 ISZERO PUSH2 0x10B1 JUMPI DUP3 DUP8 ADD SLOAD SWAP1 POP JUMPDEST PUSH2 0x10BB DUP6 DUP3 PUSH2 0xF52 JUMP JUMPDEST DUP7 SSTORE POP PUSH2 0x112D JUMP JUMPDEST PUSH1 0x1F NOT DUP5 AND PUSH2 0x10D1 DUP8 PUSH2 0xDCD JUMP JUMPDEST SWAP7 POP PUSH2 0x10DC DUP7 PUSH2 0xDCD JUMP JUMPDEST PUSH0 JUMPDEST DUP3 DUP2 LT ISZERO PUSH2 0x1103 JUMPI DUP5 DUP10 ADD SLOAD DUP3 SSTORE PUSH1 0x1 DUP3 ADD SWAP2 POP PUSH1 0x1 DUP6 ADD SWAP5 POP PUSH1 0x20 DUP2 ADD SWAP1 POP PUSH2 0x10DE JUMP JUMPDEST DUP7 DUP4 LT ISZERO PUSH2 0x1120 JUMPI DUP5 DUP10 ADD SLOAD PUSH2 0x111C PUSH1 0x1F DUP10 AND DUP3 PUSH2 0xF36 JUMP JUMPDEST DUP4 SSTORE POP JUMPDEST PUSH1 0x1 PUSH1 0x2 DUP9 MUL ADD DUP9 SSTORE POP POP POP JUMPDEST POP POP POP POP POP POP JUMPDEST JUMP JUMPDEST PUSH32 0x4E487B7100000000000000000000000000000000000000000000000000000000 PUSH0 MSTORE PUSH1 0x11 PUSH1 0x4 MSTORE PUSH1 0x24 PUSH0 REVERT JUMPDEST PUSH0 PUSH2 0x116D DUP3 PUSH2 0x89C JUMP JUMPDEST SWAP2 POP PUSH32 0xFFFFFFFFFFFFFFFFFFFFFFFFFFFFFFFFFFFFFFFFFFFFFFFFFFFFFFFFFFFFFFFF DUP3 SUB PUSH2 0x119F JUMPI PUSH2 0x119E PUSH2 0x1136 JUMP JUMPDEST JUMPDEST PUSH1 0x1 DUP3 ADD SWAP1 POP SWAP2 SWAP1 POP JUMP INVALID LOG2 PUSH5 0x6970667358 0x22 SLT KECCAK256 0xF ADDRESS LT 0xDF 0xC6 0xD8 RETF 0x24 CALLDATASIZE 0xB5 PUSH4 0x49D47F77 CHAINID PUSH6 0xE7BA46A87FFC 0xAF MUL 0xD4 0xDD GASLIMIT LT SWAPN 0x7 PUSH22 0x64736F6C634300081F00330000000000000000000000 "
				},
				"gasEstimates": {
					"creation": {
						"codeDepositCost": "915200",
						"executionCost": "35221",
						"totalCost": "950421"
					},
					"external": {
						"allMessages(uint256)": "infinite",
						"allTweets(uint256)": "infinite",
						"conversations(address,uint256)": "infinite",
						"following(address,uint256)": "infinite",
						"operators(address,address)": "infinite",
						"tweet(address,string)": "infinite",
						"tweet(string)": "infinite",
						"tweets(uint256)": "infinite",
						"tweetsOf(uint256,uint256)": "infinite",
						"user()": "2575"
					},
					"internal": {
						"_sendMessage(address,address,string memory)": "infinite",
						"_tweet(address,string memory)": "infinite"
					}
				},
				"methodIdentifiers": {
					"allMessages(uint256)": "9b88c806",
					"allTweets(uint256)": "e28350b7",
					"conversations(address,uint256)": "3befea09",
					"following(address,uint256)": "9139cda5",
					"operators(address,address)": "2637588e",
					"tweet(address,string)": "d21d1596",
					"tweet(string)": "fb46d4c5",
					"tweets(uint256)": "e8d857b0",
					"tweetsOf(uint256,uint256)": "14d648de",
					"user()": "4f8632ba"
				}
			},
			"storageLayout": {
				"storage": [
					{
						"astId": 26,
						"contract": "contracts/_Twitter.sol:Twitter",
						"label": "tweets",
						"offset": 0,
						"slot": "0",
						"type": "t_mapping(t_uint256,t_struct(Tweet)10_storage)"
					},
					{
						"astId": 31,
						"contract": "contracts/_Twitter.sol:Twitter",
						"label": "tweetsOf",
						"offset": 0,
						"slot": "1",
						"type": "t_mapping(t_uint256,t_array(t_uint256)dyn_storage)"
					},
					{
						"astId": 37,
						"contract": "contracts/_Twitter.sol:Twitter",
						"label": "conversations",
						"offset": 0,
						"slot": "2",
						"type": "t_mapping(t_address,t_array(t_struct(Message)21_storage)dyn_storage)"
					},
					{
						"astId": 43,
						"contract": "contracts/_Twitter.sol:Twitter",
						"label": "operators",
						"offset": 0,
						"slot": "3",
						"type": "t_mapping(t_address,t_mapping(t_address,t_bool))"
					},
					{
						"astId": 48,
						"contract": "contracts/_Twitter.sol:Twitter",
						"label": "following",
						"offset": 0,
						"slot": "4",
						"type": "t_mapping(t_address,t_array(t_address)dyn_storage)"
					},
					{
						"astId": 50,
						"contract": "contracts/_Twitter.sol:Twitter",
						"label": "user",
						"offset": 0,
						"slot": "5",
						"type": "t_address"
					},
					{
						"astId": 53,
						"contract": "contracts/_Twitter.sol:Twitter",
						"label": "nextTweetId",
						"offset": 0,
						"slot": "6",
						"type": "t_uint256"
					},
					{
						"astId": 56,
						"contract": "contracts/_Twitter.sol:Twitter",
						"label": "nextMessageId",
						"offset": 0,
						"slot": "7",
						"type": "t_uint256"
					},
					{
						"astId": 60,
						"contract": "contracts/_Twitter.sol:Twitter",
						"label": "allTweets",
						"offset": 0,
						"slot": "8",
						"type": "t_array(t_struct(Tweet)10_storage)dyn_storage"
					},
					{
						"astId": 64,
						"contract": "contracts/_Twitter.sol:Twitter",
						"label": "allMessages",
						"offset": 0,
						"slot": "9",
						"type": "t_array(t_struct(Message)21_storage)dyn_storage"
					}
				],
				"types": {
					"t_address": {
						"encoding": "inplace",
						"label": "address",
						"numberOfBytes": "20"
					},
					"t_array(t_address)dyn_storage": {
						"base": "t_address",
						"encoding": "dynamic_array",
						"label": "address[]",
						"numberOfBytes": "32"
					},
					"t_array(t_struct(Message)21_storage)dyn_storage": {
						"base": "t_struct(Message)21_storage",
						"encoding": "dynamic_array",
						"label": "struct Twitter.Message[]",
						"numberOfBytes": "32"
					},
					"t_array(t_struct(Tweet)10_storage)dyn_storage": {
						"base": "t_struct(Tweet)10_storage",
						"encoding": "dynamic_array",
						"label": "struct Twitter.Tweet[]",
						"numberOfBytes": "32"
					},
					"t_array(t_uint256)dyn_storage": {
						"base": "t_uint256",
						"encoding": "dynamic_array",
						"label": "uint256[]",
						"numberOfBytes": "32"
					},
					"t_bool": {
						"encoding": "inplace",
						"label": "bool",
						"numberOfBytes": "1"
					},
					"t_mapping(t_address,t_array(t_address)dyn_storage)": {
						"encoding": "mapping",
						"key": "t_address",
						"label": "mapping(address => address[])",
						"numberOfBytes": "32",
						"value": "t_array(t_address)dyn_storage"
					},
					"t_mapping(t_address,t_array(t_struct(Message)21_storage)dyn_storage)": {
						"encoding": "mapping",
						"key": "t_address",
						"label": "mapping(address => struct Twitter.Message[])",
						"numberOfBytes": "32",
						"value": "t_array(t_struct(Message)21_storage)dyn_storage"
					},
					"t_mapping(t_address,t_bool)": {
						"encoding": "mapping",
						"key": "t_address",
						"label": "mapping(address => bool)",
						"numberOfBytes": "32",
						"value": "t_bool"
					},
					"t_mapping(t_address,t_mapping(t_address,t_bool))": {
						"encoding": "mapping",
						"key": "t_address",
						"label": "mapping(address => mapping(address => bool))",
						"numberOfBytes": "32",
						"value": "t_mapping(t_address,t_bool)"
					},
					"t_mapping(t_uint256,t_array(t_uint256)dyn_storage)": {
						"encoding": "mapping",
						"key": "t_uint256",
						"label": "mapping(uint256 => uint256[])",
						"numberOfBytes": "32",
						"value": "t_array(t_uint256)dyn_storage"
					},
					"t_mapping(t_uint256,t_struct(Tweet)10_storage)": {
						"encoding": "mapping",
						"key": "t_uint256",
						"label": "mapping(uint256 => struct Twitter.Tweet)",
						"numberOfBytes": "32",
						"value": "t_struct(Tweet)10_storage"
					},
					"t_string_storage": {
						"encoding": "bytes",
						"label": "string",
						"numberOfBytes": "32"
					},
					"t_struct(Message)21_storage": {
						"encoding": "inplace",
						"label": "struct Twitter.Message",
						"members": [
							{
								"astId": 12,
								"contract": "contracts/_Twitter.sol:Twitter",
								"label": "Id",
								"offset": 0,
								"slot": "0",
								"type": "t_uint256"
							},
							{
								"astId": 14,
								"contract": "contracts/_Twitter.sol:Twitter",
								"label": "content",
								"offset": 0,
								"slot": "1",
								"type": "t_string_storage"
							},
							{
								"astId": 16,
								"contract": "contracts/_Twitter.sol:Twitter",
								"label": "sender",
								"offset": 0,
								"slot": "2",
								"type": "t_address"
							},
							{
								"astId": 18,
								"contract": "contracts/_Twitter.sol:Twitter",
								"label": "receiver",
								"offset": 0,
								"slot": "3",
								"type": "t_address"
							},
							{
								"astId": 20,
								"contract": "contracts/_Twitter.sol:Twitter",
								"label": "creation_timestamp",
								"offset": 0,
								"slot": "4",
								"type": "t_uint256"
							}
						],
						"numberOfBytes": "160"
					},
					"t_struct(Tweet)10_storage": {
						"encoding": "inplace",
						"label": "struct Twitter.Tweet",
						"members": [
							{
								"astId": 3,
								"contract": "contracts/_Twitter.sol:Twitter",
								"label": "Id",
								"offset": 0,
								"slot": "0",
								"type": "t_uint256"
							},
							{
								"astId": 5,
								"contract": "contracts/_Twitter.sol:Twitter",
								"label": "author",
								"offset": 0,
								"slot": "1",
								"type": "t_address"
							},
							{
								"astId": 7,
								"contract": "contracts/_Twitter.sol:Twitter",
								"label": "content",
								"offset": 0,
								"slot": "2",
								"type": "t_string_storage"
							},
							{
								"astId": 9,
								"contract": "contracts/_Twitter.sol:Twitter",
								"label": "creation_timestamp",
								"offset": 0,
								"slot": "3",
								"type": "t_uint256"
							}
						],
						"numberOfBytes": "128"
					},
					"t_uint256": {
						"encoding": "inplace",
						"label": "uint256",
						"numberOfBytes": "32"
					}
				}
			},
			"userdoc": {
				"kind": "user",
				"methods": {},
				"version": 1
			}
		}
	}
}