{
	"contracts/Re-entrancy-Attacks/Vulnerable.sol": {
		"Vulnerable": {
			"abi": [
				{
					"inputs": [],
					"name": "ReentrancyGuardReentrantCall",
					"type": "error"
				},
				{
					"inputs": [
						{
							"internalType": "address",
							"name": "",
							"type": "address"
						}
					],
					"name": "balances",
					"outputs": [
						{
							"internalType": "uint256",
							"name": "",
							"type": "uint256"
						}
					],
					"stateMutability": "view",
					"type": "function"
				},
				{
					"inputs": [],
					"name": "callerAddress",
					"outputs": [
						{
							"internalType": "address",
							"name": "",
							"type": "address"
						}
					],
					"stateMutability": "view",
					"type": "function"
				},
				{
					"inputs": [],
					"name": "deposit",
					"outputs": [],
					"stateMutability": "payable",
					"type": "function"
				},
				{
					"inputs": [],
					"name": "withdraw",
					"outputs": [],
					"stateMutability": "nonpayable",
					"type": "function"
				}
			],
			"devdoc": {
				"errors": {
					"ReentrancyGuardReentrantCall()": [
						{
							"details": "Unauthorized reentrant call."
						}
					]
				},
				"kind": "dev",
				"methods": {},
				"version": 1
			},
			"evm": {
				"assembly": "    /* \"contracts/Re-entrancy-Attacks/Vulnerable.sol\":133:761  contract Vulnerable is ReentrancyGuard{... */\n  mstore(0x40, 0x80)\n  callvalue\n  dup1\n  iszero\n  tag_1\n  jumpi\n  revert(0x00, 0x00)\ntag_1:\n  pop\n    /* \"@openzeppelin/contracts/utils/ReentrancyGuard.sol\":2365:2366  1 */\n  0x01\n    /* \"@openzeppelin/contracts/utils/ReentrancyGuard.sol\":2539:2585  _reentrancyGuardStorageSlot().getUint256Slot() */\n  tag_4\n    /* \"@openzeppelin/contracts/utils/ReentrancyGuard.sol\":2539:2568  _reentrancyGuardStorageSlot() */\n  tag_5\n    /* \"@openzeppelin/contracts/utils/ReentrancyGuard.sol\":2539:2566  _reentrancyGuardStorageSlot */\n  shl(0x20, tag_6)\n    /* \"@openzeppelin/contracts/utils/ReentrancyGuard.sol\":2539:2568  _reentrancyGuardStorageSlot() */\n  0x20\n  shr\n  jump\t// in\ntag_5:\n    /* \"@openzeppelin/contracts/utils/ReentrancyGuard.sol\":2539:2583  _reentrancyGuardStorageSlot().getUint256Slot */\n  shl(0x20, tag_7)\n    /* \"@openzeppelin/contracts/utils/ReentrancyGuard.sol\":2539:2585  _reentrancyGuardStorageSlot().getUint256Slot() */\n  0x20\n  shr\n  jump\t// in\ntag_4:\n    /* \"@openzeppelin/contracts/utils/ReentrancyGuard.sol\":2539:2591  _reentrancyGuardStorageSlot().getUint256Slot().value */\n  0x00\n  add\n    /* \"@openzeppelin/contracts/utils/ReentrancyGuard.sol\":2539:2605  _reentrancyGuardStorageSlot().getUint256Slot().value = NOT_ENTERED */\n  dup2\n  swap1\n  sstore\n  pop\n    /* \"contracts/Re-entrancy-Attacks/Vulnerable.sol\":133:761  contract Vulnerable is ReentrancyGuard{... */\n  jump(tag_8)\n    /* \"@openzeppelin/contracts/utils/ReentrancyGuard.sol\":4636:4763  function _reentrancyGuardStorageSlot() internal pure virtual returns (bytes32) {... */\ntag_6:\n    /* \"@openzeppelin/contracts/utils/ReentrancyGuard.sol\":4706:4713  bytes32 */\n  0x00\n    /* \"@openzeppelin/contracts/utils/ReentrancyGuard.sol\":1505:1571  0x9b779b17422d0df92223018b32b4d1fa46e071723d6817e2486d003becc55f00 */\n  0x9b779b17422d0df92223018b32b4d1fa46e071723d6817e2486d003becc55f00\n    /* \"@openzeppelin/contracts/utils/ReentrancyGuard.sol\":4732:4756  REENTRANCY_GUARD_STORAGE */\n  0x00\n  shl\n    /* \"@openzeppelin/contracts/utils/ReentrancyGuard.sol\":4725:4756  return REENTRANCY_GUARD_STORAGE */\n  swap1\n  pop\n    /* \"@openzeppelin/contracts/utils/ReentrancyGuard.sol\":4636:4763  function _reentrancyGuardStorageSlot() internal pure virtual returns (bytes32) {... */\n  swap1\n  jump\t// out\n    /* \"@openzeppelin/contracts/utils/StorageSlot.sol\":2679:2842  function getUint256Slot(bytes32 slot) internal pure returns (Uint256Slot storage r) {... */\ntag_7:\n    /* \"@openzeppelin/contracts/utils/StorageSlot.sol\":2740:2761  Uint256Slot storage r */\n  0x00\n    /* \"@openzeppelin/contracts/utils/StorageSlot.sol\":2822:2826  slot */\n  dup2\n    /* \"@openzeppelin/contracts/utils/StorageSlot.sol\":2812:2826  r.slot := slot */\n  swap1\n  pop\n    /* \"@openzeppelin/contracts/utils/StorageSlot.sol\":2679:2842  function getUint256Slot(bytes32 slot) internal pure returns (Uint256Slot storage r) {... */\n  swap2\n  swap1\n  pop\n  jump\t// out\n    /* \"contracts/Re-entrancy-Attacks/Vulnerable.sol\":133:761  contract Vulnerable is ReentrancyGuard{... */\ntag_8:\n  dataSize(sub_0)\n  dup1\n  dataOffset(sub_0)\n  0x00\n  codecopy\n  0x00\n  return\nstop\n\nsub_0: assembly {\n        /* \"contracts/Re-entrancy-Attacks/Vulnerable.sol\":133:761  contract Vulnerable is ReentrancyGuard{... */\n      mstore(0x40, 0x80)\n      jumpi(tag_1, lt(calldatasize, 0x04))\n      shr(0xe0, calldataload(0x00))\n      dup1\n      0x27e235e3\n      eq\n      tag_2\n      jumpi\n      dup1\n      0x3ccfd60b\n      eq\n      tag_3\n      jumpi\n      dup1\n      0xd0e30db0\n      eq\n      tag_4\n      jumpi\n      dup1\n      0xfaa8aab1\n      eq\n      tag_5\n      jumpi\n    tag_1:\n      revert(0x00, 0x00)\n        /* \"contracts/Re-entrancy-Attacks/Vulnerable.sol\":180:220  mapping(address => uint) public balances */\n    tag_2:\n      callvalue\n      dup1\n      iszero\n      tag_6\n      jumpi\n      revert(0x00, 0x00)\n    tag_6:\n      pop\n      tag_7\n      0x04\n      dup1\n      calldatasize\n      sub\n      dup2\n      add\n      swap1\n      tag_8\n      swap2\n      swap1\n      tag_9\n      jump\t// in\n    tag_8:\n      tag_10\n      jump\t// in\n    tag_7:\n      mload(0x40)\n      tag_11\n      swap2\n      swap1\n      tag_12\n      jump\t// in\n    tag_11:\n      mload(0x40)\n      dup1\n      swap2\n      sub\n      swap1\n      return\n        /* \"contracts/Re-entrancy-Attacks/Vulnerable.sol\":327:655  function withdraw() public nonReentrant(){... */\n    tag_3:\n      callvalue\n      dup1\n      iszero\n      tag_13\n      jumpi\n      revert(0x00, 0x00)\n    tag_13:\n      pop\n      tag_14\n      tag_15\n      jump\t// in\n    tag_14:\n      stop\n        /* \"contracts/Re-entrancy-Attacks/Vulnerable.sol\":231:317  function deposit() public payable {... */\n    tag_4:\n      tag_16\n      tag_17\n      jump\t// in\n    tag_16:\n      stop\n        /* \"contracts/Re-entrancy-Attacks/Vulnerable.sol\":665:754  function callerAddress() public view returns(address){... */\n    tag_5:\n      callvalue\n      dup1\n      iszero\n      tag_18\n      jumpi\n      revert(0x00, 0x00)\n    tag_18:\n      pop\n      tag_19\n      tag_20\n      jump\t// in\n    tag_19:\n      mload(0x40)\n      tag_21\n      swap2\n      swap1\n      tag_22\n      jump\t// in\n    tag_21:\n      mload(0x40)\n      dup1\n      swap2\n      sub\n      swap1\n      return\n        /* \"contracts/Re-entrancy-Attacks/Vulnerable.sol\":180:220  mapping(address => uint) public balances */\n    tag_10:\n      mstore(0x20, 0x00)\n      dup1\n      0x00\n      mstore\n      keccak256(0x00, 0x40)\n      0x00\n      swap2\n      pop\n      swap1\n      pop\n      sload\n      dup2\n      jump\t// out\n        /* \"contracts/Re-entrancy-Attacks/Vulnerable.sol\":327:655  function withdraw() public nonReentrant(){... */\n    tag_15:\n        /* \"@openzeppelin/contracts/utils/ReentrancyGuard.sol\":3023:3044  _nonReentrantBefore() */\n      tag_24\n        /* \"@openzeppelin/contracts/utils/ReentrancyGuard.sol\":3023:3042  _nonReentrantBefore */\n      tag_25\n        /* \"@openzeppelin/contracts/utils/ReentrancyGuard.sol\":3023:3044  _nonReentrantBefore() */\n      jump\t// in\n    tag_24:\n        /* \"contracts/Re-entrancy-Attacks/Vulnerable.sol\":379:387  uint bal */\n      0x00\n        /* \"contracts/Re-entrancy-Attacks/Vulnerable.sol\":390:398  balances */\n      0x00\n        /* \"contracts/Re-entrancy-Attacks/Vulnerable.sol\":390:410  balances[msg.sender] */\n      0x00\n        /* \"contracts/Re-entrancy-Attacks/Vulnerable.sol\":399:409  msg.sender */\n      caller\n        /* \"contracts/Re-entrancy-Attacks/Vulnerable.sol\":390:410  balances[msg.sender] */\n      0xffffffffffffffffffffffffffffffffffffffff\n      and\n      0xffffffffffffffffffffffffffffffffffffffff\n      and\n      dup2\n      mstore\n      0x20\n      add\n      swap1\n      dup2\n      mstore\n      0x20\n      add\n      0x00\n      keccak256\n      sload\n        /* \"contracts/Re-entrancy-Attacks/Vulnerable.sol\":379:410  uint bal = balances[msg.sender] */\n      swap1\n      pop\n        /* \"contracts/Re-entrancy-Attacks/Vulnerable.sol\":435:436  0 */\n      0x00\n        /* \"contracts/Re-entrancy-Attacks/Vulnerable.sol\":429:432  bal */\n      dup2\n        /* \"contracts/Re-entrancy-Attacks/Vulnerable.sol\":429:436  bal > 0 */\n      gt\n        /* \"contracts/Re-entrancy-Attacks/Vulnerable.sol\":421:462  require(bal > 0, \"balance ir requried !\") */\n      tag_27\n      jumpi\n      mload(0x40)\n      0x08c379a000000000000000000000000000000000000000000000000000000000\n      dup2\n      mstore\n      0x04\n      add\n      tag_28\n      swap1\n      tag_29\n      jump\t// in\n    tag_28:\n      mload(0x40)\n      dup1\n      swap2\n      sub\n      swap1\n      revert\n    tag_27:\n        /* \"contracts/Re-entrancy-Attacks/Vulnerable.sol\":483:492  bool sent */\n      0x00\n        /* \"contracts/Re-entrancy-Attacks/Vulnerable.sol\":498:508  msg.sender */\n      caller\n        /* \"contracts/Re-entrancy-Attacks/Vulnerable.sol\":498:513  msg.sender.call */\n      0xffffffffffffffffffffffffffffffffffffffff\n      and\n        /* \"contracts/Re-entrancy-Attacks/Vulnerable.sol\":521:524  bal */\n      dup3\n        /* \"contracts/Re-entrancy-Attacks/Vulnerable.sol\":498:529  msg.sender.call{value: bal}(\"\") */\n      mload(0x40)\n      tag_30\n      swap1\n      tag_31\n      jump\t// in\n    tag_30:\n      0x00\n      mload(0x40)\n      dup1\n      dup4\n      sub\n      dup2\n      dup6\n      dup8\n      gas\n      call\n      swap3\n      pop\n      pop\n      pop\n      returndatasize\n      dup1\n      0x00\n      dup2\n      eq\n      tag_34\n      jumpi\n      mload(0x40)\n      swap2\n      pop\n      and(add(returndatasize, 0x3f), not(0x1f))\n      dup3\n      add\n      0x40\n      mstore\n      returndatasize\n      dup3\n      mstore\n      returndatasize\n      0x00\n      0x20\n      dup5\n      add\n      returndatacopy\n      jump(tag_33)\n    tag_34:\n      0x60\n      swap2\n      pop\n    tag_33:\n      pop\n        /* \"contracts/Re-entrancy-Attacks/Vulnerable.sol\":482:529  (bool sent, ) = msg.sender.call{value: bal}(\"\") */\n      pop\n      swap1\n      pop\n        /* \"contracts/Re-entrancy-Attacks/Vulnerable.sol\":581:585  sent */\n      dup1\n        /* \"contracts/Re-entrancy-Attacks/Vulnerable.sol\":573:610  require(sent, \"Failed to send Ether\") */\n      tag_35\n      jumpi\n      mload(0x40)\n      0x08c379a000000000000000000000000000000000000000000000000000000000\n      dup2\n      mstore\n      0x04\n      add\n      tag_36\n      swap1\n      tag_37\n      jump\t// in\n    tag_36:\n      mload(0x40)\n      dup1\n      swap2\n      sub\n      swap1\n      revert\n    tag_35:\n        /* \"contracts/Re-entrancy-Attacks/Vulnerable.sol\":646:647  0 */\n      0x00\n        /* \"contracts/Re-entrancy-Attacks/Vulnerable.sol\":623:631  balances */\n      0x00\n        /* \"contracts/Re-entrancy-Attacks/Vulnerable.sol\":623:643  balances[msg.sender] */\n      0x00\n        /* \"contracts/Re-entrancy-Attacks/Vulnerable.sol\":632:642  msg.sender */\n      caller\n        /* \"contracts/Re-entrancy-Attacks/Vulnerable.sol\":623:643  balances[msg.sender] */\n      0xffffffffffffffffffffffffffffffffffffffff\n      and\n      0xffffffffffffffffffffffffffffffffffffffff\n      and\n      dup2\n      mstore\n      0x20\n      add\n      swap1\n      dup2\n      mstore\n      0x20\n      add\n      0x00\n      keccak256\n        /* \"contracts/Re-entrancy-Attacks/Vulnerable.sol\":623:647  balances[msg.sender] = 0 */\n      dup2\n      swap1\n      sstore\n      pop\n        /* \"contracts/Re-entrancy-Attacks/Vulnerable.sol\":368:655  {... */\n      pop\n      pop\n        /* \"@openzeppelin/contracts/utils/ReentrancyGuard.sol\":3065:3085  _nonReentrantAfter() */\n      tag_38\n        /* \"@openzeppelin/contracts/utils/ReentrancyGuard.sol\":3065:3083  _nonReentrantAfter */\n      tag_39\n        /* \"@openzeppelin/contracts/utils/ReentrancyGuard.sol\":3065:3085  _nonReentrantAfter() */\n      jump\t// in\n    tag_38:\n        /* \"contracts/Re-entrancy-Attacks/Vulnerable.sol\":327:655  function withdraw() public nonReentrant(){... */\n      jump\t// out\n        /* \"contracts/Re-entrancy-Attacks/Vulnerable.sol\":231:317  function deposit() public payable {... */\n    tag_17:\n        /* \"contracts/Re-entrancy-Attacks/Vulnerable.sol\":300:309  msg.value */\n      callvalue\n        /* \"contracts/Re-entrancy-Attacks/Vulnerable.sol\":276:284  balances */\n      0x00\n        /* \"contracts/Re-entrancy-Attacks/Vulnerable.sol\":276:296  balances[msg.sender] */\n      0x00\n        /* \"contracts/Re-entrancy-Attacks/Vulnerable.sol\":285:295  msg.sender */\n      caller\n        /* \"contracts/Re-entrancy-Attacks/Vulnerable.sol\":276:296  balances[msg.sender] */\n      0xffffffffffffffffffffffffffffffffffffffff\n      and\n      0xffffffffffffffffffffffffffffffffffffffff\n      and\n      dup2\n      mstore\n      0x20\n      add\n      swap1\n      dup2\n      mstore\n      0x20\n      add\n      0x00\n      keccak256\n      0x00\n        /* \"contracts/Re-entrancy-Attacks/Vulnerable.sol\":276:309  balances[msg.sender] += msg.value */\n      dup3\n      dup3\n      sload\n      tag_41\n      swap2\n      swap1\n      tag_42\n      jump\t// in\n    tag_41:\n      swap3\n      pop\n      pop\n      dup2\n      swap1\n      sstore\n      pop\n        /* \"contracts/Re-entrancy-Attacks/Vulnerable.sol\":231:317  function deposit() public payable {... */\n      jump\t// out\n        /* \"contracts/Re-entrancy-Attacks/Vulnerable.sol\":665:754  function callerAddress() public view returns(address){... */\n    tag_20:\n        /* \"contracts/Re-entrancy-Attacks/Vulnerable.sol\":710:717  address */\n      0x00\n        /* \"contracts/Re-entrancy-Attacks/Vulnerable.sol\":736:746  msg.sender */\n      caller\n        /* \"contracts/Re-entrancy-Attacks/Vulnerable.sol\":729:746  return msg.sender */\n      swap1\n      pop\n        /* \"contracts/Re-entrancy-Attacks/Vulnerable.sol\":665:754  function callerAddress() public view returns(address){... */\n      swap1\n      jump\t// out\n        /* \"@openzeppelin/contracts/utils/ReentrancyGuard.sol\":3749:4041  function _nonReentrantBefore() private {... */\n    tag_25:\n        /* \"@openzeppelin/contracts/utils/ReentrancyGuard.sol\":3872:3897  _nonReentrantBeforeView() */\n      tag_45\n        /* \"@openzeppelin/contracts/utils/ReentrancyGuard.sol\":3872:3895  _nonReentrantBeforeView */\n      tag_46\n        /* \"@openzeppelin/contracts/utils/ReentrancyGuard.sol\":3872:3897  _nonReentrantBeforeView() */\n      jump\t// in\n    tag_45:\n        /* \"@openzeppelin/contracts/utils/ReentrancyGuard.sol\":2407:2408  2 */\n      0x02\n        /* \"@openzeppelin/contracts/utils/ReentrancyGuard.sol\":3972:4018  _reentrancyGuardStorageSlot().getUint256Slot() */\n      tag_47\n        /* \"@openzeppelin/contracts/utils/ReentrancyGuard.sol\":3972:4001  _reentrancyGuardStorageSlot() */\n      tag_48\n        /* \"@openzeppelin/contracts/utils/ReentrancyGuard.sol\":3972:3999  _reentrancyGuardStorageSlot */\n      tag_49\n        /* \"@openzeppelin/contracts/utils/ReentrancyGuard.sol\":3972:4001  _reentrancyGuardStorageSlot() */\n      jump\t// in\n    tag_48:\n        /* \"@openzeppelin/contracts/utils/ReentrancyGuard.sol\":3972:4016  _reentrancyGuardStorageSlot().getUint256Slot */\n      tag_50\n        /* \"@openzeppelin/contracts/utils/ReentrancyGuard.sol\":3972:4018  _reentrancyGuardStorageSlot().getUint256Slot() */\n      jump\t// in\n    tag_47:\n        /* \"@openzeppelin/contracts/utils/ReentrancyGuard.sol\":3972:4024  _reentrancyGuardStorageSlot().getUint256Slot().value */\n      0x00\n      add\n        /* \"@openzeppelin/contracts/utils/ReentrancyGuard.sol\":3972:4034  _reentrancyGuardStorageSlot().getUint256Slot().value = ENTERED */\n      dup2\n      swap1\n      sstore\n      pop\n        /* \"@openzeppelin/contracts/utils/ReentrancyGuard.sol\":3749:4041  function _nonReentrantBefore() private {... */\n      jump\t// out\n        /* \"@openzeppelin/contracts/utils/ReentrancyGuard.sol\":4047:4300  function _nonReentrantAfter() private {... */\n    tag_39:\n        /* \"@openzeppelin/contracts/utils/ReentrancyGuard.sol\":2365:2366  1 */\n      0x01\n        /* \"@openzeppelin/contracts/utils/ReentrancyGuard.sol\":4227:4273  _reentrancyGuardStorageSlot().getUint256Slot() */\n      tag_52\n        /* \"@openzeppelin/contracts/utils/ReentrancyGuard.sol\":4227:4256  _reentrancyGuardStorageSlot() */\n      tag_53\n        /* \"@openzeppelin/contracts/utils/ReentrancyGuard.sol\":4227:4254  _reentrancyGuardStorageSlot */\n      tag_49\n        /* \"@openzeppelin/contracts/utils/ReentrancyGuard.sol\":4227:4256  _reentrancyGuardStorageSlot() */\n      jump\t// in\n    tag_53:\n        /* \"@openzeppelin/contracts/utils/ReentrancyGuard.sol\":4227:4271  _reentrancyGuardStorageSlot().getUint256Slot */\n      tag_50\n        /* \"@openzeppelin/contracts/utils/ReentrancyGuard.sol\":4227:4273  _reentrancyGuardStorageSlot().getUint256Slot() */\n      jump\t// in\n    tag_52:\n        /* \"@openzeppelin/contracts/utils/ReentrancyGuard.sol\":4227:4279  _reentrancyGuardStorageSlot().getUint256Slot().value */\n      0x00\n      add\n        /* \"@openzeppelin/contracts/utils/ReentrancyGuard.sol\":4227:4293  _reentrancyGuardStorageSlot().getUint256Slot().value = NOT_ENTERED */\n      dup2\n      swap1\n      sstore\n      pop\n        /* \"@openzeppelin/contracts/utils/ReentrancyGuard.sol\":4047:4300  function _nonReentrantAfter() private {... */\n      jump\t// out\n        /* \"@openzeppelin/contracts/utils/ReentrancyGuard.sol\":3586:3743  function _nonReentrantBeforeView() private view {... */\n    tag_46:\n        /* \"@openzeppelin/contracts/utils/ReentrancyGuard.sol\":3648:3673  _reentrancyGuardEntered() */\n      tag_55\n        /* \"@openzeppelin/contracts/utils/ReentrancyGuard.sol\":3648:3671  _reentrancyGuardEntered */\n      tag_56\n        /* \"@openzeppelin/contracts/utils/ReentrancyGuard.sol\":3648:3673  _reentrancyGuardEntered() */\n      jump\t// in\n    tag_55:\n        /* \"@openzeppelin/contracts/utils/ReentrancyGuard.sol\":3644:3737  if (_reentrancyGuardEntered()) {... */\n      iszero\n      tag_57\n      jumpi\n        /* \"@openzeppelin/contracts/utils/ReentrancyGuard.sol\":3696:3726  ReentrancyGuardReentrantCall() */\n      mload(0x40)\n      0x3ee5aeb500000000000000000000000000000000000000000000000000000000\n      dup2\n      mstore\n      0x04\n      add\n      mload(0x40)\n      dup1\n      swap2\n      sub\n      swap1\n      revert\n        /* \"@openzeppelin/contracts/utils/ReentrancyGuard.sol\":3644:3737  if (_reentrancyGuardEntered()) {... */\n    tag_57:\n        /* \"@openzeppelin/contracts/utils/ReentrancyGuard.sol\":3586:3743  function _nonReentrantBeforeView() private view {... */\n      jump\t// out\n        /* \"@openzeppelin/contracts/utils/ReentrancyGuard.sol\":4636:4763  function _reentrancyGuardStorageSlot() internal pure virtual returns (bytes32) {... */\n    tag_49:\n        /* \"@openzeppelin/contracts/utils/ReentrancyGuard.sol\":4706:4713  bytes32 */\n      0x00\n        /* \"@openzeppelin/contracts/utils/ReentrancyGuard.sol\":1505:1571  0x9b779b17422d0df92223018b32b4d1fa46e071723d6817e2486d003becc55f00 */\n      0x9b779b17422d0df92223018b32b4d1fa46e071723d6817e2486d003becc55f00\n        /* \"@openzeppelin/contracts/utils/ReentrancyGuard.sol\":4732:4756  REENTRANCY_GUARD_STORAGE */\n      0x00\n      shl\n        /* \"@openzeppelin/contracts/utils/ReentrancyGuard.sol\":4725:4756  return REENTRANCY_GUARD_STORAGE */\n      swap1\n      pop\n        /* \"@openzeppelin/contracts/utils/ReentrancyGuard.sol\":4636:4763  function _reentrancyGuardStorageSlot() internal pure virtual returns (bytes32) {... */\n      swap1\n      jump\t// out\n        /* \"@openzeppelin/contracts/utils/StorageSlot.sol\":2679:2842  function getUint256Slot(bytes32 slot) internal pure returns (Uint256Slot storage r) {... */\n    tag_50:\n        /* \"@openzeppelin/contracts/utils/StorageSlot.sol\":2740:2761  Uint256Slot storage r */\n      0x00\n        /* \"@openzeppelin/contracts/utils/StorageSlot.sol\":2822:2826  slot */\n      dup2\n        /* \"@openzeppelin/contracts/utils/StorageSlot.sol\":2812:2826  r.slot := slot */\n      swap1\n      pop\n        /* \"@openzeppelin/contracts/utils/StorageSlot.sol\":2679:2842  function getUint256Slot(bytes32 slot) internal pure returns (Uint256Slot storage r) {... */\n      swap2\n      swap1\n      pop\n      jump\t// out\n        /* \"@openzeppelin/contracts/utils/ReentrancyGuard.sol\":4479:4630  function _reentrancyGuardEntered() internal view returns (bool) {... */\n    tag_56:\n        /* \"@openzeppelin/contracts/utils/ReentrancyGuard.sol\":4537:4541  bool */\n      0x00\n        /* \"@openzeppelin/contracts/utils/ReentrancyGuard.sol\":2407:2408  2 */\n      0x02\n        /* \"@openzeppelin/contracts/utils/ReentrancyGuard.sol\":4560:4606  _reentrancyGuardStorageSlot().getUint256Slot() */\n      tag_61\n        /* \"@openzeppelin/contracts/utils/ReentrancyGuard.sol\":4560:4589  _reentrancyGuardStorageSlot() */\n      tag_62\n        /* \"@openzeppelin/contracts/utils/ReentrancyGuard.sol\":4560:4587  _reentrancyGuardStorageSlot */\n      tag_49\n        /* \"@openzeppelin/contracts/utils/ReentrancyGuard.sol\":4560:4589  _reentrancyGuardStorageSlot() */\n      jump\t// in\n    tag_62:\n        /* \"@openzeppelin/contracts/utils/ReentrancyGuard.sol\":4560:4604  _reentrancyGuardStorageSlot().getUint256Slot */\n      tag_50\n        /* \"@openzeppelin/contracts/utils/ReentrancyGuard.sol\":4560:4606  _reentrancyGuardStorageSlot().getUint256Slot() */\n      jump\t// in\n    tag_61:\n        /* \"@openzeppelin/contracts/utils/ReentrancyGuard.sol\":4560:4612  _reentrancyGuardStorageSlot().getUint256Slot().value */\n      0x00\n      add\n      sload\n        /* \"@openzeppelin/contracts/utils/ReentrancyGuard.sol\":4560:4623  _reentrancyGuardStorageSlot().getUint256Slot().value == ENTERED */\n      eq\n        /* \"@openzeppelin/contracts/utils/ReentrancyGuard.sol\":4553:4623  return _reentrancyGuardStorageSlot().getUint256Slot().value == ENTERED */\n      swap1\n      pop\n        /* \"@openzeppelin/contracts/utils/ReentrancyGuard.sol\":4479:4630  function _reentrancyGuardEntered() internal view returns (bool) {... */\n      swap1\n      jump\t// out\n        /* \"#utility.yul\":88:205   */\n    tag_64:\n        /* \"#utility.yul\":197:198   */\n      0x00\n        /* \"#utility.yul\":194:195   */\n      0x00\n        /* \"#utility.yul\":187:199   */\n      revert\n        /* \"#utility.yul\":334:460   */\n    tag_66:\n        /* \"#utility.yul\":371:378   */\n      0x00\n        /* \"#utility.yul\":411:453   */\n      0xffffffffffffffffffffffffffffffffffffffff\n        /* \"#utility.yul\":404:409   */\n      dup3\n        /* \"#utility.yul\":400:454   */\n      and\n        /* \"#utility.yul\":389:454   */\n      swap1\n      pop\n        /* \"#utility.yul\":334:460   */\n      swap2\n      swap1\n      pop\n      jump\t// out\n        /* \"#utility.yul\":466:562   */\n    tag_67:\n        /* \"#utility.yul\":503:510   */\n      0x00\n        /* \"#utility.yul\":532:556   */\n      tag_88\n        /* \"#utility.yul\":550:555   */\n      dup3\n        /* \"#utility.yul\":532:556   */\n      tag_66\n      jump\t// in\n    tag_88:\n        /* \"#utility.yul\":521:556   */\n      swap1\n      pop\n        /* \"#utility.yul\":466:562   */\n      swap2\n      swap1\n      pop\n      jump\t// out\n        /* \"#utility.yul\":568:690   */\n    tag_68:\n        /* \"#utility.yul\":641:665   */\n      tag_90\n        /* \"#utility.yul\":659:664   */\n      dup2\n        /* \"#utility.yul\":641:665   */\n      tag_67\n      jump\t// in\n    tag_90:\n        /* \"#utility.yul\":634:639   */\n      dup2\n        /* \"#utility.yul\":631:666   */\n      eq\n        /* \"#utility.yul\":621:684   */\n      tag_91\n      jumpi\n        /* \"#utility.yul\":680:681   */\n      0x00\n        /* \"#utility.yul\":677:678   */\n      0x00\n        /* \"#utility.yul\":670:682   */\n      revert\n        /* \"#utility.yul\":621:684   */\n    tag_91:\n        /* \"#utility.yul\":568:690   */\n      pop\n      jump\t// out\n        /* \"#utility.yul\":696:835   */\n    tag_69:\n        /* \"#utility.yul\":742:747   */\n      0x00\n        /* \"#utility.yul\":780:786   */\n      dup2\n        /* \"#utility.yul\":767:787   */\n      calldataload\n        /* \"#utility.yul\":758:787   */\n      swap1\n      pop\n        /* \"#utility.yul\":796:829   */\n      tag_93\n        /* \"#utility.yul\":823:828   */\n      dup2\n        /* \"#utility.yul\":796:829   */\n      tag_68\n      jump\t// in\n    tag_93:\n        /* \"#utility.yul\":696:835   */\n      swap3\n      swap2\n      pop\n      pop\n      jump\t// out\n        /* \"#utility.yul\":841:1170   */\n    tag_9:\n        /* \"#utility.yul\":900:906   */\n      0x00\n        /* \"#utility.yul\":949:951   */\n      0x20\n        /* \"#utility.yul\":937:946   */\n      dup3\n        /* \"#utility.yul\":928:935   */\n      dup5\n        /* \"#utility.yul\":924:947   */\n      sub\n        /* \"#utility.yul\":920:952   */\n      slt\n        /* \"#utility.yul\":917:1036   */\n      iszero\n      tag_95\n      jumpi\n        /* \"#utility.yul\":955:1034   */\n      tag_96\n      tag_64\n      jump\t// in\n    tag_96:\n        /* \"#utility.yul\":917:1036   */\n    tag_95:\n        /* \"#utility.yul\":1075:1076   */\n      0x00\n        /* \"#utility.yul\":1100:1153   */\n      tag_97\n        /* \"#utility.yul\":1145:1152   */\n      dup5\n        /* \"#utility.yul\":1136:1142   */\n      dup3\n        /* \"#utility.yul\":1125:1134   */\n      dup6\n        /* \"#utility.yul\":1121:1143   */\n      add\n        /* \"#utility.yul\":1100:1153   */\n      tag_69\n      jump\t// in\n    tag_97:\n        /* \"#utility.yul\":1090:1153   */\n      swap2\n      pop\n        /* \"#utility.yul\":1046:1163   */\n      pop\n        /* \"#utility.yul\":841:1170   */\n      swap3\n      swap2\n      pop\n      pop\n      jump\t// out\n        /* \"#utility.yul\":1176:1253   */\n    tag_70:\n        /* \"#utility.yul\":1213:1220   */\n      0x00\n        /* \"#utility.yul\":1242:1247   */\n      dup2\n        /* \"#utility.yul\":1231:1247   */\n      swap1\n      pop\n        /* \"#utility.yul\":1176:1253   */\n      swap2\n      swap1\n      pop\n      jump\t// out\n        /* \"#utility.yul\":1259:1377   */\n    tag_71:\n        /* \"#utility.yul\":1346:1370   */\n      tag_100\n        /* \"#utility.yul\":1364:1369   */\n      dup2\n        /* \"#utility.yul\":1346:1370   */\n      tag_70\n      jump\t// in\n    tag_100:\n        /* \"#utility.yul\":1341:1344   */\n      dup3\n        /* \"#utility.yul\":1334:1371   */\n      mstore\n        /* \"#utility.yul\":1259:1377   */\n      pop\n      pop\n      jump\t// out\n        /* \"#utility.yul\":1383:1605   */\n    tag_12:\n        /* \"#utility.yul\":1476:1480   */\n      0x00\n        /* \"#utility.yul\":1514:1516   */\n      0x20\n        /* \"#utility.yul\":1503:1512   */\n      dup3\n        /* \"#utility.yul\":1499:1517   */\n      add\n        /* \"#utility.yul\":1491:1517   */\n      swap1\n      pop\n        /* \"#utility.yul\":1527:1598   */\n      tag_102\n        /* \"#utility.yul\":1595:1596   */\n      0x00\n        /* \"#utility.yul\":1584:1593   */\n      dup4\n        /* \"#utility.yul\":1580:1597   */\n      add\n        /* \"#utility.yul\":1571:1577   */\n      dup5\n        /* \"#utility.yul\":1527:1598   */\n      tag_71\n      jump\t// in\n    tag_102:\n        /* \"#utility.yul\":1383:1605   */\n      swap3\n      swap2\n      pop\n      pop\n      jump\t// out\n        /* \"#utility.yul\":1611:1729   */\n    tag_72:\n        /* \"#utility.yul\":1698:1722   */\n      tag_104\n        /* \"#utility.yul\":1716:1721   */\n      dup2\n        /* \"#utility.yul\":1698:1722   */\n      tag_67\n      jump\t// in\n    tag_104:\n        /* \"#utility.yul\":1693:1696   */\n      dup3\n        /* \"#utility.yul\":1686:1723   */\n      mstore\n        /* \"#utility.yul\":1611:1729   */\n      pop\n      pop\n      jump\t// out\n        /* \"#utility.yul\":1735:1957   */\n    tag_22:\n        /* \"#utility.yul\":1828:1832   */\n      0x00\n        /* \"#utility.yul\":1866:1868   */\n      0x20\n        /* \"#utility.yul\":1855:1864   */\n      dup3\n        /* \"#utility.yul\":1851:1869   */\n      add\n        /* \"#utility.yul\":1843:1869   */\n      swap1\n      pop\n        /* \"#utility.yul\":1879:1950   */\n      tag_106\n        /* \"#utility.yul\":1947:1948   */\n      0x00\n        /* \"#utility.yul\":1936:1945   */\n      dup4\n        /* \"#utility.yul\":1932:1949   */\n      add\n        /* \"#utility.yul\":1923:1929   */\n      dup5\n        /* \"#utility.yul\":1879:1950   */\n      tag_72\n      jump\t// in\n    tag_106:\n        /* \"#utility.yul\":1735:1957   */\n      swap3\n      swap2\n      pop\n      pop\n      jump\t// out\n        /* \"#utility.yul\":1963:2132   */\n    tag_73:\n        /* \"#utility.yul\":2047:2058   */\n      0x00\n        /* \"#utility.yul\":2081:2087   */\n      dup3\n        /* \"#utility.yul\":2076:2079   */\n      dup3\n        /* \"#utility.yul\":2069:2088   */\n      mstore\n        /* \"#utility.yul\":2121:2125   */\n      0x20\n        /* \"#utility.yul\":2116:2119   */\n      dup3\n        /* \"#utility.yul\":2112:2126   */\n      add\n        /* \"#utility.yul\":2097:2126   */\n      swap1\n      pop\n        /* \"#utility.yul\":1963:2132   */\n      swap3\n      swap2\n      pop\n      pop\n      jump\t// out\n        /* \"#utility.yul\":2138:2309   */\n    tag_74:\n        /* \"#utility.yul\":2278:2301   */\n      0x62616c616e636520697220726571757269656420210000000000000000000000\n        /* \"#utility.yul\":2274:2275   */\n      0x00\n        /* \"#utility.yul\":2266:2272   */\n      dup3\n        /* \"#utility.yul\":2262:2276   */\n      add\n        /* \"#utility.yul\":2255:2302   */\n      mstore\n        /* \"#utility.yul\":2138:2309   */\n      pop\n      jump\t// out\n        /* \"#utility.yul\":2315:2681   */\n    tag_75:\n        /* \"#utility.yul\":2457:2460   */\n      0x00\n        /* \"#utility.yul\":2478:2545   */\n      tag_110\n        /* \"#utility.yul\":2542:2544   */\n      0x15\n        /* \"#utility.yul\":2537:2540   */\n      dup4\n        /* \"#utility.yul\":2478:2545   */\n      tag_73\n      jump\t// in\n    tag_110:\n        /* \"#utility.yul\":2471:2545   */\n      swap2\n      pop\n        /* \"#utility.yul\":2554:2647   */\n      tag_111\n        /* \"#utility.yul\":2643:2646   */\n      dup3\n        /* \"#utility.yul\":2554:2647   */\n      tag_74\n      jump\t// in\n    tag_111:\n        /* \"#utility.yul\":2672:2674   */\n      0x20\n        /* \"#utility.yul\":2667:2670   */\n      dup3\n        /* \"#utility.yul\":2663:2675   */\n      add\n        /* \"#utility.yul\":2656:2675   */\n      swap1\n      pop\n        /* \"#utility.yul\":2315:2681   */\n      swap2\n      swap1\n      pop\n      jump\t// out\n        /* \"#utility.yul\":2687:3106   */\n    tag_29:\n        /* \"#utility.yul\":2853:2857   */\n      0x00\n        /* \"#utility.yul\":2891:2893   */\n      0x20\n        /* \"#utility.yul\":2880:2889   */\n      dup3\n        /* \"#utility.yul\":2876:2894   */\n      add\n        /* \"#utility.yul\":2868:2894   */\n      swap1\n      pop\n        /* \"#utility.yul\":2940:2949   */\n      dup2\n        /* \"#utility.yul\":2934:2938   */\n      dup2\n        /* \"#utility.yul\":2930:2950   */\n      sub\n        /* \"#utility.yul\":2926:2927   */\n      0x00\n        /* \"#utility.yul\":2915:2924   */\n      dup4\n        /* \"#utility.yul\":2911:2928   */\n      add\n        /* \"#utility.yul\":2904:2951   */\n      mstore\n        /* \"#utility.yul\":2968:3099   */\n      tag_113\n        /* \"#utility.yul\":3094:3098   */\n      dup2\n        /* \"#utility.yul\":2968:3099   */\n      tag_75\n      jump\t// in\n    tag_113:\n        /* \"#utility.yul\":2960:3099   */\n      swap1\n      pop\n        /* \"#utility.yul\":2687:3106   */\n      swap2\n      swap1\n      pop\n      jump\t// out\n        /* \"#utility.yul\":3112:3259   */\n    tag_76:\n        /* \"#utility.yul\":3213:3224   */\n      0x00\n        /* \"#utility.yul\":3250:3253   */\n      dup2\n        /* \"#utility.yul\":3235:3253   */\n      swap1\n      pop\n        /* \"#utility.yul\":3112:3259   */\n      swap3\n      swap2\n      pop\n      pop\n      jump\t// out\n        /* \"#utility.yul\":3265:3379   */\n    tag_77:\n      pop\n      jump\t// out\n        /* \"#utility.yul\":3385:3783   */\n    tag_78:\n        /* \"#utility.yul\":3544:3547   */\n      0x00\n        /* \"#utility.yul\":3565:3648   */\n      tag_117\n        /* \"#utility.yul\":3646:3647   */\n      0x00\n        /* \"#utility.yul\":3641:3644   */\n      dup4\n        /* \"#utility.yul\":3565:3648   */\n      tag_76\n      jump\t// in\n    tag_117:\n        /* \"#utility.yul\":3558:3648   */\n      swap2\n      pop\n        /* \"#utility.yul\":3657:3750   */\n      tag_118\n        /* \"#utility.yul\":3746:3749   */\n      dup3\n        /* \"#utility.yul\":3657:3750   */\n      tag_77\n      jump\t// in\n    tag_118:\n        /* \"#utility.yul\":3775:3776   */\n      0x00\n        /* \"#utility.yul\":3770:3773   */\n      dup3\n        /* \"#utility.yul\":3766:3777   */\n      add\n        /* \"#utility.yul\":3759:3777   */\n      swap1\n      pop\n        /* \"#utility.yul\":3385:3783   */\n      swap2\n      swap1\n      pop\n      jump\t// out\n        /* \"#utility.yul\":3789:4168   */\n    tag_31:\n        /* \"#utility.yul\":3973:3976   */\n      0x00\n        /* \"#utility.yul\":3995:4142   */\n      tag_120\n        /* \"#utility.yul\":4138:4141   */\n      dup3\n        /* \"#utility.yul\":3995:4142   */\n      tag_78\n      jump\t// in\n    tag_120:\n        /* \"#utility.yul\":3988:4142   */\n      swap2\n      pop\n        /* \"#utility.yul\":4159:4162   */\n      dup2\n        /* \"#utility.yul\":4152:4162   */\n      swap1\n      pop\n        /* \"#utility.yul\":3789:4168   */\n      swap2\n      swap1\n      pop\n      jump\t// out\n        /* \"#utility.yul\":4174:4344   */\n    tag_79:\n        /* \"#utility.yul\":4314:4336   */\n      0x4661696c656420746f2073656e64204574686572000000000000000000000000\n        /* \"#utility.yul\":4310:4311   */\n      0x00\n        /* \"#utility.yul\":4302:4308   */\n      dup3\n        /* \"#utility.yul\":4298:4312   */\n      add\n        /* \"#utility.yul\":4291:4337   */\n      mstore\n        /* \"#utility.yul\":4174:4344   */\n      pop\n      jump\t// out\n        /* \"#utility.yul\":4350:4716   */\n    tag_80:\n        /* \"#utility.yul\":4492:4495   */\n      0x00\n        /* \"#utility.yul\":4513:4580   */\n      tag_123\n        /* \"#utility.yul\":4577:4579   */\n      0x14\n        /* \"#utility.yul\":4572:4575   */\n      dup4\n        /* \"#utility.yul\":4513:4580   */\n      tag_73\n      jump\t// in\n    tag_123:\n        /* \"#utility.yul\":4506:4580   */\n      swap2\n      pop\n        /* \"#utility.yul\":4589:4682   */\n      tag_124\n        /* \"#utility.yul\":4678:4681   */\n      dup3\n        /* \"#utility.yul\":4589:4682   */\n      tag_79\n      jump\t// in\n    tag_124:\n        /* \"#utility.yul\":4707:4709   */\n      0x20\n        /* \"#utility.yul\":4702:4705   */\n      dup3\n        /* \"#utility.yul\":4698:4710   */\n      add\n        /* \"#utility.yul\":4691:4710   */\n      swap1\n      pop\n        /* \"#utility.yul\":4350:4716   */\n      swap2\n      swap1\n      pop\n      jump\t// out\n        /* \"#utility.yul\":4722:5141   */\n    tag_37:\n        /* \"#utility.yul\":4888:4892   */\n      0x00\n        /* \"#utility.yul\":4926:4928   */\n      0x20\n        /* \"#utility.yul\":4915:4924   */\n      dup3\n        /* \"#utility.yul\":4911:4929   */\n      add\n        /* \"#utility.yul\":4903:4929   */\n      swap1\n      pop\n        /* \"#utility.yul\":4975:4984   */\n      dup2\n        /* \"#utility.yul\":4969:4973   */\n      dup2\n        /* \"#utility.yul\":4965:4985   */\n      sub\n        /* \"#utility.yul\":4961:4962   */\n      0x00\n        /* \"#utility.yul\":4950:4959   */\n      dup4\n        /* \"#utility.yul\":4946:4963   */\n      add\n        /* \"#utility.yul\":4939:4986   */\n      mstore\n        /* \"#utility.yul\":5003:5134   */\n      tag_126\n        /* \"#utility.yul\":5129:5133   */\n      dup2\n        /* \"#utility.yul\":5003:5134   */\n      tag_80\n      jump\t// in\n    tag_126:\n        /* \"#utility.yul\":4995:5134   */\n      swap1\n      pop\n        /* \"#utility.yul\":4722:5141   */\n      swap2\n      swap1\n      pop\n      jump\t// out\n        /* \"#utility.yul\":5147:5327   */\n    tag_81:\n        /* \"#utility.yul\":5195:5272   */\n      0x4e487b7100000000000000000000000000000000000000000000000000000000\n        /* \"#utility.yul\":5192:5193   */\n      0x00\n        /* \"#utility.yul\":5185:5273   */\n      mstore\n        /* \"#utility.yul\":5292:5296   */\n      0x11\n        /* \"#utility.yul\":5289:5290   */\n      0x04\n        /* \"#utility.yul\":5282:5297   */\n      mstore\n        /* \"#utility.yul\":5316:5320   */\n      0x24\n        /* \"#utility.yul\":5313:5314   */\n      0x00\n        /* \"#utility.yul\":5306:5321   */\n      revert\n        /* \"#utility.yul\":5333:5524   */\n    tag_42:\n        /* \"#utility.yul\":5373:5376   */\n      0x00\n        /* \"#utility.yul\":5392:5412   */\n      tag_129\n        /* \"#utility.yul\":5410:5411   */\n      dup3\n        /* \"#utility.yul\":5392:5412   */\n      tag_70\n      jump\t// in\n    tag_129:\n        /* \"#utility.yul\":5387:5412   */\n      swap2\n      pop\n        /* \"#utility.yul\":5426:5446   */\n      tag_130\n        /* \"#utility.yul\":5444:5445   */\n      dup4\n        /* \"#utility.yul\":5426:5446   */\n      tag_70\n      jump\t// in\n    tag_130:\n        /* \"#utility.yul\":5421:5446   */\n      swap3\n      pop\n        /* \"#utility.yul\":5469:5470   */\n      dup3\n        /* \"#utility.yul\":5466:5467   */\n      dup3\n        /* \"#utility.yul\":5462:5471   */\n      add\n        /* \"#utility.yul\":5455:5471   */\n      swap1\n      pop\n        /* \"#utility.yul\":5490:5493   */\n      dup1\n        /* \"#utility.yul\":5487:5488   */\n      dup3\n        /* \"#utility.yul\":5484:5494   */\n      gt\n        /* \"#utility.yul\":5481:5517   */\n      iszero\n      tag_131\n      jumpi\n        /* \"#utility.yul\":5497:5515   */\n      tag_132\n      tag_81\n      jump\t// in\n    tag_132:\n        /* \"#utility.yul\":5481:5517   */\n    tag_131:\n        /* \"#utility.yul\":5333:5524   */\n      swap3\n      swap2\n      pop\n      pop\n      jump\t// out\n\n    auxdata: 0xa2646970667358221220cc72b73474a395ee46a1b54c03b323e9c39988f427a2bcf9e95887409da4b82764736f6c634300081f0033\n}\n",
				"bytecode": {
					"linkReferences": {},
					"object": "6080604052348015600e575f5ffd5b5060016029601f603360201b60201c565b605c60201b60201c565b5f01819055506065565b5f7f9b779b17422d0df92223018b32b4d1fa46e071723d6817e2486d003becc55f005f1b905090565b5f819050919050565b61061a806100725f395ff3fe60806040526004361061003e575f3560e01c806327e235e3146100425780633ccfd60b1461007e578063d0e30db014610094578063faa8aab11461009e575b5f5ffd5b34801561004d575f5ffd5b50610068600480360381019061006391906103df565b6100c8565b6040516100759190610422565b60405180910390f35b348015610089575f5ffd5b506100926100dc565b005b61009c61025b565b005b3480156100a9575f5ffd5b506100b26102af565b6040516100bf919061044a565b60405180910390f35b5f602052805f5260405f205f915090505481565b6100e46102b6565b5f5f5f3373ffffffffffffffffffffffffffffffffffffffff1673ffffffffffffffffffffffffffffffffffffffff1681526020019081526020015f205490505f8111610166576040517f08c379a000000000000000000000000000000000000000000000000000000000815260040161015d906104bd565b60405180910390fd5b5f3373ffffffffffffffffffffffffffffffffffffffff168260405161018b90610508565b5f6040518083038185875af1925050503d805f81146101c5576040519150601f19603f3d011682016040523d82523d5f602084013e6101ca565b606091505b505090508061020e576040517f08c379a000000000000000000000000000000000000000000000000000000000815260040161020590610566565b60405180910390fd5b5f5f5f3373ffffffffffffffffffffffffffffffffffffffff1673ffffffffffffffffffffffffffffffffffffffff1681526020019081526020015f208190555050506102596102d8565b565b345f5f3373ffffffffffffffffffffffffffffffffffffffff1673ffffffffffffffffffffffffffffffffffffffff1681526020019081526020015f205f8282546102a691906105b1565b92505081905550565b5f33905090565b6102be6102f2565b60026102d06102cb610333565b61035c565b5f0181905550565b60016102ea6102e5610333565b61035c565b5f0181905550565b6102fa610365565b15610331576040517f3ee5aeb500000000000000000000000000000000000000000000000000000000815260040160405180910390fd5b565b5f7f9b779b17422d0df92223018b32b4d1fa46e071723d6817e2486d003becc55f005f1b905090565b5f819050919050565b5f6002610378610373610333565b61035c565b5f015414905090565b5f5ffd5b5f73ffffffffffffffffffffffffffffffffffffffff82169050919050565b5f6103ae82610385565b9050919050565b6103be816103a4565b81146103c8575f5ffd5b50565b5f813590506103d9816103b5565b92915050565b5f602082840312156103f4576103f3610381565b5b5f610401848285016103cb565b91505092915050565b5f819050919050565b61041c8161040a565b82525050565b5f6020820190506104355f830184610413565b92915050565b610444816103a4565b82525050565b5f60208201905061045d5f83018461043b565b92915050565b5f82825260208201905092915050565b7f62616c616e6365206972207265717572696564202100000000000000000000005f82015250565b5f6104a7601583610463565b91506104b282610473565b602082019050919050565b5f6020820190508181035f8301526104d48161049b565b9050919050565b5f81905092915050565b50565b5f6104f35f836104db565b91506104fe826104e5565b5f82019050919050565b5f610512826104e8565b9150819050919050565b7f4661696c656420746f2073656e642045746865720000000000000000000000005f82015250565b5f610550601483610463565b915061055b8261051c565b602082019050919050565b5f6020820190508181035f83015261057d81610544565b9050919050565b7f4e487b71000000000000000000000000000000000000000000000000000000005f52601160045260245ffd5b5f6105bb8261040a565b91506105c68361040a565b92508282019050808211156105de576105dd610584565b5b9291505056fea2646970667358221220cc72b73474a395ee46a1b54c03b323e9c39988f427a2bcf9e95887409da4b82764736f6c634300081f0033",
					"opcodes": "PUSH1 0x80 PUSH1 0x40 MSTORE CALLVALUE DUP1 ISZERO PUSH1 0xE JUMPI PUSH0 PUSH0 REVERT JUMPDEST POP PUSH1 0x1 PUSH1 0x29 PUSH1 0x1F PUSH1 0x33 PUSH1 0x20 SHL PUSH1 0x20 SHR JUMP JUMPDEST PUSH1 0x5C PUSH1 0x20 SHL PUSH1 0x20 SHR JUMP JUMPDEST PUSH0 ADD DUP2 SWAP1 SSTORE POP PUSH1 0x65 JUMP JUMPDEST PUSH0 PUSH32 0x9B779B17422D0DF92223018B32B4D1FA46E071723D6817E2486D003BECC55F00 PUSH0 SHL SWAP1 POP SWAP1 JUMP JUMPDEST PUSH0 DUP2 SWAP1 POP SWAP2 SWAP1 POP JUMP JUMPDEST PUSH2 0x61A DUP1 PUSH2 0x72 PUSH0 CODECOPY PUSH0 RETURN INVALID PUSH1 0x80 PUSH1 0x40 MSTORE PUSH1 0x4 CALLDATASIZE LT PUSH2 0x3E JUMPI PUSH0 CALLDATALOAD PUSH1 0xE0 SHR DUP1 PUSH4 0x27E235E3 EQ PUSH2 0x42 JUMPI DUP1 PUSH4 0x3CCFD60B EQ PUSH2 0x7E JUMPI DUP1 PUSH4 0xD0E30DB0 EQ PUSH2 0x94 JUMPI DUP1 PUSH4 0xFAA8AAB1 EQ PUSH2 0x9E JUMPI JUMPDEST PUSH0 PUSH0 REVERT JUMPDEST CALLVALUE DUP1 ISZERO PUSH2 0x4D JUMPI PUSH0 PUSH0 REVERT JUMPDEST POP PUSH2 0x68 PUSH1 0x4 DUP1 CALLDATASIZE SUB DUP2 ADD SWAP1 PUSH2 0x63 SWAP2 SWAP1 PUSH2 0x3DF JUMP JUMPDEST PUSH2 0xC8 JUMP JUMPDEST PUSH1 0x40 MLOAD PUSH2 0x75 SWAP2 SWAP1 PUSH2 0x422 JUMP JUMPDEST PUSH1 0x40 MLOAD DUP1 SWAP2 SUB SWAP1 RETURN JUMPDEST CALLVALUE DUP1 ISZERO PUSH2 0x89 JUMPI PUSH0 PUSH0 REVERT JUMPDEST POP PUSH2 0x92 PUSH2 0xDC JUMP JUMPDEST STOP JUMPDEST PUSH2 0x9C PUSH2 0x25B JUMP JUMPDEST STOP JUMPDEST CALLVALUE DUP1 ISZERO PUSH2 0xA9 JUMPI PUSH0 PUSH0 REVERT JUMPDEST POP PUSH2 0xB2 PUSH2 0x2AF JUMP JUMPDEST PUSH1 0x40 MLOAD PUSH2 0xBF SWAP2 SWAP1 PUSH2 0x44A JUMP JUMPDEST PUSH1 0x40 MLOAD DUP1 SWAP2 SUB SWAP1 RETURN JUMPDEST PUSH0 PUSH1 0x20 MSTORE DUP1 PUSH0 MSTORE PUSH1 0x40 PUSH0 KECCAK256 PUSH0 SWAP2 POP SWAP1 POP SLOAD DUP2 JUMP JUMPDEST PUSH2 0xE4 PUSH2 0x2B6 JUMP JUMPDEST PUSH0 PUSH0 PUSH0 CALLER PUSH20 0xFFFFFFFFFFFFFFFFFFFFFFFFFFFFFFFFFFFFFFFF AND PUSH20 0xFFFFFFFFFFFFFFFFFFFFFFFFFFFFFFFFFFFFFFFF AND DUP2 MSTORE PUSH1 0x20 ADD SWAP1 DUP2 MSTORE PUSH1 0x20 ADD PUSH0 KECCAK256 SLOAD SWAP1 POP PUSH0 DUP2 GT PUSH2 0x166 JUMPI PUSH1 0x40 MLOAD PUSH32 0x8C379A000000000000000000000000000000000000000000000000000000000 DUP2 MSTORE PUSH1 0x4 ADD PUSH2 0x15D SWAP1 PUSH2 0x4BD JUMP JUMPDEST PUSH1 0x40 MLOAD DUP1 SWAP2 SUB SWAP1 REVERT JUMPDEST PUSH0 CALLER PUSH20 0xFFFFFFFFFFFFFFFFFFFFFFFFFFFFFFFFFFFFFFFF AND DUP3 PUSH1 0x40 MLOAD PUSH2 0x18B SWAP1 PUSH2 0x508 JUMP JUMPDEST PUSH0 PUSH1 0x40 MLOAD DUP1 DUP4 SUB DUP2 DUP6 DUP8 GAS CALL SWAP3 POP POP POP RETURNDATASIZE DUP1 PUSH0 DUP2 EQ PUSH2 0x1C5 JUMPI PUSH1 0x40 MLOAD SWAP2 POP PUSH1 0x1F NOT PUSH1 0x3F RETURNDATASIZE ADD AND DUP3 ADD PUSH1 0x40 MSTORE RETURNDATASIZE DUP3 MSTORE RETURNDATASIZE PUSH0 PUSH1 0x20 DUP5 ADD RETURNDATACOPY PUSH2 0x1CA JUMP JUMPDEST PUSH1 0x60 SWAP2 POP JUMPDEST POP POP SWAP1 POP DUP1 PUSH2 0x20E JUMPI PUSH1 0x40 MLOAD PUSH32 0x8C379A000000000000000000000000000000000000000000000000000000000 DUP2 MSTORE PUSH1 0x4 ADD PUSH2 0x205 SWAP1 PUSH2 0x566 JUMP JUMPDEST PUSH1 0x40 MLOAD DUP1 SWAP2 SUB SWAP1 REVERT JUMPDEST PUSH0 PUSH0 PUSH0 CALLER PUSH20 0xFFFFFFFFFFFFFFFFFFFFFFFFFFFFFFFFFFFFFFFF AND PUSH20 0xFFFFFFFFFFFFFFFFFFFFFFFFFFFFFFFFFFFFFFFF AND DUP2 MSTORE PUSH1 0x20 ADD SWAP1 DUP2 MSTORE PUSH1 0x20 ADD PUSH0 KECCAK256 DUP2 SWAP1 SSTORE POP POP POP PUSH2 0x259 PUSH2 0x2D8 JUMP JUMPDEST JUMP JUMPDEST CALLVALUE PUSH0 PUSH0 CALLER PUSH20 0xFFFFFFFFFFFFFFFFFFFFFFFFFFFFFFFFFFFFFFFF AND PUSH20 0xFFFFFFFFFFFFFFFFFFFFFFFFFFFFFFFFFFFFFFFF AND DUP2 MSTORE PUSH1 0x20 ADD SWAP1 DUP2 MSTORE PUSH1 0x20 ADD PUSH0 KECCAK256 PUSH0 DUP3 DUP3 SLOAD PUSH2 0x2A6 SWAP2 SWAP1 PUSH2 0x5B1 JUMP JUMPDEST SWAP3 POP POP DUP2 SWAP1 SSTORE POP JUMP JUMPDEST PUSH0 CALLER SWAP1 POP SWAP1 JUMP JUMPDEST PUSH2 0x2BE PUSH2 0x2F2 JUMP JUMPDEST PUSH1 0x2 PUSH2 0x2D0 PUSH2 0x2CB PUSH2 0x333 JUMP JUMPDEST PUSH2 0x35C JUMP JUMPDEST PUSH0 ADD DUP2 SWAP1 SSTORE POP JUMP JUMPDEST PUSH1 0x1 PUSH2 0x2EA PUSH2 0x2E5 PUSH2 0x333 JUMP JUMPDEST PUSH2 0x35C JUMP JUMPDEST PUSH0 ADD DUP2 SWAP1 SSTORE POP JUMP JUMPDEST PUSH2 0x2FA PUSH2 0x365 JUMP JUMPDEST ISZERO PUSH2 0x331 JUMPI PUSH1 0x40 MLOAD PUSH32 0x3EE5AEB500000000000000000000000000000000000000000000000000000000 DUP2 MSTORE PUSH1 0x4 ADD PUSH1 0x40 MLOAD DUP1 SWAP2 SUB SWAP1 REVERT JUMPDEST JUMP JUMPDEST PUSH0 PUSH32 0x9B779B17422D0DF92223018B32B4D1FA46E071723D6817E2486D003BECC55F00 PUSH0 SHL SWAP1 POP SWAP1 JUMP JUMPDEST PUSH0 DUP2 SWAP1 POP SWAP2 SWAP1 POP JUMP JUMPDEST PUSH0 PUSH1 0x2 PUSH2 0x378 PUSH2 0x373 PUSH2 0x333 JUMP JUMPDEST PUSH2 0x35C JUMP JUMPDEST PUSH0 ADD SLOAD EQ SWAP1 POP SWAP1 JUMP JUMPDEST PUSH0 PUSH0 REVERT JUMPDEST PUSH0 PUSH20 0xFFFFFFFFFFFFFFFFFFFFFFFFFFFFFFFFFFFFFFFF DUP3 AND SWAP1 POP SWAP2 SWAP1 POP JUMP JUMPDEST PUSH0 PUSH2 0x3AE DUP3 PUSH2 0x385 JUMP JUMPDEST SWAP1 POP SWAP2 SWAP1 POP JUMP JUMPDEST PUSH2 0x3BE DUP2 PUSH2 0x3A4 JUMP JUMPDEST DUP2 EQ PUSH2 0x3C8 JUMPI PUSH0 PUSH0 REVERT JUMPDEST POP JUMP JUMPDEST PUSH0 DUP2 CALLDATALOAD SWAP1 POP PUSH2 0x3D9 DUP2 PUSH2 0x3B5 JUMP JUMPDEST SWAP3 SWAP2 POP POP JUMP JUMPDEST PUSH0 PUSH1 0x20 DUP3 DUP5 SUB SLT ISZERO PUSH2 0x3F4 JUMPI PUSH2 0x3F3 PUSH2 0x381 JUMP JUMPDEST JUMPDEST PUSH0 PUSH2 0x401 DUP5 DUP3 DUP6 ADD PUSH2 0x3CB JUMP JUMPDEST SWAP2 POP POP SWAP3 SWAP2 POP POP JUMP JUMPDEST PUSH0 DUP2 SWAP1 POP SWAP2 SWAP1 POP JUMP JUMPDEST PUSH2 0x41C DUP2 PUSH2 0x40A JUMP JUMPDEST DUP3 MSTORE POP POP JUMP JUMPDEST PUSH0 PUSH1 0x20 DUP3 ADD SWAP1 POP PUSH2 0x435 PUSH0 DUP4 ADD DUP5 PUSH2 0x413 JUMP JUMPDEST SWAP3 SWAP2 POP POP JUMP JUMPDEST PUSH2 0x444 DUP2 PUSH2 0x3A4 JUMP JUMPDEST DUP3 MSTORE POP POP JUMP JUMPDEST PUSH0 PUSH1 0x20 DUP3 ADD SWAP1 POP PUSH2 0x45D PUSH0 DUP4 ADD DUP5 PUSH2 0x43B JUMP JUMPDEST SWAP3 SWAP2 POP POP JUMP JUMPDEST PUSH0 DUP3 DUP3 MSTORE PUSH1 0x20 DUP3 ADD SWAP1 POP SWAP3 SWAP2 POP POP JUMP JUMPDEST PUSH32 0x62616C616E636520697220726571757269656420210000000000000000000000 PUSH0 DUP3 ADD MSTORE POP JUMP JUMPDEST PUSH0 PUSH2 0x4A7 PUSH1 0x15 DUP4 PUSH2 0x463 JUMP JUMPDEST SWAP2 POP PUSH2 0x4B2 DUP3 PUSH2 0x473 JUMP JUMPDEST PUSH1 0x20 DUP3 ADD SWAP1 POP SWAP2 SWAP1 POP JUMP JUMPDEST PUSH0 PUSH1 0x20 DUP3 ADD SWAP1 POP DUP2 DUP2 SUB PUSH0 DUP4 ADD MSTORE PUSH2 0x4D4 DUP2 PUSH2 0x49B JUMP JUMPDEST SWAP1 POP SWAP2 SWAP1 POP JUMP JUMPDEST PUSH0 DUP2 SWAP1 POP SWAP3 SWAP2 POP POP JUMP JUMPDEST POP JUMP JUMPDEST PUSH0 PUSH2 0x4F3 PUSH0 DUP4 PUSH2 0x4DB JUMP JUMPDEST SWAP2 POP PUSH2 0x4FE DUP3 PUSH2 0x4E5 JUMP JUMPDEST PUSH0 DUP3 ADD SWAP1 POP SWAP2 SWAP1 POP JUMP JUMPDEST PUSH0 PUSH2 0x512 DUP3 PUSH2 0x4E8 JUMP JUMPDEST SWAP2 POP DUP2 SWAP1 POP SWAP2 SWAP1 POP JUMP JUMPDEST PUSH32 0x4661696C656420746F2073656E64204574686572000000000000000000000000 PUSH0 DUP3 ADD MSTORE POP JUMP JUMPDEST PUSH0 PUSH2 0x550 PUSH1 0x14 DUP4 PUSH2 0x463 JUMP JUMPDEST SWAP2 POP PUSH2 0x55B DUP3 PUSH2 0x51C JUMP JUMPDEST PUSH1 0x20 DUP3 ADD SWAP1 POP SWAP2 SWAP1 POP JUMP JUMPDEST PUSH0 PUSH1 0x20 DUP3 ADD SWAP1 POP DUP2 DUP2 SUB PUSH0 DUP4 ADD MSTORE PUSH2 0x57D DUP2 PUSH2 0x544 JUMP JUMPDEST SWAP1 POP SWAP2 SWAP1 POP JUMP JUMPDEST PUSH32 0x4E487B7100000000000000000000000000000000000000000000000000000000 PUSH0 MSTORE PUSH1 0x11 PUSH1 0x4 MSTORE PUSH1 0x24 PUSH0 REVERT JUMPDEST PUSH0 PUSH2 0x5BB DUP3 PUSH2 0x40A JUMP JUMPDEST SWAP2 POP PUSH2 0x5C6 DUP4 PUSH2 0x40A JUMP JUMPDEST SWAP3 POP DUP3 DUP3 ADD SWAP1 POP DUP1 DUP3 GT ISZERO PUSH2 0x5DE JUMPI PUSH2 0x5DD PUSH2 0x584 JUMP JUMPDEST JUMPDEST SWAP3 SWAP2 POP POP JUMP INVALID LOG2 PUSH5 0x6970667358 0x22 SLT KECCAK256 0xCC PUSH19 0xB73474A395EE46A1B54C03B323E9C39988F427 LOG2 0xBC EXTDELEGATECALL 0xE9 PC DUP8 BLOCKHASH SWAP14 LOG4 0xB8 0x27 PUSH5 0x736F6C6343 STOP ADDMOD 0x1F STOP CALLER "
				},
				"gasEstimates": {
					"creation": {
						"codeDepositCost": "312400",
						"executionCost": "infinite",
						"totalCost": "infinite"
					},
					"external": {
						"balances(address)": "2779",
						"callerAddress()": "423",
						"deposit()": "infinite",
						"withdraw()": "infinite"
					}
				},
				"methodIdentifiers": {
					"balances(address)": "27e235e3",
					"callerAddress()": "faa8aab1",
					"deposit()": "d0e30db0",
					"withdraw()": "3ccfd60b"
				}
			},
			"storageLayout": {
				"storage": [
					{
						"astId": 245,
						"contract": "contracts/Re-entrancy-Attacks/Vulnerable.sol:Vulnerable",
						"label": "balances",
						"offset": 0,
						"slot": "0",
						"type": "t_mapping(t_address,t_uint256)"
					}
				],
				"types": {
					"t_address": {
						"encoding": "inplace",
						"label": "address",
						"numberOfBytes": "20"
					},
					"t_mapping(t_address,t_uint256)": {
						"encoding": "mapping",
						"key": "t_address",
						"label": "mapping(address => uint256)",
						"numberOfBytes": "32",
						"value": "t_uint256"
					},
					"t_uint256": {
						"encoding": "inplace",
						"label": "uint256",
						"numberOfBytes": "32"
					}
				}
			},
			"userdoc": {
				"kind": "user",
				"methods": {},
				"version": 1
			}
		}
	}
}