{
	"contracts/TxOrigin/TxOrigin.sol": {
		"B": {
			"abi": [
				{
					"inputs": [
						{
							"internalType": "address",
							"name": "_cAddress",
							"type": "address"
						}
					],
					"stateMutability": "nonpayable",
					"type": "constructor"
				},
				{
					"inputs": [],
					"name": "cContract",
					"outputs": [
						{
							"internalType": "contract C",
							"name": "",
							"type": "address"
						}
					],
					"stateMutability": "view",
					"type": "function"
				},
				{
					"inputs": [],
					"name": "callC",
					"outputs": [
						{
							"internalType": "address",
							"name": "",
							"type": "address"
						},
						{
							"internalType": "address",
							"name": "",
							"type": "address"
						}
					],
					"stateMutability": "view",
					"type": "function"
				}
			],
			"devdoc": {
				"kind": "dev",
				"methods": {},
				"version": 1
			},
			"evm": {
				"assembly": "    /* \"contracts/TxOrigin/TxOrigin.sol\":390:636  contract B {... */\n  mstore(0x40, 0x80)\n    /* \"contracts/TxOrigin/TxOrigin.sol\":437:511  constructor(address _cAddress) {... */\n  callvalue\n  dup1\n  iszero\n  tag_1\n  jumpi\n  revert(0x00, 0x00)\ntag_1:\n  pop\n  mload(0x40)\n  sub(codesize, bytecodeSize)\n  dup1\n  bytecodeSize\n  dup4\n  codecopy\n  dup2\n  dup2\n  add\n  0x40\n  mstore\n  dup2\n  add\n  swap1\n  tag_2\n  swap2\n  swap1\n  tag_3\n  jump\t// in\ntag_2:\n    /* \"contracts/TxOrigin/TxOrigin.sol\":493:502  _cAddress */\n  dup1\n    /* \"contracts/TxOrigin/TxOrigin.sol\":479:488  cContract */\n  0x00\n  0x00\n    /* \"contracts/TxOrigin/TxOrigin.sol\":479:503  cContract = C(_cAddress) */\n  0x0100\n  exp\n  dup2\n  sload\n  dup2\n  0xffffffffffffffffffffffffffffffffffffffff\n  mul\n  not\n  and\n  swap1\n  dup4\n  0xffffffffffffffffffffffffffffffffffffffff\n  and\n  mul\n  or\n  swap1\n  sstore\n  pop\n    /* \"contracts/TxOrigin/TxOrigin.sol\":437:511  constructor(address _cAddress) {... */\n  pop\n    /* \"contracts/TxOrigin/TxOrigin.sol\":390:636  contract B {... */\n  jump(tag_6)\n    /* \"#utility.yul\":88:205   */\ntag_8:\n    /* \"#utility.yul\":197:198   */\n  0x00\n    /* \"#utility.yul\":194:195   */\n  0x00\n    /* \"#utility.yul\":187:199   */\n  revert\n    /* \"#utility.yul\":334:460   */\ntag_10:\n    /* \"#utility.yul\":371:378   */\n  0x00\n    /* \"#utility.yul\":411:453   */\n  0xffffffffffffffffffffffffffffffffffffffff\n    /* \"#utility.yul\":404:409   */\n  dup3\n    /* \"#utility.yul\":400:454   */\n  and\n    /* \"#utility.yul\":389:454   */\n  swap1\n  pop\n    /* \"#utility.yul\":334:460   */\n  swap2\n  swap1\n  pop\n  jump\t// out\n    /* \"#utility.yul\":466:562   */\ntag_11:\n    /* \"#utility.yul\":503:510   */\n  0x00\n    /* \"#utility.yul\":532:556   */\n  tag_20\n    /* \"#utility.yul\":550:555   */\n  dup3\n    /* \"#utility.yul\":532:556   */\n  tag_10\n  jump\t// in\ntag_20:\n    /* \"#utility.yul\":521:556   */\n  swap1\n  pop\n    /* \"#utility.yul\":466:562   */\n  swap2\n  swap1\n  pop\n  jump\t// out\n    /* \"#utility.yul\":568:690   */\ntag_12:\n    /* \"#utility.yul\":641:665   */\n  tag_22\n    /* \"#utility.yul\":659:664   */\n  dup2\n    /* \"#utility.yul\":641:665   */\n  tag_11\n  jump\t// in\ntag_22:\n    /* \"#utility.yul\":634:639   */\n  dup2\n    /* \"#utility.yul\":631:666   */\n  eq\n    /* \"#utility.yul\":621:684   */\n  tag_23\n  jumpi\n    /* \"#utility.yul\":680:681   */\n  0x00\n    /* \"#utility.yul\":677:678   */\n  0x00\n    /* \"#utility.yul\":670:682   */\n  revert\n    /* \"#utility.yul\":621:684   */\ntag_23:\n    /* \"#utility.yul\":568:690   */\n  pop\n  jump\t// out\n    /* \"#utility.yul\":696:839   */\ntag_13:\n    /* \"#utility.yul\":753:758   */\n  0x00\n    /* \"#utility.yul\":784:790   */\n  dup2\n    /* \"#utility.yul\":778:791   */\n  mload\n    /* \"#utility.yul\":769:791   */\n  swap1\n  pop\n    /* \"#utility.yul\":800:833   */\n  tag_25\n    /* \"#utility.yul\":827:832   */\n  dup2\n    /* \"#utility.yul\":800:833   */\n  tag_12\n  jump\t// in\ntag_25:\n    /* \"#utility.yul\":696:839   */\n  swap3\n  swap2\n  pop\n  pop\n  jump\t// out\n    /* \"#utility.yul\":845:1196   */\ntag_3:\n    /* \"#utility.yul\":915:921   */\n  0x00\n    /* \"#utility.yul\":964:966   */\n  0x20\n    /* \"#utility.yul\":952:961   */\n  dup3\n    /* \"#utility.yul\":943:950   */\n  dup5\n    /* \"#utility.yul\":939:962   */\n  sub\n    /* \"#utility.yul\":935:967   */\n  slt\n    /* \"#utility.yul\":932:1051   */\n  iszero\n  tag_27\n  jumpi\n    /* \"#utility.yul\":970:1049   */\n  tag_28\n  tag_8\n  jump\t// in\ntag_28:\n    /* \"#utility.yul\":932:1051   */\ntag_27:\n    /* \"#utility.yul\":1090:1091   */\n  0x00\n    /* \"#utility.yul\":1115:1179   */\n  tag_29\n    /* \"#utility.yul\":1171:1178   */\n  dup5\n    /* \"#utility.yul\":1162:1168   */\n  dup3\n    /* \"#utility.yul\":1151:1160   */\n  dup6\n    /* \"#utility.yul\":1147:1169   */\n  add\n    /* \"#utility.yul\":1115:1179   */\n  tag_13\n  jump\t// in\ntag_29:\n    /* \"#utility.yul\":1105:1179   */\n  swap2\n  pop\n    /* \"#utility.yul\":1061:1189   */\n  pop\n    /* \"#utility.yul\":845:1196   */\n  swap3\n  swap2\n  pop\n  pop\n  jump\t// out\n    /* \"contracts/TxOrigin/TxOrigin.sol\":390:636  contract B {... */\ntag_6:\n  dataSize(sub_0)\n  dup1\n  dataOffset(sub_0)\n  0x00\n  codecopy\n  0x00\n  return\nstop\n\nsub_0: assembly {\n        /* \"contracts/TxOrigin/TxOrigin.sol\":390:636  contract B {... */\n      mstore(0x40, 0x80)\n      callvalue\n      dup1\n      iszero\n      tag_1\n      jumpi\n      revert(0x00, 0x00)\n    tag_1:\n      pop\n      jumpi(tag_2, lt(calldatasize, 0x04))\n      shr(0xe0, calldataload(0x00))\n      dup1\n      0x58de5f04\n      eq\n      tag_3\n      jumpi\n      dup1\n      0xebc211d5\n      eq\n      tag_4\n      jumpi\n    tag_2:\n      revert(0x00, 0x00)\n        /* \"contracts/TxOrigin/TxOrigin.sol\":521:633  function callC() public view returns (address, address) {... */\n    tag_3:\n      tag_5\n      tag_6\n      jump\t// in\n    tag_5:\n      mload(0x40)\n      tag_7\n      swap3\n      swap2\n      swap1\n      tag_8\n      jump\t// in\n    tag_7:\n      mload(0x40)\n      dup1\n      swap2\n      sub\n      swap1\n      return\n        /* \"contracts/TxOrigin/TxOrigin.sol\":408:426  C public cContract */\n    tag_4:\n      tag_9\n      tag_10\n      jump\t// in\n    tag_9:\n      mload(0x40)\n      tag_11\n      swap2\n      swap1\n      tag_12\n      jump\t// in\n    tag_11:\n      mload(0x40)\n      dup1\n      swap2\n      sub\n      swap1\n      return\n        /* \"contracts/TxOrigin/TxOrigin.sol\":521:633  function callC() public view returns (address, address) {... */\n    tag_6:\n        /* \"contracts/TxOrigin/TxOrigin.sol\":559:566  address */\n      0x00\n        /* \"contracts/TxOrigin/TxOrigin.sol\":568:575  address */\n      0x00\n        /* \"contracts/TxOrigin/TxOrigin.sol\":595:604  cContract */\n      0x00\n      0x00\n      swap1\n      sload\n      swap1\n      0x0100\n      exp\n      swap1\n      div\n      0xffffffffffffffffffffffffffffffffffffffff\n      and\n        /* \"contracts/TxOrigin/TxOrigin.sol\":595:623  cContract.getOriginAndSender */\n      0xffffffffffffffffffffffffffffffffffffffff\n      and\n      0xd12c28f2\n        /* \"contracts/TxOrigin/TxOrigin.sol\":595:625  cContract.getOriginAndSender() */\n      mload(0x40)\n      dup2\n      0xffffffff\n      and\n      0xe0\n      shl\n      dup2\n      mstore\n      0x04\n      add\n      0x40\n      dup1\n      mload\n      dup1\n      dup4\n      sub\n      dup2\n      dup7\n      gas\n      staticcall\n      iszero\n      dup1\n      iszero\n      tag_15\n      jumpi\n      returndatacopy(0x00, 0x00, returndatasize)\n      revert(0x00, returndatasize)\n    tag_15:\n      pop\n      pop\n      pop\n      pop\n      mload(0x40)\n      returndatasize\n      not(0x1f)\n      0x1f\n      dup3\n      add\n      and\n      dup3\n      add\n      dup1\n      0x40\n      mstore\n      pop\n      dup2\n      add\n      swap1\n      tag_16\n      swap2\n      swap1\n      tag_17\n      jump\t// in\n    tag_16:\n        /* \"contracts/TxOrigin/TxOrigin.sol\":588:625  return cContract.getOriginAndSender() */\n      swap2\n      pop\n      swap2\n      pop\n        /* \"contracts/TxOrigin/TxOrigin.sol\":521:633  function callC() public view returns (address, address) {... */\n      swap1\n      swap2\n      jump\t// out\n        /* \"contracts/TxOrigin/TxOrigin.sol\":408:426  C public cContract */\n    tag_10:\n      0x00\n      0x00\n      swap1\n      sload\n      swap1\n      0x0100\n      exp\n      swap1\n      div\n      0xffffffffffffffffffffffffffffffffffffffff\n      and\n      dup2\n      jump\t// out\n        /* \"#utility.yul\":7:133   */\n    tag_18:\n        /* \"#utility.yul\":44:51   */\n      0x00\n        /* \"#utility.yul\":84:126   */\n      0xffffffffffffffffffffffffffffffffffffffff\n        /* \"#utility.yul\":77:82   */\n      dup3\n        /* \"#utility.yul\":73:127   */\n      and\n        /* \"#utility.yul\":62:127   */\n      swap1\n      pop\n        /* \"#utility.yul\":7:133   */\n      swap2\n      swap1\n      pop\n      jump\t// out\n        /* \"#utility.yul\":139:235   */\n    tag_19:\n        /* \"#utility.yul\":176:183   */\n      0x00\n        /* \"#utility.yul\":205:229   */\n      tag_34\n        /* \"#utility.yul\":223:228   */\n      dup3\n        /* \"#utility.yul\":205:229   */\n      tag_18\n      jump\t// in\n    tag_34:\n        /* \"#utility.yul\":194:229   */\n      swap1\n      pop\n        /* \"#utility.yul\":139:235   */\n      swap2\n      swap1\n      pop\n      jump\t// out\n        /* \"#utility.yul\":241:359   */\n    tag_20:\n        /* \"#utility.yul\":328:352   */\n      tag_36\n        /* \"#utility.yul\":346:351   */\n      dup2\n        /* \"#utility.yul\":328:352   */\n      tag_19\n      jump\t// in\n    tag_36:\n        /* \"#utility.yul\":323:326   */\n      dup3\n        /* \"#utility.yul\":316:353   */\n      mstore\n        /* \"#utility.yul\":241:359   */\n      pop\n      pop\n      jump\t// out\n        /* \"#utility.yul\":365:697   */\n    tag_8:\n        /* \"#utility.yul\":486:490   */\n      0x00\n        /* \"#utility.yul\":524:526   */\n      0x40\n        /* \"#utility.yul\":513:522   */\n      dup3\n        /* \"#utility.yul\":509:527   */\n      add\n        /* \"#utility.yul\":501:527   */\n      swap1\n      pop\n        /* \"#utility.yul\":537:608   */\n      tag_38\n        /* \"#utility.yul\":605:606   */\n      0x00\n        /* \"#utility.yul\":594:603   */\n      dup4\n        /* \"#utility.yul\":590:607   */\n      add\n        /* \"#utility.yul\":581:587   */\n      dup6\n        /* \"#utility.yul\":537:608   */\n      tag_20\n      jump\t// in\n    tag_38:\n        /* \"#utility.yul\":618:690   */\n      tag_39\n        /* \"#utility.yul\":686:688   */\n      0x20\n        /* \"#utility.yul\":675:684   */\n      dup4\n        /* \"#utility.yul\":671:689   */\n      add\n        /* \"#utility.yul\":662:668   */\n      dup5\n        /* \"#utility.yul\":618:690   */\n      tag_20\n      jump\t// in\n    tag_39:\n        /* \"#utility.yul\":365:697   */\n      swap4\n      swap3\n      pop\n      pop\n      pop\n      jump\t// out\n        /* \"#utility.yul\":703:763   */\n    tag_21:\n        /* \"#utility.yul\":731:734   */\n      0x00\n        /* \"#utility.yul\":752:757   */\n      dup2\n        /* \"#utility.yul\":745:757   */\n      swap1\n      pop\n        /* \"#utility.yul\":703:763   */\n      swap2\n      swap1\n      pop\n      jump\t// out\n        /* \"#utility.yul\":769:911   */\n    tag_22:\n        /* \"#utility.yul\":819:828   */\n      0x00\n        /* \"#utility.yul\":852:905   */\n      tag_42\n        /* \"#utility.yul\":870:904   */\n      tag_43\n        /* \"#utility.yul\":879:903   */\n      tag_44\n        /* \"#utility.yul\":897:902   */\n      dup5\n        /* \"#utility.yul\":879:903   */\n      tag_18\n      jump\t// in\n    tag_44:\n        /* \"#utility.yul\":870:904   */\n      tag_21\n      jump\t// in\n    tag_43:\n        /* \"#utility.yul\":852:905   */\n      tag_18\n      jump\t// in\n    tag_42:\n        /* \"#utility.yul\":839:905   */\n      swap1\n      pop\n        /* \"#utility.yul\":769:911   */\n      swap2\n      swap1\n      pop\n      jump\t// out\n        /* \"#utility.yul\":917:1043   */\n    tag_23:\n        /* \"#utility.yul\":967:976   */\n      0x00\n        /* \"#utility.yul\":1000:1037   */\n      tag_46\n        /* \"#utility.yul\":1031:1036   */\n      dup3\n        /* \"#utility.yul\":1000:1037   */\n      tag_22\n      jump\t// in\n    tag_46:\n        /* \"#utility.yul\":987:1037   */\n      swap1\n      pop\n        /* \"#utility.yul\":917:1043   */\n      swap2\n      swap1\n      pop\n      jump\t// out\n        /* \"#utility.yul\":1049:1183   */\n    tag_24:\n        /* \"#utility.yul\":1107:1116   */\n      0x00\n        /* \"#utility.yul\":1140:1177   */\n      tag_48\n        /* \"#utility.yul\":1171:1176   */\n      dup3\n        /* \"#utility.yul\":1140:1177   */\n      tag_23\n      jump\t// in\n    tag_48:\n        /* \"#utility.yul\":1127:1177   */\n      swap1\n      pop\n        /* \"#utility.yul\":1049:1183   */\n      swap2\n      swap1\n      pop\n      jump\t// out\n        /* \"#utility.yul\":1189:1336   */\n    tag_25:\n        /* \"#utility.yul\":1284:1329   */\n      tag_50\n        /* \"#utility.yul\":1323:1328   */\n      dup2\n        /* \"#utility.yul\":1284:1329   */\n      tag_24\n      jump\t// in\n    tag_50:\n        /* \"#utility.yul\":1279:1282   */\n      dup3\n        /* \"#utility.yul\":1272:1330   */\n      mstore\n        /* \"#utility.yul\":1189:1336   */\n      pop\n      pop\n      jump\t// out\n        /* \"#utility.yul\":1342:1580   */\n    tag_12:\n        /* \"#utility.yul\":1443:1447   */\n      0x00\n        /* \"#utility.yul\":1481:1483   */\n      0x20\n        /* \"#utility.yul\":1470:1479   */\n      dup3\n        /* \"#utility.yul\":1466:1484   */\n      add\n        /* \"#utility.yul\":1458:1484   */\n      swap1\n      pop\n        /* \"#utility.yul\":1494:1573   */\n      tag_52\n        /* \"#utility.yul\":1570:1571   */\n      0x00\n        /* \"#utility.yul\":1559:1568   */\n      dup4\n        /* \"#utility.yul\":1555:1572   */\n      add\n        /* \"#utility.yul\":1546:1552   */\n      dup5\n        /* \"#utility.yul\":1494:1573   */\n      tag_25\n      jump\t// in\n    tag_52:\n        /* \"#utility.yul\":1342:1580   */\n      swap3\n      swap2\n      pop\n      pop\n      jump\t// out\n        /* \"#utility.yul\":1667:1784   */\n    tag_27:\n        /* \"#utility.yul\":1776:1777   */\n      0x00\n        /* \"#utility.yul\":1773:1774   */\n      0x00\n        /* \"#utility.yul\":1766:1778   */\n      revert\n        /* \"#utility.yul\":1913:2035   */\n    tag_29:\n        /* \"#utility.yul\":1986:2010   */\n      tag_57\n        /* \"#utility.yul\":2004:2009   */\n      dup2\n        /* \"#utility.yul\":1986:2010   */\n      tag_19\n      jump\t// in\n    tag_57:\n        /* \"#utility.yul\":1979:1984   */\n      dup2\n        /* \"#utility.yul\":1976:2011   */\n      eq\n        /* \"#utility.yul\":1966:2029   */\n      tag_58\n      jumpi\n        /* \"#utility.yul\":2025:2026   */\n      0x00\n        /* \"#utility.yul\":2022:2023   */\n      0x00\n        /* \"#utility.yul\":2015:2027   */\n      revert\n        /* \"#utility.yul\":1966:2029   */\n    tag_58:\n        /* \"#utility.yul\":1913:2035   */\n      pop\n      jump\t// out\n        /* \"#utility.yul\":2041:2184   */\n    tag_30:\n        /* \"#utility.yul\":2098:2103   */\n      0x00\n        /* \"#utility.yul\":2129:2135   */\n      dup2\n        /* \"#utility.yul\":2123:2136   */\n      mload\n        /* \"#utility.yul\":2114:2136   */\n      swap1\n      pop\n        /* \"#utility.yul\":2145:2178   */\n      tag_60\n        /* \"#utility.yul\":2172:2177   */\n      dup2\n        /* \"#utility.yul\":2145:2178   */\n      tag_29\n      jump\t// in\n    tag_60:\n        /* \"#utility.yul\":2041:2184   */\n      swap3\n      swap2\n      pop\n      pop\n      jump\t// out\n        /* \"#utility.yul\":2190:2697   */\n    tag_17:\n        /* \"#utility.yul\":2269:2275   */\n      0x00\n        /* \"#utility.yul\":2277:2283   */\n      0x00\n        /* \"#utility.yul\":2326:2328   */\n      0x40\n        /* \"#utility.yul\":2314:2323   */\n      dup4\n        /* \"#utility.yul\":2305:2312   */\n      dup6\n        /* \"#utility.yul\":2301:2324   */\n      sub\n        /* \"#utility.yul\":2297:2329   */\n      slt\n        /* \"#utility.yul\":2294:2413   */\n      iszero\n      tag_62\n      jumpi\n        /* \"#utility.yul\":2332:2411   */\n      tag_63\n      tag_27\n      jump\t// in\n    tag_63:\n        /* \"#utility.yul\":2294:2413   */\n    tag_62:\n        /* \"#utility.yul\":2452:2453   */\n      0x00\n        /* \"#utility.yul\":2477:2541   */\n      tag_64\n        /* \"#utility.yul\":2533:2540   */\n      dup6\n        /* \"#utility.yul\":2524:2530   */\n      dup3\n        /* \"#utility.yul\":2513:2522   */\n      dup7\n        /* \"#utility.yul\":2509:2531   */\n      add\n        /* \"#utility.yul\":2477:2541   */\n      tag_30\n      jump\t// in\n    tag_64:\n        /* \"#utility.yul\":2467:2541   */\n      swap3\n      pop\n        /* \"#utility.yul\":2423:2551   */\n      pop\n        /* \"#utility.yul\":2590:2592   */\n      0x20\n        /* \"#utility.yul\":2616:2680   */\n      tag_65\n        /* \"#utility.yul\":2672:2679   */\n      dup6\n        /* \"#utility.yul\":2663:2669   */\n      dup3\n        /* \"#utility.yul\":2652:2661   */\n      dup7\n        /* \"#utility.yul\":2648:2670   */\n      add\n        /* \"#utility.yul\":2616:2680   */\n      tag_30\n      jump\t// in\n    tag_65:\n        /* \"#utility.yul\":2606:2680   */\n      swap2\n      pop\n        /* \"#utility.yul\":2561:2690   */\n      pop\n        /* \"#utility.yul\":2190:2697   */\n      swap3\n      pop\n      swap3\n      swap1\n      pop\n      jump\t// out\n\n    auxdata: 0xa2646970667358221220da3a0ff57537c513867423fd71a16921ff04fcf96a28f0f96f064f2be7812f7e64736f6c634300081f0033\n}\n",
				"bytecode": {
					"linkReferences": {},
					"object": "608060405234801561000f575f5ffd5b506040516103b73803806103b7833981810160405281019061003191906100d4565b805f5f6101000a81548173ffffffffffffffffffffffffffffffffffffffff021916908373ffffffffffffffffffffffffffffffffffffffff160217905550506100ff565b5f5ffd5b5f73ffffffffffffffffffffffffffffffffffffffff82169050919050565b5f6100a38261007a565b9050919050565b6100b381610099565b81146100bd575f5ffd5b50565b5f815190506100ce816100aa565b92915050565b5f602082840312156100e9576100e8610076565b5b5f6100f6848285016100c0565b91505092915050565b6102ab8061010c5f395ff3fe608060405234801561000f575f5ffd5b5060043610610034575f3560e01c806358de5f0414610038578063ebc211d514610057575b5f5ffd5b610040610075565b60405161004e92919061016e565b60405180910390f35b61005f61010b565b60405161006c91906101f0565b60405180910390f35b5f5f5f5f9054906101000a900473ffffffffffffffffffffffffffffffffffffffff1673ffffffffffffffffffffffffffffffffffffffff1663d12c28f26040518163ffffffff1660e01b81526004016040805180830381865afa1580156100df573d5f5f3e3d5ffd5b505050506040513d601f19601f820116820180604052508101906101039190610237565b915091509091565b5f5f9054906101000a900473ffffffffffffffffffffffffffffffffffffffff1681565b5f73ffffffffffffffffffffffffffffffffffffffff82169050919050565b5f6101588261012f565b9050919050565b6101688161014e565b82525050565b5f6040820190506101815f83018561015f565b61018e602083018461015f565b9392505050565b5f819050919050565b5f6101b86101b36101ae8461012f565b610195565b61012f565b9050919050565b5f6101c98261019e565b9050919050565b5f6101da826101bf565b9050919050565b6101ea816101d0565b82525050565b5f6020820190506102035f8301846101e1565b92915050565b5f5ffd5b6102168161014e565b8114610220575f5ffd5b50565b5f815190506102318161020d565b92915050565b5f5f6040838503121561024d5761024c610209565b5b5f61025a85828601610223565b925050602061026b85828601610223565b915050925092905056fea2646970667358221220da3a0ff57537c513867423fd71a16921ff04fcf96a28f0f96f064f2be7812f7e64736f6c634300081f0033",
					"opcodes": "PUSH1 0x80 PUSH1 0x40 MSTORE CALLVALUE DUP1 ISZERO PUSH2 0xF JUMPI PUSH0 PUSH0 REVERT JUMPDEST POP PUSH1 0x40 MLOAD PUSH2 0x3B7 CODESIZE SUB DUP1 PUSH2 0x3B7 DUP4 CODECOPY DUP2 DUP2 ADD PUSH1 0x40 MSTORE DUP2 ADD SWAP1 PUSH2 0x31 SWAP2 SWAP1 PUSH2 0xD4 JUMP JUMPDEST DUP1 PUSH0 PUSH0 PUSH2 0x100 EXP DUP2 SLOAD DUP2 PUSH20 0xFFFFFFFFFFFFFFFFFFFFFFFFFFFFFFFFFFFFFFFF MUL NOT AND SWAP1 DUP4 PUSH20 0xFFFFFFFFFFFFFFFFFFFFFFFFFFFFFFFFFFFFFFFF AND MUL OR SWAP1 SSTORE POP POP PUSH2 0xFF JUMP JUMPDEST PUSH0 PUSH0 REVERT JUMPDEST PUSH0 PUSH20 0xFFFFFFFFFFFFFFFFFFFFFFFFFFFFFFFFFFFFFFFF DUP3 AND SWAP1 POP SWAP2 SWAP1 POP JUMP JUMPDEST PUSH0 PUSH2 0xA3 DUP3 PUSH2 0x7A JUMP JUMPDEST SWAP1 POP SWAP2 SWAP1 POP JUMP JUMPDEST PUSH2 0xB3 DUP2 PUSH2 0x99 JUMP JUMPDEST DUP2 EQ PUSH2 0xBD JUMPI PUSH0 PUSH0 REVERT JUMPDEST POP JUMP JUMPDEST PUSH0 DUP2 MLOAD SWAP1 POP PUSH2 0xCE DUP2 PUSH2 0xAA JUMP JUMPDEST SWAP3 SWAP2 POP POP JUMP JUMPDEST PUSH0 PUSH1 0x20 DUP3 DUP5 SUB SLT ISZERO PUSH2 0xE9 JUMPI PUSH2 0xE8 PUSH2 0x76 JUMP JUMPDEST JUMPDEST PUSH0 PUSH2 0xF6 DUP5 DUP3 DUP6 ADD PUSH2 0xC0 JUMP JUMPDEST SWAP2 POP POP SWAP3 SWAP2 POP POP JUMP JUMPDEST PUSH2 0x2AB DUP1 PUSH2 0x10C PUSH0 CODECOPY PUSH0 RETURN INVALID PUSH1 0x80 PUSH1 0x40 MSTORE CALLVALUE DUP1 ISZERO PUSH2 0xF JUMPI PUSH0 PUSH0 REVERT JUMPDEST POP PUSH1 0x4 CALLDATASIZE LT PUSH2 0x34 JUMPI PUSH0 CALLDATALOAD PUSH1 0xE0 SHR DUP1 PUSH4 0x58DE5F04 EQ PUSH2 0x38 JUMPI DUP1 PUSH4 0xEBC211D5 EQ PUSH2 0x57 JUMPI JUMPDEST PUSH0 PUSH0 REVERT JUMPDEST PUSH2 0x40 PUSH2 0x75 JUMP JUMPDEST PUSH1 0x40 MLOAD PUSH2 0x4E SWAP3 SWAP2 SWAP1 PUSH2 0x16E JUMP JUMPDEST PUSH1 0x40 MLOAD DUP1 SWAP2 SUB SWAP1 RETURN JUMPDEST PUSH2 0x5F PUSH2 0x10B JUMP JUMPDEST PUSH1 0x40 MLOAD PUSH2 0x6C SWAP2 SWAP1 PUSH2 0x1F0 JUMP JUMPDEST PUSH1 0x40 MLOAD DUP1 SWAP2 SUB SWAP1 RETURN JUMPDEST PUSH0 PUSH0 PUSH0 PUSH0 SWAP1 SLOAD SWAP1 PUSH2 0x100 EXP SWAP1 DIV PUSH20 0xFFFFFFFFFFFFFFFFFFFFFFFFFFFFFFFFFFFFFFFF AND PUSH20 0xFFFFFFFFFFFFFFFFFFFFFFFFFFFFFFFFFFFFFFFF AND PUSH4 0xD12C28F2 PUSH1 0x40 MLOAD DUP2 PUSH4 0xFFFFFFFF AND PUSH1 0xE0 SHL DUP2 MSTORE PUSH1 0x4 ADD PUSH1 0x40 DUP1 MLOAD DUP1 DUP4 SUB DUP2 DUP7 GAS STATICCALL ISZERO DUP1 ISZERO PUSH2 0xDF JUMPI RETURNDATASIZE PUSH0 PUSH0 RETURNDATACOPY RETURNDATASIZE PUSH0 REVERT JUMPDEST POP POP POP POP PUSH1 0x40 MLOAD RETURNDATASIZE PUSH1 0x1F NOT PUSH1 0x1F DUP3 ADD AND DUP3 ADD DUP1 PUSH1 0x40 MSTORE POP DUP2 ADD SWAP1 PUSH2 0x103 SWAP2 SWAP1 PUSH2 0x237 JUMP JUMPDEST SWAP2 POP SWAP2 POP SWAP1 SWAP2 JUMP JUMPDEST PUSH0 PUSH0 SWAP1 SLOAD SWAP1 PUSH2 0x100 EXP SWAP1 DIV PUSH20 0xFFFFFFFFFFFFFFFFFFFFFFFFFFFFFFFFFFFFFFFF AND DUP2 JUMP JUMPDEST PUSH0 PUSH20 0xFFFFFFFFFFFFFFFFFFFFFFFFFFFFFFFFFFFFFFFF DUP3 AND SWAP1 POP SWAP2 SWAP1 POP JUMP JUMPDEST PUSH0 PUSH2 0x158 DUP3 PUSH2 0x12F JUMP JUMPDEST SWAP1 POP SWAP2 SWAP1 POP JUMP JUMPDEST PUSH2 0x168 DUP2 PUSH2 0x14E JUMP JUMPDEST DUP3 MSTORE POP POP JUMP JUMPDEST PUSH0 PUSH1 0x40 DUP3 ADD SWAP1 POP PUSH2 0x181 PUSH0 DUP4 ADD DUP6 PUSH2 0x15F JUMP JUMPDEST PUSH2 0x18E PUSH1 0x20 DUP4 ADD DUP5 PUSH2 0x15F JUMP JUMPDEST SWAP4 SWAP3 POP POP POP JUMP JUMPDEST PUSH0 DUP2 SWAP1 POP SWAP2 SWAP1 POP JUMP JUMPDEST PUSH0 PUSH2 0x1B8 PUSH2 0x1B3 PUSH2 0x1AE DUP5 PUSH2 0x12F JUMP JUMPDEST PUSH2 0x195 JUMP JUMPDEST PUSH2 0x12F JUMP JUMPDEST SWAP1 POP SWAP2 SWAP1 POP JUMP JUMPDEST PUSH0 PUSH2 0x1C9 DUP3 PUSH2 0x19E JUMP JUMPDEST SWAP1 POP SWAP2 SWAP1 POP JUMP JUMPDEST PUSH0 PUSH2 0x1DA DUP3 PUSH2 0x1BF JUMP JUMPDEST SWAP1 POP SWAP2 SWAP1 POP JUMP JUMPDEST PUSH2 0x1EA DUP2 PUSH2 0x1D0 JUMP JUMPDEST DUP3 MSTORE POP POP JUMP JUMPDEST PUSH0 PUSH1 0x20 DUP3 ADD SWAP1 POP PUSH2 0x203 PUSH0 DUP4 ADD DUP5 PUSH2 0x1E1 JUMP JUMPDEST SWAP3 SWAP2 POP POP JUMP JUMPDEST PUSH0 PUSH0 REVERT JUMPDEST PUSH2 0x216 DUP2 PUSH2 0x14E JUMP JUMPDEST DUP2 EQ PUSH2 0x220 JUMPI PUSH0 PUSH0 REVERT JUMPDEST POP JUMP JUMPDEST PUSH0 DUP2 MLOAD SWAP1 POP PUSH2 0x231 DUP2 PUSH2 0x20D JUMP JUMPDEST SWAP3 SWAP2 POP POP JUMP JUMPDEST PUSH0 PUSH0 PUSH1 0x40 DUP4 DUP6 SUB SLT ISZERO PUSH2 0x24D JUMPI PUSH2 0x24C PUSH2 0x209 JUMP JUMPDEST JUMPDEST PUSH0 PUSH2 0x25A DUP6 DUP3 DUP7 ADD PUSH2 0x223 JUMP JUMPDEST SWAP3 POP POP PUSH1 0x20 PUSH2 0x26B DUP6 DUP3 DUP7 ADD PUSH2 0x223 JUMP JUMPDEST SWAP2 POP POP SWAP3 POP SWAP3 SWAP1 POP JUMP INVALID LOG2 PUSH5 0x6970667358 0x22 SLT KECCAK256 0xDA GASPRICE 0xF CREATE2 PUSH22 0x37C513867423FD71A16921FF04FCF96A28F0F96F064F 0x2B SWAPN 0x81 0x2F PUSH31 0x64736F6C634300081F00330000000000000000000000000000000000000000 "
				},
				"gasEstimates": {
					"creation": {
						"codeDepositCost": "136600",
						"executionCost": "infinite",
						"totalCost": "infinite"
					},
					"external": {
						"cContract()": "infinite",
						"callC()": "infinite"
					}
				},
				"methodIdentifiers": {
					"cContract()": "ebc211d5",
					"callC()": "58de5f04"
				}
			},
			"storageLayout": {
				"storage": [
					{
						"astId": 32,
						"contract": "contracts/TxOrigin/TxOrigin.sol:B",
						"label": "cContract",
						"offset": 0,
						"slot": "0",
						"type": "t_contract(C)72"
					}
				],
				"types": {
					"t_contract(C)72": {
						"encoding": "inplace",
						"label": "contract C",
						"numberOfBytes": "20"
					}
				}
			},
			"userdoc": {
				"kind": "user",
				"methods": {},
				"version": 1
			}
		}
	}
}