{
	"contracts/sendMoeny.sol": {
		"SendMoney": {
			"abi": [
				{
					"inputs": [
						{
							"internalType": "address",
							"name": "_to",
							"type": "address"
						}
					],
					"name": "trnsfer",
					"outputs": [
						{
							"internalType": "bool",
							"name": "",
							"type": "bool"
						}
					],
					"stateMutability": "payable",
					"type": "function"
				}
			],
			"devdoc": {
				"kind": "dev",
				"methods": {},
				"version": 1
			},
			"evm": {
				"assembly": "    /* \"contracts/sendMoeny.sol\":61:246  contract SendMoney {... */\n  mstore(0x40, 0x80)\n  callvalue\n  dup1\n  iszero\n  tag_1\n  jumpi\n  revert(0x00, 0x00)\ntag_1:\n  pop\n  dataSize(sub_0)\n  dup1\n  dataOffset(sub_0)\n  0x00\n  codecopy\n  0x00\n  return\nstop\n\nsub_0: assembly {\n        /* \"contracts/sendMoeny.sol\":61:246  contract SendMoney {... */\n      mstore(0x40, 0x80)\n      jumpi(tag_1, lt(calldatasize, 0x04))\n      shr(0xe0, calldataload(0x00))\n      dup1\n      0x9e00064e\n      eq\n      tag_2\n      jumpi\n    tag_1:\n      revert(0x00, 0x00)\n        /* \"contracts/sendMoeny.sol\":93:239  function trnsfer(address _to) public payable  returns(bool){... */\n    tag_2:\n      tag_3\n      0x04\n      dup1\n      calldatasize\n      sub\n      dup2\n      add\n      swap1\n      tag_4\n      swap2\n      swap1\n      tag_5\n      jump\t// in\n    tag_4:\n      tag_6\n      jump\t// in\n    tag_3:\n      mload(0x40)\n      tag_7\n      swap2\n      swap1\n      tag_8\n      jump\t// in\n    tag_7:\n      mload(0x40)\n      dup1\n      swap2\n      sub\n      swap1\n      return\n    tag_6:\n        /* \"contracts/sendMoeny.sol\":147:151  bool */\n      0x00\n        /* \"contracts/sendMoeny.sol\":165:172  bool ok */\n      0x00\n        /* \"contracts/sendMoeny.sol\":179:182  _to */\n      dup3\n        /* \"contracts/sendMoeny.sol\":179:187  _to.call */\n      0xffffffffffffffffffffffffffffffffffffffff\n      and\n        /* \"contracts/sendMoeny.sol\":196:205  msg.value */\n      callvalue\n        /* \"contracts/sendMoeny.sol\":179:210  _to.call{value : msg.value}(\"\") */\n      mload(0x40)\n      tag_10\n      swap1\n      tag_11\n      jump\t// in\n    tag_10:\n      0x00\n      mload(0x40)\n      dup1\n      dup4\n      sub\n      dup2\n      dup6\n      dup8\n      gas\n      call\n      swap3\n      pop\n      pop\n      pop\n      returndatasize\n      dup1\n      0x00\n      dup2\n      eq\n      tag_14\n      jumpi\n      mload(0x40)\n      swap2\n      pop\n      and(add(returndatasize, 0x3f), not(0x1f))\n      dup3\n      add\n      0x40\n      mstore\n      returndatasize\n      dup3\n      mstore\n      returndatasize\n      0x00\n      0x20\n      dup5\n      add\n      returndatacopy\n      jump(tag_13)\n    tag_14:\n      0x60\n      swap2\n      pop\n    tag_13:\n      pop\n        /* \"contracts/sendMoeny.sol\":164:210  (bool ok , ) = _to.call{value : msg.value}(\"\") */\n      pop\n      swap1\n      pop\n        /* \"contracts/sendMoeny.sol\":230:232  ok */\n      dup1\n        /* \"contracts/sendMoeny.sol\":222:232  return  ok */\n      swap2\n      pop\n      pop\n        /* \"contracts/sendMoeny.sol\":93:239  function trnsfer(address _to) public payable  returns(bool){... */\n      swap2\n      swap1\n      pop\n      jump\t// out\n        /* \"#utility.yul\":88:205   */\n    tag_16:\n        /* \"#utility.yul\":197:198   */\n      0x00\n        /* \"#utility.yul\":194:195   */\n      0x00\n        /* \"#utility.yul\":187:199   */\n      revert\n        /* \"#utility.yul\":334:460   */\n    tag_18:\n        /* \"#utility.yul\":371:378   */\n      0x00\n        /* \"#utility.yul\":411:453   */\n      0xffffffffffffffffffffffffffffffffffffffff\n        /* \"#utility.yul\":404:409   */\n      dup3\n        /* \"#utility.yul\":400:454   */\n      and\n        /* \"#utility.yul\":389:454   */\n      swap1\n      pop\n        /* \"#utility.yul\":334:460   */\n      swap2\n      swap1\n      pop\n      jump\t// out\n        /* \"#utility.yul\":466:562   */\n    tag_19:\n        /* \"#utility.yul\":503:510   */\n      0x00\n        /* \"#utility.yul\":532:556   */\n      tag_33\n        /* \"#utility.yul\":550:555   */\n      dup3\n        /* \"#utility.yul\":532:556   */\n      tag_18\n      jump\t// in\n    tag_33:\n        /* \"#utility.yul\":521:556   */\n      swap1\n      pop\n        /* \"#utility.yul\":466:562   */\n      swap2\n      swap1\n      pop\n      jump\t// out\n        /* \"#utility.yul\":568:690   */\n    tag_20:\n        /* \"#utility.yul\":641:665   */\n      tag_35\n        /* \"#utility.yul\":659:664   */\n      dup2\n        /* \"#utility.yul\":641:665   */\n      tag_19\n      jump\t// in\n    tag_35:\n        /* \"#utility.yul\":634:639   */\n      dup2\n        /* \"#utility.yul\":631:666   */\n      eq\n        /* \"#utility.yul\":621:684   */\n      tag_36\n      jumpi\n        /* \"#utility.yul\":680:681   */\n      0x00\n        /* \"#utility.yul\":677:678   */\n      0x00\n        /* \"#utility.yul\":670:682   */\n      revert\n        /* \"#utility.yul\":621:684   */\n    tag_36:\n        /* \"#utility.yul\":568:690   */\n      pop\n      jump\t// out\n        /* \"#utility.yul\":696:835   */\n    tag_21:\n        /* \"#utility.yul\":742:747   */\n      0x00\n        /* \"#utility.yul\":780:786   */\n      dup2\n        /* \"#utility.yul\":767:787   */\n      calldataload\n        /* \"#utility.yul\":758:787   */\n      swap1\n      pop\n        /* \"#utility.yul\":796:829   */\n      tag_38\n        /* \"#utility.yul\":823:828   */\n      dup2\n        /* \"#utility.yul\":796:829   */\n      tag_20\n      jump\t// in\n    tag_38:\n        /* \"#utility.yul\":696:835   */\n      swap3\n      swap2\n      pop\n      pop\n      jump\t// out\n        /* \"#utility.yul\":841:1170   */\n    tag_5:\n        /* \"#utility.yul\":900:906   */\n      0x00\n        /* \"#utility.yul\":949:951   */\n      0x20\n        /* \"#utility.yul\":937:946   */\n      dup3\n        /* \"#utility.yul\":928:935   */\n      dup5\n        /* \"#utility.yul\":924:947   */\n      sub\n        /* \"#utility.yul\":920:952   */\n      slt\n        /* \"#utility.yul\":917:1036   */\n      iszero\n      tag_40\n      jumpi\n        /* \"#utility.yul\":955:1034   */\n      tag_41\n      tag_16\n      jump\t// in\n    tag_41:\n        /* \"#utility.yul\":917:1036   */\n    tag_40:\n        /* \"#utility.yul\":1075:1076   */\n      0x00\n        /* \"#utility.yul\":1100:1153   */\n      tag_42\n        /* \"#utility.yul\":1145:1152   */\n      dup5\n        /* \"#utility.yul\":1136:1142   */\n      dup3\n        /* \"#utility.yul\":1125:1134   */\n      dup6\n        /* \"#utility.yul\":1121:1143   */\n      add\n        /* \"#utility.yul\":1100:1153   */\n      tag_21\n      jump\t// in\n    tag_42:\n        /* \"#utility.yul\":1090:1153   */\n      swap2\n      pop\n        /* \"#utility.yul\":1046:1163   */\n      pop\n        /* \"#utility.yul\":841:1170   */\n      swap3\n      swap2\n      pop\n      pop\n      jump\t// out\n        /* \"#utility.yul\":1176:1266   */\n    tag_22:\n        /* \"#utility.yul\":1210:1217   */\n      0x00\n        /* \"#utility.yul\":1253:1258   */\n      dup2\n        /* \"#utility.yul\":1246:1259   */\n      iszero\n        /* \"#utility.yul\":1239:1260   */\n      iszero\n        /* \"#utility.yul\":1228:1260   */\n      swap1\n      pop\n        /* \"#utility.yul\":1176:1266   */\n      swap2\n      swap1\n      pop\n      jump\t// out\n        /* \"#utility.yul\":1272:1381   */\n    tag_23:\n        /* \"#utility.yul\":1353:1374   */\n      tag_45\n        /* \"#utility.yul\":1368:1373   */\n      dup2\n        /* \"#utility.yul\":1353:1374   */\n      tag_22\n      jump\t// in\n    tag_45:\n        /* \"#utility.yul\":1348:1351   */\n      dup3\n        /* \"#utility.yul\":1341:1375   */\n      mstore\n        /* \"#utility.yul\":1272:1381   */\n      pop\n      pop\n      jump\t// out\n        /* \"#utility.yul\":1387:1597   */\n    tag_8:\n        /* \"#utility.yul\":1474:1478   */\n      0x00\n        /* \"#utility.yul\":1512:1514   */\n      0x20\n        /* \"#utility.yul\":1501:1510   */\n      dup3\n        /* \"#utility.yul\":1497:1515   */\n      add\n        /* \"#utility.yul\":1489:1515   */\n      swap1\n      pop\n        /* \"#utility.yul\":1525:1590   */\n      tag_47\n        /* \"#utility.yul\":1587:1588   */\n      0x00\n        /* \"#utility.yul\":1576:1585   */\n      dup4\n        /* \"#utility.yul\":1572:1589   */\n      add\n        /* \"#utility.yul\":1563:1569   */\n      dup5\n        /* \"#utility.yul\":1525:1590   */\n      tag_23\n      jump\t// in\n    tag_47:\n        /* \"#utility.yul\":1387:1597   */\n      swap3\n      swap2\n      pop\n      pop\n      jump\t// out\n        /* \"#utility.yul\":1603:1750   */\n    tag_24:\n        /* \"#utility.yul\":1704:1715   */\n      0x00\n        /* \"#utility.yul\":1741:1744   */\n      dup2\n        /* \"#utility.yul\":1726:1744   */\n      swap1\n      pop\n        /* \"#utility.yul\":1603:1750   */\n      swap3\n      swap2\n      pop\n      pop\n      jump\t// out\n        /* \"#utility.yul\":1756:1870   */\n    tag_25:\n      pop\n      jump\t// out\n        /* \"#utility.yul\":1876:2274   */\n    tag_26:\n        /* \"#utility.yul\":2035:2038   */\n      0x00\n        /* \"#utility.yul\":2056:2139   */\n      tag_51\n        /* \"#utility.yul\":2137:2138   */\n      0x00\n        /* \"#utility.yul\":2132:2135   */\n      dup4\n        /* \"#utility.yul\":2056:2139   */\n      tag_24\n      jump\t// in\n    tag_51:\n        /* \"#utility.yul\":2049:2139   */\n      swap2\n      pop\n        /* \"#utility.yul\":2148:2241   */\n      tag_52\n        /* \"#utility.yul\":2237:2240   */\n      dup3\n        /* \"#utility.yul\":2148:2241   */\n      tag_25\n      jump\t// in\n    tag_52:\n        /* \"#utility.yul\":2266:2267   */\n      0x00\n        /* \"#utility.yul\":2261:2264   */\n      dup3\n        /* \"#utility.yul\":2257:2268   */\n      add\n        /* \"#utility.yul\":2250:2268   */\n      swap1\n      pop\n        /* \"#utility.yul\":1876:2274   */\n      swap2\n      swap1\n      pop\n      jump\t// out\n        /* \"#utility.yul\":2280:2659   */\n    tag_11:\n        /* \"#utility.yul\":2464:2467   */\n      0x00\n        /* \"#utility.yul\":2486:2633   */\n      tag_54\n        /* \"#utility.yul\":2629:2632   */\n      dup3\n        /* \"#utility.yul\":2486:2633   */\n      tag_26\n      jump\t// in\n    tag_54:\n        /* \"#utility.yul\":2479:2633   */\n      swap2\n      pop\n        /* \"#utility.yul\":2650:2653   */\n      dup2\n        /* \"#utility.yul\":2643:2653   */\n      swap1\n      pop\n        /* \"#utility.yul\":2280:2659   */\n      swap2\n      swap1\n      pop\n      jump\t// out\n\n    auxdata: 0xa2646970667358221220ede9ac318cee5a90fb9d63ab11d0764a0f0f401aa9b15e026adcd2cd6d5f7b0464736f6c634300081f0033\n}\n",
				"bytecode": {
					"linkReferences": {},
					"object": "6080604052348015600e575f5ffd5b506101f68061001c5f395ff3fe60806040526004361061001d575f3560e01c80639e00064e14610021575b5f5ffd5b61003b60048036038101906100369190610121565b610051565b6040516100489190610166565b60405180910390f35b5f5f8273ffffffffffffffffffffffffffffffffffffffff1634604051610077906101ac565b5f6040518083038185875af1925050503d805f81146100b1576040519150601f19603f3d011682016040523d82523d5f602084013e6100b6565b606091505b5050905080915050919050565b5f5ffd5b5f73ffffffffffffffffffffffffffffffffffffffff82169050919050565b5f6100f0826100c7565b9050919050565b610100816100e6565b811461010a575f5ffd5b50565b5f8135905061011b816100f7565b92915050565b5f60208284031215610136576101356100c3565b5b5f6101438482850161010d565b91505092915050565b5f8115159050919050565b6101608161014c565b82525050565b5f6020820190506101795f830184610157565b92915050565b5f81905092915050565b50565b5f6101975f8361017f565b91506101a282610189565b5f82019050919050565b5f6101b68261018c565b915081905091905056fea2646970667358221220ede9ac318cee5a90fb9d63ab11d0764a0f0f401aa9b15e026adcd2cd6d5f7b0464736f6c634300081f0033",
					"opcodes": "PUSH1 0x80 PUSH1 0x40 MSTORE CALLVALUE DUP1 ISZERO PUSH1 0xE JUMPI PUSH0 PUSH0 REVERT JUMPDEST POP PUSH2 0x1F6 DUP1 PUSH2 0x1C PUSH0 CODECOPY PUSH0 RETURN INVALID PUSH1 0x80 PUSH1 0x40 MSTORE PUSH1 0x4 CALLDATASIZE LT PUSH2 0x1D JUMPI PUSH0 CALLDATALOAD PUSH1 0xE0 SHR DUP1 PUSH4 0x9E00064E EQ PUSH2 0x21 JUMPI JUMPDEST PUSH0 PUSH0 REVERT JUMPDEST PUSH2 0x3B PUSH1 0x4 DUP1 CALLDATASIZE SUB DUP2 ADD SWAP1 PUSH2 0x36 SWAP2 SWAP1 PUSH2 0x121 JUMP JUMPDEST PUSH2 0x51 JUMP JUMPDEST PUSH1 0x40 MLOAD PUSH2 0x48 SWAP2 SWAP1 PUSH2 0x166 JUMP JUMPDEST PUSH1 0x40 MLOAD DUP1 SWAP2 SUB SWAP1 RETURN JUMPDEST PUSH0 PUSH0 DUP3 PUSH20 0xFFFFFFFFFFFFFFFFFFFFFFFFFFFFFFFFFFFFFFFF AND CALLVALUE PUSH1 0x40 MLOAD PUSH2 0x77 SWAP1 PUSH2 0x1AC JUMP JUMPDEST PUSH0 PUSH1 0x40 MLOAD DUP1 DUP4 SUB DUP2 DUP6 DUP8 GAS CALL SWAP3 POP POP POP RETURNDATASIZE DUP1 PUSH0 DUP2 EQ PUSH2 0xB1 JUMPI PUSH1 0x40 MLOAD SWAP2 POP PUSH1 0x1F NOT PUSH1 0x3F RETURNDATASIZE ADD AND DUP3 ADD PUSH1 0x40 MSTORE RETURNDATASIZE DUP3 MSTORE RETURNDATASIZE PUSH0 PUSH1 0x20 DUP5 ADD RETURNDATACOPY PUSH2 0xB6 JUMP JUMPDEST PUSH1 0x60 SWAP2 POP JUMPDEST POP POP SWAP1 POP DUP1 SWAP2 POP POP SWAP2 SWAP1 POP JUMP JUMPDEST PUSH0 PUSH0 REVERT JUMPDEST PUSH0 PUSH20 0xFFFFFFFFFFFFFFFFFFFFFFFFFFFFFFFFFFFFFFFF DUP3 AND SWAP1 POP SWAP2 SWAP1 POP JUMP JUMPDEST PUSH0 PUSH2 0xF0 DUP3 PUSH2 0xC7 JUMP JUMPDEST SWAP1 POP SWAP2 SWAP1 POP JUMP JUMPDEST PUSH2 0x100 DUP2 PUSH2 0xE6 JUMP JUMPDEST DUP2 EQ PUSH2 0x10A JUMPI PUSH0 PUSH0 REVERT JUMPDEST POP JUMP JUMPDEST PUSH0 DUP2 CALLDATALOAD SWAP1 POP PUSH2 0x11B DUP2 PUSH2 0xF7 JUMP JUMPDEST SWAP3 SWAP2 POP POP JUMP JUMPDEST PUSH0 PUSH1 0x20 DUP3 DUP5 SUB SLT ISZERO PUSH2 0x136 JUMPI PUSH2 0x135 PUSH2 0xC3 JUMP JUMPDEST JUMPDEST PUSH0 PUSH2 0x143 DUP5 DUP3 DUP6 ADD PUSH2 0x10D JUMP JUMPDEST SWAP2 POP POP SWAP3 SWAP2 POP POP JUMP JUMPDEST PUSH0 DUP2 ISZERO ISZERO SWAP1 POP SWAP2 SWAP1 POP JUMP JUMPDEST PUSH2 0x160 DUP2 PUSH2 0x14C JUMP JUMPDEST DUP3 MSTORE POP POP JUMP JUMPDEST PUSH0 PUSH1 0x20 DUP3 ADD SWAP1 POP PUSH2 0x179 PUSH0 DUP4 ADD DUP5 PUSH2 0x157 JUMP JUMPDEST SWAP3 SWAP2 POP POP JUMP JUMPDEST PUSH0 DUP2 SWAP1 POP SWAP3 SWAP2 POP POP JUMP JUMPDEST POP JUMP JUMPDEST PUSH0 PUSH2 0x197 PUSH0 DUP4 PUSH2 0x17F JUMP JUMPDEST SWAP2 POP PUSH2 0x1A2 DUP3 PUSH2 0x189 JUMP JUMPDEST PUSH0 DUP3 ADD SWAP1 POP SWAP2 SWAP1 POP JUMP JUMPDEST PUSH0 PUSH2 0x1B6 DUP3 PUSH2 0x18C JUMP JUMPDEST SWAP2 POP DUP2 SWAP1 POP SWAP2 SWAP1 POP JUMP INVALID LOG2 PUSH5 0x6970667358 0x22 SLT KECCAK256 0xED 0xE9 0xAC BALANCE DUP13 RETURNCONTRACT 0x5A SWAP1 EXTSTATICCALL SWAP14 PUSH4 0xAB11D076 BLOBBASEFEE 0xF 0xF BLOCKHASH BYTE 0xA9 0xB1 MCOPY MUL PUSH11 0xDCD2CD6D5F7B0464736F6C PUSH4 0x4300081F STOP CALLER "
				},
				"gasEstimates": {
					"creation": {
						"codeDepositCost": "100400",
						"executionCost": "145",
						"totalCost": "100545"
					},
					"external": {
						"trnsfer(address)": "infinite"
					}
				},
				"methodIdentifiers": {
					"trnsfer(address)": "9e00064e"
				}
			},
			"storageLayout": {
				"storage": [],
				"types": null
			},
			"userdoc": {
				"kind": "user",
				"methods": {},
				"version": 1
			}
		}
	}
}