{
	"contracts/_SimpleWallet.sol": {
		"SimpleWallet": {
			"abi": [
				{
					"inputs": [],
					"stateMutability": "nonpayable",
					"type": "constructor"
				},
				{
					"inputs": [
						{
							"internalType": "string",
							"name": "",
							"type": "string"
						}
					],
					"name": "NotAuthorized",
					"type": "error"
				},
				{
					"anonymous": false,
					"inputs": [
						{
							"indexed": false,
							"internalType": "address",
							"name": "sender",
							"type": "address"
						},
						{
							"indexed": false,
							"internalType": "uint256",
							"name": "amounth",
							"type": "uint256"
						}
					],
					"name": "Receive",
					"type": "event"
				},
				{
					"anonymous": false,
					"inputs": [
						{
							"indexed": false,
							"internalType": "address",
							"name": "user",
							"type": "address"
						},
						{
							"indexed": false,
							"internalType": "uint256",
							"name": "amounth",
							"type": "uint256"
						}
					],
					"name": "Transfer",
					"type": "event"
				},
				{
					"stateMutability": "payable",
					"type": "fallback"
				},
				{
					"inputs": [
						{
							"internalType": "address",
							"name": "newOwner",
							"type": "address"
						}
					],
					"name": "changOwner",
					"outputs": [],
					"stateMutability": "nonpayable",
					"type": "function"
				},
				{
					"inputs": [],
					"name": "emergencyWithdrawl",
					"outputs": [],
					"stateMutability": "nonpayable",
					"type": "function"
				},
				{
					"inputs": [],
					"name": "getContractBalanceInWei",
					"outputs": [
						{
							"internalType": "uint256",
							"name": "",
							"type": "uint256"
						}
					],
					"stateMutability": "view",
					"type": "function"
				},
				{
					"inputs": [],
					"name": "getOwnerBalanceInWei",
					"outputs": [
						{
							"internalType": "uint256",
							"name": "",
							"type": "uint256"
						}
					],
					"stateMutability": "view",
					"type": "function"
				},
				{
					"inputs": [],
					"name": "getTransactionHistory",
					"outputs": [
						{
							"components": [
								{
									"internalType": "address",
									"name": "to",
									"type": "address"
								},
								{
									"internalType": "address",
									"name": "send",
									"type": "address"
								},
								{
									"internalType": "uint256",
									"name": "timestamp",
									"type": "uint256"
								},
								{
									"internalType": "uint256",
									"name": "amount",
									"type": "uint256"
								}
							],
							"internalType": "struct SimpleWallet.Transaction[]",
							"name": "",
							"type": "tuple[]"
						}
					],
					"stateMutability": "view",
					"type": "function"
				},
				{
					"inputs": [],
					"name": "message",
					"outputs": [
						{
							"internalType": "string",
							"name": "",
							"type": "string"
						}
					],
					"stateMutability": "view",
					"type": "function"
				},
				{
					"inputs": [],
					"name": "newval",
					"outputs": [
						{
							"internalType": "uint256",
							"name": "",
							"type": "uint256"
						}
					],
					"stateMutability": "view",
					"type": "function"
				},
				{
					"inputs": [],
					"name": "old",
					"outputs": [
						{
							"internalType": "uint256",
							"name": "",
							"type": "uint256"
						}
					],
					"stateMutability": "view",
					"type": "function"
				},
				{
					"inputs": [],
					"name": "owner",
					"outputs": [
						{
							"internalType": "address",
							"name": "",
							"type": "address"
						}
					],
					"stateMutability": "view",
					"type": "function"
				},
				{
					"inputs": [],
					"name": "receiveFromUser",
					"outputs": [],
					"stateMutability": "payable",
					"type": "function"
				},
				{
					"inputs": [
						{
							"internalType": "address",
							"name": "_sender",
							"type": "address"
						}
					],
					"name": "suspiciousActivity",
					"outputs": [],
					"stateMutability": "nonpayable",
					"type": "function"
				},
				{
					"inputs": [],
					"name": "toggleStop",
					"outputs": [],
					"stateMutability": "nonpayable",
					"type": "function"
				},
				{
					"inputs": [
						{
							"internalType": "uint256",
							"name": "",
							"type": "uint256"
						}
					],
					"name": "transcationHistory",
					"outputs": [
						{
							"internalType": "address",
							"name": "to",
							"type": "address"
						},
						{
							"internalType": "address",
							"name": "send",
							"type": "address"
						},
						{
							"internalType": "uint256",
							"name": "timestamp",
							"type": "uint256"
						},
						{
							"internalType": "uint256",
							"name": "amount",
							"type": "uint256"
						}
					],
					"stateMutability": "view",
					"type": "function"
				},
				{
					"inputs": [],
					"name": "transferToContract",
					"outputs": [],
					"stateMutability": "payable",
					"type": "function"
				},
				{
					"inputs": [
						{
							"internalType": "address payable",
							"name": "_to",
							"type": "address"
						},
						{
							"internalType": "uint256",
							"name": "_weiAmount",
							"type": "uint256"
						}
					],
					"name": "transferToUserViaContract",
					"outputs": [],
					"stateMutability": "nonpayable",
					"type": "function"
				},
				{
					"inputs": [
						{
							"internalType": "address payable",
							"name": "_to",
							"type": "address"
						}
					],
					"name": "transferToUserViaMsgValue",
					"outputs": [],
					"stateMutability": "payable",
					"type": "function"
				},
				{
					"inputs": [
						{
							"internalType": "uint256",
							"name": "_weiAmount",
							"type": "uint256"
						}
					],
					"name": "withdrawFromContract",
					"outputs": [],
					"stateMutability": "nonpayable",
					"type": "function"
				},
				{
					"stateMutability": "payable",
					"type": "receive"
				}
			],
			"devdoc": {
				"kind": "dev",
				"methods": {},
				"version": 1
			},
			"evm": {
				"assembly": "    /* \"contracts/_SimpleWallet.sol\":155:4877  contract SimpleWallet {... */\n  mstore(0x40, 0x80)\n    /* \"contracts/_SimpleWallet.sol\":579:584  false */\n  0x00\n    /* \"contracts/_SimpleWallet.sol\":567:584  bool stop = false */\n  0x05\n  exp(0x0100, 0x00)\n  dup2\n  sload\n  dup2\n  0xff\n  mul\n  not\n  and\n  swap1\n  dup4\n  iszero\n  iszero\n  mul\n  or\n  swap1\n  sstore\n  pop\n    /* \"contracts/_SimpleWallet.sol\":745:794  constructor(){... */\n  callvalue\n  dup1\n  iszero\n  tag_1\n  jumpi\n  revert(0x00, 0x00)\ntag_1:\n  pop\n    /* \"contracts/_SimpleWallet.sol\":776:786  msg.sender */\n  caller\n    /* \"contracts/_SimpleWallet.sol\":768:773  owner */\n  0x01\n  0x00\n    /* \"contracts/_SimpleWallet.sol\":768:786  owner = msg.sender */\n  0x0100\n  exp\n  dup2\n  sload\n  dup2\n  0xffffffffffffffffffffffffffffffffffffffff\n  mul\n  not\n  and\n  swap1\n  dup4\n  0xffffffffffffffffffffffffffffffffffffffff\n  and\n  mul\n  or\n  swap1\n  sstore\n  pop\n    /* \"contracts/_SimpleWallet.sol\":155:4877  contract SimpleWallet {... */\n  dataSize(sub_0)\n  dup1\n  dataOffset(sub_0)\n  0x00\n  codecopy\n  0x00\n  return\nstop\n\nsub_0: assembly {\n        /* \"contracts/_SimpleWallet.sol\":155:4877  contract SimpleWallet {... */\n      mstore(0x40, 0x80)\n      jumpi(tag_1, lt(calldatasize, 0x04))\n      shr(0xe0, calldataload(0x00))\n      dup1\n      0xa299ed99\n      gt\n      tag_20\n      jumpi\n      dup1\n      0xbfa698de\n      gt\n      tag_21\n      jumpi\n      dup1\n      0xbfa698de\n      eq\n      tag_15\n      jumpi\n      dup1\n      0xcf87f052\n      eq\n      tag_16\n      jumpi\n      dup1\n      0xd2b53948\n      eq\n      tag_17\n      jumpi\n      dup1\n      0xe21f37ce\n      eq\n      tag_18\n      jumpi\n      dup1\n      0xeb2d9fd3\n      eq\n      tag_19\n      jumpi\n      jump(tag_2)\n    tag_21:\n      dup1\n      0xa299ed99\n      eq\n      tag_11\n      jumpi\n      dup1\n      0xaeae547d\n      eq\n      tag_12\n      jumpi\n      dup1\n      0xb76d4fc3\n      eq\n      tag_13\n      jumpi\n      dup1\n      0xb83f8663\n      eq\n      tag_14\n      jumpi\n      jump(tag_2)\n    tag_20:\n      dup1\n      0x7935e5a3\n      gt\n      tag_22\n      jumpi\n      dup1\n      0x7935e5a3\n      eq\n      tag_7\n      jumpi\n      dup1\n      0x79546275\n      eq\n      tag_8\n      jumpi\n      dup1\n      0x8da5cb5b\n      eq\n      tag_9\n      jumpi\n      dup1\n      0x9a70eef1\n      eq\n      tag_10\n      jumpi\n      jump(tag_2)\n    tag_22:\n      dup1\n      0x12cccb34\n      eq\n      tag_3\n      jumpi\n      dup1\n      0x47cdcc1f\n      eq\n      tag_4\n      jumpi\n      dup1\n      0x547fbe8e\n      eq\n      tag_5\n      jumpi\n      dup1\n      0x6f3f42ac\n      eq\n      tag_6\n      jumpi\n      jump(tag_2)\n    tag_1:\n      jumpi(tag_2, calldatasize)\n        /* \"contracts/_SimpleWallet.sol\":4177:4207  Receive(msg.sender, msg.value) */\n      0xd6717f327e0cb88b4a97a7f67a453e9258252c34937ccbdd86de7cb840e7def3\n        /* \"contracts/_SimpleWallet.sol\":4185:4195  msg.sender */\n      caller\n        /* \"contracts/_SimpleWallet.sol\":4197:4206  msg.value */\n      callvalue\n        /* \"contracts/_SimpleWallet.sol\":4177:4207  Receive(msg.sender, msg.value) */\n      mload(0x40)\n      tag_25\n      swap3\n      swap2\n      swap1\n      tag_26\n      jump\t// in\n    tag_25:\n      mload(0x40)\n      dup1\n      swap2\n      sub\n      swap1\n      log1\n        /* \"contracts/_SimpleWallet.sol\":155:4877  contract SimpleWallet {... */\n      stop\n    tag_2:\n        /* \"contracts/_SimpleWallet.sol\":4492:4522  suspiciousActivity(msg.sender) */\n      tag_29\n        /* \"contracts/_SimpleWallet.sol\":4511:4521  msg.sender */\n      caller\n        /* \"contracts/_SimpleWallet.sol\":4492:4510  suspiciousActivity */\n      tag_30\n        /* \"contracts/_SimpleWallet.sol\":4492:4522  suspiciousActivity(msg.sender) */\n      jump\t// in\n    tag_29:\n        /* \"contracts/_SimpleWallet.sol\":155:4877  contract SimpleWallet {... */\n      stop\n        /* \"contracts/_SimpleWallet.sol\":1531:1798  function transferToContract() external payable {... */\n    tag_3:\n      tag_31\n      tag_32\n      jump\t// in\n    tag_31:\n      stop\n        /* \"contracts/_SimpleWallet.sol\":1806:2498  function transferToUserViaContract(address payable _to, uint _weiAmount) external onlyOwner {... */\n    tag_4:\n      callvalue\n      dup1\n      iszero\n      tag_33\n      jumpi\n      revert(0x00, 0x00)\n    tag_33:\n      pop\n      tag_34\n      0x04\n      dup1\n      calldatasize\n      sub\n      dup2\n      add\n      swap1\n      tag_35\n      swap2\n      swap1\n      tag_36\n      jump\t// in\n    tag_35:\n      tag_37\n      jump\t// in\n    tag_34:\n      stop\n        /* \"contracts/_SimpleWallet.sol\":4033:4129  function getOwnerBalanceInWei() external  view returns(uint){... */\n    tag_5:\n      callvalue\n      dup1\n      iszero\n      tag_38\n      jumpi\n      revert(0x00, 0x00)\n    tag_38:\n      pop\n      tag_39\n      tag_40\n      jump\t// in\n    tag_39:\n      mload(0x40)\n      tag_41\n      swap2\n      swap1\n      tag_42\n      jump\t// in\n    tag_41:\n      mload(0x40)\n      dup1\n      swap2\n      sub\n      swap1\n      return\n        /* \"contracts/_SimpleWallet.sol\":3099:3779  function transferToUserViaMsgValue(address payable  _to) external payable getSuspiciousUser(msg.sender){... */\n    tag_6:\n      tag_43\n      0x04\n      dup1\n      calldatasize\n      sub\n      dup2\n      add\n      swap1\n      tag_44\n      swap2\n      swap1\n      tag_45\n      jump\t// in\n    tag_44:\n      tag_46\n      jump\t// in\n    tag_43:\n      stop\n        /* \"contracts/_SimpleWallet.sol\":4671:4857  function emergencyWithdrawl() external {... */\n    tag_7:\n      callvalue\n      dup1\n      iszero\n      tag_47\n      jumpi\n      revert(0x00, 0x00)\n    tag_47:\n      pop\n      tag_48\n      tag_49\n      jump\t// in\n    tag_48:\n      stop\n        /* \"contracts/_SimpleWallet.sol\":409:449  Transaction[] public  transcationHistory */\n    tag_8:\n      callvalue\n      dup1\n      iszero\n      tag_50\n      jumpi\n      revert(0x00, 0x00)\n    tag_50:\n      pop\n      tag_51\n      0x04\n      dup1\n      calldatasize\n      sub\n      dup2\n      add\n      swap1\n      tag_52\n      swap2\n      swap1\n      tag_53\n      jump\t// in\n    tag_52:\n      tag_54\n      jump\t// in\n    tag_51:\n      mload(0x40)\n      tag_55\n      swap5\n      swap4\n      swap3\n      swap2\n      swap1\n      tag_56\n      jump\t// in\n    tag_55:\n      mload(0x40)\n      dup1\n      swap2\n      sub\n      swap1\n      return\n        /* \"contracts/_SimpleWallet.sol\":464:484  address public owner */\n    tag_9:\n      callvalue\n      dup1\n      iszero\n      tag_57\n      jumpi\n      revert(0x00, 0x00)\n    tag_57:\n      pop\n      tag_58\n      tag_59\n      jump\t// in\n    tag_58:\n      mload(0x40)\n      tag_60\n      swap2\n      swap1\n      tag_61\n      jump\t// in\n    tag_60:\n      mload(0x40)\n      dup1\n      swap2\n      sub\n      swap1\n      return\n        /* \"contracts/_SimpleWallet.sol\":1234:1305  function toggleStop() external onlyOwner {... */\n    tag_10:\n      callvalue\n      dup1\n      iszero\n      tag_62\n      jumpi\n      revert(0x00, 0x00)\n    tag_62:\n      pop\n      tag_63\n      tag_64\n      jump\t// in\n    tag_63:\n      stop\n        /* \"contracts/_SimpleWallet.sol\":513:531  uint public newval */\n    tag_11:\n      callvalue\n      dup1\n      iszero\n      tag_65\n      jumpi\n      revert(0x00, 0x00)\n    tag_65:\n      pop\n      tag_66\n      tag_67\n      jump\t// in\n    tag_66:\n      mload(0x40)\n      tag_68\n      swap2\n      swap1\n      tag_42\n      jump\t// in\n    tag_68:\n      mload(0x40)\n      dup1\n      swap2\n      sub\n      swap1\n      return\n        /* \"contracts/_SimpleWallet.sol\":2506:2883  function withdrawFromContract(uint _weiAmount) external onlyOwner {... */\n    tag_12:\n      callvalue\n      dup1\n      iszero\n      tag_69\n      jumpi\n      revert(0x00, 0x00)\n    tag_69:\n      pop\n      tag_70\n      0x04\n      dup1\n      calldatasize\n      sub\n      dup2\n      add\n      swap1\n      tag_71\n      swap2\n      swap1\n      tag_53\n      jump\t// in\n    tag_71:\n      tag_72\n      jump\t// in\n    tag_70:\n      stop\n        /* \"contracts/_SimpleWallet.sol\":4542:4661  function getTransactionHistory() external view returns(Transaction[] memory){... */\n    tag_13:\n      callvalue\n      dup1\n      iszero\n      tag_73\n      jumpi\n      revert(0x00, 0x00)\n    tag_73:\n      pop\n      tag_74\n      tag_75\n      jump\t// in\n    tag_74:\n      mload(0x40)\n      tag_76\n      swap2\n      swap1\n      tag_77\n      jump\t// in\n    tag_76:\n      mload(0x40)\n      dup1\n      swap2\n      sub\n      swap1\n      return\n        /* \"contracts/_SimpleWallet.sol\":491:506  uint public old */\n    tag_14:\n      callvalue\n      dup1\n      iszero\n      tag_78\n      jumpi\n      revert(0x00, 0x00)\n    tag_78:\n      pop\n      tag_79\n      tag_80\n      jump\t// in\n    tag_79:\n      mload(0x40)\n      tag_81\n      swap2\n      swap1\n      tag_42\n      jump\t// in\n    tag_81:\n      mload(0x40)\n      dup1\n      swap2\n      sub\n      swap1\n      return\n        /* \"contracts/_SimpleWallet.sol\":2891:3053  function getContractBalanceInWei() external view returns (uint) {... */\n    tag_15:\n      callvalue\n      dup1\n      iszero\n      tag_82\n      jumpi\n      revert(0x00, 0x00)\n    tag_82:\n      pop\n      tag_83\n      tag_84\n      jump\t// in\n    tag_83:\n      mload(0x40)\n      tag_85\n      swap2\n      swap1\n      tag_42\n      jump\t// in\n    tag_85:\n      mload(0x40)\n      dup1\n      swap2\n      sub\n      swap1\n      return\n        /* \"contracts/_SimpleWallet.sol\":4226:4346  function suspiciousActivity(address _sender) public {... */\n    tag_16:\n      callvalue\n      dup1\n      iszero\n      tag_86\n      jumpi\n      revert(0x00, 0x00)\n    tag_86:\n      pop\n      tag_87\n      0x04\n      dup1\n      calldatasize\n      sub\n      dup2\n      add\n      swap1\n      tag_88\n      swap2\n      swap1\n      tag_89\n      jump\t// in\n    tag_88:\n      tag_30\n      jump\t// in\n    tag_87:\n      stop\n        /* \"contracts/_SimpleWallet.sol\":3828:4023  function receiveFromUser() external payable {... */\n    tag_17:\n      tag_90\n      tag_91\n      jump\t// in\n    tag_90:\n      stop\n        /* \"contracts/_SimpleWallet.sol\":538:560  string public  message */\n    tag_18:\n      callvalue\n      dup1\n      iszero\n      tag_92\n      jumpi\n      revert(0x00, 0x00)\n    tag_92:\n      pop\n      tag_93\n      tag_94\n      jump\t// in\n    tag_93:\n      mload(0x40)\n      tag_95\n      swap2\n      swap1\n      tag_96\n      jump\t// in\n    tag_95:\n      mload(0x40)\n      dup1\n      swap2\n      sub\n      swap1\n      return\n        /* \"contracts/_SimpleWallet.sol\":1315:1483  function changOwner(address newOwner) public onlyOwner isEmergencyDeclared {... */\n    tag_19:\n      callvalue\n      dup1\n      iszero\n      tag_97\n      jumpi\n      revert(0x00, 0x00)\n    tag_97:\n      pop\n      tag_98\n      0x04\n      dup1\n      calldatasize\n      sub\n      dup2\n      add\n      swap1\n      tag_99\n      swap2\n      swap1\n      tag_89\n      jump\t// in\n    tag_99:\n      tag_100\n      jump\t// in\n    tag_98:\n      stop\n        /* \"contracts/_SimpleWallet.sol\":4226:4346  function suspiciousActivity(address _sender) public {... */\n    tag_30:\n        /* \"contracts/_SimpleWallet.sol\":4337:4338  1 */\n      0x01\n        /* \"contracts/_SimpleWallet.sol\":4311:4325  SuspiciousUser */\n      0x06\n        /* \"contracts/_SimpleWallet.sol\":4311:4334  SuspiciousUser[_sender] */\n      0x00\n        /* \"contracts/_SimpleWallet.sol\":4326:4333  _sender */\n      dup4\n        /* \"contracts/_SimpleWallet.sol\":4311:4334  SuspiciousUser[_sender] */\n      0xffffffffffffffffffffffffffffffffffffffff\n      and\n      0xffffffffffffffffffffffffffffffffffffffff\n      and\n      dup2\n      mstore\n      0x20\n      add\n      swap1\n      dup2\n      mstore\n      0x20\n      add\n      0x00\n      keccak256\n      0x00\n        /* \"contracts/_SimpleWallet.sol\":4311:4338  SuspiciousUser[_sender] +=1 */\n      dup3\n      dup3\n      sload\n      tag_102\n      swap2\n      swap1\n      tag_103\n      jump\t// in\n    tag_102:\n      swap3\n      pop\n      pop\n      dup2\n      swap1\n      sstore\n      pop\n        /* \"contracts/_SimpleWallet.sol\":4226:4346  function suspiciousActivity(address _sender) public {... */\n      pop\n      jump\t// out\n        /* \"contracts/_SimpleWallet.sol\":1531:1798  function transferToContract() external payable {... */\n    tag_32:\n        /* \"contracts/_SimpleWallet.sol\":1621:1639  transcationHistory */\n      0x00\n        /* \"contracts/_SimpleWallet.sol\":1645:1787  Transaction({... */\n      mload(0x40)\n      dup1\n      0x80\n      add\n      0x40\n      mstore\n      dup1\n        /* \"contracts/_SimpleWallet.sol\":1707:1711  this */\n      address\n        /* \"contracts/_SimpleWallet.sol\":1645:1787  Transaction({... */\n      0xffffffffffffffffffffffffffffffffffffffff\n      and\n      dup2\n      mstore\n      0x20\n      add\n        /* \"contracts/_SimpleWallet.sol\":1674:1684  msg.sender */\n      caller\n        /* \"contracts/_SimpleWallet.sol\":1645:1787  Transaction({... */\n      0xffffffffffffffffffffffffffffffffffffffff\n      and\n      dup2\n      mstore\n      0x20\n      add\n        /* \"contracts/_SimpleWallet.sol\":1734:1749  block.timestamp */\n      timestamp\n        /* \"contracts/_SimpleWallet.sol\":1645:1787  Transaction({... */\n      dup2\n      mstore\n      0x20\n      add\n        /* \"contracts/_SimpleWallet.sol\":1768:1777  msg.value */\n      callvalue\n        /* \"contracts/_SimpleWallet.sol\":1645:1787  Transaction({... */\n      dup2\n      mstore\n      pop\n        /* \"contracts/_SimpleWallet.sol\":1621:1788  transcationHistory.push(Transaction({... */\n      swap1\n      dup1\n      0x01\n      dup2\n      sload\n      add\n      dup1\n      dup3\n      sstore\n      dup1\n      swap2\n      pop\n      pop\n      0x01\n      swap1\n      sub\n      swap1\n      0x00\n      mstore\n      keccak256(0x00, 0x20)\n      swap1\n      0x04\n      mul\n      add\n      0x00\n      swap1\n      swap2\n      swap1\n      swap2\n      swap1\n      swap2\n      pop\n      0x00\n      dup3\n      add\n      mload\n      dup2\n      0x00\n      add\n      exp(0x0100, 0x00)\n      dup2\n      sload\n      dup2\n      0xffffffffffffffffffffffffffffffffffffffff\n      mul\n      not\n      and\n      swap1\n      dup4\n      0xffffffffffffffffffffffffffffffffffffffff\n      and\n      mul\n      or\n      swap1\n      sstore\n      pop\n      0x20\n      dup3\n      add\n      mload\n      dup2\n      0x01\n      add\n      exp(0x0100, 0x00)\n      dup2\n      sload\n      dup2\n      0xffffffffffffffffffffffffffffffffffffffff\n      mul\n      not\n      and\n      swap1\n      dup4\n      0xffffffffffffffffffffffffffffffffffffffff\n      and\n      mul\n      or\n      swap1\n      sstore\n      pop\n      0x40\n      dup3\n      add\n      mload\n      dup2\n      0x02\n      add\n      sstore\n      0x60\n      dup3\n      add\n      mload\n      dup2\n      0x03\n      add\n      sstore\n      pop\n      pop\n        /* \"contracts/_SimpleWallet.sol\":1531:1798  function transferToContract() external payable {... */\n      jump\t// out\n        /* \"contracts/_SimpleWallet.sol\":1806:2498  function transferToUserViaContract(address payable _to, uint _weiAmount) external onlyOwner {... */\n    tag_37:\n        /* \"contracts/_SimpleWallet.sol\":844:854  msg.sender */\n      caller\n        /* \"contracts/_SimpleWallet.sol\":834:854  owner !=  msg.sender */\n      0xffffffffffffffffffffffffffffffffffffffff\n      and\n        /* \"contracts/_SimpleWallet.sol\":834:839  owner */\n      0x01\n      0x00\n      swap1\n      sload\n      swap1\n      0x0100\n      exp\n      swap1\n      div\n      0xffffffffffffffffffffffffffffffffffffffff\n      and\n        /* \"contracts/_SimpleWallet.sol\":834:854  owner !=  msg.sender */\n      0xffffffffffffffffffffffffffffffffffffffff\n      and\n      eq\n        /* \"contracts/_SimpleWallet.sol\":831:916  if(owner !=  msg.sender) revert NotAuthorized(\"access desmissed ! you are not Owner\") */\n      tag_107\n      jumpi\n        /* \"contracts/_SimpleWallet.sol\":863:916  NotAuthorized(\"access desmissed ! you are not Owner\") */\n      mload(0x40)\n      0xeb1cd1d100000000000000000000000000000000000000000000000000000000\n      dup2\n      mstore\n      0x04\n      add\n      tag_108\n      swap1\n      tag_109\n      jump\t// in\n    tag_108:\n      mload(0x40)\n      dup1\n      swap2\n      sub\n      swap1\n      revert\n        /* \"contracts/_SimpleWallet.sol\":831:916  if(owner !=  msg.sender) revert NotAuthorized(\"access desmissed ! you are not Owner\") */\n    tag_107:\n        /* \"contracts/_SimpleWallet.sol\":1961:1971  _weiAmount */\n      dup1\n        /* \"contracts/_SimpleWallet.sol\":1936:1957  address(this).balance */\n      selfbalance\n        /* \"contracts/_SimpleWallet.sol\":1936:1971  address(this).balance >= _weiAmount */\n      lt\n      iszero\n        /* \"contracts/_SimpleWallet.sol\":1928:1998  require(address(this).balance >= _weiAmount , \"unsufficenet balance!\") */\n      tag_111\n      jumpi\n      mload(0x40)\n      0x08c379a000000000000000000000000000000000000000000000000000000000\n      dup2\n      mstore\n      0x04\n      add\n      tag_112\n      swap1\n      tag_113\n      jump\t// in\n    tag_112:\n      mload(0x40)\n      dup1\n      swap2\n      sub\n      swap1\n      revert\n    tag_111:\n        /* \"contracts/_SimpleWallet.sol\":2068:2069  0 */\n      0x00\n        /* \"contracts/_SimpleWallet.sol\":2053:2070  _to != address(0) */\n      0xffffffffffffffffffffffffffffffffffffffff\n      and\n        /* \"contracts/_SimpleWallet.sol\":2053:2056  _to */\n      dup3\n        /* \"contracts/_SimpleWallet.sol\":2053:2070  _to != address(0) */\n      0xffffffffffffffffffffffffffffffffffffffff\n      and\n      sub\n        /* \"contracts/_SimpleWallet.sol\":2045:2106  require(_to != address(0), \"Address is invalid check onces!\") */\n      tag_114\n      jumpi\n      mload(0x40)\n      0x08c379a000000000000000000000000000000000000000000000000000000000\n      dup2\n      mstore\n      0x04\n      add\n      tag_115\n      swap1\n      tag_116\n      jump\t// in\n    tag_115:\n      mload(0x40)\n      dup1\n      swap2\n      sub\n      swap1\n      revert\n    tag_114:\n        /* \"contracts/_SimpleWallet.sol\":2163:2188  Transfer(_to, _weiAmount) */\n      0x69ca02dd4edd7bf0a4abb9ed3b7af3f14778db5d61921c7dc7cd545266326de2\n        /* \"contracts/_SimpleWallet.sol\":2172:2175  _to */\n      dup3\n        /* \"contracts/_SimpleWallet.sol\":2177:2187  _weiAmount */\n      dup3\n        /* \"contracts/_SimpleWallet.sol\":2163:2188  Transfer(_to, _weiAmount) */\n      mload(0x40)\n      tag_117\n      swap3\n      swap2\n      swap1\n      tag_118\n      jump\t// in\n    tag_117:\n      mload(0x40)\n      dup1\n      swap2\n      sub\n      swap1\n      log1\n        /* \"contracts/_SimpleWallet.sol\":2203:2221  transcationHistory */\n      0x00\n        /* \"contracts/_SimpleWallet.sol\":2227:2360  Transaction({... */\n      mload(0x40)\n      dup1\n      0x80\n      add\n      0x40\n      mstore\n      dup1\n        /* \"contracts/_SimpleWallet.sol\":2281:2284  _to */\n      dup5\n        /* \"contracts/_SimpleWallet.sol\":2227:2360  Transaction({... */\n      0xffffffffffffffffffffffffffffffffffffffff\n      and\n      dup2\n      mstore\n      0x20\n      add\n        /* \"contracts/_SimpleWallet.sol\":2256:2266  msg.sender */\n      caller\n        /* \"contracts/_SimpleWallet.sol\":2227:2360  Transaction({... */\n      0xffffffffffffffffffffffffffffffffffffffff\n      and\n      dup2\n      mstore\n      0x20\n      add\n        /* \"contracts/_SimpleWallet.sol\":2306:2321  block.timestamp */\n      timestamp\n        /* \"contracts/_SimpleWallet.sol\":2227:2360  Transaction({... */\n      dup2\n      mstore\n      0x20\n      add\n        /* \"contracts/_SimpleWallet.sol\":2340:2350  _weiAmount */\n      dup4\n        /* \"contracts/_SimpleWallet.sol\":2227:2360  Transaction({... */\n      dup2\n      mstore\n      pop\n        /* \"contracts/_SimpleWallet.sol\":2203:2361  transcationHistory.push(Transaction({... */\n      swap1\n      dup1\n      0x01\n      dup2\n      sload\n      add\n      dup1\n      dup3\n      sstore\n      dup1\n      swap2\n      pop\n      pop\n      0x01\n      swap1\n      sub\n      swap1\n      0x00\n      mstore\n      keccak256(0x00, 0x20)\n      swap1\n      0x04\n      mul\n      add\n      0x00\n      swap1\n      swap2\n      swap1\n      swap2\n      swap1\n      swap2\n      pop\n      0x00\n      dup3\n      add\n      mload\n      dup2\n      0x00\n      add\n      exp(0x0100, 0x00)\n      dup2\n      sload\n      dup2\n      0xffffffffffffffffffffffffffffffffffffffff\n      mul\n      not\n      and\n      swap1\n      dup4\n      0xffffffffffffffffffffffffffffffffffffffff\n      and\n      mul\n      or\n      swap1\n      sstore\n      pop\n      0x20\n      dup3\n      add\n      mload\n      dup2\n      0x01\n      add\n      exp(0x0100, 0x00)\n      dup2\n      sload\n      dup2\n      0xffffffffffffffffffffffffffffffffffffffff\n      mul\n      not\n      and\n      swap1\n      dup4\n      0xffffffffffffffffffffffffffffffffffffffff\n      and\n      mul\n      or\n      swap1\n      sstore\n      pop\n      0x40\n      dup3\n      add\n      mload\n      dup2\n      0x02\n      add\n      sstore\n      0x60\n      dup3\n      add\n      mload\n      dup2\n      0x03\n      add\n      sstore\n      pop\n      pop\n        /* \"contracts/_SimpleWallet.sol\":2409:2416  bool ok */\n      0x00\n        /* \"contracts/_SimpleWallet.sol\":2423:2426  _to */\n      dup3\n        /* \"contracts/_SimpleWallet.sol\":2423:2431  _to.call */\n      0xffffffffffffffffffffffffffffffffffffffff\n      and\n        /* \"contracts/_SimpleWallet.sol\":2440:2450  _weiAmount */\n      dup3\n        /* \"contracts/_SimpleWallet.sol\":2423:2455  _to.call{value : _weiAmount}(\"\") */\n      mload(0x40)\n      tag_120\n      swap1\n      tag_121\n      jump\t// in\n    tag_120:\n      0x00\n      mload(0x40)\n      dup1\n      dup4\n      sub\n      dup2\n      dup6\n      dup8\n      gas\n      call\n      swap3\n      pop\n      pop\n      pop\n      returndatasize\n      dup1\n      0x00\n      dup2\n      eq\n      tag_124\n      jumpi\n      mload(0x40)\n      swap2\n      pop\n      and(add(returndatasize, 0x3f), not(0x1f))\n      dup3\n      add\n      0x40\n      mstore\n      returndatasize\n      dup3\n      mstore\n      returndatasize\n      0x00\n      0x20\n      dup5\n      add\n      returndatacopy\n      jump(tag_123)\n    tag_124:\n      0x60\n      swap2\n      pop\n    tag_123:\n      pop\n        /* \"contracts/_SimpleWallet.sol\":2408:2455  (bool ok , ) = _to.call{value : _weiAmount}(\"\") */\n      pop\n      swap1\n      pop\n        /* \"contracts/_SimpleWallet.sol\":2473:2475  ok */\n      dup1\n        /* \"contracts/_SimpleWallet.sol\":2465:2488  require(ok, \"failed !\") */\n      tag_125\n      jumpi\n      mload(0x40)\n      0x08c379a000000000000000000000000000000000000000000000000000000000\n      dup2\n      mstore\n      0x04\n      add\n      tag_126\n      swap1\n      tag_127\n      jump\t// in\n    tag_126:\n      mload(0x40)\n      dup1\n      swap2\n      sub\n      swap1\n      revert\n    tag_125:\n        /* \"contracts/_SimpleWallet.sol\":1898:2498  {... */\n      pop\n        /* \"contracts/_SimpleWallet.sol\":1806:2498  function transferToUserViaContract(address payable _to, uint _weiAmount) external onlyOwner {... */\n      pop\n      pop\n      jump\t// out\n        /* \"contracts/_SimpleWallet.sol\":4033:4129  function getOwnerBalanceInWei() external  view returns(uint){... */\n    tag_40:\n        /* \"contracts/_SimpleWallet.sol\":4088:4092  uint */\n      0x00\n        /* \"contracts/_SimpleWallet.sol\":4108:4113  owner */\n      0x01\n      0x00\n      swap1\n      sload\n      swap1\n      0x0100\n      exp\n      swap1\n      div\n      0xffffffffffffffffffffffffffffffffffffffff\n      and\n        /* \"contracts/_SimpleWallet.sol\":4108:4121  owner.balance */\n      0xffffffffffffffffffffffffffffffffffffffff\n      and\n      balance\n        /* \"contracts/_SimpleWallet.sol\":4101:4121  return owner.balance */\n      swap1\n      pop\n        /* \"contracts/_SimpleWallet.sol\":4033:4129  function getOwnerBalanceInWei() external  view returns(uint){... */\n      swap1\n      jump\t// out\n        /* \"contracts/_SimpleWallet.sol\":3099:3779  function transferToUserViaMsgValue(address payable  _to) external payable getSuspiciousUser(msg.sender){... */\n    tag_46:\n        /* \"contracts/_SimpleWallet.sol\":3191:3201  msg.sender */\n      caller\n        /* \"contracts/_SimpleWallet.sol\":1037:1038  4 */\n      0x04\n        /* \"contracts/_SimpleWallet.sol\":1012:1026  SuspiciousUser */\n      0x06\n        /* \"contracts/_SimpleWallet.sol\":1012:1035  SuspiciousUser[_sender] */\n      0x00\n        /* \"contracts/_SimpleWallet.sol\":1027:1034  _sender */\n      dup4\n        /* \"contracts/_SimpleWallet.sol\":1012:1035  SuspiciousUser[_sender] */\n      0xffffffffffffffffffffffffffffffffffffffff\n      and\n      0xffffffffffffffffffffffffffffffffffffffff\n      and\n      dup2\n      mstore\n      0x20\n      add\n      swap1\n      dup2\n      mstore\n      0x20\n      add\n      0x00\n      keccak256\n      sload\n        /* \"contracts/_SimpleWallet.sol\":1012:1038  SuspiciousUser[_sender] <4 */\n      lt\n        /* \"contracts/_SimpleWallet.sol\":1004:1089  require(SuspiciousUser[_sender] <4  , \"Activity found suspicious  , block for 1 day\") */\n      tag_130\n      jumpi\n      mload(0x40)\n      0x08c379a000000000000000000000000000000000000000000000000000000000\n      dup2\n      mstore\n      0x04\n      add\n      tag_131\n      swap1\n      tag_132\n      jump\t// in\n    tag_131:\n      mload(0x40)\n      dup1\n      swap2\n      sub\n      swap1\n      revert\n    tag_130:\n        /* \"contracts/_SimpleWallet.sol\":3259:3280  address(this).balance */\n      selfbalance\n        /* \"contracts/_SimpleWallet.sol\":3253:3256  old */\n      0x02\n        /* \"contracts/_SimpleWallet.sol\":3253:3280  old = address(this).balance */\n      dup2\n      swap1\n      sstore\n      pop\n        /* \"contracts/_SimpleWallet.sol\":3411:3420  msg.value */\n      callvalue\n        /* \"contracts/_SimpleWallet.sol\":3386:3407  address(this).balance */\n      selfbalance\n        /* \"contracts/_SimpleWallet.sol\":3386:3420  address(this).balance >= msg.value */\n      lt\n      iszero\n        /* \"contracts/_SimpleWallet.sol\":3378:3459  require(address(this).balance >= msg.value , \" unsufficent balance => contrack!\") */\n      tag_134\n      jumpi\n      mload(0x40)\n      0x08c379a000000000000000000000000000000000000000000000000000000000\n      dup2\n      mstore\n      0x04\n      add\n      tag_135\n      swap1\n      tag_136\n      jump\t// in\n    tag_135:\n      mload(0x40)\n      dup1\n      swap2\n      sub\n      swap1\n      revert\n    tag_134:\n        /* \"contracts/_SimpleWallet.sol\":3496:3505  msg.value */\n      callvalue\n        /* \"contracts/_SimpleWallet.sol\":3474:3484  msg.sender */\n      caller\n        /* \"contracts/_SimpleWallet.sol\":3474:3492  msg.sender.balance */\n      0xffffffffffffffffffffffffffffffffffffffff\n      and\n      balance\n        /* \"contracts/_SimpleWallet.sol\":3474:3505  msg.sender.balance >= msg.value */\n      lt\n      iszero\n        /* \"contracts/_SimpleWallet.sol\":3466:3540  require(msg.sender.balance >= msg.value , \" unsufficent balance => user!\") */\n      tag_137\n      jumpi\n      mload(0x40)\n      0x08c379a000000000000000000000000000000000000000000000000000000000\n      dup2\n      mstore\n      0x04\n      add\n      tag_138\n      swap1\n      tag_139\n      jump\t// in\n    tag_138:\n      mload(0x40)\n      dup1\n      swap2\n      sub\n      swap1\n      revert\n    tag_137:\n        /* \"contracts/_SimpleWallet.sol\":3600:3603  _to */\n      dup2\n        /* \"contracts/_SimpleWallet.sol\":3600:3612  _to.transfer */\n      0xffffffffffffffffffffffffffffffffffffffff\n      and\n        /* \"contracts/_SimpleWallet.sol\":3600:3623  _to.transfer(msg.value) */\n      0x08fc\n        /* \"contracts/_SimpleWallet.sol\":3613:3622  msg.value */\n      callvalue\n        /* \"contracts/_SimpleWallet.sol\":3600:3623  _to.transfer(msg.value) */\n      swap1\n      dup2\n      iszero\n      mul\n      swap1\n      mload(0x40)\n      0x00\n      mload(0x40)\n      dup1\n      dup4\n      sub\n      dup2\n      dup6\n      dup9\n      dup9\n      call\n      swap4\n      pop\n      pop\n      pop\n      pop\n      iszero\n      dup1\n      iszero\n      tag_141\n      jumpi\n      returndatacopy(0x00, 0x00, returndatasize)\n      revert(0x00, returndatasize)\n    tag_141:\n      pop\n        /* \"contracts/_SimpleWallet.sol\":3640:3661  address(this).balance */\n      selfbalance\n        /* \"contracts/_SimpleWallet.sol\":3631:3637  newval */\n      0x03\n        /* \"contracts/_SimpleWallet.sol\":3631:3661  newval = address(this).balance */\n      dup2\n      swap1\n      sstore\n      pop\n        /* \"contracts/_SimpleWallet.sol\":3099:3779  function transferToUserViaMsgValue(address payable  _to) external payable getSuspiciousUser(msg.sender){... */\n      pop\n      pop\n      jump\t// out\n        /* \"contracts/_SimpleWallet.sol\":4671:4857  function emergencyWithdrawl() external {... */\n    tag_49:\n        /* \"contracts/_SimpleWallet.sol\":4735:4739  true */\n      0x01\n        /* \"contracts/_SimpleWallet.sol\":4727:4739  stop == true */\n      iszero\n      iszero\n        /* \"contracts/_SimpleWallet.sol\":4727:4731  stop */\n      0x05\n      0x00\n      swap1\n      sload\n      swap1\n      0x0100\n      exp\n      swap1\n      div\n      0xff\n      and\n        /* \"contracts/_SimpleWallet.sol\":4727:4739  stop == true */\n      iszero\n      iszero\n      eq\n        /* \"contracts/_SimpleWallet.sol\":4719:4766  require(stop == true , \"emergency not defind!\") */\n      tag_143\n      jumpi\n      mload(0x40)\n      0x08c379a000000000000000000000000000000000000000000000000000000000\n      dup2\n      mstore\n      0x04\n      add\n      tag_144\n      swap1\n      tag_145\n      jump\t// in\n    tag_144:\n      mload(0x40)\n      dup1\n      swap2\n      sub\n      swap1\n      revert\n    tag_143:\n        /* \"contracts/_SimpleWallet.sol\":4811:4816  owner */\n      0x01\n      0x00\n      swap1\n      sload\n      swap1\n      0x0100\n      exp\n      swap1\n      div\n      0xffffffffffffffffffffffffffffffffffffffff\n      and\n        /* \"contracts/_SimpleWallet.sol\":4802:4826  payable (owner).transfer */\n      0xffffffffffffffffffffffffffffffffffffffff\n      and\n        /* \"contracts/_SimpleWallet.sol\":4802:4849  payable (owner).transfer(address(this).balance) */\n      0x08fc\n        /* \"contracts/_SimpleWallet.sol\":4827:4848  address(this).balance */\n      selfbalance\n        /* \"contracts/_SimpleWallet.sol\":4802:4849  payable (owner).transfer(address(this).balance) */\n      swap1\n      dup2\n      iszero\n      mul\n      swap1\n      mload(0x40)\n      0x00\n      mload(0x40)\n      dup1\n      dup4\n      sub\n      dup2\n      dup6\n      dup9\n      dup9\n      call\n      swap4\n      pop\n      pop\n      pop\n      pop\n      iszero\n      dup1\n      iszero\n      tag_147\n      jumpi\n      returndatacopy(0x00, 0x00, returndatasize)\n      revert(0x00, returndatasize)\n    tag_147:\n      pop\n        /* \"contracts/_SimpleWallet.sol\":4671:4857  function emergencyWithdrawl() external {... */\n      jump\t// out\n        /* \"contracts/_SimpleWallet.sol\":409:449  Transaction[] public  transcationHistory */\n    tag_54:\n      0x00\n      dup2\n      dup2\n      sload\n      dup2\n      lt\n      tag_148\n      jumpi\n      0x00\n      dup1\n      revert\n    tag_148:\n      swap1\n      0x00\n      mstore\n      keccak256(0x00, 0x20)\n      swap1\n      0x04\n      mul\n      add\n      0x00\n      swap2\n      pop\n      swap1\n      pop\n      dup1\n      0x00\n      add\n      0x00\n      swap1\n      sload\n      swap1\n      0x0100\n      exp\n      swap1\n      div\n      0xffffffffffffffffffffffffffffffffffffffff\n      and\n      swap1\n      dup1\n      0x01\n      add\n      0x00\n      swap1\n      sload\n      swap1\n      0x0100\n      exp\n      swap1\n      div\n      0xffffffffffffffffffffffffffffffffffffffff\n      and\n      swap1\n      dup1\n      0x02\n      add\n      sload\n      swap1\n      dup1\n      0x03\n      add\n      sload\n      swap1\n      pop\n      dup5\n      jump\t// out\n        /* \"contracts/_SimpleWallet.sol\":464:484  address public owner */\n    tag_59:\n      0x01\n      0x00\n      swap1\n      sload\n      swap1\n      0x0100\n      exp\n      swap1\n      div\n      0xffffffffffffffffffffffffffffffffffffffff\n      and\n      dup2\n      jump\t// out\n        /* \"contracts/_SimpleWallet.sol\":1234:1305  function toggleStop() external onlyOwner {... */\n    tag_64:\n        /* \"contracts/_SimpleWallet.sol\":844:854  msg.sender */\n      caller\n        /* \"contracts/_SimpleWallet.sol\":834:854  owner !=  msg.sender */\n      0xffffffffffffffffffffffffffffffffffffffff\n      and\n        /* \"contracts/_SimpleWallet.sol\":834:839  owner */\n      0x01\n      0x00\n      swap1\n      sload\n      swap1\n      0x0100\n      exp\n      swap1\n      div\n      0xffffffffffffffffffffffffffffffffffffffff\n      and\n        /* \"contracts/_SimpleWallet.sol\":834:854  owner !=  msg.sender */\n      0xffffffffffffffffffffffffffffffffffffffff\n      and\n      eq\n        /* \"contracts/_SimpleWallet.sol\":831:916  if(owner !=  msg.sender) revert NotAuthorized(\"access desmissed ! you are not Owner\") */\n      tag_151\n      jumpi\n        /* \"contracts/_SimpleWallet.sol\":863:916  NotAuthorized(\"access desmissed ! you are not Owner\") */\n      mload(0x40)\n      0xeb1cd1d100000000000000000000000000000000000000000000000000000000\n      dup2\n      mstore\n      0x04\n      add\n      tag_152\n      swap1\n      tag_109\n      jump\t// in\n    tag_152:\n      mload(0x40)\n      dup1\n      swap2\n      sub\n      swap1\n      revert\n        /* \"contracts/_SimpleWallet.sol\":831:916  if(owner !=  msg.sender) revert NotAuthorized(\"access desmissed ! you are not Owner\") */\n    tag_151:\n        /* \"contracts/_SimpleWallet.sol\":1293:1297  stop */\n      0x05\n      0x00\n      swap1\n      sload\n      swap1\n      0x0100\n      exp\n      swap1\n      div\n      0xff\n      and\n        /* \"contracts/_SimpleWallet.sol\":1292:1297  !stop */\n      iszero\n        /* \"contracts/_SimpleWallet.sol\":1285:1289  stop */\n      0x05\n      0x00\n        /* \"contracts/_SimpleWallet.sol\":1285:1297  stop = !stop */\n      0x0100\n      exp\n      dup2\n      sload\n      dup2\n      0xff\n      mul\n      not\n      and\n      swap1\n      dup4\n      iszero\n      iszero\n      mul\n      or\n      swap1\n      sstore\n      pop\n        /* \"contracts/_SimpleWallet.sol\":1234:1305  function toggleStop() external onlyOwner {... */\n      jump\t// out\n        /* \"contracts/_SimpleWallet.sol\":513:531  uint public newval */\n    tag_67:\n      sload(0x03)\n      dup2\n      jump\t// out\n        /* \"contracts/_SimpleWallet.sol\":2506:2883  function withdrawFromContract(uint _weiAmount) external onlyOwner {... */\n    tag_72:\n        /* \"contracts/_SimpleWallet.sol\":844:854  msg.sender */\n      caller\n        /* \"contracts/_SimpleWallet.sol\":834:854  owner !=  msg.sender */\n      0xffffffffffffffffffffffffffffffffffffffff\n      and\n        /* \"contracts/_SimpleWallet.sol\":834:839  owner */\n      0x01\n      0x00\n      swap1\n      sload\n      swap1\n      0x0100\n      exp\n      swap1\n      div\n      0xffffffffffffffffffffffffffffffffffffffff\n      and\n        /* \"contracts/_SimpleWallet.sol\":834:854  owner !=  msg.sender */\n      0xffffffffffffffffffffffffffffffffffffffff\n      and\n      eq\n        /* \"contracts/_SimpleWallet.sol\":831:916  if(owner !=  msg.sender) revert NotAuthorized(\"access desmissed ! you are not Owner\") */\n      tag_155\n      jumpi\n        /* \"contracts/_SimpleWallet.sol\":863:916  NotAuthorized(\"access desmissed ! you are not Owner\") */\n      mload(0x40)\n      0xeb1cd1d100000000000000000000000000000000000000000000000000000000\n      dup2\n      mstore\n      0x04\n      add\n      tag_156\n      swap1\n      tag_109\n      jump\t// in\n    tag_156:\n      mload(0x40)\n      dup1\n      swap2\n      sub\n      swap1\n      revert\n        /* \"contracts/_SimpleWallet.sol\":831:916  if(owner !=  msg.sender) revert NotAuthorized(\"access desmissed ! you are not Owner\") */\n    tag_155:\n        /* \"contracts/_SimpleWallet.sol\":2613:2623  _weiAmount */\n      dup1\n        /* \"contracts/_SimpleWallet.sol\":2588:2609  address(this).balance */\n      selfbalance\n        /* \"contracts/_SimpleWallet.sol\":2588:2623  address(this).balance >= _weiAmount */\n      lt\n      iszero\n        /* \"contracts/_SimpleWallet.sol\":2580:2650  require(address(this).balance >= _weiAmount , \"unsufficenet balance!\") */\n      tag_158\n      jumpi\n      mload(0x40)\n      0x08c379a000000000000000000000000000000000000000000000000000000000\n      dup2\n      mstore\n      0x04\n      add\n      tag_159\n      swap1\n      tag_113\n      jump\t// in\n    tag_159:\n      mload(0x40)\n      dup1\n      swap2\n      sub\n      swap1\n      revert\n    tag_158:\n        /* \"contracts/_SimpleWallet.sol\":2667:2677  msg.sender */\n      caller\n        /* \"contracts/_SimpleWallet.sol\":2659:2687  payable(msg.sender).transfer */\n      0xffffffffffffffffffffffffffffffffffffffff\n      and\n        /* \"contracts/_SimpleWallet.sol\":2659:2699  payable(msg.sender).transfer(_weiAmount) */\n      0x08fc\n        /* \"contracts/_SimpleWallet.sol\":2688:2698  _weiAmount */\n      dup3\n        /* \"contracts/_SimpleWallet.sol\":2659:2699  payable(msg.sender).transfer(_weiAmount) */\n      swap1\n      dup2\n      iszero\n      mul\n      swap1\n      mload(0x40)\n      0x00\n      mload(0x40)\n      dup1\n      dup4\n      sub\n      dup2\n      dup6\n      dup9\n      dup9\n      call\n      swap4\n      pop\n      pop\n      pop\n      pop\n      iszero\n      dup1\n      iszero\n      tag_161\n      jumpi\n      returndatacopy(0x00, 0x00, returndatasize)\n      revert(0x00, returndatasize)\n    tag_161:\n      pop\n        /* \"contracts/_SimpleWallet.sol\":2708:2726  transcationHistory */\n      0x00\n        /* \"contracts/_SimpleWallet.sol\":2732:2874  Transaction({... */\n      mload(0x40)\n      dup1\n      0x80\n      add\n      0x40\n      mstore\n      dup1\n        /* \"contracts/_SimpleWallet.sol\":2788:2798  msg.sender */\n      caller\n        /* \"contracts/_SimpleWallet.sol\":2732:2874  Transaction({... */\n      0xffffffffffffffffffffffffffffffffffffffff\n      and\n      dup2\n      mstore\n      0x20\n      add\n        /* \"contracts/_SimpleWallet.sol\":2769:2773  this */\n      address\n        /* \"contracts/_SimpleWallet.sol\":2732:2874  Transaction({... */\n      0xffffffffffffffffffffffffffffffffffffffff\n      and\n      dup2\n      mstore\n      0x20\n      add\n        /* \"contracts/_SimpleWallet.sol\":2820:2835  block.timestamp */\n      timestamp\n        /* \"contracts/_SimpleWallet.sol\":2732:2874  Transaction({... */\n      dup2\n      mstore\n      0x20\n      add\n        /* \"contracts/_SimpleWallet.sol\":2854:2864  _weiAmount */\n      dup4\n        /* \"contracts/_SimpleWallet.sol\":2732:2874  Transaction({... */\n      dup2\n      mstore\n      pop\n        /* \"contracts/_SimpleWallet.sol\":2708:2875  transcationHistory.push(Transaction({... */\n      swap1\n      dup1\n      0x01\n      dup2\n      sload\n      add\n      dup1\n      dup3\n      sstore\n      dup1\n      swap2\n      pop\n      pop\n      0x01\n      swap1\n      sub\n      swap1\n      0x00\n      mstore\n      keccak256(0x00, 0x20)\n      swap1\n      0x04\n      mul\n      add\n      0x00\n      swap1\n      swap2\n      swap1\n      swap2\n      swap1\n      swap2\n      pop\n      0x00\n      dup3\n      add\n      mload\n      dup2\n      0x00\n      add\n      exp(0x0100, 0x00)\n      dup2\n      sload\n      dup2\n      0xffffffffffffffffffffffffffffffffffffffff\n      mul\n      not\n      and\n      swap1\n      dup4\n      0xffffffffffffffffffffffffffffffffffffffff\n      and\n      mul\n      or\n      swap1\n      sstore\n      pop\n      0x20\n      dup3\n      add\n      mload\n      dup2\n      0x01\n      add\n      exp(0x0100, 0x00)\n      dup2\n      sload\n      dup2\n      0xffffffffffffffffffffffffffffffffffffffff\n      mul\n      not\n      and\n      swap1\n      dup4\n      0xffffffffffffffffffffffffffffffffffffffff\n      and\n      mul\n      or\n      swap1\n      sstore\n      pop\n      0x40\n      dup3\n      add\n      mload\n      dup2\n      0x02\n      add\n      sstore\n      0x60\n      dup3\n      add\n      mload\n      dup2\n      0x03\n      add\n      sstore\n      pop\n      pop\n        /* \"contracts/_SimpleWallet.sol\":2506:2883  function withdrawFromContract(uint _weiAmount) external onlyOwner {... */\n      pop\n      jump\t// out\n        /* \"contracts/_SimpleWallet.sol\":4542:4661  function getTransactionHistory() external view returns(Transaction[] memory){... */\n    tag_75:\n        /* \"contracts/_SimpleWallet.sol\":4597:4617  Transaction[] memory */\n      0x60\n        /* \"contracts/_SimpleWallet.sol\":4635:4653  transcationHistory */\n      0x00\n        /* \"contracts/_SimpleWallet.sol\":4627:4653  return  transcationHistory */\n      dup1\n      sload\n      dup1\n      0x20\n      mul\n      0x20\n      add\n      mload(0x40)\n      swap1\n      dup2\n      add\n      0x40\n      mstore\n      dup1\n      swap3\n      swap2\n      swap1\n      dup2\n      dup2\n      mstore\n      0x20\n      add\n      0x00\n      swap1\n    tag_164:\n      dup3\n      dup3\n      lt\n      iszero\n      tag_165\n      jumpi\n      dup4\n      dup3\n      swap1\n      0x00\n      mstore\n      keccak256(0x00, 0x20)\n      swap1\n      0x04\n      mul\n      add\n      mload(0x40)\n      dup1\n      0x80\n      add\n      0x40\n      mstore\n      swap1\n      dup2\n      0x00\n      dup3\n      add\n      0x00\n      swap1\n      sload\n      swap1\n      0x0100\n      exp\n      swap1\n      div\n      0xffffffffffffffffffffffffffffffffffffffff\n      and\n      0xffffffffffffffffffffffffffffffffffffffff\n      and\n      0xffffffffffffffffffffffffffffffffffffffff\n      and\n      dup2\n      mstore\n      0x20\n      add\n      0x01\n      dup3\n      add\n      0x00\n      swap1\n      sload\n      swap1\n      0x0100\n      exp\n      swap1\n      div\n      0xffffffffffffffffffffffffffffffffffffffff\n      and\n      0xffffffffffffffffffffffffffffffffffffffff\n      and\n      0xffffffffffffffffffffffffffffffffffffffff\n      and\n      dup2\n      mstore\n      0x20\n      add\n      0x02\n      dup3\n      add\n      sload\n      dup2\n      mstore\n      0x20\n      add\n      0x03\n      dup3\n      add\n      sload\n      dup2\n      mstore\n      pop\n      pop\n      dup2\n      mstore\n      0x20\n      add\n      swap1\n      0x01\n      add\n      swap1\n      jump(tag_164)\n    tag_165:\n      pop\n      pop\n      pop\n      pop\n      swap1\n      pop\n        /* \"contracts/_SimpleWallet.sol\":4542:4661  function getTransactionHistory() external view returns(Transaction[] memory){... */\n      swap1\n      jump\t// out\n        /* \"contracts/_SimpleWallet.sol\":491:506  uint public old */\n    tag_80:\n      sload(0x02)\n      dup2\n      jump\t// out\n        /* \"contracts/_SimpleWallet.sol\":2891:3053  function getContractBalanceInWei() external view returns (uint) {... */\n    tag_84:\n        /* \"contracts/_SimpleWallet.sol\":2949:2953  uint */\n      0x00\n        /* \"contracts/_SimpleWallet.sol\":2973:2994  address(this).balance */\n      selfbalance\n        /* \"contracts/_SimpleWallet.sol\":2965:2994  return  address(this).balance */\n      swap1\n      pop\n        /* \"contracts/_SimpleWallet.sol\":2891:3053  function getContractBalanceInWei() external view returns (uint) {... */\n      swap1\n      jump\t// out\n        /* \"contracts/_SimpleWallet.sol\":3828:4023  function receiveFromUser() external payable {... */\n    tag_91:\n        /* \"contracts/_SimpleWallet.sol\":3933:3934  0 */\n      0x00\n        /* \"contracts/_SimpleWallet.sol\":3921:3930  msg.value */\n      callvalue\n        /* \"contracts/_SimpleWallet.sol\":3921:3934  msg.value > 0 */\n      gt\n        /* \"contracts/_SimpleWallet.sol\":3913:3973  require(msg.value > 0 ,\"amounth must br grater than zero !\") */\n      tag_169\n      jumpi\n      mload(0x40)\n      0x08c379a000000000000000000000000000000000000000000000000000000000\n      dup2\n      mstore\n      0x04\n      add\n      tag_170\n      swap1\n      tag_171\n      jump\t// in\n    tag_170:\n      mload(0x40)\n      dup1\n      swap2\n      sub\n      swap1\n      revert\n    tag_169:\n        /* \"contracts/_SimpleWallet.sol\":3989:3994  owner */\n      0x01\n      0x00\n      swap1\n      sload\n      swap1\n      0x0100\n      exp\n      swap1\n      div\n      0xffffffffffffffffffffffffffffffffffffffff\n      and\n        /* \"contracts/_SimpleWallet.sol\":3981:4004  payable(owner).transfer */\n      0xffffffffffffffffffffffffffffffffffffffff\n      and\n        /* \"contracts/_SimpleWallet.sol\":3981:4015  payable(owner).transfer(msg.value) */\n      0x08fc\n        /* \"contracts/_SimpleWallet.sol\":4005:4014  msg.value */\n      callvalue\n        /* \"contracts/_SimpleWallet.sol\":3981:4015  payable(owner).transfer(msg.value) */\n      swap1\n      dup2\n      iszero\n      mul\n      swap1\n      mload(0x40)\n      0x00\n      mload(0x40)\n      dup1\n      dup4\n      sub\n      dup2\n      dup6\n      dup9\n      dup9\n      call\n      swap4\n      pop\n      pop\n      pop\n      pop\n      iszero\n      dup1\n      iszero\n      tag_173\n      jumpi\n      returndatacopy(0x00, 0x00, returndatasize)\n      revert(0x00, returndatasize)\n    tag_173:\n      pop\n        /* \"contracts/_SimpleWallet.sol\":3828:4023  function receiveFromUser() external payable {... */\n      jump\t// out\n        /* \"contracts/_SimpleWallet.sol\":538:560  string public  message */\n    tag_94:\n      0x04\n      dup1\n      sload\n      tag_174\n      swap1\n      tag_175\n      jump\t// in\n    tag_174:\n      dup1\n      0x1f\n      add\n      0x20\n      dup1\n      swap2\n      div\n      mul\n      0x20\n      add\n      mload(0x40)\n      swap1\n      dup2\n      add\n      0x40\n      mstore\n      dup1\n      swap3\n      swap2\n      swap1\n      dup2\n      dup2\n      mstore\n      0x20\n      add\n      dup3\n      dup1\n      sload\n      tag_176\n      swap1\n      tag_175\n      jump\t// in\n    tag_176:\n      dup1\n      iszero\n      tag_177\n      jumpi\n      dup1\n      0x1f\n      lt\n      tag_178\n      jumpi\n      0x0100\n      dup1\n      dup4\n      sload\n      div\n      mul\n      dup4\n      mstore\n      swap2\n      0x20\n      add\n      swap2\n      jump(tag_177)\n    tag_178:\n      dup3\n      add\n      swap2\n      swap1\n      0x00\n      mstore\n      keccak256(0x00, 0x20)\n      swap1\n    tag_179:\n      dup2\n      sload\n      dup2\n      mstore\n      swap1\n      0x01\n      add\n      swap1\n      0x20\n      add\n      dup1\n      dup4\n      gt\n      tag_179\n      jumpi\n      dup3\n      swap1\n      sub\n      0x1f\n      and\n      dup3\n      add\n      swap2\n    tag_177:\n      pop\n      pop\n      pop\n      pop\n      pop\n      dup2\n      jump\t// out\n        /* \"contracts/_SimpleWallet.sol\":1315:1483  function changOwner(address newOwner) public onlyOwner isEmergencyDeclared {... */\n    tag_100:\n        /* \"contracts/_SimpleWallet.sol\":844:854  msg.sender */\n      caller\n        /* \"contracts/_SimpleWallet.sol\":834:854  owner !=  msg.sender */\n      0xffffffffffffffffffffffffffffffffffffffff\n      and\n        /* \"contracts/_SimpleWallet.sol\":834:839  owner */\n      0x01\n      0x00\n      swap1\n      sload\n      swap1\n      0x0100\n      exp\n      swap1\n      div\n      0xffffffffffffffffffffffffffffffffffffffff\n      and\n        /* \"contracts/_SimpleWallet.sol\":834:854  owner !=  msg.sender */\n      0xffffffffffffffffffffffffffffffffffffffff\n      and\n      eq\n        /* \"contracts/_SimpleWallet.sol\":831:916  if(owner !=  msg.sender) revert NotAuthorized(\"access desmissed ! you are not Owner\") */\n      tag_181\n      jumpi\n        /* \"contracts/_SimpleWallet.sol\":863:916  NotAuthorized(\"access desmissed ! you are not Owner\") */\n      mload(0x40)\n      0xeb1cd1d100000000000000000000000000000000000000000000000000000000\n      dup2\n      mstore\n      0x04\n      add\n      tag_182\n      swap1\n      tag_109\n      jump\t// in\n    tag_182:\n      mload(0x40)\n      dup1\n      swap2\n      sub\n      swap1\n      revert\n        /* \"contracts/_SimpleWallet.sol\":831:916  if(owner !=  msg.sender) revert NotAuthorized(\"access desmissed ! you are not Owner\") */\n    tag_181:\n        /* \"contracts/_SimpleWallet.sol\":1175:1180  false */\n      0x00\n        /* \"contracts/_SimpleWallet.sol\":1167:1180  stop == false */\n      iszero\n      iszero\n        /* \"contracts/_SimpleWallet.sol\":1167:1171  stop */\n      0x05\n      0x00\n      swap1\n      sload\n      swap1\n      0x0100\n      exp\n      swap1\n      div\n      0xff\n      and\n        /* \"contracts/_SimpleWallet.sol\":1167:1180  stop == false */\n      iszero\n      iszero\n      eq\n        /* \"contracts/_SimpleWallet.sol\":1159:1205  require(stop == false , \"emergency delecred!\") */\n      tag_184\n      jumpi\n      mload(0x40)\n      0x08c379a000000000000000000000000000000000000000000000000000000000\n      dup2\n      mstore\n      0x04\n      add\n      tag_185\n      swap1\n      tag_186\n      jump\t// in\n    tag_185:\n      mload(0x40)\n      dup1\n      swap2\n      sub\n      swap1\n      revert\n    tag_184:\n        /* \"contracts/_SimpleWallet.sol\":1427:1428  0 */\n      0x00\n        /* \"contracts/_SimpleWallet.sol\":1407:1429  newOwner != address(0) */\n      0xffffffffffffffffffffffffffffffffffffffff\n      and\n        /* \"contracts/_SimpleWallet.sol\":1407:1415  newOwner */\n      dup2\n        /* \"contracts/_SimpleWallet.sol\":1407:1429  newOwner != address(0) */\n      0xffffffffffffffffffffffffffffffffffffffff\n      and\n      sub\n        /* \"contracts/_SimpleWallet.sol\":1399:1450  require(newOwner != address(0), \"Invalid address!\") */\n      tag_188\n      jumpi\n      mload(0x40)\n      0x08c379a000000000000000000000000000000000000000000000000000000000\n      dup2\n      mstore\n      0x04\n      add\n      tag_189\n      swap1\n      tag_190\n      jump\t// in\n    tag_189:\n      mload(0x40)\n      dup1\n      swap2\n      sub\n      swap1\n      revert\n    tag_188:\n        /* \"contracts/_SimpleWallet.sol\":1467:1475  newOwner */\n      dup1\n        /* \"contracts/_SimpleWallet.sol\":1459:1464  owner */\n      0x01\n      0x00\n        /* \"contracts/_SimpleWallet.sol\":1459:1475  owner = newOwner */\n      0x0100\n      exp\n      dup2\n      sload\n      dup2\n      0xffffffffffffffffffffffffffffffffffffffff\n      mul\n      not\n      and\n      swap1\n      dup4\n      0xffffffffffffffffffffffffffffffffffffffff\n      and\n      mul\n      or\n      swap1\n      sstore\n      pop\n        /* \"contracts/_SimpleWallet.sol\":1315:1483  function changOwner(address newOwner) public onlyOwner isEmergencyDeclared {... */\n      pop\n      jump\t// out\n        /* \"#utility.yul\":7:133   */\n    tag_191:\n        /* \"#utility.yul\":44:51   */\n      0x00\n        /* \"#utility.yul\":84:126   */\n      0xffffffffffffffffffffffffffffffffffffffff\n        /* \"#utility.yul\":77:82   */\n      dup3\n        /* \"#utility.yul\":73:127   */\n      and\n        /* \"#utility.yul\":62:127   */\n      swap1\n      pop\n        /* \"#utility.yul\":7:133   */\n      swap2\n      swap1\n      pop\n      jump\t// out\n        /* \"#utility.yul\":139:235   */\n    tag_192:\n        /* \"#utility.yul\":176:183   */\n      0x00\n        /* \"#utility.yul\":205:229   */\n      tag_255\n        /* \"#utility.yul\":223:228   */\n      dup3\n        /* \"#utility.yul\":205:229   */\n      tag_191\n      jump\t// in\n    tag_255:\n        /* \"#utility.yul\":194:229   */\n      swap1\n      pop\n        /* \"#utility.yul\":139:235   */\n      swap2\n      swap1\n      pop\n      jump\t// out\n        /* \"#utility.yul\":241:359   */\n    tag_193:\n        /* \"#utility.yul\":328:352   */\n      tag_257\n        /* \"#utility.yul\":346:351   */\n      dup2\n        /* \"#utility.yul\":328:352   */\n      tag_192\n      jump\t// in\n    tag_257:\n        /* \"#utility.yul\":323:326   */\n      dup3\n        /* \"#utility.yul\":316:353   */\n      mstore\n        /* \"#utility.yul\":241:359   */\n      pop\n      pop\n      jump\t// out\n        /* \"#utility.yul\":365:442   */\n    tag_194:\n        /* \"#utility.yul\":402:409   */\n      0x00\n        /* \"#utility.yul\":431:436   */\n      dup2\n        /* \"#utility.yul\":420:436   */\n      swap1\n      pop\n        /* \"#utility.yul\":365:442   */\n      swap2\n      swap1\n      pop\n      jump\t// out\n        /* \"#utility.yul\":448:566   */\n    tag_195:\n        /* \"#utility.yul\":535:559   */\n      tag_260\n        /* \"#utility.yul\":553:558   */\n      dup2\n        /* \"#utility.yul\":535:559   */\n      tag_194\n      jump\t// in\n    tag_260:\n        /* \"#utility.yul\":530:533   */\n      dup3\n        /* \"#utility.yul\":523:560   */\n      mstore\n        /* \"#utility.yul\":448:566   */\n      pop\n      pop\n      jump\t// out\n        /* \"#utility.yul\":572:904   */\n    tag_26:\n        /* \"#utility.yul\":693:697   */\n      0x00\n        /* \"#utility.yul\":731:733   */\n      0x40\n        /* \"#utility.yul\":720:729   */\n      dup3\n        /* \"#utility.yul\":716:734   */\n      add\n        /* \"#utility.yul\":708:734   */\n      swap1\n      pop\n        /* \"#utility.yul\":744:815   */\n      tag_262\n        /* \"#utility.yul\":812:813   */\n      0x00\n        /* \"#utility.yul\":801:810   */\n      dup4\n        /* \"#utility.yul\":797:814   */\n      add\n        /* \"#utility.yul\":788:794   */\n      dup6\n        /* \"#utility.yul\":744:815   */\n      tag_193\n      jump\t// in\n    tag_262:\n        /* \"#utility.yul\":825:897   */\n      tag_263\n        /* \"#utility.yul\":893:895   */\n      0x20\n        /* \"#utility.yul\":882:891   */\n      dup4\n        /* \"#utility.yul\":878:896   */\n      add\n        /* \"#utility.yul\":869:875   */\n      dup5\n        /* \"#utility.yul\":825:897   */\n      tag_195\n      jump\t// in\n    tag_263:\n        /* \"#utility.yul\":572:904   */\n      swap4\n      swap3\n      pop\n      pop\n      pop\n      jump\t// out\n        /* \"#utility.yul\":991:1108   */\n    tag_197:\n        /* \"#utility.yul\":1100:1101   */\n      0x00\n        /* \"#utility.yul\":1097:1098   */\n      0x00\n        /* \"#utility.yul\":1090:1102   */\n      revert\n        /* \"#utility.yul\":1237:1341   */\n    tag_199:\n        /* \"#utility.yul\":1282:1289   */\n      0x00\n        /* \"#utility.yul\":1311:1335   */\n      tag_268\n        /* \"#utility.yul\":1329:1334   */\n      dup3\n        /* \"#utility.yul\":1311:1335   */\n      tag_191\n      jump\t// in\n    tag_268:\n        /* \"#utility.yul\":1300:1335   */\n      swap1\n      pop\n        /* \"#utility.yul\":1237:1341   */\n      swap2\n      swap1\n      pop\n      jump\t// out\n        /* \"#utility.yul\":1347:1485   */\n    tag_200:\n        /* \"#utility.yul\":1428:1460   */\n      tag_270\n        /* \"#utility.yul\":1454:1459   */\n      dup2\n        /* \"#utility.yul\":1428:1460   */\n      tag_199\n      jump\t// in\n    tag_270:\n        /* \"#utility.yul\":1421:1426   */\n      dup2\n        /* \"#utility.yul\":1418:1461   */\n      eq\n        /* \"#utility.yul\":1408:1479   */\n      tag_271\n      jumpi\n        /* \"#utility.yul\":1475:1476   */\n      0x00\n        /* \"#utility.yul\":1472:1473   */\n      0x00\n        /* \"#utility.yul\":1465:1477   */\n      revert\n        /* \"#utility.yul\":1408:1479   */\n    tag_271:\n        /* \"#utility.yul\":1347:1485   */\n      pop\n      jump\t// out\n        /* \"#utility.yul\":1491:1646   */\n    tag_201:\n        /* \"#utility.yul\":1545:1550   */\n      0x00\n        /* \"#utility.yul\":1583:1589   */\n      dup2\n        /* \"#utility.yul\":1570:1590   */\n      calldataload\n        /* \"#utility.yul\":1561:1590   */\n      swap1\n      pop\n        /* \"#utility.yul\":1599:1640   */\n      tag_273\n        /* \"#utility.yul\":1634:1639   */\n      dup2\n        /* \"#utility.yul\":1599:1640   */\n      tag_200\n      jump\t// in\n    tag_273:\n        /* \"#utility.yul\":1491:1646   */\n      swap3\n      swap2\n      pop\n      pop\n      jump\t// out\n        /* \"#utility.yul\":1652:1774   */\n    tag_202:\n        /* \"#utility.yul\":1725:1749   */\n      tag_275\n        /* \"#utility.yul\":1743:1748   */\n      dup2\n        /* \"#utility.yul\":1725:1749   */\n      tag_194\n      jump\t// in\n    tag_275:\n        /* \"#utility.yul\":1718:1723   */\n      dup2\n        /* \"#utility.yul\":1715:1750   */\n      eq\n        /* \"#utility.yul\":1705:1768   */\n      tag_276\n      jumpi\n        /* \"#utility.yul\":1764:1765   */\n      0x00\n        /* \"#utility.yul\":1761:1762   */\n      0x00\n        /* \"#utility.yul\":1754:1766   */\n      revert\n        /* \"#utility.yul\":1705:1768   */\n    tag_276:\n        /* \"#utility.yul\":1652:1774   */\n      pop\n      jump\t// out\n        /* \"#utility.yul\":1780:1919   */\n    tag_203:\n        /* \"#utility.yul\":1826:1831   */\n      0x00\n        /* \"#utility.yul\":1864:1870   */\n      dup2\n        /* \"#utility.yul\":1851:1871   */\n      calldataload\n        /* \"#utility.yul\":1842:1871   */\n      swap1\n      pop\n        /* \"#utility.yul\":1880:1913   */\n      tag_278\n        /* \"#utility.yul\":1907:1912   */\n      dup2\n        /* \"#utility.yul\":1880:1913   */\n      tag_202\n      jump\t// in\n    tag_278:\n        /* \"#utility.yul\":1780:1919   */\n      swap3\n      swap2\n      pop\n      pop\n      jump\t// out\n        /* \"#utility.yul\":1925:2415   */\n    tag_36:\n        /* \"#utility.yul\":2001:2007   */\n      0x00\n        /* \"#utility.yul\":2009:2015   */\n      0x00\n        /* \"#utility.yul\":2058:2060   */\n      0x40\n        /* \"#utility.yul\":2046:2055   */\n      dup4\n        /* \"#utility.yul\":2037:2044   */\n      dup6\n        /* \"#utility.yul\":2033:2056   */\n      sub\n        /* \"#utility.yul\":2029:2061   */\n      slt\n        /* \"#utility.yul\":2026:2145   */\n      iszero\n      tag_280\n      jumpi\n        /* \"#utility.yul\":2064:2143   */\n      tag_281\n      tag_197\n      jump\t// in\n    tag_281:\n        /* \"#utility.yul\":2026:2145   */\n    tag_280:\n        /* \"#utility.yul\":2184:2185   */\n      0x00\n        /* \"#utility.yul\":2209:2270   */\n      tag_282\n        /* \"#utility.yul\":2262:2269   */\n      dup6\n        /* \"#utility.yul\":2253:2259   */\n      dup3\n        /* \"#utility.yul\":2242:2251   */\n      dup7\n        /* \"#utility.yul\":2238:2260   */\n      add\n        /* \"#utility.yul\":2209:2270   */\n      tag_201\n      jump\t// in\n    tag_282:\n        /* \"#utility.yul\":2199:2270   */\n      swap3\n      pop\n        /* \"#utility.yul\":2155:2280   */\n      pop\n        /* \"#utility.yul\":2319:2321   */\n      0x20\n        /* \"#utility.yul\":2345:2398   */\n      tag_283\n        /* \"#utility.yul\":2390:2397   */\n      dup6\n        /* \"#utility.yul\":2381:2387   */\n      dup3\n        /* \"#utility.yul\":2370:2379   */\n      dup7\n        /* \"#utility.yul\":2366:2388   */\n      add\n        /* \"#utility.yul\":2345:2398   */\n      tag_203\n      jump\t// in\n    tag_283:\n        /* \"#utility.yul\":2335:2398   */\n      swap2\n      pop\n        /* \"#utility.yul\":2290:2408   */\n      pop\n        /* \"#utility.yul\":1925:2415   */\n      swap3\n      pop\n      swap3\n      swap1\n      pop\n      jump\t// out\n        /* \"#utility.yul\":2421:2643   */\n    tag_42:\n        /* \"#utility.yul\":2514:2518   */\n      0x00\n        /* \"#utility.yul\":2552:2554   */\n      0x20\n        /* \"#utility.yul\":2541:2550   */\n      dup3\n        /* \"#utility.yul\":2537:2555   */\n      add\n        /* \"#utility.yul\":2529:2555   */\n      swap1\n      pop\n        /* \"#utility.yul\":2565:2636   */\n      tag_285\n        /* \"#utility.yul\":2633:2634   */\n      0x00\n        /* \"#utility.yul\":2622:2631   */\n      dup4\n        /* \"#utility.yul\":2618:2635   */\n      add\n        /* \"#utility.yul\":2609:2615   */\n      dup5\n        /* \"#utility.yul\":2565:2636   */\n      tag_195\n      jump\t// in\n    tag_285:\n        /* \"#utility.yul\":2421:2643   */\n      swap3\n      swap2\n      pop\n      pop\n      jump\t// out\n        /* \"#utility.yul\":2649:2994   */\n    tag_45:\n        /* \"#utility.yul\":2716:2722   */\n      0x00\n        /* \"#utility.yul\":2765:2767   */\n      0x20\n        /* \"#utility.yul\":2753:2762   */\n      dup3\n        /* \"#utility.yul\":2744:2751   */\n      dup5\n        /* \"#utility.yul\":2740:2763   */\n      sub\n        /* \"#utility.yul\":2736:2768   */\n      slt\n        /* \"#utility.yul\":2733:2852   */\n      iszero\n      tag_287\n      jumpi\n        /* \"#utility.yul\":2771:2850   */\n      tag_288\n      tag_197\n      jump\t// in\n    tag_288:\n        /* \"#utility.yul\":2733:2852   */\n    tag_287:\n        /* \"#utility.yul\":2891:2892   */\n      0x00\n        /* \"#utility.yul\":2916:2977   */\n      tag_289\n        /* \"#utility.yul\":2969:2976   */\n      dup5\n        /* \"#utility.yul\":2960:2966   */\n      dup3\n        /* \"#utility.yul\":2949:2958   */\n      dup6\n        /* \"#utility.yul\":2945:2967   */\n      add\n        /* \"#utility.yul\":2916:2977   */\n      tag_201\n      jump\t// in\n    tag_289:\n        /* \"#utility.yul\":2906:2977   */\n      swap2\n      pop\n        /* \"#utility.yul\":2862:2987   */\n      pop\n        /* \"#utility.yul\":2649:2994   */\n      swap3\n      swap2\n      pop\n      pop\n      jump\t// out\n        /* \"#utility.yul\":3000:3329   */\n    tag_53:\n        /* \"#utility.yul\":3059:3065   */\n      0x00\n        /* \"#utility.yul\":3108:3110   */\n      0x20\n        /* \"#utility.yul\":3096:3105   */\n      dup3\n        /* \"#utility.yul\":3087:3094   */\n      dup5\n        /* \"#utility.yul\":3083:3106   */\n      sub\n        /* \"#utility.yul\":3079:3111   */\n      slt\n        /* \"#utility.yul\":3076:3195   */\n      iszero\n      tag_291\n      jumpi\n        /* \"#utility.yul\":3114:3193   */\n      tag_292\n      tag_197\n      jump\t// in\n    tag_292:\n        /* \"#utility.yul\":3076:3195   */\n    tag_291:\n        /* \"#utility.yul\":3234:3235   */\n      0x00\n        /* \"#utility.yul\":3259:3312   */\n      tag_293\n        /* \"#utility.yul\":3304:3311   */\n      dup5\n        /* \"#utility.yul\":3295:3301   */\n      dup3\n        /* \"#utility.yul\":3284:3293   */\n      dup6\n        /* \"#utility.yul\":3280:3302   */\n      add\n        /* \"#utility.yul\":3259:3312   */\n      tag_203\n      jump\t// in\n    tag_293:\n        /* \"#utility.yul\":3249:3312   */\n      swap2\n      pop\n        /* \"#utility.yul\":3205:3322   */\n      pop\n        /* \"#utility.yul\":3000:3329   */\n      swap3\n      swap2\n      pop\n      pop\n      jump\t// out\n        /* \"#utility.yul\":3335:3888   */\n    tag_56:\n        /* \"#utility.yul\":3512:3516   */\n      0x00\n        /* \"#utility.yul\":3550:3553   */\n      0x80\n        /* \"#utility.yul\":3539:3548   */\n      dup3\n        /* \"#utility.yul\":3535:3554   */\n      add\n        /* \"#utility.yul\":3527:3554   */\n      swap1\n      pop\n        /* \"#utility.yul\":3564:3635   */\n      tag_295\n        /* \"#utility.yul\":3632:3633   */\n      0x00\n        /* \"#utility.yul\":3621:3630   */\n      dup4\n        /* \"#utility.yul\":3617:3634   */\n      add\n        /* \"#utility.yul\":3608:3614   */\n      dup8\n        /* \"#utility.yul\":3564:3635   */\n      tag_193\n      jump\t// in\n    tag_295:\n        /* \"#utility.yul\":3645:3717   */\n      tag_296\n        /* \"#utility.yul\":3713:3715   */\n      0x20\n        /* \"#utility.yul\":3702:3711   */\n      dup4\n        /* \"#utility.yul\":3698:3716   */\n      add\n        /* \"#utility.yul\":3689:3695   */\n      dup7\n        /* \"#utility.yul\":3645:3717   */\n      tag_193\n      jump\t// in\n    tag_296:\n        /* \"#utility.yul\":3727:3799   */\n      tag_297\n        /* \"#utility.yul\":3795:3797   */\n      0x40\n        /* \"#utility.yul\":3784:3793   */\n      dup4\n        /* \"#utility.yul\":3780:3798   */\n      add\n        /* \"#utility.yul\":3771:3777   */\n      dup6\n        /* \"#utility.yul\":3727:3799   */\n      tag_195\n      jump\t// in\n    tag_297:\n        /* \"#utility.yul\":3809:3881   */\n      tag_298\n        /* \"#utility.yul\":3877:3879   */\n      0x60\n        /* \"#utility.yul\":3866:3875   */\n      dup4\n        /* \"#utility.yul\":3862:3880   */\n      add\n        /* \"#utility.yul\":3853:3859   */\n      dup5\n        /* \"#utility.yul\":3809:3881   */\n      tag_195\n      jump\t// in\n    tag_298:\n        /* \"#utility.yul\":3335:3888   */\n      swap6\n      swap5\n      pop\n      pop\n      pop\n      pop\n      pop\n      jump\t// out\n        /* \"#utility.yul\":3894:4116   */\n    tag_61:\n        /* \"#utility.yul\":3987:3991   */\n      0x00\n        /* \"#utility.yul\":4025:4027   */\n      0x20\n        /* \"#utility.yul\":4014:4023   */\n      dup3\n        /* \"#utility.yul\":4010:4028   */\n      add\n        /* \"#utility.yul\":4002:4028   */\n      swap1\n      pop\n        /* \"#utility.yul\":4038:4109   */\n      tag_300\n        /* \"#utility.yul\":4106:4107   */\n      0x00\n        /* \"#utility.yul\":4095:4104   */\n      dup4\n        /* \"#utility.yul\":4091:4108   */\n      add\n        /* \"#utility.yul\":4082:4088   */\n      dup5\n        /* \"#utility.yul\":4038:4109   */\n      tag_193\n      jump\t// in\n    tag_300:\n        /* \"#utility.yul\":3894:4116   */\n      swap3\n      swap2\n      pop\n      pop\n      jump\t// out\n        /* \"#utility.yul\":4122:4263   */\n    tag_204:\n        /* \"#utility.yul\":4216:4222   */\n      0x00\n        /* \"#utility.yul\":4250:4255   */\n      dup2\n        /* \"#utility.yul\":4244:4256   */\n      mload\n        /* \"#utility.yul\":4234:4256   */\n      swap1\n      pop\n        /* \"#utility.yul\":4122:4263   */\n      swap2\n      swap1\n      pop\n      jump\t// out\n        /* \"#utility.yul\":4269:4480   */\n    tag_205:\n        /* \"#utility.yul\":4395:4406   */\n      0x00\n        /* \"#utility.yul\":4429:4435   */\n      dup3\n        /* \"#utility.yul\":4424:4427   */\n      dup3\n        /* \"#utility.yul\":4417:4436   */\n      mstore\n        /* \"#utility.yul\":4469:4473   */\n      0x20\n        /* \"#utility.yul\":4464:4467   */\n      dup3\n        /* \"#utility.yul\":4460:4474   */\n      add\n        /* \"#utility.yul\":4445:4474   */\n      swap1\n      pop\n        /* \"#utility.yul\":4269:4480   */\n      swap3\n      swap2\n      pop\n      pop\n      jump\t// out\n        /* \"#utility.yul\":4486:4645   */\n    tag_206:\n        /* \"#utility.yul\":4580:4584   */\n      0x00\n        /* \"#utility.yul\":4603:4606   */\n      dup2\n        /* \"#utility.yul\":4595:4606   */\n      swap1\n      pop\n        /* \"#utility.yul\":4633:4637   */\n      0x20\n        /* \"#utility.yul\":4628:4631   */\n      dup3\n        /* \"#utility.yul\":4624:4638   */\n      add\n        /* \"#utility.yul\":4616:4638   */\n      swap1\n      pop\n        /* \"#utility.yul\":4486:4645   */\n      swap2\n      swap1\n      pop\n      jump\t// out\n        /* \"#utility.yul\":4651:4759   */\n    tag_207:\n        /* \"#utility.yul\":4728:4752   */\n      tag_305\n        /* \"#utility.yul\":4746:4751   */\n      dup2\n        /* \"#utility.yul\":4728:4752   */\n      tag_192\n      jump\t// in\n    tag_305:\n        /* \"#utility.yul\":4723:4726   */\n      dup3\n        /* \"#utility.yul\":4716:4753   */\n      mstore\n        /* \"#utility.yul\":4651:4759   */\n      pop\n      pop\n      jump\t// out\n        /* \"#utility.yul\":4765:4873   */\n    tag_208:\n        /* \"#utility.yul\":4842:4866   */\n      tag_307\n        /* \"#utility.yul\":4860:4865   */\n      dup2\n        /* \"#utility.yul\":4842:4866   */\n      tag_194\n      jump\t// in\n    tag_307:\n        /* \"#utility.yul\":4837:4840   */\n      dup3\n        /* \"#utility.yul\":4830:4867   */\n      mstore\n        /* \"#utility.yul\":4765:4873   */\n      pop\n      pop\n      jump\t// out\n        /* \"#utility.yul\":4953:5807   */\n    tag_209:\n        /* \"#utility.yul\":5094:5098   */\n      0x80\n        /* \"#utility.yul\":5089:5092   */\n      dup3\n        /* \"#utility.yul\":5085:5099   */\n      add\n        /* \"#utility.yul\":5179:5183   */\n      0x00\n        /* \"#utility.yul\":5172:5177   */\n      dup3\n        /* \"#utility.yul\":5168:5184   */\n      add\n        /* \"#utility.yul\":5162:5185   */\n      mload\n        /* \"#utility.yul\":5198:5261   */\n      tag_309\n        /* \"#utility.yul\":5255:5259   */\n      0x00\n        /* \"#utility.yul\":5250:5253   */\n      dup6\n        /* \"#utility.yul\":5246:5260   */\n      add\n        /* \"#utility.yul\":5232:5244   */\n      dup3\n        /* \"#utility.yul\":5198:5261   */\n      tag_207\n      jump\t// in\n    tag_309:\n        /* \"#utility.yul\":5109:5271   */\n      pop\n        /* \"#utility.yul\":5353:5357   */\n      0x20\n        /* \"#utility.yul\":5346:5351   */\n      dup3\n        /* \"#utility.yul\":5342:5358   */\n      add\n        /* \"#utility.yul\":5336:5359   */\n      mload\n        /* \"#utility.yul\":5372:5435   */\n      tag_310\n        /* \"#utility.yul\":5429:5433   */\n      0x20\n        /* \"#utility.yul\":5424:5427   */\n      dup6\n        /* \"#utility.yul\":5420:5434   */\n      add\n        /* \"#utility.yul\":5406:5418   */\n      dup3\n        /* \"#utility.yul\":5372:5435   */\n      tag_207\n      jump\t// in\n    tag_310:\n        /* \"#utility.yul\":5281:5445   */\n      pop\n        /* \"#utility.yul\":5532:5536   */\n      0x40\n        /* \"#utility.yul\":5525:5530   */\n      dup3\n        /* \"#utility.yul\":5521:5537   */\n      add\n        /* \"#utility.yul\":5515:5538   */\n      mload\n        /* \"#utility.yul\":5551:5614   */\n      tag_311\n        /* \"#utility.yul\":5608:5612   */\n      0x40\n        /* \"#utility.yul\":5603:5606   */\n      dup6\n        /* \"#utility.yul\":5599:5613   */\n      add\n        /* \"#utility.yul\":5585:5597   */\n      dup3\n        /* \"#utility.yul\":5551:5614   */\n      tag_208\n      jump\t// in\n    tag_311:\n        /* \"#utility.yul\":5455:5624   */\n      pop\n        /* \"#utility.yul\":5708:5712   */\n      0x60\n        /* \"#utility.yul\":5701:5706   */\n      dup3\n        /* \"#utility.yul\":5697:5713   */\n      add\n        /* \"#utility.yul\":5691:5714   */\n      mload\n        /* \"#utility.yul\":5727:5790   */\n      tag_312\n        /* \"#utility.yul\":5784:5788   */\n      0x60\n        /* \"#utility.yul\":5779:5782   */\n      dup6\n        /* \"#utility.yul\":5775:5789   */\n      add\n        /* \"#utility.yul\":5761:5773   */\n      dup3\n        /* \"#utility.yul\":5727:5790   */\n      tag_208\n      jump\t// in\n    tag_312:\n        /* \"#utility.yul\":5634:5800   */\n      pop\n        /* \"#utility.yul\":5063:5807   */\n      pop\n        /* \"#utility.yul\":4953:5807   */\n      pop\n      pop\n      jump\t// out\n        /* \"#utility.yul\":5813:6100   */\n    tag_210:\n        /* \"#utility.yul\":5936:5946   */\n      0x00\n        /* \"#utility.yul\":5957:6057   */\n      tag_314\n        /* \"#utility.yul\":6053:6056   */\n      dup4\n        /* \"#utility.yul\":6045:6051   */\n      dup4\n        /* \"#utility.yul\":5957:6057   */\n      tag_209\n      jump\t// in\n    tag_314:\n        /* \"#utility.yul\":6089:6093   */\n      0x80\n        /* \"#utility.yul\":6084:6087   */\n      dup4\n        /* \"#utility.yul\":6080:6094   */\n      add\n        /* \"#utility.yul\":6066:6094   */\n      swap1\n      pop\n        /* \"#utility.yul\":5813:6100   */\n      swap3\n      swap2\n      pop\n      pop\n      jump\t// out\n        /* \"#utility.yul\":6106:6246   */\n    tag_211:\n        /* \"#utility.yul\":6203:6207   */\n      0x00\n        /* \"#utility.yul\":6235:6239   */\n      0x20\n        /* \"#utility.yul\":6230:6233   */\n      dup3\n        /* \"#utility.yul\":6226:6240   */\n      add\n        /* \"#utility.yul\":6218:6240   */\n      swap1\n      pop\n        /* \"#utility.yul\":6106:6246   */\n      swap2\n      swap1\n      pop\n      jump\t// out\n        /* \"#utility.yul\":6330:7278   */\n    tag_212:\n        /* \"#utility.yul\":6503:6506   */\n      0x00\n        /* \"#utility.yul\":6532:6613   */\n      tag_317\n        /* \"#utility.yul\":6607:6612   */\n      dup3\n        /* \"#utility.yul\":6532:6613   */\n      tag_204\n      jump\t// in\n    tag_317:\n        /* \"#utility.yul\":6629:6742   */\n      tag_318\n        /* \"#utility.yul\":6735:6741   */\n      dup2\n        /* \"#utility.yul\":6730:6733   */\n      dup6\n        /* \"#utility.yul\":6629:6742   */\n      tag_205\n      jump\t// in\n    tag_318:\n        /* \"#utility.yul\":6622:6742   */\n      swap4\n      pop\n        /* \"#utility.yul\":6766:6849   */\n      tag_319\n        /* \"#utility.yul\":6843:6848   */\n      dup4\n        /* \"#utility.yul\":6766:6849   */\n      tag_206\n      jump\t// in\n    tag_319:\n        /* \"#utility.yul\":6872:6879   */\n      dup1\n        /* \"#utility.yul\":6903:6904   */\n      0x00\n        /* \"#utility.yul\":6888:7253   */\n    tag_320:\n        /* \"#utility.yul\":6913:6919   */\n      dup4\n        /* \"#utility.yul\":6910:6911   */\n      dup2\n        /* \"#utility.yul\":6907:6920   */\n      lt\n        /* \"#utility.yul\":6888:7253   */\n      iszero\n      tag_322\n      jumpi\n        /* \"#utility.yul\":6989:6995   */\n      dup2\n        /* \"#utility.yul\":6983:6996   */\n      mload\n        /* \"#utility.yul\":7016:7133   */\n      tag_323\n        /* \"#utility.yul\":7129:7132   */\n      dup9\n        /* \"#utility.yul\":7114:7127   */\n      dup3\n        /* \"#utility.yul\":7016:7133   */\n      tag_210\n      jump\t// in\n    tag_323:\n        /* \"#utility.yul\":7009:7133   */\n      swap8\n      pop\n        /* \"#utility.yul\":7156:7243   */\n      tag_324\n        /* \"#utility.yul\":7236:7242   */\n      dup4\n        /* \"#utility.yul\":7156:7243   */\n      tag_211\n      jump\t// in\n    tag_324:\n        /* \"#utility.yul\":7146:7243   */\n      swap3\n      pop\n        /* \"#utility.yul\":6948:7253   */\n      pop\n        /* \"#utility.yul\":6935:6936   */\n      0x01\n        /* \"#utility.yul\":6932:6933   */\n      dup2\n        /* \"#utility.yul\":6928:6937   */\n      add\n        /* \"#utility.yul\":6923:6937   */\n      swap1\n      pop\n        /* \"#utility.yul\":6888:7253   */\n      jump(tag_320)\n    tag_322:\n        /* \"#utility.yul\":6892:6906   */\n      pop\n        /* \"#utility.yul\":7269:7272   */\n      dup6\n        /* \"#utility.yul\":7262:7272   */\n      swap4\n      pop\n        /* \"#utility.yul\":6508:7278   */\n      pop\n      pop\n      pop\n        /* \"#utility.yul\":6330:7278   */\n      swap3\n      swap2\n      pop\n      pop\n      jump\t// out\n        /* \"#utility.yul\":7284:7765   */\n    tag_77:\n        /* \"#utility.yul\":7481:7485   */\n      0x00\n        /* \"#utility.yul\":7519:7521   */\n      0x20\n        /* \"#utility.yul\":7508:7517   */\n      dup3\n        /* \"#utility.yul\":7504:7522   */\n      add\n        /* \"#utility.yul\":7496:7522   */\n      swap1\n      pop\n        /* \"#utility.yul\":7568:7577   */\n      dup2\n        /* \"#utility.yul\":7562:7566   */\n      dup2\n        /* \"#utility.yul\":7558:7578   */\n      sub\n        /* \"#utility.yul\":7554:7555   */\n      0x00\n        /* \"#utility.yul\":7543:7552   */\n      dup4\n        /* \"#utility.yul\":7539:7556   */\n      add\n        /* \"#utility.yul\":7532:7579   */\n      mstore\n        /* \"#utility.yul\":7596:7758   */\n      tag_326\n        /* \"#utility.yul\":7753:7757   */\n      dup2\n        /* \"#utility.yul\":7744:7750   */\n      dup5\n        /* \"#utility.yul\":7596:7758   */\n      tag_212\n      jump\t// in\n    tag_326:\n        /* \"#utility.yul\":7588:7758   */\n      swap1\n      pop\n        /* \"#utility.yul\":7284:7765   */\n      swap3\n      swap2\n      pop\n      pop\n      jump\t// out\n        /* \"#utility.yul\":7771:7893   */\n    tag_213:\n        /* \"#utility.yul\":7844:7868   */\n      tag_328\n        /* \"#utility.yul\":7862:7867   */\n      dup2\n        /* \"#utility.yul\":7844:7868   */\n      tag_192\n      jump\t// in\n    tag_328:\n        /* \"#utility.yul\":7837:7842   */\n      dup2\n        /* \"#utility.yul\":7834:7869   */\n      eq\n        /* \"#utility.yul\":7824:7887   */\n      tag_329\n      jumpi\n        /* \"#utility.yul\":7883:7884   */\n      0x00\n        /* \"#utility.yul\":7880:7881   */\n      0x00\n        /* \"#utility.yul\":7873:7885   */\n      revert\n        /* \"#utility.yul\":7824:7887   */\n    tag_329:\n        /* \"#utility.yul\":7771:7893   */\n      pop\n      jump\t// out\n        /* \"#utility.yul\":7899:8038   */\n    tag_214:\n        /* \"#utility.yul\":7945:7950   */\n      0x00\n        /* \"#utility.yul\":7983:7989   */\n      dup2\n        /* \"#utility.yul\":7970:7990   */\n      calldataload\n        /* \"#utility.yul\":7961:7990   */\n      swap1\n      pop\n        /* \"#utility.yul\":7999:8032   */\n      tag_331\n        /* \"#utility.yul\":8026:8031   */\n      dup2\n        /* \"#utility.yul\":7999:8032   */\n      tag_213\n      jump\t// in\n    tag_331:\n        /* \"#utility.yul\":7899:8038   */\n      swap3\n      swap2\n      pop\n      pop\n      jump\t// out\n        /* \"#utility.yul\":8044:8373   */\n    tag_89:\n        /* \"#utility.yul\":8103:8109   */\n      0x00\n        /* \"#utility.yul\":8152:8154   */\n      0x20\n        /* \"#utility.yul\":8140:8149   */\n      dup3\n        /* \"#utility.yul\":8131:8138   */\n      dup5\n        /* \"#utility.yul\":8127:8150   */\n      sub\n        /* \"#utility.yul\":8123:8155   */\n      slt\n        /* \"#utility.yul\":8120:8239   */\n      iszero\n      tag_333\n      jumpi\n        /* \"#utility.yul\":8158:8237   */\n      tag_334\n      tag_197\n      jump\t// in\n    tag_334:\n        /* \"#utility.yul\":8120:8239   */\n    tag_333:\n        /* \"#utility.yul\":8278:8279   */\n      0x00\n        /* \"#utility.yul\":8303:8356   */\n      tag_335\n        /* \"#utility.yul\":8348:8355   */\n      dup5\n        /* \"#utility.yul\":8339:8345   */\n      dup3\n        /* \"#utility.yul\":8328:8337   */\n      dup6\n        /* \"#utility.yul\":8324:8346   */\n      add\n        /* \"#utility.yul\":8303:8356   */\n      tag_214\n      jump\t// in\n    tag_335:\n        /* \"#utility.yul\":8293:8356   */\n      swap2\n      pop\n        /* \"#utility.yul\":8249:8366   */\n      pop\n        /* \"#utility.yul\":8044:8373   */\n      swap3\n      swap2\n      pop\n      pop\n      jump\t// out\n        /* \"#utility.yul\":8379:8478   */\n    tag_215:\n        /* \"#utility.yul\":8431:8437   */\n      0x00\n        /* \"#utility.yul\":8465:8470   */\n      dup2\n        /* \"#utility.yul\":8459:8471   */\n      mload\n        /* \"#utility.yul\":8449:8471   */\n      swap1\n      pop\n        /* \"#utility.yul\":8379:8478   */\n      swap2\n      swap1\n      pop\n      jump\t// out\n        /* \"#utility.yul\":8484:8653   */\n    tag_216:\n        /* \"#utility.yul\":8568:8579   */\n      0x00\n        /* \"#utility.yul\":8602:8608   */\n      dup3\n        /* \"#utility.yul\":8597:8600   */\n      dup3\n        /* \"#utility.yul\":8590:8609   */\n      mstore\n        /* \"#utility.yul\":8642:8646   */\n      0x20\n        /* \"#utility.yul\":8637:8640   */\n      dup3\n        /* \"#utility.yul\":8633:8647   */\n      add\n        /* \"#utility.yul\":8618:8647   */\n      swap1\n      pop\n        /* \"#utility.yul\":8484:8653   */\n      swap3\n      swap2\n      pop\n      pop\n      jump\t// out\n        /* \"#utility.yul\":8659:8798   */\n    tag_217:\n        /* \"#utility.yul\":8748:8754   */\n      dup3\n        /* \"#utility.yul\":8743:8746   */\n      dup2\n        /* \"#utility.yul\":8738:8741   */\n      dup4\n        /* \"#utility.yul\":8732:8755   */\n      mcopy\n        /* \"#utility.yul\":8789:8790   */\n      0x00\n        /* \"#utility.yul\":8780:8786   */\n      dup4\n        /* \"#utility.yul\":8775:8778   */\n      dup4\n        /* \"#utility.yul\":8771:8787   */\n      add\n        /* \"#utility.yul\":8764:8791   */\n      mstore\n        /* \"#utility.yul\":8659:8798   */\n      pop\n      pop\n      pop\n      jump\t// out\n        /* \"#utility.yul\":8804:8906   */\n    tag_218:\n        /* \"#utility.yul\":8845:8851   */\n      0x00\n        /* \"#utility.yul\":8896:8898   */\n      0x1f\n        /* \"#utility.yul\":8892:8899   */\n      not\n        /* \"#utility.yul\":8887:8889   */\n      0x1f\n        /* \"#utility.yul\":8880:8885   */\n      dup4\n        /* \"#utility.yul\":8876:8890   */\n      add\n        /* \"#utility.yul\":8872:8900   */\n      and\n        /* \"#utility.yul\":8862:8900   */\n      swap1\n      pop\n        /* \"#utility.yul\":8804:8906   */\n      swap2\n      swap1\n      pop\n      jump\t// out\n        /* \"#utility.yul\":8912:9289   */\n    tag_219:\n        /* \"#utility.yul\":9000:9003   */\n      0x00\n        /* \"#utility.yul\":9028:9067   */\n      tag_341\n        /* \"#utility.yul\":9061:9066   */\n      dup3\n        /* \"#utility.yul\":9028:9067   */\n      tag_215\n      jump\t// in\n    tag_341:\n        /* \"#utility.yul\":9083:9154   */\n      tag_342\n        /* \"#utility.yul\":9147:9153   */\n      dup2\n        /* \"#utility.yul\":9142:9145   */\n      dup6\n        /* \"#utility.yul\":9083:9154   */\n      tag_216\n      jump\t// in\n    tag_342:\n        /* \"#utility.yul\":9076:9154   */\n      swap4\n      pop\n        /* \"#utility.yul\":9163:9228   */\n      tag_343\n        /* \"#utility.yul\":9221:9227   */\n      dup2\n        /* \"#utility.yul\":9216:9219   */\n      dup6\n        /* \"#utility.yul\":9209:9213   */\n      0x20\n        /* \"#utility.yul\":9202:9207   */\n      dup7\n        /* \"#utility.yul\":9198:9214   */\n      add\n        /* \"#utility.yul\":9163:9228   */\n      tag_217\n      jump\t// in\n    tag_343:\n        /* \"#utility.yul\":9253:9282   */\n      tag_344\n        /* \"#utility.yul\":9275:9281   */\n      dup2\n        /* \"#utility.yul\":9253:9282   */\n      tag_218\n      jump\t// in\n    tag_344:\n        /* \"#utility.yul\":9248:9251   */\n      dup5\n        /* \"#utility.yul\":9244:9283   */\n      add\n        /* \"#utility.yul\":9237:9283   */\n      swap2\n      pop\n        /* \"#utility.yul\":9004:9289   */\n      pop\n        /* \"#utility.yul\":8912:9289   */\n      swap3\n      swap2\n      pop\n      pop\n      jump\t// out\n        /* \"#utility.yul\":9295:9608   */\n    tag_96:\n        /* \"#utility.yul\":9408:9412   */\n      0x00\n        /* \"#utility.yul\":9446:9448   */\n      0x20\n        /* \"#utility.yul\":9435:9444   */\n      dup3\n        /* \"#utility.yul\":9431:9449   */\n      add\n        /* \"#utility.yul\":9423:9449   */\n      swap1\n      pop\n        /* \"#utility.yul\":9495:9504   */\n      dup2\n        /* \"#utility.yul\":9489:9493   */\n      dup2\n        /* \"#utility.yul\":9485:9505   */\n      sub\n        /* \"#utility.yul\":9481:9482   */\n      0x00\n        /* \"#utility.yul\":9470:9479   */\n      dup4\n        /* \"#utility.yul\":9466:9483   */\n      add\n        /* \"#utility.yul\":9459:9506   */\n      mstore\n        /* \"#utility.yul\":9523:9601   */\n      tag_346\n        /* \"#utility.yul\":9596:9600   */\n      dup2\n        /* \"#utility.yul\":9587:9593   */\n      dup5\n        /* \"#utility.yul\":9523:9601   */\n      tag_219\n      jump\t// in\n    tag_346:\n        /* \"#utility.yul\":9515:9601   */\n      swap1\n      pop\n        /* \"#utility.yul\":9295:9608   */\n      swap3\n      swap2\n      pop\n      pop\n      jump\t// out\n        /* \"#utility.yul\":9614:9794   */\n    tag_220:\n        /* \"#utility.yul\":9662:9739   */\n      0x4e487b7100000000000000000000000000000000000000000000000000000000\n        /* \"#utility.yul\":9659:9660   */\n      0x00\n        /* \"#utility.yul\":9652:9740   */\n      mstore\n        /* \"#utility.yul\":9759:9763   */\n      0x11\n        /* \"#utility.yul\":9756:9757   */\n      0x04\n        /* \"#utility.yul\":9749:9764   */\n      mstore\n        /* \"#utility.yul\":9783:9787   */\n      0x24\n        /* \"#utility.yul\":9780:9781   */\n      0x00\n        /* \"#utility.yul\":9773:9788   */\n      revert\n        /* \"#utility.yul\":9800:9991   */\n    tag_103:\n        /* \"#utility.yul\":9840:9843   */\n      0x00\n        /* \"#utility.yul\":9859:9879   */\n      tag_349\n        /* \"#utility.yul\":9877:9878   */\n      dup3\n        /* \"#utility.yul\":9859:9879   */\n      tag_194\n      jump\t// in\n    tag_349:\n        /* \"#utility.yul\":9854:9879   */\n      swap2\n      pop\n        /* \"#utility.yul\":9893:9913   */\n      tag_350\n        /* \"#utility.yul\":9911:9912   */\n      dup4\n        /* \"#utility.yul\":9893:9913   */\n      tag_194\n      jump\t// in\n    tag_350:\n        /* \"#utility.yul\":9888:9913   */\n      swap3\n      pop\n        /* \"#utility.yul\":9936:9937   */\n      dup3\n        /* \"#utility.yul\":9933:9934   */\n      dup3\n        /* \"#utility.yul\":9929:9938   */\n      add\n        /* \"#utility.yul\":9922:9938   */\n      swap1\n      pop\n        /* \"#utility.yul\":9957:9960   */\n      dup1\n        /* \"#utility.yul\":9954:9955   */\n      dup3\n        /* \"#utility.yul\":9951:9961   */\n      gt\n        /* \"#utility.yul\":9948:9984   */\n      iszero\n      tag_351\n      jumpi\n        /* \"#utility.yul\":9964:9982   */\n      tag_352\n      tag_220\n      jump\t// in\n    tag_352:\n        /* \"#utility.yul\":9948:9984   */\n    tag_351:\n        /* \"#utility.yul\":9800:9991   */\n      swap3\n      swap2\n      pop\n      pop\n      jump\t// out\n        /* \"#utility.yul\":9997:10220   */\n    tag_221:\n        /* \"#utility.yul\":10137:10171   */\n      0x616363657373206465736d6973736564202120796f7520617265206e6f74204f\n        /* \"#utility.yul\":10133:10134   */\n      0x00\n        /* \"#utility.yul\":10125:10131   */\n      dup3\n        /* \"#utility.yul\":10121:10135   */\n      add\n        /* \"#utility.yul\":10114:10172   */\n      mstore\n        /* \"#utility.yul\":10206:10212   */\n      0x776e657200000000000000000000000000000000000000000000000000000000\n        /* \"#utility.yul\":10201:10203   */\n      0x20\n        /* \"#utility.yul\":10193:10199   */\n      dup3\n        /* \"#utility.yul\":10189:10204   */\n      add\n        /* \"#utility.yul\":10182:10213   */\n      mstore\n        /* \"#utility.yul\":9997:10220   */\n      pop\n      jump\t// out\n        /* \"#utility.yul\":10226:10592   */\n    tag_222:\n        /* \"#utility.yul\":10368:10371   */\n      0x00\n        /* \"#utility.yul\":10389:10456   */\n      tag_355\n        /* \"#utility.yul\":10453:10455   */\n      0x24\n        /* \"#utility.yul\":10448:10451   */\n      dup4\n        /* \"#utility.yul\":10389:10456   */\n      tag_216\n      jump\t// in\n    tag_355:\n        /* \"#utility.yul\":10382:10456   */\n      swap2\n      pop\n        /* \"#utility.yul\":10465:10558   */\n      tag_356\n        /* \"#utility.yul\":10554:10557   */\n      dup3\n        /* \"#utility.yul\":10465:10558   */\n      tag_221\n      jump\t// in\n    tag_356:\n        /* \"#utility.yul\":10583:10585   */\n      0x40\n        /* \"#utility.yul\":10578:10581   */\n      dup3\n        /* \"#utility.yul\":10574:10586   */\n      add\n        /* \"#utility.yul\":10567:10586   */\n      swap1\n      pop\n        /* \"#utility.yul\":10226:10592   */\n      swap2\n      swap1\n      pop\n      jump\t// out\n        /* \"#utility.yul\":10598:11017   */\n    tag_109:\n        /* \"#utility.yul\":10764:10768   */\n      0x00\n        /* \"#utility.yul\":10802:10804   */\n      0x20\n        /* \"#utility.yul\":10791:10800   */\n      dup3\n        /* \"#utility.yul\":10787:10805   */\n      add\n        /* \"#utility.yul\":10779:10805   */\n      swap1\n      pop\n        /* \"#utility.yul\":10851:10860   */\n      dup2\n        /* \"#utility.yul\":10845:10849   */\n      dup2\n        /* \"#utility.yul\":10841:10861   */\n      sub\n        /* \"#utility.yul\":10837:10838   */\n      0x00\n        /* \"#utility.yul\":10826:10835   */\n      dup4\n        /* \"#utility.yul\":10822:10839   */\n      add\n        /* \"#utility.yul\":10815:10862   */\n      mstore\n        /* \"#utility.yul\":10879:11010   */\n      tag_358\n        /* \"#utility.yul\":11005:11009   */\n      dup2\n        /* \"#utility.yul\":10879:11010   */\n      tag_222\n      jump\t// in\n    tag_358:\n        /* \"#utility.yul\":10871:11010   */\n      swap1\n      pop\n        /* \"#utility.yul\":10598:11017   */\n      swap2\n      swap1\n      pop\n      jump\t// out\n        /* \"#utility.yul\":11023:11194   */\n    tag_223:\n        /* \"#utility.yul\":11163:11186   */\n      0x756e737566666963656e65742062616c616e6365210000000000000000000000\n        /* \"#utility.yul\":11159:11160   */\n      0x00\n        /* \"#utility.yul\":11151:11157   */\n      dup3\n        /* \"#utility.yul\":11147:11161   */\n      add\n        /* \"#utility.yul\":11140:11187   */\n      mstore\n        /* \"#utility.yul\":11023:11194   */\n      pop\n      jump\t// out\n        /* \"#utility.yul\":11200:11566   */\n    tag_224:\n        /* \"#utility.yul\":11342:11345   */\n      0x00\n        /* \"#utility.yul\":11363:11430   */\n      tag_361\n        /* \"#utility.yul\":11427:11429   */\n      0x15\n        /* \"#utility.yul\":11422:11425   */\n      dup4\n        /* \"#utility.yul\":11363:11430   */\n      tag_216\n      jump\t// in\n    tag_361:\n        /* \"#utility.yul\":11356:11430   */\n      swap2\n      pop\n        /* \"#utility.yul\":11439:11532   */\n      tag_362\n        /* \"#utility.yul\":11528:11531   */\n      dup3\n        /* \"#utility.yul\":11439:11532   */\n      tag_223\n      jump\t// in\n    tag_362:\n        /* \"#utility.yul\":11557:11559   */\n      0x20\n        /* \"#utility.yul\":11552:11555   */\n      dup3\n        /* \"#utility.yul\":11548:11560   */\n      add\n        /* \"#utility.yul\":11541:11560   */\n      swap1\n      pop\n        /* \"#utility.yul\":11200:11566   */\n      swap2\n      swap1\n      pop\n      jump\t// out\n        /* \"#utility.yul\":11572:11991   */\n    tag_113:\n        /* \"#utility.yul\":11738:11742   */\n      0x00\n        /* \"#utility.yul\":11776:11778   */\n      0x20\n        /* \"#utility.yul\":11765:11774   */\n      dup3\n        /* \"#utility.yul\":11761:11779   */\n      add\n        /* \"#utility.yul\":11753:11779   */\n      swap1\n      pop\n        /* \"#utility.yul\":11825:11834   */\n      dup2\n        /* \"#utility.yul\":11819:11823   */\n      dup2\n        /* \"#utility.yul\":11815:11835   */\n      sub\n        /* \"#utility.yul\":11811:11812   */\n      0x00\n        /* \"#utility.yul\":11800:11809   */\n      dup4\n        /* \"#utility.yul\":11796:11813   */\n      add\n        /* \"#utility.yul\":11789:11836   */\n      mstore\n        /* \"#utility.yul\":11853:11984   */\n      tag_364\n        /* \"#utility.yul\":11979:11983   */\n      dup2\n        /* \"#utility.yul\":11853:11984   */\n      tag_224\n      jump\t// in\n    tag_364:\n        /* \"#utility.yul\":11845:11984   */\n      swap1\n      pop\n        /* \"#utility.yul\":11572:11991   */\n      swap2\n      swap1\n      pop\n      jump\t// out\n        /* \"#utility.yul\":11997:12178   */\n    tag_225:\n        /* \"#utility.yul\":12137:12170   */\n      0x4164647265737320697320696e76616c696420636865636b206f6e6365732100\n        /* \"#utility.yul\":12133:12134   */\n      0x00\n        /* \"#utility.yul\":12125:12131   */\n      dup3\n        /* \"#utility.yul\":12121:12135   */\n      add\n        /* \"#utility.yul\":12114:12171   */\n      mstore\n        /* \"#utility.yul\":11997:12178   */\n      pop\n      jump\t// out\n        /* \"#utility.yul\":12184:12550   */\n    tag_226:\n        /* \"#utility.yul\":12326:12329   */\n      0x00\n        /* \"#utility.yul\":12347:12414   */\n      tag_367\n        /* \"#utility.yul\":12411:12413   */\n      0x1f\n        /* \"#utility.yul\":12406:12409   */\n      dup4\n        /* \"#utility.yul\":12347:12414   */\n      tag_216\n      jump\t// in\n    tag_367:\n        /* \"#utility.yul\":12340:12414   */\n      swap2\n      pop\n        /* \"#utility.yul\":12423:12516   */\n      tag_368\n        /* \"#utility.yul\":12512:12515   */\n      dup3\n        /* \"#utility.yul\":12423:12516   */\n      tag_225\n      jump\t// in\n    tag_368:\n        /* \"#utility.yul\":12541:12543   */\n      0x20\n        /* \"#utility.yul\":12536:12539   */\n      dup3\n        /* \"#utility.yul\":12532:12544   */\n      add\n        /* \"#utility.yul\":12525:12544   */\n      swap1\n      pop\n        /* \"#utility.yul\":12184:12550   */\n      swap2\n      swap1\n      pop\n      jump\t// out\n        /* \"#utility.yul\":12556:12975   */\n    tag_116:\n        /* \"#utility.yul\":12722:12726   */\n      0x00\n        /* \"#utility.yul\":12760:12762   */\n      0x20\n        /* \"#utility.yul\":12749:12758   */\n      dup3\n        /* \"#utility.yul\":12745:12763   */\n      add\n        /* \"#utility.yul\":12737:12763   */\n      swap1\n      pop\n        /* \"#utility.yul\":12809:12818   */\n      dup2\n        /* \"#utility.yul\":12803:12807   */\n      dup2\n        /* \"#utility.yul\":12799:12819   */\n      sub\n        /* \"#utility.yul\":12795:12796   */\n      0x00\n        /* \"#utility.yul\":12784:12793   */\n      dup4\n        /* \"#utility.yul\":12780:12797   */\n      add\n        /* \"#utility.yul\":12773:12820   */\n      mstore\n        /* \"#utility.yul\":12837:12968   */\n      tag_370\n        /* \"#utility.yul\":12963:12967   */\n      dup2\n        /* \"#utility.yul\":12837:12968   */\n      tag_226\n      jump\t// in\n    tag_370:\n        /* \"#utility.yul\":12829:12968   */\n      swap1\n      pop\n        /* \"#utility.yul\":12556:12975   */\n      swap2\n      swap1\n      pop\n      jump\t// out\n        /* \"#utility.yul\":12981:13041   */\n    tag_227:\n        /* \"#utility.yul\":13009:13012   */\n      0x00\n        /* \"#utility.yul\":13030:13035   */\n      dup2\n        /* \"#utility.yul\":13023:13035   */\n      swap1\n      pop\n        /* \"#utility.yul\":12981:13041   */\n      swap2\n      swap1\n      pop\n      jump\t// out\n        /* \"#utility.yul\":13047:13189   */\n    tag_228:\n        /* \"#utility.yul\":13097:13106   */\n      0x00\n        /* \"#utility.yul\":13130:13183   */\n      tag_373\n        /* \"#utility.yul\":13148:13182   */\n      tag_374\n        /* \"#utility.yul\":13157:13181   */\n      tag_375\n        /* \"#utility.yul\":13175:13180   */\n      dup5\n        /* \"#utility.yul\":13157:13181   */\n      tag_191\n      jump\t// in\n    tag_375:\n        /* \"#utility.yul\":13148:13182   */\n      tag_227\n      jump\t// in\n    tag_374:\n        /* \"#utility.yul\":13130:13183   */\n      tag_191\n      jump\t// in\n    tag_373:\n        /* \"#utility.yul\":13117:13183   */\n      swap1\n      pop\n        /* \"#utility.yul\":13047:13189   */\n      swap2\n      swap1\n      pop\n      jump\t// out\n        /* \"#utility.yul\":13195:13321   */\n    tag_229:\n        /* \"#utility.yul\":13245:13254   */\n      0x00\n        /* \"#utility.yul\":13278:13315   */\n      tag_377\n        /* \"#utility.yul\":13309:13314   */\n      dup3\n        /* \"#utility.yul\":13278:13315   */\n      tag_228\n      jump\t// in\n    tag_377:\n        /* \"#utility.yul\":13265:13315   */\n      swap1\n      pop\n        /* \"#utility.yul\":13195:13321   */\n      swap2\n      swap1\n      pop\n      jump\t// out\n        /* \"#utility.yul\":13327:13461   */\n    tag_230:\n        /* \"#utility.yul\":13385:13394   */\n      0x00\n        /* \"#utility.yul\":13418:13455   */\n      tag_379\n        /* \"#utility.yul\":13449:13454   */\n      dup3\n        /* \"#utility.yul\":13418:13455   */\n      tag_229\n      jump\t// in\n    tag_379:\n        /* \"#utility.yul\":13405:13455   */\n      swap1\n      pop\n        /* \"#utility.yul\":13327:13461   */\n      swap2\n      swap1\n      pop\n      jump\t// out\n        /* \"#utility.yul\":13467:13614   */\n    tag_231:\n        /* \"#utility.yul\":13562:13607   */\n      tag_381\n        /* \"#utility.yul\":13601:13606   */\n      dup2\n        /* \"#utility.yul\":13562:13607   */\n      tag_230\n      jump\t// in\n    tag_381:\n        /* \"#utility.yul\":13557:13560   */\n      dup3\n        /* \"#utility.yul\":13550:13608   */\n      mstore\n        /* \"#utility.yul\":13467:13614   */\n      pop\n      pop\n      jump\t// out\n        /* \"#utility.yul\":13620:13968   */\n    tag_118:\n        /* \"#utility.yul\":13749:13753   */\n      0x00\n        /* \"#utility.yul\":13787:13789   */\n      0x40\n        /* \"#utility.yul\":13776:13785   */\n      dup3\n        /* \"#utility.yul\":13772:13790   */\n      add\n        /* \"#utility.yul\":13764:13790   */\n      swap1\n      pop\n        /* \"#utility.yul\":13800:13879   */\n      tag_383\n        /* \"#utility.yul\":13876:13877   */\n      0x00\n        /* \"#utility.yul\":13865:13874   */\n      dup4\n        /* \"#utility.yul\":13861:13878   */\n      add\n        /* \"#utility.yul\":13852:13858   */\n      dup6\n        /* \"#utility.yul\":13800:13879   */\n      tag_231\n      jump\t// in\n    tag_383:\n        /* \"#utility.yul\":13889:13961   */\n      tag_384\n        /* \"#utility.yul\":13957:13959   */\n      0x20\n        /* \"#utility.yul\":13946:13955   */\n      dup4\n        /* \"#utility.yul\":13942:13960   */\n      add\n        /* \"#utility.yul\":13933:13939   */\n      dup5\n        /* \"#utility.yul\":13889:13961   */\n      tag_195\n      jump\t// in\n    tag_384:\n        /* \"#utility.yul\":13620:13968   */\n      swap4\n      swap3\n      pop\n      pop\n      pop\n      jump\t// out\n        /* \"#utility.yul\":13974:14121   */\n    tag_232:\n        /* \"#utility.yul\":14075:14086   */\n      0x00\n        /* \"#utility.yul\":14112:14115   */\n      dup2\n        /* \"#utility.yul\":14097:14115   */\n      swap1\n      pop\n        /* \"#utility.yul\":13974:14121   */\n      swap3\n      swap2\n      pop\n      pop\n      jump\t// out\n        /* \"#utility.yul\":14127:14241   */\n    tag_233:\n      pop\n      jump\t// out\n        /* \"#utility.yul\":14247:14645   */\n    tag_234:\n        /* \"#utility.yul\":14406:14409   */\n      0x00\n        /* \"#utility.yul\":14427:14510   */\n      tag_388\n        /* \"#utility.yul\":14508:14509   */\n      0x00\n        /* \"#utility.yul\":14503:14506   */\n      dup4\n        /* \"#utility.yul\":14427:14510   */\n      tag_232\n      jump\t// in\n    tag_388:\n        /* \"#utility.yul\":14420:14510   */\n      swap2\n      pop\n        /* \"#utility.yul\":14519:14612   */\n      tag_389\n        /* \"#utility.yul\":14608:14611   */\n      dup3\n        /* \"#utility.yul\":14519:14612   */\n      tag_233\n      jump\t// in\n    tag_389:\n        /* \"#utility.yul\":14637:14638   */\n      0x00\n        /* \"#utility.yul\":14632:14635   */\n      dup3\n        /* \"#utility.yul\":14628:14639   */\n      add\n        /* \"#utility.yul\":14621:14639   */\n      swap1\n      pop\n        /* \"#utility.yul\":14247:14645   */\n      swap2\n      swap1\n      pop\n      jump\t// out\n        /* \"#utility.yul\":14651:15030   */\n    tag_121:\n        /* \"#utility.yul\":14835:14838   */\n      0x00\n        /* \"#utility.yul\":14857:15004   */\n      tag_391\n        /* \"#utility.yul\":15000:15003   */\n      dup3\n        /* \"#utility.yul\":14857:15004   */\n      tag_234\n      jump\t// in\n    tag_391:\n        /* \"#utility.yul\":14850:15004   */\n      swap2\n      pop\n        /* \"#utility.yul\":15021:15024   */\n      dup2\n        /* \"#utility.yul\":15014:15024   */\n      swap1\n      pop\n        /* \"#utility.yul\":14651:15030   */\n      swap2\n      swap1\n      pop\n      jump\t// out\n        /* \"#utility.yul\":15036:15194   */\n    tag_235:\n        /* \"#utility.yul\":15176:15186   */\n      0x6661696c65642021000000000000000000000000000000000000000000000000\n        /* \"#utility.yul\":15172:15173   */\n      0x00\n        /* \"#utility.yul\":15164:15170   */\n      dup3\n        /* \"#utility.yul\":15160:15174   */\n      add\n        /* \"#utility.yul\":15153:15187   */\n      mstore\n        /* \"#utility.yul\":15036:15194   */\n      pop\n      jump\t// out\n        /* \"#utility.yul\":15200:15565   */\n    tag_236:\n        /* \"#utility.yul\":15342:15345   */\n      0x00\n        /* \"#utility.yul\":15363:15429   */\n      tag_394\n        /* \"#utility.yul\":15427:15428   */\n      0x08\n        /* \"#utility.yul\":15422:15425   */\n      dup4\n        /* \"#utility.yul\":15363:15429   */\n      tag_216\n      jump\t// in\n    tag_394:\n        /* \"#utility.yul\":15356:15429   */\n      swap2\n      pop\n        /* \"#utility.yul\":15438:15531   */\n      tag_395\n        /* \"#utility.yul\":15527:15530   */\n      dup3\n        /* \"#utility.yul\":15438:15531   */\n      tag_235\n      jump\t// in\n    tag_395:\n        /* \"#utility.yul\":15556:15558   */\n      0x20\n        /* \"#utility.yul\":15551:15554   */\n      dup3\n        /* \"#utility.yul\":15547:15559   */\n      add\n        /* \"#utility.yul\":15540:15559   */\n      swap1\n      pop\n        /* \"#utility.yul\":15200:15565   */\n      swap2\n      swap1\n      pop\n      jump\t// out\n        /* \"#utility.yul\":15571:15990   */\n    tag_127:\n        /* \"#utility.yul\":15737:15741   */\n      0x00\n        /* \"#utility.yul\":15775:15777   */\n      0x20\n        /* \"#utility.yul\":15764:15773   */\n      dup3\n        /* \"#utility.yul\":15760:15778   */\n      add\n        /* \"#utility.yul\":15752:15778   */\n      swap1\n      pop\n        /* \"#utility.yul\":15824:15833   */\n      dup2\n        /* \"#utility.yul\":15818:15822   */\n      dup2\n        /* \"#utility.yul\":15814:15834   */\n      sub\n        /* \"#utility.yul\":15810:15811   */\n      0x00\n        /* \"#utility.yul\":15799:15808   */\n      dup4\n        /* \"#utility.yul\":15795:15812   */\n      add\n        /* \"#utility.yul\":15788:15835   */\n      mstore\n        /* \"#utility.yul\":15852:15983   */\n      tag_397\n        /* \"#utility.yul\":15978:15982   */\n      dup2\n        /* \"#utility.yul\":15852:15983   */\n      tag_236\n      jump\t// in\n    tag_397:\n        /* \"#utility.yul\":15844:15983   */\n      swap1\n      pop\n        /* \"#utility.yul\":15571:15990   */\n      swap2\n      swap1\n      pop\n      jump\t// out\n        /* \"#utility.yul\":15996:16227   */\n    tag_237:\n        /* \"#utility.yul\":16136:16170   */\n      0x416374697669747920666f756e6420737573706963696f757320202c20626c6f\n        /* \"#utility.yul\":16132:16133   */\n      0x00\n        /* \"#utility.yul\":16124:16130   */\n      dup3\n        /* \"#utility.yul\":16120:16134   */\n      add\n        /* \"#utility.yul\":16113:16171   */\n      mstore\n        /* \"#utility.yul\":16205:16219   */\n      0x636b20666f722031206461790000000000000000000000000000000000000000\n        /* \"#utility.yul\":16200:16202   */\n      0x20\n        /* \"#utility.yul\":16192:16198   */\n      dup3\n        /* \"#utility.yul\":16188:16203   */\n      add\n        /* \"#utility.yul\":16181:16220   */\n      mstore\n        /* \"#utility.yul\":15996:16227   */\n      pop\n      jump\t// out\n        /* \"#utility.yul\":16233:16599   */\n    tag_238:\n        /* \"#utility.yul\":16375:16378   */\n      0x00\n        /* \"#utility.yul\":16396:16463   */\n      tag_400\n        /* \"#utility.yul\":16460:16462   */\n      0x2c\n        /* \"#utility.yul\":16455:16458   */\n      dup4\n        /* \"#utility.yul\":16396:16463   */\n      tag_216\n      jump\t// in\n    tag_400:\n        /* \"#utility.yul\":16389:16463   */\n      swap2\n      pop\n        /* \"#utility.yul\":16472:16565   */\n      tag_401\n        /* \"#utility.yul\":16561:16564   */\n      dup3\n        /* \"#utility.yul\":16472:16565   */\n      tag_237\n      jump\t// in\n    tag_401:\n        /* \"#utility.yul\":16590:16592   */\n      0x40\n        /* \"#utility.yul\":16585:16588   */\n      dup3\n        /* \"#utility.yul\":16581:16593   */\n      add\n        /* \"#utility.yul\":16574:16593   */\n      swap1\n      pop\n        /* \"#utility.yul\":16233:16599   */\n      swap2\n      swap1\n      pop\n      jump\t// out\n        /* \"#utility.yul\":16605:17024   */\n    tag_132:\n        /* \"#utility.yul\":16771:16775   */\n      0x00\n        /* \"#utility.yul\":16809:16811   */\n      0x20\n        /* \"#utility.yul\":16798:16807   */\n      dup3\n        /* \"#utility.yul\":16794:16812   */\n      add\n        /* \"#utility.yul\":16786:16812   */\n      swap1\n      pop\n        /* \"#utility.yul\":16858:16867   */\n      dup2\n        /* \"#utility.yul\":16852:16856   */\n      dup2\n        /* \"#utility.yul\":16848:16868   */\n      sub\n        /* \"#utility.yul\":16844:16845   */\n      0x00\n        /* \"#utility.yul\":16833:16842   */\n      dup4\n        /* \"#utility.yul\":16829:16846   */\n      add\n        /* \"#utility.yul\":16822:16869   */\n      mstore\n        /* \"#utility.yul\":16886:17017   */\n      tag_403\n        /* \"#utility.yul\":17012:17016   */\n      dup2\n        /* \"#utility.yul\":16886:17017   */\n      tag_238\n      jump\t// in\n    tag_403:\n        /* \"#utility.yul\":16878:17017   */\n      swap1\n      pop\n        /* \"#utility.yul\":16605:17024   */\n      swap2\n      swap1\n      pop\n      jump\t// out\n        /* \"#utility.yul\":17030:17250   */\n    tag_239:\n        /* \"#utility.yul\":17170:17204   */\n      0x20756e737566666963656e742062616c616e6365203d3e20636f6e747261636b\n        /* \"#utility.yul\":17166:17167   */\n      0x00\n        /* \"#utility.yul\":17158:17164   */\n      dup3\n        /* \"#utility.yul\":17154:17168   */\n      add\n        /* \"#utility.yul\":17147:17205   */\n      mstore\n        /* \"#utility.yul\":17239:17242   */\n      0x2100000000000000000000000000000000000000000000000000000000000000\n        /* \"#utility.yul\":17234:17236   */\n      0x20\n        /* \"#utility.yul\":17226:17232   */\n      dup3\n        /* \"#utility.yul\":17222:17237   */\n      add\n        /* \"#utility.yul\":17215:17243   */\n      mstore\n        /* \"#utility.yul\":17030:17250   */\n      pop\n      jump\t// out\n        /* \"#utility.yul\":17256:17622   */\n    tag_240:\n        /* \"#utility.yul\":17398:17401   */\n      0x00\n        /* \"#utility.yul\":17419:17486   */\n      tag_406\n        /* \"#utility.yul\":17483:17485   */\n      0x21\n        /* \"#utility.yul\":17478:17481   */\n      dup4\n        /* \"#utility.yul\":17419:17486   */\n      tag_216\n      jump\t// in\n    tag_406:\n        /* \"#utility.yul\":17412:17486   */\n      swap2\n      pop\n        /* \"#utility.yul\":17495:17588   */\n      tag_407\n        /* \"#utility.yul\":17584:17587   */\n      dup3\n        /* \"#utility.yul\":17495:17588   */\n      tag_239\n      jump\t// in\n    tag_407:\n        /* \"#utility.yul\":17613:17615   */\n      0x40\n        /* \"#utility.yul\":17608:17611   */\n      dup3\n        /* \"#utility.yul\":17604:17616   */\n      add\n        /* \"#utility.yul\":17597:17616   */\n      swap1\n      pop\n        /* \"#utility.yul\":17256:17622   */\n      swap2\n      swap1\n      pop\n      jump\t// out\n        /* \"#utility.yul\":17628:18047   */\n    tag_136:\n        /* \"#utility.yul\":17794:17798   */\n      0x00\n        /* \"#utility.yul\":17832:17834   */\n      0x20\n        /* \"#utility.yul\":17821:17830   */\n      dup3\n        /* \"#utility.yul\":17817:17835   */\n      add\n        /* \"#utility.yul\":17809:17835   */\n      swap1\n      pop\n        /* \"#utility.yul\":17881:17890   */\n      dup2\n        /* \"#utility.yul\":17875:17879   */\n      dup2\n        /* \"#utility.yul\":17871:17891   */\n      sub\n        /* \"#utility.yul\":17867:17868   */\n      0x00\n        /* \"#utility.yul\":17856:17865   */\n      dup4\n        /* \"#utility.yul\":17852:17869   */\n      add\n        /* \"#utility.yul\":17845:17892   */\n      mstore\n        /* \"#utility.yul\":17909:18040   */\n      tag_409\n        /* \"#utility.yul\":18035:18039   */\n      dup2\n        /* \"#utility.yul\":17909:18040   */\n      tag_240\n      jump\t// in\n    tag_409:\n        /* \"#utility.yul\":17901:18040   */\n      swap1\n      pop\n        /* \"#utility.yul\":17628:18047   */\n      swap2\n      swap1\n      pop\n      jump\t// out\n        /* \"#utility.yul\":18053:18232   */\n    tag_241:\n        /* \"#utility.yul\":18193:18224   */\n      0x20756e737566666963656e742062616c616e6365203d3e207573657221000000\n        /* \"#utility.yul\":18189:18190   */\n      0x00\n        /* \"#utility.yul\":18181:18187   */\n      dup3\n        /* \"#utility.yul\":18177:18191   */\n      add\n        /* \"#utility.yul\":18170:18225   */\n      mstore\n        /* \"#utility.yul\":18053:18232   */\n      pop\n      jump\t// out\n        /* \"#utility.yul\":18238:18604   */\n    tag_242:\n        /* \"#utility.yul\":18380:18383   */\n      0x00\n        /* \"#utility.yul\":18401:18468   */\n      tag_412\n        /* \"#utility.yul\":18465:18467   */\n      0x1d\n        /* \"#utility.yul\":18460:18463   */\n      dup4\n        /* \"#utility.yul\":18401:18468   */\n      tag_216\n      jump\t// in\n    tag_412:\n        /* \"#utility.yul\":18394:18468   */\n      swap2\n      pop\n        /* \"#utility.yul\":18477:18570   */\n      tag_413\n        /* \"#utility.yul\":18566:18569   */\n      dup3\n        /* \"#utility.yul\":18477:18570   */\n      tag_241\n      jump\t// in\n    tag_413:\n        /* \"#utility.yul\":18595:18597   */\n      0x20\n        /* \"#utility.yul\":18590:18593   */\n      dup3\n        /* \"#utility.yul\":18586:18598   */\n      add\n        /* \"#utility.yul\":18579:18598   */\n      swap1\n      pop\n        /* \"#utility.yul\":18238:18604   */\n      swap2\n      swap1\n      pop\n      jump\t// out\n        /* \"#utility.yul\":18610:19029   */\n    tag_139:\n        /* \"#utility.yul\":18776:18780   */\n      0x00\n        /* \"#utility.yul\":18814:18816   */\n      0x20\n        /* \"#utility.yul\":18803:18812   */\n      dup3\n        /* \"#utility.yul\":18799:18817   */\n      add\n        /* \"#utility.yul\":18791:18817   */\n      swap1\n      pop\n        /* \"#utility.yul\":18863:18872   */\n      dup2\n        /* \"#utility.yul\":18857:18861   */\n      dup2\n        /* \"#utility.yul\":18853:18873   */\n      sub\n        /* \"#utility.yul\":18849:18850   */\n      0x00\n        /* \"#utility.yul\":18838:18847   */\n      dup4\n        /* \"#utility.yul\":18834:18851   */\n      add\n        /* \"#utility.yul\":18827:18874   */\n      mstore\n        /* \"#utility.yul\":18891:19022   */\n      tag_415\n        /* \"#utility.yul\":19017:19021   */\n      dup2\n        /* \"#utility.yul\":18891:19022   */\n      tag_242\n      jump\t// in\n    tag_415:\n        /* \"#utility.yul\":18883:19022   */\n      swap1\n      pop\n        /* \"#utility.yul\":18610:19029   */\n      swap2\n      swap1\n      pop\n      jump\t// out\n        /* \"#utility.yul\":19035:19206   */\n    tag_243:\n        /* \"#utility.yul\":19175:19198   */\n      0x656d657267656e6379206e6f7420646566696e64210000000000000000000000\n        /* \"#utility.yul\":19171:19172   */\n      0x00\n        /* \"#utility.yul\":19163:19169   */\n      dup3\n        /* \"#utility.yul\":19159:19173   */\n      add\n        /* \"#utility.yul\":19152:19199   */\n      mstore\n        /* \"#utility.yul\":19035:19206   */\n      pop\n      jump\t// out\n        /* \"#utility.yul\":19212:19578   */\n    tag_244:\n        /* \"#utility.yul\":19354:19357   */\n      0x00\n        /* \"#utility.yul\":19375:19442   */\n      tag_418\n        /* \"#utility.yul\":19439:19441   */\n      0x15\n        /* \"#utility.yul\":19434:19437   */\n      dup4\n        /* \"#utility.yul\":19375:19442   */\n      tag_216\n      jump\t// in\n    tag_418:\n        /* \"#utility.yul\":19368:19442   */\n      swap2\n      pop\n        /* \"#utility.yul\":19451:19544   */\n      tag_419\n        /* \"#utility.yul\":19540:19543   */\n      dup3\n        /* \"#utility.yul\":19451:19544   */\n      tag_243\n      jump\t// in\n    tag_419:\n        /* \"#utility.yul\":19569:19571   */\n      0x20\n        /* \"#utility.yul\":19564:19567   */\n      dup3\n        /* \"#utility.yul\":19560:19572   */\n      add\n        /* \"#utility.yul\":19553:19572   */\n      swap1\n      pop\n        /* \"#utility.yul\":19212:19578   */\n      swap2\n      swap1\n      pop\n      jump\t// out\n        /* \"#utility.yul\":19584:20003   */\n    tag_145:\n        /* \"#utility.yul\":19750:19754   */\n      0x00\n        /* \"#utility.yul\":19788:19790   */\n      0x20\n        /* \"#utility.yul\":19777:19786   */\n      dup3\n        /* \"#utility.yul\":19773:19791   */\n      add\n        /* \"#utility.yul\":19765:19791   */\n      swap1\n      pop\n        /* \"#utility.yul\":19837:19846   */\n      dup2\n        /* \"#utility.yul\":19831:19835   */\n      dup2\n        /* \"#utility.yul\":19827:19847   */\n      sub\n        /* \"#utility.yul\":19823:19824   */\n      0x00\n        /* \"#utility.yul\":19812:19821   */\n      dup4\n        /* \"#utility.yul\":19808:19825   */\n      add\n        /* \"#utility.yul\":19801:19848   */\n      mstore\n        /* \"#utility.yul\":19865:19996   */\n      tag_421\n        /* \"#utility.yul\":19991:19995   */\n      dup2\n        /* \"#utility.yul\":19865:19996   */\n      tag_244\n      jump\t// in\n    tag_421:\n        /* \"#utility.yul\":19857:19996   */\n      swap1\n      pop\n        /* \"#utility.yul\":19584:20003   */\n      swap2\n      swap1\n      pop\n      jump\t// out\n        /* \"#utility.yul\":20009:20230   */\n    tag_245:\n        /* \"#utility.yul\":20149:20183   */\n      0x616d6f756e7468206d75737420627220677261746572207468616e207a65726f\n        /* \"#utility.yul\":20145:20146   */\n      0x00\n        /* \"#utility.yul\":20137:20143   */\n      dup3\n        /* \"#utility.yul\":20133:20147   */\n      add\n        /* \"#utility.yul\":20126:20184   */\n      mstore\n        /* \"#utility.yul\":20218:20222   */\n      0x2021000000000000000000000000000000000000000000000000000000000000\n        /* \"#utility.yul\":20213:20215   */\n      0x20\n        /* \"#utility.yul\":20205:20211   */\n      dup3\n        /* \"#utility.yul\":20201:20216   */\n      add\n        /* \"#utility.yul\":20194:20223   */\n      mstore\n        /* \"#utility.yul\":20009:20230   */\n      pop\n      jump\t// out\n        /* \"#utility.yul\":20236:20602   */\n    tag_246:\n        /* \"#utility.yul\":20378:20381   */\n      0x00\n        /* \"#utility.yul\":20399:20466   */\n      tag_424\n        /* \"#utility.yul\":20463:20465   */\n      0x22\n        /* \"#utility.yul\":20458:20461   */\n      dup4\n        /* \"#utility.yul\":20399:20466   */\n      tag_216\n      jump\t// in\n    tag_424:\n        /* \"#utility.yul\":20392:20466   */\n      swap2\n      pop\n        /* \"#utility.yul\":20475:20568   */\n      tag_425\n        /* \"#utility.yul\":20564:20567   */\n      dup3\n        /* \"#utility.yul\":20475:20568   */\n      tag_245\n      jump\t// in\n    tag_425:\n        /* \"#utility.yul\":20593:20595   */\n      0x40\n        /* \"#utility.yul\":20588:20591   */\n      dup3\n        /* \"#utility.yul\":20584:20596   */\n      add\n        /* \"#utility.yul\":20577:20596   */\n      swap1\n      pop\n        /* \"#utility.yul\":20236:20602   */\n      swap2\n      swap1\n      pop\n      jump\t// out\n        /* \"#utility.yul\":20608:21027   */\n    tag_171:\n        /* \"#utility.yul\":20774:20778   */\n      0x00\n        /* \"#utility.yul\":20812:20814   */\n      0x20\n        /* \"#utility.yul\":20801:20810   */\n      dup3\n        /* \"#utility.yul\":20797:20815   */\n      add\n        /* \"#utility.yul\":20789:20815   */\n      swap1\n      pop\n        /* \"#utility.yul\":20861:20870   */\n      dup2\n        /* \"#utility.yul\":20855:20859   */\n      dup2\n        /* \"#utility.yul\":20851:20871   */\n      sub\n        /* \"#utility.yul\":20847:20848   */\n      0x00\n        /* \"#utility.yul\":20836:20845   */\n      dup4\n        /* \"#utility.yul\":20832:20849   */\n      add\n        /* \"#utility.yul\":20825:20872   */\n      mstore\n        /* \"#utility.yul\":20889:21020   */\n      tag_427\n        /* \"#utility.yul\":21015:21019   */\n      dup2\n        /* \"#utility.yul\":20889:21020   */\n      tag_246\n      jump\t// in\n    tag_427:\n        /* \"#utility.yul\":20881:21020   */\n      swap1\n      pop\n        /* \"#utility.yul\":20608:21027   */\n      swap2\n      swap1\n      pop\n      jump\t// out\n        /* \"#utility.yul\":21033:21213   */\n    tag_247:\n        /* \"#utility.yul\":21081:21158   */\n      0x4e487b7100000000000000000000000000000000000000000000000000000000\n        /* \"#utility.yul\":21078:21079   */\n      0x00\n        /* \"#utility.yul\":21071:21159   */\n      mstore\n        /* \"#utility.yul\":21178:21182   */\n      0x22\n        /* \"#utility.yul\":21175:21176   */\n      0x04\n        /* \"#utility.yul\":21168:21183   */\n      mstore\n        /* \"#utility.yul\":21202:21206   */\n      0x24\n        /* \"#utility.yul\":21199:21200   */\n      0x00\n        /* \"#utility.yul\":21192:21207   */\n      revert\n        /* \"#utility.yul\":21219:21539   */\n    tag_175:\n        /* \"#utility.yul\":21263:21269   */\n      0x00\n        /* \"#utility.yul\":21300:21301   */\n      0x02\n        /* \"#utility.yul\":21294:21298   */\n      dup3\n        /* \"#utility.yul\":21290:21302   */\n      div\n        /* \"#utility.yul\":21280:21302   */\n      swap1\n      pop\n        /* \"#utility.yul\":21347:21348   */\n      0x01\n        /* \"#utility.yul\":21341:21345   */\n      dup3\n        /* \"#utility.yul\":21337:21349   */\n      and\n        /* \"#utility.yul\":21368:21386   */\n      dup1\n        /* \"#utility.yul\":21358:21439   */\n      tag_430\n      jumpi\n        /* \"#utility.yul\":21424:21428   */\n      0x7f\n        /* \"#utility.yul\":21416:21422   */\n      dup3\n        /* \"#utility.yul\":21412:21429   */\n      and\n        /* \"#utility.yul\":21402:21429   */\n      swap2\n      pop\n        /* \"#utility.yul\":21358:21439   */\n    tag_430:\n        /* \"#utility.yul\":21486:21488   */\n      0x20\n        /* \"#utility.yul\":21478:21484   */\n      dup3\n        /* \"#utility.yul\":21475:21489   */\n      lt\n        /* \"#utility.yul\":21455:21473   */\n      dup2\n        /* \"#utility.yul\":21452:21490   */\n      sub\n        /* \"#utility.yul\":21449:21533   */\n      tag_431\n      jumpi\n        /* \"#utility.yul\":21505:21523   */\n      tag_432\n      tag_247\n      jump\t// in\n    tag_432:\n        /* \"#utility.yul\":21449:21533   */\n    tag_431:\n        /* \"#utility.yul\":21270:21539   */\n      pop\n        /* \"#utility.yul\":21219:21539   */\n      swap2\n      swap1\n      pop\n      jump\t// out\n        /* \"#utility.yul\":21545:21714   */\n    tag_248:\n        /* \"#utility.yul\":21685:21706   */\n      0x656d657267656e63792064656c65637265642100000000000000000000000000\n        /* \"#utility.yul\":21681:21682   */\n      0x00\n        /* \"#utility.yul\":21673:21679   */\n      dup3\n        /* \"#utility.yul\":21669:21683   */\n      add\n        /* \"#utility.yul\":21662:21707   */\n      mstore\n        /* \"#utility.yul\":21545:21714   */\n      pop\n      jump\t// out\n        /* \"#utility.yul\":21720:22086   */\n    tag_249:\n        /* \"#utility.yul\":21862:21865   */\n      0x00\n        /* \"#utility.yul\":21883:21950   */\n      tag_435\n        /* \"#utility.yul\":21947:21949   */\n      0x13\n        /* \"#utility.yul\":21942:21945   */\n      dup4\n        /* \"#utility.yul\":21883:21950   */\n      tag_216\n      jump\t// in\n    tag_435:\n        /* \"#utility.yul\":21876:21950   */\n      swap2\n      pop\n        /* \"#utility.yul\":21959:22052   */\n      tag_436\n        /* \"#utility.yul\":22048:22051   */\n      dup3\n        /* \"#utility.yul\":21959:22052   */\n      tag_248\n      jump\t// in\n    tag_436:\n        /* \"#utility.yul\":22077:22079   */\n      0x20\n        /* \"#utility.yul\":22072:22075   */\n      dup3\n        /* \"#utility.yul\":22068:22080   */\n      add\n        /* \"#utility.yul\":22061:22080   */\n      swap1\n      pop\n        /* \"#utility.yul\":21720:22086   */\n      swap2\n      swap1\n      pop\n      jump\t// out\n        /* \"#utility.yul\":22092:22511   */\n    tag_186:\n        /* \"#utility.yul\":22258:22262   */\n      0x00\n        /* \"#utility.yul\":22296:22298   */\n      0x20\n        /* \"#utility.yul\":22285:22294   */\n      dup3\n        /* \"#utility.yul\":22281:22299   */\n      add\n        /* \"#utility.yul\":22273:22299   */\n      swap1\n      pop\n        /* \"#utility.yul\":22345:22354   */\n      dup2\n        /* \"#utility.yul\":22339:22343   */\n      dup2\n        /* \"#utility.yul\":22335:22355   */\n      sub\n        /* \"#utility.yul\":22331:22332   */\n      0x00\n        /* \"#utility.yul\":22320:22329   */\n      dup4\n        /* \"#utility.yul\":22316:22333   */\n      add\n        /* \"#utility.yul\":22309:22356   */\n      mstore\n        /* \"#utility.yul\":22373:22504   */\n      tag_438\n        /* \"#utility.yul\":22499:22503   */\n      dup2\n        /* \"#utility.yul\":22373:22504   */\n      tag_249\n      jump\t// in\n    tag_438:\n        /* \"#utility.yul\":22365:22504   */\n      swap1\n      pop\n        /* \"#utility.yul\":22092:22511   */\n      swap2\n      swap1\n      pop\n      jump\t// out\n        /* \"#utility.yul\":22517:22683   */\n    tag_250:\n        /* \"#utility.yul\":22657:22675   */\n      0x496e76616c696420616464726573732100000000000000000000000000000000\n        /* \"#utility.yul\":22653:22654   */\n      0x00\n        /* \"#utility.yul\":22645:22651   */\n      dup3\n        /* \"#utility.yul\":22641:22655   */\n      add\n        /* \"#utility.yul\":22634:22676   */\n      mstore\n        /* \"#utility.yul\":22517:22683   */\n      pop\n      jump\t// out\n        /* \"#utility.yul\":22689:23055   */\n    tag_251:\n        /* \"#utility.yul\":22831:22834   */\n      0x00\n        /* \"#utility.yul\":22852:22919   */\n      tag_441\n        /* \"#utility.yul\":22916:22918   */\n      0x10\n        /* \"#utility.yul\":22911:22914   */\n      dup4\n        /* \"#utility.yul\":22852:22919   */\n      tag_216\n      jump\t// in\n    tag_441:\n        /* \"#utility.yul\":22845:22919   */\n      swap2\n      pop\n        /* \"#utility.yul\":22928:23021   */\n      tag_442\n        /* \"#utility.yul\":23017:23020   */\n      dup3\n        /* \"#utility.yul\":22928:23021   */\n      tag_250\n      jump\t// in\n    tag_442:\n        /* \"#utility.yul\":23046:23048   */\n      0x20\n        /* \"#utility.yul\":23041:23044   */\n      dup3\n        /* \"#utility.yul\":23037:23049   */\n      add\n        /* \"#utility.yul\":23030:23049   */\n      swap1\n      pop\n        /* \"#utility.yul\":22689:23055   */\n      swap2\n      swap1\n      pop\n      jump\t// out\n        /* \"#utility.yul\":23061:23480   */\n    tag_190:\n        /* \"#utility.yul\":23227:23231   */\n      0x00\n        /* \"#utility.yul\":23265:23267   */\n      0x20\n        /* \"#utility.yul\":23254:23263   */\n      dup3\n        /* \"#utility.yul\":23250:23268   */\n      add\n        /* \"#utility.yul\":23242:23268   */\n      swap1\n      pop\n        /* \"#utility.yul\":23314:23323   */\n      dup2\n        /* \"#utility.yul\":23308:23312   */\n      dup2\n        /* \"#utility.yul\":23304:23324   */\n      sub\n        /* \"#utility.yul\":23300:23301   */\n      0x00\n        /* \"#utility.yul\":23289:23298   */\n      dup4\n        /* \"#utility.yul\":23285:23302   */\n      add\n        /* \"#utility.yul\":23278:23325   */\n      mstore\n        /* \"#utility.yul\":23342:23473   */\n      tag_444\n        /* \"#utility.yul\":23468:23472   */\n      dup2\n        /* \"#utility.yul\":23342:23473   */\n      tag_251\n      jump\t// in\n    tag_444:\n        /* \"#utility.yul\":23334:23473   */\n      swap1\n      pop\n        /* \"#utility.yul\":23061:23480   */\n      swap2\n      swap1\n      pop\n      jump\t// out\n\n    auxdata: 0xa2646970667358221220d31bf7f6e59d28bd2f3c6453da940b6e63c9bf73d3a65a60647a6aba4b82b95564736f6c634300081f0033\n}\n",
				"bytecode": {
					"linkReferences": {},
					"object": "60806040525f60055f6101000a81548160ff0219169083151502179055503480156027575f5ffd5b503360015f6101000a81548173ffffffffffffffffffffffffffffffffffffffff021916908373ffffffffffffffffffffffffffffffffffffffff160217905550611d0e806100755f395ff3fe608060405260043610610101575f3560e01c8063a299ed9911610094578063bfa698de11610063578063bfa698de146102ff578063cf87f05214610329578063d2b5394814610351578063e21f37ce1461035b578063eb2d9fd31461038557610141565b8063a299ed9914610259578063aeae547d14610283578063b76d4fc3146102ab578063b83f8663146102d557610141565b80637935e5a3116100d05780637935e5a3146101c457806379546275146101da5780638da5cb5b146102195780639a70eef11461024357610141565b806312cccb341461014c57806347cdcc1f14610156578063547fbe8e1461017e5780636f3f42ac146101a857610141565b36610141577fd6717f327e0cb88b4a97a7f67a453e9258252c34937ccbdd86de7cb840e7def33334604051610137929190611291565b60405180910390a1005b61014a336103ad565b005b610154610404565b005b348015610161575f5ffd5b5061017c60048036038101906101779190611321565b61051a565b005b348015610189575f5ffd5b50610192610854565b60405161019f919061135f565b60405180910390f35b6101c260048036038101906101bd9190611378565b610893565b005b3480156101cf575f5ffd5b506101d8610a07565b005b3480156101e5575f5ffd5b5061020060048036038101906101fb91906113a3565b610ac3565b60405161021094939291906113ce565b60405180910390f35b348015610224575f5ffd5b5061022d610b3b565b60405161023a9190611411565b60405180910390f35b34801561024e575f5ffd5b50610257610b60565b005b348015610264575f5ffd5b5061026d610c19565b60405161027a919061135f565b60405180910390f35b34801561028e575f5ffd5b506102a960048036038101906102a491906113a3565b610c1f565b005b3480156102b6575f5ffd5b506102bf610e4c565b6040516102cc9190611543565b60405180910390f35b3480156102e0575f5ffd5b506102e9610f64565b6040516102f6919061135f565b60405180910390f35b34801561030a575f5ffd5b50610313610f6a565b604051610320919061135f565b60405180910390f35b348015610334575f5ffd5b5061034f600480360381019061034a919061158d565b6103ad565b005b610359610f71565b005b348015610366575f5ffd5b5061036f61101a565b60405161037c9190611628565b60405180910390f35b348015610390575f5ffd5b506103ab60048036038101906103a6919061158d565b6110a6565b005b600160065f8373ffffffffffffffffffffffffffffffffffffffff1673ffffffffffffffffffffffffffffffffffffffff1681526020019081526020015f205f8282546103fa9190611675565b9250508190555050565b5f60405180608001604052803073ffffffffffffffffffffffffffffffffffffffff1681526020013373ffffffffffffffffffffffffffffffffffffffff16815260200142815260200134815250908060018154018082558091505060019003905f5260205f2090600402015f909190919091505f820151815f015f6101000a81548173ffffffffffffffffffffffffffffffffffffffff021916908373ffffffffffffffffffffffffffffffffffffffff1602179055506020820151816001015f6101000a81548173ffffffffffffffffffffffffffffffffffffffff021916908373ffffffffffffffffffffffffffffffffffffffff16021790555060408201518160020155606082015181600301555050565b3373ffffffffffffffffffffffffffffffffffffffff1660015f9054906101000a900473ffffffffffffffffffffffffffffffffffffffff1673ffffffffffffffffffffffffffffffffffffffff16146105a9576040517feb1cd1d10000000000000000000000000000000000000000000000000000000081526004016105a090611718565b60405180910390fd5b804710156105ec576040517f08c379a00000000000000000000000000000000000000000000000000000000081526004016105e390611780565b60405180910390fd5b5f73ffffffffffffffffffffffffffffffffffffffff168273ffffffffffffffffffffffffffffffffffffffff160361065a576040517f08c379a0000000000000000000000000000000000000000000000000000000008152600401610651906117e8565b60405180910390fd5b7f69ca02dd4edd7bf0a4abb9ed3b7af3f14778db5d61921c7dc7cd545266326de2828260405161068b929190611861565b60405180910390a15f60405180608001604052808473ffffffffffffffffffffffffffffffffffffffff1681526020013373ffffffffffffffffffffffffffffffffffffffff16815260200142815260200183815250908060018154018082558091505060019003905f5260205f2090600402015f909190919091505f820151815f015f6101000a81548173ffffffffffffffffffffffffffffffffffffffff021916908373ffffffffffffffffffffffffffffffffffffffff1602179055506020820151816001015f6101000a81548173ffffffffffffffffffffffffffffffffffffffff021916908373ffffffffffffffffffffffffffffffffffffffff160217905550604082015181600201556060820151816003015550505f8273ffffffffffffffffffffffffffffffffffffffff16826040516107cc906118b5565b5f6040518083038185875af1925050503d805f8114610806576040519150601f19603f3d011682016040523d82523d5f602084013e61080b565b606091505b505090508061084f576040517f08c379a000000000000000000000000000000000000000000000000000000000815260040161084690611913565b60405180910390fd5b505050565b5f60015f9054906101000a900473ffffffffffffffffffffffffffffffffffffffff1673ffffffffffffffffffffffffffffffffffffffff1631905090565b33600460065f8373ffffffffffffffffffffffffffffffffffffffff1673ffffffffffffffffffffffffffffffffffffffff1681526020019081526020015f205410610914576040517f08c379a000000000000000000000000000000000000000000000000000000000815260040161090b906119a1565b60405180910390fd5b476002819055503447101561095e576040517f08c379a000000000000000000000000000000000000000000000000000000000815260040161095590611a2f565b60405180910390fd5b343373ffffffffffffffffffffffffffffffffffffffff163110156109b8576040517f08c379a00000000000000000000000000000000000000000000000000000000081526004016109af90611a97565b60405180910390fd5b8173ffffffffffffffffffffffffffffffffffffffff166108fc3490811502906040515f60405180830381858888f193505050501580156109fb573d5f5f3e3d5ffd5b50476003819055505050565b6001151560055f9054906101000a900460ff16151514610a5c576040517f08c379a0000000000000000000000000000000000000000000000000000000008152600401610a5390611aff565b60405180910390fd5b60015f9054906101000a900473ffffffffffffffffffffffffffffffffffffffff1673ffffffffffffffffffffffffffffffffffffffff166108fc4790811502906040515f60405180830381858888f19350505050158015610ac0573d5f5f3e3d5ffd5b50565b5f8181548110610ad1575f80fd5b905f5260205f2090600402015f91509050805f015f9054906101000a900473ffffffffffffffffffffffffffffffffffffffff1690806001015f9054906101000a900473ffffffffffffffffffffffffffffffffffffffff16908060020154908060030154905084565b60015f9054906101000a900473ffffffffffffffffffffffffffffffffffffffff1681565b3373ffffffffffffffffffffffffffffffffffffffff1660015f9054906101000a900473ffffffffffffffffffffffffffffffffffffffff1673ffffffffffffffffffffffffffffffffffffffff1614610bef576040517feb1cd1d1000000000000000000000000000000000000000000000000000000008152600401610be690611718565b60405180910390fd5b60055f9054906101000a900460ff161560055f6101000a81548160ff021916908315150217905550565b60035481565b3373ffffffffffffffffffffffffffffffffffffffff1660015f9054906101000a900473ffffffffffffffffffffffffffffffffffffffff1673ffffffffffffffffffffffffffffffffffffffff1614610cae576040517feb1cd1d1000000000000000000000000000000000000000000000000000000008152600401610ca590611718565b60405180910390fd5b80471015610cf1576040517f08c379a0000000000000000000000000000000000000000000000000000000008152600401610ce890611780565b60405180910390fd5b3373ffffffffffffffffffffffffffffffffffffffff166108fc8290811502906040515f60405180830381858888f19350505050158015610d34573d5f5f3e3d5ffd5b505f60405180608001604052803373ffffffffffffffffffffffffffffffffffffffff1681526020013073ffffffffffffffffffffffffffffffffffffffff16815260200142815260200183815250908060018154018082558091505060019003905f5260205f2090600402015f909190919091505f820151815f015f6101000a81548173ffffffffffffffffffffffffffffffffffffffff021916908373ffffffffffffffffffffffffffffffffffffffff1602179055506020820151816001015f6101000a81548173ffffffffffffffffffffffffffffffffffffffff021916908373ffffffffffffffffffffffffffffffffffffffff1602179055506040820151816002015560608201518160030155505050565b60605f805480602002602001604051908101604052809291908181526020015f905b82821015610f5b578382905f5260205f2090600402016040518060800160405290815f82015f9054906101000a900473ffffffffffffffffffffffffffffffffffffffff1673ffffffffffffffffffffffffffffffffffffffff1673ffffffffffffffffffffffffffffffffffffffff168152602001600182015f9054906101000a900473ffffffffffffffffffffffffffffffffffffffff1673ffffffffffffffffffffffffffffffffffffffff1673ffffffffffffffffffffffffffffffffffffffff1681526020016002820154815260200160038201548152505081526020019060010190610e6e565b50505050905090565b60025481565b5f47905090565b5f3411610fb3576040517f08c379a0000000000000000000000000000000000000000000000000000000008152600401610faa90611b8d565b60405180910390fd5b60015f9054906101000a900473ffffffffffffffffffffffffffffffffffffffff1673ffffffffffffffffffffffffffffffffffffffff166108fc3490811502906040515f60405180830381858888f19350505050158015611017573d5f5f3e3d5ffd5b50565b6004805461102790611bd8565b80601f016020809104026020016040519081016040528092919081815260200182805461105390611bd8565b801561109e5780601f106110755761010080835404028352916020019161109e565b820191905f5260205f20905b81548152906001019060200180831161108157829003601f168201915b505050505081565b3373ffffffffffffffffffffffffffffffffffffffff1660015f9054906101000a900473ffffffffffffffffffffffffffffffffffffffff1673ffffffffffffffffffffffffffffffffffffffff1614611135576040517feb1cd1d100000000000000000000000000000000000000000000000000000000815260040161112c90611718565b60405180910390fd5b5f151560055f9054906101000a900460ff16151514611189576040517f08c379a000000000000000000000000000000000000000000000000000000000815260040161118090611c52565b60405180910390fd5b5f73ffffffffffffffffffffffffffffffffffffffff168173ffffffffffffffffffffffffffffffffffffffff16036111f7576040517f08c379a00000000000000000000000000000000000000000000000000000000081526004016111ee90611cba565b60405180910390fd5b8060015f6101000a81548173ffffffffffffffffffffffffffffffffffffffff021916908373ffffffffffffffffffffffffffffffffffffffff16021790555050565b5f73ffffffffffffffffffffffffffffffffffffffff82169050919050565b5f6112638261123a565b9050919050565b61127381611259565b82525050565b5f819050919050565b61128b81611279565b82525050565b5f6040820190506112a45f83018561126a565b6112b16020830184611282565b9392505050565b5f5ffd5b5f6112c68261123a565b9050919050565b6112d6816112bc565b81146112e0575f5ffd5b50565b5f813590506112f1816112cd565b92915050565b61130081611279565b811461130a575f5ffd5b50565b5f8135905061131b816112f7565b92915050565b5f5f60408385031215611337576113366112b8565b5b5f611344858286016112e3565b92505060206113558582860161130d565b9150509250929050565b5f6020820190506113725f830184611282565b92915050565b5f6020828403121561138d5761138c6112b8565b5b5f61139a848285016112e3565b91505092915050565b5f602082840312156113b8576113b76112b8565b5b5f6113c58482850161130d565b91505092915050565b5f6080820190506113e15f83018761126a565b6113ee602083018661126a565b6113fb6040830185611282565b6114086060830184611282565b95945050505050565b5f6020820190506114245f83018461126a565b92915050565b5f81519050919050565b5f82825260208201905092915050565b5f819050602082019050919050565b61145c81611259565b82525050565b61146b81611279565b82525050565b608082015f8201516114855f850182611453565b5060208201516114986020850182611453565b5060408201516114ab6040850182611462565b5060608201516114be6060850182611462565b50505050565b5f6114cf8383611471565b60808301905092915050565b5f602082019050919050565b5f6114f18261142a565b6114fb8185611434565b935061150683611444565b805f5b8381101561153657815161151d88826114c4565b9750611528836114db565b925050600181019050611509565b5085935050505092915050565b5f6020820190508181035f83015261155b81846114e7565b905092915050565b61156c81611259565b8114611576575f5ffd5b50565b5f8135905061158781611563565b92915050565b5f602082840312156115a2576115a16112b8565b5b5f6115af84828501611579565b91505092915050565b5f81519050919050565b5f82825260208201905092915050565b8281835e5f83830152505050565b5f601f19601f8301169050919050565b5f6115fa826115b8565b61160481856115c2565b93506116148185602086016115d2565b61161d816115e0565b840191505092915050565b5f6020820190508181035f83015261164081846115f0565b905092915050565b7f4e487b71000000000000000000000000000000000000000000000000000000005f52601160045260245ffd5b5f61167f82611279565b915061168a83611279565b92508282019050808211156116a2576116a1611648565b5b92915050565b7f616363657373206465736d6973736564202120796f7520617265206e6f74204f5f8201527f776e657200000000000000000000000000000000000000000000000000000000602082015250565b5f6117026024836115c2565b915061170d826116a8565b604082019050919050565b5f6020820190508181035f83015261172f816116f6565b9050919050565b7f756e737566666963656e65742062616c616e63652100000000000000000000005f82015250565b5f61176a6015836115c2565b915061177582611736565b602082019050919050565b5f6020820190508181035f8301526117978161175e565b9050919050565b7f4164647265737320697320696e76616c696420636865636b206f6e63657321005f82015250565b5f6117d2601f836115c2565b91506117dd8261179e565b602082019050919050565b5f6020820190508181035f8301526117ff816117c6565b9050919050565b5f819050919050565b5f61182961182461181f8461123a565b611806565b61123a565b9050919050565b5f61183a8261180f565b9050919050565b5f61184b82611830565b9050919050565b61185b81611841565b82525050565b5f6040820190506118745f830185611852565b6118816020830184611282565b9392505050565b5f81905092915050565b50565b5f6118a05f83611888565b91506118ab82611892565b5f82019050919050565b5f6118bf82611895565b9150819050919050565b7f6661696c656420210000000000000000000000000000000000000000000000005f82015250565b5f6118fd6008836115c2565b9150611908826118c9565b602082019050919050565b5f6020820190508181035f83015261192a816118f1565b9050919050565b7f416374697669747920666f756e6420737573706963696f757320202c20626c6f5f8201527f636b20666f722031206461790000000000000000000000000000000000000000602082015250565b5f61198b602c836115c2565b915061199682611931565b604082019050919050565b5f6020820190508181035f8301526119b88161197f565b9050919050565b7f20756e737566666963656e742062616c616e6365203d3e20636f6e747261636b5f8201527f2100000000000000000000000000000000000000000000000000000000000000602082015250565b5f611a196021836115c2565b9150611a24826119bf565b604082019050919050565b5f6020820190508181035f830152611a4681611a0d565b9050919050565b7f20756e737566666963656e742062616c616e6365203d3e2075736572210000005f82015250565b5f611a81601d836115c2565b9150611a8c82611a4d565b602082019050919050565b5f6020820190508181035f830152611aae81611a75565b9050919050565b7f656d657267656e6379206e6f7420646566696e642100000000000000000000005f82015250565b5f611ae96015836115c2565b9150611af482611ab5565b602082019050919050565b5f6020820190508181035f830152611b1681611add565b9050919050565b7f616d6f756e7468206d75737420627220677261746572207468616e207a65726f5f8201527f2021000000000000000000000000000000000000000000000000000000000000602082015250565b5f611b776022836115c2565b9150611b8282611b1d565b604082019050919050565b5f6020820190508181035f830152611ba481611b6b565b9050919050565b7f4e487b71000000000000000000000000000000000000000000000000000000005f52602260045260245ffd5b5f6002820490506001821680611bef57607f821691505b602082108103611c0257611c01611bab565b5b50919050565b7f656d657267656e63792064656c656372656421000000000000000000000000005f82015250565b5f611c3c6013836115c2565b9150611c4782611c08565b602082019050919050565b5f6020820190508181035f830152611c6981611c30565b9050919050565b7f496e76616c6964206164647265737321000000000000000000000000000000005f82015250565b5f611ca46010836115c2565b9150611caf82611c70565b602082019050919050565b5f6020820190508181035f830152611cd181611c98565b905091905056fea2646970667358221220d31bf7f6e59d28bd2f3c6453da940b6e63c9bf73d3a65a60647a6aba4b82b95564736f6c634300081f0033",
					"opcodes": "PUSH1 0x80 PUSH1 0x40 MSTORE PUSH0 PUSH1 0x5 PUSH0 PUSH2 0x100 EXP DUP2 SLOAD DUP2 PUSH1 0xFF MUL NOT AND SWAP1 DUP4 ISZERO ISZERO MUL OR SWAP1 SSTORE POP CALLVALUE DUP1 ISZERO PUSH1 0x27 JUMPI PUSH0 PUSH0 REVERT JUMPDEST POP CALLER PUSH1 0x1 PUSH0 PUSH2 0x100 EXP DUP2 SLOAD DUP2 PUSH20 0xFFFFFFFFFFFFFFFFFFFFFFFFFFFFFFFFFFFFFFFF MUL NOT AND SWAP1 DUP4 PUSH20 0xFFFFFFFFFFFFFFFFFFFFFFFFFFFFFFFFFFFFFFFF AND MUL OR SWAP1 SSTORE POP PUSH2 0x1D0E DUP1 PUSH2 0x75 PUSH0 CODECOPY PUSH0 RETURN INVALID PUSH1 0x80 PUSH1 0x40 MSTORE PUSH1 0x4 CALLDATASIZE LT PUSH2 0x101 JUMPI PUSH0 CALLDATALOAD PUSH1 0xE0 SHR DUP1 PUSH4 0xA299ED99 GT PUSH2 0x94 JUMPI DUP1 PUSH4 0xBFA698DE GT PUSH2 0x63 JUMPI DUP1 PUSH4 0xBFA698DE EQ PUSH2 0x2FF JUMPI DUP1 PUSH4 0xCF87F052 EQ PUSH2 0x329 JUMPI DUP1 PUSH4 0xD2B53948 EQ PUSH2 0x351 JUMPI DUP1 PUSH4 0xE21F37CE EQ PUSH2 0x35B JUMPI DUP1 PUSH4 0xEB2D9FD3 EQ PUSH2 0x385 JUMPI PUSH2 0x141 JUMP JUMPDEST DUP1 PUSH4 0xA299ED99 EQ PUSH2 0x259 JUMPI DUP1 PUSH4 0xAEAE547D EQ PUSH2 0x283 JUMPI DUP1 PUSH4 0xB76D4FC3 EQ PUSH2 0x2AB JUMPI DUP1 PUSH4 0xB83F8663 EQ PUSH2 0x2D5 JUMPI PUSH2 0x141 JUMP JUMPDEST DUP1 PUSH4 0x7935E5A3 GT PUSH2 0xD0 JUMPI DUP1 PUSH4 0x7935E5A3 EQ PUSH2 0x1C4 JUMPI DUP1 PUSH4 0x79546275 EQ PUSH2 0x1DA JUMPI DUP1 PUSH4 0x8DA5CB5B EQ PUSH2 0x219 JUMPI DUP1 PUSH4 0x9A70EEF1 EQ PUSH2 0x243 JUMPI PUSH2 0x141 JUMP JUMPDEST DUP1 PUSH4 0x12CCCB34 EQ PUSH2 0x14C JUMPI DUP1 PUSH4 0x47CDCC1F EQ PUSH2 0x156 JUMPI DUP1 PUSH4 0x547FBE8E EQ PUSH2 0x17E JUMPI DUP1 PUSH4 0x6F3F42AC EQ PUSH2 0x1A8 JUMPI PUSH2 0x141 JUMP JUMPDEST CALLDATASIZE PUSH2 0x141 JUMPI PUSH32 0xD6717F327E0CB88B4A97A7F67A453E9258252C34937CCBDD86DE7CB840E7DEF3 CALLER CALLVALUE PUSH1 0x40 MLOAD PUSH2 0x137 SWAP3 SWAP2 SWAP1 PUSH2 0x1291 JUMP JUMPDEST PUSH1 0x40 MLOAD DUP1 SWAP2 SUB SWAP1 LOG1 STOP JUMPDEST PUSH2 0x14A CALLER PUSH2 0x3AD JUMP JUMPDEST STOP JUMPDEST PUSH2 0x154 PUSH2 0x404 JUMP JUMPDEST STOP JUMPDEST CALLVALUE DUP1 ISZERO PUSH2 0x161 JUMPI PUSH0 PUSH0 REVERT JUMPDEST POP PUSH2 0x17C PUSH1 0x4 DUP1 CALLDATASIZE SUB DUP2 ADD SWAP1 PUSH2 0x177 SWAP2 SWAP1 PUSH2 0x1321 JUMP JUMPDEST PUSH2 0x51A JUMP JUMPDEST STOP JUMPDEST CALLVALUE DUP1 ISZERO PUSH2 0x189 JUMPI PUSH0 PUSH0 REVERT JUMPDEST POP PUSH2 0x192 PUSH2 0x854 JUMP JUMPDEST PUSH1 0x40 MLOAD PUSH2 0x19F SWAP2 SWAP1 PUSH2 0x135F JUMP JUMPDEST PUSH1 0x40 MLOAD DUP1 SWAP2 SUB SWAP1 RETURN JUMPDEST PUSH2 0x1C2 PUSH1 0x4 DUP1 CALLDATASIZE SUB DUP2 ADD SWAP1 PUSH2 0x1BD SWAP2 SWAP1 PUSH2 0x1378 JUMP JUMPDEST PUSH2 0x893 JUMP JUMPDEST STOP JUMPDEST CALLVALUE DUP1 ISZERO PUSH2 0x1CF JUMPI PUSH0 PUSH0 REVERT JUMPDEST POP PUSH2 0x1D8 PUSH2 0xA07 JUMP JUMPDEST STOP JUMPDEST CALLVALUE DUP1 ISZERO PUSH2 0x1E5 JUMPI PUSH0 PUSH0 REVERT JUMPDEST POP PUSH2 0x200 PUSH1 0x4 DUP1 CALLDATASIZE SUB DUP2 ADD SWAP1 PUSH2 0x1FB SWAP2 SWAP1 PUSH2 0x13A3 JUMP JUMPDEST PUSH2 0xAC3 JUMP JUMPDEST PUSH1 0x40 MLOAD PUSH2 0x210 SWAP5 SWAP4 SWAP3 SWAP2 SWAP1 PUSH2 0x13CE JUMP JUMPDEST PUSH1 0x40 MLOAD DUP1 SWAP2 SUB SWAP1 RETURN JUMPDEST CALLVALUE DUP1 ISZERO PUSH2 0x224 JUMPI PUSH0 PUSH0 REVERT JUMPDEST POP PUSH2 0x22D PUSH2 0xB3B JUMP JUMPDEST PUSH1 0x40 MLOAD PUSH2 0x23A SWAP2 SWAP1 PUSH2 0x1411 JUMP JUMPDEST PUSH1 0x40 MLOAD DUP1 SWAP2 SUB SWAP1 RETURN JUMPDEST CALLVALUE DUP1 ISZERO PUSH2 0x24E JUMPI PUSH0 PUSH0 REVERT JUMPDEST POP PUSH2 0x257 PUSH2 0xB60 JUMP JUMPDEST STOP JUMPDEST CALLVALUE DUP1 ISZERO PUSH2 0x264 JUMPI PUSH0 PUSH0 REVERT JUMPDEST POP PUSH2 0x26D PUSH2 0xC19 JUMP JUMPDEST PUSH1 0x40 MLOAD PUSH2 0x27A SWAP2 SWAP1 PUSH2 0x135F JUMP JUMPDEST PUSH1 0x40 MLOAD DUP1 SWAP2 SUB SWAP1 RETURN JUMPDEST CALLVALUE DUP1 ISZERO PUSH2 0x28E JUMPI PUSH0 PUSH0 REVERT JUMPDEST POP PUSH2 0x2A9 PUSH1 0x4 DUP1 CALLDATASIZE SUB DUP2 ADD SWAP1 PUSH2 0x2A4 SWAP2 SWAP1 PUSH2 0x13A3 JUMP JUMPDEST PUSH2 0xC1F JUMP JUMPDEST STOP JUMPDEST CALLVALUE DUP1 ISZERO PUSH2 0x2B6 JUMPI PUSH0 PUSH0 REVERT JUMPDEST POP PUSH2 0x2BF PUSH2 0xE4C JUMP JUMPDEST PUSH1 0x40 MLOAD PUSH2 0x2CC SWAP2 SWAP1 PUSH2 0x1543 JUMP JUMPDEST PUSH1 0x40 MLOAD DUP1 SWAP2 SUB SWAP1 RETURN JUMPDEST CALLVALUE DUP1 ISZERO PUSH2 0x2E0 JUMPI PUSH0 PUSH0 REVERT JUMPDEST POP PUSH2 0x2E9 PUSH2 0xF64 JUMP JUMPDEST PUSH1 0x40 MLOAD PUSH2 0x2F6 SWAP2 SWAP1 PUSH2 0x135F JUMP JUMPDEST PUSH1 0x40 MLOAD DUP1 SWAP2 SUB SWAP1 RETURN JUMPDEST CALLVALUE DUP1 ISZERO PUSH2 0x30A JUMPI PUSH0 PUSH0 REVERT JUMPDEST POP PUSH2 0x313 PUSH2 0xF6A JUMP JUMPDEST PUSH1 0x40 MLOAD PUSH2 0x320 SWAP2 SWAP1 PUSH2 0x135F JUMP JUMPDEST PUSH1 0x40 MLOAD DUP1 SWAP2 SUB SWAP1 RETURN JUMPDEST CALLVALUE DUP1 ISZERO PUSH2 0x334 JUMPI PUSH0 PUSH0 REVERT JUMPDEST POP PUSH2 0x34F PUSH1 0x4 DUP1 CALLDATASIZE SUB DUP2 ADD SWAP1 PUSH2 0x34A SWAP2 SWAP1 PUSH2 0x158D JUMP JUMPDEST PUSH2 0x3AD JUMP JUMPDEST STOP JUMPDEST PUSH2 0x359 PUSH2 0xF71 JUMP JUMPDEST STOP JUMPDEST CALLVALUE DUP1 ISZERO PUSH2 0x366 JUMPI PUSH0 PUSH0 REVERT JUMPDEST POP PUSH2 0x36F PUSH2 0x101A JUMP JUMPDEST PUSH1 0x40 MLOAD PUSH2 0x37C SWAP2 SWAP1 PUSH2 0x1628 JUMP JUMPDEST PUSH1 0x40 MLOAD DUP1 SWAP2 SUB SWAP1 RETURN JUMPDEST CALLVALUE DUP1 ISZERO PUSH2 0x390 JUMPI PUSH0 PUSH0 REVERT JUMPDEST POP PUSH2 0x3AB PUSH1 0x4 DUP1 CALLDATASIZE SUB DUP2 ADD SWAP1 PUSH2 0x3A6 SWAP2 SWAP1 PUSH2 0x158D JUMP JUMPDEST PUSH2 0x10A6 JUMP JUMPDEST STOP JUMPDEST PUSH1 0x1 PUSH1 0x6 PUSH0 DUP4 PUSH20 0xFFFFFFFFFFFFFFFFFFFFFFFFFFFFFFFFFFFFFFFF AND PUSH20 0xFFFFFFFFFFFFFFFFFFFFFFFFFFFFFFFFFFFFFFFF AND DUP2 MSTORE PUSH1 0x20 ADD SWAP1 DUP2 MSTORE PUSH1 0x20 ADD PUSH0 KECCAK256 PUSH0 DUP3 DUP3 SLOAD PUSH2 0x3FA SWAP2 SWAP1 PUSH2 0x1675 JUMP JUMPDEST SWAP3 POP POP DUP2 SWAP1 SSTORE POP POP JUMP JUMPDEST PUSH0 PUSH1 0x40 MLOAD DUP1 PUSH1 0x80 ADD PUSH1 0x40 MSTORE DUP1 ADDRESS PUSH20 0xFFFFFFFFFFFFFFFFFFFFFFFFFFFFFFFFFFFFFFFF AND DUP2 MSTORE PUSH1 0x20 ADD CALLER PUSH20 0xFFFFFFFFFFFFFFFFFFFFFFFFFFFFFFFFFFFFFFFF AND DUP2 MSTORE PUSH1 0x20 ADD TIMESTAMP DUP2 MSTORE PUSH1 0x20 ADD CALLVALUE DUP2 MSTORE POP SWAP1 DUP1 PUSH1 0x1 DUP2 SLOAD ADD DUP1 DUP3 SSTORE DUP1 SWAP2 POP POP PUSH1 0x1 SWAP1 SUB SWAP1 PUSH0 MSTORE PUSH1 0x20 PUSH0 KECCAK256 SWAP1 PUSH1 0x4 MUL ADD PUSH0 SWAP1 SWAP2 SWAP1 SWAP2 SWAP1 SWAP2 POP PUSH0 DUP3 ADD MLOAD DUP2 PUSH0 ADD PUSH0 PUSH2 0x100 EXP DUP2 SLOAD DUP2 PUSH20 0xFFFFFFFFFFFFFFFFFFFFFFFFFFFFFFFFFFFFFFFF MUL NOT AND SWAP1 DUP4 PUSH20 0xFFFFFFFFFFFFFFFFFFFFFFFFFFFFFFFFFFFFFFFF AND MUL OR SWAP1 SSTORE POP PUSH1 0x20 DUP3 ADD MLOAD DUP2 PUSH1 0x1 ADD PUSH0 PUSH2 0x100 EXP DUP2 SLOAD DUP2 PUSH20 0xFFFFFFFFFFFFFFFFFFFFFFFFFFFFFFFFFFFFFFFF MUL NOT AND SWAP1 DUP4 PUSH20 0xFFFFFFFFFFFFFFFFFFFFFFFFFFFFFFFFFFFFFFFF AND MUL OR SWAP1 SSTORE POP PUSH1 0x40 DUP3 ADD MLOAD DUP2 PUSH1 0x2 ADD SSTORE PUSH1 0x60 DUP3 ADD MLOAD DUP2 PUSH1 0x3 ADD SSTORE POP POP JUMP JUMPDEST CALLER PUSH20 0xFFFFFFFFFFFFFFFFFFFFFFFFFFFFFFFFFFFFFFFF AND PUSH1 0x1 PUSH0 SWAP1 SLOAD SWAP1 PUSH2 0x100 EXP SWAP1 DIV PUSH20 0xFFFFFFFFFFFFFFFFFFFFFFFFFFFFFFFFFFFFFFFF AND PUSH20 0xFFFFFFFFFFFFFFFFFFFFFFFFFFFFFFFFFFFFFFFF AND EQ PUSH2 0x5A9 JUMPI PUSH1 0x40 MLOAD PUSH32 0xEB1CD1D100000000000000000000000000000000000000000000000000000000 DUP2 MSTORE PUSH1 0x4 ADD PUSH2 0x5A0 SWAP1 PUSH2 0x1718 JUMP JUMPDEST PUSH1 0x40 MLOAD DUP1 SWAP2 SUB SWAP1 REVERT JUMPDEST DUP1 SELFBALANCE LT ISZERO PUSH2 0x5EC JUMPI PUSH1 0x40 MLOAD PUSH32 0x8C379A000000000000000000000000000000000000000000000000000000000 DUP2 MSTORE PUSH1 0x4 ADD PUSH2 0x5E3 SWAP1 PUSH2 0x1780 JUMP JUMPDEST PUSH1 0x40 MLOAD DUP1 SWAP2 SUB SWAP1 REVERT JUMPDEST PUSH0 PUSH20 0xFFFFFFFFFFFFFFFFFFFFFFFFFFFFFFFFFFFFFFFF AND DUP3 PUSH20 0xFFFFFFFFFFFFFFFFFFFFFFFFFFFFFFFFFFFFFFFF AND SUB PUSH2 0x65A JUMPI PUSH1 0x40 MLOAD PUSH32 0x8C379A000000000000000000000000000000000000000000000000000000000 DUP2 MSTORE PUSH1 0x4 ADD PUSH2 0x651 SWAP1 PUSH2 0x17E8 JUMP JUMPDEST PUSH1 0x40 MLOAD DUP1 SWAP2 SUB SWAP1 REVERT JUMPDEST PUSH32 0x69CA02DD4EDD7BF0A4ABB9ED3B7AF3F14778DB5D61921C7DC7CD545266326DE2 DUP3 DUP3 PUSH1 0x40 MLOAD PUSH2 0x68B SWAP3 SWAP2 SWAP1 PUSH2 0x1861 JUMP JUMPDEST PUSH1 0x40 MLOAD DUP1 SWAP2 SUB SWAP1 LOG1 PUSH0 PUSH1 0x40 MLOAD DUP1 PUSH1 0x80 ADD PUSH1 0x40 MSTORE DUP1 DUP5 PUSH20 0xFFFFFFFFFFFFFFFFFFFFFFFFFFFFFFFFFFFFFFFF AND DUP2 MSTORE PUSH1 0x20 ADD CALLER PUSH20 0xFFFFFFFFFFFFFFFFFFFFFFFFFFFFFFFFFFFFFFFF AND DUP2 MSTORE PUSH1 0x20 ADD TIMESTAMP DUP2 MSTORE PUSH1 0x20 ADD DUP4 DUP2 MSTORE POP SWAP1 DUP1 PUSH1 0x1 DUP2 SLOAD ADD DUP1 DUP3 SSTORE DUP1 SWAP2 POP POP PUSH1 0x1 SWAP1 SUB SWAP1 PUSH0 MSTORE PUSH1 0x20 PUSH0 KECCAK256 SWAP1 PUSH1 0x4 MUL ADD PUSH0 SWAP1 SWAP2 SWAP1 SWAP2 SWAP1 SWAP2 POP PUSH0 DUP3 ADD MLOAD DUP2 PUSH0 ADD PUSH0 PUSH2 0x100 EXP DUP2 SLOAD DUP2 PUSH20 0xFFFFFFFFFFFFFFFFFFFFFFFFFFFFFFFFFFFFFFFF MUL NOT AND SWAP1 DUP4 PUSH20 0xFFFFFFFFFFFFFFFFFFFFFFFFFFFFFFFFFFFFFFFF AND MUL OR SWAP1 SSTORE POP PUSH1 0x20 DUP3 ADD MLOAD DUP2 PUSH1 0x1 ADD PUSH0 PUSH2 0x100 EXP DUP2 SLOAD DUP2 PUSH20 0xFFFFFFFFFFFFFFFFFFFFFFFFFFFFFFFFFFFFFFFF MUL NOT AND SWAP1 DUP4 PUSH20 0xFFFFFFFFFFFFFFFFFFFFFFFFFFFFFFFFFFFFFFFF AND MUL OR SWAP1 SSTORE POP PUSH1 0x40 DUP3 ADD MLOAD DUP2 PUSH1 0x2 ADD SSTORE PUSH1 0x60 DUP3 ADD MLOAD DUP2 PUSH1 0x3 ADD SSTORE POP POP PUSH0 DUP3 PUSH20 0xFFFFFFFFFFFFFFFFFFFFFFFFFFFFFFFFFFFFFFFF AND DUP3 PUSH1 0x40 MLOAD PUSH2 0x7CC SWAP1 PUSH2 0x18B5 JUMP JUMPDEST PUSH0 PUSH1 0x40 MLOAD DUP1 DUP4 SUB DUP2 DUP6 DUP8 GAS CALL SWAP3 POP POP POP RETURNDATASIZE DUP1 PUSH0 DUP2 EQ PUSH2 0x806 JUMPI PUSH1 0x40 MLOAD SWAP2 POP PUSH1 0x1F NOT PUSH1 0x3F RETURNDATASIZE ADD AND DUP3 ADD PUSH1 0x40 MSTORE RETURNDATASIZE DUP3 MSTORE RETURNDATASIZE PUSH0 PUSH1 0x20 DUP5 ADD RETURNDATACOPY PUSH2 0x80B JUMP JUMPDEST PUSH1 0x60 SWAP2 POP JUMPDEST POP POP SWAP1 POP DUP1 PUSH2 0x84F JUMPI PUSH1 0x40 MLOAD PUSH32 0x8C379A000000000000000000000000000000000000000000000000000000000 DUP2 MSTORE PUSH1 0x4 ADD PUSH2 0x846 SWAP1 PUSH2 0x1913 JUMP JUMPDEST PUSH1 0x40 MLOAD DUP1 SWAP2 SUB SWAP1 REVERT JUMPDEST POP POP POP JUMP JUMPDEST PUSH0 PUSH1 0x1 PUSH0 SWAP1 SLOAD SWAP1 PUSH2 0x100 EXP SWAP1 DIV PUSH20 0xFFFFFFFFFFFFFFFFFFFFFFFFFFFFFFFFFFFFFFFF AND PUSH20 0xFFFFFFFFFFFFFFFFFFFFFFFFFFFFFFFFFFFFFFFF AND BALANCE SWAP1 POP SWAP1 JUMP JUMPDEST CALLER PUSH1 0x4 PUSH1 0x6 PUSH0 DUP4 PUSH20 0xFFFFFFFFFFFFFFFFFFFFFFFFFFFFFFFFFFFFFFFF AND PUSH20 0xFFFFFFFFFFFFFFFFFFFFFFFFFFFFFFFFFFFFFFFF AND DUP2 MSTORE PUSH1 0x20 ADD SWAP1 DUP2 MSTORE PUSH1 0x20 ADD PUSH0 KECCAK256 SLOAD LT PUSH2 0x914 JUMPI PUSH1 0x40 MLOAD PUSH32 0x8C379A000000000000000000000000000000000000000000000000000000000 DUP2 MSTORE PUSH1 0x4 ADD PUSH2 0x90B SWAP1 PUSH2 0x19A1 JUMP JUMPDEST PUSH1 0x40 MLOAD DUP1 SWAP2 SUB SWAP1 REVERT JUMPDEST SELFBALANCE PUSH1 0x2 DUP2 SWAP1 SSTORE POP CALLVALUE SELFBALANCE LT ISZERO PUSH2 0x95E JUMPI PUSH1 0x40 MLOAD PUSH32 0x8C379A000000000000000000000000000000000000000000000000000000000 DUP2 MSTORE PUSH1 0x4 ADD PUSH2 0x955 SWAP1 PUSH2 0x1A2F JUMP JUMPDEST PUSH1 0x40 MLOAD DUP1 SWAP2 SUB SWAP1 REVERT JUMPDEST CALLVALUE CALLER PUSH20 0xFFFFFFFFFFFFFFFFFFFFFFFFFFFFFFFFFFFFFFFF AND BALANCE LT ISZERO PUSH2 0x9B8 JUMPI PUSH1 0x40 MLOAD PUSH32 0x8C379A000000000000000000000000000000000000000000000000000000000 DUP2 MSTORE PUSH1 0x4 ADD PUSH2 0x9AF SWAP1 PUSH2 0x1A97 JUMP JUMPDEST PUSH1 0x40 MLOAD DUP1 SWAP2 SUB SWAP1 REVERT JUMPDEST DUP2 PUSH20 0xFFFFFFFFFFFFFFFFFFFFFFFFFFFFFFFFFFFFFFFF AND PUSH2 0x8FC CALLVALUE SWAP1 DUP2 ISZERO MUL SWAP1 PUSH1 0x40 MLOAD PUSH0 PUSH1 0x40 MLOAD DUP1 DUP4 SUB DUP2 DUP6 DUP9 DUP9 CALL SWAP4 POP POP POP POP ISZERO DUP1 ISZERO PUSH2 0x9FB JUMPI RETURNDATASIZE PUSH0 PUSH0 RETURNDATACOPY RETURNDATASIZE PUSH0 REVERT JUMPDEST POP SELFBALANCE PUSH1 0x3 DUP2 SWAP1 SSTORE POP POP POP JUMP JUMPDEST PUSH1 0x1 ISZERO ISZERO PUSH1 0x5 PUSH0 SWAP1 SLOAD SWAP1 PUSH2 0x100 EXP SWAP1 DIV PUSH1 0xFF AND ISZERO ISZERO EQ PUSH2 0xA5C JUMPI PUSH1 0x40 MLOAD PUSH32 0x8C379A000000000000000000000000000000000000000000000000000000000 DUP2 MSTORE PUSH1 0x4 ADD PUSH2 0xA53 SWAP1 PUSH2 0x1AFF JUMP JUMPDEST PUSH1 0x40 MLOAD DUP1 SWAP2 SUB SWAP1 REVERT JUMPDEST PUSH1 0x1 PUSH0 SWAP1 SLOAD SWAP1 PUSH2 0x100 EXP SWAP1 DIV PUSH20 0xFFFFFFFFFFFFFFFFFFFFFFFFFFFFFFFFFFFFFFFF AND PUSH20 0xFFFFFFFFFFFFFFFFFFFFFFFFFFFFFFFFFFFFFFFF AND PUSH2 0x8FC SELFBALANCE SWAP1 DUP2 ISZERO MUL SWAP1 PUSH1 0x40 MLOAD PUSH0 PUSH1 0x40 MLOAD DUP1 DUP4 SUB DUP2 DUP6 DUP9 DUP9 CALL SWAP4 POP POP POP POP ISZERO DUP1 ISZERO PUSH2 0xAC0 JUMPI RETURNDATASIZE PUSH0 PUSH0 RETURNDATACOPY RETURNDATASIZE PUSH0 REVERT JUMPDEST POP JUMP JUMPDEST PUSH0 DUP2 DUP2 SLOAD DUP2 LT PUSH2 0xAD1 JUMPI PUSH0 DUP1 REVERT JUMPDEST SWAP1 PUSH0 MSTORE PUSH1 0x20 PUSH0 KECCAK256 SWAP1 PUSH1 0x4 MUL ADD PUSH0 SWAP2 POP SWAP1 POP DUP1 PUSH0 ADD PUSH0 SWAP1 SLOAD SWAP1 PUSH2 0x100 EXP SWAP1 DIV PUSH20 0xFFFFFFFFFFFFFFFFFFFFFFFFFFFFFFFFFFFFFFFF AND SWAP1 DUP1 PUSH1 0x1 ADD PUSH0 SWAP1 SLOAD SWAP1 PUSH2 0x100 EXP SWAP1 DIV PUSH20 0xFFFFFFFFFFFFFFFFFFFFFFFFFFFFFFFFFFFFFFFF AND SWAP1 DUP1 PUSH1 0x2 ADD SLOAD SWAP1 DUP1 PUSH1 0x3 ADD SLOAD SWAP1 POP DUP5 JUMP JUMPDEST PUSH1 0x1 PUSH0 SWAP1 SLOAD SWAP1 PUSH2 0x100 EXP SWAP1 DIV PUSH20 0xFFFFFFFFFFFFFFFFFFFFFFFFFFFFFFFFFFFFFFFF AND DUP2 JUMP JUMPDEST CALLER PUSH20 0xFFFFFFFFFFFFFFFFFFFFFFFFFFFFFFFFFFFFFFFF AND PUSH1 0x1 PUSH0 SWAP1 SLOAD SWAP1 PUSH2 0x100 EXP SWAP1 DIV PUSH20 0xFFFFFFFFFFFFFFFFFFFFFFFFFFFFFFFFFFFFFFFF AND PUSH20 0xFFFFFFFFFFFFFFFFFFFFFFFFFFFFFFFFFFFFFFFF AND EQ PUSH2 0xBEF JUMPI PUSH1 0x40 MLOAD PUSH32 0xEB1CD1D100000000000000000000000000000000000000000000000000000000 DUP2 MSTORE PUSH1 0x4 ADD PUSH2 0xBE6 SWAP1 PUSH2 0x1718 JUMP JUMPDEST PUSH1 0x40 MLOAD DUP1 SWAP2 SUB SWAP1 REVERT JUMPDEST PUSH1 0x5 PUSH0 SWAP1 SLOAD SWAP1 PUSH2 0x100 EXP SWAP1 DIV PUSH1 0xFF AND ISZERO PUSH1 0x5 PUSH0 PUSH2 0x100 EXP DUP2 SLOAD DUP2 PUSH1 0xFF MUL NOT AND SWAP1 DUP4 ISZERO ISZERO MUL OR SWAP1 SSTORE POP JUMP JUMPDEST PUSH1 0x3 SLOAD DUP2 JUMP JUMPDEST CALLER PUSH20 0xFFFFFFFFFFFFFFFFFFFFFFFFFFFFFFFFFFFFFFFF AND PUSH1 0x1 PUSH0 SWAP1 SLOAD SWAP1 PUSH2 0x100 EXP SWAP1 DIV PUSH20 0xFFFFFFFFFFFFFFFFFFFFFFFFFFFFFFFFFFFFFFFF AND PUSH20 0xFFFFFFFFFFFFFFFFFFFFFFFFFFFFFFFFFFFFFFFF AND EQ PUSH2 0xCAE JUMPI PUSH1 0x40 MLOAD PUSH32 0xEB1CD1D100000000000000000000000000000000000000000000000000000000 DUP2 MSTORE PUSH1 0x4 ADD PUSH2 0xCA5 SWAP1 PUSH2 0x1718 JUMP JUMPDEST PUSH1 0x40 MLOAD DUP1 SWAP2 SUB SWAP1 REVERT JUMPDEST DUP1 SELFBALANCE LT ISZERO PUSH2 0xCF1 JUMPI PUSH1 0x40 MLOAD PUSH32 0x8C379A000000000000000000000000000000000000000000000000000000000 DUP2 MSTORE PUSH1 0x4 ADD PUSH2 0xCE8 SWAP1 PUSH2 0x1780 JUMP JUMPDEST PUSH1 0x40 MLOAD DUP1 SWAP2 SUB SWAP1 REVERT JUMPDEST CALLER PUSH20 0xFFFFFFFFFFFFFFFFFFFFFFFFFFFFFFFFFFFFFFFF AND PUSH2 0x8FC DUP3 SWAP1 DUP2 ISZERO MUL SWAP1 PUSH1 0x40 MLOAD PUSH0 PUSH1 0x40 MLOAD DUP1 DUP4 SUB DUP2 DUP6 DUP9 DUP9 CALL SWAP4 POP POP POP POP ISZERO DUP1 ISZERO PUSH2 0xD34 JUMPI RETURNDATASIZE PUSH0 PUSH0 RETURNDATACOPY RETURNDATASIZE PUSH0 REVERT JUMPDEST POP PUSH0 PUSH1 0x40 MLOAD DUP1 PUSH1 0x80 ADD PUSH1 0x40 MSTORE DUP1 CALLER PUSH20 0xFFFFFFFFFFFFFFFFFFFFFFFFFFFFFFFFFFFFFFFF AND DUP2 MSTORE PUSH1 0x20 ADD ADDRESS PUSH20 0xFFFFFFFFFFFFFFFFFFFFFFFFFFFFFFFFFFFFFFFF AND DUP2 MSTORE PUSH1 0x20 ADD TIMESTAMP DUP2 MSTORE PUSH1 0x20 ADD DUP4 DUP2 MSTORE POP SWAP1 DUP1 PUSH1 0x1 DUP2 SLOAD ADD DUP1 DUP3 SSTORE DUP1 SWAP2 POP POP PUSH1 0x1 SWAP1 SUB SWAP1 PUSH0 MSTORE PUSH1 0x20 PUSH0 KECCAK256 SWAP1 PUSH1 0x4 MUL ADD PUSH0 SWAP1 SWAP2 SWAP1 SWAP2 SWAP1 SWAP2 POP PUSH0 DUP3 ADD MLOAD DUP2 PUSH0 ADD PUSH0 PUSH2 0x100 EXP DUP2 SLOAD DUP2 PUSH20 0xFFFFFFFFFFFFFFFFFFFFFFFFFFFFFFFFFFFFFFFF MUL NOT AND SWAP1 DUP4 PUSH20 0xFFFFFFFFFFFFFFFFFFFFFFFFFFFFFFFFFFFFFFFF AND MUL OR SWAP1 SSTORE POP PUSH1 0x20 DUP3 ADD MLOAD DUP2 PUSH1 0x1 ADD PUSH0 PUSH2 0x100 EXP DUP2 SLOAD DUP2 PUSH20 0xFFFFFFFFFFFFFFFFFFFFFFFFFFFFFFFFFFFFFFFF MUL NOT AND SWAP1 DUP4 PUSH20 0xFFFFFFFFFFFFFFFFFFFFFFFFFFFFFFFFFFFFFFFF AND MUL OR SWAP1 SSTORE POP PUSH1 0x40 DUP3 ADD MLOAD DUP2 PUSH1 0x2 ADD SSTORE PUSH1 0x60 DUP3 ADD MLOAD DUP2 PUSH1 0x3 ADD SSTORE POP POP POP JUMP JUMPDEST PUSH1 0x60 PUSH0 DUP1 SLOAD DUP1 PUSH1 0x20 MUL PUSH1 0x20 ADD PUSH1 0x40 MLOAD SWAP1 DUP2 ADD PUSH1 0x40 MSTORE DUP1 SWAP3 SWAP2 SWAP1 DUP2 DUP2 MSTORE PUSH1 0x20 ADD PUSH0 SWAP1 JUMPDEST DUP3 DUP3 LT ISZERO PUSH2 0xF5B JUMPI DUP4 DUP3 SWAP1 PUSH0 MSTORE PUSH1 0x20 PUSH0 KECCAK256 SWAP1 PUSH1 0x4 MUL ADD PUSH1 0x40 MLOAD DUP1 PUSH1 0x80 ADD PUSH1 0x40 MSTORE SWAP1 DUP2 PUSH0 DUP3 ADD PUSH0 SWAP1 SLOAD SWAP1 PUSH2 0x100 EXP SWAP1 DIV PUSH20 0xFFFFFFFFFFFFFFFFFFFFFFFFFFFFFFFFFFFFFFFF AND PUSH20 0xFFFFFFFFFFFFFFFFFFFFFFFFFFFFFFFFFFFFFFFF AND PUSH20 0xFFFFFFFFFFFFFFFFFFFFFFFFFFFFFFFFFFFFFFFF AND DUP2 MSTORE PUSH1 0x20 ADD PUSH1 0x1 DUP3 ADD PUSH0 SWAP1 SLOAD SWAP1 PUSH2 0x100 EXP SWAP1 DIV PUSH20 0xFFFFFFFFFFFFFFFFFFFFFFFFFFFFFFFFFFFFFFFF AND PUSH20 0xFFFFFFFFFFFFFFFFFFFFFFFFFFFFFFFFFFFFFFFF AND PUSH20 0xFFFFFFFFFFFFFFFFFFFFFFFFFFFFFFFFFFFFFFFF AND DUP2 MSTORE PUSH1 0x20 ADD PUSH1 0x2 DUP3 ADD SLOAD DUP2 MSTORE PUSH1 0x20 ADD PUSH1 0x3 DUP3 ADD SLOAD DUP2 MSTORE POP POP DUP2 MSTORE PUSH1 0x20 ADD SWAP1 PUSH1 0x1 ADD SWAP1 PUSH2 0xE6E JUMP JUMPDEST POP POP POP POP SWAP1 POP SWAP1 JUMP JUMPDEST PUSH1 0x2 SLOAD DUP2 JUMP JUMPDEST PUSH0 SELFBALANCE SWAP1 POP SWAP1 JUMP JUMPDEST PUSH0 CALLVALUE GT PUSH2 0xFB3 JUMPI PUSH1 0x40 MLOAD PUSH32 0x8C379A000000000000000000000000000000000000000000000000000000000 DUP2 MSTORE PUSH1 0x4 ADD PUSH2 0xFAA SWAP1 PUSH2 0x1B8D JUMP JUMPDEST PUSH1 0x40 MLOAD DUP1 SWAP2 SUB SWAP1 REVERT JUMPDEST PUSH1 0x1 PUSH0 SWAP1 SLOAD SWAP1 PUSH2 0x100 EXP SWAP1 DIV PUSH20 0xFFFFFFFFFFFFFFFFFFFFFFFFFFFFFFFFFFFFFFFF AND PUSH20 0xFFFFFFFFFFFFFFFFFFFFFFFFFFFFFFFFFFFFFFFF AND PUSH2 0x8FC CALLVALUE SWAP1 DUP2 ISZERO MUL SWAP1 PUSH1 0x40 MLOAD PUSH0 PUSH1 0x40 MLOAD DUP1 DUP4 SUB DUP2 DUP6 DUP9 DUP9 CALL SWAP4 POP POP POP POP ISZERO DUP1 ISZERO PUSH2 0x1017 JUMPI RETURNDATASIZE PUSH0 PUSH0 RETURNDATACOPY RETURNDATASIZE PUSH0 REVERT JUMPDEST POP JUMP JUMPDEST PUSH1 0x4 DUP1 SLOAD PUSH2 0x1027 SWAP1 PUSH2 0x1BD8 JUMP JUMPDEST DUP1 PUSH1 0x1F ADD PUSH1 0x20 DUP1 SWAP2 DIV MUL PUSH1 0x20 ADD PUSH1 0x40 MLOAD SWAP1 DUP2 ADD PUSH1 0x40 MSTORE DUP1 SWAP3 SWAP2 SWAP1 DUP2 DUP2 MSTORE PUSH1 0x20 ADD DUP3 DUP1 SLOAD PUSH2 0x1053 SWAP1 PUSH2 0x1BD8 JUMP JUMPDEST DUP1 ISZERO PUSH2 0x109E JUMPI DUP1 PUSH1 0x1F LT PUSH2 0x1075 JUMPI PUSH2 0x100 DUP1 DUP4 SLOAD DIV MUL DUP4 MSTORE SWAP2 PUSH1 0x20 ADD SWAP2 PUSH2 0x109E JUMP JUMPDEST DUP3 ADD SWAP2 SWAP1 PUSH0 MSTORE PUSH1 0x20 PUSH0 KECCAK256 SWAP1 JUMPDEST DUP2 SLOAD DUP2 MSTORE SWAP1 PUSH1 0x1 ADD SWAP1 PUSH1 0x20 ADD DUP1 DUP4 GT PUSH2 0x1081 JUMPI DUP3 SWAP1 SUB PUSH1 0x1F AND DUP3 ADD SWAP2 JUMPDEST POP POP POP POP POP DUP2 JUMP JUMPDEST CALLER PUSH20 0xFFFFFFFFFFFFFFFFFFFFFFFFFFFFFFFFFFFFFFFF AND PUSH1 0x1 PUSH0 SWAP1 SLOAD SWAP1 PUSH2 0x100 EXP SWAP1 DIV PUSH20 0xFFFFFFFFFFFFFFFFFFFFFFFFFFFFFFFFFFFFFFFF AND PUSH20 0xFFFFFFFFFFFFFFFFFFFFFFFFFFFFFFFFFFFFFFFF AND EQ PUSH2 0x1135 JUMPI PUSH1 0x40 MLOAD PUSH32 0xEB1CD1D100000000000000000000000000000000000000000000000000000000 DUP2 MSTORE PUSH1 0x4 ADD PUSH2 0x112C SWAP1 PUSH2 0x1718 JUMP JUMPDEST PUSH1 0x40 MLOAD DUP1 SWAP2 SUB SWAP1 REVERT JUMPDEST PUSH0 ISZERO ISZERO PUSH1 0x5 PUSH0 SWAP1 SLOAD SWAP1 PUSH2 0x100 EXP SWAP1 DIV PUSH1 0xFF AND ISZERO ISZERO EQ PUSH2 0x1189 JUMPI PUSH1 0x40 MLOAD PUSH32 0x8C379A000000000000000000000000000000000000000000000000000000000 DUP2 MSTORE PUSH1 0x4 ADD PUSH2 0x1180 SWAP1 PUSH2 0x1C52 JUMP JUMPDEST PUSH1 0x40 MLOAD DUP1 SWAP2 SUB SWAP1 REVERT JUMPDEST PUSH0 PUSH20 0xFFFFFFFFFFFFFFFFFFFFFFFFFFFFFFFFFFFFFFFF AND DUP2 PUSH20 0xFFFFFFFFFFFFFFFFFFFFFFFFFFFFFFFFFFFFFFFF AND SUB PUSH2 0x11F7 JUMPI PUSH1 0x40 MLOAD PUSH32 0x8C379A000000000000000000000000000000000000000000000000000000000 DUP2 MSTORE PUSH1 0x4 ADD PUSH2 0x11EE SWAP1 PUSH2 0x1CBA JUMP JUMPDEST PUSH1 0x40 MLOAD DUP1 SWAP2 SUB SWAP1 REVERT JUMPDEST DUP1 PUSH1 0x1 PUSH0 PUSH2 0x100 EXP DUP2 SLOAD DUP2 PUSH20 0xFFFFFFFFFFFFFFFFFFFFFFFFFFFFFFFFFFFFFFFF MUL NOT AND SWAP1 DUP4 PUSH20 0xFFFFFFFFFFFFFFFFFFFFFFFFFFFFFFFFFFFFFFFF AND MUL OR SWAP1 SSTORE POP POP JUMP JUMPDEST PUSH0 PUSH20 0xFFFFFFFFFFFFFFFFFFFFFFFFFFFFFFFFFFFFFFFF DUP3 AND SWAP1 POP SWAP2 SWAP1 POP JUMP JUMPDEST PUSH0 PUSH2 0x1263 DUP3 PUSH2 0x123A JUMP JUMPDEST SWAP1 POP SWAP2 SWAP1 POP JUMP JUMPDEST PUSH2 0x1273 DUP2 PUSH2 0x1259 JUMP JUMPDEST DUP3 MSTORE POP POP JUMP JUMPDEST PUSH0 DUP2 SWAP1 POP SWAP2 SWAP1 POP JUMP JUMPDEST PUSH2 0x128B DUP2 PUSH2 0x1279 JUMP JUMPDEST DUP3 MSTORE POP POP JUMP JUMPDEST PUSH0 PUSH1 0x40 DUP3 ADD SWAP1 POP PUSH2 0x12A4 PUSH0 DUP4 ADD DUP6 PUSH2 0x126A JUMP JUMPDEST PUSH2 0x12B1 PUSH1 0x20 DUP4 ADD DUP5 PUSH2 0x1282 JUMP JUMPDEST SWAP4 SWAP3 POP POP POP JUMP JUMPDEST PUSH0 PUSH0 REVERT JUMPDEST PUSH0 PUSH2 0x12C6 DUP3 PUSH2 0x123A JUMP JUMPDEST SWAP1 POP SWAP2 SWAP1 POP JUMP JUMPDEST PUSH2 0x12D6 DUP2 PUSH2 0x12BC JUMP JUMPDEST DUP2 EQ PUSH2 0x12E0 JUMPI PUSH0 PUSH0 REVERT JUMPDEST POP JUMP JUMPDEST PUSH0 DUP2 CALLDATALOAD SWAP1 POP PUSH2 0x12F1 DUP2 PUSH2 0x12CD JUMP JUMPDEST SWAP3 SWAP2 POP POP JUMP JUMPDEST PUSH2 0x1300 DUP2 PUSH2 0x1279 JUMP JUMPDEST DUP2 EQ PUSH2 0x130A JUMPI PUSH0 PUSH0 REVERT JUMPDEST POP JUMP JUMPDEST PUSH0 DUP2 CALLDATALOAD SWAP1 POP PUSH2 0x131B DUP2 PUSH2 0x12F7 JUMP JUMPDEST SWAP3 SWAP2 POP POP JUMP JUMPDEST PUSH0 PUSH0 PUSH1 0x40 DUP4 DUP6 SUB SLT ISZERO PUSH2 0x1337 JUMPI PUSH2 0x1336 PUSH2 0x12B8 JUMP JUMPDEST JUMPDEST PUSH0 PUSH2 0x1344 DUP6 DUP3 DUP7 ADD PUSH2 0x12E3 JUMP JUMPDEST SWAP3 POP POP PUSH1 0x20 PUSH2 0x1355 DUP6 DUP3 DUP7 ADD PUSH2 0x130D JUMP JUMPDEST SWAP2 POP POP SWAP3 POP SWAP3 SWAP1 POP JUMP JUMPDEST PUSH0 PUSH1 0x20 DUP3 ADD SWAP1 POP PUSH2 0x1372 PUSH0 DUP4 ADD DUP5 PUSH2 0x1282 JUMP JUMPDEST SWAP3 SWAP2 POP POP JUMP JUMPDEST PUSH0 PUSH1 0x20 DUP3 DUP5 SUB SLT ISZERO PUSH2 0x138D JUMPI PUSH2 0x138C PUSH2 0x12B8 JUMP JUMPDEST JUMPDEST PUSH0 PUSH2 0x139A DUP5 DUP3 DUP6 ADD PUSH2 0x12E3 JUMP JUMPDEST SWAP2 POP POP SWAP3 SWAP2 POP POP JUMP JUMPDEST PUSH0 PUSH1 0x20 DUP3 DUP5 SUB SLT ISZERO PUSH2 0x13B8 JUMPI PUSH2 0x13B7 PUSH2 0x12B8 JUMP JUMPDEST JUMPDEST PUSH0 PUSH2 0x13C5 DUP5 DUP3 DUP6 ADD PUSH2 0x130D JUMP JUMPDEST SWAP2 POP POP SWAP3 SWAP2 POP POP JUMP JUMPDEST PUSH0 PUSH1 0x80 DUP3 ADD SWAP1 POP PUSH2 0x13E1 PUSH0 DUP4 ADD DUP8 PUSH2 0x126A JUMP JUMPDEST PUSH2 0x13EE PUSH1 0x20 DUP4 ADD DUP7 PUSH2 0x126A JUMP JUMPDEST PUSH2 0x13FB PUSH1 0x40 DUP4 ADD DUP6 PUSH2 0x1282 JUMP JUMPDEST PUSH2 0x1408 PUSH1 0x60 DUP4 ADD DUP5 PUSH2 0x1282 JUMP JUMPDEST SWAP6 SWAP5 POP POP POP POP POP JUMP JUMPDEST PUSH0 PUSH1 0x20 DUP3 ADD SWAP1 POP PUSH2 0x1424 PUSH0 DUP4 ADD DUP5 PUSH2 0x126A JUMP JUMPDEST SWAP3 SWAP2 POP POP JUMP JUMPDEST PUSH0 DUP2 MLOAD SWAP1 POP SWAP2 SWAP1 POP JUMP JUMPDEST PUSH0 DUP3 DUP3 MSTORE PUSH1 0x20 DUP3 ADD SWAP1 POP SWAP3 SWAP2 POP POP JUMP JUMPDEST PUSH0 DUP2 SWAP1 POP PUSH1 0x20 DUP3 ADD SWAP1 POP SWAP2 SWAP1 POP JUMP JUMPDEST PUSH2 0x145C DUP2 PUSH2 0x1259 JUMP JUMPDEST DUP3 MSTORE POP POP JUMP JUMPDEST PUSH2 0x146B DUP2 PUSH2 0x1279 JUMP JUMPDEST DUP3 MSTORE POP POP JUMP JUMPDEST PUSH1 0x80 DUP3 ADD PUSH0 DUP3 ADD MLOAD PUSH2 0x1485 PUSH0 DUP6 ADD DUP3 PUSH2 0x1453 JUMP JUMPDEST POP PUSH1 0x20 DUP3 ADD MLOAD PUSH2 0x1498 PUSH1 0x20 DUP6 ADD DUP3 PUSH2 0x1453 JUMP JUMPDEST POP PUSH1 0x40 DUP3 ADD MLOAD PUSH2 0x14AB PUSH1 0x40 DUP6 ADD DUP3 PUSH2 0x1462 JUMP JUMPDEST POP PUSH1 0x60 DUP3 ADD MLOAD PUSH2 0x14BE PUSH1 0x60 DUP6 ADD DUP3 PUSH2 0x1462 JUMP JUMPDEST POP POP POP POP JUMP JUMPDEST PUSH0 PUSH2 0x14CF DUP4 DUP4 PUSH2 0x1471 JUMP JUMPDEST PUSH1 0x80 DUP4 ADD SWAP1 POP SWAP3 SWAP2 POP POP JUMP JUMPDEST PUSH0 PUSH1 0x20 DUP3 ADD SWAP1 POP SWAP2 SWAP1 POP JUMP JUMPDEST PUSH0 PUSH2 0x14F1 DUP3 PUSH2 0x142A JUMP JUMPDEST PUSH2 0x14FB DUP2 DUP6 PUSH2 0x1434 JUMP JUMPDEST SWAP4 POP PUSH2 0x1506 DUP4 PUSH2 0x1444 JUMP JUMPDEST DUP1 PUSH0 JUMPDEST DUP4 DUP2 LT ISZERO PUSH2 0x1536 JUMPI DUP2 MLOAD PUSH2 0x151D DUP9 DUP3 PUSH2 0x14C4 JUMP JUMPDEST SWAP8 POP PUSH2 0x1528 DUP4 PUSH2 0x14DB JUMP JUMPDEST SWAP3 POP POP PUSH1 0x1 DUP2 ADD SWAP1 POP PUSH2 0x1509 JUMP JUMPDEST POP DUP6 SWAP4 POP POP POP POP SWAP3 SWAP2 POP POP JUMP JUMPDEST PUSH0 PUSH1 0x20 DUP3 ADD SWAP1 POP DUP2 DUP2 SUB PUSH0 DUP4 ADD MSTORE PUSH2 0x155B DUP2 DUP5 PUSH2 0x14E7 JUMP JUMPDEST SWAP1 POP SWAP3 SWAP2 POP POP JUMP JUMPDEST PUSH2 0x156C DUP2 PUSH2 0x1259 JUMP JUMPDEST DUP2 EQ PUSH2 0x1576 JUMPI PUSH0 PUSH0 REVERT JUMPDEST POP JUMP JUMPDEST PUSH0 DUP2 CALLDATALOAD SWAP1 POP PUSH2 0x1587 DUP2 PUSH2 0x1563 JUMP JUMPDEST SWAP3 SWAP2 POP POP JUMP JUMPDEST PUSH0 PUSH1 0x20 DUP3 DUP5 SUB SLT ISZERO PUSH2 0x15A2 JUMPI PUSH2 0x15A1 PUSH2 0x12B8 JUMP JUMPDEST JUMPDEST PUSH0 PUSH2 0x15AF DUP5 DUP3 DUP6 ADD PUSH2 0x1579 JUMP JUMPDEST SWAP2 POP POP SWAP3 SWAP2 POP POP JUMP JUMPDEST PUSH0 DUP2 MLOAD SWAP1 POP SWAP2 SWAP1 POP JUMP JUMPDEST PUSH0 DUP3 DUP3 MSTORE PUSH1 0x20 DUP3 ADD SWAP1 POP SWAP3 SWAP2 POP POP JUMP JUMPDEST DUP3 DUP2 DUP4 MCOPY PUSH0 DUP4 DUP4 ADD MSTORE POP POP POP JUMP JUMPDEST PUSH0 PUSH1 0x1F NOT PUSH1 0x1F DUP4 ADD AND SWAP1 POP SWAP2 SWAP1 POP JUMP JUMPDEST PUSH0 PUSH2 0x15FA DUP3 PUSH2 0x15B8 JUMP JUMPDEST PUSH2 0x1604 DUP2 DUP6 PUSH2 0x15C2 JUMP JUMPDEST SWAP4 POP PUSH2 0x1614 DUP2 DUP6 PUSH1 0x20 DUP7 ADD PUSH2 0x15D2 JUMP JUMPDEST PUSH2 0x161D DUP2 PUSH2 0x15E0 JUMP JUMPDEST DUP5 ADD SWAP2 POP POP SWAP3 SWAP2 POP POP JUMP JUMPDEST PUSH0 PUSH1 0x20 DUP3 ADD SWAP1 POP DUP2 DUP2 SUB PUSH0 DUP4 ADD MSTORE PUSH2 0x1640 DUP2 DUP5 PUSH2 0x15F0 JUMP JUMPDEST SWAP1 POP SWAP3 SWAP2 POP POP JUMP JUMPDEST PUSH32 0x4E487B7100000000000000000000000000000000000000000000000000000000 PUSH0 MSTORE PUSH1 0x11 PUSH1 0x4 MSTORE PUSH1 0x24 PUSH0 REVERT JUMPDEST PUSH0 PUSH2 0x167F DUP3 PUSH2 0x1279 JUMP JUMPDEST SWAP2 POP PUSH2 0x168A DUP4 PUSH2 0x1279 JUMP JUMPDEST SWAP3 POP DUP3 DUP3 ADD SWAP1 POP DUP1 DUP3 GT ISZERO PUSH2 0x16A2 JUMPI PUSH2 0x16A1 PUSH2 0x1648 JUMP JUMPDEST JUMPDEST SWAP3 SWAP2 POP POP JUMP JUMPDEST PUSH32 0x616363657373206465736D6973736564202120796F7520617265206E6F74204F PUSH0 DUP3 ADD MSTORE PUSH32 0x776E657200000000000000000000000000000000000000000000000000000000 PUSH1 0x20 DUP3 ADD MSTORE POP JUMP JUMPDEST PUSH0 PUSH2 0x1702 PUSH1 0x24 DUP4 PUSH2 0x15C2 JUMP JUMPDEST SWAP2 POP PUSH2 0x170D DUP3 PUSH2 0x16A8 JUMP JUMPDEST PUSH1 0x40 DUP3 ADD SWAP1 POP SWAP2 SWAP1 POP JUMP JUMPDEST PUSH0 PUSH1 0x20 DUP3 ADD SWAP1 POP DUP2 DUP2 SUB PUSH0 DUP4 ADD MSTORE PUSH2 0x172F DUP2 PUSH2 0x16F6 JUMP JUMPDEST SWAP1 POP SWAP2 SWAP1 POP JUMP JUMPDEST PUSH32 0x756E737566666963656E65742062616C616E6365210000000000000000000000 PUSH0 DUP3 ADD MSTORE POP JUMP JUMPDEST PUSH0 PUSH2 0x176A PUSH1 0x15 DUP4 PUSH2 0x15C2 JUMP JUMPDEST SWAP2 POP PUSH2 0x1775 DUP3 PUSH2 0x1736 JUMP JUMPDEST PUSH1 0x20 DUP3 ADD SWAP1 POP SWAP2 SWAP1 POP JUMP JUMPDEST PUSH0 PUSH1 0x20 DUP3 ADD SWAP1 POP DUP2 DUP2 SUB PUSH0 DUP4 ADD MSTORE PUSH2 0x1797 DUP2 PUSH2 0x175E JUMP JUMPDEST SWAP1 POP SWAP2 SWAP1 POP JUMP JUMPDEST PUSH32 0x4164647265737320697320696E76616C696420636865636B206F6E6365732100 PUSH0 DUP3 ADD MSTORE POP JUMP JUMPDEST PUSH0 PUSH2 0x17D2 PUSH1 0x1F DUP4 PUSH2 0x15C2 JUMP JUMPDEST SWAP2 POP PUSH2 0x17DD DUP3 PUSH2 0x179E JUMP JUMPDEST PUSH1 0x20 DUP3 ADD SWAP1 POP SWAP2 SWAP1 POP JUMP JUMPDEST PUSH0 PUSH1 0x20 DUP3 ADD SWAP1 POP DUP2 DUP2 SUB PUSH0 DUP4 ADD MSTORE PUSH2 0x17FF DUP2 PUSH2 0x17C6 JUMP JUMPDEST SWAP1 POP SWAP2 SWAP1 POP JUMP JUMPDEST PUSH0 DUP2 SWAP1 POP SWAP2 SWAP1 POP JUMP JUMPDEST PUSH0 PUSH2 0x1829 PUSH2 0x1824 PUSH2 0x181F DUP5 PUSH2 0x123A JUMP JUMPDEST PUSH2 0x1806 JUMP JUMPDEST PUSH2 0x123A JUMP JUMPDEST SWAP1 POP SWAP2 SWAP1 POP JUMP JUMPDEST PUSH0 PUSH2 0x183A DUP3 PUSH2 0x180F JUMP JUMPDEST SWAP1 POP SWAP2 SWAP1 POP JUMP JUMPDEST PUSH0 PUSH2 0x184B DUP3 PUSH2 0x1830 JUMP JUMPDEST SWAP1 POP SWAP2 SWAP1 POP JUMP JUMPDEST PUSH2 0x185B DUP2 PUSH2 0x1841 JUMP JUMPDEST DUP3 MSTORE POP POP JUMP JUMPDEST PUSH0 PUSH1 0x40 DUP3 ADD SWAP1 POP PUSH2 0x1874 PUSH0 DUP4 ADD DUP6 PUSH2 0x1852 JUMP JUMPDEST PUSH2 0x1881 PUSH1 0x20 DUP4 ADD DUP5 PUSH2 0x1282 JUMP JUMPDEST SWAP4 SWAP3 POP POP POP JUMP JUMPDEST PUSH0 DUP2 SWAP1 POP SWAP3 SWAP2 POP POP JUMP JUMPDEST POP JUMP JUMPDEST PUSH0 PUSH2 0x18A0 PUSH0 DUP4 PUSH2 0x1888 JUMP JUMPDEST SWAP2 POP PUSH2 0x18AB DUP3 PUSH2 0x1892 JUMP JUMPDEST PUSH0 DUP3 ADD SWAP1 POP SWAP2 SWAP1 POP JUMP JUMPDEST PUSH0 PUSH2 0x18BF DUP3 PUSH2 0x1895 JUMP JUMPDEST SWAP2 POP DUP2 SWAP1 POP SWAP2 SWAP1 POP JUMP JUMPDEST PUSH32 0x6661696C65642021000000000000000000000000000000000000000000000000 PUSH0 DUP3 ADD MSTORE POP JUMP JUMPDEST PUSH0 PUSH2 0x18FD PUSH1 0x8 DUP4 PUSH2 0x15C2 JUMP JUMPDEST SWAP2 POP PUSH2 0x1908 DUP3 PUSH2 0x18C9 JUMP JUMPDEST PUSH1 0x20 DUP3 ADD SWAP1 POP SWAP2 SWAP1 POP JUMP JUMPDEST PUSH0 PUSH1 0x20 DUP3 ADD SWAP1 POP DUP2 DUP2 SUB PUSH0 DUP4 ADD MSTORE PUSH2 0x192A DUP2 PUSH2 0x18F1 JUMP JUMPDEST SWAP1 POP SWAP2 SWAP1 POP JUMP JUMPDEST PUSH32 0x416374697669747920666F756E6420737573706963696F757320202C20626C6F PUSH0 DUP3 ADD MSTORE PUSH32 0x636B20666F722031206461790000000000000000000000000000000000000000 PUSH1 0x20 DUP3 ADD MSTORE POP JUMP JUMPDEST PUSH0 PUSH2 0x198B PUSH1 0x2C DUP4 PUSH2 0x15C2 JUMP JUMPDEST SWAP2 POP PUSH2 0x1996 DUP3 PUSH2 0x1931 JUMP JUMPDEST PUSH1 0x40 DUP3 ADD SWAP1 POP SWAP2 SWAP1 POP JUMP JUMPDEST PUSH0 PUSH1 0x20 DUP3 ADD SWAP1 POP DUP2 DUP2 SUB PUSH0 DUP4 ADD MSTORE PUSH2 0x19B8 DUP2 PUSH2 0x197F JUMP JUMPDEST SWAP1 POP SWAP2 SWAP1 POP JUMP JUMPDEST PUSH32 0x20756E737566666963656E742062616C616E6365203D3E20636F6E747261636B PUSH0 DUP3 ADD MSTORE PUSH32 0x2100000000000000000000000000000000000000000000000000000000000000 PUSH1 0x20 DUP3 ADD MSTORE POP JUMP JUMPDEST PUSH0 PUSH2 0x1A19 PUSH1 0x21 DUP4 PUSH2 0x15C2 JUMP JUMPDEST SWAP2 POP PUSH2 0x1A24 DUP3 PUSH2 0x19BF JUMP JUMPDEST PUSH1 0x40 DUP3 ADD SWAP1 POP SWAP2 SWAP1 POP JUMP JUMPDEST PUSH0 PUSH1 0x20 DUP3 ADD SWAP1 POP DUP2 DUP2 SUB PUSH0 DUP4 ADD MSTORE PUSH2 0x1A46 DUP2 PUSH2 0x1A0D JUMP JUMPDEST SWAP1 POP SWAP2 SWAP1 POP JUMP JUMPDEST PUSH32 0x20756E737566666963656E742062616C616E6365203D3E207573657221000000 PUSH0 DUP3 ADD MSTORE POP JUMP JUMPDEST PUSH0 PUSH2 0x1A81 PUSH1 0x1D DUP4 PUSH2 0x15C2 JUMP JUMPDEST SWAP2 POP PUSH2 0x1A8C DUP3 PUSH2 0x1A4D JUMP JUMPDEST PUSH1 0x20 DUP3 ADD SWAP1 POP SWAP2 SWAP1 POP JUMP JUMPDEST PUSH0 PUSH1 0x20 DUP3 ADD SWAP1 POP DUP2 DUP2 SUB PUSH0 DUP4 ADD MSTORE PUSH2 0x1AAE DUP2 PUSH2 0x1A75 JUMP JUMPDEST SWAP1 POP SWAP2 SWAP1 POP JUMP JUMPDEST PUSH32 0x656D657267656E6379206E6F7420646566696E64210000000000000000000000 PUSH0 DUP3 ADD MSTORE POP JUMP JUMPDEST PUSH0 PUSH2 0x1AE9 PUSH1 0x15 DUP4 PUSH2 0x15C2 JUMP JUMPDEST SWAP2 POP PUSH2 0x1AF4 DUP3 PUSH2 0x1AB5 JUMP JUMPDEST PUSH1 0x20 DUP3 ADD SWAP1 POP SWAP2 SWAP1 POP JUMP JUMPDEST PUSH0 PUSH1 0x20 DUP3 ADD SWAP1 POP DUP2 DUP2 SUB PUSH0 DUP4 ADD MSTORE PUSH2 0x1B16 DUP2 PUSH2 0x1ADD JUMP JUMPDEST SWAP1 POP SWAP2 SWAP1 POP JUMP JUMPDEST PUSH32 0x616D6F756E7468206D75737420627220677261746572207468616E207A65726F PUSH0 DUP3 ADD MSTORE PUSH32 0x2021000000000000000000000000000000000000000000000000000000000000 PUSH1 0x20 DUP3 ADD MSTORE POP JUMP JUMPDEST PUSH0 PUSH2 0x1B77 PUSH1 0x22 DUP4 PUSH2 0x15C2 JUMP JUMPDEST SWAP2 POP PUSH2 0x1B82 DUP3 PUSH2 0x1B1D JUMP JUMPDEST PUSH1 0x40 DUP3 ADD SWAP1 POP SWAP2 SWAP1 POP JUMP JUMPDEST PUSH0 PUSH1 0x20 DUP3 ADD SWAP1 POP DUP2 DUP2 SUB PUSH0 DUP4 ADD MSTORE PUSH2 0x1BA4 DUP2 PUSH2 0x1B6B JUMP JUMPDEST SWAP1 POP SWAP2 SWAP1 POP JUMP JUMPDEST PUSH32 0x4E487B7100000000000000000000000000000000000000000000000000000000 PUSH0 MSTORE PUSH1 0x22 PUSH1 0x4 MSTORE PUSH1 0x24 PUSH0 REVERT JUMPDEST PUSH0 PUSH1 0x2 DUP3 DIV SWAP1 POP PUSH1 0x1 DUP3 AND DUP1 PUSH2 0x1BEF JUMPI PUSH1 0x7F DUP3 AND SWAP2 POP JUMPDEST PUSH1 0x20 DUP3 LT DUP2 SUB PUSH2 0x1C02 JUMPI PUSH2 0x1C01 PUSH2 0x1BAB JUMP JUMPDEST JUMPDEST POP SWAP2 SWAP1 POP JUMP JUMPDEST PUSH32 0x656D657267656E63792064656C65637265642100000000000000000000000000 PUSH0 DUP3 ADD MSTORE POP JUMP JUMPDEST PUSH0 PUSH2 0x1C3C PUSH1 0x13 DUP4 PUSH2 0x15C2 JUMP JUMPDEST SWAP2 POP PUSH2 0x1C47 DUP3 PUSH2 0x1C08 JUMP JUMPDEST PUSH1 0x20 DUP3 ADD SWAP1 POP SWAP2 SWAP1 POP JUMP JUMPDEST PUSH0 PUSH1 0x20 DUP3 ADD SWAP1 POP DUP2 DUP2 SUB PUSH0 DUP4 ADD MSTORE PUSH2 0x1C69 DUP2 PUSH2 0x1C30 JUMP JUMPDEST SWAP1 POP SWAP2 SWAP1 POP JUMP JUMPDEST PUSH32 0x496E76616C696420616464726573732100000000000000000000000000000000 PUSH0 DUP3 ADD MSTORE POP JUMP JUMPDEST PUSH0 PUSH2 0x1CA4 PUSH1 0x10 DUP4 PUSH2 0x15C2 JUMP JUMPDEST SWAP2 POP PUSH2 0x1CAF DUP3 PUSH2 0x1C70 JUMP JUMPDEST PUSH1 0x20 DUP3 ADD SWAP1 POP SWAP2 SWAP1 POP JUMP JUMPDEST PUSH0 PUSH1 0x20 DUP3 ADD SWAP1 POP DUP2 DUP2 SUB PUSH0 DUP4 ADD MSTORE PUSH2 0x1CD1 DUP2 PUSH2 0x1C98 JUMP JUMPDEST SWAP1 POP SWAP2 SWAP1 POP JUMP INVALID LOG2 PUSH5 0x6970667358 0x22 SLT KECCAK256 0xD3 SHL 0xF7 0xF6 JUMPF 0x9D28 0xBD 0x2F EXTCODECOPY PUSH5 0x53DA940B6E PUSH4 0xC9BF73D3 0xA6 GAS PUSH1 0x64 PUSH27 0x6ABA4B82B95564736F6C634300081F003300000000000000000000 "
				},
				"gasEstimates": {
					"creation": {
						"codeDepositCost": "1487600",
						"executionCost": "50083",
						"totalCost": "1537683"
					},
					"external": {
						"": "infinite",
						"changOwner(address)": "29197",
						"emergencyWithdrawl()": "infinite",
						"getContractBalanceInWei()": "356",
						"getOwnerBalanceInWei()": "5141",
						"getTransactionHistory()": "infinite",
						"message()": "infinite",
						"newval()": "2448",
						"old()": "2514",
						"owner()": "2575",
						"receiveFromUser()": "infinite",
						"suspiciousActivity(address)": "infinite",
						"toggleStop()": "28805",
						"transcationHistory(uint256)": "infinite",
						"transferToContract()": "117379",
						"transferToUserViaContract(address,uint256)": "infinite",
						"transferToUserViaMsgValue(address)": "infinite",
						"withdrawFromContract(uint256)": "infinite"
					}
				},
				"methodIdentifiers": {
					"changOwner(address)": "eb2d9fd3",
					"emergencyWithdrawl()": "7935e5a3",
					"getContractBalanceInWei()": "bfa698de",
					"getOwnerBalanceInWei()": "547fbe8e",
					"getTransactionHistory()": "b76d4fc3",
					"message()": "e21f37ce",
					"newval()": "a299ed99",
					"old()": "b83f8663",
					"owner()": "8da5cb5b",
					"receiveFromUser()": "d2b53948",
					"suspiciousActivity(address)": "cf87f052",
					"toggleStop()": "9a70eef1",
					"transcationHistory(uint256)": "79546275",
					"transferToContract()": "12cccb34",
					"transferToUserViaContract(address,uint256)": "47cdcc1f",
					"transferToUserViaMsgValue(address)": "6f3f42ac",
					"withdrawFromContract(uint256)": "aeae547d"
				}
			},
			"storageLayout": {
				"storage": [
					{
						"astId": 18,
						"contract": "contracts/_SimpleWallet.sol:SimpleWallet",
						"label": "transcationHistory",
						"offset": 0,
						"slot": "0",
						"type": "t_array(t_struct(Transaction)14_storage)dyn_storage"
					},
					{
						"astId": 20,
						"contract": "contracts/_SimpleWallet.sol:SimpleWallet",
						"label": "owner",
						"offset": 0,
						"slot": "1",
						"type": "t_address"
					},
					{
						"astId": 22,
						"contract": "contracts/_SimpleWallet.sol:SimpleWallet",
						"label": "old",
						"offset": 0,
						"slot": "2",
						"type": "t_uint256"
					},
					{
						"astId": 24,
						"contract": "contracts/_SimpleWallet.sol:SimpleWallet",
						"label": "newval",
						"offset": 0,
						"slot": "3",
						"type": "t_uint256"
					},
					{
						"astId": 26,
						"contract": "contracts/_SimpleWallet.sol:SimpleWallet",
						"label": "message",
						"offset": 0,
						"slot": "4",
						"type": "t_string_storage"
					},
					{
						"astId": 29,
						"contract": "contracts/_SimpleWallet.sol:SimpleWallet",
						"label": "stop",
						"offset": 0,
						"slot": "5",
						"type": "t_bool"
					},
					{
						"astId": 45,
						"contract": "contracts/_SimpleWallet.sol:SimpleWallet",
						"label": "SuspiciousUser",
						"offset": 0,
						"slot": "6",
						"type": "t_mapping(t_address,t_uint256)"
					}
				],
				"types": {
					"t_address": {
						"encoding": "inplace",
						"label": "address",
						"numberOfBytes": "20"
					},
					"t_array(t_struct(Transaction)14_storage)dyn_storage": {
						"base": "t_struct(Transaction)14_storage",
						"encoding": "dynamic_array",
						"label": "struct SimpleWallet.Transaction[]",
						"numberOfBytes": "32"
					},
					"t_bool": {
						"encoding": "inplace",
						"label": "bool",
						"numberOfBytes": "1"
					},
					"t_mapping(t_address,t_uint256)": {
						"encoding": "mapping",
						"key": "t_address",
						"label": "mapping(address => uint256)",
						"numberOfBytes": "32",
						"value": "t_uint256"
					},
					"t_string_storage": {
						"encoding": "bytes",
						"label": "string",
						"numberOfBytes": "32"
					},
					"t_struct(Transaction)14_storage": {
						"encoding": "inplace",
						"label": "struct SimpleWallet.Transaction",
						"members": [
							{
								"astId": 7,
								"contract": "contracts/_SimpleWallet.sol:SimpleWallet",
								"label": "to",
								"offset": 0,
								"slot": "0",
								"type": "t_address"
							},
							{
								"astId": 9,
								"contract": "contracts/_SimpleWallet.sol:SimpleWallet",
								"label": "send",
								"offset": 0,
								"slot": "1",
								"type": "t_address"
							},
							{
								"astId": 11,
								"contract": "contracts/_SimpleWallet.sol:SimpleWallet",
								"label": "timestamp",
								"offset": 0,
								"slot": "2",
								"type": "t_uint256"
							},
							{
								"astId": 13,
								"contract": "contracts/_SimpleWallet.sol:SimpleWallet",
								"label": "amount",
								"offset": 0,
								"slot": "3",
								"type": "t_uint256"
							}
						],
						"numberOfBytes": "128"
					},
					"t_uint256": {
						"encoding": "inplace",
						"label": "uint256",
						"numberOfBytes": "32"
					}
				}
			},
			"userdoc": {
				"kind": "user",
				"methods": {
					"transferToContract()": {
						"notice": "Contract related functions*"
					},
					"transferToUserViaMsgValue(address)": {
						"notice": "User related functions*"
					}
				},
				"version": 1
			}
		}
	}
}