{
	"data": {
		"bytecode": {
			"linkReferences": {},
			"object": "6080604052348015600e575f5ffd5b506107f38061001c5f395ff3fe608060405234801561000f575f5ffd5b506004361061003f575f3560e01c806328b22d8c146100435780633360ebe4146100735780634ffc0ac11461008f575b5f5ffd5b61005d60048036038101906100589190610249565b6100bf565b60405161006a919061028c565b60405180910390f35b61008d60048036038101906100889190610249565b610134565b005b6100a960048036038101906100a491906104cf565b61019e565b6040516100b691906105b7565b60405180910390f35b5f8173ffffffffffffffffffffffffffffffffffffffff16636d4ce63c6040518163ffffffff1660e01b8152600401602060405180830381865afa158015610109573d5f5f3e3d5ffd5b505050506040513d601f19601f8201168201806040525081019061012d91906105eb565b9050919050565b8073ffffffffffffffffffffffffffffffffffffffff166360fe47b160146040518263ffffffff1660e01b815260040161016e9190610658565b5f604051808303815f87803b158015610185575f5ffd5b505af1158015610197573d5f5f3e3d5ffd5b5050505050565b60608383836040516020016101b59392919061077a565b60405160208183030381529060405290509392505050565b5f604051905090565b5f5ffd5b5f5ffd5b5f73ffffffffffffffffffffffffffffffffffffffff82169050919050565b5f610207826101de565b9050919050565b5f610218826101fd565b9050919050565b6102288161020e565b8114610232575f5ffd5b50565b5f813590506102438161021f565b92915050565b5f6020828403121561025e5761025d6101d6565b5b5f61026b84828501610235565b91505092915050565b5f819050919050565b61028681610274565b82525050565b5f60208201905061029f5f83018461027d565b92915050565b5f5ffd5b5f5ffd5b5f601f19601f8301169050919050565b7f4e487b71000000000000000000000000000000000000000000000000000000005f52604160045260245ffd5b6102f3826102ad565b810181811067ffffffffffffffff82111715610312576103116102bd565b5b80604052505050565b5f6103246101cd565b905061033082826102ea565b919050565b5f67ffffffffffffffff82111561034f5761034e6102bd565b5b610358826102ad565b9050602081019050919050565b828183375f83830152505050565b5f61038561038084610335565b61031b565b9050828152602081018484840111156103a1576103a06102a9565b5b6103ac848285610365565b509392505050565b5f82601f8301126103c8576103c76102a5565b5b81356103d8848260208601610373565b91505092915050565b6103ea81610274565b81146103f4575f5ffd5b50565b5f81359050610405816103e1565b92915050565b5f67ffffffffffffffff821115610425576104246102bd565b5b602082029050602081019050919050565b5f5ffd5b5f61044c6104478461040b565b61031b565b9050808382526020820190506020840283018581111561046f5761046e610436565b5b835b81811015610498578061048488826103f7565b845260208401935050602081019050610471565b5050509392505050565b5f82601f8301126104b6576104b56102a5565b5b81356104c684826020860161043a565b91505092915050565b5f5f5f606084860312156104e6576104e56101d6565b5b5f84013567ffffffffffffffff811115610503576105026101da565b5b61050f868287016103b4565b9350506020610520868287016103f7565b925050604084013567ffffffffffffffff811115610541576105406101da565b5b61054d868287016104a2565b9150509250925092565b5f81519050919050565b5f82825260208201905092915050565b8281835e5f83830152505050565b5f61058982610557565b6105938185610561565b93506105a3818560208601610571565b6105ac816102ad565b840191505092915050565b5f6020820190508181035f8301526105cf818461057f565b905092915050565b5f815190506105e5816103e1565b92915050565b5f60208284031215610600576105ff6101d6565b5b5f61060d848285016105d7565b91505092915050565b5f819050919050565b5f819050919050565b5f61064261063d61063884610616565b61061f565b610274565b9050919050565b61065281610628565b82525050565b5f60208201905061066b5f830184610649565b92915050565b5f81519050919050565b5f82825260208201905092915050565b5f61069582610671565b61069f818561067b565b93506106af818560208601610571565b6106b8816102ad565b840191505092915050565b5f81519050919050565b5f82825260208201905092915050565b5f819050602082019050919050565b6106f581610274565b82525050565b5f61070683836106ec565b60208301905092915050565b5f602082019050919050565b5f610728826106c3565b61073281856106cd565b935061073d836106dd565b805f5b8381101561076d57815161075488826106fb565b975061075f83610712565b925050600181019050610740565b5085935050505092915050565b5f6060820190508181035f830152610792818661068b565b90506107a1602083018561027d565b81810360408301526107b3818461071e565b905094935050505056fea264697066735822122090658a996052e702e0e4b92429728e9b4f605aa6a114b1b97f3ee388eb5b852864736f6c634300081f0033",
			"opcodes": "PUSH1 0x80 PUSH1 0x40 MSTORE CALLVALUE DUP1 ISZERO PUSH1 0xE JUMPI PUSH0 PUSH0 REVERT JUMPDEST POP PUSH2 0x7F3 DUP1 PUSH2 0x1C PUSH0 CODECOPY PUSH0 RETURN INVALID PUSH1 0x80 PUSH1 0x40 MSTORE CALLVALUE DUP1 ISZERO PUSH2 0xF JUMPI PUSH0 PUSH0 REVERT JUMPDEST POP PUSH1 0x4 CALLDATASIZE LT PUSH2 0x3F JUMPI PUSH0 CALLDATALOAD PUSH1 0xE0 SHR DUP1 PUSH4 0x28B22D8C EQ PUSH2 0x43 JUMPI DUP1 PUSH4 0x3360EBE4 EQ PUSH2 0x73 JUMPI DUP1 PUSH4 0x4FFC0AC1 EQ PUSH2 0x8F JUMPI JUMPDEST PUSH0 PUSH0 REVERT JUMPDEST PUSH2 0x5D PUSH1 0x4 DUP1 CALLDATASIZE SUB DUP2 ADD SWAP1 PUSH2 0x58 SWAP2 SWAP1 PUSH2 0x249 JUMP JUMPDEST PUSH2 0xBF JUMP JUMPDEST PUSH1 0x40 MLOAD PUSH2 0x6A SWAP2 SWAP1 PUSH2 0x28C JUMP JUMPDEST PUSH1 0x40 MLOAD DUP1 SWAP2 SUB SWAP1 RETURN JUMPDEST PUSH2 0x8D PUSH1 0x4 DUP1 CALLDATASIZE SUB DUP2 ADD SWAP1 PUSH2 0x88 SWAP2 SWAP1 PUSH2 0x249 JUMP JUMPDEST PUSH2 0x134 JUMP JUMPDEST STOP JUMPDEST PUSH2 0xA9 PUSH1 0x4 DUP1 CALLDATASIZE SUB DUP2 ADD SWAP1 PUSH2 0xA4 SWAP2 SWAP1 PUSH2 0x4CF JUMP JUMPDEST PUSH2 0x19E JUMP JUMPDEST PUSH1 0x40 MLOAD PUSH2 0xB6 SWAP2 SWAP1 PUSH2 0x5B7 JUMP JUMPDEST PUSH1 0x40 MLOAD DUP1 SWAP2 SUB SWAP1 RETURN JUMPDEST PUSH0 DUP2 PUSH20 0xFFFFFFFFFFFFFFFFFFFFFFFFFFFFFFFFFFFFFFFF AND PUSH4 0x6D4CE63C PUSH1 0x40 MLOAD DUP2 PUSH4 0xFFFFFFFF AND PUSH1 0xE0 SHL DUP2 MSTORE PUSH1 0x4 ADD PUSH1 0x20 PUSH1 0x40 MLOAD DUP1 DUP4 SUB DUP2 DUP7 GAS STATICCALL ISZERO DUP1 ISZERO PUSH2 0x109 JUMPI RETURNDATASIZE PUSH0 PUSH0 RETURNDATACOPY RETURNDATASIZE PUSH0 REVERT JUMPDEST POP POP POP POP PUSH1 0x40 MLOAD RETURNDATASIZE PUSH1 0x1F NOT PUSH1 0x1F DUP3 ADD AND DUP3 ADD DUP1 PUSH1 0x40 MSTORE POP DUP2 ADD SWAP1 PUSH2 0x12D SWAP2 SWAP1 PUSH2 0x5EB JUMP JUMPDEST SWAP1 POP SWAP2 SWAP1 POP JUMP JUMPDEST DUP1 PUSH20 0xFFFFFFFFFFFFFFFFFFFFFFFFFFFFFFFFFFFFFFFF AND PUSH4 0x60FE47B1 PUSH1 0x14 PUSH1 0x40 MLOAD DUP3 PUSH4 0xFFFFFFFF AND PUSH1 0xE0 SHL DUP2 MSTORE PUSH1 0x4 ADD PUSH2 0x16E SWAP2 SWAP1 PUSH2 0x658 JUMP JUMPDEST PUSH0 PUSH1 0x40 MLOAD DUP1 DUP4 SUB DUP2 PUSH0 DUP8 DUP1 EXTCODESIZE ISZERO DUP1 ISZERO PUSH2 0x185 JUMPI PUSH0 PUSH0 REVERT JUMPDEST POP GAS CALL ISZERO DUP1 ISZERO PUSH2 0x197 JUMPI RETURNDATASIZE PUSH0 PUSH0 RETURNDATACOPY RETURNDATASIZE PUSH0 REVERT JUMPDEST POP POP POP POP POP JUMP JUMPDEST PUSH1 0x60 DUP4 DUP4 DUP4 PUSH1 0x40 MLOAD PUSH1 0x20 ADD PUSH2 0x1B5 SWAP4 SWAP3 SWAP2 SWAP1 PUSH2 0x77A JUMP JUMPDEST PUSH1 0x40 MLOAD PUSH1 0x20 DUP2 DUP4 SUB SUB DUP2 MSTORE SWAP1 PUSH1 0x40 MSTORE SWAP1 POP SWAP4 SWAP3 POP POP POP JUMP JUMPDEST PUSH0 PUSH1 0x40 MLOAD SWAP1 POP SWAP1 JUMP JUMPDEST PUSH0 PUSH0 REVERT JUMPDEST PUSH0 PUSH0 REVERT JUMPDEST PUSH0 PUSH20 0xFFFFFFFFFFFFFFFFFFFFFFFFFFFFFFFFFFFFFFFF DUP3 AND SWAP1 POP SWAP2 SWAP1 POP JUMP JUMPDEST PUSH0 PUSH2 0x207 DUP3 PUSH2 0x1DE JUMP JUMPDEST SWAP1 POP SWAP2 SWAP1 POP JUMP JUMPDEST PUSH0 PUSH2 0x218 DUP3 PUSH2 0x1FD JUMP JUMPDEST SWAP1 POP SWAP2 SWAP1 POP JUMP JUMPDEST PUSH2 0x228 DUP2 PUSH2 0x20E JUMP JUMPDEST DUP2 EQ PUSH2 0x232 JUMPI PUSH0 PUSH0 REVERT JUMPDEST POP JUMP JUMPDEST PUSH0 DUP2 CALLDATALOAD SWAP1 POP PUSH2 0x243 DUP2 PUSH2 0x21F JUMP JUMPDEST SWAP3 SWAP2 POP POP JUMP JUMPDEST PUSH0 PUSH1 0x20 DUP3 DUP5 SUB SLT ISZERO PUSH2 0x25E JUMPI PUSH2 0x25D PUSH2 0x1D6 JUMP JUMPDEST JUMPDEST PUSH0 PUSH2 0x26B DUP5 DUP3 DUP6 ADD PUSH2 0x235 JUMP JUMPDEST SWAP2 POP POP SWAP3 SWAP2 POP POP JUMP JUMPDEST PUSH0 DUP2 SWAP1 POP SWAP2 SWAP1 POP JUMP JUMPDEST PUSH2 0x286 DUP2 PUSH2 0x274 JUMP JUMPDEST DUP3 MSTORE POP POP JUMP JUMPDEST PUSH0 PUSH1 0x20 DUP3 ADD SWAP1 POP PUSH2 0x29F PUSH0 DUP4 ADD DUP5 PUSH2 0x27D JUMP JUMPDEST SWAP3 SWAP2 POP POP JUMP JUMPDEST PUSH0 PUSH0 REVERT JUMPDEST PUSH0 PUSH0 REVERT JUMPDEST PUSH0 PUSH1 0x1F NOT PUSH1 0x1F DUP4 ADD AND SWAP1 POP SWAP2 SWAP1 POP JUMP JUMPDEST PUSH32 0x4E487B7100000000000000000000000000000000000000000000000000000000 PUSH0 MSTORE PUSH1 0x41 PUSH1 0x4 MSTORE PUSH1 0x24 PUSH0 REVERT JUMPDEST PUSH2 0x2F3 DUP3 PUSH2 0x2AD JUMP JUMPDEST DUP2 ADD DUP2 DUP2 LT PUSH8 0xFFFFFFFFFFFFFFFF DUP3 GT OR ISZERO PUSH2 0x312 JUMPI PUSH2 0x311 PUSH2 0x2BD JUMP JUMPDEST JUMPDEST DUP1 PUSH1 0x40 MSTORE POP POP POP JUMP JUMPDEST PUSH0 PUSH2 0x324 PUSH2 0x1CD JUMP JUMPDEST SWAP1 POP PUSH2 0x330 DUP3 DUP3 PUSH2 0x2EA JUMP JUMPDEST SWAP2 SWAP1 POP JUMP JUMPDEST PUSH0 PUSH8 0xFFFFFFFFFFFFFFFF DUP3 GT ISZERO PUSH2 0x34F JUMPI PUSH2 0x34E PUSH2 0x2BD JUMP JUMPDEST JUMPDEST PUSH2 0x358 DUP3 PUSH2 0x2AD JUMP JUMPDEST SWAP1 POP PUSH1 0x20 DUP2 ADD SWAP1 POP SWAP2 SWAP1 POP JUMP JUMPDEST DUP3 DUP2 DUP4 CALLDATACOPY PUSH0 DUP4 DUP4 ADD MSTORE POP POP POP JUMP JUMPDEST PUSH0 PUSH2 0x385 PUSH2 0x380 DUP5 PUSH2 0x335 JUMP JUMPDEST PUSH2 0x31B JUMP JUMPDEST SWAP1 POP DUP3 DUP2 MSTORE PUSH1 0x20 DUP2 ADD DUP5 DUP5 DUP5 ADD GT ISZERO PUSH2 0x3A1 JUMPI PUSH2 0x3A0 PUSH2 0x2A9 JUMP JUMPDEST JUMPDEST PUSH2 0x3AC DUP5 DUP3 DUP6 PUSH2 0x365 JUMP JUMPDEST POP SWAP4 SWAP3 POP POP POP JUMP JUMPDEST PUSH0 DUP3 PUSH1 0x1F DUP4 ADD SLT PUSH2 0x3C8 JUMPI PUSH2 0x3C7 PUSH2 0x2A5 JUMP JUMPDEST JUMPDEST DUP2 CALLDATALOAD PUSH2 0x3D8 DUP5 DUP3 PUSH1 0x20 DUP7 ADD PUSH2 0x373 JUMP JUMPDEST SWAP2 POP POP SWAP3 SWAP2 POP POP JUMP JUMPDEST PUSH2 0x3EA DUP2 PUSH2 0x274 JUMP JUMPDEST DUP2 EQ PUSH2 0x3F4 JUMPI PUSH0 PUSH0 REVERT JUMPDEST POP JUMP JUMPDEST PUSH0 DUP2 CALLDATALOAD SWAP1 POP PUSH2 0x405 DUP2 PUSH2 0x3E1 JUMP JUMPDEST SWAP3 SWAP2 POP POP JUMP JUMPDEST PUSH0 PUSH8 0xFFFFFFFFFFFFFFFF DUP3 GT ISZERO PUSH2 0x425 JUMPI PUSH2 0x424 PUSH2 0x2BD JUMP JUMPDEST JUMPDEST PUSH1 0x20 DUP3 MUL SWAP1 POP PUSH1 0x20 DUP2 ADD SWAP1 POP SWAP2 SWAP1 POP JUMP JUMPDEST PUSH0 PUSH0 REVERT JUMPDEST PUSH0 PUSH2 0x44C PUSH2 0x447 DUP5 PUSH2 0x40B JUMP JUMPDEST PUSH2 0x31B JUMP JUMPDEST SWAP1 POP DUP1 DUP4 DUP3 MSTORE PUSH1 0x20 DUP3 ADD SWAP1 POP PUSH1 0x20 DUP5 MUL DUP4 ADD DUP6 DUP2 GT ISZERO PUSH2 0x46F JUMPI PUSH2 0x46E PUSH2 0x436 JUMP JUMPDEST JUMPDEST DUP4 JUMPDEST DUP2 DUP2 LT ISZERO PUSH2 0x498 JUMPI DUP1 PUSH2 0x484 DUP9 DUP3 PUSH2 0x3F7 JUMP JUMPDEST DUP5 MSTORE PUSH1 0x20 DUP5 ADD SWAP4 POP POP PUSH1 0x20 DUP2 ADD SWAP1 POP PUSH2 0x471 JUMP JUMPDEST POP POP POP SWAP4 SWAP3 POP POP POP JUMP JUMPDEST PUSH0 DUP3 PUSH1 0x1F DUP4 ADD SLT PUSH2 0x4B6 JUMPI PUSH2 0x4B5 PUSH2 0x2A5 JUMP JUMPDEST JUMPDEST DUP2 CALLDATALOAD PUSH2 0x4C6 DUP5 DUP3 PUSH1 0x20 DUP7 ADD PUSH2 0x43A JUMP JUMPDEST SWAP2 POP POP SWAP3 SWAP2 POP POP JUMP JUMPDEST PUSH0 PUSH0 PUSH0 PUSH1 0x60 DUP5 DUP7 SUB SLT ISZERO PUSH2 0x4E6 JUMPI PUSH2 0x4E5 PUSH2 0x1D6 JUMP JUMPDEST JUMPDEST PUSH0 DUP5 ADD CALLDATALOAD PUSH8 0xFFFFFFFFFFFFFFFF DUP2 GT ISZERO PUSH2 0x503 JUMPI PUSH2 0x502 PUSH2 0x1DA JUMP JUMPDEST JUMPDEST PUSH2 0x50F DUP7 DUP3 DUP8 ADD PUSH2 0x3B4 JUMP JUMPDEST SWAP4 POP POP PUSH1 0x20 PUSH2 0x520 DUP7 DUP3 DUP8 ADD PUSH2 0x3F7 JUMP JUMPDEST SWAP3 POP POP PUSH1 0x40 DUP5 ADD CALLDATALOAD PUSH8 0xFFFFFFFFFFFFFFFF DUP2 GT ISZERO PUSH2 0x541 JUMPI PUSH2 0x540 PUSH2 0x1DA JUMP JUMPDEST JUMPDEST PUSH2 0x54D DUP7 DUP3 DUP8 ADD PUSH2 0x4A2 JUMP JUMPDEST SWAP2 POP POP SWAP3 POP SWAP3 POP SWAP3 JUMP JUMPDEST PUSH0 DUP2 MLOAD SWAP1 POP SWAP2 SWAP1 POP JUMP JUMPDEST PUSH0 DUP3 DUP3 MSTORE PUSH1 0x20 DUP3 ADD SWAP1 POP SWAP3 SWAP2 POP POP JUMP JUMPDEST DUP3 DUP2 DUP4 MCOPY PUSH0 DUP4 DUP4 ADD MSTORE POP POP POP JUMP JUMPDEST PUSH0 PUSH2 0x589 DUP3 PUSH2 0x557 JUMP JUMPDEST PUSH2 0x593 DUP2 DUP6 PUSH2 0x561 JUMP JUMPDEST SWAP4 POP PUSH2 0x5A3 DUP2 DUP6 PUSH1 0x20 DUP7 ADD PUSH2 0x571 JUMP JUMPDEST PUSH2 0x5AC DUP2 PUSH2 0x2AD JUMP JUMPDEST DUP5 ADD SWAP2 POP POP SWAP3 SWAP2 POP POP JUMP JUMPDEST PUSH0 PUSH1 0x20 DUP3 ADD SWAP1 POP DUP2 DUP2 SUB PUSH0 DUP4 ADD MSTORE PUSH2 0x5CF DUP2 DUP5 PUSH2 0x57F JUMP JUMPDEST SWAP1 POP SWAP3 SWAP2 POP POP JUMP JUMPDEST PUSH0 DUP2 MLOAD SWAP1 POP PUSH2 0x5E5 DUP2 PUSH2 0x3E1 JUMP JUMPDEST SWAP3 SWAP2 POP POP JUMP JUMPDEST PUSH0 PUSH1 0x20 DUP3 DUP5 SUB SLT ISZERO PUSH2 0x600 JUMPI PUSH2 0x5FF PUSH2 0x1D6 JUMP JUMPDEST JUMPDEST PUSH0 PUSH2 0x60D DUP5 DUP3 DUP6 ADD PUSH2 0x5D7 JUMP JUMPDEST SWAP2 POP POP SWAP3 SWAP2 POP POP JUMP JUMPDEST PUSH0 DUP2 SWAP1 POP SWAP2 SWAP1 POP JUMP JUMPDEST PUSH0 DUP2 SWAP1 POP SWAP2 SWAP1 POP JUMP JUMPDEST PUSH0 PUSH2 0x642 PUSH2 0x63D PUSH2 0x638 DUP5 PUSH2 0x616 JUMP JUMPDEST PUSH2 0x61F JUMP JUMPDEST PUSH2 0x274 JUMP JUMPDEST SWAP1 POP SWAP2 SWAP1 POP JUMP JUMPDEST PUSH2 0x652 DUP2 PUSH2 0x628 JUMP JUMPDEST DUP3 MSTORE POP POP JUMP JUMPDEST PUSH0 PUSH1 0x20 DUP3 ADD SWAP1 POP PUSH2 0x66B PUSH0 DUP4 ADD DUP5 PUSH2 0x649 JUMP JUMPDEST SWAP3 SWAP2 POP POP JUMP JUMPDEST PUSH0 DUP2 MLOAD SWAP1 POP SWAP2 SWAP1 POP JUMP JUMPDEST PUSH0 DUP3 DUP3 MSTORE PUSH1 0x20 DUP3 ADD SWAP1 POP SWAP3 SWAP2 POP POP JUMP JUMPDEST PUSH0 PUSH2 0x695 DUP3 PUSH2 0x671 JUMP JUMPDEST PUSH2 0x69F DUP2 DUP6 PUSH2 0x67B JUMP JUMPDEST SWAP4 POP PUSH2 0x6AF DUP2 DUP6 PUSH1 0x20 DUP7 ADD PUSH2 0x571 JUMP JUMPDEST PUSH2 0x6B8 DUP2 PUSH2 0x2AD JUMP JUMPDEST DUP5 ADD SWAP2 POP POP SWAP3 SWAP2 POP POP JUMP JUMPDEST PUSH0 DUP2 MLOAD SWAP1 POP SWAP2 SWAP1 POP JUMP JUMPDEST PUSH0 DUP3 DUP3 MSTORE PUSH1 0x20 DUP3 ADD SWAP1 POP SWAP3 SWAP2 POP POP JUMP JUMPDEST PUSH0 DUP2 SWAP1 POP PUSH1 0x20 DUP3 ADD SWAP1 POP SWAP2 SWAP1 POP JUMP JUMPDEST PUSH2 0x6F5 DUP2 PUSH2 0x274 JUMP JUMPDEST DUP3 MSTORE POP POP JUMP JUMPDEST PUSH0 PUSH2 0x706 DUP4 DUP4 PUSH2 0x6EC JUMP JUMPDEST PUSH1 0x20 DUP4 ADD SWAP1 POP SWAP3 SWAP2 POP POP JUMP JUMPDEST PUSH0 PUSH1 0x20 DUP3 ADD SWAP1 POP SWAP2 SWAP1 POP JUMP JUMPDEST PUSH0 PUSH2 0x728 DUP3 PUSH2 0x6C3 JUMP JUMPDEST PUSH2 0x732 DUP2 DUP6 PUSH2 0x6CD JUMP JUMPDEST SWAP4 POP PUSH2 0x73D DUP4 PUSH2 0x6DD JUMP JUMPDEST DUP1 PUSH0 JUMPDEST DUP4 DUP2 LT ISZERO PUSH2 0x76D JUMPI DUP2 MLOAD PUSH2 0x754 DUP9 DUP3 PUSH2 0x6FB JUMP JUMPDEST SWAP8 POP PUSH2 0x75F DUP4 PUSH2 0x712 JUMP JUMPDEST SWAP3 POP POP PUSH1 0x1 DUP2 ADD SWAP1 POP PUSH2 0x740 JUMP JUMPDEST POP DUP6 SWAP4 POP POP POP POP SWAP3 SWAP2 POP POP JUMP JUMPDEST PUSH0 PUSH1 0x60 DUP3 ADD SWAP1 POP DUP2 DUP2 SUB PUSH0 DUP4 ADD MSTORE PUSH2 0x792 DUP2 DUP7 PUSH2 0x68B JUMP JUMPDEST SWAP1 POP PUSH2 0x7A1 PUSH1 0x20 DUP4 ADD DUP6 PUSH2 0x27D JUMP JUMPDEST DUP2 DUP2 SUB PUSH1 0x40 DUP4 ADD MSTORE PUSH2 0x7B3 DUP2 DUP5 PUSH2 0x71E JUMP JUMPDEST SWAP1 POP SWAP5 SWAP4 POP POP POP POP JUMP INVALID LOG2 PUSH5 0x6970667358 0x22 SLT KECCAK256 SWAP1 PUSH6 0x8A996052E702 RJUMP 0xE4B9 0x24 0x29 PUSH19 0x8E9B4F605AA6A114B1B97F3EE388EB5B852864 PUSH20 0x6F6C634300081F00330000000000000000000000 "
		},
		"gasEstimates": {
			"creation": {
				"codeDepositCost": "407000",
				"executionCost": "441",
				"totalCost": "407441"
			},
			"external": {
				"demo(string,uint256,uint256[])": "infinite",
				"getVal(address)": "infinite",
				"setVal(address)": "infinite"
			}
		},
		"methodIdentifiers": {
			"demo(string,uint256,uint256[])": "4ffc0ac1",
			"getVal(address)": "28b22d8c",
			"setVal(address)": "3360ebe4"
		}
	},
	"abi": [
		{
			"inputs": [
				{
					"internalType": "string",
					"name": "name",
					"type": "string"
				},
				{
					"internalType": "uint256",
					"name": "age",
					"type": "uint256"
				},
				{
					"internalType": "uint256[]",
					"name": "fixarray",
					"type": "uint256[]"
				}
			],
			"name": "demo",
			"outputs": [
				{
					"internalType": "bytes",
					"name": "",
					"type": "bytes"
				}
			],
			"stateMutability": "pure",
			"type": "function"
		},
		{
			"inputs": [
				{
					"internalType": "contract A",
					"name": "acontractAddress",
					"type": "address"
				}
			],
			"name": "getVal",
			"outputs": [
				{
					"internalType": "uint256",
					"name": "",
					"type": "uint256"
				}
			],
			"stateMutability": "view",
			"type": "function"
		},
		{
			"inputs": [
				{
					"internalType": "contract A",
					"name": "acontractAddress",
					"type": "address"
				}
			],
			"name": "setVal",
			"outputs": [],
			"stateMutability": "nonpayable",
			"type": "function"
		}
	]
}