{
	"data": {
		"bytecode": {
			"linkReferences": {},
			"object": "6080604052348015600e575f5ffd5b5060e58061001b5f395ff3fe6080604052348015600e575f5ffd5b50600436106026575f3560e01c8063d12c28f214602a575b5f5ffd5b60306045565b604051603c929190608c565b60405180910390f35b5f5f3233915091509091565b5f73ffffffffffffffffffffffffffffffffffffffff82169050919050565b5f6078826051565b9050919050565b6086816070565b82525050565b5f604082019050609d5f830185607f565b60a86020830184607f565b939250505056fea2646970667358221220a80de70305454954a0e77d8ca19a5d252317760e7166b51f48cc8eb62ee65f4d64736f6c634300081f0033",
			"opcodes": "PUSH1 0x80 PUSH1 0x40 MSTORE CALLVALUE DUP1 ISZERO PUSH1 0xE JUMPI PUSH0 PUSH0 REVERT JUMPDEST POP PUSH1 0xE5 DUP1 PUSH2 0x1B PUSH0 CODECOPY PUSH0 RETURN INVALID PUSH1 0x80 PUSH1 0x40 MSTORE CALLVALUE DUP1 ISZERO PUSH1 0xE JUMPI PUSH0 PUSH0 REVERT JUMPDEST POP PUSH1 0x4 CALLDATASIZE LT PUSH1 0x26 JUMPI PUSH0 CALLDATALOAD PUSH1 0xE0 SHR DUP1 PUSH4 0xD12C28F2 EQ PUSH1 0x2A JUMPI JUMPDEST PUSH0 PUSH0 REVERT JUMPDEST PUSH1 0x30 PUSH1 0x45 JUMP JUMPDEST PUSH1 0x40 MLOAD PUSH1 0x3C SWAP3 SWAP2 SWAP1 PUSH1 0x8C JUMP JUMPDEST PUSH1 0x40 MLOAD DUP1 SWAP2 SUB SWAP1 RETURN JUMPDEST PUSH0 PUSH0 ORIGIN CALLER SWAP2 POP SWAP2 POP SWAP1 SWAP2 JUMP JUMPDEST PUSH0 PUSH20 0xFFFFFFFFFFFFFFFFFFFFFFFFFFFFFFFFFFFFFFFF DUP3 AND SWAP1 POP SWAP2 SWAP1 POP JUMP JUMPDEST PUSH0 PUSH1 0x78 DUP3 PUSH1 0x51 JUMP JUMPDEST SWAP1 POP SWAP2 SWAP1 POP JUMP JUMPDEST PUSH1 0x86 DUP2 PUSH1 0x70 JUMP JUMPDEST DUP3 MSTORE POP POP JUMP JUMPDEST PUSH0 PUSH1 0x40 DUP3 ADD SWAP1 POP PUSH1 0x9D PUSH0 DUP4 ADD DUP6 PUSH1 0x7F JUMP JUMPDEST PUSH1 0xA8 PUSH1 0x20 DUP4 ADD DUP5 PUSH1 0x7F JUMP JUMPDEST SWAP4 SWAP3 POP POP POP JUMP INVALID LOG2 PUSH5 0x6970667358 0x22 SLT KECCAK256 0xA8 0xD SWAPN 0x3 SDIV GASLIMIT BLOBHASH SLOAD LOG0 SWAPN 0x7D DUP13 LOG1 SWAP11 TSTORE 0x25 0x23 OR PUSH23 0xE7166B51F48CC8EB62EE65F4D64736F6C634300081F00 CALLER "
		},
		"gasEstimates": {
			"creation": {
				"codeDepositCost": "45800",
				"executionCost": "97",
				"totalCost": "45897"
			},
			"external": {
				"getOriginAndSender()": "infinite"
			}
		},
		"methodIdentifiers": {
			"getOriginAndSender()": "d12c28f2"
		}
	},
	"abi": [
		{
			"inputs": [],
			"name": "getOriginAndSender",
			"outputs": [
				{
					"internalType": "address",
					"name": "",
					"type": "address"
				},
				{
					"internalType": "address",
					"name": "",
					"type": "address"
				}
			],
			"stateMutability": "view",
			"type": "function"
		}
	]
}