{
	"data": {
		"bytecode": {
			"linkReferences": {},
			"object": "608060405266470de4df8200005f553480156018575f5ffd5b5061074e806100265f395ff3fe608060405234801561000f575f5ffd5b506004361061003f575f3560e01c8063072de7f314610043578063083f56fb1461005f5780637ff9b5961461007b575b5f5ffd5b61005d60048036038101906100589190610430565b610099565b005b6100796004803603810190610074919061045b565b61014f565b005b6100836102cb565b60405161009091906104a8565b60405180910390f35b5f81116100db576040517f08c379a00000000000000000000000000000000000000000000000000000000081526004016100d290610541565b60405180910390fd5b5f61010a670de0b6b3a76400006100fc5f54856102d090919063ffffffff16565b6102e590919063ffffffff16565b905061014b6040518060400160405280601081526020017f616d6f756e7420746f20706179203a2000000000000000000000000000000000815250826102fa565b5050565b5f61017d8261016f670de0b6b3a7640000866102d090919063ffffffff16565b6102e590919063ffffffff16565b90506101be6040518060400160405280601081526020017f6d61726b657420726174696f6e203a2000000000000000000000000000000000815250826102fa565b5f670de0b6b3a764000090505f6101f160026101e3848661039690919063ffffffff16565b6102e590919063ffffffff16565b90506102326040518060400160405280601081526020017f61646a7573746564526174696f203a2000000000000000000000000000000000815250826102fa565b5f610261670de0b6b3a7640000610253845f546102d090919063ffffffff16565b6102e590919063ffffffff16565b90506102a26040518060400160405280601181526020017f6e6577546f6b656e507269636520203a20000000000000000000000000000000815250826102fa565b5f66038d7ea4c680009050808210156102bc57805f819055505b815f8190555050505050505050565b5f5481565b5f81836102dd919061058c565b905092915050565b5f81836102f291906105fa565b905092915050565b610392828260405160240161031092919061068a565b6040516020818303038152906040527fb60e72cc000000000000000000000000000000000000000000000000000000007bffffffffffffffffffffffffffffffffffffffffffffffffffffffff19166020820180517bffffffffffffffffffffffffffffffffffffffffffffffffffffffff83818316178352505050506103ab565b5050565b5f81836103a391906106b8565b905092915050565b6103c2816103ba6103c56103e4565b63ffffffff16565b50565b5f6a636f6e736f6c652e6c6f6790505f5f835160208501845afa505050565b6103ef819050919050565b6103f76106eb565b565b5f5ffd5b5f819050919050565b61040f816103fd565b8114610419575f5ffd5b50565b5f8135905061042a81610406565b92915050565b5f60208284031215610445576104446103f9565b5b5f6104528482850161041c565b91505092915050565b5f5f60408385031215610471576104706103f9565b5b5f61047e8582860161041c565b925050602061048f8582860161041c565b9150509250929050565b6104a2816103fd565b82525050565b5f6020820190506104bb5f830184610499565b92915050565b5f82825260208201905092915050565b7f616d6f6e74206f6620746f6b656e206973206e6f74206c657373207468616e205f8201527f7a65726f206f72207a65726f2100000000000000000000000000000000000000602082015250565b5f61052b602d836104c1565b9150610536826104d1565b604082019050919050565b5f6020820190508181035f8301526105588161051f565b9050919050565b7f4e487b71000000000000000000000000000000000000000000000000000000005f52601160045260245ffd5b5f610596826103fd565b91506105a1836103fd565b92508282026105af816103fd565b915082820484148315176105c6576105c561055f565b5b5092915050565b7f4e487b71000000000000000000000000000000000000000000000000000000005f52601260045260245ffd5b5f610604826103fd565b915061060f836103fd565b92508261061f5761061e6105cd565b5b828204905092915050565b5f81519050919050565b8281835e5f83830152505050565b5f601f19601f8301169050919050565b5f61065c8261062a565b61066681856104c1565b9350610676818560208601610634565b61067f81610642565b840191505092915050565b5f6040820190508181035f8301526106a28185610652565b90506106b16020830184610499565b9392505050565b5f6106c2826103fd565b91506106cd836103fd565b92508282019050808211156106e5576106e461055f565b5b92915050565b7f4e487b71000000000000000000000000000000000000000000000000000000005f52605160045260245ffdfea2646970667358221220537d165f3bee4fb33bd2bfcf8206e085cb490f7f556f512660fe47a9f102bcbf64736f6c634300081f0033",
			"opcodes": "PUSH1 0x80 PUSH1 0x40 MSTORE PUSH7 0x470DE4DF820000 PUSH0 SSTORE CALLVALUE DUP1 ISZERO PUSH1 0x18 JUMPI PUSH0 PUSH0 REVERT JUMPDEST POP PUSH2 0x74E DUP1 PUSH2 0x26 PUSH0 CODECOPY PUSH0 RETURN INVALID PUSH1 0x80 PUSH1 0x40 MSTORE CALLVALUE DUP1 ISZERO PUSH2 0xF JUMPI PUSH0 PUSH0 REVERT JUMPDEST POP PUSH1 0x4 CALLDATASIZE LT PUSH2 0x3F JUMPI PUSH0 CALLDATALOAD PUSH1 0xE0 SHR DUP1 PUSH4 0x72DE7F3 EQ PUSH2 0x43 JUMPI DUP1 PUSH4 0x83F56FB EQ PUSH2 0x5F JUMPI DUP1 PUSH4 0x7FF9B596 EQ PUSH2 0x7B JUMPI JUMPDEST PUSH0 PUSH0 REVERT JUMPDEST PUSH2 0x5D PUSH1 0x4 DUP1 CALLDATASIZE SUB DUP2 ADD SWAP1 PUSH2 0x58 SWAP2 SWAP1 PUSH2 0x430 JUMP JUMPDEST PUSH2 0x99 JUMP JUMPDEST STOP JUMPDEST PUSH2 0x79 PUSH1 0x4 DUP1 CALLDATASIZE SUB DUP2 ADD SWAP1 PUSH2 0x74 SWAP2 SWAP1 PUSH2 0x45B JUMP JUMPDEST PUSH2 0x14F JUMP JUMPDEST STOP JUMPDEST PUSH2 0x83 PUSH2 0x2CB JUMP JUMPDEST PUSH1 0x40 MLOAD PUSH2 0x90 SWAP2 SWAP1 PUSH2 0x4A8 JUMP JUMPDEST PUSH1 0x40 MLOAD DUP1 SWAP2 SUB SWAP1 RETURN JUMPDEST PUSH0 DUP2 GT PUSH2 0xDB JUMPI PUSH1 0x40 MLOAD PUSH32 0x8C379A000000000000000000000000000000000000000000000000000000000 DUP2 MSTORE PUSH1 0x4 ADD PUSH2 0xD2 SWAP1 PUSH2 0x541 JUMP JUMPDEST PUSH1 0x40 MLOAD DUP1 SWAP2 SUB SWAP1 REVERT JUMPDEST PUSH0 PUSH2 0x10A PUSH8 0xDE0B6B3A7640000 PUSH2 0xFC PUSH0 SLOAD DUP6 PUSH2 0x2D0 SWAP1 SWAP2 SWAP1 PUSH4 0xFFFFFFFF AND JUMP JUMPDEST PUSH2 0x2E5 SWAP1 SWAP2 SWAP1 PUSH4 0xFFFFFFFF AND JUMP JUMPDEST SWAP1 POP PUSH2 0x14B PUSH1 0x40 MLOAD DUP1 PUSH1 0x40 ADD PUSH1 0x40 MSTORE DUP1 PUSH1 0x10 DUP2 MSTORE PUSH1 0x20 ADD PUSH32 0x616D6F756E7420746F20706179203A2000000000000000000000000000000000 DUP2 MSTORE POP DUP3 PUSH2 0x2FA JUMP JUMPDEST POP POP JUMP JUMPDEST PUSH0 PUSH2 0x17D DUP3 PUSH2 0x16F PUSH8 0xDE0B6B3A7640000 DUP7 PUSH2 0x2D0 SWAP1 SWAP2 SWAP1 PUSH4 0xFFFFFFFF AND JUMP JUMPDEST PUSH2 0x2E5 SWAP1 SWAP2 SWAP1 PUSH4 0xFFFFFFFF AND JUMP JUMPDEST SWAP1 POP PUSH2 0x1BE PUSH1 0x40 MLOAD DUP1 PUSH1 0x40 ADD PUSH1 0x40 MSTORE DUP1 PUSH1 0x10 DUP2 MSTORE PUSH1 0x20 ADD PUSH32 0x6D61726B657420726174696F6E203A2000000000000000000000000000000000 DUP2 MSTORE POP DUP3 PUSH2 0x2FA JUMP JUMPDEST PUSH0 PUSH8 0xDE0B6B3A7640000 SWAP1 POP PUSH0 PUSH2 0x1F1 PUSH1 0x2 PUSH2 0x1E3 DUP5 DUP7 PUSH2 0x396 SWAP1 SWAP2 SWAP1 PUSH4 0xFFFFFFFF AND JUMP JUMPDEST PUSH2 0x2E5 SWAP1 SWAP2 SWAP1 PUSH4 0xFFFFFFFF AND JUMP JUMPDEST SWAP1 POP PUSH2 0x232 PUSH1 0x40 MLOAD DUP1 PUSH1 0x40 ADD PUSH1 0x40 MSTORE DUP1 PUSH1 0x10 DUP2 MSTORE PUSH1 0x20 ADD PUSH32 0x61646A7573746564526174696F203A2000000000000000000000000000000000 DUP2 MSTORE POP DUP3 PUSH2 0x2FA JUMP JUMPDEST PUSH0 PUSH2 0x261 PUSH8 0xDE0B6B3A7640000 PUSH2 0x253 DUP5 PUSH0 SLOAD PUSH2 0x2D0 SWAP1 SWAP2 SWAP1 PUSH4 0xFFFFFFFF AND JUMP JUMPDEST PUSH2 0x2E5 SWAP1 SWAP2 SWAP1 PUSH4 0xFFFFFFFF AND JUMP JUMPDEST SWAP1 POP PUSH2 0x2A2 PUSH1 0x40 MLOAD DUP1 PUSH1 0x40 ADD PUSH1 0x40 MSTORE DUP1 PUSH1 0x11 DUP2 MSTORE PUSH1 0x20 ADD PUSH32 0x6E6577546F6B656E507269636520203A20000000000000000000000000000000 DUP2 MSTORE POP DUP3 PUSH2 0x2FA JUMP JUMPDEST PUSH0 PUSH7 0x38D7EA4C68000 SWAP1 POP DUP1 DUP3 LT ISZERO PUSH2 0x2BC JUMPI DUP1 PUSH0 DUP2 SWAP1 SSTORE POP JUMPDEST DUP2 PUSH0 DUP2 SWAP1 SSTORE POP POP POP POP POP POP POP POP JUMP JUMPDEST PUSH0 SLOAD DUP2 JUMP JUMPDEST PUSH0 DUP2 DUP4 PUSH2 0x2DD SWAP2 SWAP1 PUSH2 0x58C JUMP JUMPDEST SWAP1 POP SWAP3 SWAP2 POP POP JUMP JUMPDEST PUSH0 DUP2 DUP4 PUSH2 0x2F2 SWAP2 SWAP1 PUSH2 0x5FA JUMP JUMPDEST SWAP1 POP SWAP3 SWAP2 POP POP JUMP JUMPDEST PUSH2 0x392 DUP3 DUP3 PUSH1 0x40 MLOAD PUSH1 0x24 ADD PUSH2 0x310 SWAP3 SWAP2 SWAP1 PUSH2 0x68A JUMP JUMPDEST PUSH1 0x40 MLOAD PUSH1 0x20 DUP2 DUP4 SUB SUB DUP2 MSTORE SWAP1 PUSH1 0x40 MSTORE PUSH32 0xB60E72CC00000000000000000000000000000000000000000000000000000000 PUSH28 0xFFFFFFFFFFFFFFFFFFFFFFFFFFFFFFFFFFFFFFFFFFFFFFFFFFFFFFFF NOT AND PUSH1 0x20 DUP3 ADD DUP1 MLOAD PUSH28 0xFFFFFFFFFFFFFFFFFFFFFFFFFFFFFFFFFFFFFFFFFFFFFFFFFFFFFFFF DUP4 DUP2 DUP4 AND OR DUP4 MSTORE POP POP POP POP PUSH2 0x3AB JUMP JUMPDEST POP POP JUMP JUMPDEST PUSH0 DUP2 DUP4 PUSH2 0x3A3 SWAP2 SWAP1 PUSH2 0x6B8 JUMP JUMPDEST SWAP1 POP SWAP3 SWAP2 POP POP JUMP JUMPDEST PUSH2 0x3C2 DUP2 PUSH2 0x3BA PUSH2 0x3C5 PUSH2 0x3E4 JUMP JUMPDEST PUSH4 0xFFFFFFFF AND JUMP JUMPDEST POP JUMP JUMPDEST PUSH0 PUSH11 0x636F6E736F6C652E6C6F67 SWAP1 POP PUSH0 PUSH0 DUP4 MLOAD PUSH1 0x20 DUP6 ADD DUP5 GAS STATICCALL POP POP POP JUMP JUMPDEST PUSH2 0x3EF DUP2 SWAP1 POP SWAP2 SWAP1 POP JUMP JUMPDEST PUSH2 0x3F7 PUSH2 0x6EB JUMP JUMPDEST JUMP JUMPDEST PUSH0 PUSH0 REVERT JUMPDEST PUSH0 DUP2 SWAP1 POP SWAP2 SWAP1 POP JUMP JUMPDEST PUSH2 0x40F DUP2 PUSH2 0x3FD JUMP JUMPDEST DUP2 EQ PUSH2 0x419 JUMPI PUSH0 PUSH0 REVERT JUMPDEST POP JUMP JUMPDEST PUSH0 DUP2 CALLDATALOAD SWAP1 POP PUSH2 0x42A DUP2 PUSH2 0x406 JUMP JUMPDEST SWAP3 SWAP2 POP POP JUMP JUMPDEST PUSH0 PUSH1 0x20 DUP3 DUP5 SUB SLT ISZERO PUSH2 0x445 JUMPI PUSH2 0x444 PUSH2 0x3F9 JUMP JUMPDEST JUMPDEST PUSH0 PUSH2 0x452 DUP5 DUP3 DUP6 ADD PUSH2 0x41C JUMP JUMPDEST SWAP2 POP POP SWAP3 SWAP2 POP POP JUMP JUMPDEST PUSH0 PUSH0 PUSH1 0x40 DUP4 DUP6 SUB SLT ISZERO PUSH2 0x471 JUMPI PUSH2 0x470 PUSH2 0x3F9 JUMP JUMPDEST JUMPDEST PUSH0 PUSH2 0x47E DUP6 DUP3 DUP7 ADD PUSH2 0x41C JUMP JUMPDEST SWAP3 POP POP PUSH1 0x20 PUSH2 0x48F DUP6 DUP3 DUP7 ADD PUSH2 0x41C JUMP JUMPDEST SWAP2 POP POP SWAP3 POP SWAP3 SWAP1 POP JUMP JUMPDEST PUSH2 0x4A2 DUP2 PUSH2 0x3FD JUMP JUMPDEST DUP3 MSTORE POP POP JUMP JUMPDEST PUSH0 PUSH1 0x20 DUP3 ADD SWAP1 POP PUSH2 0x4BB PUSH0 DUP4 ADD DUP5 PUSH2 0x499 JUMP JUMPDEST SWAP3 SWAP2 POP POP JUMP JUMPDEST PUSH0 DUP3 DUP3 MSTORE PUSH1 0x20 DUP3 ADD SWAP1 POP SWAP3 SWAP2 POP POP JUMP JUMPDEST PUSH32 0x616D6F6E74206F6620746F6B656E206973206E6F74206C657373207468616E20 PUSH0 DUP3 ADD MSTORE PUSH32 0x7A65726F206F72207A65726F2100000000000000000000000000000000000000 PUSH1 0x20 DUP3 ADD MSTORE POP JUMP JUMPDEST PUSH0 PUSH2 0x52B PUSH1 0x2D DUP4 PUSH2 0x4C1 JUMP JUMPDEST SWAP2 POP PUSH2 0x536 DUP3 PUSH2 0x4D1 JUMP JUMPDEST PUSH1 0x40 DUP3 ADD SWAP1 POP SWAP2 SWAP1 POP JUMP JUMPDEST PUSH0 PUSH1 0x20 DUP3 ADD SWAP1 POP DUP2 DUP2 SUB PUSH0 DUP4 ADD MSTORE PUSH2 0x558 DUP2 PUSH2 0x51F JUMP JUMPDEST SWAP1 POP SWAP2 SWAP1 POP JUMP JUMPDEST PUSH32 0x4E487B7100000000000000000000000000000000000000000000000000000000 PUSH0 MSTORE PUSH1 0x11 PUSH1 0x4 MSTORE PUSH1 0x24 PUSH0 REVERT JUMPDEST PUSH0 PUSH2 0x596 DUP3 PUSH2 0x3FD JUMP JUMPDEST SWAP2 POP PUSH2 0x5A1 DUP4 PUSH2 0x3FD JUMP JUMPDEST SWAP3 POP DUP3 DUP3 MUL PUSH2 0x5AF DUP2 PUSH2 0x3FD JUMP JUMPDEST SWAP2 POP DUP3 DUP3 DIV DUP5 EQ DUP4 ISZERO OR PUSH2 0x5C6 JUMPI PUSH2 0x5C5 PUSH2 0x55F JUMP JUMPDEST JUMPDEST POP SWAP3 SWAP2 POP POP JUMP JUMPDEST PUSH32 0x4E487B7100000000000000000000000000000000000000000000000000000000 PUSH0 MSTORE PUSH1 0x12 PUSH1 0x4 MSTORE PUSH1 0x24 PUSH0 REVERT JUMPDEST PUSH0 PUSH2 0x604 DUP3 PUSH2 0x3FD JUMP JUMPDEST SWAP2 POP PUSH2 0x60F DUP4 PUSH2 0x3FD JUMP JUMPDEST SWAP3 POP DUP3 PUSH2 0x61F JUMPI PUSH2 0x61E PUSH2 0x5CD JUMP JUMPDEST JUMPDEST DUP3 DUP3 DIV SWAP1 POP SWAP3 SWAP2 POP POP JUMP JUMPDEST PUSH0 DUP2 MLOAD SWAP1 POP SWAP2 SWAP1 POP JUMP JUMPDEST DUP3 DUP2 DUP4 MCOPY PUSH0 DUP4 DUP4 ADD MSTORE POP POP POP JUMP JUMPDEST PUSH0 PUSH1 0x1F NOT PUSH1 0x1F DUP4 ADD AND SWAP1 POP SWAP2 SWAP1 POP JUMP JUMPDEST PUSH0 PUSH2 0x65C DUP3 PUSH2 0x62A JUMP JUMPDEST PUSH2 0x666 DUP2 DUP6 PUSH2 0x4C1 JUMP JUMPDEST SWAP4 POP PUSH2 0x676 DUP2 DUP6 PUSH1 0x20 DUP7 ADD PUSH2 0x634 JUMP JUMPDEST PUSH2 0x67F DUP2 PUSH2 0x642 JUMP JUMPDEST DUP5 ADD SWAP2 POP POP SWAP3 SWAP2 POP POP JUMP JUMPDEST PUSH0 PUSH1 0x40 DUP3 ADD SWAP1 POP DUP2 DUP2 SUB PUSH0 DUP4 ADD MSTORE PUSH2 0x6A2 DUP2 DUP6 PUSH2 0x652 JUMP JUMPDEST SWAP1 POP PUSH2 0x6B1 PUSH1 0x20 DUP4 ADD DUP5 PUSH2 0x499 JUMP JUMPDEST SWAP4 SWAP3 POP POP POP JUMP JUMPDEST PUSH0 PUSH2 0x6C2 DUP3 PUSH2 0x3FD JUMP JUMPDEST SWAP2 POP PUSH2 0x6CD DUP4 PUSH2 0x3FD JUMP JUMPDEST SWAP3 POP DUP3 DUP3 ADD SWAP1 POP DUP1 DUP3 GT ISZERO PUSH2 0x6E5 JUMPI PUSH2 0x6E4 PUSH2 0x55F JUMP JUMPDEST JUMPDEST SWAP3 SWAP2 POP POP JUMP JUMPDEST PUSH32 0x4E487B7100000000000000000000000000000000000000000000000000000000 PUSH0 MSTORE PUSH1 0x51 PUSH1 0x4 MSTORE PUSH1 0x24 PUSH0 REVERT INVALID LOG2 PUSH5 0x6970667358 0x22 SLT KECCAK256 MSTORE8 PUSH30 0x165F3BEE4FB33BD2BFCF8206E085CB490F7F556F512660FE47A9F102BCBF PUSH5 0x736F6C6343 STOP ADDMOD 0x1F STOP CALLER "
		},
		"gasEstimates": {
			"creation": {
				"codeDepositCost": "374000",
				"executionCost": "22514",
				"totalCost": "396514"
			},
			"external": {
				"adjustTokenPriceBasedOnDemand(uint256,uint256)": "infinite",
				"calculateTokenPrice(uint256)": "infinite",
				"tokenPrice()": "2446"
			}
		},
		"methodIdentifiers": {
			"adjustTokenPriceBasedOnDemand(uint256,uint256)": "083f56fb",
			"calculateTokenPrice(uint256)": "072de7f3",
			"tokenPrice()": "7ff9b596"
		}
	},
	"abi": [
		{
			"inputs": [
				{
					"internalType": "uint256",
					"name": "buyerCount",
					"type": "uint256"
				},
				{
					"internalType": "uint256",
					"name": "sellerCount",
					"type": "uint256"
				}
			],
			"name": "adjustTokenPriceBasedOnDemand",
			"outputs": [],
			"stateMutability": "nonpayable",
			"type": "function"
		},
		{
			"inputs": [
				{
					"internalType": "uint256",
					"name": "_amountOfToken",
					"type": "uint256"
				}
			],
			"name": "calculateTokenPrice",
			"outputs": [],
			"stateMutability": "view",
			"type": "function"
		},
		{
			"inputs": [],
			"name": "tokenPrice",
			"outputs": [
				{
					"internalType": "uint256",
					"name": "",
					"type": "uint256"
				}
			],
			"stateMutability": "view",
			"type": "function"
		}
	]
}