{
	"data": {
		"bytecode": {
			"linkReferences": {},
			"object": "6080604052348015600e575f5ffd5b506040516105a63803806105a68339818101604052810190602e9190606b565b805f81905550506091565b5f5ffd5b5f819050919050565b604d81603d565b81146056575f5ffd5b50565b5f815190506065816046565b92915050565b5f60208284031215607d57607c6039565b5b5f6088848285016059565b91505092915050565b6105088061009e5f395ff3fe608060405234801561000f575f5ffd5b5060043610610029575f3560e01c8063f2d646a11461002d575b5f5ffd5b61004760048036038101906100429190610324565b61005d565b6040516100549190610385565b60405180910390f35b5f61008e82336040516020016100739190610413565b604051602081830303815290604052805190602001206100d6565b6100cd576040517f08c379a00000000000000000000000000000000000000000000000000000000081526004016100c490610487565b60405180910390fd5b60019050919050565b5f6100e3835f54846100eb565b905092915050565b5f826100f78584610101565b1490509392505050565b5f5f8290505f5f90505b8451811015610147576101388286838151811061012b5761012a6104a5565b5b6020026020010151610152565b9150808060010191505061010b565b508091505092915050565b5f81831061016957610164828461017c565b610174565b610173838361017c565b5b905092915050565b5f825f528160205260405f20905092915050565b5f604051905090565b5f5ffd5b5f5ffd5b5f5ffd5b5f601f19601f8301169050919050565b7f4e487b71000000000000000000000000000000000000000000000000000000005f52604160045260245ffd5b6101eb826101a5565b810181811067ffffffffffffffff8211171561020a576102096101b5565b5b80604052505050565b5f61021c610190565b905061022882826101e2565b919050565b5f67ffffffffffffffff821115610247576102466101b5565b5b602082029050602081019050919050565b5f5ffd5b5f819050919050565b61026e8161025c565b8114610278575f5ffd5b50565b5f8135905061028981610265565b92915050565b5f6102a161029c8461022d565b610213565b905080838252602082019050602084028301858111156102c4576102c3610258565b5b835b818110156102ed57806102d9888261027b565b8452602084019350506020810190506102c6565b5050509392505050565b5f82601f83011261030b5761030a6101a1565b5b813561031b84826020860161028f565b91505092915050565b5f6020828403121561033957610338610199565b5b5f82013567ffffffffffffffff8111156103565761035561019d565b5b610362848285016102f7565b91505092915050565b5f8115159050919050565b61037f8161036b565b82525050565b5f6020820190506103985f830184610376565b92915050565b5f73ffffffffffffffffffffffffffffffffffffffff82169050919050565b5f6103c78261039e565b9050919050565b5f8160601b9050919050565b5f6103e4826103ce565b9050919050565b5f6103f5826103da565b9050919050565b61040d610408826103bd565b6103eb565b82525050565b5f61041e82846103fc565b60148201915081905092915050565b5f82825260208201905092915050565b7f4e6f7420612070617274206f6620416c6c6f776c6973740000000000000000005f82015250565b5f61047160178361042d565b915061047c8261043d565b602082019050919050565b5f6020820190508181035f83015261049e81610465565b9050919050565b7f4e487b71000000000000000000000000000000000000000000000000000000005f52603260045260245ffdfea2646970667358221220885b530e583368c9ecbe7161524bbc89e99288f5924f072727c3a2c023c831ba64736f6c634300081f0033",
			"opcodes": "PUSH1 0x80 PUSH1 0x40 MSTORE CALLVALUE DUP1 ISZERO PUSH1 0xE JUMPI PUSH0 PUSH0 REVERT JUMPDEST POP PUSH1 0x40 MLOAD PUSH2 0x5A6 CODESIZE SUB DUP1 PUSH2 0x5A6 DUP4 CODECOPY DUP2 DUP2 ADD PUSH1 0x40 MSTORE DUP2 ADD SWAP1 PUSH1 0x2E SWAP2 SWAP1 PUSH1 0x6B JUMP JUMPDEST DUP1 PUSH0 DUP2 SWAP1 SSTORE POP POP PUSH1 0x91 JUMP JUMPDEST PUSH0 PUSH0 REVERT JUMPDEST PUSH0 DUP2 SWAP1 POP SWAP2 SWAP1 POP JUMP JUMPDEST PUSH1 0x4D DUP2 PUSH1 0x3D JUMP JUMPDEST DUP2 EQ PUSH1 0x56 JUMPI PUSH0 PUSH0 REVERT JUMPDEST POP JUMP JUMPDEST PUSH0 DUP2 MLOAD SWAP1 POP PUSH1 0x65 DUP2 PUSH1 0x46 JUMP JUMPDEST SWAP3 SWAP2 POP POP JUMP JUMPDEST PUSH0 PUSH1 0x20 DUP3 DUP5 SUB SLT ISZERO PUSH1 0x7D JUMPI PUSH1 0x7C PUSH1 0x39 JUMP JUMPDEST JUMPDEST PUSH0 PUSH1 0x88 DUP5 DUP3 DUP6 ADD PUSH1 0x59 JUMP JUMPDEST SWAP2 POP POP SWAP3 SWAP2 POP POP JUMP JUMPDEST PUSH2 0x508 DUP1 PUSH2 0x9E PUSH0 CODECOPY PUSH0 RETURN INVALID PUSH1 0x80 PUSH1 0x40 MSTORE CALLVALUE DUP1 ISZERO PUSH2 0xF JUMPI PUSH0 PUSH0 REVERT JUMPDEST POP PUSH1 0x4 CALLDATASIZE LT PUSH2 0x29 JUMPI PUSH0 CALLDATALOAD PUSH1 0xE0 SHR DUP1 PUSH4 0xF2D646A1 EQ PUSH2 0x2D JUMPI JUMPDEST PUSH0 PUSH0 REVERT JUMPDEST PUSH2 0x47 PUSH1 0x4 DUP1 CALLDATASIZE SUB DUP2 ADD SWAP1 PUSH2 0x42 SWAP2 SWAP1 PUSH2 0x324 JUMP JUMPDEST PUSH2 0x5D JUMP JUMPDEST PUSH1 0x40 MLOAD PUSH2 0x54 SWAP2 SWAP1 PUSH2 0x385 JUMP JUMPDEST PUSH1 0x40 MLOAD DUP1 SWAP2 SUB SWAP1 RETURN JUMPDEST PUSH0 PUSH2 0x8E DUP3 CALLER PUSH1 0x40 MLOAD PUSH1 0x20 ADD PUSH2 0x73 SWAP2 SWAP1 PUSH2 0x413 JUMP JUMPDEST PUSH1 0x40 MLOAD PUSH1 0x20 DUP2 DUP4 SUB SUB DUP2 MSTORE SWAP1 PUSH1 0x40 MSTORE DUP1 MLOAD SWAP1 PUSH1 0x20 ADD KECCAK256 PUSH2 0xD6 JUMP JUMPDEST PUSH2 0xCD JUMPI PUSH1 0x40 MLOAD PUSH32 0x8C379A000000000000000000000000000000000000000000000000000000000 DUP2 MSTORE PUSH1 0x4 ADD PUSH2 0xC4 SWAP1 PUSH2 0x487 JUMP JUMPDEST PUSH1 0x40 MLOAD DUP1 SWAP2 SUB SWAP1 REVERT JUMPDEST PUSH1 0x1 SWAP1 POP SWAP2 SWAP1 POP JUMP JUMPDEST PUSH0 PUSH2 0xE3 DUP4 PUSH0 SLOAD DUP5 PUSH2 0xEB JUMP JUMPDEST SWAP1 POP SWAP3 SWAP2 POP POP JUMP JUMPDEST PUSH0 DUP3 PUSH2 0xF7 DUP6 DUP5 PUSH2 0x101 JUMP JUMPDEST EQ SWAP1 POP SWAP4 SWAP3 POP POP POP JUMP JUMPDEST PUSH0 PUSH0 DUP3 SWAP1 POP PUSH0 PUSH0 SWAP1 POP JUMPDEST DUP5 MLOAD DUP2 LT ISZERO PUSH2 0x147 JUMPI PUSH2 0x138 DUP3 DUP7 DUP4 DUP2 MLOAD DUP2 LT PUSH2 0x12B JUMPI PUSH2 0x12A PUSH2 0x4A5 JUMP JUMPDEST JUMPDEST PUSH1 0x20 MUL PUSH1 0x20 ADD ADD MLOAD PUSH2 0x152 JUMP JUMPDEST SWAP2 POP DUP1 DUP1 PUSH1 0x1 ADD SWAP2 POP POP PUSH2 0x10B JUMP JUMPDEST POP DUP1 SWAP2 POP POP SWAP3 SWAP2 POP POP JUMP JUMPDEST PUSH0 DUP2 DUP4 LT PUSH2 0x169 JUMPI PUSH2 0x164 DUP3 DUP5 PUSH2 0x17C JUMP JUMPDEST PUSH2 0x174 JUMP JUMPDEST PUSH2 0x173 DUP4 DUP4 PUSH2 0x17C JUMP JUMPDEST JUMPDEST SWAP1 POP SWAP3 SWAP2 POP POP JUMP JUMPDEST PUSH0 DUP3 PUSH0 MSTORE DUP2 PUSH1 0x20 MSTORE PUSH1 0x40 PUSH0 KECCAK256 SWAP1 POP SWAP3 SWAP2 POP POP JUMP JUMPDEST PUSH0 PUSH1 0x40 MLOAD SWAP1 POP SWAP1 JUMP JUMPDEST PUSH0 PUSH0 REVERT JUMPDEST PUSH0 PUSH0 REVERT JUMPDEST PUSH0 PUSH0 REVERT JUMPDEST PUSH0 PUSH1 0x1F NOT PUSH1 0x1F DUP4 ADD AND SWAP1 POP SWAP2 SWAP1 POP JUMP JUMPDEST PUSH32 0x4E487B7100000000000000000000000000000000000000000000000000000000 PUSH0 MSTORE PUSH1 0x41 PUSH1 0x4 MSTORE PUSH1 0x24 PUSH0 REVERT JUMPDEST PUSH2 0x1EB DUP3 PUSH2 0x1A5 JUMP JUMPDEST DUP2 ADD DUP2 DUP2 LT PUSH8 0xFFFFFFFFFFFFFFFF DUP3 GT OR ISZERO PUSH2 0x20A JUMPI PUSH2 0x209 PUSH2 0x1B5 JUMP JUMPDEST JUMPDEST DUP1 PUSH1 0x40 MSTORE POP POP POP JUMP JUMPDEST PUSH0 PUSH2 0x21C PUSH2 0x190 JUMP JUMPDEST SWAP1 POP PUSH2 0x228 DUP3 DUP3 PUSH2 0x1E2 JUMP JUMPDEST SWAP2 SWAP1 POP JUMP JUMPDEST PUSH0 PUSH8 0xFFFFFFFFFFFFFFFF DUP3 GT ISZERO PUSH2 0x247 JUMPI PUSH2 0x246 PUSH2 0x1B5 JUMP JUMPDEST JUMPDEST PUSH1 0x20 DUP3 MUL SWAP1 POP PUSH1 0x20 DUP2 ADD SWAP1 POP SWAP2 SWAP1 POP JUMP JUMPDEST PUSH0 PUSH0 REVERT JUMPDEST PUSH0 DUP2 SWAP1 POP SWAP2 SWAP1 POP JUMP JUMPDEST PUSH2 0x26E DUP2 PUSH2 0x25C JUMP JUMPDEST DUP2 EQ PUSH2 0x278 JUMPI PUSH0 PUSH0 REVERT JUMPDEST POP JUMP JUMPDEST PUSH0 DUP2 CALLDATALOAD SWAP1 POP PUSH2 0x289 DUP2 PUSH2 0x265 JUMP JUMPDEST SWAP3 SWAP2 POP POP JUMP JUMPDEST PUSH0 PUSH2 0x2A1 PUSH2 0x29C DUP5 PUSH2 0x22D JUMP JUMPDEST PUSH2 0x213 JUMP JUMPDEST SWAP1 POP DUP1 DUP4 DUP3 MSTORE PUSH1 0x20 DUP3 ADD SWAP1 POP PUSH1 0x20 DUP5 MUL DUP4 ADD DUP6 DUP2 GT ISZERO PUSH2 0x2C4 JUMPI PUSH2 0x2C3 PUSH2 0x258 JUMP JUMPDEST JUMPDEST DUP4 JUMPDEST DUP2 DUP2 LT ISZERO PUSH2 0x2ED JUMPI DUP1 PUSH2 0x2D9 DUP9 DUP3 PUSH2 0x27B JUMP JUMPDEST DUP5 MSTORE PUSH1 0x20 DUP5 ADD SWAP4 POP POP PUSH1 0x20 DUP2 ADD SWAP1 POP PUSH2 0x2C6 JUMP JUMPDEST POP POP POP SWAP4 SWAP3 POP POP POP JUMP JUMPDEST PUSH0 DUP3 PUSH1 0x1F DUP4 ADD SLT PUSH2 0x30B JUMPI PUSH2 0x30A PUSH2 0x1A1 JUMP JUMPDEST JUMPDEST DUP2 CALLDATALOAD PUSH2 0x31B DUP5 DUP3 PUSH1 0x20 DUP7 ADD PUSH2 0x28F JUMP JUMPDEST SWAP2 POP POP SWAP3 SWAP2 POP POP JUMP JUMPDEST PUSH0 PUSH1 0x20 DUP3 DUP5 SUB SLT ISZERO PUSH2 0x339 JUMPI PUSH2 0x338 PUSH2 0x199 JUMP JUMPDEST JUMPDEST PUSH0 DUP3 ADD CALLDATALOAD PUSH8 0xFFFFFFFFFFFFFFFF DUP2 GT ISZERO PUSH2 0x356 JUMPI PUSH2 0x355 PUSH2 0x19D JUMP JUMPDEST JUMPDEST PUSH2 0x362 DUP5 DUP3 DUP6 ADD PUSH2 0x2F7 JUMP JUMPDEST SWAP2 POP POP SWAP3 SWAP2 POP POP JUMP JUMPDEST PUSH0 DUP2 ISZERO ISZERO SWAP1 POP SWAP2 SWAP1 POP JUMP JUMPDEST PUSH2 0x37F DUP2 PUSH2 0x36B JUMP JUMPDEST DUP3 MSTORE POP POP JUMP JUMPDEST PUSH0 PUSH1 0x20 DUP3 ADD SWAP1 POP PUSH2 0x398 PUSH0 DUP4 ADD DUP5 PUSH2 0x376 JUMP JUMPDEST SWAP3 SWAP2 POP POP JUMP JUMPDEST PUSH0 PUSH20 0xFFFFFFFFFFFFFFFFFFFFFFFFFFFFFFFFFFFFFFFF DUP3 AND SWAP1 POP SWAP2 SWAP1 POP JUMP JUMPDEST PUSH0 PUSH2 0x3C7 DUP3 PUSH2 0x39E JUMP JUMPDEST SWAP1 POP SWAP2 SWAP1 POP JUMP JUMPDEST PUSH0 DUP2 PUSH1 0x60 SHL SWAP1 POP SWAP2 SWAP1 POP JUMP JUMPDEST PUSH0 PUSH2 0x3E4 DUP3 PUSH2 0x3CE JUMP JUMPDEST SWAP1 POP SWAP2 SWAP1 POP JUMP JUMPDEST PUSH0 PUSH2 0x3F5 DUP3 PUSH2 0x3DA JUMP JUMPDEST SWAP1 POP SWAP2 SWAP1 POP JUMP JUMPDEST PUSH2 0x40D PUSH2 0x408 DUP3 PUSH2 0x3BD JUMP JUMPDEST PUSH2 0x3EB JUMP JUMPDEST DUP3 MSTORE POP POP JUMP JUMPDEST PUSH0 PUSH2 0x41E DUP3 DUP5 PUSH2 0x3FC JUMP JUMPDEST PUSH1 0x14 DUP3 ADD SWAP2 POP DUP2 SWAP1 POP SWAP3 SWAP2 POP POP JUMP JUMPDEST PUSH0 DUP3 DUP3 MSTORE PUSH1 0x20 DUP3 ADD SWAP1 POP SWAP3 SWAP2 POP POP JUMP JUMPDEST PUSH32 0x4E6F7420612070617274206F6620416C6C6F776C697374000000000000000000 PUSH0 DUP3 ADD MSTORE POP JUMP JUMPDEST PUSH0 PUSH2 0x471 PUSH1 0x17 DUP4 PUSH2 0x42D JUMP JUMPDEST SWAP2 POP PUSH2 0x47C DUP3 PUSH2 0x43D JUMP JUMPDEST PUSH1 0x20 DUP3 ADD SWAP1 POP SWAP2 SWAP1 POP JUMP JUMPDEST PUSH0 PUSH1 0x20 DUP3 ADD SWAP1 POP DUP2 DUP2 SUB PUSH0 DUP4 ADD MSTORE PUSH2 0x49E DUP2 PUSH2 0x465 JUMP JUMPDEST SWAP1 POP SWAP2 SWAP1 POP JUMP JUMPDEST PUSH32 0x4E487B7100000000000000000000000000000000000000000000000000000000 PUSH0 MSTORE PUSH1 0x32 PUSH1 0x4 MSTORE PUSH1 0x24 PUSH0 REVERT INVALID LOG2 PUSH5 0x6970667358 0x22 SLT KECCAK256 DUP9 JUMPDEST MSTORE8 0xE PC CALLER PUSH9 0xC9ECBE7161524BBC89 0xE9 SWAP3 DUP9 CREATE2 SWAP3 0x4F SMOD 0x27 0x27 0xC3 LOG2 0xC0 0x23 0xC8 BALANCE 0xBA PUSH5 0x736F6C6343 STOP ADDMOD 0x1F STOP CALLER "
		},
		"gasEstimates": {
			"creation": {
				"codeDepositCost": "257600",
				"executionCost": "infinite",
				"totalCost": "infinite"
			},
			"external": {
				"safeMint(bytes32[])": "infinite"
			},
			"internal": {
				"isValid(bytes32[] memory,bytes32)": "infinite"
			}
		},
		"methodIdentifiers": {
			"safeMint(bytes32[])": "f2d646a1"
		}
	},
	"abi": [
		{
			"inputs": [
				{
					"internalType": "bytes32",
					"name": "_root",
					"type": "bytes32"
				}
			],
			"stateMutability": "nonpayable",
			"type": "constructor"
		},
		{
			"inputs": [
				{
					"internalType": "bytes32[]",
					"name": "proof",
					"type": "bytes32[]"
				}
			],
			"name": "safeMint",
			"outputs": [
				{
					"internalType": "bool",
					"name": "",
					"type": "bool"
				}
			],
			"stateMutability": "view",
			"type": "function"
		}
	]
}