{
	"data": {
		"bytecode": {
			"linkReferences": {},
			"object": "6080604052348015600e575f5ffd5b50335f5f6101000a81548173ffffffffffffffffffffffffffffffffffffffff021916908373ffffffffffffffffffffffffffffffffffffffff1602179055506108838061005b5f395ff3fe608060405234801561000f575f5ffd5b506004361061004a575f3560e01c80630cb139e21461004e57806375829def1461006a5780637cc1f86714610086578063f851a440146100a4575b5f5ffd5b6100686004803603810190610063919061043f565b6100c2565b005b610084600480360381019061007f919061053c565b610204565b005b61008e610342565b60405161009b91906105d7565b60405180910390f35b6100ac61037f565b6040516100b99190610606565b60405180910390f35b5f5f9054906101000a900473ffffffffffffffffffffffffffffffffffffffff1673ffffffffffffffffffffffffffffffffffffffff163373ffffffffffffffffffffffffffffffffffffffff1614610150576040517f08c379a000000000000000000000000000000000000000000000000000000000815260040161014790610669565b60405180910390fd5b5f8311610192576040517f08c379a0000000000000000000000000000000000000000000000000000000008152600401610189906106d1565b60405180910390fd5b84846040516101a292919061072b565b6040518091039020867e9f9b560fab0367387bbfc1a9db1c74b3eb0063a0045d64ca81c232d24dcdf6854286866040516101dd929190610771565b60405180910390206040516101f4939291906107b0565b60405180910390a3505050505050565b5f5f9054906101000a900473ffffffffffffffffffffffffffffffffffffffff1673ffffffffffffffffffffffffffffffffffffffff163373ffffffffffffffffffffffffffffffffffffffff1614610292576040517f08c379a000000000000000000000000000000000000000000000000000000000815260040161028990610669565b60405180910390fd5b5f73ffffffffffffffffffffffffffffffffffffffff168173ffffffffffffffffffffffffffffffffffffffff1603610300576040517f08c379a00000000000000000000000000000000000000000000000000000000081526004016102f79061082f565b60405180910390fd5b805f5f6101000a81548173ffffffffffffffffffffffffffffffffffffffff021916908373ffffffffffffffffffffffffffffffffffffffff16021790555050565b60606040518060400160405280601f81526020017f536d617274204d6573732053797374656d20466565204c656467657220763100815250905090565b5f5f9054906101000a900473ffffffffffffffffffffffffffffffffffffffff1681565b5f5ffd5b5f5ffd5b5f819050919050565b6103bd816103ab565b81146103c7575f5ffd5b50565b5f813590506103d8816103b4565b92915050565b5f5ffd5b5f5ffd5b5f5ffd5b5f5f83601f8401126103ff576103fe6103de565b5b8235905067ffffffffffffffff81111561041c5761041b6103e2565b5b602083019150836001820283011115610438576104376103e6565b5b9250929050565b5f5f5f5f5f5f60808789031215610459576104586103a3565b5b5f61046689828a016103ca565b965050602087013567ffffffffffffffff811115610487576104866103a7565b5b61049389828a016103ea565b955095505060406104a689828a016103ca565b935050606087013567ffffffffffffffff8111156104c7576104c66103a7565b5b6104d389828a016103ea565b92509250509295509295509295565b5f73ffffffffffffffffffffffffffffffffffffffff82169050919050565b5f61050b826104e2565b9050919050565b61051b81610501565b8114610525575f5ffd5b50565b5f8135905061053681610512565b92915050565b5f60208284031215610551576105506103a3565b5b5f61055e84828501610528565b91505092915050565b5f81519050919050565b5f82825260208201905092915050565b8281835e5f83830152505050565b5f601f19601f8301169050919050565b5f6105a982610567565b6105b38185610571565b93506105c3818560208601610581565b6105cc8161058f565b840191505092915050565b5f6020820190508181035f8301526105ef818461059f565b905092915050565b61060081610501565b82525050565b5f6020820190506106195f8301846105f7565b92915050565b7f4e6f7420617574686f72697a65640000000000000000000000000000000000005f82015250565b5f610653600e83610571565b915061065e8261061f565b602082019050919050565b5f6020820190508181035f83015261068081610647565b9050919050565b7f496e76616c696420616d6f756e740000000000000000000000000000000000005f82015250565b5f6106bb600e83610571565b91506106c682610687565b602082019050919050565b5f6020820190508181035f8301526106e8816106af565b9050919050565b5f81905092915050565b828183375f83830152505050565b5f61071283856106ef565b935061071f8385846106f9565b82840190509392505050565b5f610737828486610707565b91508190509392505050565b5f81905092915050565b5f6107588385610743565b93506107658385846106f9565b82840190509392505050565b5f61077d82848661074d565b91508190509392505050565b610792816103ab565b82525050565b5f819050919050565b6107aa81610798565b82525050565b5f6060820190506107c35f830186610789565b6107d06020830185610789565b6107dd60408301846107a1565b949350505050565b7f496e76616c6964206164647265737300000000000000000000000000000000005f82015250565b5f610819600f83610571565b9150610824826107e5565b602082019050919050565b5f6020820190508181035f8301526108468161080d565b905091905056fea26469706673582212208f6c542ddde43207cb99c5fdb3855339390eb4dc699ec7ecc26d46265c06dc9c64736f6c634300081f0033",
			"opcodes": "PUSH1 0x80 PUSH1 0x40 MSTORE CALLVALUE DUP1 ISZERO PUSH1 0xE JUMPI PUSH0 PUSH0 REVERT JUMPDEST POP CALLER PUSH0 PUSH0 PUSH2 0x100 EXP DUP2 SLOAD DUP2 PUSH20 0xFFFFFFFFFFFFFFFFFFFFFFFFFFFFFFFFFFFFFFFF MUL NOT AND SWAP1 DUP4 PUSH20 0xFFFFFFFFFFFFFFFFFFFFFFFFFFFFFFFFFFFFFFFF AND MUL OR SWAP1 SSTORE POP PUSH2 0x883 DUP1 PUSH2 0x5B PUSH0 CODECOPY PUSH0 RETURN INVALID PUSH1 0x80 PUSH1 0x40 MSTORE CALLVALUE DUP1 ISZERO PUSH2 0xF JUMPI PUSH0 PUSH0 REVERT JUMPDEST POP PUSH1 0x4 CALLDATASIZE LT PUSH2 0x4A JUMPI PUSH0 CALLDATALOAD PUSH1 0xE0 SHR DUP1 PUSH4 0xCB139E2 EQ PUSH2 0x4E JUMPI DUP1 PUSH4 0x75829DEF EQ PUSH2 0x6A JUMPI DUP1 PUSH4 0x7CC1F867 EQ PUSH2 0x86 JUMPI DUP1 PUSH4 0xF851A440 EQ PUSH2 0xA4 JUMPI JUMPDEST PUSH0 PUSH0 REVERT JUMPDEST PUSH2 0x68 PUSH1 0x4 DUP1 CALLDATASIZE SUB DUP2 ADD SWAP1 PUSH2 0x63 SWAP2 SWAP1 PUSH2 0x43F JUMP JUMPDEST PUSH2 0xC2 JUMP JUMPDEST STOP JUMPDEST PUSH2 0x84 PUSH1 0x4 DUP1 CALLDATASIZE SUB DUP2 ADD SWAP1 PUSH2 0x7F SWAP2 SWAP1 PUSH2 0x53C JUMP JUMPDEST PUSH2 0x204 JUMP JUMPDEST STOP JUMPDEST PUSH2 0x8E PUSH2 0x342 JUMP JUMPDEST PUSH1 0x40 MLOAD PUSH2 0x9B SWAP2 SWAP1 PUSH2 0x5D7 JUMP JUMPDEST PUSH1 0x40 MLOAD DUP1 SWAP2 SUB SWAP1 RETURN JUMPDEST PUSH2 0xAC PUSH2 0x37F JUMP JUMPDEST PUSH1 0x40 MLOAD PUSH2 0xB9 SWAP2 SWAP1 PUSH2 0x606 JUMP JUMPDEST PUSH1 0x40 MLOAD DUP1 SWAP2 SUB SWAP1 RETURN JUMPDEST PUSH0 PUSH0 SWAP1 SLOAD SWAP1 PUSH2 0x100 EXP SWAP1 DIV PUSH20 0xFFFFFFFFFFFFFFFFFFFFFFFFFFFFFFFFFFFFFFFF AND PUSH20 0xFFFFFFFFFFFFFFFFFFFFFFFFFFFFFFFFFFFFFFFF AND CALLER PUSH20 0xFFFFFFFFFFFFFFFFFFFFFFFFFFFFFFFFFFFFFFFF AND EQ PUSH2 0x150 JUMPI PUSH1 0x40 MLOAD PUSH32 0x8C379A000000000000000000000000000000000000000000000000000000000 DUP2 MSTORE PUSH1 0x4 ADD PUSH2 0x147 SWAP1 PUSH2 0x669 JUMP JUMPDEST PUSH1 0x40 MLOAD DUP1 SWAP2 SUB SWAP1 REVERT JUMPDEST PUSH0 DUP4 GT PUSH2 0x192 JUMPI PUSH1 0x40 MLOAD PUSH32 0x8C379A000000000000000000000000000000000000000000000000000000000 DUP2 MSTORE PUSH1 0x4 ADD PUSH2 0x189 SWAP1 PUSH2 0x6D1 JUMP JUMPDEST PUSH1 0x40 MLOAD DUP1 SWAP2 SUB SWAP1 REVERT JUMPDEST DUP5 DUP5 PUSH1 0x40 MLOAD PUSH2 0x1A2 SWAP3 SWAP2 SWAP1 PUSH2 0x72B JUMP JUMPDEST PUSH1 0x40 MLOAD DUP1 SWAP2 SUB SWAP1 KECCAK256 DUP7 PUSH31 0x9F9B560FAB0367387BBFC1A9DB1C74B3EB0063A0045D64CA81C232D24DCDF6 DUP6 TIMESTAMP DUP7 DUP7 PUSH1 0x40 MLOAD PUSH2 0x1DD SWAP3 SWAP2 SWAP1 PUSH2 0x771 JUMP JUMPDEST PUSH1 0x40 MLOAD DUP1 SWAP2 SUB SWAP1 KECCAK256 PUSH1 0x40 MLOAD PUSH2 0x1F4 SWAP4 SWAP3 SWAP2 SWAP1 PUSH2 0x7B0 JUMP JUMPDEST PUSH1 0x40 MLOAD DUP1 SWAP2 SUB SWAP1 LOG3 POP POP POP POP POP POP JUMP JUMPDEST PUSH0 PUSH0 SWAP1 SLOAD SWAP1 PUSH2 0x100 EXP SWAP1 DIV PUSH20 0xFFFFFFFFFFFFFFFFFFFFFFFFFFFFFFFFFFFFFFFF AND PUSH20 0xFFFFFFFFFFFFFFFFFFFFFFFFFFFFFFFFFFFFFFFF AND CALLER PUSH20 0xFFFFFFFFFFFFFFFFFFFFFFFFFFFFFFFFFFFFFFFF AND EQ PUSH2 0x292 JUMPI PUSH1 0x40 MLOAD PUSH32 0x8C379A000000000000000000000000000000000000000000000000000000000 DUP2 MSTORE PUSH1 0x4 ADD PUSH2 0x289 SWAP1 PUSH2 0x669 JUMP JUMPDEST PUSH1 0x40 MLOAD DUP1 SWAP2 SUB SWAP1 REVERT JUMPDEST PUSH0 PUSH20 0xFFFFFFFFFFFFFFFFFFFFFFFFFFFFFFFFFFFFFFFF AND DUP2 PUSH20 0xFFFFFFFFFFFFFFFFFFFFFFFFFFFFFFFFFFFFFFFF AND SUB PUSH2 0x300 JUMPI PUSH1 0x40 MLOAD PUSH32 0x8C379A000000000000000000000000000000000000000000000000000000000 DUP2 MSTORE PUSH1 0x4 ADD PUSH2 0x2F7 SWAP1 PUSH2 0x82F JUMP JUMPDEST PUSH1 0x40 MLOAD DUP1 SWAP2 SUB SWAP1 REVERT JUMPDEST DUP1 PUSH0 PUSH0 PUSH2 0x100 EXP DUP2 SLOAD DUP2 PUSH20 0xFFFFFFFFFFFFFFFFFFFFFFFFFFFFFFFFFFFFFFFF MUL NOT AND SWAP1 DUP4 PUSH20 0xFFFFFFFFFFFFFFFFFFFFFFFFFFFFFFFFFFFFFFFF AND MUL OR SWAP1 SSTORE POP POP JUMP JUMPDEST PUSH1 0x60 PUSH1 0x40 MLOAD DUP1 PUSH1 0x40 ADD PUSH1 0x40 MSTORE DUP1 PUSH1 0x1F DUP2 MSTORE PUSH1 0x20 ADD PUSH32 0x536D617274204D6573732053797374656D20466565204C656467657220763100 DUP2 MSTORE POP SWAP1 POP SWAP1 JUMP JUMPDEST PUSH0 PUSH0 SWAP1 SLOAD SWAP1 PUSH2 0x100 EXP SWAP1 DIV PUSH20 0xFFFFFFFFFFFFFFFFFFFFFFFFFFFFFFFFFFFFFFFF AND DUP2 JUMP JUMPDEST PUSH0 PUSH0 REVERT JUMPDEST PUSH0 PUSH0 REVERT JUMPDEST PUSH0 DUP2 SWAP1 POP SWAP2 SWAP1 POP JUMP JUMPDEST PUSH2 0x3BD DUP2 PUSH2 0x3AB JUMP JUMPDEST DUP2 EQ PUSH2 0x3C7 JUMPI PUSH0 PUSH0 REVERT JUMPDEST POP JUMP JUMPDEST PUSH0 DUP2 CALLDATALOAD SWAP1 POP PUSH2 0x3D8 DUP2 PUSH2 0x3B4 JUMP JUMPDEST SWAP3 SWAP2 POP POP JUMP JUMPDEST PUSH0 PUSH0 REVERT JUMPDEST PUSH0 PUSH0 REVERT JUMPDEST PUSH0 PUSH0 REVERT JUMPDEST PUSH0 PUSH0 DUP4 PUSH1 0x1F DUP5 ADD SLT PUSH2 0x3FF JUMPI PUSH2 0x3FE PUSH2 0x3DE JUMP JUMPDEST JUMPDEST DUP3 CALLDATALOAD SWAP1 POP PUSH8 0xFFFFFFFFFFFFFFFF DUP2 GT ISZERO PUSH2 0x41C JUMPI PUSH2 0x41B PUSH2 0x3E2 JUMP JUMPDEST JUMPDEST PUSH1 0x20 DUP4 ADD SWAP2 POP DUP4 PUSH1 0x1 DUP3 MUL DUP4 ADD GT ISZERO PUSH2 0x438 JUMPI PUSH2 0x437 PUSH2 0x3E6 JUMP JUMPDEST JUMPDEST SWAP3 POP SWAP3 SWAP1 POP JUMP JUMPDEST PUSH0 PUSH0 PUSH0 PUSH0 PUSH0 PUSH0 PUSH1 0x80 DUP8 DUP10 SUB SLT ISZERO PUSH2 0x459 JUMPI PUSH2 0x458 PUSH2 0x3A3 JUMP JUMPDEST JUMPDEST PUSH0 PUSH2 0x466 DUP10 DUP3 DUP11 ADD PUSH2 0x3CA JUMP JUMPDEST SWAP7 POP POP PUSH1 0x20 DUP8 ADD CALLDATALOAD PUSH8 0xFFFFFFFFFFFFFFFF DUP2 GT ISZERO PUSH2 0x487 JUMPI PUSH2 0x486 PUSH2 0x3A7 JUMP JUMPDEST JUMPDEST PUSH2 0x493 DUP10 DUP3 DUP11 ADD PUSH2 0x3EA JUMP JUMPDEST SWAP6 POP SWAP6 POP POP PUSH1 0x40 PUSH2 0x4A6 DUP10 DUP3 DUP11 ADD PUSH2 0x3CA JUMP JUMPDEST SWAP4 POP POP PUSH1 0x60 DUP8 ADD CALLDATALOAD PUSH8 0xFFFFFFFFFFFFFFFF DUP2 GT ISZERO PUSH2 0x4C7 JUMPI PUSH2 0x4C6 PUSH2 0x3A7 JUMP JUMPDEST JUMPDEST PUSH2 0x4D3 DUP10 DUP3 DUP11 ADD PUSH2 0x3EA JUMP JUMPDEST SWAP3 POP SWAP3 POP POP SWAP3 SWAP6 POP SWAP3 SWAP6 POP SWAP3 SWAP6 JUMP JUMPDEST PUSH0 PUSH20 0xFFFFFFFFFFFFFFFFFFFFFFFFFFFFFFFFFFFFFFFF DUP3 AND SWAP1 POP SWAP2 SWAP1 POP JUMP JUMPDEST PUSH0 PUSH2 0x50B DUP3 PUSH2 0x4E2 JUMP JUMPDEST SWAP1 POP SWAP2 SWAP1 POP JUMP JUMPDEST PUSH2 0x51B DUP2 PUSH2 0x501 JUMP JUMPDEST DUP2 EQ PUSH2 0x525 JUMPI PUSH0 PUSH0 REVERT JUMPDEST POP JUMP JUMPDEST PUSH0 DUP2 CALLDATALOAD SWAP1 POP PUSH2 0x536 DUP2 PUSH2 0x512 JUMP JUMPDEST SWAP3 SWAP2 POP POP JUMP JUMPDEST PUSH0 PUSH1 0x20 DUP3 DUP5 SUB SLT ISZERO PUSH2 0x551 JUMPI PUSH2 0x550 PUSH2 0x3A3 JUMP JUMPDEST JUMPDEST PUSH0 PUSH2 0x55E DUP5 DUP3 DUP6 ADD PUSH2 0x528 JUMP JUMPDEST SWAP2 POP POP SWAP3 SWAP2 POP POP JUMP JUMPDEST PUSH0 DUP2 MLOAD SWAP1 POP SWAP2 SWAP1 POP JUMP JUMPDEST PUSH0 DUP3 DUP3 MSTORE PUSH1 0x20 DUP3 ADD SWAP1 POP SWAP3 SWAP2 POP POP JUMP JUMPDEST DUP3 DUP2 DUP4 MCOPY PUSH0 DUP4 DUP4 ADD MSTORE POP POP POP JUMP JUMPDEST PUSH0 PUSH1 0x1F NOT PUSH1 0x1F DUP4 ADD AND SWAP1 POP SWAP2 SWAP1 POP JUMP JUMPDEST PUSH0 PUSH2 0x5A9 DUP3 PUSH2 0x567 JUMP JUMPDEST PUSH2 0x5B3 DUP2 DUP6 PUSH2 0x571 JUMP JUMPDEST SWAP4 POP PUSH2 0x5C3 DUP2 DUP6 PUSH1 0x20 DUP7 ADD PUSH2 0x581 JUMP JUMPDEST PUSH2 0x5CC DUP2 PUSH2 0x58F JUMP JUMPDEST DUP5 ADD SWAP2 POP POP SWAP3 SWAP2 POP POP JUMP JUMPDEST PUSH0 PUSH1 0x20 DUP3 ADD SWAP1 POP DUP2 DUP2 SUB PUSH0 DUP4 ADD MSTORE PUSH2 0x5EF DUP2 DUP5 PUSH2 0x59F JUMP JUMPDEST SWAP1 POP SWAP3 SWAP2 POP POP JUMP JUMPDEST PUSH2 0x600 DUP2 PUSH2 0x501 JUMP JUMPDEST DUP3 MSTORE POP POP JUMP JUMPDEST PUSH0 PUSH1 0x20 DUP3 ADD SWAP1 POP PUSH2 0x619 PUSH0 DUP4 ADD DUP5 PUSH2 0x5F7 JUMP JUMPDEST SWAP3 SWAP2 POP POP JUMP JUMPDEST PUSH32 0x4E6F7420617574686F72697A6564000000000000000000000000000000000000 PUSH0 DUP3 ADD MSTORE POP JUMP JUMPDEST PUSH0 PUSH2 0x653 PUSH1 0xE DUP4 PUSH2 0x571 JUMP JUMPDEST SWAP2 POP PUSH2 0x65E DUP3 PUSH2 0x61F JUMP JUMPDEST PUSH1 0x20 DUP3 ADD SWAP1 POP SWAP2 SWAP1 POP JUMP JUMPDEST PUSH0 PUSH1 0x20 DUP3 ADD SWAP1 POP DUP2 DUP2 SUB PUSH0 DUP4 ADD MSTORE PUSH2 0x680 DUP2 PUSH2 0x647 JUMP JUMPDEST SWAP1 POP SWAP2 SWAP1 POP JUMP JUMPDEST PUSH32 0x496E76616C696420616D6F756E74000000000000000000000000000000000000 PUSH0 DUP3 ADD MSTORE POP JUMP JUMPDEST PUSH0 PUSH2 0x6BB PUSH1 0xE DUP4 PUSH2 0x571 JUMP JUMPDEST SWAP2 POP PUSH2 0x6C6 DUP3 PUSH2 0x687 JUMP JUMPDEST PUSH1 0x20 DUP3 ADD SWAP1 POP SWAP2 SWAP1 POP JUMP JUMPDEST PUSH0 PUSH1 0x20 DUP3 ADD SWAP1 POP DUP2 DUP2 SUB PUSH0 DUP4 ADD MSTORE PUSH2 0x6E8 DUP2 PUSH2 0x6AF JUMP JUMPDEST SWAP1 POP SWAP2 SWAP1 POP JUMP JUMPDEST PUSH0 DUP2 SWAP1 POP SWAP3 SWAP2 POP POP JUMP JUMPDEST DUP3 DUP2 DUP4 CALLDATACOPY PUSH0 DUP4 DUP4 ADD MSTORE POP POP POP JUMP JUMPDEST PUSH0 PUSH2 0x712 DUP4 DUP6 PUSH2 0x6EF JUMP JUMPDEST SWAP4 POP PUSH2 0x71F DUP4 DUP6 DUP5 PUSH2 0x6F9 JUMP JUMPDEST DUP3 DUP5 ADD SWAP1 POP SWAP4 SWAP3 POP POP POP JUMP JUMPDEST PUSH0 PUSH2 0x737 DUP3 DUP5 DUP7 PUSH2 0x707 JUMP JUMPDEST SWAP2 POP DUP2 SWAP1 POP SWAP4 SWAP3 POP POP POP JUMP JUMPDEST PUSH0 DUP2 SWAP1 POP SWAP3 SWAP2 POP POP JUMP JUMPDEST PUSH0 PUSH2 0x758 DUP4 DUP6 PUSH2 0x743 JUMP JUMPDEST SWAP4 POP PUSH2 0x765 DUP4 DUP6 DUP5 PUSH2 0x6F9 JUMP JUMPDEST DUP3 DUP5 ADD SWAP1 POP SWAP4 SWAP3 POP POP POP JUMP JUMPDEST PUSH0 PUSH2 0x77D DUP3 DUP5 DUP7 PUSH2 0x74D JUMP JUMPDEST SWAP2 POP DUP2 SWAP1 POP SWAP4 SWAP3 POP POP POP JUMP JUMPDEST PUSH2 0x792 DUP2 PUSH2 0x3AB JUMP JUMPDEST DUP3 MSTORE POP POP JUMP JUMPDEST PUSH0 DUP2 SWAP1 POP SWAP2 SWAP1 POP JUMP JUMPDEST PUSH2 0x7AA DUP2 PUSH2 0x798 JUMP JUMPDEST DUP3 MSTORE POP POP JUMP JUMPDEST PUSH0 PUSH1 0x60 DUP3 ADD SWAP1 POP PUSH2 0x7C3 PUSH0 DUP4 ADD DUP7 PUSH2 0x789 JUMP JUMPDEST PUSH2 0x7D0 PUSH1 0x20 DUP4 ADD DUP6 PUSH2 0x789 JUMP JUMPDEST PUSH2 0x7DD PUSH1 0x40 DUP4 ADD DUP5 PUSH2 0x7A1 JUMP JUMPDEST SWAP5 SWAP4 POP POP POP POP JUMP JUMPDEST PUSH32 0x496E76616C696420616464726573730000000000000000000000000000000000 PUSH0 DUP3 ADD MSTORE POP JUMP JUMPDEST PUSH0 PUSH2 0x819 PUSH1 0xF DUP4 PUSH2 0x571 JUMP JUMPDEST SWAP2 POP PUSH2 0x824 DUP3 PUSH2 0x7E5 JUMP JUMPDEST PUSH1 0x20 DUP3 ADD SWAP1 POP SWAP2 SWAP1 POP JUMP JUMPDEST PUSH0 PUSH1 0x20 DUP3 ADD SWAP1 POP DUP2 DUP2 SUB PUSH0 DUP4 ADD MSTORE PUSH2 0x846 DUP2 PUSH2 0x80D JUMP JUMPDEST SWAP1 POP SWAP2 SWAP1 POP JUMP INVALID LOG2 PUSH5 0x6970667358 0x22 SLT KECCAK256 DUP16 PUSH13 0x542DDDE43207CB99C5FDB38553 CODECOPY CODECOPY 0xE 0xB4 0xDC PUSH10 0x9EC7ECC26D46265C06DC SWAP13 PUSH5 0x736F6C6343 STOP ADDMOD 0x1F STOP CALLER "
		},
		"gasEstimates": {
			"creation": {
				"codeDepositCost": "435800",
				"executionCost": "24736",
				"totalCost": "460536"
			},
			"external": {
				"admin()": "2551",
				"getContractInfo()": "infinite",
				"recordFee(uint256,string,uint256,string)": "infinite",
				"transferAdmin(address)": "26916"
			}
		},
		"methodIdentifiers": {
			"admin()": "f851a440",
			"getContractInfo()": "7cc1f867",
			"recordFee(uint256,string,uint256,string)": "0cb139e2",
			"transferAdmin(address)": "75829def"
		}
	},
	"abi": [
		{
			"inputs": [],
			"stateMutability": "nonpayable",
			"type": "constructor"
		},
		{
			"anonymous": false,
			"inputs": [
				{
					"indexed": true,
					"internalType": "uint256",
					"name": "studentId",
					"type": "uint256"
				},
				{
					"indexed": true,
					"internalType": "string",
					"name": "receiptId",
					"type": "string"
				},
				{
					"indexed": false,
					"internalType": "uint256",
					"name": "amount",
					"type": "uint256"
				},
				{
					"indexed": false,
					"internalType": "uint256",
					"name": "timestamp",
					"type": "uint256"
				},
				{
					"indexed": false,
					"internalType": "bytes32",
					"name": "methodHash",
					"type": "bytes32"
				}
			],
			"name": "FeeRecorded",
			"type": "event"
		},
		{
			"inputs": [],
			"name": "admin",
			"outputs": [
				{
					"internalType": "address",
					"name": "",
					"type": "address"
				}
			],
			"stateMutability": "view",
			"type": "function"
		},
		{
			"inputs": [],
			"name": "getContractInfo",
			"outputs": [
				{
					"internalType": "string",
					"name": "",
					"type": "string"
				}
			],
			"stateMutability": "pure",
			"type": "function"
		},
		{
			"inputs": [
				{
					"internalType": "uint256",
					"name": "studentId",
					"type": "uint256"
				},
				{
					"internalType": "string",
					"name": "receiptId",
					"type": "string"
				},
				{
					"internalType": "uint256",
					"name": "amount",
					"type": "uint256"
				},
				{
					"internalType": "string",
					"name": "method",
					"type": "string"
				}
			],
			"name": "recordFee",
			"outputs": [],
			"stateMutability": "nonpayable",
			"type": "function"
		},
		{
			"inputs": [
				{
					"internalType": "address",
					"name": "newAdmin",
					"type": "address"
				}
			],
			"name": "transferAdmin",
			"outputs": [],
			"stateMutability": "nonpayable",
			"type": "function"
		}
	]
}