{
	"data": {
		"bytecode": {
			"linkReferences": {},
			"object": "6080604052348015600e575f5ffd5b50609280601a5f395ff3fe6080604052348015600e575f5ffd5b5060043610603a575f3560e01c80635e88bc1414603e578063c3cafc6f146046578063e488181314604e575b5f5ffd5b60446056565b005b604c6058565b005b6054605a565b005b565b565b56fea26469706673582212204bcc8277e7e0db19669f4fcf4f652b7e8b8d5db7cd47b929a7e06dab1daffc9464736f6c634300081f0033",
			"opcodes": "PUSH1 0x80 PUSH1 0x40 MSTORE CALLVALUE DUP1 ISZERO PUSH1 0xE JUMPI PUSH0 PUSH0 REVERT JUMPDEST POP PUSH1 0x92 DUP1 PUSH1 0x1A PUSH0 CODECOPY PUSH0 RETURN INVALID PUSH1 0x80 PUSH1 0x40 MSTORE CALLVALUE DUP1 ISZERO PUSH1 0xE JUMPI PUSH0 PUSH0 REVERT JUMPDEST POP PUSH1 0x4 CALLDATASIZE LT PUSH1 0x3A JUMPI PUSH0 CALLDATALOAD PUSH1 0xE0 SHR DUP1 PUSH4 0x5E88BC14 EQ PUSH1 0x3E JUMPI DUP1 PUSH4 0xC3CAFC6F EQ PUSH1 0x46 JUMPI DUP1 PUSH4 0xE4881813 EQ PUSH1 0x4E JUMPI JUMPDEST PUSH0 PUSH0 REVERT JUMPDEST PUSH1 0x44 PUSH1 0x56 JUMP JUMPDEST STOP JUMPDEST PUSH1 0x4C PUSH1 0x58 JUMP JUMPDEST STOP JUMPDEST PUSH1 0x54 PUSH1 0x5A JUMP JUMPDEST STOP JUMPDEST JUMP JUMPDEST JUMP JUMPDEST JUMP INVALID LOG2 PUSH5 0x6970667358 0x22 SLT KECCAK256 0x4B 0xCC DUP3 PUSH24 0xE7E0DB19669F4FCF4F652B7E8B8D5DB7CD47B929A7E06DAB SAR 0xAF 0xFC SWAP5 PUSH5 0x736F6C6343 STOP ADDMOD 0x1F STOP CALLER "
		},
		"gasEstimates": {
			"creation": {
				"codeDepositCost": "29200",
				"executionCost": "79",
				"totalCost": "29279"
			},
			"external": {
				"apple()": "121",
				"banana()": "143",
				"cat()": "165"
			}
		},
		"methodIdentifiers": {
			"apple()": "5e88bc14",
			"banana()": "c3cafc6f",
			"cat()": "e4881813"
		}
	},
	"abi": [
		{
			"inputs": [],
			"name": "apple",
			"outputs": [],
			"stateMutability": "pure",
			"type": "function"
		},
		{
			"inputs": [],
			"name": "banana",
			"outputs": [],
			"stateMutability": "pure",
			"type": "function"
		},
		{
			"inputs": [],
			"name": "cat",
			"outputs": [],
			"stateMutability": "pure",
			"type": "function"
		}
	]
}