{
	"data": {
		"bytecode": {
			"linkReferences": {},
			"object": "6080604052348015600e575f5ffd5b50605f80601a5f395ff3fe608060405260043610601b575f3560e01c8063b46300ec14601f575b5f5ffd5b60256027565b005b56fea26469706673582212204b3d31d04690da8e3168a65da8bfbdb1f406f5583f5e1f6bd038aaa22394552c64736f6c634300081f0033",
			"opcodes": "PUSH1 0x80 PUSH1 0x40 MSTORE CALLVALUE DUP1 ISZERO PUSH1 0xE JUMPI PUSH0 PUSH0 REVERT JUMPDEST POP PUSH1 0x5F DUP1 PUSH1 0x1A PUSH0 CODECOPY PUSH0 RETURN INVALID PUSH1 0x80 PUSH1 0x40 MSTORE PUSH1 0x4 CALLDATASIZE LT PUSH1 0x1B JUMPI PUSH0 CALLDATALOAD PUSH1 0xE0 SHR DUP1 PUSH4 0xB46300EC EQ PUSH1 0x1F JUMPI JUMPDEST PUSH0 PUSH0 REVERT JUMPDEST PUSH1 0x25 PUSH1 0x27 JUMP JUMPDEST STOP JUMPDEST JUMP INVALID LOG2 PUSH5 0x6970667358 0x22 SLT KECCAK256 0x4B RETURNDATASIZE BALANCE 0xD0 CHAINID SWAP1 0xDA DUP15 BALANCE PUSH9 0xA65DA8BFBDB1F406F5 PC EXTCODEHASH MCOPY 0x1F PUSH12 0xD038AAA22394552C64736F6C PUSH4 0x4300081F STOP CALLER "
		},
		"deployedBytecode": {
			"immutableReferences": {},
			"linkReferences": {},
			"object": "608060405260043610601b575f3560e01c8063b46300ec14601f575b5f5ffd5b60256027565b005b56fea26469706673582212204b3d31d04690da8e3168a65da8bfbdb1f406f5583f5e1f6bd038aaa22394552c64736f6c634300081f0033",
			"opcodes": "PUSH1 0x80 PUSH1 0x40 MSTORE PUSH1 0x4 CALLDATASIZE LT PUSH1 0x1B JUMPI PUSH0 CALLDATALOAD PUSH1 0xE0 SHR DUP1 PUSH4 0xB46300EC EQ PUSH1 0x1F JUMPI JUMPDEST PUSH0 PUSH0 REVERT JUMPDEST PUSH1 0x25 PUSH1 0x27 JUMP JUMPDEST STOP JUMPDEST JUMP INVALID LOG2 PUSH5 0x6970667358 0x22 SLT KECCAK256 0x4B RETURNDATASIZE BALANCE 0xD0 CHAINID SWAP1 0xDA DUP15 BALANCE PUSH9 0xA65DA8BFBDB1F406F5 PC EXTCODEHASH MCOPY 0x1F PUSH12 0xD038AAA22394552C64736F6C PUSH4 0x4300081F STOP CALLER "
		},
		"gasEstimates": {
			"creation": {
				"codeDepositCost": "19000",
				"executionCost": "67",
				"totalCost": "19067"
			},
			"external": {
				"send()": "97"
			}
		},
		"methodIdentifiers": {
			"send()": "b46300ec"
		}
	},
	"abi": [
		{
			"inputs": [],
			"name": "send",
			"outputs": [],
			"stateMutability": "payable",
			"type": "function"
		}
	]
}