{
	"data": {
		"bytecode": {
			"linkReferences": {},
			"object": "6080604052348015600e575f5ffd5b506101ae8061001c5f395ff3fe608060405234801561000f575f5ffd5b5060043610610034575f3560e01c80633fb5c1cb146100385780634e70b1dc14610054575b5f5ffd5b610052600480360381019061004d91906100c5565b610072565b005b61005c610088565b60405161006991906100ff565b60405180910390f35b600a8161007f9190610145565b60018190555050565b60015481565b5f5ffd5b5f819050919050565b6100a481610092565b81146100ae575f5ffd5b50565b5f813590506100bf8161009b565b92915050565b5f602082840312156100da576100d961008e565b5b5f6100e7848285016100b1565b91505092915050565b6100f981610092565b82525050565b5f6020820190506101125f8301846100f0565b92915050565b7f4e487b71000000000000000000000000000000000000000000000000000000005f52601160045260245ffd5b5f61014f82610092565b915061015a83610092565b925082820190508082111561017257610171610118565b5b9291505056fea2646970667358221220bb8d0f31fd04611aee0a9daf38396abffbd6183e8d96da916e0aae2726cec4f164736f6c634300081f0033",
			"opcodes": "PUSH1 0x80 PUSH1 0x40 MSTORE CALLVALUE DUP1 ISZERO PUSH1 0xE JUMPI PUSH0 PUSH0 REVERT JUMPDEST POP PUSH2 0x1AE DUP1 PUSH2 0x1C PUSH0 CODECOPY PUSH0 RETURN INVALID PUSH1 0x80 PUSH1 0x40 MSTORE CALLVALUE DUP1 ISZERO PUSH2 0xF JUMPI PUSH0 PUSH0 REVERT JUMPDEST POP PUSH1 0x4 CALLDATASIZE LT PUSH2 0x34 JUMPI PUSH0 CALLDATALOAD PUSH1 0xE0 SHR DUP1 PUSH4 0x3FB5C1CB EQ PUSH2 0x38 JUMPI DUP1 PUSH4 0x4E70B1DC EQ PUSH2 0x54 JUMPI JUMPDEST PUSH0 PUSH0 REVERT JUMPDEST PUSH2 0x52 PUSH1 0x4 DUP1 CALLDATASIZE SUB DUP2 ADD SWAP1 PUSH2 0x4D SWAP2 SWAP1 PUSH2 0xC5 JUMP JUMPDEST PUSH2 0x72 JUMP JUMPDEST STOP JUMPDEST PUSH2 0x5C PUSH2 0x88 JUMP JUMPDEST PUSH1 0x40 MLOAD PUSH2 0x69 SWAP2 SWAP1 PUSH2 0xFF JUMP JUMPDEST PUSH1 0x40 MLOAD DUP1 SWAP2 SUB SWAP1 RETURN JUMPDEST PUSH1 0xA DUP2 PUSH2 0x7F SWAP2 SWAP1 PUSH2 0x145 JUMP JUMPDEST PUSH1 0x1 DUP2 SWAP1 SSTORE POP POP JUMP JUMPDEST PUSH1 0x1 SLOAD DUP2 JUMP JUMPDEST PUSH0 PUSH0 REVERT JUMPDEST PUSH0 DUP2 SWAP1 POP SWAP2 SWAP1 POP JUMP JUMPDEST PUSH2 0xA4 DUP2 PUSH2 0x92 JUMP JUMPDEST DUP2 EQ PUSH2 0xAE JUMPI PUSH0 PUSH0 REVERT JUMPDEST POP JUMP JUMPDEST PUSH0 DUP2 CALLDATALOAD SWAP1 POP PUSH2 0xBF DUP2 PUSH2 0x9B JUMP JUMPDEST SWAP3 SWAP2 POP POP JUMP JUMPDEST PUSH0 PUSH1 0x20 DUP3 DUP5 SUB SLT ISZERO PUSH2 0xDA JUMPI PUSH2 0xD9 PUSH2 0x8E JUMP JUMPDEST JUMPDEST PUSH0 PUSH2 0xE7 DUP5 DUP3 DUP6 ADD PUSH2 0xB1 JUMP JUMPDEST SWAP2 POP POP SWAP3 SWAP2 POP POP JUMP JUMPDEST PUSH2 0xF9 DUP2 PUSH2 0x92 JUMP JUMPDEST DUP3 MSTORE POP POP JUMP JUMPDEST PUSH0 PUSH1 0x20 DUP3 ADD SWAP1 POP PUSH2 0x112 PUSH0 DUP4 ADD DUP5 PUSH2 0xF0 JUMP JUMPDEST SWAP3 SWAP2 POP POP JUMP JUMPDEST PUSH32 0x4E487B7100000000000000000000000000000000000000000000000000000000 PUSH0 MSTORE PUSH1 0x11 PUSH1 0x4 MSTORE PUSH1 0x24 PUSH0 REVERT JUMPDEST PUSH0 PUSH2 0x14F DUP3 PUSH2 0x92 JUMP JUMPDEST SWAP2 POP PUSH2 0x15A DUP4 PUSH2 0x92 JUMP JUMPDEST SWAP3 POP DUP3 DUP3 ADD SWAP1 POP DUP1 DUP3 GT ISZERO PUSH2 0x172 JUMPI PUSH2 0x171 PUSH2 0x118 JUMP JUMPDEST JUMPDEST SWAP3 SWAP2 POP POP JUMP INVALID LOG2 PUSH5 0x6970667358 0x22 SLT KECCAK256 0xBB DUP14 0xF BALANCE REVERT DIV PUSH2 0x1AEE EXP SWAP14 0xAF CODESIZE CODECOPY PUSH11 0xBFFBD6183E8D96DA916E0A 0xAE 0x27 0x26 0xCE 0xC4 CALL PUSH5 0x736F6C6343 STOP ADDMOD 0x1F STOP CALLER "
		},
		"gasEstimates": {
			"creation": {
				"codeDepositCost": "86000",
				"executionCost": "133",
				"totalCost": "86133"
			},
			"external": {
				"num()": "2425",
				"setNumber(uint256)": "infinite"
			}
		},
		"methodIdentifiers": {
			"num()": "4e70b1dc",
			"setNumber(uint256)": "3fb5c1cb"
		}
	},
	"abi": [
		{
			"inputs": [],
			"name": "num",
			"outputs": [
				{
					"internalType": "uint256",
					"name": "",
					"type": "uint256"
				}
			],
			"stateMutability": "view",
			"type": "function"
		},
		{
			"inputs": [
				{
					"internalType": "uint256",
					"name": "val",
					"type": "uint256"
				}
			],
			"name": "setNumber",
			"outputs": [],
			"stateMutability": "nonpayable",
			"type": "function"
		}
	]
}