{
	"data": {
		"bytecode": {
			"linkReferences": {},
			"object": "6080604052348015600e575f5ffd5b506103138061001c5f395ff3fe608060405234801561000f575f5ffd5b506004361061003f575f3560e01c80632ddbd13a146100435780638b10c73914610061578063f3fe6afc1461007d575b5f5ffd5b61004b6100ad565b604051610058919061017b565b60405180910390f35b61007b600480360381019061007691906101c2565b6100b2565b005b610097600480360381019061009291906101c2565b6100cc565b6040516100a4919061025d565b60405180910390f35b5f5481565b805f5f8282546100c291906102aa565b9250508190555050565b6060816040516024016100df919061017b565b6040516020818303038152906040527f8b10c739000000000000000000000000000000000000000000000000000000007bffffffffffffffffffffffffffffffffffffffffffffffffffffffff19166020820180517bffffffffffffffffffffffffffffffffffffffffffffffffffffffff83818316178352505050509050919050565b5f819050919050565b61017581610163565b82525050565b5f60208201905061018e5f83018461016c565b92915050565b5f5ffd5b6101a181610163565b81146101ab575f5ffd5b50565b5f813590506101bc81610198565b92915050565b5f602082840312156101d7576101d6610194565b5b5f6101e4848285016101ae565b91505092915050565b5f81519050919050565b5f82825260208201905092915050565b8281835e5f83830152505050565b5f601f19601f8301169050919050565b5f61022f826101ed565b61023981856101f7565b9350610249818560208601610207565b61025281610215565b840191505092915050565b5f6020820190508181035f8301526102758184610225565b905092915050565b7f4e487b71000000000000000000000000000000000000000000000000000000005f52601160045260245ffd5b5f6102b482610163565b91506102bf83610163565b92508282039050818111156102d7576102d661027d565b5b9291505056fea2646970667358221220a07bd619b46e62c0843965f6c470889d3f6da3d7e9674bbfb7653564bb3f917a64736f6c634300081f0033",
			"opcodes": "PUSH1 0x80 PUSH1 0x40 MSTORE CALLVALUE DUP1 ISZERO PUSH1 0xE JUMPI PUSH0 PUSH0 REVERT JUMPDEST POP PUSH2 0x313 DUP1 PUSH2 0x1C PUSH0 CODECOPY PUSH0 RETURN INVALID PUSH1 0x80 PUSH1 0x40 MSTORE CALLVALUE DUP1 ISZERO PUSH2 0xF JUMPI PUSH0 PUSH0 REVERT JUMPDEST POP PUSH1 0x4 CALLDATASIZE LT PUSH2 0x3F JUMPI PUSH0 CALLDATALOAD PUSH1 0xE0 SHR DUP1 PUSH4 0x2DDBD13A EQ PUSH2 0x43 JUMPI DUP1 PUSH4 0x8B10C739 EQ PUSH2 0x61 JUMPI DUP1 PUSH4 0xF3FE6AFC EQ PUSH2 0x7D JUMPI JUMPDEST PUSH0 PUSH0 REVERT JUMPDEST PUSH2 0x4B PUSH2 0xAD JUMP JUMPDEST PUSH1 0x40 MLOAD PUSH2 0x58 SWAP2 SWAP1 PUSH2 0x17B JUMP JUMPDEST PUSH1 0x40 MLOAD DUP1 SWAP2 SUB SWAP1 RETURN JUMPDEST PUSH2 0x7B PUSH1 0x4 DUP1 CALLDATASIZE SUB DUP2 ADD SWAP1 PUSH2 0x76 SWAP2 SWAP1 PUSH2 0x1C2 JUMP JUMPDEST PUSH2 0xB2 JUMP JUMPDEST STOP JUMPDEST PUSH2 0x97 PUSH1 0x4 DUP1 CALLDATASIZE SUB DUP2 ADD SWAP1 PUSH2 0x92 SWAP2 SWAP1 PUSH2 0x1C2 JUMP JUMPDEST PUSH2 0xCC JUMP JUMPDEST PUSH1 0x40 MLOAD PUSH2 0xA4 SWAP2 SWAP1 PUSH2 0x25D JUMP JUMPDEST PUSH1 0x40 MLOAD DUP1 SWAP2 SUB SWAP1 RETURN JUMPDEST PUSH0 SLOAD DUP2 JUMP JUMPDEST DUP1 PUSH0 PUSH0 DUP3 DUP3 SLOAD PUSH2 0xC2 SWAP2 SWAP1 PUSH2 0x2AA JUMP JUMPDEST SWAP3 POP POP DUP2 SWAP1 SSTORE POP POP JUMP JUMPDEST PUSH1 0x60 DUP2 PUSH1 0x40 MLOAD PUSH1 0x24 ADD PUSH2 0xDF SWAP2 SWAP1 PUSH2 0x17B JUMP JUMPDEST PUSH1 0x40 MLOAD PUSH1 0x20 DUP2 DUP4 SUB SUB DUP2 MSTORE SWAP1 PUSH1 0x40 MSTORE PUSH32 0x8B10C73900000000000000000000000000000000000000000000000000000000 PUSH28 0xFFFFFFFFFFFFFFFFFFFFFFFFFFFFFFFFFFFFFFFFFFFFFFFFFFFFFFFF NOT AND PUSH1 0x20 DUP3 ADD DUP1 MLOAD PUSH28 0xFFFFFFFFFFFFFFFFFFFFFFFFFFFFFFFFFFFFFFFFFFFFFFFFFFFFFFFF DUP4 DUP2 DUP4 AND OR DUP4 MSTORE POP POP POP POP SWAP1 POP SWAP2 SWAP1 POP JUMP JUMPDEST PUSH0 DUP2 SWAP1 POP SWAP2 SWAP1 POP JUMP JUMPDEST PUSH2 0x175 DUP2 PUSH2 0x163 JUMP JUMPDEST DUP3 MSTORE POP POP JUMP JUMPDEST PUSH0 PUSH1 0x20 DUP3 ADD SWAP1 POP PUSH2 0x18E PUSH0 DUP4 ADD DUP5 PUSH2 0x16C JUMP JUMPDEST SWAP3 SWAP2 POP POP JUMP JUMPDEST PUSH0 PUSH0 REVERT JUMPDEST PUSH2 0x1A1 DUP2 PUSH2 0x163 JUMP JUMPDEST DUP2 EQ PUSH2 0x1AB JUMPI PUSH0 PUSH0 REVERT JUMPDEST POP JUMP JUMPDEST PUSH0 DUP2 CALLDATALOAD SWAP1 POP PUSH2 0x1BC DUP2 PUSH2 0x198 JUMP JUMPDEST SWAP3 SWAP2 POP POP JUMP JUMPDEST PUSH0 PUSH1 0x20 DUP3 DUP5 SUB SLT ISZERO PUSH2 0x1D7 JUMPI PUSH2 0x1D6 PUSH2 0x194 JUMP JUMPDEST JUMPDEST PUSH0 PUSH2 0x1E4 DUP5 DUP3 DUP6 ADD PUSH2 0x1AE JUMP JUMPDEST SWAP2 POP POP SWAP3 SWAP2 POP POP JUMP JUMPDEST PUSH0 DUP2 MLOAD SWAP1 POP SWAP2 SWAP1 POP JUMP JUMPDEST PUSH0 DUP3 DUP3 MSTORE PUSH1 0x20 DUP3 ADD SWAP1 POP SWAP3 SWAP2 POP POP JUMP JUMPDEST DUP3 DUP2 DUP4 MCOPY PUSH0 DUP4 DUP4 ADD MSTORE POP POP POP JUMP JUMPDEST PUSH0 PUSH1 0x1F NOT PUSH1 0x1F DUP4 ADD AND SWAP1 POP SWAP2 SWAP1 POP JUMP JUMPDEST PUSH0 PUSH2 0x22F DUP3 PUSH2 0x1ED JUMP JUMPDEST PUSH2 0x239 DUP2 DUP6 PUSH2 0x1F7 JUMP JUMPDEST SWAP4 POP PUSH2 0x249 DUP2 DUP6 PUSH1 0x20 DUP7 ADD PUSH2 0x207 JUMP JUMPDEST PUSH2 0x252 DUP2 PUSH2 0x215 JUMP JUMPDEST DUP5 ADD SWAP2 POP POP SWAP3 SWAP2 POP POP JUMP JUMPDEST PUSH0 PUSH1 0x20 DUP3 ADD SWAP1 POP DUP2 DUP2 SUB PUSH0 DUP4 ADD MSTORE PUSH2 0x275 DUP2 DUP5 PUSH2 0x225 JUMP JUMPDEST SWAP1 POP SWAP3 SWAP2 POP POP JUMP JUMPDEST PUSH32 0x4E487B7100000000000000000000000000000000000000000000000000000000 PUSH0 MSTORE PUSH1 0x11 PUSH1 0x4 MSTORE PUSH1 0x24 PUSH0 REVERT JUMPDEST PUSH0 PUSH2 0x2B4 DUP3 PUSH2 0x163 JUMP JUMPDEST SWAP2 POP PUSH2 0x2BF DUP4 PUSH2 0x163 JUMP JUMPDEST SWAP3 POP DUP3 DUP3 SUB SWAP1 POP DUP2 DUP2 GT ISZERO PUSH2 0x2D7 JUMPI PUSH2 0x2D6 PUSH2 0x27D JUMP JUMPDEST JUMPDEST SWAP3 SWAP2 POP POP JUMP INVALID LOG2 PUSH5 0x6970667358 0x22 SLT KECCAK256 LOG0 PUSH28 0xD619B46E62C0843965F6C470889D3F6DA3D7E9674BBFB7653564BB3F SWAP2 PUSH27 0x64736F6C634300081F003300000000000000000000000000000000 "
		},
		"gasEstimates": {
			"creation": {
				"codeDepositCost": "157400",
				"executionCost": "200",
				"totalCost": "157600"
			},
			"external": {
				"subNumber(uint256)": "infinite",
				"subfunctionByteCode(uint256)": "infinite",
				"total()": "2402"
			}
		},
		"methodIdentifiers": {
			"subNumber(uint256)": "8b10c739",
			"subfunctionByteCode(uint256)": "f3fe6afc",
			"total()": "2ddbd13a"
		}
	},
	"abi": [
		{
			"inputs": [
				{
					"internalType": "uint256",
					"name": "val",
					"type": "uint256"
				}
			],
			"name": "subNumber",
			"outputs": [],
			"stateMutability": "nonpayable",
			"type": "function"
		},
		{
			"inputs": [
				{
					"internalType": "uint256",
					"name": "val",
					"type": "uint256"
				}
			],
			"name": "subfunctionByteCode",
			"outputs": [
				{
					"internalType": "bytes",
					"name": "",
					"type": "bytes"
				}
			],
			"stateMutability": "pure",
			"type": "function"
		},
		{
			"inputs": [],
			"name": "total",
			"outputs": [
				{
					"internalType": "uint256",
					"name": "",
					"type": "uint256"
				}
			],
			"stateMutability": "view",
			"type": "function"
		}
	]
}