{
	"data": {
		"bytecode": {
			"linkReferences": {},
			"object": "608060405266470de4df82000060015560016002556001600355348015610024575f5ffd5b50604051611b69380380611b698339818101604052810190610046919061022c565b335f73ffffffffffffffffffffffffffffffffffffffff168173ffffffffffffffffffffffffffffffffffffffff16036100b7575f6040517f1e4fbdf70000000000000000000000000000000000000000000000000000000081526004016100ae9190610266565b60405180910390fd5b6100c68161010d60201b60201c565b508060055f6101000a81548173ffffffffffffffffffffffffffffffffffffffff021916908373ffffffffffffffffffffffffffffffffffffffff1602179055505061027f565b5f5f5f9054906101000a900473ffffffffffffffffffffffffffffffffffffffff169050815f5f6101000a81548173ffffffffffffffffffffffffffffffffffffffff021916908373ffffffffffffffffffffffffffffffffffffffff1602179055508173ffffffffffffffffffffffffffffffffffffffff168173ffffffffffffffffffffffffffffffffffffffff167f8be0079c531659141344cd1fd0a4f28419497f9722a3daafe3b4186f6b6457e060405160405180910390a35050565b5f5ffd5b5f73ffffffffffffffffffffffffffffffffffffffff82169050919050565b5f6101fb826101d2565b9050919050565b61020b816101f1565b8114610215575f5ffd5b50565b5f8151905061022681610202565b92915050565b5f60208284031215610241576102406101ce565b5b5f61024e84828501610218565b91505092915050565b610260816101f1565b82525050565b5f6020820190506102795f830184610257565b92915050565b6118dd8061028c5f395ff3fe6080604052600436106100dc575f3560e01c806359fa9b1f1161007e5780638da5cb5b116100585780638da5cb5b1461025a5780639939b8b2146102845780639e0cea05146102ae578063f2fde38b146102d8576100dc565b806359fa9b1f146101f0578063715018a61461021a5780637ff9b59614610230576100dc565b8063315a095d116100ba578063315a095d1461016e578063384afcdb146101965780633bed33ce146101ac5780635329fd24146101d4576100dc565b8063072de7f3146100e0578063214bcd181461011c5780633008934214610146575b5f5ffd5b3480156100eb575f5ffd5b5061010660048036038101906101019190611094565b610300565b60405161011391906110ce565b60405180910390f35b348015610127575f5ffd5b506101306103c5565b60405161013d91906110ce565b60405180910390f35b348015610151575f5ffd5b5061016c60048036038101906101679190611094565b6103cb565b005b348015610179575f5ffd5b50610194600480360381019061018f9190611094565b610615565b005b3480156101a1575f5ffd5b506101aa6107d7565b005b3480156101b7575f5ffd5b506101d260048036038101906101cd9190611094565b6108ac565b005b6101ee60048036038101906101e99190611094565b6109f1565b005b3480156101fb575f5ffd5b50610204610af6565b60405161021191906110ce565b60405180910390f35b348015610225575f5ffd5b5061022e610afc565b005b34801561023b575f5ffd5b50610244610b0f565b60405161025191906110ce565b60405180910390f35b348015610265575f5ffd5b5061026e610b15565b60405161027b9190611126565b60405180910390f35b34801561028f575f5ffd5b50610298610b3c565b6040516102a5919061119a565b60405180910390f35b3480156102b9575f5ffd5b506102c2610b61565b6040516102cf91906110ce565b60405180910390f35b3480156102e3575f5ffd5b506102fe60048036038101906102f991906111dd565b610b67565b005b5f5f8211610343576040517f08c379a000000000000000000000000000000000000000000000000000000000815260040161033a90611288565b60405180910390fd5b61034b6107d7565b5f61037b670de0b6b3a764000061036d60015486610beb90919063ffffffff16565b610c0090919063ffffffff16565b90506103bc6040518060400160405280600f81526020017f616d6f756e7420746f6b656e203a20000000000000000000000000000000000081525082610c15565b80915050919050565b60045481565b8060055f9054906101000a900473ffffffffffffffffffffffffffffffffffffffff1673ffffffffffffffffffffffffffffffffffffffff166370a08231336040518263ffffffff1660e01b81526004016104269190611126565b602060405180830381865afa158015610441573d5f5f3e3d5ffd5b505050506040513d601f19601f8201168201806040525081019061046591906112ba565b10156104a6576040517f08c379a000000000000000000000000000000000000000000000000000000000815260040161049d90611355565b60405180910390fd5b5f6104b082610300565b905061050033308460055f9054906101000a900473ffffffffffffffffffffffffffffffffffffffff1673ffffffffffffffffffffffffffffffffffffffff16610cb1909392919063ffffffff16565b505f3373ffffffffffffffffffffffffffffffffffffffff1682604051610526906113a0565b5f6040518083038185875af1925050503d805f8114610560576040519150601f19603f3d011682016040523d82523d5f602084013e610565565b606091505b50509050806105a9576040517f08c379a00000000000000000000000000000000000000000000000000000000081526004016105a0906113fe565b60405180910390fd5b60025f8154809291906105bb90611449565b91905055503373ffffffffffffffffffffffffffffffffffffffff167f35ea94addbc62df281ade49cc2ad9b3d9259166170cf702928b4ddc045f7256e8484604051610608929190611490565b60405180910390a2505050565b61061d610d38565b5f811161065f576040517f08c379a000000000000000000000000000000000000000000000000000000000815260040161065690611501565b60405180910390fd5b8060055f9054906101000a900473ffffffffffffffffffffffffffffffffffffffff1673ffffffffffffffffffffffffffffffffffffffff166370a08231306040518263ffffffff1660e01b81526004016106ba9190611126565b602060405180830381865afa1580156106d5573d5f5f3e3d5ffd5b505050506040513d601f19601f820116820180604052508101906106f991906112ba565b101561073a576040517f08c379a000000000000000000000000000000000000000000000000000000000815260040161073190611569565b60405180910390fd5b610786338260055f9054906101000a900473ffffffffffffffffffffffffffffffffffffffff1673ffffffffffffffffffffffffffffffffffffffff16610dbf9092919063ffffffff16565b3373ffffffffffffffffffffffffffffffffffffffff167f6352c5382c4a4578e712449ca65e83cdb392d045dfcf1cad9615189db2da244b826040516107cc91906110ce565b60405180910390a250565b5f6108096002546107fb670de0b6b3a7640000600354610beb90919063ffffffff16565b610c0090919063ffffffff16565b90505f670de0b6b3a764000090505f61083e60026108308486610e3e90919063ffffffff16565b610c0090919063ffffffff16565b905080600454146108a757806004819055505f610880670de0b6b3a764000061087284600154610beb90919063ffffffff16565b610c0090919063ffffffff16565b90505f66470de4df82000090508082101561089d57806001819055505b8160018190555050505b505050565b6108b4610d38565b804710156108f7576040517f08c379a00000000000000000000000000000000000000000000000000000000081526004016108ee906115d1565b60405180910390fd5b5f3373ffffffffffffffffffffffffffffffffffffffff168260405161091c906113a0565b5f6040518083038185875af1925050503d805f8114610956576040519150601f19603f3d011682016040523d82523d5f602084013e61095b565b606091505b505090508061099f576040517f08c379a000000000000000000000000000000000000000000000000000000000815260040161099690611639565b60405180910390fd5b3373ffffffffffffffffffffffffffffffffffffffff167f06097061aeda806b5e9cb4133d9899f332ff0913956567fc0f7ea15e3d19947c836040516109e591906110ce565b60405180910390a25050565b5f6109fb82610300565b9050348114610a3f576040517f08c379a0000000000000000000000000000000000000000000000000000000008152600401610a36906116a1565b60405180910390fd5b610a8b338360055f9054906101000a900473ffffffffffffffffffffffffffffffffffffffff1673ffffffffffffffffffffffffffffffffffffffff16610dbf9092919063ffffffff16565b60035f815480929190610a9d90611449565b91905055503373ffffffffffffffffffffffffffffffffffffffff167f28cab0d660ed8aedd61a8c9db00b97f6a2d67e07d87795994f440b18bc5f1aa38383604051610aea929190611490565b60405180910390a25050565b60025481565b610b04610d38565b610b0d5f610e53565b565b60015481565b5f5f5f9054906101000a900473ffffffffffffffffffffffffffffffffffffffff16905090565b60055f9054906101000a900473ffffffffffffffffffffffffffffffffffffffff1681565b60035481565b610b6f610d38565b5f73ffffffffffffffffffffffffffffffffffffffff168173ffffffffffffffffffffffffffffffffffffffff1603610bdf575f6040517f1e4fbdf7000000000000000000000000000000000000000000000000000000008152600401610bd69190611126565b60405180910390fd5b610be881610e53565b50565b5f8183610bf891906116bf565b905092915050565b5f8183610c0d919061172d565b905092915050565b610cad8282604051602401610c2b9291906117bd565b6040516020818303038152906040527fb60e72cc000000000000000000000000000000000000000000000000000000007bffffffffffffffffffffffffffffffffffffffffffffffffffffffff19166020820180517bffffffffffffffffffffffffffffffffffffffffffffffffffffffff8381831617835250505050610f14565b5050565b5f610d2e858673ffffffffffffffffffffffffffffffffffffffff166323b872dd878787604051602401610ce7939291906117eb565b604051602081830303815290604052915060e01b6020820180517bffffffffffffffffffffffffffffffffffffffffffffffffffffffff8381831617835250505050610f2e565b9050949350505050565b610d40610f87565b73ffffffffffffffffffffffffffffffffffffffff16610d5e610b15565b73ffffffffffffffffffffffffffffffffffffffff1614610dbd57610d81610f87565b6040517f118cdaa7000000000000000000000000000000000000000000000000000000008152600401610db49190611126565b60405180910390fd5b565b610e39838473ffffffffffffffffffffffffffffffffffffffff1663a9059cbb8585604051602401610df2929190611820565b604051602081830303815290604052915060e01b6020820180517bffffffffffffffffffffffffffffffffffffffffffffffffffffffff8381831617835250505050610f8e565b505050565b5f8183610e4b9190611847565b905092915050565b5f5f5f9054906101000a900473ffffffffffffffffffffffffffffffffffffffff169050815f5f6101000a81548173ffffffffffffffffffffffffffffffffffffffff021916908373ffffffffffffffffffffffffffffffffffffffff1602179055508173ffffffffffffffffffffffffffffffffffffffff168173ffffffffffffffffffffffffffffffffffffffff167f8be0079c531659141344cd1fd0a4f28419497f9722a3daafe3b4186f6b6457e060405160405180910390a35050565b610f2b81610f23611029611048565b63ffffffff16565b50565b5f5f5f5f60205f8651602088015f8a5af192503d91505f519050828015610f7c57505f8214610f605760018114610f7b565b5f8673ffffffffffffffffffffffffffffffffffffffff163b115b5b935050505092915050565b5f33905090565b5f5f60205f8451602086015f885af180610fad576040513d5f823e3d81fd5b3d92505f519150505f8214610fc6576001811415610fe1565b5f8473ffffffffffffffffffffffffffffffffffffffff163b145b1561102357836040517f5274afe700000000000000000000000000000000000000000000000000000000815260040161101a9190611126565b60405180910390fd5b50505050565b5f6a636f6e736f6c652e6c6f6790505f5f835160208501845afa505050565b611053819050919050565b61105b61187a565b565b5f5ffd5b5f819050919050565b61107381611061565b811461107d575f5ffd5b50565b5f8135905061108e8161106a565b92915050565b5f602082840312156110a9576110a861105d565b5b5f6110b684828501611080565b91505092915050565b6110c881611061565b82525050565b5f6020820190506110e15f8301846110bf565b92915050565b5f73ffffffffffffffffffffffffffffffffffffffff82169050919050565b5f611110826110e7565b9050919050565b61112081611106565b82525050565b5f6020820190506111395f830184611117565b92915050565b5f819050919050565b5f61116261115d611158846110e7565b61113f565b6110e7565b9050919050565b5f61117382611148565b9050919050565b5f61118482611169565b9050919050565b6111948161117a565b82525050565b5f6020820190506111ad5f83018461118b565b92915050565b6111bc81611106565b81146111c6575f5ffd5b50565b5f813590506111d7816111b3565b92915050565b5f602082840312156111f2576111f161105d565b5b5f6111ff848285016111c9565b91505092915050565b5f82825260208201905092915050565b7f616d6f6e74206f6620746f6b656e206973206e6f74206c657373207468616e205f8201527f7a65726f206f72207a65726f2100000000000000000000000000000000000000602082015250565b5f611272602d83611208565b915061127d82611218565b604082019050919050565b5f6020820190508181035f83015261129f81611266565b9050919050565b5f815190506112b48161106a565b92915050565b5f602082840312156112cf576112ce61105d565b5b5f6112dc848285016112a6565b91505092915050565b7f7573657220646f206e6f74206861766520746f6b656e202c20636865636b20615f8201527f6769616e21000000000000000000000000000000000000000000000000000000602082015250565b5f61133f602583611208565b915061134a826112e5565b604082019050919050565b5f6020820190508181035f83015261136c81611333565b9050919050565b5f81905092915050565b50565b5f61138b5f83611373565b91506113968261137d565b5f82019050919050565b5f6113aa82611380565b9150819050919050565b7f6661696c656420746f2073656e640000000000000000000000000000000000005f82015250565b5f6113e8600e83611208565b91506113f3826113b4565b602082019050919050565b5f6020820190508181035f830152611415816113dc565b9050919050565b7f4e487b71000000000000000000000000000000000000000000000000000000005f52601160045260245ffd5b5f61145382611061565b91507fffffffffffffffffffffffffffffffffffffffffffffffffffffffffffffffff82036114855761148461141c565b5b600182019050919050565b5f6040820190506114a35f8301856110bf565b6114b060208301846110bf565b9392505050565b7f616d6f756e74206973206c657373207468616e207a65726f21000000000000005f82015250565b5f6114eb601983611208565b91506114f6826114b7565b602082019050919050565b5f6020820190508181035f830152611518816114df565b9050919050565b7f6f7574206f662062616c6e6365000000000000000000000000000000000000005f82015250565b5f611553600d83611208565b915061155e8261151f565b602082019050919050565b5f6020820190508181035f83015261158081611547565b9050919050565b7f6c6e7375667563656e742062616c616e636520210000000000000000000000005f82015250565b5f6115bb601483611208565b91506115c682611587565b602082019050919050565b5f6020820190508181035f8301526115e8816115af565b9050919050565b7f6661696c656421000000000000000000000000000000000000000000000000005f82015250565b5f611623600783611208565b915061162e826115ef565b602082019050919050565b5f6020820190508181035f83015261165081611617565b9050919050565b7f66696c6c20636f727265637420746f6b656e20707269636500000000000000005f82015250565b5f61168b601883611208565b915061169682611657565b602082019050919050565b5f6020820190508181035f8301526116b88161167f565b9050919050565b5f6116c982611061565b91506116d483611061565b92508282026116e281611061565b915082820484148315176116f9576116f861141c565b5b5092915050565b7f4e487b71000000000000000000000000000000000000000000000000000000005f52601260045260245ffd5b5f61173782611061565b915061174283611061565b92508261175257611751611700565b5b828204905092915050565b5f81519050919050565b8281835e5f83830152505050565b5f601f19601f8301169050919050565b5f61178f8261175d565b6117998185611208565b93506117a9818560208601611767565b6117b281611775565b840191505092915050565b5f6040820190508181035f8301526117d58185611785565b90506117e460208301846110bf565b9392505050565b5f6060820190506117fe5f830186611117565b61180b6020830185611117565b61181860408301846110bf565b949350505050565b5f6040820190506118335f830185611117565b61184060208301846110bf565b9392505050565b5f61185182611061565b915061185c83611061565b92508282019050808211156118745761187361141c565b5b92915050565b7f4e487b71000000000000000000000000000000000000000000000000000000005f52605160045260245ffdfea2646970667358221220b7f1de0c9c7b2e94f47c23ccb8040d93867ddcbd7b53d15f856d95be00a5c0ba64736f6c634300081f0033",
			"opcodes": "PUSH1 0x80 PUSH1 0x40 MSTORE PUSH7 0x470DE4DF820000 PUSH1 0x1 SSTORE PUSH1 0x1 PUSH1 0x2 SSTORE PUSH1 0x1 PUSH1 0x3 SSTORE CALLVALUE DUP1 ISZERO PUSH2 0x24 JUMPI PUSH0 PUSH0 REVERT JUMPDEST POP PUSH1 0x40 MLOAD PUSH2 0x1B69 CODESIZE SUB DUP1 PUSH2 0x1B69 DUP4 CODECOPY DUP2 DUP2 ADD PUSH1 0x40 MSTORE DUP2 ADD SWAP1 PUSH2 0x46 SWAP2 SWAP1 PUSH2 0x22C JUMP JUMPDEST CALLER PUSH0 PUSH20 0xFFFFFFFFFFFFFFFFFFFFFFFFFFFFFFFFFFFFFFFF AND DUP2 PUSH20 0xFFFFFFFFFFFFFFFFFFFFFFFFFFFFFFFFFFFFFFFF AND SUB PUSH2 0xB7 JUMPI PUSH0 PUSH1 0x40 MLOAD PUSH32 0x1E4FBDF700000000000000000000000000000000000000000000000000000000 DUP2 MSTORE PUSH1 0x4 ADD PUSH2 0xAE SWAP2 SWAP1 PUSH2 0x266 JUMP JUMPDEST PUSH1 0x40 MLOAD DUP1 SWAP2 SUB SWAP1 REVERT JUMPDEST PUSH2 0xC6 DUP2 PUSH2 0x10D PUSH1 0x20 SHL PUSH1 0x20 SHR JUMP JUMPDEST POP DUP1 PUSH1 0x5 PUSH0 PUSH2 0x100 EXP DUP2 SLOAD DUP2 PUSH20 0xFFFFFFFFFFFFFFFFFFFFFFFFFFFFFFFFFFFFFFFF MUL NOT AND SWAP1 DUP4 PUSH20 0xFFFFFFFFFFFFFFFFFFFFFFFFFFFFFFFFFFFFFFFF AND MUL OR SWAP1 SSTORE POP POP PUSH2 0x27F JUMP JUMPDEST PUSH0 PUSH0 PUSH0 SWAP1 SLOAD SWAP1 PUSH2 0x100 EXP SWAP1 DIV PUSH20 0xFFFFFFFFFFFFFFFFFFFFFFFFFFFFFFFFFFFFFFFF AND SWAP1 POP DUP2 PUSH0 PUSH0 PUSH2 0x100 EXP DUP2 SLOAD DUP2 PUSH20 0xFFFFFFFFFFFFFFFFFFFFFFFFFFFFFFFFFFFFFFFF MUL NOT AND SWAP1 DUP4 PUSH20 0xFFFFFFFFFFFFFFFFFFFFFFFFFFFFFFFFFFFFFFFF AND MUL OR SWAP1 SSTORE POP DUP2 PUSH20 0xFFFFFFFFFFFFFFFFFFFFFFFFFFFFFFFFFFFFFFFF AND DUP2 PUSH20 0xFFFFFFFFFFFFFFFFFFFFFFFFFFFFFFFFFFFFFFFF AND PUSH32 0x8BE0079C531659141344CD1FD0A4F28419497F9722A3DAAFE3B4186F6B6457E0 PUSH1 0x40 MLOAD PUSH1 0x40 MLOAD DUP1 SWAP2 SUB SWAP1 LOG3 POP POP JUMP JUMPDEST PUSH0 PUSH0 REVERT JUMPDEST PUSH0 PUSH20 0xFFFFFFFFFFFFFFFFFFFFFFFFFFFFFFFFFFFFFFFF DUP3 AND SWAP1 POP SWAP2 SWAP1 POP JUMP JUMPDEST PUSH0 PUSH2 0x1FB DUP3 PUSH2 0x1D2 JUMP JUMPDEST SWAP1 POP SWAP2 SWAP1 POP JUMP JUMPDEST PUSH2 0x20B DUP2 PUSH2 0x1F1 JUMP JUMPDEST DUP2 EQ PUSH2 0x215 JUMPI PUSH0 PUSH0 REVERT JUMPDEST POP JUMP JUMPDEST PUSH0 DUP2 MLOAD SWAP1 POP PUSH2 0x226 DUP2 PUSH2 0x202 JUMP JUMPDEST SWAP3 SWAP2 POP POP JUMP JUMPDEST PUSH0 PUSH1 0x20 DUP3 DUP5 SUB SLT ISZERO PUSH2 0x241 JUMPI PUSH2 0x240 PUSH2 0x1CE JUMP JUMPDEST JUMPDEST PUSH0 PUSH2 0x24E DUP5 DUP3 DUP6 ADD PUSH2 0x218 JUMP JUMPDEST SWAP2 POP POP SWAP3 SWAP2 POP POP JUMP JUMPDEST PUSH2 0x260 DUP2 PUSH2 0x1F1 JUMP JUMPDEST DUP3 MSTORE POP POP JUMP JUMPDEST PUSH0 PUSH1 0x20 DUP3 ADD SWAP1 POP PUSH2 0x279 PUSH0 DUP4 ADD DUP5 PUSH2 0x257 JUMP JUMPDEST SWAP3 SWAP2 POP POP JUMP JUMPDEST PUSH2 0x18DD DUP1 PUSH2 0x28C PUSH0 CODECOPY PUSH0 RETURN INVALID PUSH1 0x80 PUSH1 0x40 MSTORE PUSH1 0x4 CALLDATASIZE LT PUSH2 0xDC JUMPI PUSH0 CALLDATALOAD PUSH1 0xE0 SHR DUP1 PUSH4 0x59FA9B1F GT PUSH2 0x7E JUMPI DUP1 PUSH4 0x8DA5CB5B GT PUSH2 0x58 JUMPI DUP1 PUSH4 0x8DA5CB5B EQ PUSH2 0x25A JUMPI DUP1 PUSH4 0x9939B8B2 EQ PUSH2 0x284 JUMPI DUP1 PUSH4 0x9E0CEA05 EQ PUSH2 0x2AE JUMPI DUP1 PUSH4 0xF2FDE38B EQ PUSH2 0x2D8 JUMPI PUSH2 0xDC JUMP JUMPDEST DUP1 PUSH4 0x59FA9B1F EQ PUSH2 0x1F0 JUMPI DUP1 PUSH4 0x715018A6 EQ PUSH2 0x21A JUMPI DUP1 PUSH4 0x7FF9B596 EQ PUSH2 0x230 JUMPI PUSH2 0xDC JUMP JUMPDEST DUP1 PUSH4 0x315A095D GT PUSH2 0xBA JUMPI DUP1 PUSH4 0x315A095D EQ PUSH2 0x16E JUMPI DUP1 PUSH4 0x384AFCDB EQ PUSH2 0x196 JUMPI DUP1 PUSH4 0x3BED33CE EQ PUSH2 0x1AC JUMPI DUP1 PUSH4 0x5329FD24 EQ PUSH2 0x1D4 JUMPI PUSH2 0xDC JUMP JUMPDEST DUP1 PUSH4 0x72DE7F3 EQ PUSH2 0xE0 JUMPI DUP1 PUSH4 0x214BCD18 EQ PUSH2 0x11C JUMPI DUP1 PUSH4 0x30089342 EQ PUSH2 0x146 JUMPI JUMPDEST PUSH0 PUSH0 REVERT JUMPDEST CALLVALUE DUP1 ISZERO PUSH2 0xEB JUMPI PUSH0 PUSH0 REVERT JUMPDEST POP PUSH2 0x106 PUSH1 0x4 DUP1 CALLDATASIZE SUB DUP2 ADD SWAP1 PUSH2 0x101 SWAP2 SWAP1 PUSH2 0x1094 JUMP JUMPDEST PUSH2 0x300 JUMP JUMPDEST PUSH1 0x40 MLOAD PUSH2 0x113 SWAP2 SWAP1 PUSH2 0x10CE JUMP JUMPDEST PUSH1 0x40 MLOAD DUP1 SWAP2 SUB SWAP1 RETURN JUMPDEST CALLVALUE DUP1 ISZERO PUSH2 0x127 JUMPI PUSH0 PUSH0 REVERT JUMPDEST POP PUSH2 0x130 PUSH2 0x3C5 JUMP JUMPDEST PUSH1 0x40 MLOAD PUSH2 0x13D SWAP2 SWAP1 PUSH2 0x10CE JUMP JUMPDEST PUSH1 0x40 MLOAD DUP1 SWAP2 SUB SWAP1 RETURN JUMPDEST CALLVALUE DUP1 ISZERO PUSH2 0x151 JUMPI PUSH0 PUSH0 REVERT JUMPDEST POP PUSH2 0x16C PUSH1 0x4 DUP1 CALLDATASIZE SUB DUP2 ADD SWAP1 PUSH2 0x167 SWAP2 SWAP1 PUSH2 0x1094 JUMP JUMPDEST PUSH2 0x3CB JUMP JUMPDEST STOP JUMPDEST CALLVALUE DUP1 ISZERO PUSH2 0x179 JUMPI PUSH0 PUSH0 REVERT JUMPDEST POP PUSH2 0x194 PUSH1 0x4 DUP1 CALLDATASIZE SUB DUP2 ADD SWAP1 PUSH2 0x18F SWAP2 SWAP1 PUSH2 0x1094 JUMP JUMPDEST PUSH2 0x615 JUMP JUMPDEST STOP JUMPDEST CALLVALUE DUP1 ISZERO PUSH2 0x1A1 JUMPI PUSH0 PUSH0 REVERT JUMPDEST POP PUSH2 0x1AA PUSH2 0x7D7 JUMP JUMPDEST STOP JUMPDEST CALLVALUE DUP1 ISZERO PUSH2 0x1B7 JUMPI PUSH0 PUSH0 REVERT JUMPDEST POP PUSH2 0x1D2 PUSH1 0x4 DUP1 CALLDATASIZE SUB DUP2 ADD SWAP1 PUSH2 0x1CD SWAP2 SWAP1 PUSH2 0x1094 JUMP JUMPDEST PUSH2 0x8AC JUMP JUMPDEST STOP JUMPDEST PUSH2 0x1EE PUSH1 0x4 DUP1 CALLDATASIZE SUB DUP2 ADD SWAP1 PUSH2 0x1E9 SWAP2 SWAP1 PUSH2 0x1094 JUMP JUMPDEST PUSH2 0x9F1 JUMP JUMPDEST STOP JUMPDEST CALLVALUE DUP1 ISZERO PUSH2 0x1FB JUMPI PUSH0 PUSH0 REVERT JUMPDEST POP PUSH2 0x204 PUSH2 0xAF6 JUMP JUMPDEST PUSH1 0x40 MLOAD PUSH2 0x211 SWAP2 SWAP1 PUSH2 0x10CE JUMP JUMPDEST PUSH1 0x40 MLOAD DUP1 SWAP2 SUB SWAP1 RETURN JUMPDEST CALLVALUE DUP1 ISZERO PUSH2 0x225 JUMPI PUSH0 PUSH0 REVERT JUMPDEST POP PUSH2 0x22E PUSH2 0xAFC JUMP JUMPDEST STOP JUMPDEST CALLVALUE DUP1 ISZERO PUSH2 0x23B JUMPI PUSH0 PUSH0 REVERT JUMPDEST POP PUSH2 0x244 PUSH2 0xB0F JUMP JUMPDEST PUSH1 0x40 MLOAD PUSH2 0x251 SWAP2 SWAP1 PUSH2 0x10CE JUMP JUMPDEST PUSH1 0x40 MLOAD DUP1 SWAP2 SUB SWAP1 RETURN JUMPDEST CALLVALUE DUP1 ISZERO PUSH2 0x265 JUMPI PUSH0 PUSH0 REVERT JUMPDEST POP PUSH2 0x26E PUSH2 0xB15 JUMP JUMPDEST PUSH1 0x40 MLOAD PUSH2 0x27B SWAP2 SWAP1 PUSH2 0x1126 JUMP JUMPDEST PUSH1 0x40 MLOAD DUP1 SWAP2 SUB SWAP1 RETURN JUMPDEST CALLVALUE DUP1 ISZERO PUSH2 0x28F JUMPI PUSH0 PUSH0 REVERT JUMPDEST POP PUSH2 0x298 PUSH2 0xB3C JUMP JUMPDEST PUSH1 0x40 MLOAD PUSH2 0x2A5 SWAP2 SWAP1 PUSH2 0x119A JUMP JUMPDEST PUSH1 0x40 MLOAD DUP1 SWAP2 SUB SWAP1 RETURN JUMPDEST CALLVALUE DUP1 ISZERO PUSH2 0x2B9 JUMPI PUSH0 PUSH0 REVERT JUMPDEST POP PUSH2 0x2C2 PUSH2 0xB61 JUMP JUMPDEST PUSH1 0x40 MLOAD PUSH2 0x2CF SWAP2 SWAP1 PUSH2 0x10CE JUMP JUMPDEST PUSH1 0x40 MLOAD DUP1 SWAP2 SUB SWAP1 RETURN JUMPDEST CALLVALUE DUP1 ISZERO PUSH2 0x2E3 JUMPI PUSH0 PUSH0 REVERT JUMPDEST POP PUSH2 0x2FE PUSH1 0x4 DUP1 CALLDATASIZE SUB DUP2 ADD SWAP1 PUSH2 0x2F9 SWAP2 SWAP1 PUSH2 0x11DD JUMP JUMPDEST PUSH2 0xB67 JUMP JUMPDEST STOP JUMPDEST PUSH0 PUSH0 DUP3 GT PUSH2 0x343 JUMPI PUSH1 0x40 MLOAD PUSH32 0x8C379A000000000000000000000000000000000000000000000000000000000 DUP2 MSTORE PUSH1 0x4 ADD PUSH2 0x33A SWAP1 PUSH2 0x1288 JUMP JUMPDEST PUSH1 0x40 MLOAD DUP1 SWAP2 SUB SWAP1 REVERT JUMPDEST PUSH2 0x34B PUSH2 0x7D7 JUMP JUMPDEST PUSH0 PUSH2 0x37B PUSH8 0xDE0B6B3A7640000 PUSH2 0x36D PUSH1 0x1 SLOAD DUP7 PUSH2 0xBEB SWAP1 SWAP2 SWAP1 PUSH4 0xFFFFFFFF AND JUMP JUMPDEST PUSH2 0xC00 SWAP1 SWAP2 SWAP1 PUSH4 0xFFFFFFFF AND JUMP JUMPDEST SWAP1 POP PUSH2 0x3BC PUSH1 0x40 MLOAD DUP1 PUSH1 0x40 ADD PUSH1 0x40 MSTORE DUP1 PUSH1 0xF DUP2 MSTORE PUSH1 0x20 ADD PUSH32 0x616D6F756E7420746F6B656E203A200000000000000000000000000000000000 DUP2 MSTORE POP DUP3 PUSH2 0xC15 JUMP JUMPDEST DUP1 SWAP2 POP POP SWAP2 SWAP1 POP JUMP JUMPDEST PUSH1 0x4 SLOAD DUP2 JUMP JUMPDEST DUP1 PUSH1 0x5 PUSH0 SWAP1 SLOAD SWAP1 PUSH2 0x100 EXP SWAP1 DIV PUSH20 0xFFFFFFFFFFFFFFFFFFFFFFFFFFFFFFFFFFFFFFFF AND PUSH20 0xFFFFFFFFFFFFFFFFFFFFFFFFFFFFFFFFFFFFFFFF AND PUSH4 0x70A08231 CALLER PUSH1 0x40 MLOAD DUP3 PUSH4 0xFFFFFFFF AND PUSH1 0xE0 SHL DUP2 MSTORE PUSH1 0x4 ADD PUSH2 0x426 SWAP2 SWAP1 PUSH2 0x1126 JUMP JUMPDEST PUSH1 0x20 PUSH1 0x40 MLOAD DUP1 DUP4 SUB DUP2 DUP7 GAS STATICCALL ISZERO DUP1 ISZERO PUSH2 0x441 JUMPI RETURNDATASIZE PUSH0 PUSH0 RETURNDATACOPY RETURNDATASIZE PUSH0 REVERT JUMPDEST POP POP POP POP PUSH1 0x40 MLOAD RETURNDATASIZE PUSH1 0x1F NOT PUSH1 0x1F DUP3 ADD AND DUP3 ADD DUP1 PUSH1 0x40 MSTORE POP DUP2 ADD SWAP1 PUSH2 0x465 SWAP2 SWAP1 PUSH2 0x12BA JUMP JUMPDEST LT ISZERO PUSH2 0x4A6 JUMPI PUSH1 0x40 MLOAD PUSH32 0x8C379A000000000000000000000000000000000000000000000000000000000 DUP2 MSTORE PUSH1 0x4 ADD PUSH2 0x49D SWAP1 PUSH2 0x1355 JUMP JUMPDEST PUSH1 0x40 MLOAD DUP1 SWAP2 SUB SWAP1 REVERT JUMPDEST PUSH0 PUSH2 0x4B0 DUP3 PUSH2 0x300 JUMP JUMPDEST SWAP1 POP PUSH2 0x500 CALLER ADDRESS DUP5 PUSH1 0x5 PUSH0 SWAP1 SLOAD SWAP1 PUSH2 0x100 EXP SWAP1 DIV PUSH20 0xFFFFFFFFFFFFFFFFFFFFFFFFFFFFFFFFFFFFFFFF AND PUSH20 0xFFFFFFFFFFFFFFFFFFFFFFFFFFFFFFFFFFFFFFFF AND PUSH2 0xCB1 SWAP1 SWAP4 SWAP3 SWAP2 SWAP1 PUSH4 0xFFFFFFFF AND JUMP JUMPDEST POP PUSH0 CALLER PUSH20 0xFFFFFFFFFFFFFFFFFFFFFFFFFFFFFFFFFFFFFFFF AND DUP3 PUSH1 0x40 MLOAD PUSH2 0x526 SWAP1 PUSH2 0x13A0 JUMP JUMPDEST PUSH0 PUSH1 0x40 MLOAD DUP1 DUP4 SUB DUP2 DUP6 DUP8 GAS CALL SWAP3 POP POP POP RETURNDATASIZE DUP1 PUSH0 DUP2 EQ PUSH2 0x560 JUMPI PUSH1 0x40 MLOAD SWAP2 POP PUSH1 0x1F NOT PUSH1 0x3F RETURNDATASIZE ADD AND DUP3 ADD PUSH1 0x40 MSTORE RETURNDATASIZE DUP3 MSTORE RETURNDATASIZE PUSH0 PUSH1 0x20 DUP5 ADD RETURNDATACOPY PUSH2 0x565 JUMP JUMPDEST PUSH1 0x60 SWAP2 POP JUMPDEST POP POP SWAP1 POP DUP1 PUSH2 0x5A9 JUMPI PUSH1 0x40 MLOAD PUSH32 0x8C379A000000000000000000000000000000000000000000000000000000000 DUP2 MSTORE PUSH1 0x4 ADD PUSH2 0x5A0 SWAP1 PUSH2 0x13FE JUMP JUMPDEST PUSH1 0x40 MLOAD DUP1 SWAP2 SUB SWAP1 REVERT JUMPDEST PUSH1 0x2 PUSH0 DUP2 SLOAD DUP1 SWAP3 SWAP2 SWAP1 PUSH2 0x5BB SWAP1 PUSH2 0x1449 JUMP JUMPDEST SWAP2 SWAP1 POP SSTORE POP CALLER PUSH20 0xFFFFFFFFFFFFFFFFFFFFFFFFFFFFFFFFFFFFFFFF AND PUSH32 0x35EA94ADDBC62DF281ADE49CC2AD9B3D9259166170CF702928B4DDC045F7256E DUP5 DUP5 PUSH1 0x40 MLOAD PUSH2 0x608 SWAP3 SWAP2 SWAP1 PUSH2 0x1490 JUMP JUMPDEST PUSH1 0x40 MLOAD DUP1 SWAP2 SUB SWAP1 LOG2 POP POP POP JUMP JUMPDEST PUSH2 0x61D PUSH2 0xD38 JUMP JUMPDEST PUSH0 DUP2 GT PUSH2 0x65F JUMPI PUSH1 0x40 MLOAD PUSH32 0x8C379A000000000000000000000000000000000000000000000000000000000 DUP2 MSTORE PUSH1 0x4 ADD PUSH2 0x656 SWAP1 PUSH2 0x1501 JUMP JUMPDEST PUSH1 0x40 MLOAD DUP1 SWAP2 SUB SWAP1 REVERT JUMPDEST DUP1 PUSH1 0x5 PUSH0 SWAP1 SLOAD SWAP1 PUSH2 0x100 EXP SWAP1 DIV PUSH20 0xFFFFFFFFFFFFFFFFFFFFFFFFFFFFFFFFFFFFFFFF AND PUSH20 0xFFFFFFFFFFFFFFFFFFFFFFFFFFFFFFFFFFFFFFFF AND PUSH4 0x70A08231 ADDRESS PUSH1 0x40 MLOAD DUP3 PUSH4 0xFFFFFFFF AND PUSH1 0xE0 SHL DUP2 MSTORE PUSH1 0x4 ADD PUSH2 0x6BA SWAP2 SWAP1 PUSH2 0x1126 JUMP JUMPDEST PUSH1 0x20 PUSH1 0x40 MLOAD DUP1 DUP4 SUB DUP2 DUP7 GAS STATICCALL ISZERO DUP1 ISZERO PUSH2 0x6D5 JUMPI RETURNDATASIZE PUSH0 PUSH0 RETURNDATACOPY RETURNDATASIZE PUSH0 REVERT JUMPDEST POP POP POP POP PUSH1 0x40 MLOAD RETURNDATASIZE PUSH1 0x1F NOT PUSH1 0x1F DUP3 ADD AND DUP3 ADD DUP1 PUSH1 0x40 MSTORE POP DUP2 ADD SWAP1 PUSH2 0x6F9 SWAP2 SWAP1 PUSH2 0x12BA JUMP JUMPDEST LT ISZERO PUSH2 0x73A JUMPI PUSH1 0x40 MLOAD PUSH32 0x8C379A000000000000000000000000000000000000000000000000000000000 DUP2 MSTORE PUSH1 0x4 ADD PUSH2 0x731 SWAP1 PUSH2 0x1569 JUMP JUMPDEST PUSH1 0x40 MLOAD DUP1 SWAP2 SUB SWAP1 REVERT JUMPDEST PUSH2 0x786 CALLER DUP3 PUSH1 0x5 PUSH0 SWAP1 SLOAD SWAP1 PUSH2 0x100 EXP SWAP1 DIV PUSH20 0xFFFFFFFFFFFFFFFFFFFFFFFFFFFFFFFFFFFFFFFF AND PUSH20 0xFFFFFFFFFFFFFFFFFFFFFFFFFFFFFFFFFFFFFFFF AND PUSH2 0xDBF SWAP1 SWAP3 SWAP2 SWAP1 PUSH4 0xFFFFFFFF AND JUMP JUMPDEST CALLER PUSH20 0xFFFFFFFFFFFFFFFFFFFFFFFFFFFFFFFFFFFFFFFF AND PUSH32 0x6352C5382C4A4578E712449CA65E83CDB392D045DFCF1CAD9615189DB2DA244B DUP3 PUSH1 0x40 MLOAD PUSH2 0x7CC SWAP2 SWAP1 PUSH2 0x10CE JUMP JUMPDEST PUSH1 0x40 MLOAD DUP1 SWAP2 SUB SWAP1 LOG2 POP JUMP JUMPDEST PUSH0 PUSH2 0x809 PUSH1 0x2 SLOAD PUSH2 0x7FB PUSH8 0xDE0B6B3A7640000 PUSH1 0x3 SLOAD PUSH2 0xBEB SWAP1 SWAP2 SWAP1 PUSH4 0xFFFFFFFF AND JUMP JUMPDEST PUSH2 0xC00 SWAP1 SWAP2 SWAP1 PUSH4 0xFFFFFFFF AND JUMP JUMPDEST SWAP1 POP PUSH0 PUSH8 0xDE0B6B3A7640000 SWAP1 POP PUSH0 PUSH2 0x83E PUSH1 0x2 PUSH2 0x830 DUP5 DUP7 PUSH2 0xE3E SWAP1 SWAP2 SWAP1 PUSH4 0xFFFFFFFF AND JUMP JUMPDEST PUSH2 0xC00 SWAP1 SWAP2 SWAP1 PUSH4 0xFFFFFFFF AND JUMP JUMPDEST SWAP1 POP DUP1 PUSH1 0x4 SLOAD EQ PUSH2 0x8A7 JUMPI DUP1 PUSH1 0x4 DUP2 SWAP1 SSTORE POP PUSH0 PUSH2 0x880 PUSH8 0xDE0B6B3A7640000 PUSH2 0x872 DUP5 PUSH1 0x1 SLOAD PUSH2 0xBEB SWAP1 SWAP2 SWAP1 PUSH4 0xFFFFFFFF AND JUMP JUMPDEST PUSH2 0xC00 SWAP1 SWAP2 SWAP1 PUSH4 0xFFFFFFFF AND JUMP JUMPDEST SWAP1 POP PUSH0 PUSH7 0x470DE4DF820000 SWAP1 POP DUP1 DUP3 LT ISZERO PUSH2 0x89D JUMPI DUP1 PUSH1 0x1 DUP2 SWAP1 SSTORE POP JUMPDEST DUP2 PUSH1 0x1 DUP2 SWAP1 SSTORE POP POP POP JUMPDEST POP POP POP JUMP JUMPDEST PUSH2 0x8B4 PUSH2 0xD38 JUMP JUMPDEST DUP1 SELFBALANCE LT ISZERO PUSH2 0x8F7 JUMPI PUSH1 0x40 MLOAD PUSH32 0x8C379A000000000000000000000000000000000000000000000000000000000 DUP2 MSTORE PUSH1 0x4 ADD PUSH2 0x8EE SWAP1 PUSH2 0x15D1 JUMP JUMPDEST PUSH1 0x40 MLOAD DUP1 SWAP2 SUB SWAP1 REVERT JUMPDEST PUSH0 CALLER PUSH20 0xFFFFFFFFFFFFFFFFFFFFFFFFFFFFFFFFFFFFFFFF AND DUP3 PUSH1 0x40 MLOAD PUSH2 0x91C SWAP1 PUSH2 0x13A0 JUMP JUMPDEST PUSH0 PUSH1 0x40 MLOAD DUP1 DUP4 SUB DUP2 DUP6 DUP8 GAS CALL SWAP3 POP POP POP RETURNDATASIZE DUP1 PUSH0 DUP2 EQ PUSH2 0x956 JUMPI PUSH1 0x40 MLOAD SWAP2 POP PUSH1 0x1F NOT PUSH1 0x3F RETURNDATASIZE ADD AND DUP3 ADD PUSH1 0x40 MSTORE RETURNDATASIZE DUP3 MSTORE RETURNDATASIZE PUSH0 PUSH1 0x20 DUP5 ADD RETURNDATACOPY PUSH2 0x95B JUMP JUMPDEST PUSH1 0x60 SWAP2 POP JUMPDEST POP POP SWAP1 POP DUP1 PUSH2 0x99F JUMPI PUSH1 0x40 MLOAD PUSH32 0x8C379A000000000000000000000000000000000000000000000000000000000 DUP2 MSTORE PUSH1 0x4 ADD PUSH2 0x996 SWAP1 PUSH2 0x1639 JUMP JUMPDEST PUSH1 0x40 MLOAD DUP1 SWAP2 SUB SWAP1 REVERT JUMPDEST CALLER PUSH20 0xFFFFFFFFFFFFFFFFFFFFFFFFFFFFFFFFFFFFFFFF AND PUSH32 0x6097061AEDA806B5E9CB4133D9899F332FF0913956567FC0F7EA15E3D19947C DUP4 PUSH1 0x40 MLOAD PUSH2 0x9E5 SWAP2 SWAP1 PUSH2 0x10CE JUMP JUMPDEST PUSH1 0x40 MLOAD DUP1 SWAP2 SUB SWAP1 LOG2 POP POP JUMP JUMPDEST PUSH0 PUSH2 0x9FB DUP3 PUSH2 0x300 JUMP JUMPDEST SWAP1 POP CALLVALUE DUP2 EQ PUSH2 0xA3F JUMPI PUSH1 0x40 MLOAD PUSH32 0x8C379A000000000000000000000000000000000000000000000000000000000 DUP2 MSTORE PUSH1 0x4 ADD PUSH2 0xA36 SWAP1 PUSH2 0x16A1 JUMP JUMPDEST PUSH1 0x40 MLOAD DUP1 SWAP2 SUB SWAP1 REVERT JUMPDEST PUSH2 0xA8B CALLER DUP4 PUSH1 0x5 PUSH0 SWAP1 SLOAD SWAP1 PUSH2 0x100 EXP SWAP1 DIV PUSH20 0xFFFFFFFFFFFFFFFFFFFFFFFFFFFFFFFFFFFFFFFF AND PUSH20 0xFFFFFFFFFFFFFFFFFFFFFFFFFFFFFFFFFFFFFFFF AND PUSH2 0xDBF SWAP1 SWAP3 SWAP2 SWAP1 PUSH4 0xFFFFFFFF AND JUMP JUMPDEST PUSH1 0x3 PUSH0 DUP2 SLOAD DUP1 SWAP3 SWAP2 SWAP1 PUSH2 0xA9D SWAP1 PUSH2 0x1449 JUMP JUMPDEST SWAP2 SWAP1 POP SSTORE POP CALLER PUSH20 0xFFFFFFFFFFFFFFFFFFFFFFFFFFFFFFFFFFFFFFFF AND PUSH32 0x28CAB0D660ED8AEDD61A8C9DB00B97F6A2D67E07D87795994F440B18BC5F1AA3 DUP4 DUP4 PUSH1 0x40 MLOAD PUSH2 0xAEA SWAP3 SWAP2 SWAP1 PUSH2 0x1490 JUMP JUMPDEST PUSH1 0x40 MLOAD DUP1 SWAP2 SUB SWAP1 LOG2 POP POP JUMP JUMPDEST PUSH1 0x2 SLOAD DUP2 JUMP JUMPDEST PUSH2 0xB04 PUSH2 0xD38 JUMP JUMPDEST PUSH2 0xB0D PUSH0 PUSH2 0xE53 JUMP JUMPDEST JUMP JUMPDEST PUSH1 0x1 SLOAD DUP2 JUMP JUMPDEST PUSH0 PUSH0 PUSH0 SWAP1 SLOAD SWAP1 PUSH2 0x100 EXP SWAP1 DIV PUSH20 0xFFFFFFFFFFFFFFFFFFFFFFFFFFFFFFFFFFFFFFFF AND SWAP1 POP SWAP1 JUMP JUMPDEST PUSH1 0x5 PUSH0 SWAP1 SLOAD SWAP1 PUSH2 0x100 EXP SWAP1 DIV PUSH20 0xFFFFFFFFFFFFFFFFFFFFFFFFFFFFFFFFFFFFFFFF AND DUP2 JUMP JUMPDEST PUSH1 0x3 SLOAD DUP2 JUMP JUMPDEST PUSH2 0xB6F PUSH2 0xD38 JUMP JUMPDEST PUSH0 PUSH20 0xFFFFFFFFFFFFFFFFFFFFFFFFFFFFFFFFFFFFFFFF AND DUP2 PUSH20 0xFFFFFFFFFFFFFFFFFFFFFFFFFFFFFFFFFFFFFFFF AND SUB PUSH2 0xBDF JUMPI PUSH0 PUSH1 0x40 MLOAD PUSH32 0x1E4FBDF700000000000000000000000000000000000000000000000000000000 DUP2 MSTORE PUSH1 0x4 ADD PUSH2 0xBD6 SWAP2 SWAP1 PUSH2 0x1126 JUMP JUMPDEST PUSH1 0x40 MLOAD DUP1 SWAP2 SUB SWAP1 REVERT JUMPDEST PUSH2 0xBE8 DUP2 PUSH2 0xE53 JUMP JUMPDEST POP JUMP JUMPDEST PUSH0 DUP2 DUP4 PUSH2 0xBF8 SWAP2 SWAP1 PUSH2 0x16BF JUMP JUMPDEST SWAP1 POP SWAP3 SWAP2 POP POP JUMP JUMPDEST PUSH0 DUP2 DUP4 PUSH2 0xC0D SWAP2 SWAP1 PUSH2 0x172D JUMP JUMPDEST SWAP1 POP SWAP3 SWAP2 POP POP JUMP JUMPDEST PUSH2 0xCAD DUP3 DUP3 PUSH1 0x40 MLOAD PUSH1 0x24 ADD PUSH2 0xC2B SWAP3 SWAP2 SWAP1 PUSH2 0x17BD JUMP JUMPDEST PUSH1 0x40 MLOAD PUSH1 0x20 DUP2 DUP4 SUB SUB DUP2 MSTORE SWAP1 PUSH1 0x40 MSTORE PUSH32 0xB60E72CC00000000000000000000000000000000000000000000000000000000 PUSH28 0xFFFFFFFFFFFFFFFFFFFFFFFFFFFFFFFFFFFFFFFFFFFFFFFFFFFFFFFF NOT AND PUSH1 0x20 DUP3 ADD DUP1 MLOAD PUSH28 0xFFFFFFFFFFFFFFFFFFFFFFFFFFFFFFFFFFFFFFFFFFFFFFFFFFFFFFFF DUP4 DUP2 DUP4 AND OR DUP4 MSTORE POP POP POP POP PUSH2 0xF14 JUMP JUMPDEST POP POP JUMP JUMPDEST PUSH0 PUSH2 0xD2E DUP6 DUP7 PUSH20 0xFFFFFFFFFFFFFFFFFFFFFFFFFFFFFFFFFFFFFFFF AND PUSH4 0x23B872DD DUP8 DUP8 DUP8 PUSH1 0x40 MLOAD PUSH1 0x24 ADD PUSH2 0xCE7 SWAP4 SWAP3 SWAP2 SWAP1 PUSH2 0x17EB JUMP JUMPDEST PUSH1 0x40 MLOAD PUSH1 0x20 DUP2 DUP4 SUB SUB DUP2 MSTORE SWAP1 PUSH1 0x40 MSTORE SWAP2 POP PUSH1 0xE0 SHL PUSH1 0x20 DUP3 ADD DUP1 MLOAD PUSH28 0xFFFFFFFFFFFFFFFFFFFFFFFFFFFFFFFFFFFFFFFFFFFFFFFFFFFFFFFF DUP4 DUP2 DUP4 AND OR DUP4 MSTORE POP POP POP POP PUSH2 0xF2E JUMP JUMPDEST SWAP1 POP SWAP5 SWAP4 POP POP POP POP JUMP JUMPDEST PUSH2 0xD40 PUSH2 0xF87 JUMP JUMPDEST PUSH20 0xFFFFFFFFFFFFFFFFFFFFFFFFFFFFFFFFFFFFFFFF AND PUSH2 0xD5E PUSH2 0xB15 JUMP JUMPDEST PUSH20 0xFFFFFFFFFFFFFFFFFFFFFFFFFFFFFFFFFFFFFFFF AND EQ PUSH2 0xDBD JUMPI PUSH2 0xD81 PUSH2 0xF87 JUMP JUMPDEST PUSH1 0x40 MLOAD PUSH32 0x118CDAA700000000000000000000000000000000000000000000000000000000 DUP2 MSTORE PUSH1 0x4 ADD PUSH2 0xDB4 SWAP2 SWAP1 PUSH2 0x1126 JUMP JUMPDEST PUSH1 0x40 MLOAD DUP1 SWAP2 SUB SWAP1 REVERT JUMPDEST JUMP JUMPDEST PUSH2 0xE39 DUP4 DUP5 PUSH20 0xFFFFFFFFFFFFFFFFFFFFFFFFFFFFFFFFFFFFFFFF AND PUSH4 0xA9059CBB DUP6 DUP6 PUSH1 0x40 MLOAD PUSH1 0x24 ADD PUSH2 0xDF2 SWAP3 SWAP2 SWAP1 PUSH2 0x1820 JUMP JUMPDEST PUSH1 0x40 MLOAD PUSH1 0x20 DUP2 DUP4 SUB SUB DUP2 MSTORE SWAP1 PUSH1 0x40 MSTORE SWAP2 POP PUSH1 0xE0 SHL PUSH1 0x20 DUP3 ADD DUP1 MLOAD PUSH28 0xFFFFFFFFFFFFFFFFFFFFFFFFFFFFFFFFFFFFFFFFFFFFFFFFFFFFFFFF DUP4 DUP2 DUP4 AND OR DUP4 MSTORE POP POP POP POP PUSH2 0xF8E JUMP JUMPDEST POP POP POP JUMP JUMPDEST PUSH0 DUP2 DUP4 PUSH2 0xE4B SWAP2 SWAP1 PUSH2 0x1847 JUMP JUMPDEST SWAP1 POP SWAP3 SWAP2 POP POP JUMP JUMPDEST PUSH0 PUSH0 PUSH0 SWAP1 SLOAD SWAP1 PUSH2 0x100 EXP SWAP1 DIV PUSH20 0xFFFFFFFFFFFFFFFFFFFFFFFFFFFFFFFFFFFFFFFF AND SWAP1 POP DUP2 PUSH0 PUSH0 PUSH2 0x100 EXP DUP2 SLOAD DUP2 PUSH20 0xFFFFFFFFFFFFFFFFFFFFFFFFFFFFFFFFFFFFFFFF MUL NOT AND SWAP1 DUP4 PUSH20 0xFFFFFFFFFFFFFFFFFFFFFFFFFFFFFFFFFFFFFFFF AND MUL OR SWAP1 SSTORE POP DUP2 PUSH20 0xFFFFFFFFFFFFFFFFFFFFFFFFFFFFFFFFFFFFFFFF AND DUP2 PUSH20 0xFFFFFFFFFFFFFFFFFFFFFFFFFFFFFFFFFFFFFFFF AND PUSH32 0x8BE0079C531659141344CD1FD0A4F28419497F9722A3DAAFE3B4186F6B6457E0 PUSH1 0x40 MLOAD PUSH1 0x40 MLOAD DUP1 SWAP2 SUB SWAP1 LOG3 POP POP JUMP JUMPDEST PUSH2 0xF2B DUP2 PUSH2 0xF23 PUSH2 0x1029 PUSH2 0x1048 JUMP JUMPDEST PUSH4 0xFFFFFFFF AND JUMP JUMPDEST POP JUMP JUMPDEST PUSH0 PUSH0 PUSH0 PUSH0 PUSH1 0x20 PUSH0 DUP7 MLOAD PUSH1 0x20 DUP9 ADD PUSH0 DUP11 GAS CALL SWAP3 POP RETURNDATASIZE SWAP2 POP PUSH0 MLOAD SWAP1 POP DUP3 DUP1 ISZERO PUSH2 0xF7C JUMPI POP PUSH0 DUP3 EQ PUSH2 0xF60 JUMPI PUSH1 0x1 DUP2 EQ PUSH2 0xF7B JUMP JUMPDEST PUSH0 DUP7 PUSH20 0xFFFFFFFFFFFFFFFFFFFFFFFFFFFFFFFFFFFFFFFF AND EXTCODESIZE GT JUMPDEST JUMPDEST SWAP4 POP POP POP POP SWAP3 SWAP2 POP POP JUMP JUMPDEST PUSH0 CALLER SWAP1 POP SWAP1 JUMP JUMPDEST PUSH0 PUSH0 PUSH1 0x20 PUSH0 DUP5 MLOAD PUSH1 0x20 DUP7 ADD PUSH0 DUP9 GAS CALL DUP1 PUSH2 0xFAD JUMPI PUSH1 0x40 MLOAD RETURNDATASIZE PUSH0 DUP3 RETURNDATACOPY RETURNDATASIZE DUP2 REVERT JUMPDEST RETURNDATASIZE SWAP3 POP PUSH0 MLOAD SWAP2 POP POP PUSH0 DUP3 EQ PUSH2 0xFC6 JUMPI PUSH1 0x1 DUP2 EQ ISZERO PUSH2 0xFE1 JUMP JUMPDEST PUSH0 DUP5 PUSH20 0xFFFFFFFFFFFFFFFFFFFFFFFFFFFFFFFFFFFFFFFF AND EXTCODESIZE EQ JUMPDEST ISZERO PUSH2 0x1023 JUMPI DUP4 PUSH1 0x40 MLOAD PUSH32 0x5274AFE700000000000000000000000000000000000000000000000000000000 DUP2 MSTORE PUSH1 0x4 ADD PUSH2 0x101A SWAP2 SWAP1 PUSH2 0x1126 JUMP JUMPDEST PUSH1 0x40 MLOAD DUP1 SWAP2 SUB SWAP1 REVERT JUMPDEST POP POP POP POP JUMP JUMPDEST PUSH0 PUSH11 0x636F6E736F6C652E6C6F67 SWAP1 POP PUSH0 PUSH0 DUP4 MLOAD PUSH1 0x20 DUP6 ADD DUP5 GAS STATICCALL POP POP POP JUMP JUMPDEST PUSH2 0x1053 DUP2 SWAP1 POP SWAP2 SWAP1 POP JUMP JUMPDEST PUSH2 0x105B PUSH2 0x187A JUMP JUMPDEST JUMP JUMPDEST PUSH0 PUSH0 REVERT JUMPDEST PUSH0 DUP2 SWAP1 POP SWAP2 SWAP1 POP JUMP JUMPDEST PUSH2 0x1073 DUP2 PUSH2 0x1061 JUMP JUMPDEST DUP2 EQ PUSH2 0x107D JUMPI PUSH0 PUSH0 REVERT JUMPDEST POP JUMP JUMPDEST PUSH0 DUP2 CALLDATALOAD SWAP1 POP PUSH2 0x108E DUP2 PUSH2 0x106A JUMP JUMPDEST SWAP3 SWAP2 POP POP JUMP JUMPDEST PUSH0 PUSH1 0x20 DUP3 DUP5 SUB SLT ISZERO PUSH2 0x10A9 JUMPI PUSH2 0x10A8 PUSH2 0x105D JUMP JUMPDEST JUMPDEST PUSH0 PUSH2 0x10B6 DUP5 DUP3 DUP6 ADD PUSH2 0x1080 JUMP JUMPDEST SWAP2 POP POP SWAP3 SWAP2 POP POP JUMP JUMPDEST PUSH2 0x10C8 DUP2 PUSH2 0x1061 JUMP JUMPDEST DUP3 MSTORE POP POP JUMP JUMPDEST PUSH0 PUSH1 0x20 DUP3 ADD SWAP1 POP PUSH2 0x10E1 PUSH0 DUP4 ADD DUP5 PUSH2 0x10BF JUMP JUMPDEST SWAP3 SWAP2 POP POP JUMP JUMPDEST PUSH0 PUSH20 0xFFFFFFFFFFFFFFFFFFFFFFFFFFFFFFFFFFFFFFFF DUP3 AND SWAP1 POP SWAP2 SWAP1 POP JUMP JUMPDEST PUSH0 PUSH2 0x1110 DUP3 PUSH2 0x10E7 JUMP JUMPDEST SWAP1 POP SWAP2 SWAP1 POP JUMP JUMPDEST PUSH2 0x1120 DUP2 PUSH2 0x1106 JUMP JUMPDEST DUP3 MSTORE POP POP JUMP JUMPDEST PUSH0 PUSH1 0x20 DUP3 ADD SWAP1 POP PUSH2 0x1139 PUSH0 DUP4 ADD DUP5 PUSH2 0x1117 JUMP JUMPDEST SWAP3 SWAP2 POP POP JUMP JUMPDEST PUSH0 DUP2 SWAP1 POP SWAP2 SWAP1 POP JUMP JUMPDEST PUSH0 PUSH2 0x1162 PUSH2 0x115D PUSH2 0x1158 DUP5 PUSH2 0x10E7 JUMP JUMPDEST PUSH2 0x113F JUMP JUMPDEST PUSH2 0x10E7 JUMP JUMPDEST SWAP1 POP SWAP2 SWAP1 POP JUMP JUMPDEST PUSH0 PUSH2 0x1173 DUP3 PUSH2 0x1148 JUMP JUMPDEST SWAP1 POP SWAP2 SWAP1 POP JUMP JUMPDEST PUSH0 PUSH2 0x1184 DUP3 PUSH2 0x1169 JUMP JUMPDEST SWAP1 POP SWAP2 SWAP1 POP JUMP JUMPDEST PUSH2 0x1194 DUP2 PUSH2 0x117A JUMP JUMPDEST DUP3 MSTORE POP POP JUMP JUMPDEST PUSH0 PUSH1 0x20 DUP3 ADD SWAP1 POP PUSH2 0x11AD PUSH0 DUP4 ADD DUP5 PUSH2 0x118B JUMP JUMPDEST SWAP3 SWAP2 POP POP JUMP JUMPDEST PUSH2 0x11BC DUP2 PUSH2 0x1106 JUMP JUMPDEST DUP2 EQ PUSH2 0x11C6 JUMPI PUSH0 PUSH0 REVERT JUMPDEST POP JUMP JUMPDEST PUSH0 DUP2 CALLDATALOAD SWAP1 POP PUSH2 0x11D7 DUP2 PUSH2 0x11B3 JUMP JUMPDEST SWAP3 SWAP2 POP POP JUMP JUMPDEST PUSH0 PUSH1 0x20 DUP3 DUP5 SUB SLT ISZERO PUSH2 0x11F2 JUMPI PUSH2 0x11F1 PUSH2 0x105D JUMP JUMPDEST JUMPDEST PUSH0 PUSH2 0x11FF DUP5 DUP3 DUP6 ADD PUSH2 0x11C9 JUMP JUMPDEST SWAP2 POP POP SWAP3 SWAP2 POP POP JUMP JUMPDEST PUSH0 DUP3 DUP3 MSTORE PUSH1 0x20 DUP3 ADD SWAP1 POP SWAP3 SWAP2 POP POP JUMP JUMPDEST PUSH32 0x616D6F6E74206F6620746F6B656E206973206E6F74206C657373207468616E20 PUSH0 DUP3 ADD MSTORE PUSH32 0x7A65726F206F72207A65726F2100000000000000000000000000000000000000 PUSH1 0x20 DUP3 ADD MSTORE POP JUMP JUMPDEST PUSH0 PUSH2 0x1272 PUSH1 0x2D DUP4 PUSH2 0x1208 JUMP JUMPDEST SWAP2 POP PUSH2 0x127D DUP3 PUSH2 0x1218 JUMP JUMPDEST PUSH1 0x40 DUP3 ADD SWAP1 POP SWAP2 SWAP1 POP JUMP JUMPDEST PUSH0 PUSH1 0x20 DUP3 ADD SWAP1 POP DUP2 DUP2 SUB PUSH0 DUP4 ADD MSTORE PUSH2 0x129F DUP2 PUSH2 0x1266 JUMP JUMPDEST SWAP1 POP SWAP2 SWAP1 POP JUMP JUMPDEST PUSH0 DUP2 MLOAD SWAP1 POP PUSH2 0x12B4 DUP2 PUSH2 0x106A JUMP JUMPDEST SWAP3 SWAP2 POP POP JUMP JUMPDEST PUSH0 PUSH1 0x20 DUP3 DUP5 SUB SLT ISZERO PUSH2 0x12CF JUMPI PUSH2 0x12CE PUSH2 0x105D JUMP JUMPDEST JUMPDEST PUSH0 PUSH2 0x12DC DUP5 DUP3 DUP6 ADD PUSH2 0x12A6 JUMP JUMPDEST SWAP2 POP POP SWAP3 SWAP2 POP POP JUMP JUMPDEST PUSH32 0x7573657220646F206E6F74206861766520746F6B656E202C20636865636B2061 PUSH0 DUP3 ADD MSTORE PUSH32 0x6769616E21000000000000000000000000000000000000000000000000000000 PUSH1 0x20 DUP3 ADD MSTORE POP JUMP JUMPDEST PUSH0 PUSH2 0x133F PUSH1 0x25 DUP4 PUSH2 0x1208 JUMP JUMPDEST SWAP2 POP PUSH2 0x134A DUP3 PUSH2 0x12E5 JUMP JUMPDEST PUSH1 0x40 DUP3 ADD SWAP1 POP SWAP2 SWAP1 POP JUMP JUMPDEST PUSH0 PUSH1 0x20 DUP3 ADD SWAP1 POP DUP2 DUP2 SUB PUSH0 DUP4 ADD MSTORE PUSH2 0x136C DUP2 PUSH2 0x1333 JUMP JUMPDEST SWAP1 POP SWAP2 SWAP1 POP JUMP JUMPDEST PUSH0 DUP2 SWAP1 POP SWAP3 SWAP2 POP POP JUMP JUMPDEST POP JUMP JUMPDEST PUSH0 PUSH2 0x138B PUSH0 DUP4 PUSH2 0x1373 JUMP JUMPDEST SWAP2 POP PUSH2 0x1396 DUP3 PUSH2 0x137D JUMP JUMPDEST PUSH0 DUP3 ADD SWAP1 POP SWAP2 SWAP1 POP JUMP JUMPDEST PUSH0 PUSH2 0x13AA DUP3 PUSH2 0x1380 JUMP JUMPDEST SWAP2 POP DUP2 SWAP1 POP SWAP2 SWAP1 POP JUMP JUMPDEST PUSH32 0x6661696C656420746F2073656E64000000000000000000000000000000000000 PUSH0 DUP3 ADD MSTORE POP JUMP JUMPDEST PUSH0 PUSH2 0x13E8 PUSH1 0xE DUP4 PUSH2 0x1208 JUMP JUMPDEST SWAP2 POP PUSH2 0x13F3 DUP3 PUSH2 0x13B4 JUMP JUMPDEST PUSH1 0x20 DUP3 ADD SWAP1 POP SWAP2 SWAP1 POP JUMP JUMPDEST PUSH0 PUSH1 0x20 DUP3 ADD SWAP1 POP DUP2 DUP2 SUB PUSH0 DUP4 ADD MSTORE PUSH2 0x1415 DUP2 PUSH2 0x13DC JUMP JUMPDEST SWAP1 POP SWAP2 SWAP1 POP JUMP JUMPDEST PUSH32 0x4E487B7100000000000000000000000000000000000000000000000000000000 PUSH0 MSTORE PUSH1 0x11 PUSH1 0x4 MSTORE PUSH1 0x24 PUSH0 REVERT JUMPDEST PUSH0 PUSH2 0x1453 DUP3 PUSH2 0x1061 JUMP JUMPDEST SWAP2 POP PUSH32 0xFFFFFFFFFFFFFFFFFFFFFFFFFFFFFFFFFFFFFFFFFFFFFFFFFFFFFFFFFFFFFFFF DUP3 SUB PUSH2 0x1485 JUMPI PUSH2 0x1484 PUSH2 0x141C JUMP JUMPDEST JUMPDEST PUSH1 0x1 DUP3 ADD SWAP1 POP SWAP2 SWAP1 POP JUMP JUMPDEST PUSH0 PUSH1 0x40 DUP3 ADD SWAP1 POP PUSH2 0x14A3 PUSH0 DUP4 ADD DUP6 PUSH2 0x10BF JUMP JUMPDEST PUSH2 0x14B0 PUSH1 0x20 DUP4 ADD DUP5 PUSH2 0x10BF JUMP JUMPDEST SWAP4 SWAP3 POP POP POP JUMP JUMPDEST PUSH32 0x616D6F756E74206973206C657373207468616E207A65726F2100000000000000 PUSH0 DUP3 ADD MSTORE POP JUMP JUMPDEST PUSH0 PUSH2 0x14EB PUSH1 0x19 DUP4 PUSH2 0x1208 JUMP JUMPDEST SWAP2 POP PUSH2 0x14F6 DUP3 PUSH2 0x14B7 JUMP JUMPDEST PUSH1 0x20 DUP3 ADD SWAP1 POP SWAP2 SWAP1 POP JUMP JUMPDEST PUSH0 PUSH1 0x20 DUP3 ADD SWAP1 POP DUP2 DUP2 SUB PUSH0 DUP4 ADD MSTORE PUSH2 0x1518 DUP2 PUSH2 0x14DF JUMP JUMPDEST SWAP1 POP SWAP2 SWAP1 POP JUMP JUMPDEST PUSH32 0x6F7574206F662062616C6E636500000000000000000000000000000000000000 PUSH0 DUP3 ADD MSTORE POP JUMP JUMPDEST PUSH0 PUSH2 0x1553 PUSH1 0xD DUP4 PUSH2 0x1208 JUMP JUMPDEST SWAP2 POP PUSH2 0x155E DUP3 PUSH2 0x151F JUMP JUMPDEST PUSH1 0x20 DUP3 ADD SWAP1 POP SWAP2 SWAP1 POP JUMP JUMPDEST PUSH0 PUSH1 0x20 DUP3 ADD SWAP1 POP DUP2 DUP2 SUB PUSH0 DUP4 ADD MSTORE PUSH2 0x1580 DUP2 PUSH2 0x1547 JUMP JUMPDEST SWAP1 POP SWAP2 SWAP1 POP JUMP JUMPDEST PUSH32 0x6C6E7375667563656E742062616C616E63652021000000000000000000000000 PUSH0 DUP3 ADD MSTORE POP JUMP JUMPDEST PUSH0 PUSH2 0x15BB PUSH1 0x14 DUP4 PUSH2 0x1208 JUMP JUMPDEST SWAP2 POP PUSH2 0x15C6 DUP3 PUSH2 0x1587 JUMP JUMPDEST PUSH1 0x20 DUP3 ADD SWAP1 POP SWAP2 SWAP1 POP JUMP JUMPDEST PUSH0 PUSH1 0x20 DUP3 ADD SWAP1 POP DUP2 DUP2 SUB PUSH0 DUP4 ADD MSTORE PUSH2 0x15E8 DUP2 PUSH2 0x15AF JUMP JUMPDEST SWAP1 POP SWAP2 SWAP1 POP JUMP JUMPDEST PUSH32 0x6661696C65642100000000000000000000000000000000000000000000000000 PUSH0 DUP3 ADD MSTORE POP JUMP JUMPDEST PUSH0 PUSH2 0x1623 PUSH1 0x7 DUP4 PUSH2 0x1208 JUMP JUMPDEST SWAP2 POP PUSH2 0x162E DUP3 PUSH2 0x15EF JUMP JUMPDEST PUSH1 0x20 DUP3 ADD SWAP1 POP SWAP2 SWAP1 POP JUMP JUMPDEST PUSH0 PUSH1 0x20 DUP3 ADD SWAP1 POP DUP2 DUP2 SUB PUSH0 DUP4 ADD MSTORE PUSH2 0x1650 DUP2 PUSH2 0x1617 JUMP JUMPDEST SWAP1 POP SWAP2 SWAP1 POP JUMP JUMPDEST PUSH32 0x66696C6C20636F727265637420746F6B656E2070726963650000000000000000 PUSH0 DUP3 ADD MSTORE POP JUMP JUMPDEST PUSH0 PUSH2 0x168B PUSH1 0x18 DUP4 PUSH2 0x1208 JUMP JUMPDEST SWAP2 POP PUSH2 0x1696 DUP3 PUSH2 0x1657 JUMP JUMPDEST PUSH1 0x20 DUP3 ADD SWAP1 POP SWAP2 SWAP1 POP JUMP JUMPDEST PUSH0 PUSH1 0x20 DUP3 ADD SWAP1 POP DUP2 DUP2 SUB PUSH0 DUP4 ADD MSTORE PUSH2 0x16B8 DUP2 PUSH2 0x167F JUMP JUMPDEST SWAP1 POP SWAP2 SWAP1 POP JUMP JUMPDEST PUSH0 PUSH2 0x16C9 DUP3 PUSH2 0x1061 JUMP JUMPDEST SWAP2 POP PUSH2 0x16D4 DUP4 PUSH2 0x1061 JUMP JUMPDEST SWAP3 POP DUP3 DUP3 MUL PUSH2 0x16E2 DUP2 PUSH2 0x1061 JUMP JUMPDEST SWAP2 POP DUP3 DUP3 DIV DUP5 EQ DUP4 ISZERO OR PUSH2 0x16F9 JUMPI PUSH2 0x16F8 PUSH2 0x141C JUMP JUMPDEST JUMPDEST POP SWAP3 SWAP2 POP POP JUMP JUMPDEST PUSH32 0x4E487B7100000000000000000000000000000000000000000000000000000000 PUSH0 MSTORE PUSH1 0x12 PUSH1 0x4 MSTORE PUSH1 0x24 PUSH0 REVERT JUMPDEST PUSH0 PUSH2 0x1737 DUP3 PUSH2 0x1061 JUMP JUMPDEST SWAP2 POP PUSH2 0x1742 DUP4 PUSH2 0x1061 JUMP JUMPDEST SWAP3 POP DUP3 PUSH2 0x1752 JUMPI PUSH2 0x1751 PUSH2 0x1700 JUMP JUMPDEST JUMPDEST DUP3 DUP3 DIV SWAP1 POP SWAP3 SWAP2 POP POP JUMP JUMPDEST PUSH0 DUP2 MLOAD SWAP1 POP SWAP2 SWAP1 POP JUMP JUMPDEST DUP3 DUP2 DUP4 MCOPY PUSH0 DUP4 DUP4 ADD MSTORE POP POP POP JUMP JUMPDEST PUSH0 PUSH1 0x1F NOT PUSH1 0x1F DUP4 ADD AND SWAP1 POP SWAP2 SWAP1 POP JUMP JUMPDEST PUSH0 PUSH2 0x178F DUP3 PUSH2 0x175D JUMP JUMPDEST PUSH2 0x1799 DUP2 DUP6 PUSH2 0x1208 JUMP JUMPDEST SWAP4 POP PUSH2 0x17A9 DUP2 DUP6 PUSH1 0x20 DUP7 ADD PUSH2 0x1767 JUMP JUMPDEST PUSH2 0x17B2 DUP2 PUSH2 0x1775 JUMP JUMPDEST DUP5 ADD SWAP2 POP POP SWAP3 SWAP2 POP POP JUMP JUMPDEST PUSH0 PUSH1 0x40 DUP3 ADD SWAP1 POP DUP2 DUP2 SUB PUSH0 DUP4 ADD MSTORE PUSH2 0x17D5 DUP2 DUP6 PUSH2 0x1785 JUMP JUMPDEST SWAP1 POP PUSH2 0x17E4 PUSH1 0x20 DUP4 ADD DUP5 PUSH2 0x10BF JUMP JUMPDEST SWAP4 SWAP3 POP POP POP JUMP JUMPDEST PUSH0 PUSH1 0x60 DUP3 ADD SWAP1 POP PUSH2 0x17FE PUSH0 DUP4 ADD DUP7 PUSH2 0x1117 JUMP JUMPDEST PUSH2 0x180B PUSH1 0x20 DUP4 ADD DUP6 PUSH2 0x1117 JUMP JUMPDEST PUSH2 0x1818 PUSH1 0x40 DUP4 ADD DUP5 PUSH2 0x10BF JUMP JUMPDEST SWAP5 SWAP4 POP POP POP POP JUMP JUMPDEST PUSH0 PUSH1 0x40 DUP3 ADD SWAP1 POP PUSH2 0x1833 PUSH0 DUP4 ADD DUP6 PUSH2 0x1117 JUMP JUMPDEST PUSH2 0x1840 PUSH1 0x20 DUP4 ADD DUP5 PUSH2 0x10BF JUMP JUMPDEST SWAP4 SWAP3 POP POP POP JUMP JUMPDEST PUSH0 PUSH2 0x1851 DUP3 PUSH2 0x1061 JUMP JUMPDEST SWAP2 POP PUSH2 0x185C DUP4 PUSH2 0x1061 JUMP JUMPDEST SWAP3 POP DUP3 DUP3 ADD SWAP1 POP DUP1 DUP3 GT ISZERO PUSH2 0x1874 JUMPI PUSH2 0x1873 PUSH2 0x141C JUMP JUMPDEST JUMPDEST SWAP3 SWAP2 POP POP JUMP JUMPDEST PUSH32 0x4E487B7100000000000000000000000000000000000000000000000000000000 PUSH0 MSTORE PUSH1 0x51 PUSH1 0x4 MSTORE PUSH1 0x24 PUSH0 REVERT INVALID LOG2 PUSH5 0x6970667358 0x22 SLT KECCAK256 0xB7 CALL 0xDE 0xC SWAP13 PUSH28 0x2E94F47C23CCB8040D93867DDCBD7B53D15F856D95BE00A5C0BA6473 PUSH16 0x6C634300081F00330000000000000000 "
		},
		"gasEstimates": {
			"creation": {
				"codeDepositCost": "1273000",
				"executionCost": "infinite",
				"totalCost": "infinite"
			},
			"external": {
				"adjustTokenPriceBasedOnDemand()": "infinite",
				"buyGLDToken(uint256)": "infinite",
				"buyerCount()": "2491",
				"calculateTokenPrice(uint256)": "infinite",
				"gldToken()": "infinite",
				"owner()": "2536",
				"prevAdjustedRatio()": "2471",
				"renounceOwnership()": "infinite",
				"sellGLDToken(uint256)": "infinite",
				"sellerCount()": "2448",
				"tokenPrice()": "2492",
				"transferOwnership(address)": "infinite",
				"withdrawEther(uint256)": "infinite",
				"withdrawTokens(uint256)": "infinite"
			}
		},
		"methodIdentifiers": {
			"adjustTokenPriceBasedOnDemand()": "384afcdb",
			"buyGLDToken(uint256)": "5329fd24",
			"buyerCount()": "9e0cea05",
			"calculateTokenPrice(uint256)": "072de7f3",
			"gldToken()": "9939b8b2",
			"owner()": "8da5cb5b",
			"prevAdjustedRatio()": "214bcd18",
			"renounceOwnership()": "715018a6",
			"sellGLDToken(uint256)": "30089342",
			"sellerCount()": "59fa9b1f",
			"tokenPrice()": "7ff9b596",
			"transferOwnership(address)": "f2fde38b",
			"withdrawEther(uint256)": "3bed33ce",
			"withdrawTokens(uint256)": "315a095d"
		}
	},
	"abi": [
		{
			"inputs": [
				{
					"internalType": "address",
					"name": "_gldToken",
					"type": "address"
				}
			],
			"stateMutability": "nonpayable",
			"type": "constructor"
		},
		{
			"inputs": [
				{
					"internalType": "address",
					"name": "owner",
					"type": "address"
				}
			],
			"name": "OwnableInvalidOwner",
			"type": "error"
		},
		{
			"inputs": [
				{
					"internalType": "address",
					"name": "account",
					"type": "address"
				}
			],
			"name": "OwnableUnauthorizedAccount",
			"type": "error"
		},
		{
			"inputs": [
				{
					"internalType": "address",
					"name": "token",
					"type": "address"
				}
			],
			"name": "SafeERC20FailedOperation",
			"type": "error"
		},
		{
			"anonymous": false,
			"inputs": [
				{
					"indexed": false,
					"internalType": "uint256",
					"name": "priceToPay",
					"type": "uint256"
				}
			],
			"name": "CalculateTokenPrice",
			"type": "event"
		},
		{
			"anonymous": false,
			"inputs": [
				{
					"indexed": true,
					"internalType": "address",
					"name": "owner",
					"type": "address"
				},
				{
					"indexed": false,
					"internalType": "uint256",
					"name": "amount",
					"type": "uint256"
				}
			],
			"name": "EtherWithdrawn",
			"type": "event"
		},
		{
			"anonymous": false,
			"inputs": [
				{
					"indexed": true,
					"internalType": "address",
					"name": "previousOwner",
					"type": "address"
				},
				{
					"indexed": true,
					"internalType": "address",
					"name": "newOwner",
					"type": "address"
				}
			],
			"name": "OwnershipTransferred",
			"type": "event"
		},
		{
			"anonymous": false,
			"inputs": [
				{
					"indexed": true,
					"internalType": "address",
					"name": "buyer",
					"type": "address"
				},
				{
					"indexed": false,
					"internalType": "uint256",
					"name": "amount",
					"type": "uint256"
				},
				{
					"indexed": false,
					"internalType": "uint256",
					"name": "totalCost",
					"type": "uint256"
				}
			],
			"name": "TokenBought",
			"type": "event"
		},
		{
			"anonymous": false,
			"inputs": [
				{
					"indexed": false,
					"internalType": "uint256",
					"name": "newPrice",
					"type": "uint256"
				}
			],
			"name": "TokenPriceUpdated",
			"type": "event"
		},
		{
			"anonymous": false,
			"inputs": [
				{
					"indexed": true,
					"internalType": "address",
					"name": "seller",
					"type": "address"
				},
				{
					"indexed": false,
					"internalType": "uint256",
					"name": "amount",
					"type": "uint256"
				},
				{
					"indexed": false,
					"internalType": "uint256",
					"name": "totalEarned",
					"type": "uint256"
				}
			],
			"name": "TokenSold",
			"type": "event"
		},
		{
			"anonymous": false,
			"inputs": [
				{
					"indexed": true,
					"internalType": "address",
					"name": "owner",
					"type": "address"
				},
				{
					"indexed": false,
					"internalType": "uint256",
					"name": "amount",
					"type": "uint256"
				}
			],
			"name": "TokensWithdrawn",
			"type": "event"
		},
		{
			"inputs": [],
			"name": "adjustTokenPriceBasedOnDemand",
			"outputs": [],
			"stateMutability": "nonpayable",
			"type": "function"
		},
		{
			"inputs": [
				{
					"internalType": "uint256",
					"name": "_amountOfToken",
					"type": "uint256"
				}
			],
			"name": "buyGLDToken",
			"outputs": [],
			"stateMutability": "payable",
			"type": "function"
		},
		{
			"inputs": [],
			"name": "buyerCount",
			"outputs": [
				{
					"internalType": "uint256",
					"name": "",
					"type": "uint256"
				}
			],
			"stateMutability": "view",
			"type": "function"
		},
		{
			"inputs": [
				{
					"internalType": "uint256",
					"name": "_amountOfToken",
					"type": "uint256"
				}
			],
			"name": "calculateTokenPrice",
			"outputs": [
				{
					"internalType": "uint256",
					"name": "",
					"type": "uint256"
				}
			],
			"stateMutability": "nonpayable",
			"type": "function"
		},
		{
			"inputs": [],
			"name": "gldToken",
			"outputs": [
				{
					"internalType": "contract IERC20",
					"name": "",
					"type": "address"
				}
			],
			"stateMutability": "view",
			"type": "function"
		},
		{
			"inputs": [],
			"name": "owner",
			"outputs": [
				{
					"internalType": "address",
					"name": "",
					"type": "address"
				}
			],
			"stateMutability": "view",
			"type": "function"
		},
		{
			"inputs": [],
			"name": "prevAdjustedRatio",
			"outputs": [
				{
					"internalType": "uint256",
					"name": "",
					"type": "uint256"
				}
			],
			"stateMutability": "view",
			"type": "function"
		},
		{
			"inputs": [],
			"name": "renounceOwnership",
			"outputs": [],
			"stateMutability": "nonpayable",
			"type": "function"
		},
		{
			"inputs": [
				{
					"internalType": "uint256",
					"name": "amountOfToken",
					"type": "uint256"
				}
			],
			"name": "sellGLDToken",
			"outputs": [],
			"stateMutability": "nonpayable",
			"type": "function"
		},
		{
			"inputs": [],
			"name": "sellerCount",
			"outputs": [
				{
					"internalType": "uint256",
					"name": "",
					"type": "uint256"
				}
			],
			"stateMutability": "view",
			"type": "function"
		},
		{
			"inputs": [],
			"name": "tokenPrice",
			"outputs": [
				{
					"internalType": "uint256",
					"name": "",
					"type": "uint256"
				}
			],
			"stateMutability": "view",
			"type": "function"
		},
		{
			"inputs": [
				{
					"internalType": "address",
					"name": "newOwner",
					"type": "address"
				}
			],
			"name": "transferOwnership",
			"outputs": [],
			"stateMutability": "nonpayable",
			"type": "function"
		},
		{
			"inputs": [
				{
					"internalType": "uint256",
					"name": "amount",
					"type": "uint256"
				}
			],
			"name": "withdrawEther",
			"outputs": [],
			"stateMutability": "nonpayable",
			"type": "function"
		},
		{
			"inputs": [
				{
					"internalType": "uint256",
					"name": "amount",
					"type": "uint256"
				}
			],
			"name": "withdrawTokens",
			"outputs": [],
			"stateMutability": "nonpayable",
			"type": "function"
		}
	]
}